{
  "contractName": "CalAuth",
  "abi": [
    {
      "inputs": [
        {
          "internalType": "address",
          "name": "_addr",
          "type": "address"
        }
      ],
      "stateMutability": "nonpayable",
      "type": "constructor"
    },
    {
      "anonymous": false,
      "inputs": [
        {
          "indexed": true,
          "internalType": "address",
          "name": "previousOwner",
          "type": "address"
        },
        {
          "indexed": true,
          "internalType": "address",
          "name": "newOwner",
          "type": "address"
        }
      ],
      "name": "OwnershipTransferred",
      "type": "event"
    },
    {
      "anonymous": false,
      "inputs": [
        {
          "indexed": true,
          "internalType": "bytes32",
          "name": "role",
          "type": "bytes32"
        },
        {
          "indexed": true,
          "internalType": "bytes32",
          "name": "previousAdminRole",
          "type": "bytes32"
        },
        {
          "indexed": true,
          "internalType": "bytes32",
          "name": "newAdminRole",
          "type": "bytes32"
        }
      ],
      "name": "RoleAdminChanged",
      "type": "event"
    },
    {
      "anonymous": false,
      "inputs": [
        {
          "indexed": true,
          "internalType": "bytes32",
          "name": "role",
          "type": "bytes32"
        },
        {
          "indexed": true,
          "internalType": "address",
          "name": "account",
          "type": "address"
        },
        {
          "indexed": true,
          "internalType": "address",
          "name": "sender",
          "type": "address"
        }
      ],
      "name": "RoleGranted",
      "type": "event"
    },
    {
      "anonymous": false,
      "inputs": [
        {
          "indexed": true,
          "internalType": "bytes32",
          "name": "role",
          "type": "bytes32"
        },
        {
          "indexed": true,
          "internalType": "address",
          "name": "account",
          "type": "address"
        },
        {
          "indexed": true,
          "internalType": "address",
          "name": "sender",
          "type": "address"
        }
      ],
      "name": "RoleRevoked",
      "type": "event"
    },
    {
      "inputs": [],
      "name": "DEFAULT_ADMIN_ROLE",
      "outputs": [
        {
          "internalType": "bytes32",
          "name": "",
          "type": "bytes32"
        }
      ],
      "stateMutability": "view",
      "type": "function",
      "constant": true
    },
    {
      "inputs": [],
      "name": "USER_READ_ROLE",
      "outputs": [
        {
          "internalType": "bytes32",
          "name": "",
          "type": "bytes32"
        }
      ],
      "stateMutability": "view",
      "type": "function",
      "constant": true
    },
    {
      "inputs": [],
      "name": "USER_WRITE_ROLE",
      "outputs": [
        {
          "internalType": "bytes32",
          "name": "",
          "type": "bytes32"
        }
      ],
      "stateMutability": "view",
      "type": "function",
      "constant": true
    },
    {
      "inputs": [
        {
          "internalType": "bytes32",
          "name": "role",
          "type": "bytes32"
        }
      ],
      "name": "getRoleAdmin",
      "outputs": [
        {
          "internalType": "bytes32",
          "name": "",
          "type": "bytes32"
        }
      ],
      "stateMutability": "view",
      "type": "function",
      "constant": true
    },
    {
      "inputs": [
        {
          "internalType": "bytes32",
          "name": "role",
          "type": "bytes32"
        },
        {
          "internalType": "uint256",
          "name": "index",
          "type": "uint256"
        }
      ],
      "name": "getRoleMember",
      "outputs": [
        {
          "internalType": "address",
          "name": "",
          "type": "address"
        }
      ],
      "stateMutability": "view",
      "type": "function",
      "constant": true
    },
    {
      "inputs": [
        {
          "internalType": "bytes32",
          "name": "role",
          "type": "bytes32"
        }
      ],
      "name": "getRoleMemberCount",
      "outputs": [
        {
          "internalType": "uint256",
          "name": "",
          "type": "uint256"
        }
      ],
      "stateMutability": "view",
      "type": "function",
      "constant": true
    },
    {
      "inputs": [
        {
          "internalType": "bytes32",
          "name": "role",
          "type": "bytes32"
        },
        {
          "internalType": "address",
          "name": "account",
          "type": "address"
        }
      ],
      "name": "grantRole",
      "outputs": [],
      "stateMutability": "nonpayable",
      "type": "function"
    },
    {
      "inputs": [
        {
          "internalType": "bytes32",
          "name": "role",
          "type": "bytes32"
        },
        {
          "internalType": "address",
          "name": "account",
          "type": "address"
        }
      ],
      "name": "hasRole",
      "outputs": [
        {
          "internalType": "bool",
          "name": "",
          "type": "bool"
        }
      ],
      "stateMutability": "view",
      "type": "function",
      "constant": true
    },
    {
      "inputs": [],
      "name": "owner",
      "outputs": [
        {
          "internalType": "address",
          "name": "",
          "type": "address"
        }
      ],
      "stateMutability": "view",
      "type": "function",
      "constant": true
    },
    {
      "inputs": [],
      "name": "renounceOwnership",
      "outputs": [],
      "stateMutability": "nonpayable",
      "type": "function"
    },
    {
      "inputs": [
        {
          "internalType": "bytes32",
          "name": "role",
          "type": "bytes32"
        },
        {
          "internalType": "address",
          "name": "account",
          "type": "address"
        }
      ],
      "name": "renounceRole",
      "outputs": [],
      "stateMutability": "nonpayable",
      "type": "function"
    },
    {
      "inputs": [
        {
          "internalType": "bytes32",
          "name": "role",
          "type": "bytes32"
        },
        {
          "internalType": "address",
          "name": "account",
          "type": "address"
        }
      ],
      "name": "revokeRole",
      "outputs": [],
      "stateMutability": "nonpayable",
      "type": "function"
    },
    {
      "inputs": [
        {
          "internalType": "address",
          "name": "newOwner",
          "type": "address"
        }
      ],
      "name": "transferOwnership",
      "outputs": [],
      "stateMutability": "nonpayable",
      "type": "function"
    },
    {
      "inputs": [
        {
          "internalType": "uint256",
          "name": "_dtstamp",
          "type": "uint256"
        },
        {
          "internalType": "uint256",
          "name": "_dtstart",
          "type": "uint256"
        },
        {
          "internalType": "uint256",
          "name": "_dtend",
          "type": "uint256"
        },
        {
          "internalType": "string",
          "name": "_summary",
          "type": "string"
        },
        {
          "internalType": "string",
          "name": "_description",
          "type": "string"
        },
        {
          "internalType": "bool",
          "name": "_isallday",
          "type": "bool"
        },
        {
          "internalType": "string",
          "name": "_alldaystartdate",
          "type": "string"
        },
        {
          "internalType": "string",
          "name": "_alldayenddate",
          "type": "string"
        }
      ],
      "name": "storeEvent",
      "outputs": [],
      "stateMutability": "nonpayable",
      "type": "function"
    },
    {
      "inputs": [
        {
          "internalType": "uint256",
          "name": "_dtstamp",
          "type": "uint256"
        }
      ],
      "name": "removeEvent",
      "outputs": [],
      "stateMutability": "nonpayable",
      "type": "function"
    },
    {
      "inputs": [
        {
          "internalType": "address",
          "name": "_user",
          "type": "address"
        }
      ],
      "name": "getEventsIcal",
      "outputs": [
        {
          "internalType": "string",
          "name": "",
          "type": "string"
        }
      ],
      "stateMutability": "view",
      "type": "function",
      "constant": true
    },
    {
      "inputs": [],
      "name": "getEventsObj",
      "outputs": [
        {
          "components": [
            {
              "internalType": "uint256",
              "name": "dtstamp",
              "type": "uint256"
            },
            {
              "internalType": "uint256",
              "name": "dtstart",
              "type": "uint256"
            },
            {
              "internalType": "uint256",
              "name": "dtend",
              "type": "uint256"
            },
            {
              "internalType": "string",
              "name": "summary",
              "type": "string"
            },
            {
              "internalType": "string",
              "name": "description",
              "type": "string"
            },
            {
              "internalType": "bool",
              "name": "isallday",
              "type": "bool"
            },
            {
              "internalType": "string",
              "name": "alldaystartdate",
              "type": "string"
            },
            {
              "internalType": "string",
              "name": "alldayenddate",
              "type": "string"
            },
            {
              "internalType": "uint256",
              "name": "uid",
              "type": "uint256"
            }
          ],
          "internalType": "struct VEventLibrary.VEvent[]",
          "name": "",
          "type": "tuple[]"
        }
      ],
      "stateMutability": "view",
      "type": "function",
      "constant": true
    },
    {
      "inputs": [],
      "name": "getUserRole",
      "outputs": [
        {
          "internalType": "string",
          "name": "",
          "type": "string"
        }
      ],
      "stateMutability": "view",
      "type": "function",
      "constant": true
    },
    {
      "inputs": [
        {
          "internalType": "address",
          "name": "userAddress",
          "type": "address"
        }
      ],
      "name": "addRead",
      "outputs": [],
      "stateMutability": "nonpayable",
      "type": "function"
    },
    {
      "inputs": [
        {
          "internalType": "address",
          "name": "userAddress",
          "type": "address"
        }
      ],
      "name": "addWrite",
      "outputs": [],
      "stateMutability": "nonpayable",
      "type": "function"
    },
    {
      "inputs": [
        {
          "internalType": "address",
          "name": "userAddress",
          "type": "address"
        }
      ],
      "name": "revokeRead",
      "outputs": [],
      "stateMutability": "nonpayable",
      "type": "function"
    },
    {
      "inputs": [
        {
          "internalType": "address",
          "name": "userAddress",
          "type": "address"
        }
      ],
      "name": "revokeWrite",
      "outputs": [],
      "stateMutability": "nonpayable",
      "type": "function"
    },
    {
      "inputs": [],
      "name": "userReadWelcomeString",
      "outputs": [
        {
          "internalType": "string",
          "name": "",
          "type": "string"
        }
      ],
      "stateMutability": "view",
      "type": "function",
      "constant": true
    },
    {
      "inputs": [],
      "name": "ownerWelcomeString",
      "outputs": [
        {
          "internalType": "string",
          "name": "",
          "type": "string"
        }
      ],
      "stateMutability": "view",
      "type": "function",
      "constant": true
    },
    {
      "inputs": [],
      "name": "justSayHiCalAuth",
      "outputs": [
        {
          "internalType": "string",
          "name": "",
          "type": "string"
        }
      ],
      "stateMutability": "pure",
      "type": "function",
      "constant": true
    }
  ],
  "bytecode": "0x60806040523480156200001157600080fd5b50604051620031f9380380620031f98339818101604052810190620000379190620002f2565b6000620000496200014460201b60201c565b9050806000806101000a81548173ffffffffffffffffffffffffffffffffffffffff021916908373ffffffffffffffffffffffffffffffffffffffff1602179055508073ffffffffffffffffffffffffffffffffffffffff16600073ffffffffffffffffffffffffffffffffffffffff167f8be0079c531659141344cd1fd0a4f28419497f9722a3daafe3b4186f6b6457e060405160405180910390a350620000fc6000801b336200014c60201b60201c565b80600260006101000a81548173ffffffffffffffffffffffffffffffffffffffff021916908373ffffffffffffffffffffffffffffffffffffffff160217905550506200036c565b600033905090565b6200015e82826200016260201b60201c565b5050565b6200019181600160008581526020019081526020016000206000016200020660201b62001be31790919060201c565b156200020257620001a76200014460201b60201c565b73ffffffffffffffffffffffffffffffffffffffff168173ffffffffffffffffffffffffffffffffffffffff16837f2f8788117e7eff1d82e926ec794901d17c78024a50270940304540a733656f0d60405160405180910390a45b5050565b600062000236836000018373ffffffffffffffffffffffffffffffffffffffff1660001b6200023e60201b60201c565b905092915050565b6000620002528383620002b860201b60201c565b620002ad578260000182908060018154018082558091505060019003906000526020600020016000909190919091505582600001805490508360010160008481526020019081526020016000208190555060019050620002b2565b600090505b92915050565b600080836001016000848152602001908152602001600020541415905092915050565b600081519050620002ec8162000352565b92915050565b6000602082840312156200030557600080fd5b60006200031584828501620002db565b91505092915050565b60006200032b8262000332565b9050919050565b600073ffffffffffffffffffffffffffffffffffffffff82169050919050565b6200035d816200031e565b81146200036957600080fd5b50565b612e7d806200037c6000396000f3fe608060405234801561001057600080fd5b50600436106101735760003560e01c8063869cd0c1116100de578063bf04a10d11610097578063d547741f11610071578063d547741f14610424578063ee1bf5db14610440578063f2fde38b1461045e578063fd4a74a11461047a57610173565b8063bf04a10d146103b8578063ca15c873146103d6578063caebb9911461040657610173565b8063869cd0c1146102e25780638da5cb5b146103005780639010d07c1461031e57806391d148541461034e578063a217fddf1461037e578063ab7cc4d21461039c57610173565b806336568abe1161013057806336568abe1461024a578063553bae641461026657806356164e1e14610284578063607360d3146102a05780636bf7e0bb146102bc578063715018a6146102d857610173565b806310d00a67146101785780631d5ad45b146101a85780631f79ec09146101c4578063248a9ca3146101e0578063283e8442146102105780632f2ff15d1461022e575b600080fd5b610192600480360381019061018d91906122a1565b610498565b60405161019f9190612a88565b60405180910390f35b6101c260048036038101906101bd91906122a1565b6105f6565b005b6101de60048036038101906101d991906122a1565b6106b8565b005b6101fa60048036038101906101f5919061230b565b61077a565b6040516102079190612a6d565b60405180910390f35b61021861079a565b6040516102259190612a6d565b60405180910390f35b61024860048036038101906102439190612334565b6107be565b005b610264600480360381019061025f9190612334565b610832565b005b61026e6108b5565b60405161027b9190612a88565b60405180910390f35b61029e600480360381019061029991906123ed565b6108f2565b005b6102ba60048036038101906102b591906122a1565b610c5f565b005b6102d660048036038101906102d191906122a1565b610d21565b005b6102e0610de3565b005b6102ea610f36565b6040516102f79190612a88565b60405180910390f35b610308611008565b6040516103159190612a15565b60405180910390f35b61033860048036038101906103339190612370565b611031565b6040516103459190612a15565b60405180910390f35b61036860048036038101906103639190612334565b611063565b6040516103759190612a52565b60405180910390f35b610386611095565b6040516103939190612a6d565b60405180910390f35b6103b660048036038101906103b19190612416565b61109c565b005b6103c0611332565b6040516103cd9190612a88565b60405180910390f35b6103f060048036038101906103eb919061230b565b611497565b6040516103fd9190612baa565b60405180910390f35b61040e6114be565b60405161041b9190612a30565b60405180910390f35b61043e60048036038101906104399190612334565b6118e3565b005b610448611957565b6040516104559190612a6d565b60405180910390f35b610478600480360381019061047391906122a1565b61197b565b005b610482611b3d565b60405161048f9190612a88565b60405180910390f35b6060816104a86000801b82611063565b806104d957506104d87f238cc277b81124817de0fb6e725dfaca359442ead042cbf4fa5a5d15a441d45482611063565b5b8061050a57506105097f60b176c013bc5f6a4aaf9c1455cc3ff5e7ee54daffb41be2fd0e50b804acad4282611063565b5b610549576040517f08c379a000000000000000000000000000000000000000000000000000000000815260040161054090612aca565b60405180910390fd5b600260009054906101000a900473ffffffffffffffffffffffffffffffffffffffff1673ffffffffffffffffffffffffffffffffffffffff16635c91e17e6040518163ffffffff1660e01b815260040160006040518083038186803b1580156105b157600080fd5b505afa1580156105c5573d6000803e3d6000fd5b505050506040513d6000823e3d601f19601f820116820180604052508101906105ee91906123ac565b915050919050565b6105fe611c13565b73ffffffffffffffffffffffffffffffffffffffff1660008054906101000a900473ffffffffffffffffffffffffffffffffffffffff1673ffffffffffffffffffffffffffffffffffffffff161461068b576040517f08c379a000000000000000000000000000000000000000000000000000000000815260040161068290612b4a565b60405180910390fd5b6106b57f60b176c013bc5f6a4aaf9c1455cc3ff5e7ee54daffb41be2fd0e50b804acad42826107be565b50565b6106c0611c13565b73ffffffffffffffffffffffffffffffffffffffff1660008054906101000a900473ffffffffffffffffffffffffffffffffffffffff1673ffffffffffffffffffffffffffffffffffffffff161461074d576040517f08c379a000000000000000000000000000000000000000000000000000000000815260040161074490612b4a565b60405180910390fd5b6107777f238cc277b81124817de0fb6e725dfaca359442ead042cbf4fa5a5d15a441d454826118e3565b50565b600060016000838152602001908152602001600020600201549050919050565b7f60b176c013bc5f6a4aaf9c1455cc3ff5e7ee54daffb41be2fd0e50b804acad4281565b6107e560016000848152602001908152602001600020600201546107e0611c13565b611063565b610824576040517f08c379a000000000000000000000000000000000000000000000000000000000815260040161081b90612aea565b60405180910390fd5b61082e8282611c1b565b5050565b61083a611c13565b73ffffffffffffffffffffffffffffffffffffffff168173ffffffffffffffffffffffffffffffffffffffff16146108a7576040517f08c379a000000000000000000000000000000000000000000000000000000000815260040161089e90612b8a565b60405180910390fd5b6108b18282611caf565b5050565b60606040518060400160405280600f81526020017f48692066726f6d2043616c417574680000000000000000000000000000000000815250905090565b7f238cc277b81124817de0fb6e725dfaca359442ead042cbf4fa5a5d15a441d45480811415610aa3576109286000801b33611063565b8061095957506109587f238cc277b81124817de0fb6e725dfaca359442ead042cbf4fa5a5d15a441d45433611063565b5b610998576040517f08c379a000000000000000000000000000000000000000000000000000000000815260040161098f90612aca565b60405180910390fd5b6109a56000801b33611063565b806109d657506109d57f238cc277b81124817de0fb6e725dfaca359442ead042cbf4fa5a5d15a441d45433611063565b5b610a15576040517f08c379a0000000000000000000000000000000000000000000000000000000008152600401610a0c90612aca565b60405180910390fd5b600260009054906101000a900473ffffffffffffffffffffffffffffffffffffffff1673ffffffffffffffffffffffffffffffffffffffff166356164e1e836040518263ffffffff1660e01b8152600401610a709190612baa565b600060405180830381600087803b158015610a8a57600080fd5b505af1158015610a9e573d6000803e3d6000fd5b505050505b610ab06000801b33611063565b80610ae15750610ae07f238cc277b81124817de0fb6e725dfaca359442ead042cbf4fa5a5d15a441d45433611063565b5b80610b125750610b117f60b176c013bc5f6a4aaf9c1455cc3ff5e7ee54daffb41be2fd0e50b804acad4233611063565b5b610b51576040517f08c379a0000000000000000000000000000000000000000000000000000000008152600401610b4890612aca565b60405180910390fd5b610b5e6000801b33611063565b80610b8f5750610b8e7f238cc277b81124817de0fb6e725dfaca359442ead042cbf4fa5a5d15a441d45433611063565b5b610bce576040517f08c379a0000000000000000000000000000000000000000000000000000000008152600401610bc590612aca565b60405180910390fd5b600260009054906101000a900473ffffffffffffffffffffffffffffffffffffffff1673ffffffffffffffffffffffffffffffffffffffff166356164e1e836040518263ffffffff1660e01b8152600401610c299190612baa565b600060405180830381600087803b158015610c4357600080fd5b505af1158015610c57573d6000803e3d6000fd5b505050505050565b610c67611c13565b73ffffffffffffffffffffffffffffffffffffffff1660008054906101000a900473ffffffffffffffffffffffffffffffffffffffff1673ffffffffffffffffffffffffffffffffffffffff1614610cf4576040517f08c379a0000000000000000000000000000000000000000000000000000000008152600401610ceb90612b4a565b60405180910390fd5b610d1e7f60b176c013bc5f6a4aaf9c1455cc3ff5e7ee54daffb41be2fd0e50b804acad42826118e3565b50565b610d29611c13565b73ffffffffffffffffffffffffffffffffffffffff1660008054906101000a900473ffffffffffffffffffffffffffffffffffffffff1673ffffffffffffffffffffffffffffffffffffffff1614610db6576040517f08c379a0000000000000000000000000000000000000000000000000000000008152600401610dad90612b4a565b60405180910390fd5b610de07f238cc277b81124817de0fb6e725dfaca359442ead042cbf4fa5a5d15a441d454826107be565b50565b610deb611c13565b73ffffffffffffffffffffffffffffffffffffffff1660008054906101000a900473ffffffffffffffffffffffffffffffffffffffff1673ffffffffffffffffffffffffffffffffffffffff1614610e78576040517f08c379a0000000000000000000000000000000000000000000000000000000008152600401610e6f90612b4a565b60405180910390fd5b600073ffffffffffffffffffffffffffffffffffffffff1660008054906101000a900473ffffffffffffffffffffffffffffffffffffffff1673ffffffffffffffffffffffffffffffffffffffff167f8be0079c531659141344cd1fd0a4f28419497f9722a3daafe3b4186f6b6457e060405160405180910390a360008060006101000a81548173ffffffffffffffffffffffffffffffffffffffff021916908373ffffffffffffffffffffffffffffffffffffffff160217905550565b6060610f40611c13565b73ffffffffffffffffffffffffffffffffffffffff1660008054906101000a900473ffffffffffffffffffffffffffffffffffffffff1673ffffffffffffffffffffffffffffffffffffffff1614610fcd576040517f08c379a0000000000000000000000000000000000000000000000000000000008152600401610fc490612b4a565b60405180910390fd5b6040518060400160405280600d81526020017f57656c636f6d65206f776e657200000000000000000000000000000000000000815250905090565b60008060009054906101000a900473ffffffffffffffffffffffffffffffffffffffff16905090565b600061105b8260016000868152602001908152602001600020600001611d4390919063ffffffff16565b905092915050565b600061108d8260016000868152602001908152602001600020600001611d5d90919063ffffffff16565b905092915050565b6000801b81565b7f238cc277b81124817de0fb6e725dfaca359442ead042cbf4fa5a5d15a441d454808114156111de576110d26000801b33611063565b8061110357506111027f238cc277b81124817de0fb6e725dfaca359442ead042cbf4fa5a5d15a441d45433611063565b5b611142576040517f08c379a000000000000000000000000000000000000000000000000000000000815260040161113990612aca565b60405180910390fd5b600260009054906101000a900473ffffffffffffffffffffffffffffffffffffffff1673ffffffffffffffffffffffffffffffffffffffff1663ab7cc4d28a8a8a8a8a8a8a8a6040518963ffffffff1660e01b81526004016111ab989796959493929190612bc5565b600060405180830381600087803b1580156111c557600080fd5b505af11580156111d9573d6000803e3d6000fd5b505050505b6111eb6000801b33611063565b8061121c575061121b7f238cc277b81124817de0fb6e725dfaca359442ead042cbf4fa5a5d15a441d45433611063565b5b8061124d575061124c7f60b176c013bc5f6a4aaf9c1455cc3ff5e7ee54daffb41be2fd0e50b804acad4233611063565b5b61128c576040517f08c379a000000000000000000000000000000000000000000000000000000000815260040161128390612aca565b60405180910390fd5b600260009054906101000a900473ffffffffffffffffffffffffffffffffffffffff1673ffffffffffffffffffffffffffffffffffffffff1663ab7cc4d28a8a8a8a8a8a8a8a6040518963ffffffff1660e01b81526004016112f5989796959493929190612bc5565b600060405180830381600087803b15801561130f57600080fd5b505af1158015611323573d6000803e3d6000fd5b50505050505050505050505050565b60606113416000801b33611063565b15611383576040518060400160405280600581526020017f41444d494e0000000000000000000000000000000000000000000000000000008152509050611494565b6113ad7f238cc277b81124817de0fb6e725dfaca359442ead042cbf4fa5a5d15a441d45433611063565b156113ef576040518060400160405280600f81526020017f555345525f57524954455f524f4c4500000000000000000000000000000000008152509050611494565b6114197f60b176c013bc5f6a4aaf9c1455cc3ff5e7ee54daffb41be2fd0e50b804acad4233611063565b1561145b576040518060400160405280600e81526020017f555345525f524541445f524f4c450000000000000000000000000000000000008152509050611494565b6040518060400160405280600381526020017f4e494c000000000000000000000000000000000000000000000000000000000081525090505b90565b60006114b760016000848152602001908152602001600020600001611d8d565b9050919050565b60607f60b176c013bc5f6a4aaf9c1455cc3ff5e7ee54daffb41be2fd0e50b804acad427f238cc277b81124817de0fb6e725dfaca359442ead042cbf4fa5a5d15a441d4548114156116dc576115166000801b33611063565b8061154757506115467f238cc277b81124817de0fb6e725dfaca359442ead042cbf4fa5a5d15a441d45433611063565b5b611586576040517f08c379a000000000000000000000000000000000000000000000000000000000815260040161157d90612aca565b60405180910390fd5b6115936000801b33611063565b806115c457506115c37f238cc277b81124817de0fb6e725dfaca359442ead042cbf4fa5a5d15a441d45433611063565b5b806115f557506115f47f60b176c013bc5f6a4aaf9c1455cc3ff5e7ee54daffb41be2fd0e50b804acad4233611063565b5b611634576040517f08c379a000000000000000000000000000000000000000000000000000000000815260040161162b90612aca565b60405180910390fd5b600260009054906101000a900473ffffffffffffffffffffffffffffffffffffffff1673ffffffffffffffffffffffffffffffffffffffff1663caebb9916040518163ffffffff1660e01b815260040160006040518083038186803b15801561169c57600080fd5b505afa1580156116b0573d6000803e3d6000fd5b505050506040513d6000823e3d601f19601f820116820180604052508101906116d991906122ca565b91505b6116e96000801b33611063565b8061171a57506117197f238cc277b81124817de0fb6e725dfaca359442ead042cbf4fa5a5d15a441d45433611063565b5b8061174b575061174a7f60b176c013bc5f6a4aaf9c1455cc3ff5e7ee54daffb41be2fd0e50b804acad4233611063565b5b61178a576040517f08c379a000000000000000000000000000000000000000000000000000000000815260040161178190612aca565b60405180910390fd5b6117976000801b33611063565b806117c857506117c77f238cc277b81124817de0fb6e725dfaca359442ead042cbf4fa5a5d15a441d45433611063565b5b806117f957506117f87f60b176c013bc5f6a4aaf9c1455cc3ff5e7ee54daffb41be2fd0e50b804acad4233611063565b5b611838576040517f08c379a000000000000000000000000000000000000000000000000000000000815260040161182f90612aca565b60405180910390fd5b600260009054906101000a900473ffffffffffffffffffffffffffffffffffffffff1673ffffffffffffffffffffffffffffffffffffffff1663caebb9916040518163ffffffff1660e01b815260040160006040518083038186803b1580156118a057600080fd5b505afa1580156118b4573d6000803e3d6000fd5b505050506040513d6000823e3d601f19601f820116820180604052508101906118dd91906122ca565b91505090565b61190a6001600084815260200190815260200160002060020154611905611c13565b611063565b611949576040517f08c379a000000000000000000000000000000000000000000000000000000000815260040161194090612b2a565b60405180910390fd5b6119538282611caf565b5050565b7f238cc277b81124817de0fb6e725dfaca359442ead042cbf4fa5a5d15a441d45481565b611983611c13565b73ffffffffffffffffffffffffffffffffffffffff1660008054906101000a900473ffffffffffffffffffffffffffffffffffffffff1673ffffffffffffffffffffffffffffffffffffffff1614611a10576040517f08c379a0000000000000000000000000000000000000000000000000000000008152600401611a0790612b4a565b60405180910390fd5b600073ffffffffffffffffffffffffffffffffffffffff168173ffffffffffffffffffffffffffffffffffffffff161415611a80576040517f08c379a0000000000000000000000000000000000000000000000000000000008152600401611a7790612b0a565b60405180910390fd5b8073ffffffffffffffffffffffffffffffffffffffff1660008054906101000a900473ffffffffffffffffffffffffffffffffffffffff1673ffffffffffffffffffffffffffffffffffffffff167f8be0079c531659141344cd1fd0a4f28419497f9722a3daafe3b4186f6b6457e060405160405180910390a3806000806101000a81548173ffffffffffffffffffffffffffffffffffffffff021916908373ffffffffffffffffffffffffffffffffffffffff16021790555050565b6060611b697f60b176c013bc5f6a4aaf9c1455cc3ff5e7ee54daffb41be2fd0e50b804acad4233611063565b611ba8576040517f08c379a0000000000000000000000000000000000000000000000000000000008152600401611b9f90612b6a565b60405180910390fd5b6040518060400160405280601681526020017f57656c636f6d652072656164206f6e6c79207573657200000000000000000000815250905090565b6000611c0b836000018373ffffffffffffffffffffffffffffffffffffffff1660001b611da2565b905092915050565b600033905090565b611c438160016000858152602001908152602001600020600001611be390919063ffffffff16565b15611cab57611c50611c13565b73ffffffffffffffffffffffffffffffffffffffff168173ffffffffffffffffffffffffffffffffffffffff16837f2f8788117e7eff1d82e926ec794901d17c78024a50270940304540a733656f0d60405160405180910390a45b5050565b611cd78160016000858152602001908152602001600020600001611e1290919063ffffffff16565b15611d3f57611ce4611c13565b73ffffffffffffffffffffffffffffffffffffffff168173ffffffffffffffffffffffffffffffffffffffff16837ff6391f5c32d9c69d2a47ea670b442974b53935d1edc7fd64eb21e047a839171b60405160405180910390a45b5050565b6000611d528360000183611e42565b60001c905092915050565b6000611d85836000018373ffffffffffffffffffffffffffffffffffffffff1660001b611eaf565b905092915050565b6000611d9b82600001611ed2565b9050919050565b6000611dae8383611eaf565b611e07578260000182908060018154018082558091505060019003906000526020600020016000909190919091505582600001805490508360010160008481526020019081526020016000208190555060019050611e0c565b600090505b92915050565b6000611e3a836000018373ffffffffffffffffffffffffffffffffffffffff1660001b611ee3565b905092915050565b600081836000018054905011611e8d576040517f08c379a0000000000000000000000000000000000000000000000000000000008152600401611e8490612aaa565b60405180910390fd5b826000018281548110611e9c57fe5b9060005260206000200154905092915050565b600080836001016000848152602001908152602001600020541415905092915050565b600081600001805490509050919050565b60008083600101600084815260200190815260200160002054905060008114611fbf5760006001820390506000600186600001805490500390506000866000018281548110611f2e57fe5b9060005260206000200154905080876000018481548110611f4b57fe5b9060005260206000200181905550600183018760010160008381526020019081526020016000208190555086600001805480611f8357fe5b60019003818190600052602060002001600090559055866001016000878152602001908152602001600020600090556001945050505050611fc5565b60009150505b92915050565b600081359050611fda81612deb565b92915050565b600082601f830112611ff157600080fd5b8151612004611fff82612c8c565b612c5f565b9150818183526020840193506020810190508360005b8381101561204a5781518601612030888261213b565b84526020840193506020830192505060018101905061201a565b5050505092915050565b60008135905061206381612e02565b92915050565b60008151905061207881612e02565b92915050565b60008135905061208d81612e19565b92915050565b600082601f8301126120a457600080fd5b81356120b76120b282612cb4565b612c5f565b915080825260208301602083018583830111156120d357600080fd5b6120de838284612d98565b50505092915050565b600082601f8301126120f857600080fd5b815161210b61210682612cb4565b612c5f565b9150808252602083016020830185838301111561212757600080fd5b612132838284612da7565b50505092915050565b6000610120828403121561214e57600080fd5b612159610120612c5f565b905060006121698482850161228c565b600083015250602061217d8482850161228c565b60208301525060406121918482850161228c565b604083015250606082015167ffffffffffffffff8111156121b157600080fd5b6121bd848285016120e7565b606083015250608082015167ffffffffffffffff8111156121dd57600080fd5b6121e9848285016120e7565b60808301525060a06121fd84828501612069565b60a08301525060c082015167ffffffffffffffff81111561221d57600080fd5b612229848285016120e7565b60c08301525060e082015167ffffffffffffffff81111561224957600080fd5b612255848285016120e7565b60e08301525061010061226a8482850161228c565b6101008301525092915050565b60008135905061228681612e30565b92915050565b60008151905061229b81612e30565b92915050565b6000602082840312156122b357600080fd5b60006122c184828501611fcb565b91505092915050565b6000602082840312156122dc57600080fd5b600082015167ffffffffffffffff8111156122f657600080fd5b61230284828501611fe0565b91505092915050565b60006020828403121561231d57600080fd5b600061232b8482850161207e565b91505092915050565b6000806040838503121561234757600080fd5b60006123558582860161207e565b925050602061236685828601611fcb565b9150509250929050565b6000806040838503121561238357600080fd5b60006123918582860161207e565b92505060206123a285828601612277565b9150509250929050565b6000602082840312156123be57600080fd5b600082015167ffffffffffffffff8111156123d857600080fd5b6123e4848285016120e7565b91505092915050565b6000602082840312156123ff57600080fd5b600061240d84828501612277565b91505092915050565b600080600080600080600080610100898b03121561243357600080fd5b60006124418b828c01612277565b98505060206124528b828c01612277565b97505060406124638b828c01612277565b965050606089013567ffffffffffffffff81111561248057600080fd5b61248c8b828c01612093565b955050608089013567ffffffffffffffff8111156124a957600080fd5b6124b58b828c01612093565b94505060a06124c68b828c01612054565b93505060c089013567ffffffffffffffff8111156124e357600080fd5b6124ef8b828c01612093565b92505060e089013567ffffffffffffffff81111561250c57600080fd5b6125188b828c01612093565b9150509295985092959890939650565b6000612534838361291d565b905092915050565b61254581612d46565b82525050565b600061255682612cf0565b6125608185612d13565b93508360208202850161257285612ce0565b8060005b858110156125ae578484038952815161258f8582612528565b945061259a83612d06565b925060208a01995050600181019050612576565b50829750879550505050505092915050565b6125c981612d58565b82525050565b6125d881612d58565b82525050565b6125e781612d64565b82525050565b60006125f882612cfb565b6126028185612d24565b9350612612818560208601612da7565b61261b81612dda565b840191505092915050565b600061263182612cfb565b61263b8185612d35565b935061264b818560208601612da7565b61265481612dda565b840191505092915050565b600061266c602283612d35565b91507f456e756d657261626c655365743a20696e646578206f7574206f6620626f756e60008301527f64730000000000000000000000000000000000000000000000000000000000006020830152604082019050919050565b60006126d2601383612d35565b91507f55736572206e6f7420617574686f7269736564000000000000000000000000006000830152602082019050919050565b6000612712602f83612d35565b91507f416363657373436f6e74726f6c3a2073656e646572206d75737420626520616e60008301527f2061646d696e20746f206772616e7400000000000000000000000000000000006020830152604082019050919050565b6000612778602683612d35565b91507f4f776e61626c653a206e6577206f776e657220697320746865207a65726f206160008301527f64647265737300000000000000000000000000000000000000000000000000006020830152604082019050919050565b60006127de603083612d35565b91507f416363657373436f6e74726f6c3a2073656e646572206d75737420626520616e60008301527f2061646d696e20746f207265766f6b65000000000000000000000000000000006020830152604082019050919050565b6000612844602083612d35565b91507f4f776e61626c653a2063616c6c6572206973206e6f7420746865206f776e65726000830152602082019050919050565b6000612884601d83612d35565b91507f536f72727920796f7520617265206e6f742061205245414420757365720000006000830152602082019050919050565b60006128c4602f83612d35565b91507f416363657373436f6e74726f6c3a2063616e206f6e6c792072656e6f756e636560008301527f20726f6c657320666f722073656c6600000000000000000000000000000000006020830152604082019050919050565b60006101208301600083015161293660008601826129f7565b50602083015161294960208601826129f7565b50604083015161295c60408601826129f7565b506060830151848203606086015261297482826125ed565b9150506080830151848203608086015261298e82826125ed565b91505060a08301516129a360a08601826125c0565b5060c083015184820360c08601526129bb82826125ed565b91505060e083015184820360e08601526129d582826125ed565b9150506101008301516129ec6101008601826129f7565b508091505092915050565b612a0081612d8e565b82525050565b612a0f81612d8e565b82525050565b6000602082019050612a2a600083018461253c565b92915050565b60006020820190508181036000830152612a4a818461254b565b905092915050565b6000602082019050612a6760008301846125cf565b92915050565b6000602082019050612a8260008301846125de565b92915050565b60006020820190508181036000830152612aa28184612626565b905092915050565b60006020820190508181036000830152612ac38161265f565b9050919050565b60006020820190508181036000830152612ae3816126c5565b9050919050565b60006020820190508181036000830152612b0381612705565b9050919050565b60006020820190508181036000830152612b238161276b565b9050919050565b60006020820190508181036000830152612b43816127d1565b9050919050565b60006020820190508181036000830152612b6381612837565b9050919050565b60006020820190508181036000830152612b8381612877565b9050919050565b60006020820190508181036000830152612ba3816128b7565b9050919050565b6000602082019050612bbf6000830184612a06565b92915050565b600061010082019050612bdb600083018b612a06565b612be8602083018a612a06565b612bf56040830189612a06565b8181036060830152612c078188612626565b90508181036080830152612c1b8187612626565b9050612c2a60a08301866125cf565b81810360c0830152612c3c8185612626565b905081810360e0830152612c508184612626565b90509998505050505050505050565b6000604051905081810181811067ffffffffffffffff82111715612c8257600080fd5b8060405250919050565b600067ffffffffffffffff821115612ca357600080fd5b602082029050602081019050919050565b600067ffffffffffffffff821115612ccb57600080fd5b601f19601f8301169050602081019050919050565b6000819050602082019050919050565b600081519050919050565b600081519050919050565b6000602082019050919050565b600082825260208201905092915050565b600082825260208201905092915050565b600082825260208201905092915050565b6000612d5182612d6e565b9050919050565b60008115159050919050565b6000819050919050565b600073ffffffffffffffffffffffffffffffffffffffff82169050919050565b6000819050919050565b82818337600083830152505050565b60005b83811015612dc5578082015181840152602081019050612daa565b83811115612dd4576000848401525b50505050565b6000601f19601f8301169050919050565b612df481612d46565b8114612dff57600080fd5b50565b612e0b81612d58565b8114612e1657600080fd5b50565b612e2281612d64565b8114612e2d57600080fd5b50565b612e3981612d8e565b8114612e4457600080fd5b5056fea264697066735822122027abaeedd2790157c1b9eb53dd9cfb9d39a06071fd6ac5b555745f8fcbd816dc64736f6c634300060c0033",
  "immutableReferences": {},
  "source": "// SPDX-License-Identifier: MIT\npragma solidity ^0.6.0;\npragma experimental ABIEncoderV2;\n\nimport \"@openzeppelin/contracts/access/AccessControl.sol\";\nimport \"@openzeppelin/contracts/access/Ownable.sol\";\nimport \"./CalStore.sol\";\nimport \"./VEventLibrary.sol\";\n\ncontract CalAuth is Ownable, AccessControl {\n    using VEventLibrary for VEventLibrary.VEvent;\n\n    bytes32 public constant USER_READ_ROLE = keccak256(\"USER_READ_ROLE\");\n    bytes32 public constant USER_WRITE_ROLE = keccak256(\"USER_WRITE_ROLE\");\n    CalStore private calStore;\n\n    constructor(address _addr) public {\n        _setupRole(DEFAULT_ADMIN_ROLE, msg.sender);\n        calStore = CalStore(_addr);\n    }\n\n    modifier onlyRole(bytes32 _role) {\n        if (_role == USER_WRITE_ROLE) {\n            require(\n                hasRole(DEFAULT_ADMIN_ROLE, msg.sender) ||\n                hasRole(USER_WRITE_ROLE, msg.sender),\n                \"User not authorised\");\n            _;\n        }\n        require(\n            hasRole(DEFAULT_ADMIN_ROLE, msg.sender) ||\n            hasRole(USER_WRITE_ROLE, msg.sender) ||\n            hasRole(USER_READ_ROLE, msg.sender),\n            \"User not authorised\");\n        _;\n    }\n    \n    modifier onlyRoleIcal(address _user) {\n        require(\n            hasRole(DEFAULT_ADMIN_ROLE, _user) ||\n            hasRole(USER_WRITE_ROLE, _user) ||\n            hasRole(USER_READ_ROLE, _user),\n            \"User not authorised\");\n        _;\n    }\n\n    function storeEvent(\n        uint _dtstamp,\n        uint _dtstart,\n        uint _dtend,\n        string memory _summary,\n        string memory _description,\n        bool _isallday,\n        string memory _alldaystartdate,\n        string memory _alldayenddate)\n        public onlyRole(USER_WRITE_ROLE)\n        {\n        calStore.storeEvent(\n            _dtstamp, _dtstart, _dtend,\n            _summary, _description,\n            _isallday, _alldaystartdate,\n            _alldayenddate);\n    }\n\n    function removeEvent(uint _dtstamp) public onlyRole(USER_WRITE_ROLE) {\n        require(\n            hasRole(DEFAULT_ADMIN_ROLE, msg.sender) ||\n            hasRole(USER_WRITE_ROLE, msg.sender),\n            \"User not authorised\");\n        calStore.removeEvent(_dtstamp);\n    }\n\n    function getEventsIcal(address _user) public view onlyRoleIcal(_user) returns (\n        string memory) {\n        return calStore.getEventsIcal();\n    }\n\n    function getEventsObj() public view onlyRole(USER_READ_ROLE) returns (\n        VEventLibrary.VEvent[] memory) {\n        require(\n            hasRole(DEFAULT_ADMIN_ROLE, msg.sender) ||\n            hasRole(USER_WRITE_ROLE, msg.sender) ||\n            hasRole(USER_READ_ROLE, msg.sender),\n            \"User not authorised\");\n        return calStore.getEventsObj();\n    }\n\n\n    /// @notice Returns role of msg.sender\n    /// @dev Returns in hierarchial order, e.g. ADMIN more important than READ etc\n    /// @return string user role\n    function getUserRole() public view returns (string memory) {\n        if (hasRole(DEFAULT_ADMIN_ROLE, msg.sender)) {\n            return \"ADMIN\";\n        } else if (hasRole(USER_WRITE_ROLE, msg.sender)) {\n            return \"USER_WRITE_ROLE\";\n        } else if (hasRole(USER_READ_ROLE, msg.sender)) {\n            return \"USER_READ_ROLE\";\n        }\n        return \"NIL\";\n    }\n\n    //TODO: Delete, not used\n    function addRead(address userAddress) public onlyOwner {\n        grantRole(USER_READ_ROLE, userAddress);\n    }\n\n    //TODO: Delete, not used\n    function addWrite(address userAddress) public onlyOwner {\n        grantRole(USER_WRITE_ROLE, userAddress);\n    }\n\n    //TODO: Delete, not used\n    function revokeRead(address userAddress) public onlyOwner {\n        revokeRole(USER_READ_ROLE, userAddress);\n    }\n\n    //TODO: Delete, not used\n    function revokeWrite(address userAddress) public onlyOwner {\n        revokeRole(USER_WRITE_ROLE, userAddress);\n    }\n\n    function userReadWelcomeString() public view returns (string memory) {\n        require(hasRole(USER_READ_ROLE, msg.sender), \"Sorry you are not a READ user\");\n        return \"Welcome read only user\";\n    }\n\n    function ownerWelcomeString() public onlyOwner view returns (string memory) {\n        return \"Welcome owner\";\n    }\n\n    function justSayHiCalAuth() public pure returns (string memory) {\n        return \"Hi from CalAuth\";\n    }\n}\n\n// CalAuth.deployed().then(function(instance) {app = instance})\n// let accounts = await web3.eth.getAccounts()\n// app.ownerWelcomeString()\n// app.addRead(\"0x918FD928864B6c0fFf58829Ccd7f92B0020Ae68B\", {from: accounts[1]});\n// app.addRead(accounts[1]);\n// app.userReadWelcomeString({from: accounts[1]});\n// app.hasRole(\"USER_READ_ROLE\",accounts[1]);\n\n\n\n// hashed = await web3.utils.keccak256(\"USER_READ_ROLE\")\n// undefined\n// app.hasRole(hashed,accounts[1]);\n// true\n// app.getRoleMemberCount(hashed);\n// BN { negative: 0, words: [ 1, <1 empty item> ], length: 1, red: null }\n\n// app.getRoleMember(hashed, 0)\n",
  "sourcePath": "/home/gene/Programming/Websites/Precious_Chicken_Website/blog_code_demos/forget-me-block-eth-cal-auth/contracts/CalAuth.sol",
  "compiler": {
    "name": "solc",
    "version": "0.6.12+commit.27d51765.Emscripten.clang"
  },
  "schemaVersion": "3.2.3",
  "updatedAt": "2020-08-16T15:38:35.602Z",
  "networkType": "ethereum",
  "devdoc": {
    "kind": "dev",
    "methods": {
      "getRoleAdmin(bytes32)": {
        "details": "Returns the admin role that controls `role`. See {grantRole} and {revokeRole}. To change a role's admin, use {_setRoleAdmin}."
      },
      "getRoleMember(bytes32,uint256)": {
        "details": "Returns one of the accounts that have `role`. `index` must be a value between 0 and {getRoleMemberCount}, non-inclusive. Role bearers are not sorted in any particular way, and their ordering may change at any point. WARNING: When using {getRoleMember} and {getRoleMemberCount}, make sure you perform all queries on the same block. See the following https://forum.openzeppelin.com/t/iterating-over-elements-on-enumerableset-in-openzeppelin-contracts/2296[forum post] for more information."
      },
      "getRoleMemberCount(bytes32)": {
        "details": "Returns the number of accounts that have `role`. Can be used together with {getRoleMember} to enumerate all bearers of a role."
      },
      "getUserRole()": {
        "details": "Returns in hierarchial order, e.g. ADMIN more important than READ etc",
        "returns": {
          "_0": "string user role"
        }
      },
      "grantRole(bytes32,address)": {
        "details": "Grants `role` to `account`. If `account` had not been already granted `role`, emits a {RoleGranted} event. Requirements: - the caller must have ``role``'s admin role."
      },
      "hasRole(bytes32,address)": {
        "details": "Returns `true` if `account` has been granted `role`."
      },
      "owner()": {
        "details": "Returns the address of the current owner."
      },
      "renounceOwnership()": {
        "details": "Leaves the contract without owner. It will not be possible to call `onlyOwner` functions anymore. Can only be called by the current owner. NOTE: Renouncing ownership will leave the contract without an owner, thereby removing any functionality that is only available to the owner."
      },
      "renounceRole(bytes32,address)": {
        "details": "Revokes `role` from the calling account. Roles are often managed via {grantRole} and {revokeRole}: this function's purpose is to provide a mechanism for accounts to lose their privileges if they are compromised (such as when a trusted device is misplaced). If the calling account had been granted `role`, emits a {RoleRevoked} event. Requirements: - the caller must be `account`."
      },
      "revokeRole(bytes32,address)": {
        "details": "Revokes `role` from `account`. If `account` had been granted `role`, emits a {RoleRevoked} event. Requirements: - the caller must have ``role``'s admin role."
      },
      "transferOwnership(address)": {
        "details": "Transfers ownership of the contract to a new account (`newOwner`). Can only be called by the current owner."
      }
    },
    "version": 1
  },
  "userdoc": {
    "kind": "user",
    "methods": {
      "getUserRole()": {
        "notice": "Returns role of msg.sender"
      }
    },
    "version": 1
  }
}