{
  "contractName": "CalAuth",
  "abi": [
    {
      "inputs": [
        {
          "internalType": "address",
          "name": "_addr",
          "type": "address"
        }
      ],
      "stateMutability": "nonpayable",
      "type": "constructor"
    },
    {
      "anonymous": false,
      "inputs": [
        {
          "indexed": true,
          "internalType": "address",
          "name": "previousOwner",
          "type": "address"
        },
        {
          "indexed": true,
          "internalType": "address",
          "name": "newOwner",
          "type": "address"
        }
      ],
      "name": "OwnershipTransferred",
      "type": "event"
    },
    {
      "anonymous": false,
      "inputs": [
        {
          "indexed": true,
          "internalType": "bytes32",
          "name": "role",
          "type": "bytes32"
        },
        {
          "indexed": true,
          "internalType": "bytes32",
          "name": "previousAdminRole",
          "type": "bytes32"
        },
        {
          "indexed": true,
          "internalType": "bytes32",
          "name": "newAdminRole",
          "type": "bytes32"
        }
      ],
      "name": "RoleAdminChanged",
      "type": "event"
    },
    {
      "anonymous": false,
      "inputs": [
        {
          "indexed": true,
          "internalType": "bytes32",
          "name": "role",
          "type": "bytes32"
        },
        {
          "indexed": true,
          "internalType": "address",
          "name": "account",
          "type": "address"
        },
        {
          "indexed": true,
          "internalType": "address",
          "name": "sender",
          "type": "address"
        }
      ],
      "name": "RoleGranted",
      "type": "event"
    },
    {
      "anonymous": false,
      "inputs": [
        {
          "indexed": true,
          "internalType": "bytes32",
          "name": "role",
          "type": "bytes32"
        },
        {
          "indexed": true,
          "internalType": "address",
          "name": "account",
          "type": "address"
        },
        {
          "indexed": true,
          "internalType": "address",
          "name": "sender",
          "type": "address"
        }
      ],
      "name": "RoleRevoked",
      "type": "event"
    },
    {
      "inputs": [],
      "name": "ADMIN",
      "outputs": [
        {
          "internalType": "bytes32",
          "name": "",
          "type": "bytes32"
        }
      ],
      "stateMutability": "view",
      "type": "function",
      "constant": true
    },
    {
      "inputs": [],
      "name": "DEFAULT_ADMIN_ROLE",
      "outputs": [
        {
          "internalType": "bytes32",
          "name": "",
          "type": "bytes32"
        }
      ],
      "stateMutability": "view",
      "type": "function",
      "constant": true
    },
    {
      "inputs": [],
      "name": "USER_READ_ROLE",
      "outputs": [
        {
          "internalType": "bytes32",
          "name": "",
          "type": "bytes32"
        }
      ],
      "stateMutability": "view",
      "type": "function",
      "constant": true
    },
    {
      "inputs": [],
      "name": "USER_WRITE_ROLE",
      "outputs": [
        {
          "internalType": "bytes32",
          "name": "",
          "type": "bytes32"
        }
      ],
      "stateMutability": "view",
      "type": "function",
      "constant": true
    },
    {
      "inputs": [
        {
          "internalType": "bytes32",
          "name": "role",
          "type": "bytes32"
        }
      ],
      "name": "getRoleAdmin",
      "outputs": [
        {
          "internalType": "bytes32",
          "name": "",
          "type": "bytes32"
        }
      ],
      "stateMutability": "view",
      "type": "function",
      "constant": true
    },
    {
      "inputs": [
        {
          "internalType": "bytes32",
          "name": "role",
          "type": "bytes32"
        },
        {
          "internalType": "uint256",
          "name": "index",
          "type": "uint256"
        }
      ],
      "name": "getRoleMember",
      "outputs": [
        {
          "internalType": "address",
          "name": "",
          "type": "address"
        }
      ],
      "stateMutability": "view",
      "type": "function",
      "constant": true
    },
    {
      "inputs": [
        {
          "internalType": "bytes32",
          "name": "role",
          "type": "bytes32"
        }
      ],
      "name": "getRoleMemberCount",
      "outputs": [
        {
          "internalType": "uint256",
          "name": "",
          "type": "uint256"
        }
      ],
      "stateMutability": "view",
      "type": "function",
      "constant": true
    },
    {
      "inputs": [
        {
          "internalType": "bytes32",
          "name": "role",
          "type": "bytes32"
        },
        {
          "internalType": "address",
          "name": "account",
          "type": "address"
        }
      ],
      "name": "grantRole",
      "outputs": [],
      "stateMutability": "nonpayable",
      "type": "function"
    },
    {
      "inputs": [
        {
          "internalType": "bytes32",
          "name": "role",
          "type": "bytes32"
        },
        {
          "internalType": "address",
          "name": "account",
          "type": "address"
        }
      ],
      "name": "hasRole",
      "outputs": [
        {
          "internalType": "bool",
          "name": "",
          "type": "bool"
        }
      ],
      "stateMutability": "view",
      "type": "function",
      "constant": true
    },
    {
      "inputs": [],
      "name": "owner",
      "outputs": [
        {
          "internalType": "address",
          "name": "",
          "type": "address"
        }
      ],
      "stateMutability": "view",
      "type": "function",
      "constant": true
    },
    {
      "inputs": [],
      "name": "renounceOwnership",
      "outputs": [],
      "stateMutability": "nonpayable",
      "type": "function"
    },
    {
      "inputs": [
        {
          "internalType": "bytes32",
          "name": "role",
          "type": "bytes32"
        },
        {
          "internalType": "address",
          "name": "account",
          "type": "address"
        }
      ],
      "name": "renounceRole",
      "outputs": [],
      "stateMutability": "nonpayable",
      "type": "function"
    },
    {
      "inputs": [
        {
          "internalType": "bytes32",
          "name": "role",
          "type": "bytes32"
        },
        {
          "internalType": "address",
          "name": "account",
          "type": "address"
        }
      ],
      "name": "revokeRole",
      "outputs": [],
      "stateMutability": "nonpayable",
      "type": "function"
    },
    {
      "inputs": [
        {
          "internalType": "address",
          "name": "newOwner",
          "type": "address"
        }
      ],
      "name": "transferOwnership",
      "outputs": [],
      "stateMutability": "nonpayable",
      "type": "function"
    },
    {
      "inputs": [
        {
          "internalType": "uint256",
          "name": "_dtstamp",
          "type": "uint256"
        },
        {
          "internalType": "uint256",
          "name": "_dtstart",
          "type": "uint256"
        },
        {
          "internalType": "uint256",
          "name": "_dtend",
          "type": "uint256"
        },
        {
          "internalType": "string",
          "name": "_summary",
          "type": "string"
        },
        {
          "internalType": "string",
          "name": "_description",
          "type": "string"
        },
        {
          "internalType": "bool",
          "name": "_isallday",
          "type": "bool"
        },
        {
          "internalType": "string",
          "name": "_alldaystartdate",
          "type": "string"
        },
        {
          "internalType": "string",
          "name": "_alldayenddate",
          "type": "string"
        }
      ],
      "name": "storeEvent",
      "outputs": [],
      "stateMutability": "nonpayable",
      "type": "function"
    },
    {
      "inputs": [
        {
          "internalType": "uint256",
          "name": "_dtstamp",
          "type": "uint256"
        }
      ],
      "name": "removeEvent",
      "outputs": [],
      "stateMutability": "nonpayable",
      "type": "function"
    },
    {
      "inputs": [
        {
          "internalType": "address",
          "name": "_user",
          "type": "address"
        }
      ],
      "name": "getEventsIcal",
      "outputs": [
        {
          "internalType": "string",
          "name": "",
          "type": "string"
        }
      ],
      "stateMutability": "view",
      "type": "function",
      "constant": true
    },
    {
      "inputs": [],
      "name": "getEventsObj",
      "outputs": [
        {
          "components": [
            {
              "internalType": "uint256",
              "name": "dtstamp",
              "type": "uint256"
            },
            {
              "internalType": "uint256",
              "name": "dtstart",
              "type": "uint256"
            },
            {
              "internalType": "uint256",
              "name": "dtend",
              "type": "uint256"
            },
            {
              "internalType": "string",
              "name": "summary",
              "type": "string"
            },
            {
              "internalType": "string",
              "name": "description",
              "type": "string"
            },
            {
              "internalType": "bool",
              "name": "isallday",
              "type": "bool"
            },
            {
              "internalType": "string",
              "name": "alldaystartdate",
              "type": "string"
            },
            {
              "internalType": "string",
              "name": "alldayenddate",
              "type": "string"
            },
            {
              "internalType": "uint256",
              "name": "uid",
              "type": "uint256"
            }
          ],
          "internalType": "struct VEventLibrary.VEvent[]",
          "name": "",
          "type": "tuple[]"
        }
      ],
      "stateMutability": "view",
      "type": "function",
      "constant": true
    },
    {
      "inputs": [],
      "name": "getUserRole",
      "outputs": [
        {
          "internalType": "string",
          "name": "",
          "type": "string"
        }
      ],
      "stateMutability": "view",
      "type": "function",
      "constant": true
    },
    {
      "inputs": [
        {
          "internalType": "bytes32",
          "name": "_role",
          "type": "bytes32"
        },
        {
          "internalType": "address",
          "name": "_userAddress",
          "type": "address"
        },
        {
          "internalType": "uint256",
          "name": "_validFrom",
          "type": "uint256"
        },
        {
          "internalType": "uint256",
          "name": "_expiresBy",
          "type": "uint256"
        }
      ],
      "name": "grantRoleAccess",
      "outputs": [],
      "stateMutability": "nonpayable",
      "type": "function"
    },
    {
      "inputs": [
        {
          "internalType": "address",
          "name": "_userAddress",
          "type": "address"
        }
      ],
      "name": "getAccessWindow",
      "outputs": [
        {
          "components": [
            {
              "internalType": "uint256",
              "name": "validFrom",
              "type": "uint256"
            },
            {
              "internalType": "uint256",
              "name": "expiresBy",
              "type": "uint256"
            }
          ],
          "internalType": "struct CalAuth.AccessWindow",
          "name": "",
          "type": "tuple"
        }
      ],
      "stateMutability": "view",
      "type": "function",
      "constant": true
    },
    {
      "inputs": [
        {
          "internalType": "address",
          "name": "_newOwner",
          "type": "address"
        }
      ],
      "name": "transferCalAuth",
      "outputs": [],
      "stateMutability": "nonpayable",
      "type": "function"
    }
  ],
  "bytecode": "0x60806040523480156200001157600080fd5b506040516200339e3803806200339e8339818101604052810190620000379190620002f2565b6000620000496200014460201b60201c565b9050806000806101000a81548173ffffffffffffffffffffffffffffffffffffffff021916908373ffffffffffffffffffffffffffffffffffffffff1602179055508073ffffffffffffffffffffffffffffffffffffffff16600073ffffffffffffffffffffffffffffffffffffffff167f8be0079c531659141344cd1fd0a4f28419497f9722a3daafe3b4186f6b6457e060405160405180910390a350620000fc6000801b336200014c60201b60201c565b80600260006101000a81548173ffffffffffffffffffffffffffffffffffffffff021916908373ffffffffffffffffffffffffffffffffffffffff160217905550506200036c565b600033905090565b6200015e82826200016260201b60201c565b5050565b6200019181600160008581526020019081526020016000206000016200020660201b62001b521790919060201c565b156200020257620001a76200014460201b60201c565b73ffffffffffffffffffffffffffffffffffffffff168173ffffffffffffffffffffffffffffffffffffffff16837f2f8788117e7eff1d82e926ec794901d17c78024a50270940304540a733656f0d60405160405180910390a45b5050565b600062000236836000018373ffffffffffffffffffffffffffffffffffffffff1660001b6200023e60201b60201c565b905092915050565b6000620002528383620002b860201b60201c565b620002ad578260000182908060018154018082558091505060019003906000526020600020016000909190919091505582600001805490508360010160008481526020019081526020016000208190555060019050620002b2565b600090505b92915050565b600080836001016000848152602001908152602001600020541415905092915050565b600081519050620002ec8162000352565b92915050565b6000602082840312156200030557600080fd5b60006200031584828501620002db565b91505092915050565b60006200032b8262000332565b9050919050565b600073ffffffffffffffffffffffffffffffffffffffff82169050919050565b6200035d816200031e565b81146200036957600080fd5b50565b613022806200037c6000396000f3fe608060405234801561001057600080fd5b50600436106101425760003560e01c80639010d07c116100b8578063ca15c8731161007c578063ca15c87314610363578063caebb99114610393578063d547741f146103b1578063ecfa7e9f146103cd578063ee1bf5db146103e9578063f2fde38b1461040757610142565b80639010d07c146102ab57806391d14854146102db578063a217fddf1461030b578063ab7cc4d214610329578063bf04a10d1461034557610142565b80632f2ff15d1161010a5780632f2ff15d1461021357806336568abe1461022f57806356164e1e1461024b5780635de45c1f14610267578063715018a6146102835780638da5cb5b1461028d57610142565b806310d00a671461014757806321ee4bca14610177578063248a9ca3146101a7578063283e8442146101d75780632a0acc6a146101f5575b600080fd5b610161600480360381019061015c919061222a565b610423565b60405161016e9190612ba9565b60405180910390f35b610191600480360381019061018c919061222a565b610798565b60405161019e9190612d0b565b60405180910390f35b6101c160048036038101906101bc9190612294565b610805565b6040516101ce9190612b8e565b60405180910390f35b6101df610825565b6040516101ec9190612b8e565b60405180910390f35b6101fd610849565b60405161020a9190612b8e565b60405180910390f35b61022d600480360381019061022891906122bd565b61086d565b005b610249600480360381019061024491906122bd565b6108e1565b005b610265600480360381019061026091906123d9565b610964565b005b610281600480360381019061027c91906122f9565b610bcc565b005b61028b610d29565b005b610295610e7c565b6040516102a29190612ad6565b60405180910390f35b6102c560048036038101906102c0919061235c565b610ea5565b6040516102d29190612ad6565b60405180910390f35b6102f560048036038101906102f091906122bd565b610ed7565b6040516103029190612b73565b60405180910390f35b610313610f09565b6040516103209190612b8e565b60405180910390f35b610343600480360381019061033e9190612402565b610f10565b005b61034d611216565b60405161035a9190612ba9565b60405180910390f35b61037d60048036038101906103789190612294565b6113e7565b60405161038a9190612d26565b60405180910390f35b61039b61140e565b6040516103a89190612b51565b60405180910390f35b6103cb60048036038101906103c691906122bd565b61183d565b005b6103e760048036038101906103e2919061222a565b6118b1565b005b6103f161196c565b6040516103fe9190612b8e565b60405180910390f35b610421600480360381019061041c919061222a565b611990565b005b6060816104336000801b82610ed7565b8061046457506104637f238cc277b81124817de0fb6e725dfaca359442ead042cbf4fa5a5d15a441d45482610ed7565b5b8061049557506104947f60b176c013bc5f6a4aaf9c1455cc3ff5e7ee54daffb41be2fd0e50b804acad4282610ed7565b5b6104d4576040517f08c379a00000000000000000000000000000000000000000000000000000000081526004016104cb90612beb565b60405180910390fd5b6104dc611f3a565b600360008573ffffffffffffffffffffffffffffffffffffffff1673ffffffffffffffffffffffffffffffffffffffff16815260200190815260200160002060405180604001604052908160008201548152602001600182015481525050905060008160200151826000015101141561060757600260009054906101000a900473ffffffffffffffffffffffffffffffffffffffff1673ffffffffffffffffffffffffffffffffffffffff166310d00a67306040518263ffffffff1660e01b81526004016105aa9190612ad6565b60006040518083038186803b1580156105c257600080fd5b505afa1580156105d6573d6000803e3d6000fd5b505050506040513d6000823e3d601f19601f820116820180604052508101906105ff9190612398565b925050610792565b6000816020015114156106d257600260009054906101000a900473ffffffffffffffffffffffffffffffffffffffff1673ffffffffffffffffffffffffffffffffffffffff1663f35cf90e3083600001516040518363ffffffff1660e01b8152600401610675929190612af1565b60006040518083038186803b15801561068d57600080fd5b505afa1580156106a1573d6000803e3d6000fd5b505050506040513d6000823e3d601f19601f820116820180604052508101906106ca9190612398565b925050610792565b600260009054906101000a900473ffffffffffffffffffffffffffffffffffffffff1673ffffffffffffffffffffffffffffffffffffffff16638700d56630836000015184602001516040518463ffffffff1660e01b815260040161073993929190612b1a565b60006040518083038186803b15801561075157600080fd5b505afa158015610765573d6000803e3d6000fd5b505050506040513d6000823e3d601f19601f8201168201806040525081019061078e9190612398565b9250505b50919050565b6107a0611f3a565b600360008373ffffffffffffffffffffffffffffffffffffffff1673ffffffffffffffffffffffffffffffffffffffff168152602001908152602001600020604051806040016040529081600082015481526020016001820154815250509050919050565b600060016000838152602001908152602001600020600201549050919050565b7f60b176c013bc5f6a4aaf9c1455cc3ff5e7ee54daffb41be2fd0e50b804acad4281565b7fdf8b4c520ffe197c5343c6f5aec59570151ef9a492f2c624fd45ddde6135ec4281565b610894600160008481526020019081526020016000206002015461088f611b82565b610ed7565b6108d3576040517f08c379a00000000000000000000000000000000000000000000000000000000081526004016108ca90612c0b565b60405180910390fd5b6108dd8282611b8a565b5050565b6108e9611b82565b73ffffffffffffffffffffffffffffffffffffffff168173ffffffffffffffffffffffffffffffffffffffff1614610956576040517f08c379a000000000000000000000000000000000000000000000000000000000815260040161094d90612ceb565b60405180910390fd5b6109608282611c1e565b5050565b7f238cc277b81124817de0fb6e725dfaca359442ead042cbf4fa5a5d15a441d45480811415610a0f5761099a6000801b33610ed7565b806109cb57506109ca7f238cc277b81124817de0fb6e725dfaca359442ead042cbf4fa5a5d15a441d45433610ed7565b5b610a0a576040517f08c379a0000000000000000000000000000000000000000000000000000000008152600401610a0190612beb565b60405180910390fd5b610abe565b610a1c6000801b33610ed7565b80610a4d5750610a4c7f238cc277b81124817de0fb6e725dfaca359442ead042cbf4fa5a5d15a441d45433610ed7565b5b80610a7e5750610a7d7f60b176c013bc5f6a4aaf9c1455cc3ff5e7ee54daffb41be2fd0e50b804acad4233610ed7565b5b610abd576040517f08c379a0000000000000000000000000000000000000000000000000000000008152600401610ab490612beb565b60405180910390fd5b5b610acb6000801b33610ed7565b80610afc5750610afb7f238cc277b81124817de0fb6e725dfaca359442ead042cbf4fa5a5d15a441d45433610ed7565b5b610b3b576040517f08c379a0000000000000000000000000000000000000000000000000000000008152600401610b3290612beb565b60405180910390fd5b600260009054906101000a900473ffffffffffffffffffffffffffffffffffffffff1673ffffffffffffffffffffffffffffffffffffffff166356164e1e836040518263ffffffff1660e01b8152600401610b969190612d26565b600060405180830381600087803b158015610bb057600080fd5b505af1158015610bc4573d6000803e3d6000fd5b505050505050565b610bd4611b82565b73ffffffffffffffffffffffffffffffffffffffff1660008054906101000a900473ffffffffffffffffffffffffffffffffffffffff1673ffffffffffffffffffffffffffffffffffffffff1614610c61576040517f08c379a0000000000000000000000000000000000000000000000000000000008152600401610c5890612cab565b60405180910390fd5b80821080610c6f5750600081145b610cae576040517f08c379a0000000000000000000000000000000000000000000000000000000008152600401610ca590612ccb565b60405180910390fd5b610cb8848461086d565b604051806040016040528083815260200182815250600360008573ffffffffffffffffffffffffffffffffffffffff1673ffffffffffffffffffffffffffffffffffffffff168152602001908152602001600020600082015181600001556020820151816001015590505050505050565b610d31611b82565b73ffffffffffffffffffffffffffffffffffffffff1660008054906101000a900473ffffffffffffffffffffffffffffffffffffffff1673ffffffffffffffffffffffffffffffffffffffff1614610dbe576040517f08c379a0000000000000000000000000000000000000000000000000000000008152600401610db590612cab565b60405180910390fd5b600073ffffffffffffffffffffffffffffffffffffffff1660008054906101000a900473ffffffffffffffffffffffffffffffffffffffff1673ffffffffffffffffffffffffffffffffffffffff167f8be0079c531659141344cd1fd0a4f28419497f9722a3daafe3b4186f6b6457e060405160405180910390a360008060006101000a81548173ffffffffffffffffffffffffffffffffffffffff021916908373ffffffffffffffffffffffffffffffffffffffff160217905550565b60008060009054906101000a900473ffffffffffffffffffffffffffffffffffffffff16905090565b6000610ecf8260016000868152602001908152602001600020600001611cb290919063ffffffff16565b905092915050565b6000610f018260016000868152602001908152602001600020600001611ccc90919063ffffffff16565b905092915050565b6000801b81565b7f238cc277b81124817de0fb6e725dfaca359442ead042cbf4fa5a5d15a441d45480811415610fbb57610f466000801b33610ed7565b80610f775750610f767f238cc277b81124817de0fb6e725dfaca359442ead042cbf4fa5a5d15a441d45433610ed7565b5b610fb6576040517f08c379a0000000000000000000000000000000000000000000000000000000008152600401610fad90612beb565b60405180910390fd5b61106a565b610fc86000801b33610ed7565b80610ff95750610ff87f238cc277b81124817de0fb6e725dfaca359442ead042cbf4fa5a5d15a441d45433610ed7565b5b8061102a57506110297f60b176c013bc5f6a4aaf9c1455cc3ff5e7ee54daffb41be2fd0e50b804acad4233610ed7565b5b611069576040517f08c379a000000000000000000000000000000000000000000000000000000000815260040161106090612beb565b60405180910390fd5b5b611072611f3a565b600360003373ffffffffffffffffffffffffffffffffffffffff1673ffffffffffffffffffffffffffffffffffffffff1681526020019081526020016000206040518060400160405290816000820154815260200160018201548152505090508781600001511115611119576040517f08c379a000000000000000000000000000000000000000000000000000000000815260040161111090612c8b565b60405180910390fd5b888160200151101580611130575060008160200151145b61116f576040517f08c379a000000000000000000000000000000000000000000000000000000000815260040161116690612c6b565b60405180910390fd5b600260009054906101000a900473ffffffffffffffffffffffffffffffffffffffff1673ffffffffffffffffffffffffffffffffffffffff1663ab7cc4d28b8b8b8b8b8b8b8b6040518963ffffffff1660e01b81526004016111d8989796959493929190612d6a565b600060405180830381600087803b1580156111f257600080fd5b505af1158015611206573d6000803e3d6000fd5b5050505050505050505050505050565b60606112256000801b33610ed7565b15611267576040518060400160405280600581526020017f41444d494e00000000000000000000000000000000000000000000000000000081525090506113e4565b6112917fdf8b4c520ffe197c5343c6f5aec59570151ef9a492f2c624fd45ddde6135ec4233610ed7565b156112d3576040518060400160405280600581526020017f41444d494e00000000000000000000000000000000000000000000000000000081525090506113e4565b6112fd7f238cc277b81124817de0fb6e725dfaca359442ead042cbf4fa5a5d15a441d45433610ed7565b1561133f576040518060400160405280600f81526020017f555345525f57524954455f524f4c45000000000000000000000000000000000081525090506113e4565b6113697f60b176c013bc5f6a4aaf9c1455cc3ff5e7ee54daffb41be2fd0e50b804acad4233610ed7565b156113ab576040518060400160405280600e81526020017f555345525f524541445f524f4c4500000000000000000000000000000000000081525090506113e4565b6040518060400160405280600381526020017f4e494c000000000000000000000000000000000000000000000000000000000081525090505b90565b600061140760016000848152602001908152602001600020600001611cfc565b9050919050565b60607f60b176c013bc5f6a4aaf9c1455cc3ff5e7ee54daffb41be2fd0e50b804acad427f238cc277b81124817de0fb6e725dfaca359442ead042cbf4fa5a5d15a441d4548114156114db576114666000801b33610ed7565b8061149757506114967f238cc277b81124817de0fb6e725dfaca359442ead042cbf4fa5a5d15a441d45433610ed7565b5b6114d6576040517f08c379a00000000000000000000000000000000000000000000000000000000081526004016114cd90612beb565b60405180910390fd5b61158a565b6114e86000801b33610ed7565b8061151957506115187f238cc277b81124817de0fb6e725dfaca359442ead042cbf4fa5a5d15a441d45433610ed7565b5b8061154a57506115497f60b176c013bc5f6a4aaf9c1455cc3ff5e7ee54daffb41be2fd0e50b804acad4233610ed7565b5b611589576040517f08c379a000000000000000000000000000000000000000000000000000000000815260040161158090612beb565b60405180910390fd5b5b611592611f3a565b600360003373ffffffffffffffffffffffffffffffffffffffff1673ffffffffffffffffffffffffffffffffffffffff1681526020019081526020016000206040518060400160405290816000820154815260200160018201548152505090506000816020015182600001510114156116b257600260009054906101000a900473ffffffffffffffffffffffffffffffffffffffff1673ffffffffffffffffffffffffffffffffffffffff1663caebb9916040518163ffffffff1660e01b815260040160006040518083038186803b15801561166d57600080fd5b505afa158015611681573d6000803e3d6000fd5b505050506040513d6000823e3d601f19601f820116820180604052508101906116aa9190612253565b925050611839565b60008160200151141561177b57600260009054906101000a900473ffffffffffffffffffffffffffffffffffffffff1673ffffffffffffffffffffffffffffffffffffffff166396cba36a82600001516040518263ffffffff1660e01b815260040161171e9190612d26565b60006040518083038186803b15801561173657600080fd5b505afa15801561174a573d6000803e3d6000fd5b505050506040513d6000823e3d601f19601f820116820180604052508101906117739190612253565b925050611839565b600260009054906101000a900473ffffffffffffffffffffffffffffffffffffffff1673ffffffffffffffffffffffffffffffffffffffff16638b9265c6826000015183602001516040518363ffffffff1660e01b81526004016117e0929190612d41565b60006040518083038186803b1580156117f857600080fd5b505afa15801561180c573d6000803e3d6000fd5b505050506040513d6000823e3d601f19601f820116820180604052508101906118359190612253565b9250505b5090565b611864600160008481526020019081526020016000206002015461185f611b82565b610ed7565b6118a3576040517f08c379a000000000000000000000000000000000000000000000000000000000815260040161189a90612c4b565b60405180910390fd5b6118ad8282611c1e565b5050565b6118b9611b82565b73ffffffffffffffffffffffffffffffffffffffff1660008054906101000a900473ffffffffffffffffffffffffffffffffffffffff1673ffffffffffffffffffffffffffffffffffffffff1614611946576040517f08c379a000000000000000000000000000000000000000000000000000000000815260040161193d90612cab565b60405180910390fd5b6119536000801b8261086d565b6119606000801b3361183d565b61196981611990565b50565b7f238cc277b81124817de0fb6e725dfaca359442ead042cbf4fa5a5d15a441d45481565b611998611b82565b73ffffffffffffffffffffffffffffffffffffffff1660008054906101000a900473ffffffffffffffffffffffffffffffffffffffff1673ffffffffffffffffffffffffffffffffffffffff1614611a25576040517f08c379a0000000000000000000000000000000000000000000000000000000008152600401611a1c90612cab565b60405180910390fd5b600073ffffffffffffffffffffffffffffffffffffffff168173ffffffffffffffffffffffffffffffffffffffff161415611a95576040517f08c379a0000000000000000000000000000000000000000000000000000000008152600401611a8c90612c2b565b60405180910390fd5b8073ffffffffffffffffffffffffffffffffffffffff1660008054906101000a900473ffffffffffffffffffffffffffffffffffffffff1673ffffffffffffffffffffffffffffffffffffffff167f8be0079c531659141344cd1fd0a4f28419497f9722a3daafe3b4186f6b6457e060405160405180910390a3806000806101000a81548173ffffffffffffffffffffffffffffffffffffffff021916908373ffffffffffffffffffffffffffffffffffffffff16021790555050565b6000611b7a836000018373ffffffffffffffffffffffffffffffffffffffff1660001b611d11565b905092915050565b600033905090565b611bb28160016000858152602001908152602001600020600001611b5290919063ffffffff16565b15611c1a57611bbf611b82565b73ffffffffffffffffffffffffffffffffffffffff168173ffffffffffffffffffffffffffffffffffffffff16837f2f8788117e7eff1d82e926ec794901d17c78024a50270940304540a733656f0d60405160405180910390a45b5050565b611c468160016000858152602001908152602001600020600001611d8190919063ffffffff16565b15611cae57611c53611b82565b73ffffffffffffffffffffffffffffffffffffffff168173ffffffffffffffffffffffffffffffffffffffff16837ff6391f5c32d9c69d2a47ea670b442974b53935d1edc7fd64eb21e047a839171b60405160405180910390a45b5050565b6000611cc18360000183611db1565b60001c905092915050565b6000611cf4836000018373ffffffffffffffffffffffffffffffffffffffff1660001b611e1e565b905092915050565b6000611d0a82600001611e41565b9050919050565b6000611d1d8383611e1e565b611d76578260000182908060018154018082558091505060019003906000526020600020016000909190919091505582600001805490508360010160008481526020019081526020016000208190555060019050611d7b565b600090505b92915050565b6000611da9836000018373ffffffffffffffffffffffffffffffffffffffff1660001b611e52565b905092915050565b600081836000018054905011611dfc576040517f08c379a0000000000000000000000000000000000000000000000000000000008152600401611df390612bcb565b60405180910390fd5b826000018281548110611e0b57fe5b9060005260206000200154905092915050565b600080836001016000848152602001908152602001600020541415905092915050565b600081600001805490509050919050565b60008083600101600084815260200190815260200160002054905060008114611f2e5760006001820390506000600186600001805490500390506000866000018281548110611e9d57fe5b9060005260206000200154905080876000018481548110611eba57fe5b9060005260206000200181905550600183018760010160008381526020019081526020016000208190555086600001805480611ef257fe5b60019003818190600052602060002001600090559055866001016000878152602001908152602001600020600090556001945050505050611f34565b60009150505b92915050565b604051806040016040528060008152602001600081525090565b600081359050611f6381612f90565b92915050565b600082601f830112611f7a57600080fd5b8151611f8d611f8882612e31565b612e04565b9150818183526020840193506020810190508360005b83811015611fd35781518601611fb988826120c4565b845260208401935060208301925050600181019050611fa3565b5050505092915050565b600081359050611fec81612fa7565b92915050565b60008151905061200181612fa7565b92915050565b60008135905061201681612fbe565b92915050565b600082601f83011261202d57600080fd5b813561204061203b82612e59565b612e04565b9150808252602083016020830185838301111561205c57600080fd5b612067838284612f3d565b50505092915050565b600082601f83011261208157600080fd5b815161209461208f82612e59565b612e04565b915080825260208301602083018583830111156120b057600080fd5b6120bb838284612f4c565b50505092915050565b600061012082840312156120d757600080fd5b6120e2610120612e04565b905060006120f284828501612215565b600083015250602061210684828501612215565b602083015250604061211a84828501612215565b604083015250606082015167ffffffffffffffff81111561213a57600080fd5b61214684828501612070565b606083015250608082015167ffffffffffffffff81111561216657600080fd5b61217284828501612070565b60808301525060a061218684828501611ff2565b60a08301525060c082015167ffffffffffffffff8111156121a657600080fd5b6121b284828501612070565b60c08301525060e082015167ffffffffffffffff8111156121d257600080fd5b6121de84828501612070565b60e0830152506101006121f384828501612215565b6101008301525092915050565b60008135905061220f81612fd5565b92915050565b60008151905061222481612fd5565b92915050565b60006020828403121561223c57600080fd5b600061224a84828501611f54565b91505092915050565b60006020828403121561226557600080fd5b600082015167ffffffffffffffff81111561227f57600080fd5b61228b84828501611f69565b91505092915050565b6000602082840312156122a657600080fd5b60006122b484828501612007565b91505092915050565b600080604083850312156122d057600080fd5b60006122de85828601612007565b92505060206122ef85828601611f54565b9150509250929050565b6000806000806080858703121561230f57600080fd5b600061231d87828801612007565b945050602061232e87828801611f54565b935050604061233f87828801612200565b925050606061235087828801612200565b91505092959194509250565b6000806040838503121561236f57600080fd5b600061237d85828601612007565b925050602061238e85828601612200565b9150509250929050565b6000602082840312156123aa57600080fd5b600082015167ffffffffffffffff8111156123c457600080fd5b6123d084828501612070565b91505092915050565b6000602082840312156123eb57600080fd5b60006123f984828501612200565b91505092915050565b600080600080600080600080610100898b03121561241f57600080fd5b600061242d8b828c01612200565b985050602061243e8b828c01612200565b975050604061244f8b828c01612200565b965050606089013567ffffffffffffffff81111561246c57600080fd5b6124788b828c0161201c565b955050608089013567ffffffffffffffff81111561249557600080fd5b6124a18b828c0161201c565b94505060a06124b28b828c01611fdd565b93505060c089013567ffffffffffffffff8111156124cf57600080fd5b6124db8b828c0161201c565b92505060e089013567ffffffffffffffff8111156124f857600080fd5b6125048b828c0161201c565b9150509295985092959890939650565b600061252083836129de565b905092915050565b61253181612eeb565b82525050565b600061254282612e95565b61254c8185612eb8565b93508360208202850161255e85612e85565b8060005b8581101561259a578484038952815161257b8582612514565b945061258683612eab565b925060208a01995050600181019050612562565b50829750879550505050505092915050565b6125b581612efd565b82525050565b6125c481612efd565b82525050565b6125d381612f09565b82525050565b60006125e482612ea0565b6125ee8185612ec9565b93506125fe818560208601612f4c565b61260781612f7f565b840191505092915050565b600061261d82612ea0565b6126278185612eda565b9350612637818560208601612f4c565b61264081612f7f565b840191505092915050565b6000612658602283612eda565b91507f456e756d657261626c655365743a20696e646578206f7574206f6620626f756e60008301527f64730000000000000000000000000000000000000000000000000000000000006020830152604082019050919050565b60006126be601383612eda565b91507f55736572206e6f7420617574686f7269736564000000000000000000000000006000830152602082019050919050565b60006126fe602f83612eda565b91507f416363657373436f6e74726f6c3a2073656e646572206d75737420626520616e60008301527f2061646d696e20746f206772616e7400000000000000000000000000000000006020830152604082019050919050565b6000612764602683612eda565b91507f4f776e61626c653a206e6577206f776e657220697320746865207a65726f206160008301527f64647265737300000000000000000000000000000000000000000000000000006020830152604082019050919050565b60006127ca603083612eda565b91507f416363657373436f6e74726f6c3a2073656e646572206d75737420626520616e60008301527f2061646d696e20746f207265766f6b65000000000000000000000000000000006020830152604082019050919050565b6000612830601a83612eda565b91507f4c61746572207468616e207669657761626c6520706572696f640000000000006000830152602082019050919050565b6000612870601c83612eda565b91507f4561726c696572207468616e207669657761626c6520706572696f64000000006000830152602082019050919050565b60006128b0602083612eda565b91507f4f776e61626c653a2063616c6c6572206973206e6f7420746865206f776e65726000830152602082019050919050565b60006128f0602783612eda565b91507f5669657761626c652066726f6d206c61746572207468616e207669657761626c60008301527f6520756e74696c000000000000000000000000000000000000000000000000006020830152604082019050919050565b6000612956602f83612eda565b91507f416363657373436f6e74726f6c3a2063616e206f6e6c792072656e6f756e636560008301527f20726f6c657320666f722073656c6600000000000000000000000000000000006020830152604082019050919050565b6040820160008201516129c56000850182612ab8565b5060208201516129d86020850182612ab8565b50505050565b6000610120830160008301516129f76000860182612ab8565b506020830151612a0a6020860182612ab8565b506040830151612a1d6040860182612ab8565b5060608301518482036060860152612a3582826125d9565b91505060808301518482036080860152612a4f82826125d9565b91505060a0830151612a6460a08601826125ac565b5060c083015184820360c0860152612a7c82826125d9565b91505060e083015184820360e0860152612a9682826125d9565b915050610100830151612aad610100860182612ab8565b508091505092915050565b612ac181612f33565b82525050565b612ad081612f33565b82525050565b6000602082019050612aeb6000830184612528565b92915050565b6000604082019050612b066000830185612528565b612b136020830184612ac7565b9392505050565b6000606082019050612b2f6000830186612528565b612b3c6020830185612ac7565b612b496040830184612ac7565b949350505050565b60006020820190508181036000830152612b6b8184612537565b905092915050565b6000602082019050612b8860008301846125bb565b92915050565b6000602082019050612ba360008301846125ca565b92915050565b60006020820190508181036000830152612bc38184612612565b905092915050565b60006020820190508181036000830152612be48161264b565b9050919050565b60006020820190508181036000830152612c04816126b1565b9050919050565b60006020820190508181036000830152612c24816126f1565b9050919050565b60006020820190508181036000830152612c4481612757565b9050919050565b60006020820190508181036000830152612c64816127bd565b9050919050565b60006020820190508181036000830152612c8481612823565b9050919050565b60006020820190508181036000830152612ca481612863565b9050919050565b60006020820190508181036000830152612cc4816128a3565b9050919050565b60006020820190508181036000830152612ce4816128e3565b9050919050565b60006020820190508181036000830152612d0481612949565b9050919050565b6000604082019050612d2060008301846129af565b92915050565b6000602082019050612d3b6000830184612ac7565b92915050565b6000604082019050612d566000830185612ac7565b612d636020830184612ac7565b9392505050565b600061010082019050612d80600083018b612ac7565b612d8d602083018a612ac7565b612d9a6040830189612ac7565b8181036060830152612dac8188612612565b90508181036080830152612dc08187612612565b9050612dcf60a08301866125bb565b81810360c0830152612de18185612612565b905081810360e0830152612df58184612612565b90509998505050505050505050565b6000604051905081810181811067ffffffffffffffff82111715612e2757600080fd5b8060405250919050565b600067ffffffffffffffff821115612e4857600080fd5b602082029050602081019050919050565b600067ffffffffffffffff821115612e7057600080fd5b601f19601f8301169050602081019050919050565b6000819050602082019050919050565b600081519050919050565b600081519050919050565b6000602082019050919050565b600082825260208201905092915050565b600082825260208201905092915050565b600082825260208201905092915050565b6000612ef682612f13565b9050919050565b60008115159050919050565b6000819050919050565b600073ffffffffffffffffffffffffffffffffffffffff82169050919050565b6000819050919050565b82818337600083830152505050565b60005b83811015612f6a578082015181840152602081019050612f4f565b83811115612f79576000848401525b50505050565b6000601f19601f8301169050919050565b612f9981612eeb565b8114612fa457600080fd5b50565b612fb081612efd565b8114612fbb57600080fd5b50565b612fc781612f09565b8114612fd257600080fd5b50565b612fde81612f33565b8114612fe957600080fd5b5056fea26469706673582212201f1507f7a3cdcf52e0e214626327c388e850e4f0fb0b944c71fe2a9dc9a44f9164736f6c634300060c0033",
  "immutableReferences": {},
  "source": "// SPDX-License-Identifier: MIT\npragma solidity ^0.6.0;\npragma experimental ABIEncoderV2;\n\nimport \"@openzeppelin/contracts/access/AccessControl.sol\";\nimport \"@openzeppelin/contracts/access/Ownable.sol\";\nimport \"./CalStore.sol\";\nimport \"./VEventLibrary.sol\";\n\n/// @title Forget-me-block: Ethereum Calendar Authentication\n/// @author PreciousChicken\n/// @notice preciouschicken.com/blog/posts/forget-me-block-eth-cal/\ncontract CalAuth is Ownable, AccessControl {\n    using VEventLibrary for VEventLibrary.VEvent;\n\n    bytes32 public constant USER_READ_ROLE = keccak256(\"USER_READ_ROLE\");\n    bytes32 public constant USER_WRITE_ROLE = keccak256(\"USER_WRITE_ROLE\");\n    bytes32 public constant ADMIN = keccak256(\"ADMIN\");\n    CalStore private calStore;\n\n    struct AccessWindow {\n        uint validFrom;\n        uint expiresBy;\n    }\n    \n    mapping(address => AccessWindow) private accessList;\n\n    constructor(address _addr) public {\n        _setupRole(DEFAULT_ADMIN_ROLE, msg.sender);\n        calStore = CalStore(_addr);\n    }\n\n    modifier onlyRole(bytes32 _role) {\n        if (_role == USER_WRITE_ROLE) {\n            require(\n                hasRole(DEFAULT_ADMIN_ROLE, msg.sender) ||\n                hasRole(USER_WRITE_ROLE, msg.sender),\n                \"User not authorised\");\n        } else {\n            require(\n                hasRole(DEFAULT_ADMIN_ROLE, msg.sender) ||\n                hasRole(USER_WRITE_ROLE, msg.sender) ||\n                hasRole(USER_READ_ROLE, msg.sender),\n                \"User not authorised\");\n        }\n        _;\n    }\n    \n    modifier onlyRoleIcal(address _user) {\n        require(\n            hasRole(DEFAULT_ADMIN_ROLE, _user) ||\n            hasRole(USER_WRITE_ROLE, _user) ||\n            hasRole(USER_READ_ROLE, _user),\n            \"User not authorised\");\n        _;\n    }\n\n    /// @notice Passes event to CalStore to store \n    /// @dev Validation performed on dates \n    /// @param _dtstamp unix timestamp RFC5545 definition \n    /// @param _dtstart unix timestamp RFC5545 definition \n    /// @param _dtend unix timestamp RFC5545 definition \n    /// @param _summary unix timestamp RFC5545 definition \n    /// @param _description unix timestamp RFC5545 definition \n    /// @param _isallday boolean for all day event \n    /// @param _alldaystartdate string of start date for all-day e.g. 19971102\n    /// @param _alldayenddate string of end date for all-day e.g. 19971103\n    function storeEvent(\n        uint _dtstamp,\n        uint _dtstart,\n        uint _dtend,\n        string memory _summary,\n        string memory _description,\n        bool _isallday,\n        string memory _alldaystartdate,\n        string memory _alldayenddate)\n        public onlyRole(USER_WRITE_ROLE)\n        {\n        AccessWindow memory requestWindow = accessList[msg.sender];\n        require(requestWindow.validFrom <= _dtend, \"Earlier than viewable period\");\n        require(\n            (requestWindow.expiresBy >= _dtstart) || \n            (requestWindow.expiresBy == 0), \n            \"Later than viewable period\");\n        calStore.storeEvent(\n            _dtstamp, _dtstart, _dtend,\n            _summary, _description,\n            _isallday, _alldaystartdate,\n            _alldayenddate);\n    }\n\n    /// @notice Passes event to CalStore to remove \n    /// @dev Assumes user cannot have more than one event with same dtstamp \n    /// @dev Further testing of this assumption required\n    /// @param _dtstamp unix timestamp RFC5545 definition \n    function removeEvent(uint _dtstamp) public onlyRole(USER_WRITE_ROLE) {\n        require(\n            hasRole(DEFAULT_ADMIN_ROLE, msg.sender) ||\n            hasRole(USER_WRITE_ROLE, msg.sender),\n            \"User not authorised\");\n        calStore.removeEvent(_dtstamp);\n    }\n\n    /// @notice Returnes events from CalStore as string \n    /// @dev Called by API, used in Email clients, not react-calendar\n    /// @param _user address of user, required as called by Outlook/Thunderbird \n    /// @return string user role\n    function getEventsIcal(address _user) public view onlyRoleIcal(_user) returns (\n        string memory) {\n        AccessWindow memory requestWindow = accessList[_user];\n        if ((requestWindow.validFrom + requestWindow.expiresBy) == 0) {\n            return calStore.getEventsIcal(address(this));\n        } else if (requestWindow.expiresBy == 0) {\n            return calStore.getEventsIcal(address(this), requestWindow.validFrom);\n        } else {\n            return calStore.getEventsIcal(address(this), requestWindow.validFrom, requestWindow.expiresBy);\n        }\n    }\n\n\n    /// @notice Returnes events from CalStore as object\n    /// @dev Called by web react-calendar\n    /// @return VEventLibrary.VEvent[] array of events\n    function getEventsObj() public view onlyRole(USER_READ_ROLE) returns (\n        VEventLibrary.VEvent[] memory) {\n            AccessWindow memory requestWindow = accessList[msg.sender];\n            if ((requestWindow.validFrom + requestWindow.expiresBy) == 0) {\n                return calStore.getEventsObj();\n            } else if (requestWindow.expiresBy == 0) {\n                return calStore.getEventsObj(requestWindow.validFrom);\n            } else {\n                return calStore.getEventsObj(\n                    requestWindow.validFrom, \n                    requestWindow.expiresBy);\n            }\n    }\n\n    /// @notice Returns role of msg.sender\n    /// @dev Returns in hierarchial order, e.g. ADMIN more important than READ etc\n    /// @return string user role\n    function getUserRole() public view returns (string memory) {\n        if (hasRole(DEFAULT_ADMIN_ROLE, msg.sender)) {\n            return \"ADMIN\";\n        } else if (hasRole(ADMIN, msg.sender)) {\n            return \"ADMIN\";\n        } else if (hasRole(USER_WRITE_ROLE, msg.sender)) {\n            return \"USER_WRITE_ROLE\";\n        } else if (hasRole(USER_READ_ROLE, msg.sender)) {\n            return \"USER_READ_ROLE\";\n        }\n        return \"NIL\";\n    }\n\n    /// @notice Grants access to role \n    /// @dev Validation performed on dates \n    /// @param _role role to be granted \n    /// @param _userAddress address for new role\n    /// @param _validFrom unix date\n    /// @param _expiresBy unix date\n    function grantRoleAccess(\n        bytes32 _role, \n        address _userAddress, \n        uint _validFrom, \n        uint _expiresBy) \n        public onlyOwner {\n            require((_validFrom < _expiresBy) ||\n                    (_expiresBy == 0), \n            \"Viewable from later than viewable until\");\n            grantRole(_role, _userAddress);\n            accessList[_userAddress] = AccessWindow(_validFrom, _expiresBy);\n    }\n\n    /// @notice Shows viewable dates for selected user \n    /// @dev Dates are viewFrom and expiresBy\n    /// @param _userAddress selected user\n    /// @return AccessWindow viewable date struct\n    function getAccessWindow(address _userAddress) \n    view\n    public \n    returns (AccessWindow memory) {\n\treturn accessList[_userAddress];\n    }\n\n    /// @notice Transfers CalAuth ownership and access management \n    /// @dev current owner is revoked ownership and admin\n    /// @param _newOwner address of new owner\n    function transferCalAuth(address _newOwner) public onlyOwner {\n        grantRole(DEFAULT_ADMIN_ROLE, _newOwner);\n        revokeRole(DEFAULT_ADMIN_ROLE, msg.sender);\n        transferOwnership(_newOwner);\n    }\n\n}\n\n",
  "sourcePath": "/home/gene/Programming/Websites/Precious_Chicken_Website/blog_code_demos/forget-me-block-eth-cal-auth/contracts/CalAuth.sol",
  "compiler": {
    "name": "solc",
    "version": "0.6.12+commit.27d51765.Emscripten.clang"
  },
  "schemaVersion": "3.2.3",
  "updatedAt": "2020-09-01T09:27:07.993Z",
  "networkType": "ethereum",
  "devdoc": {
    "author": "PreciousChicken",
    "kind": "dev",
    "methods": {
      "getAccessWindow(address)": {
        "details": "Dates are viewFrom and expiresBy",
        "params": {
          "_userAddress": "selected user"
        },
        "returns": {
          "_0": "AccessWindow viewable date struct"
        }
      },
      "getEventsIcal(address)": {
        "details": "Called by API, used in Email clients, not react-calendar",
        "params": {
          "_user": "address of user, required as called by Outlook/Thunderbird "
        },
        "returns": {
          "_0": "string user role"
        }
      },
      "getEventsObj()": {
        "details": "Called by web react-calendar",
        "returns": {
          "_0": "VEventLibrary.VEvent[] array of events"
        }
      },
      "getRoleAdmin(bytes32)": {
        "details": "Returns the admin role that controls `role`. See {grantRole} and {revokeRole}. To change a role's admin, use {_setRoleAdmin}."
      },
      "getRoleMember(bytes32,uint256)": {
        "details": "Returns one of the accounts that have `role`. `index` must be a value between 0 and {getRoleMemberCount}, non-inclusive. Role bearers are not sorted in any particular way, and their ordering may change at any point. WARNING: When using {getRoleMember} and {getRoleMemberCount}, make sure you perform all queries on the same block. See the following https://forum.openzeppelin.com/t/iterating-over-elements-on-enumerableset-in-openzeppelin-contracts/2296[forum post] for more information."
      },
      "getRoleMemberCount(bytes32)": {
        "details": "Returns the number of accounts that have `role`. Can be used together with {getRoleMember} to enumerate all bearers of a role."
      },
      "getUserRole()": {
        "details": "Returns in hierarchial order, e.g. ADMIN more important than READ etc",
        "returns": {
          "_0": "string user role"
        }
      },
      "grantRole(bytes32,address)": {
        "details": "Grants `role` to `account`. If `account` had not been already granted `role`, emits a {RoleGranted} event. Requirements: - the caller must have ``role``'s admin role."
      },
      "grantRoleAccess(bytes32,address,uint256,uint256)": {
        "details": "Validation performed on dates ",
        "params": {
          "_expiresBy": "unix date",
          "_role": "role to be granted ",
          "_userAddress": "address for new role",
          "_validFrom": "unix date"
        }
      },
      "hasRole(bytes32,address)": {
        "details": "Returns `true` if `account` has been granted `role`."
      },
      "owner()": {
        "details": "Returns the address of the current owner."
      },
      "removeEvent(uint256)": {
        "details": "Assumes user cannot have more than one event with same dtstamp Further testing of this assumption required",
        "params": {
          "_dtstamp": "unix timestamp RFC5545 definition "
        }
      },
      "renounceOwnership()": {
        "details": "Leaves the contract without owner. It will not be possible to call `onlyOwner` functions anymore. Can only be called by the current owner. NOTE: Renouncing ownership will leave the contract without an owner, thereby removing any functionality that is only available to the owner."
      },
      "renounceRole(bytes32,address)": {
        "details": "Revokes `role` from the calling account. Roles are often managed via {grantRole} and {revokeRole}: this function's purpose is to provide a mechanism for accounts to lose their privileges if they are compromised (such as when a trusted device is misplaced). If the calling account had been granted `role`, emits a {RoleRevoked} event. Requirements: - the caller must be `account`."
      },
      "revokeRole(bytes32,address)": {
        "details": "Revokes `role` from `account`. If `account` had been granted `role`, emits a {RoleRevoked} event. Requirements: - the caller must have ``role``'s admin role."
      },
      "storeEvent(uint256,uint256,uint256,string,string,bool,string,string)": {
        "details": "Validation performed on dates ",
        "params": {
          "_alldayenddate": "string of end date for all-day e.g. 19971103",
          "_alldaystartdate": "string of start date for all-day e.g. 19971102",
          "_description": "unix timestamp RFC5545 definition ",
          "_dtend": "unix timestamp RFC5545 definition ",
          "_dtstamp": "unix timestamp RFC5545 definition ",
          "_dtstart": "unix timestamp RFC5545 definition ",
          "_isallday": "boolean for all day event ",
          "_summary": "unix timestamp RFC5545 definition "
        }
      },
      "transferCalAuth(address)": {
        "details": "current owner is revoked ownership and admin",
        "params": {
          "_newOwner": "address of new owner"
        }
      },
      "transferOwnership(address)": {
        "details": "Transfers ownership of the contract to a new account (`newOwner`). Can only be called by the current owner."
      }
    },
    "title": "Forget-me-block: Ethereum Calendar Authentication",
    "version": 1
  },
  "userdoc": {
    "kind": "user",
    "methods": {
      "getAccessWindow(address)": {
        "notice": "Shows viewable dates for selected user "
      },
      "getEventsIcal(address)": {
        "notice": "Returnes events from CalStore as string "
      },
      "getEventsObj()": {
        "notice": "Returnes events from CalStore as object"
      },
      "getUserRole()": {
        "notice": "Returns role of msg.sender"
      },
      "grantRoleAccess(bytes32,address,uint256,uint256)": {
        "notice": "Grants access to role "
      },
      "removeEvent(uint256)": {
        "notice": "Passes event to CalStore to remove "
      },
      "storeEvent(uint256,uint256,uint256,string,string,bool,string,string)": {
        "notice": "Passes event to CalStore to store "
      },
      "transferCalAuth(address)": {
        "notice": "Transfers CalAuth ownership and access management "
      }
    },
    "notice": "preciouschicken.com/blog/posts/forget-me-block-eth-cal/",
    "version": 1
  }
}