{
  "contractName": "CalAuth",
  "abi": [
    {
      "inputs": [
        {
          "internalType": "address",
          "name": "_addr",
          "type": "address"
        }
      ],
      "stateMutability": "nonpayable",
      "type": "constructor"
    },
    {
      "anonymous": false,
      "inputs": [
        {
          "indexed": true,
          "internalType": "address",
          "name": "previousOwner",
          "type": "address"
        },
        {
          "indexed": true,
          "internalType": "address",
          "name": "newOwner",
          "type": "address"
        }
      ],
      "name": "OwnershipTransferred",
      "type": "event"
    },
    {
      "anonymous": false,
      "inputs": [
        {
          "indexed": true,
          "internalType": "bytes32",
          "name": "role",
          "type": "bytes32"
        },
        {
          "indexed": true,
          "internalType": "bytes32",
          "name": "previousAdminRole",
          "type": "bytes32"
        },
        {
          "indexed": true,
          "internalType": "bytes32",
          "name": "newAdminRole",
          "type": "bytes32"
        }
      ],
      "name": "RoleAdminChanged",
      "type": "event"
    },
    {
      "anonymous": false,
      "inputs": [
        {
          "indexed": true,
          "internalType": "bytes32",
          "name": "role",
          "type": "bytes32"
        },
        {
          "indexed": true,
          "internalType": "address",
          "name": "account",
          "type": "address"
        },
        {
          "indexed": true,
          "internalType": "address",
          "name": "sender",
          "type": "address"
        }
      ],
      "name": "RoleGranted",
      "type": "event"
    },
    {
      "anonymous": false,
      "inputs": [
        {
          "indexed": true,
          "internalType": "bytes32",
          "name": "role",
          "type": "bytes32"
        },
        {
          "indexed": true,
          "internalType": "address",
          "name": "account",
          "type": "address"
        },
        {
          "indexed": true,
          "internalType": "address",
          "name": "sender",
          "type": "address"
        }
      ],
      "name": "RoleRevoked",
      "type": "event"
    },
    {
      "inputs": [],
      "name": "ADMIN",
      "outputs": [
        {
          "internalType": "bytes32",
          "name": "",
          "type": "bytes32"
        }
      ],
      "stateMutability": "view",
      "type": "function",
      "constant": true
    },
    {
      "inputs": [],
      "name": "DEFAULT_ADMIN_ROLE",
      "outputs": [
        {
          "internalType": "bytes32",
          "name": "",
          "type": "bytes32"
        }
      ],
      "stateMutability": "view",
      "type": "function",
      "constant": true
    },
    {
      "inputs": [],
      "name": "USER_READ_ROLE",
      "outputs": [
        {
          "internalType": "bytes32",
          "name": "",
          "type": "bytes32"
        }
      ],
      "stateMutability": "view",
      "type": "function",
      "constant": true
    },
    {
      "inputs": [],
      "name": "USER_WRITE_ROLE",
      "outputs": [
        {
          "internalType": "bytes32",
          "name": "",
          "type": "bytes32"
        }
      ],
      "stateMutability": "view",
      "type": "function",
      "constant": true
    },
    {
      "inputs": [
        {
          "internalType": "bytes32",
          "name": "role",
          "type": "bytes32"
        }
      ],
      "name": "getRoleAdmin",
      "outputs": [
        {
          "internalType": "bytes32",
          "name": "",
          "type": "bytes32"
        }
      ],
      "stateMutability": "view",
      "type": "function",
      "constant": true
    },
    {
      "inputs": [
        {
          "internalType": "bytes32",
          "name": "role",
          "type": "bytes32"
        },
        {
          "internalType": "uint256",
          "name": "index",
          "type": "uint256"
        }
      ],
      "name": "getRoleMember",
      "outputs": [
        {
          "internalType": "address",
          "name": "",
          "type": "address"
        }
      ],
      "stateMutability": "view",
      "type": "function",
      "constant": true
    },
    {
      "inputs": [
        {
          "internalType": "bytes32",
          "name": "role",
          "type": "bytes32"
        }
      ],
      "name": "getRoleMemberCount",
      "outputs": [
        {
          "internalType": "uint256",
          "name": "",
          "type": "uint256"
        }
      ],
      "stateMutability": "view",
      "type": "function",
      "constant": true
    },
    {
      "inputs": [
        {
          "internalType": "bytes32",
          "name": "role",
          "type": "bytes32"
        },
        {
          "internalType": "address",
          "name": "account",
          "type": "address"
        }
      ],
      "name": "grantRole",
      "outputs": [],
      "stateMutability": "nonpayable",
      "type": "function"
    },
    {
      "inputs": [
        {
          "internalType": "bytes32",
          "name": "role",
          "type": "bytes32"
        },
        {
          "internalType": "address",
          "name": "account",
          "type": "address"
        }
      ],
      "name": "hasRole",
      "outputs": [
        {
          "internalType": "bool",
          "name": "",
          "type": "bool"
        }
      ],
      "stateMutability": "view",
      "type": "function",
      "constant": true
    },
    {
      "inputs": [],
      "name": "owner",
      "outputs": [
        {
          "internalType": "address",
          "name": "",
          "type": "address"
        }
      ],
      "stateMutability": "view",
      "type": "function",
      "constant": true
    },
    {
      "inputs": [],
      "name": "renounceOwnership",
      "outputs": [],
      "stateMutability": "nonpayable",
      "type": "function"
    },
    {
      "inputs": [
        {
          "internalType": "bytes32",
          "name": "role",
          "type": "bytes32"
        },
        {
          "internalType": "address",
          "name": "account",
          "type": "address"
        }
      ],
      "name": "renounceRole",
      "outputs": [],
      "stateMutability": "nonpayable",
      "type": "function"
    },
    {
      "inputs": [
        {
          "internalType": "bytes32",
          "name": "role",
          "type": "bytes32"
        },
        {
          "internalType": "address",
          "name": "account",
          "type": "address"
        }
      ],
      "name": "revokeRole",
      "outputs": [],
      "stateMutability": "nonpayable",
      "type": "function"
    },
    {
      "inputs": [
        {
          "internalType": "address",
          "name": "newOwner",
          "type": "address"
        }
      ],
      "name": "transferOwnership",
      "outputs": [],
      "stateMutability": "nonpayable",
      "type": "function"
    },
    {
      "inputs": [
        {
          "internalType": "uint256",
          "name": "_dtstamp",
          "type": "uint256"
        },
        {
          "internalType": "uint256",
          "name": "_dtstart",
          "type": "uint256"
        },
        {
          "internalType": "uint256",
          "name": "_dtend",
          "type": "uint256"
        },
        {
          "internalType": "string",
          "name": "_summary",
          "type": "string"
        },
        {
          "internalType": "string",
          "name": "_description",
          "type": "string"
        },
        {
          "internalType": "bool",
          "name": "_isallday",
          "type": "bool"
        },
        {
          "internalType": "string",
          "name": "_alldaystartdate",
          "type": "string"
        },
        {
          "internalType": "string",
          "name": "_alldayenddate",
          "type": "string"
        }
      ],
      "name": "storeEvent",
      "outputs": [],
      "stateMutability": "nonpayable",
      "type": "function"
    },
    {
      "inputs": [
        {
          "internalType": "uint256",
          "name": "_dtstamp",
          "type": "uint256"
        }
      ],
      "name": "removeEvent",
      "outputs": [],
      "stateMutability": "nonpayable",
      "type": "function"
    },
    {
      "inputs": [
        {
          "internalType": "address",
          "name": "_user",
          "type": "address"
        }
      ],
      "name": "getEventsIcal",
      "outputs": [
        {
          "internalType": "string",
          "name": "",
          "type": "string"
        }
      ],
      "stateMutability": "view",
      "type": "function",
      "constant": true
    },
    {
      "inputs": [],
      "name": "getEventsObj",
      "outputs": [
        {
          "components": [
            {
              "internalType": "uint256",
              "name": "dtstamp",
              "type": "uint256"
            },
            {
              "internalType": "uint256",
              "name": "dtstart",
              "type": "uint256"
            },
            {
              "internalType": "uint256",
              "name": "dtend",
              "type": "uint256"
            },
            {
              "internalType": "string",
              "name": "summary",
              "type": "string"
            },
            {
              "internalType": "string",
              "name": "description",
              "type": "string"
            },
            {
              "internalType": "bool",
              "name": "isallday",
              "type": "bool"
            },
            {
              "internalType": "string",
              "name": "alldaystartdate",
              "type": "string"
            },
            {
              "internalType": "string",
              "name": "alldayenddate",
              "type": "string"
            },
            {
              "internalType": "uint256",
              "name": "uid",
              "type": "uint256"
            }
          ],
          "internalType": "struct VEventLibrary.VEvent[]",
          "name": "",
          "type": "tuple[]"
        }
      ],
      "stateMutability": "view",
      "type": "function",
      "constant": true
    },
    {
      "inputs": [],
      "name": "getUserRole",
      "outputs": [
        {
          "internalType": "string",
          "name": "",
          "type": "string"
        }
      ],
      "stateMutability": "view",
      "type": "function",
      "constant": true
    },
    {
      "inputs": [
        {
          "internalType": "bytes32",
          "name": "_role",
          "type": "bytes32"
        },
        {
          "internalType": "address",
          "name": "_userAddress",
          "type": "address"
        },
        {
          "internalType": "uint256",
          "name": "_validFrom",
          "type": "uint256"
        },
        {
          "internalType": "uint256",
          "name": "_expiresBy",
          "type": "uint256"
        }
      ],
      "name": "grantRoleAccess",
      "outputs": [],
      "stateMutability": "nonpayable",
      "type": "function"
    },
    {
      "inputs": [
        {
          "internalType": "address",
          "name": "_userAddress",
          "type": "address"
        }
      ],
      "name": "getAccessWindow",
      "outputs": [
        {
          "components": [
            {
              "internalType": "uint256",
              "name": "validFrom",
              "type": "uint256"
            },
            {
              "internalType": "uint256",
              "name": "expiresBy",
              "type": "uint256"
            }
          ],
          "internalType": "struct CalAuth.AccessWindow",
          "name": "",
          "type": "tuple"
        }
      ],
      "stateMutability": "view",
      "type": "function",
      "constant": true
    },
    {
      "inputs": [
        {
          "internalType": "address",
          "name": "_newOwner",
          "type": "address"
        }
      ],
      "name": "transferCalAuth",
      "outputs": [],
      "stateMutability": "nonpayable",
      "type": "function"
    }
  ],
  "bytecode": "0x60806040523480156200001157600080fd5b5060405162003bb538038062003bb583398181016040528101906200003791906200052c565b6000620000496200021a60201b60201c565b9050806000806101000a81548173ffffffffffffffffffffffffffffffffffffffff021916908373ffffffffffffffffffffffffffffffffffffffff1602179055508073ffffffffffffffffffffffffffffffffffffffff16600073ffffffffffffffffffffffffffffffffffffffff167f8be0079c531659141344cd1fd0a4f28419497f9722a3daafe3b4186f6b6457e060405160405180910390a350620000fc6000801b336200022260201b60201c565b6200014e7f60b176c013bc5f6a4aaf9c1455cc3ff5e7ee54daffb41be2fd0e50b804acad427fdf8b4c520ffe197c5343c6f5aec59570151ef9a492f2c624fd45ddde6135ec426200023860201b60201c565b620001a07f238cc277b81124817de0fb6e725dfaca359442ead042cbf4fa5a5d15a441d4547fdf8b4c520ffe197c5343c6f5aec59570151ef9a492f2c624fd45ddde6135ec426200023860201b60201c565b620001d27fdf8b4c520ffe197c5343c6f5aec59570151ef9a492f2c624fd45ddde6135ec42336200029c60201b60201c565b80600260006101000a81548173ffffffffffffffffffffffffffffffffffffffff021916908373ffffffffffffffffffffffffffffffffffffffff1602179055505062000641565b600033905090565b6200023482826200032b60201b60201c565b5050565b806001600084815260200190815260200160002060020154837fbd79b86ffe0ab8e8776151514217cd7cacd52c909f66475c3af44e129f0b00ff60405160405180910390a48060016000848152602001908152602001600020600201819055505050565b620002d36001600084815260200190815260200160002060020154620002c76200021a60201b60201c565b620003cf60201b60201c565b62000315576040517f08c379a00000000000000000000000000000000000000000000000000000000081526004016200030c90620005c0565b60405180910390fd5b6200032782826200032b60201b60201c565b5050565b6200035a81600160008581526020019081526020016000206000016200040860201b620020941790919060201c565b15620003cb57620003706200021a60201b60201c565b73ffffffffffffffffffffffffffffffffffffffff168173ffffffffffffffffffffffffffffffffffffffff16837f2f8788117e7eff1d82e926ec794901d17c78024a50270940304540a733656f0d60405160405180910390a45b5050565b60006200040082600160008681526020019081526020016000206000016200044060201b620020c41790919060201c565b905092915050565b600062000438836000018373ffffffffffffffffffffffffffffffffffffffff1660001b6200047860201b60201c565b905092915050565b600062000470836000018373ffffffffffffffffffffffffffffffffffffffff1660001b620004f260201b60201c565b905092915050565b60006200048c8383620004f260201b60201c565b620004e7578260000182908060018154018082558091505060019003906000526020600020016000909190919091505582600001805490508360010160008481526020019081526020016000208190555060019050620004ec565b600090505b92915050565b600080836001016000848152602001908152602001600020541415905092915050565b600081519050620005268162000627565b92915050565b6000602082840312156200053f57600080fd5b60006200054f8482850162000515565b91505092915050565b600062000567602f83620005e2565b91507f416363657373436f6e74726f6c3a2073656e646572206d75737420626520616e60008301527f2061646d696e20746f206772616e7400000000000000000000000000000000006020830152604082019050919050565b60006020820190508181036000830152620005db8162000558565b9050919050565b600082825260208201905092915050565b6000620006008262000607565b9050919050565b600073ffffffffffffffffffffffffffffffffffffffff82169050919050565b6200063281620005f3565b81146200063e57600080fd5b50565b61356480620006516000396000f3fe608060405234801561001057600080fd5b50600436106101425760003560e01c80639010d07c116100b8578063ca15c8731161007c578063ca15c87314610363578063caebb99114610393578063d547741f146103b1578063ecfa7e9f146103cd578063ee1bf5db146103e9578063f2fde38b1461040757610142565b80639010d07c146102ab57806391d14854146102db578063a217fddf1461030b578063ab7cc4d214610329578063bf04a10d1461034557610142565b80632f2ff15d1161010a5780632f2ff15d1461021357806336568abe1461022f57806356164e1e1461024b5780635de45c1f14610267578063715018a6146102835780638da5cb5b1461028d57610142565b806310d00a671461014757806321ee4bca14610177578063248a9ca3146101a7578063283e8442146101d75780632a0acc6a146101f5575b600080fd5b610161600480360381019061015c919061276c565b610423565b60405161016e91906130eb565b60405180910390f35b610191600480360381019061018c919061276c565b6107c9565b60405161019e919061324d565b60405180910390f35b6101c160048036038101906101bc91906127d6565b610836565b6040516101ce91906130d0565b60405180910390f35b6101df610856565b6040516101ec91906130d0565b60405180910390f35b6101fd61087a565b60405161020a91906130d0565b60405180910390f35b61022d600480360381019061022891906127ff565b61089e565b005b610249600480360381019061024491906127ff565b610912565b005b6102656004803603810190610260919061291b565b610995565b005b610281600480360381019061027c919061283b565b610cad565b005b61028b610fdd565b005b610295611130565b6040516102a29190613018565b60405180910390f35b6102c560048036038101906102c0919061289e565b611159565b6040516102d29190613018565b60405180910390f35b6102f560048036038101906102f091906127ff565b61118b565b60405161030291906130b5565b60405180910390f35b6103136111bd565b60405161032091906130d0565b60405180910390f35b610343600480360381019061033e9190612944565b6111c4565b005b61034d6115f7565b60405161035a91906130eb565b60405180910390f35b61037d600480360381019061037891906127d6565b6117c8565b60405161038a9190613268565b60405180910390f35b61039b6117ef565b6040516103a89190613093565b60405180910390f35b6103cb60048036038101906103c691906127ff565b611d2b565b005b6103e760048036038101906103e2919061276c565b611d9f565b005b6103f1611eae565b6040516103fe91906130d0565b60405180910390f35b610421600480360381019061041c919061276c565b611ed2565b005b6060816104336000801b8261118b565b8061046457506104637fdf8b4c520ffe197c5343c6f5aec59570151ef9a492f2c624fd45ddde6135ec423361118b565b5b8061049557506104947f238cc277b81124817de0fb6e725dfaca359442ead042cbf4fa5a5d15a441d4548261118b565b5b806104c657506104c57f60b176c013bc5f6a4aaf9c1455cc3ff5e7ee54daffb41be2fd0e50b804acad428261118b565b5b610505576040517f08c379a00000000000000000000000000000000000000000000000000000000081526004016104fc9061312d565b60405180910390fd5b61050d61247c565b600360008573ffffffffffffffffffffffffffffffffffffffff1673ffffffffffffffffffffffffffffffffffffffff16815260200190815260200160002060405180604001604052908160008201548152602001600182015481525050905060008160200151826000015101141561063857600260009054906101000a900473ffffffffffffffffffffffffffffffffffffffff1673ffffffffffffffffffffffffffffffffffffffff166310d00a67306040518263ffffffff1660e01b81526004016105db9190613018565b60006040518083038186803b1580156105f357600080fd5b505afa158015610607573d6000803e3d6000fd5b505050506040513d6000823e3d601f19601f8201168201806040525081019061063091906128da565b9250506107c3565b60008160200151141561070357600260009054906101000a900473ffffffffffffffffffffffffffffffffffffffff1673ffffffffffffffffffffffffffffffffffffffff1663f35cf90e3083600001516040518363ffffffff1660e01b81526004016106a6929190613033565b60006040518083038186803b1580156106be57600080fd5b505afa1580156106d2573d6000803e3d6000fd5b505050506040513d6000823e3d601f19601f820116820180604052508101906106fb91906128da565b9250506107c3565b600260009054906101000a900473ffffffffffffffffffffffffffffffffffffffff1673ffffffffffffffffffffffffffffffffffffffff16638700d56630836000015184602001516040518463ffffffff1660e01b815260040161076a9392919061305c565b60006040518083038186803b15801561078257600080fd5b505afa158015610796573d6000803e3d6000fd5b505050506040513d6000823e3d601f19601f820116820180604052508101906107bf91906128da565b9250505b50919050565b6107d161247c565b600360008373ffffffffffffffffffffffffffffffffffffffff1673ffffffffffffffffffffffffffffffffffffffff168152602001908152602001600020604051806040016040529081600082015481526020016001820154815250509050919050565b600060016000838152602001908152602001600020600201549050919050565b7f60b176c013bc5f6a4aaf9c1455cc3ff5e7ee54daffb41be2fd0e50b804acad4281565b7fdf8b4c520ffe197c5343c6f5aec59570151ef9a492f2c624fd45ddde6135ec4281565b6108c560016000848152602001908152602001600020600201546108c06120f4565b61118b565b610904576040517f08c379a00000000000000000000000000000000000000000000000000000000081526004016108fb9061314d565b60405180910390fd5b61090e82826120fc565b5050565b61091a6120f4565b73ffffffffffffffffffffffffffffffffffffffff168173ffffffffffffffffffffffffffffffffffffffff1614610987576040517f08c379a000000000000000000000000000000000000000000000000000000000815260040161097e9061322d565b60405180910390fd5b6109918282612190565b5050565b7f238cc277b81124817de0fb6e725dfaca359442ead042cbf4fa5a5d15a441d4547fdf8b4c520ffe197c5343c6f5aec59570151ef9a492f2c624fd45ddde6135ec42811415610a60576109eb6000801b3361118b565b80610a1c5750610a1b7fdf8b4c520ffe197c5343c6f5aec59570151ef9a492f2c624fd45ddde6135ec423361118b565b5b610a5b576040517f08c379a0000000000000000000000000000000000000000000000000000000008152600401610a529061312d565b60405180910390fd5b610c1c565b7f238cc277b81124817de0fb6e725dfaca359442ead042cbf4fa5a5d15a441d454811415610b3b57610a956000801b3361118b565b80610ac65750610ac57fdf8b4c520ffe197c5343c6f5aec59570151ef9a492f2c624fd45ddde6135ec423361118b565b5b80610af75750610af67f238cc277b81124817de0fb6e725dfaca359442ead042cbf4fa5a5d15a441d4543361118b565b5b610b36576040517f08c379a0000000000000000000000000000000000000000000000000000000008152600401610b2d9061312d565b60405180910390fd5b610c1b565b610b486000801b3361118b565b80610b795750610b787fdf8b4c520ffe197c5343c6f5aec59570151ef9a492f2c624fd45ddde6135ec423361118b565b5b80610baa5750610ba97f238cc277b81124817de0fb6e725dfaca359442ead042cbf4fa5a5d15a441d4543361118b565b5b80610bdb5750610bda7f60b176c013bc5f6a4aaf9c1455cc3ff5e7ee54daffb41be2fd0e50b804acad423361118b565b5b610c1a576040517f08c379a0000000000000000000000000000000000000000000000000000000008152600401610c119061312d565b60405180910390fd5b5b5b600260009054906101000a900473ffffffffffffffffffffffffffffffffffffffff1673ffffffffffffffffffffffffffffffffffffffff166356164e1e836040518263ffffffff1660e01b8152600401610c779190613268565b600060405180830381600087803b158015610c9157600080fd5b505af1158015610ca5573d6000803e3d6000fd5b505050505050565b7fdf8b4c520ffe197c5343c6f5aec59570151ef9a492f2c624fd45ddde6135ec4280811415610d5857610ce36000801b3361118b565b80610d145750610d137fdf8b4c520ffe197c5343c6f5aec59570151ef9a492f2c624fd45ddde6135ec423361118b565b5b610d53576040517f08c379a0000000000000000000000000000000000000000000000000000000008152600401610d4a9061312d565b60405180910390fd5b610f14565b7f238cc277b81124817de0fb6e725dfaca359442ead042cbf4fa5a5d15a441d454811415610e3357610d8d6000801b3361118b565b80610dbe5750610dbd7fdf8b4c520ffe197c5343c6f5aec59570151ef9a492f2c624fd45ddde6135ec423361118b565b5b80610def5750610dee7f238cc277b81124817de0fb6e725dfaca359442ead042cbf4fa5a5d15a441d4543361118b565b5b610e2e576040517f08c379a0000000000000000000000000000000000000000000000000000000008152600401610e259061312d565b60405180910390fd5b610f13565b610e406000801b3361118b565b80610e715750610e707fdf8b4c520ffe197c5343c6f5aec59570151ef9a492f2c624fd45ddde6135ec423361118b565b5b80610ea25750610ea17f238cc277b81124817de0fb6e725dfaca359442ead042cbf4fa5a5d15a441d4543361118b565b5b80610ed35750610ed27f60b176c013bc5f6a4aaf9c1455cc3ff5e7ee54daffb41be2fd0e50b804acad423361118b565b5b610f12576040517f08c379a0000000000000000000000000000000000000000000000000000000008152600401610f099061312d565b60405180910390fd5b5b5b81831080610f225750600082145b610f61576040517f08c379a0000000000000000000000000000000000000000000000000000000008152600401610f589061320d565b60405180910390fd5b610f6b858561089e565b604051806040016040528084815260200183815250600360008673ffffffffffffffffffffffffffffffffffffffff1673ffffffffffffffffffffffffffffffffffffffff16815260200190815260200160002060008201518160000155602082015181600101559050505050505050565b610fe56120f4565b73ffffffffffffffffffffffffffffffffffffffff1660008054906101000a900473ffffffffffffffffffffffffffffffffffffffff1673ffffffffffffffffffffffffffffffffffffffff1614611072576040517f08c379a0000000000000000000000000000000000000000000000000000000008152600401611069906131ed565b60405180910390fd5b600073ffffffffffffffffffffffffffffffffffffffff1660008054906101000a900473ffffffffffffffffffffffffffffffffffffffff1673ffffffffffffffffffffffffffffffffffffffff167f8be0079c531659141344cd1fd0a4f28419497f9722a3daafe3b4186f6b6457e060405160405180910390a360008060006101000a81548173ffffffffffffffffffffffffffffffffffffffff021916908373ffffffffffffffffffffffffffffffffffffffff160217905550565b60008060009054906101000a900473ffffffffffffffffffffffffffffffffffffffff16905090565b6000611183826001600086815260200190815260200160002060000161222490919063ffffffff16565b905092915050565b60006111b582600160008681526020019081526020016000206000016120c490919063ffffffff16565b905092915050565b6000801b81565b7f238cc277b81124817de0fb6e725dfaca359442ead042cbf4fa5a5d15a441d4547fdf8b4c520ffe197c5343c6f5aec59570151ef9a492f2c624fd45ddde6135ec4281141561128f5761121a6000801b3361118b565b8061124b575061124a7fdf8b4c520ffe197c5343c6f5aec59570151ef9a492f2c624fd45ddde6135ec423361118b565b5b61128a576040517f08c379a00000000000000000000000000000000000000000000000000000000081526004016112819061312d565b60405180910390fd5b61144b565b7f238cc277b81124817de0fb6e725dfaca359442ead042cbf4fa5a5d15a441d45481141561136a576112c46000801b3361118b565b806112f557506112f47fdf8b4c520ffe197c5343c6f5aec59570151ef9a492f2c624fd45ddde6135ec423361118b565b5b8061132657506113257f238cc277b81124817de0fb6e725dfaca359442ead042cbf4fa5a5d15a441d4543361118b565b5b611365576040517f08c379a000000000000000000000000000000000000000000000000000000000815260040161135c9061312d565b60405180910390fd5b61144a565b6113776000801b3361118b565b806113a857506113a77fdf8b4c520ffe197c5343c6f5aec59570151ef9a492f2c624fd45ddde6135ec423361118b565b5b806113d957506113d87f238cc277b81124817de0fb6e725dfaca359442ead042cbf4fa5a5d15a441d4543361118b565b5b8061140a57506114097f60b176c013bc5f6a4aaf9c1455cc3ff5e7ee54daffb41be2fd0e50b804acad423361118b565b5b611449576040517f08c379a00000000000000000000000000000000000000000000000000000000081526004016114409061312d565b60405180910390fd5b5b5b61145361247c565b600360003373ffffffffffffffffffffffffffffffffffffffff1673ffffffffffffffffffffffffffffffffffffffff16815260200190815260200160002060405180604001604052908160008201548152602001600182015481525050905087816000015111156114fa576040517f08c379a00000000000000000000000000000000000000000000000000000000081526004016114f1906131cd565b60405180910390fd5b888160200151101580611511575060008160200151145b611550576040517f08c379a0000000000000000000000000000000000000000000000000000000008152600401611547906131ad565b60405180910390fd5b600260009054906101000a900473ffffffffffffffffffffffffffffffffffffffff1673ffffffffffffffffffffffffffffffffffffffff1663ab7cc4d28b8b8b8b8b8b8b8b6040518963ffffffff1660e01b81526004016115b99897969594939291906132ac565b600060405180830381600087803b1580156115d357600080fd5b505af11580156115e7573d6000803e3d6000fd5b5050505050505050505050505050565b60606116066000801b3361118b565b15611648576040518060400160405280600581526020017f41444d494e00000000000000000000000000000000000000000000000000000081525090506117c5565b6116727fdf8b4c520ffe197c5343c6f5aec59570151ef9a492f2c624fd45ddde6135ec423361118b565b156116b4576040518060400160405280600581526020017f41444d494e00000000000000000000000000000000000000000000000000000081525090506117c5565b6116de7f238cc277b81124817de0fb6e725dfaca359442ead042cbf4fa5a5d15a441d4543361118b565b15611720576040518060400160405280600f81526020017f555345525f57524954455f524f4c45000000000000000000000000000000000081525090506117c5565b61174a7f60b176c013bc5f6a4aaf9c1455cc3ff5e7ee54daffb41be2fd0e50b804acad423361118b565b1561178c576040518060400160405280600e81526020017f555345525f524541445f524f4c4500000000000000000000000000000000000081525090506117c5565b6040518060400160405280600381526020017f4e494c000000000000000000000000000000000000000000000000000000000081525090505b90565b60006117e86001600084815260200190815260200160002060000161223e565b9050919050565b60607f60b176c013bc5f6a4aaf9c1455cc3ff5e7ee54daffb41be2fd0e50b804acad427fdf8b4c520ffe197c5343c6f5aec59570151ef9a492f2c624fd45ddde6135ec428114156118bc576118476000801b3361118b565b8061187857506118777fdf8b4c520ffe197c5343c6f5aec59570151ef9a492f2c624fd45ddde6135ec423361118b565b5b6118b7576040517f08c379a00000000000000000000000000000000000000000000000000000000081526004016118ae9061312d565b60405180910390fd5b611a78565b7f238cc277b81124817de0fb6e725dfaca359442ead042cbf4fa5a5d15a441d454811415611997576118f16000801b3361118b565b8061192257506119217fdf8b4c520ffe197c5343c6f5aec59570151ef9a492f2c624fd45ddde6135ec423361118b565b5b8061195357506119527f238cc277b81124817de0fb6e725dfaca359442ead042cbf4fa5a5d15a441d4543361118b565b5b611992576040517f08c379a00000000000000000000000000000000000000000000000000000000081526004016119899061312d565b60405180910390fd5b611a77565b6119a46000801b3361118b565b806119d557506119d47fdf8b4c520ffe197c5343c6f5aec59570151ef9a492f2c624fd45ddde6135ec423361118b565b5b80611a065750611a057f238cc277b81124817de0fb6e725dfaca359442ead042cbf4fa5a5d15a441d4543361118b565b5b80611a375750611a367f60b176c013bc5f6a4aaf9c1455cc3ff5e7ee54daffb41be2fd0e50b804acad423361118b565b5b611a76576040517f08c379a0000000000000000000000000000000000000000000000000000000008152600401611a6d9061312d565b60405180910390fd5b5b5b611a8061247c565b600360003373ffffffffffffffffffffffffffffffffffffffff1673ffffffffffffffffffffffffffffffffffffffff168152602001908152602001600020604051806040016040529081600082015481526020016001820154815250509050600081602001518260000151011415611ba057600260009054906101000a900473ffffffffffffffffffffffffffffffffffffffff1673ffffffffffffffffffffffffffffffffffffffff1663caebb9916040518163ffffffff1660e01b815260040160006040518083038186803b158015611b5b57600080fd5b505afa158015611b6f573d6000803e3d6000fd5b505050506040513d6000823e3d601f19601f82011682018060405250810190611b989190612795565b925050611d27565b600081602001511415611c6957600260009054906101000a900473ffffffffffffffffffffffffffffffffffffffff1673ffffffffffffffffffffffffffffffffffffffff166396cba36a82600001516040518263ffffffff1660e01b8152600401611c0c9190613268565b60006040518083038186803b158015611c2457600080fd5b505afa158015611c38573d6000803e3d6000fd5b505050506040513d6000823e3d601f19601f82011682018060405250810190611c619190612795565b925050611d27565b600260009054906101000a900473ffffffffffffffffffffffffffffffffffffffff1673ffffffffffffffffffffffffffffffffffffffff16638b9265c6826000015183602001516040518363ffffffff1660e01b8152600401611cce929190613283565b60006040518083038186803b158015611ce657600080fd5b505afa158015611cfa573d6000803e3d6000fd5b505050506040513d6000823e3d601f19601f82011682018060405250810190611d239190612795565b9250505b5090565b611d526001600084815260200190815260200160002060020154611d4d6120f4565b61118b565b611d91576040517f08c379a0000000000000000000000000000000000000000000000000000000008152600401611d889061318d565b60405180910390fd5b611d9b8282612190565b5050565b611da76120f4565b73ffffffffffffffffffffffffffffffffffffffff1660008054906101000a900473ffffffffffffffffffffffffffffffffffffffff1673ffffffffffffffffffffffffffffffffffffffff1614611e34576040517f08c379a0000000000000000000000000000000000000000000000000000000008152600401611e2b906131ed565b60405180910390fd5b611e416000801b8261089e565b611e6b7fdf8b4c520ffe197c5343c6f5aec59570151ef9a492f2c624fd45ddde6135ec428261089e565b611e786000801b33611d2b565b611ea27fdf8b4c520ffe197c5343c6f5aec59570151ef9a492f2c624fd45ddde6135ec4233611d2b565b611eab81611ed2565b50565b7f238cc277b81124817de0fb6e725dfaca359442ead042cbf4fa5a5d15a441d45481565b611eda6120f4565b73ffffffffffffffffffffffffffffffffffffffff1660008054906101000a900473ffffffffffffffffffffffffffffffffffffffff1673ffffffffffffffffffffffffffffffffffffffff1614611f67576040517f08c379a0000000000000000000000000000000000000000000000000000000008152600401611f5e906131ed565b60405180910390fd5b600073ffffffffffffffffffffffffffffffffffffffff168173ffffffffffffffffffffffffffffffffffffffff161415611fd7576040517f08c379a0000000000000000000000000000000000000000000000000000000008152600401611fce9061316d565b60405180910390fd5b8073ffffffffffffffffffffffffffffffffffffffff1660008054906101000a900473ffffffffffffffffffffffffffffffffffffffff1673ffffffffffffffffffffffffffffffffffffffff167f8be0079c531659141344cd1fd0a4f28419497f9722a3daafe3b4186f6b6457e060405160405180910390a3806000806101000a81548173ffffffffffffffffffffffffffffffffffffffff021916908373ffffffffffffffffffffffffffffffffffffffff16021790555050565b60006120bc836000018373ffffffffffffffffffffffffffffffffffffffff1660001b612253565b905092915050565b60006120ec836000018373ffffffffffffffffffffffffffffffffffffffff1660001b6122c3565b905092915050565b600033905090565b612124816001600085815260200190815260200160002060000161209490919063ffffffff16565b1561218c576121316120f4565b73ffffffffffffffffffffffffffffffffffffffff168173ffffffffffffffffffffffffffffffffffffffff16837f2f8788117e7eff1d82e926ec794901d17c78024a50270940304540a733656f0d60405160405180910390a45b5050565b6121b881600160008581526020019081526020016000206000016122e690919063ffffffff16565b15612220576121c56120f4565b73ffffffffffffffffffffffffffffffffffffffff168173ffffffffffffffffffffffffffffffffffffffff16837ff6391f5c32d9c69d2a47ea670b442974b53935d1edc7fd64eb21e047a839171b60405160405180910390a45b5050565b60006122338360000183612316565b60001c905092915050565b600061224c82600001612383565b9050919050565b600061225f83836122c3565b6122b85782600001829080600181540180825580915050600190039060005260206000200160009091909190915055826000018054905083600101600084815260200190815260200160002081905550600190506122bd565b600090505b92915050565b600080836001016000848152602001908152602001600020541415905092915050565b600061230e836000018373ffffffffffffffffffffffffffffffffffffffff1660001b612394565b905092915050565b600081836000018054905011612361576040517f08c379a00000000000000000000000000000000000000000000000000000000081526004016123589061310d565b60405180910390fd5b82600001828154811061237057fe5b9060005260206000200154905092915050565b600081600001805490509050919050565b6000808360010160008481526020019081526020016000205490506000811461247057600060018203905060006001866000018054905003905060008660000182815481106123df57fe5b90600052602060002001549050808760000184815481106123fc57fe5b906000526020600020018190555060018301876001016000838152602001908152602001600020819055508660000180548061243457fe5b60019003818190600052602060002001600090559055866001016000878152602001908152602001600020600090556001945050505050612476565b60009150505b92915050565b604051806040016040528060008152602001600081525090565b6000813590506124a5816134d2565b92915050565b600082601f8301126124bc57600080fd5b81516124cf6124ca82613373565b613346565b9150818183526020840193506020810190508360005b8381101561251557815186016124fb8882612606565b8452602084019350602083019250506001810190506124e5565b5050505092915050565b60008135905061252e816134e9565b92915050565b600081519050612543816134e9565b92915050565b60008135905061255881613500565b92915050565b600082601f83011261256f57600080fd5b813561258261257d8261339b565b613346565b9150808252602083016020830185838301111561259e57600080fd5b6125a983828461347f565b50505092915050565b600082601f8301126125c357600080fd5b81516125d66125d18261339b565b613346565b915080825260208301602083018583830111156125f257600080fd5b6125fd83828461348e565b50505092915050565b6000610120828403121561261957600080fd5b612624610120613346565b9050600061263484828501612757565b600083015250602061264884828501612757565b602083015250604061265c84828501612757565b604083015250606082015167ffffffffffffffff81111561267c57600080fd5b612688848285016125b2565b606083015250608082015167ffffffffffffffff8111156126a857600080fd5b6126b4848285016125b2565b60808301525060a06126c884828501612534565b60a08301525060c082015167ffffffffffffffff8111156126e857600080fd5b6126f4848285016125b2565b60c08301525060e082015167ffffffffffffffff81111561271457600080fd5b612720848285016125b2565b60e08301525061010061273584828501612757565b6101008301525092915050565b60008135905061275181613517565b92915050565b60008151905061276681613517565b92915050565b60006020828403121561277e57600080fd5b600061278c84828501612496565b91505092915050565b6000602082840312156127a757600080fd5b600082015167ffffffffffffffff8111156127c157600080fd5b6127cd848285016124ab565b91505092915050565b6000602082840312156127e857600080fd5b60006127f684828501612549565b91505092915050565b6000806040838503121561281257600080fd5b600061282085828601612549565b925050602061283185828601612496565b9150509250929050565b6000806000806080858703121561285157600080fd5b600061285f87828801612549565b945050602061287087828801612496565b935050604061288187828801612742565b925050606061289287828801612742565b91505092959194509250565b600080604083850312156128b157600080fd5b60006128bf85828601612549565b92505060206128d085828601612742565b9150509250929050565b6000602082840312156128ec57600080fd5b600082015167ffffffffffffffff81111561290657600080fd5b612912848285016125b2565b91505092915050565b60006020828403121561292d57600080fd5b600061293b84828501612742565b91505092915050565b600080600080600080600080610100898b03121561296157600080fd5b600061296f8b828c01612742565b98505060206129808b828c01612742565b97505060406129918b828c01612742565b965050606089013567ffffffffffffffff8111156129ae57600080fd5b6129ba8b828c0161255e565b955050608089013567ffffffffffffffff8111156129d757600080fd5b6129e38b828c0161255e565b94505060a06129f48b828c0161251f565b93505060c089013567ffffffffffffffff811115612a1157600080fd5b612a1d8b828c0161255e565b92505060e089013567ffffffffffffffff811115612a3a57600080fd5b612a468b828c0161255e565b9150509295985092959890939650565b6000612a628383612f20565b905092915050565b612a738161342d565b82525050565b6000612a84826133d7565b612a8e81856133fa565b935083602082028501612aa0856133c7565b8060005b85811015612adc5784840389528151612abd8582612a56565b9450612ac8836133ed565b925060208a01995050600181019050612aa4565b50829750879550505050505092915050565b612af78161343f565b82525050565b612b068161343f565b82525050565b612b158161344b565b82525050565b6000612b26826133e2565b612b30818561340b565b9350612b4081856020860161348e565b612b49816134c1565b840191505092915050565b6000612b5f826133e2565b612b69818561341c565b9350612b7981856020860161348e565b612b82816134c1565b840191505092915050565b6000612b9a60228361341c565b91507f456e756d657261626c655365743a20696e646578206f7574206f6620626f756e60008301527f64730000000000000000000000000000000000000000000000000000000000006020830152604082019050919050565b6000612c0060138361341c565b91507f55736572206e6f7420617574686f7269736564000000000000000000000000006000830152602082019050919050565b6000612c40602f8361341c565b91507f416363657373436f6e74726f6c3a2073656e646572206d75737420626520616e60008301527f2061646d696e20746f206772616e7400000000000000000000000000000000006020830152604082019050919050565b6000612ca660268361341c565b91507f4f776e61626c653a206e6577206f776e657220697320746865207a65726f206160008301527f64647265737300000000000000000000000000000000000000000000000000006020830152604082019050919050565b6000612d0c60308361341c565b91507f416363657373436f6e74726f6c3a2073656e646572206d75737420626520616e60008301527f2061646d696e20746f207265766f6b65000000000000000000000000000000006020830152604082019050919050565b6000612d72601a8361341c565b91507f4c61746572207468616e207669657761626c6520706572696f640000000000006000830152602082019050919050565b6000612db2601c8361341c565b91507f4561726c696572207468616e207669657761626c6520706572696f64000000006000830152602082019050919050565b6000612df260208361341c565b91507f4f776e61626c653a2063616c6c6572206973206e6f7420746865206f776e65726000830152602082019050919050565b6000612e3260278361341c565b91507f5669657761626c652066726f6d206c61746572207468616e207669657761626c60008301527f6520756e74696c000000000000000000000000000000000000000000000000006020830152604082019050919050565b6000612e98602f8361341c565b91507f416363657373436f6e74726f6c3a2063616e206f6e6c792072656e6f756e636560008301527f20726f6c657320666f722073656c6600000000000000000000000000000000006020830152604082019050919050565b604082016000820151612f076000850182612ffa565b506020820151612f1a6020850182612ffa565b50505050565b600061012083016000830151612f396000860182612ffa565b506020830151612f4c6020860182612ffa565b506040830151612f5f6040860182612ffa565b5060608301518482036060860152612f778282612b1b565b91505060808301518482036080860152612f918282612b1b565b91505060a0830151612fa660a0860182612aee565b5060c083015184820360c0860152612fbe8282612b1b565b91505060e083015184820360e0860152612fd88282612b1b565b915050610100830151612fef610100860182612ffa565b508091505092915050565b61300381613475565b82525050565b61301281613475565b82525050565b600060208201905061302d6000830184612a6a565b92915050565b60006040820190506130486000830185612a6a565b6130556020830184613009565b9392505050565b60006060820190506130716000830186612a6a565b61307e6020830185613009565b61308b6040830184613009565b949350505050565b600060208201905081810360008301526130ad8184612a79565b905092915050565b60006020820190506130ca6000830184612afd565b92915050565b60006020820190506130e56000830184612b0c565b92915050565b600060208201905081810360008301526131058184612b54565b905092915050565b6000602082019050818103600083015261312681612b8d565b9050919050565b6000602082019050818103600083015261314681612bf3565b9050919050565b6000602082019050818103600083015261316681612c33565b9050919050565b6000602082019050818103600083015261318681612c99565b9050919050565b600060208201905081810360008301526131a681612cff565b9050919050565b600060208201905081810360008301526131c681612d65565b9050919050565b600060208201905081810360008301526131e681612da5565b9050919050565b6000602082019050818103600083015261320681612de5565b9050919050565b6000602082019050818103600083015261322681612e25565b9050919050565b6000602082019050818103600083015261324681612e8b565b9050919050565b60006040820190506132626000830184612ef1565b92915050565b600060208201905061327d6000830184613009565b92915050565b60006040820190506132986000830185613009565b6132a56020830184613009565b9392505050565b6000610100820190506132c2600083018b613009565b6132cf602083018a613009565b6132dc6040830189613009565b81810360608301526132ee8188612b54565b905081810360808301526133028187612b54565b905061331160a0830186612afd565b81810360c08301526133238185612b54565b905081810360e08301526133378184612b54565b90509998505050505050505050565b6000604051905081810181811067ffffffffffffffff8211171561336957600080fd5b8060405250919050565b600067ffffffffffffffff82111561338a57600080fd5b602082029050602081019050919050565b600067ffffffffffffffff8211156133b257600080fd5b601f19601f8301169050602081019050919050565b6000819050602082019050919050565b600081519050919050565b600081519050919050565b6000602082019050919050565b600082825260208201905092915050565b600082825260208201905092915050565b600082825260208201905092915050565b600061343882613455565b9050919050565b60008115159050919050565b6000819050919050565b600073ffffffffffffffffffffffffffffffffffffffff82169050919050565b6000819050919050565b82818337600083830152505050565b60005b838110156134ac578082015181840152602081019050613491565b838111156134bb576000848401525b50505050565b6000601f19601f8301169050919050565b6134db8161342d565b81146134e657600080fd5b50565b6134f28161343f565b81146134fd57600080fd5b50565b6135098161344b565b811461351457600080fd5b50565b61352081613475565b811461352b57600080fd5b5056fea2646970667358221220e567dc0fefa168fb9367c248e3377c1d690256e4812f1ccb23e398b575d7a11164736f6c634300060c0033",
  "immutableReferences": {},
  "source": "// SPDX-License-Identifier: MIT\npragma solidity ^0.6.0;\npragma experimental ABIEncoderV2;\n\nimport \"@openzeppelin/contracts/access/AccessControl.sol\";\nimport \"@openzeppelin/contracts/access/Ownable.sol\";\nimport \"./CalStore.sol\";\nimport \"./VEventLibrary.sol\";\n\n/// @title Forget-me-block: Ethereum Calendar Authentication\n/// @author PreciousChicken\n/// @notice preciouschicken.com/blog/posts/forget-me-block-eth-cal/\ncontract CalAuth is Ownable, AccessControl {\n    using VEventLibrary for VEventLibrary.VEvent;\n\n    bytes32 public constant USER_READ_ROLE = keccak256(\"USER_READ_ROLE\");\n    bytes32 public constant USER_WRITE_ROLE = keccak256(\"USER_WRITE_ROLE\");\n    bytes32 public constant ADMIN = keccak256(\"ADMIN\");\n    CalStore private calStore;\n\n    struct AccessWindow {\n        uint validFrom;\n        uint expiresBy;\n    }\n    \n    mapping(address => AccessWindow) private accessList;\n\n    constructor(address _addr) public {\n        _setupRole(DEFAULT_ADMIN_ROLE, msg.sender);\n        _setRoleAdmin(USER_READ_ROLE, ADMIN);\n        _setRoleAdmin(USER_WRITE_ROLE, ADMIN);\n        grantRole(ADMIN, msg.sender);\n        calStore = CalStore(_addr);\n    }\n\n    modifier onlyRole(bytes32 _role) {\n        if (_role == ADMIN) {\n            require(\n                hasRole(DEFAULT_ADMIN_ROLE, msg.sender) ||\n                hasRole(ADMIN, msg.sender),\n                \"User not authorised\");\n        } else if (_role == USER_WRITE_ROLE) {\n            require(\n                hasRole(DEFAULT_ADMIN_ROLE, msg.sender) ||\n                hasRole(ADMIN, msg.sender) ||\n                hasRole(USER_WRITE_ROLE, msg.sender),\n                \"User not authorised\");\n        } else {\n            require(\n                hasRole(DEFAULT_ADMIN_ROLE, msg.sender) ||\n                hasRole(ADMIN, msg.sender) ||\n                hasRole(USER_WRITE_ROLE, msg.sender) ||\n                hasRole(USER_READ_ROLE, msg.sender),\n                \"User not authorised\");\n        }\n        _;\n    }\n    \n    modifier onlyRoleIcal(address _user) {\n        require(\n            hasRole(DEFAULT_ADMIN_ROLE, _user) ||\n            hasRole(ADMIN, msg.sender) ||\n            hasRole(USER_WRITE_ROLE, _user) ||\n            hasRole(USER_READ_ROLE, _user),\n            \"User not authorised\");\n        _;\n    }\n\n    /// @notice Passes event to CalStore to store \n    /// @dev Validation performed on dates \n    /// @param _dtstamp unix timestamp RFC5545 definition \n    /// @param _dtstart unix timestamp RFC5545 definition \n    /// @param _dtend unix timestamp RFC5545 definition \n    /// @param _summary unix timestamp RFC5545 definition \n    /// @param _description unix timestamp RFC5545 definition \n    /// @param _isallday boolean for all day event \n    /// @param _alldaystartdate string of start date for all-day e.g. 19971102\n    /// @param _alldayenddate string of end date for all-day e.g. 19971103\n    function storeEvent(\n        uint _dtstamp,\n        uint _dtstart,\n        uint _dtend,\n        string memory _summary,\n        string memory _description,\n        bool _isallday,\n        string memory _alldaystartdate,\n        string memory _alldayenddate)\n        public onlyRole(USER_WRITE_ROLE)\n        {\n        AccessWindow memory requestWindow = accessList[msg.sender];\n        require(requestWindow.validFrom <= _dtend, \"Earlier than viewable period\");\n        require(\n            (requestWindow.expiresBy >= _dtstart) || \n            (requestWindow.expiresBy == 0), \n            \"Later than viewable period\");\n        calStore.storeEvent(\n            _dtstamp, _dtstart, _dtend,\n            _summary, _description,\n            _isallday, _alldaystartdate,\n            _alldayenddate);\n    }\n\n    /// @notice Passes event to CalStore to remove \n    /// @dev Assumes user cannot have more than one event with same dtstamp \n    /// @dev Further testing of this assumption required\n    /// @param _dtstamp unix timestamp RFC5545 definition \n    function removeEvent(uint _dtstamp) public onlyRole(USER_WRITE_ROLE) {\n        // Require not required due to onlyRole?  Test this assumption.\n        // Remove when tested.\n        // require(\n        //     hasRole(DEFAULT_ADMIN_ROLE, msg.sender) ||\n        //     hasRole(USER_WRITE_ROLE, msg.sender),\n        //     \"User not authorised\");\n        calStore.removeEvent(_dtstamp);\n    }\n\n    /// @notice Returnes events from CalStore as string \n    /// @dev Called by API, used in Email clients, not react-calendar\n    /// @param _user address of user, required as called by Outlook/Thunderbird \n    /// @return string user role\n    function getEventsIcal(address _user) public view onlyRoleIcal(_user) returns (\n        string memory) {\n        AccessWindow memory requestWindow = accessList[_user];\n        if ((requestWindow.validFrom + requestWindow.expiresBy) == 0) {\n            return calStore.getEventsIcal(address(this));\n        } else if (requestWindow.expiresBy == 0) {\n            return calStore.getEventsIcal(address(this), requestWindow.validFrom);\n        } else {\n            return calStore.getEventsIcal(address(this), requestWindow.validFrom, requestWindow.expiresBy);\n        }\n    }\n\n\n    /// @notice Returnes events from CalStore as object\n    /// @dev Called by web react-calendar\n    /// @return VEventLibrary.VEvent[] array of events\n    function getEventsObj() public view onlyRole(USER_READ_ROLE) returns (\n        VEventLibrary.VEvent[] memory) {\n            AccessWindow memory requestWindow = accessList[msg.sender];\n            if ((requestWindow.validFrom + requestWindow.expiresBy) == 0) {\n                return calStore.getEventsObj();\n            } else if (requestWindow.expiresBy == 0) {\n                return calStore.getEventsObj(requestWindow.validFrom);\n            } else {\n                return calStore.getEventsObj(\n                    requestWindow.validFrom, \n                    requestWindow.expiresBy);\n            }\n    }\n\n    /// @notice Returns role of msg.sender\n    /// @dev Returns in hierarchial order, e.g. ADMIN more important than READ etc\n    /// @return string user role\n    function getUserRole() public view returns (string memory) {\n        if (hasRole(DEFAULT_ADMIN_ROLE, msg.sender)) {\n            return \"ADMIN\";\n        } else if (hasRole(ADMIN, msg.sender)) {\n            return \"ADMIN\";\n        } else if (hasRole(USER_WRITE_ROLE, msg.sender)) {\n            return \"USER_WRITE_ROLE\";\n        } else if (hasRole(USER_READ_ROLE, msg.sender)) {\n            return \"USER_READ_ROLE\";\n        }\n        return \"NIL\";\n    }\n\n    /// @notice Grants access to role \n    /// @dev Validation performed on dates \n    /// @param _role role to be granted \n    /// @param _userAddress address for new role\n    /// @param _validFrom unix date\n    /// @param _expiresBy unix date\n    function grantRoleAccess(\n        bytes32 _role, \n        address _userAddress, \n        uint _validFrom, \n        uint _expiresBy) \n        public onlyRole(ADMIN) {\n            require((_validFrom < _expiresBy) ||\n                    (_expiresBy == 0), \n            \"Viewable from later than viewable until\");\n            grantRole(_role, _userAddress);\n            accessList[_userAddress] = AccessWindow(_validFrom, _expiresBy);\n    }\n\n    /// @notice Shows viewable dates for selected user \n    /// @dev Dates are viewFrom and expiresBy\n    /// @param _userAddress selected user\n    /// @return AccessWindow viewable date struct\n    function getAccessWindow(address _userAddress) \n    view\n    public \n    returns (AccessWindow memory) {\n\treturn accessList[_userAddress];\n    }\n\n    /// @notice Transfers CalAuth ownership and access management \n    /// @dev current owner is revoked ownership and admin\n    /// @param _newOwner address of new owner\n    function transferCalAuth(address _newOwner) public onlyOwner {\n        grantRole(DEFAULT_ADMIN_ROLE, _newOwner);\n        grantRole(ADMIN, _newOwner);\n        revokeRole(DEFAULT_ADMIN_ROLE, msg.sender);\n        revokeRole(ADMIN, msg.sender);\n        transferOwnership(_newOwner);\n    }\n\n}\n\n",
  "sourcePath": "/home/gene/Programming/Websites/Precious_Chicken_Website/blog_code_demos/forget-me-block-eth-cal-auth/contracts/CalAuth.sol",
  "compiler": {
    "name": "solc",
    "version": "0.6.12+commit.27d51765.Emscripten.clang"
  },
  "schemaVersion": "3.2.3",
  "updatedAt": "2020-10-04T14:01:34.085Z",
  "networkType": "ethereum",
  "devdoc": {
    "author": "PreciousChicken",
    "kind": "dev",
    "methods": {
      "getAccessWindow(address)": {
        "details": "Dates are viewFrom and expiresBy",
        "params": {
          "_userAddress": "selected user"
        },
        "returns": {
          "_0": "AccessWindow viewable date struct"
        }
      },
      "getEventsIcal(address)": {
        "details": "Called by API, used in Email clients, not react-calendar",
        "params": {
          "_user": "address of user, required as called by Outlook/Thunderbird "
        },
        "returns": {
          "_0": "string user role"
        }
      },
      "getEventsObj()": {
        "details": "Called by web react-calendar",
        "returns": {
          "_0": "VEventLibrary.VEvent[] array of events"
        }
      },
      "getRoleAdmin(bytes32)": {
        "details": "Returns the admin role that controls `role`. See {grantRole} and {revokeRole}. To change a role's admin, use {_setRoleAdmin}."
      },
      "getRoleMember(bytes32,uint256)": {
        "details": "Returns one of the accounts that have `role`. `index` must be a value between 0 and {getRoleMemberCount}, non-inclusive. Role bearers are not sorted in any particular way, and their ordering may change at any point. WARNING: When using {getRoleMember} and {getRoleMemberCount}, make sure you perform all queries on the same block. See the following https://forum.openzeppelin.com/t/iterating-over-elements-on-enumerableset-in-openzeppelin-contracts/2296[forum post] for more information."
      },
      "getRoleMemberCount(bytes32)": {
        "details": "Returns the number of accounts that have `role`. Can be used together with {getRoleMember} to enumerate all bearers of a role."
      },
      "getUserRole()": {
        "details": "Returns in hierarchial order, e.g. ADMIN more important than READ etc",
        "returns": {
          "_0": "string user role"
        }
      },
      "grantRole(bytes32,address)": {
        "details": "Grants `role` to `account`. If `account` had not been already granted `role`, emits a {RoleGranted} event. Requirements: - the caller must have ``role``'s admin role."
      },
      "grantRoleAccess(bytes32,address,uint256,uint256)": {
        "details": "Validation performed on dates ",
        "params": {
          "_expiresBy": "unix date",
          "_role": "role to be granted ",
          "_userAddress": "address for new role",
          "_validFrom": "unix date"
        }
      },
      "hasRole(bytes32,address)": {
        "details": "Returns `true` if `account` has been granted `role`."
      },
      "owner()": {
        "details": "Returns the address of the current owner."
      },
      "removeEvent(uint256)": {
        "details": "Assumes user cannot have more than one event with same dtstamp Further testing of this assumption required",
        "params": {
          "_dtstamp": "unix timestamp RFC5545 definition "
        }
      },
      "renounceOwnership()": {
        "details": "Leaves the contract without owner. It will not be possible to call `onlyOwner` functions anymore. Can only be called by the current owner. NOTE: Renouncing ownership will leave the contract without an owner, thereby removing any functionality that is only available to the owner."
      },
      "renounceRole(bytes32,address)": {
        "details": "Revokes `role` from the calling account. Roles are often managed via {grantRole} and {revokeRole}: this function's purpose is to provide a mechanism for accounts to lose their privileges if they are compromised (such as when a trusted device is misplaced). If the calling account had been granted `role`, emits a {RoleRevoked} event. Requirements: - the caller must be `account`."
      },
      "revokeRole(bytes32,address)": {
        "details": "Revokes `role` from `account`. If `account` had been granted `role`, emits a {RoleRevoked} event. Requirements: - the caller must have ``role``'s admin role."
      },
      "storeEvent(uint256,uint256,uint256,string,string,bool,string,string)": {
        "details": "Validation performed on dates ",
        "params": {
          "_alldayenddate": "string of end date for all-day e.g. 19971103",
          "_alldaystartdate": "string of start date for all-day e.g. 19971102",
          "_description": "unix timestamp RFC5545 definition ",
          "_dtend": "unix timestamp RFC5545 definition ",
          "_dtstamp": "unix timestamp RFC5545 definition ",
          "_dtstart": "unix timestamp RFC5545 definition ",
          "_isallday": "boolean for all day event ",
          "_summary": "unix timestamp RFC5545 definition "
        }
      },
      "transferCalAuth(address)": {
        "details": "current owner is revoked ownership and admin",
        "params": {
          "_newOwner": "address of new owner"
        }
      },
      "transferOwnership(address)": {
        "details": "Transfers ownership of the contract to a new account (`newOwner`). Can only be called by the current owner."
      }
    },
    "title": "Forget-me-block: Ethereum Calendar Authentication",
    "version": 1
  },
  "userdoc": {
    "kind": "user",
    "methods": {
      "getAccessWindow(address)": {
        "notice": "Shows viewable dates for selected user "
      },
      "getEventsIcal(address)": {
        "notice": "Returnes events from CalStore as string "
      },
      "getEventsObj()": {
        "notice": "Returnes events from CalStore as object"
      },
      "getUserRole()": {
        "notice": "Returns role of msg.sender"
      },
      "grantRoleAccess(bytes32,address,uint256,uint256)": {
        "notice": "Grants access to role "
      },
      "removeEvent(uint256)": {
        "notice": "Passes event to CalStore to remove "
      },
      "storeEvent(uint256,uint256,uint256,string,string,bool,string,string)": {
        "notice": "Passes event to CalStore to store "
      },
      "transferCalAuth(address)": {
        "notice": "Transfers CalAuth ownership and access management "
      }
    },
    "notice": "preciouschicken.com/blog/posts/forget-me-block-eth-cal/",
    "version": 1
  }
}