{
  "contractName": "CalAuth",
  "abi": [
    {
      "inputs": [
        {
          "internalType": "address",
          "name": "_addr",
          "type": "address"
        }
      ],
      "stateMutability": "nonpayable",
      "type": "constructor"
    },
    {
      "anonymous": false,
      "inputs": [
        {
          "indexed": true,
          "internalType": "address",
          "name": "previousOwner",
          "type": "address"
        },
        {
          "indexed": true,
          "internalType": "address",
          "name": "newOwner",
          "type": "address"
        }
      ],
      "name": "OwnershipTransferred",
      "type": "event"
    },
    {
      "anonymous": false,
      "inputs": [
        {
          "indexed": true,
          "internalType": "bytes32",
          "name": "role",
          "type": "bytes32"
        },
        {
          "indexed": true,
          "internalType": "bytes32",
          "name": "previousAdminRole",
          "type": "bytes32"
        },
        {
          "indexed": true,
          "internalType": "bytes32",
          "name": "newAdminRole",
          "type": "bytes32"
        }
      ],
      "name": "RoleAdminChanged",
      "type": "event"
    },
    {
      "anonymous": false,
      "inputs": [
        {
          "indexed": true,
          "internalType": "bytes32",
          "name": "role",
          "type": "bytes32"
        },
        {
          "indexed": true,
          "internalType": "address",
          "name": "account",
          "type": "address"
        },
        {
          "indexed": true,
          "internalType": "address",
          "name": "sender",
          "type": "address"
        }
      ],
      "name": "RoleGranted",
      "type": "event"
    },
    {
      "anonymous": false,
      "inputs": [
        {
          "indexed": true,
          "internalType": "bytes32",
          "name": "role",
          "type": "bytes32"
        },
        {
          "indexed": true,
          "internalType": "address",
          "name": "account",
          "type": "address"
        },
        {
          "indexed": true,
          "internalType": "address",
          "name": "sender",
          "type": "address"
        }
      ],
      "name": "RoleRevoked",
      "type": "event"
    },
    {
      "inputs": [],
      "name": "ADMIN",
      "outputs": [
        {
          "internalType": "bytes32",
          "name": "",
          "type": "bytes32"
        }
      ],
      "stateMutability": "view",
      "type": "function",
      "constant": true
    },
    {
      "inputs": [],
      "name": "DEFAULT_ADMIN_ROLE",
      "outputs": [
        {
          "internalType": "bytes32",
          "name": "",
          "type": "bytes32"
        }
      ],
      "stateMutability": "view",
      "type": "function",
      "constant": true
    },
    {
      "inputs": [],
      "name": "USER_READ_ROLE",
      "outputs": [
        {
          "internalType": "bytes32",
          "name": "",
          "type": "bytes32"
        }
      ],
      "stateMutability": "view",
      "type": "function",
      "constant": true
    },
    {
      "inputs": [],
      "name": "USER_WRITE_ROLE",
      "outputs": [
        {
          "internalType": "bytes32",
          "name": "",
          "type": "bytes32"
        }
      ],
      "stateMutability": "view",
      "type": "function",
      "constant": true
    },
    {
      "inputs": [
        {
          "internalType": "bytes32",
          "name": "role",
          "type": "bytes32"
        }
      ],
      "name": "getRoleAdmin",
      "outputs": [
        {
          "internalType": "bytes32",
          "name": "",
          "type": "bytes32"
        }
      ],
      "stateMutability": "view",
      "type": "function",
      "constant": true
    },
    {
      "inputs": [
        {
          "internalType": "bytes32",
          "name": "role",
          "type": "bytes32"
        },
        {
          "internalType": "uint256",
          "name": "index",
          "type": "uint256"
        }
      ],
      "name": "getRoleMember",
      "outputs": [
        {
          "internalType": "address",
          "name": "",
          "type": "address"
        }
      ],
      "stateMutability": "view",
      "type": "function",
      "constant": true
    },
    {
      "inputs": [
        {
          "internalType": "bytes32",
          "name": "role",
          "type": "bytes32"
        }
      ],
      "name": "getRoleMemberCount",
      "outputs": [
        {
          "internalType": "uint256",
          "name": "",
          "type": "uint256"
        }
      ],
      "stateMutability": "view",
      "type": "function",
      "constant": true
    },
    {
      "inputs": [
        {
          "internalType": "bytes32",
          "name": "role",
          "type": "bytes32"
        },
        {
          "internalType": "address",
          "name": "account",
          "type": "address"
        }
      ],
      "name": "grantRole",
      "outputs": [],
      "stateMutability": "nonpayable",
      "type": "function"
    },
    {
      "inputs": [
        {
          "internalType": "bytes32",
          "name": "role",
          "type": "bytes32"
        },
        {
          "internalType": "address",
          "name": "account",
          "type": "address"
        }
      ],
      "name": "hasRole",
      "outputs": [
        {
          "internalType": "bool",
          "name": "",
          "type": "bool"
        }
      ],
      "stateMutability": "view",
      "type": "function",
      "constant": true
    },
    {
      "inputs": [],
      "name": "owner",
      "outputs": [
        {
          "internalType": "address",
          "name": "",
          "type": "address"
        }
      ],
      "stateMutability": "view",
      "type": "function",
      "constant": true
    },
    {
      "inputs": [],
      "name": "renounceOwnership",
      "outputs": [],
      "stateMutability": "nonpayable",
      "type": "function"
    },
    {
      "inputs": [
        {
          "internalType": "bytes32",
          "name": "role",
          "type": "bytes32"
        },
        {
          "internalType": "address",
          "name": "account",
          "type": "address"
        }
      ],
      "name": "renounceRole",
      "outputs": [],
      "stateMutability": "nonpayable",
      "type": "function"
    },
    {
      "inputs": [
        {
          "internalType": "bytes32",
          "name": "role",
          "type": "bytes32"
        },
        {
          "internalType": "address",
          "name": "account",
          "type": "address"
        }
      ],
      "name": "revokeRole",
      "outputs": [],
      "stateMutability": "nonpayable",
      "type": "function"
    },
    {
      "inputs": [
        {
          "internalType": "address",
          "name": "newOwner",
          "type": "address"
        }
      ],
      "name": "transferOwnership",
      "outputs": [],
      "stateMutability": "nonpayable",
      "type": "function"
    },
    {
      "inputs": [
        {
          "internalType": "uint256",
          "name": "_dtstamp",
          "type": "uint256"
        },
        {
          "internalType": "uint256",
          "name": "_dtstart",
          "type": "uint256"
        },
        {
          "internalType": "uint256",
          "name": "_dtend",
          "type": "uint256"
        },
        {
          "internalType": "string",
          "name": "_summary",
          "type": "string"
        },
        {
          "internalType": "string",
          "name": "_description",
          "type": "string"
        },
        {
          "internalType": "bool",
          "name": "_isallday",
          "type": "bool"
        },
        {
          "internalType": "string",
          "name": "_alldaystartdate",
          "type": "string"
        },
        {
          "internalType": "string",
          "name": "_alldayenddate",
          "type": "string"
        }
      ],
      "name": "storeEvent",
      "outputs": [],
      "stateMutability": "nonpayable",
      "type": "function"
    },
    {
      "inputs": [
        {
          "internalType": "uint256",
          "name": "_dtstamp",
          "type": "uint256"
        }
      ],
      "name": "removeEvent",
      "outputs": [],
      "stateMutability": "nonpayable",
      "type": "function"
    },
    {
      "inputs": [],
      "name": "deleteEvents",
      "outputs": [],
      "stateMutability": "nonpayable",
      "type": "function"
    },
    {
      "inputs": [
        {
          "internalType": "address",
          "name": "_user",
          "type": "address"
        }
      ],
      "name": "getEventsIcal",
      "outputs": [
        {
          "internalType": "string",
          "name": "",
          "type": "string"
        }
      ],
      "stateMutability": "view",
      "type": "function",
      "constant": true
    },
    {
      "inputs": [],
      "name": "getEventsObj",
      "outputs": [
        {
          "components": [
            {
              "internalType": "uint256",
              "name": "dtstamp",
              "type": "uint256"
            },
            {
              "internalType": "uint256",
              "name": "dtstart",
              "type": "uint256"
            },
            {
              "internalType": "uint256",
              "name": "dtend",
              "type": "uint256"
            },
            {
              "internalType": "string",
              "name": "summary",
              "type": "string"
            },
            {
              "internalType": "string",
              "name": "description",
              "type": "string"
            },
            {
              "internalType": "bool",
              "name": "isallday",
              "type": "bool"
            },
            {
              "internalType": "string",
              "name": "alldaystartdate",
              "type": "string"
            },
            {
              "internalType": "string",
              "name": "alldayenddate",
              "type": "string"
            },
            {
              "internalType": "uint256",
              "name": "uid",
              "type": "uint256"
            }
          ],
          "internalType": "struct VEventLibrary.VEvent[]",
          "name": "",
          "type": "tuple[]"
        }
      ],
      "stateMutability": "view",
      "type": "function",
      "constant": true
    },
    {
      "inputs": [],
      "name": "getUserRole",
      "outputs": [
        {
          "internalType": "string",
          "name": "",
          "type": "string"
        }
      ],
      "stateMutability": "view",
      "type": "function",
      "constant": true
    },
    {
      "inputs": [
        {
          "internalType": "bytes32",
          "name": "_role",
          "type": "bytes32"
        },
        {
          "internalType": "address",
          "name": "_userAddress",
          "type": "address"
        },
        {
          "internalType": "uint256",
          "name": "_validFrom",
          "type": "uint256"
        },
        {
          "internalType": "uint256",
          "name": "_expiresBy",
          "type": "uint256"
        }
      ],
      "name": "grantRoleAccess",
      "outputs": [],
      "stateMutability": "nonpayable",
      "type": "function"
    },
    {
      "inputs": [
        {
          "internalType": "address",
          "name": "_userAddress",
          "type": "address"
        }
      ],
      "name": "getAccessWindow",
      "outputs": [
        {
          "components": [
            {
              "internalType": "uint256",
              "name": "validFrom",
              "type": "uint256"
            },
            {
              "internalType": "uint256",
              "name": "expiresBy",
              "type": "uint256"
            }
          ],
          "internalType": "struct CalAuth.AccessWindow",
          "name": "",
          "type": "tuple"
        }
      ],
      "stateMutability": "view",
      "type": "function",
      "constant": true
    },
    {
      "inputs": [
        {
          "internalType": "address",
          "name": "_newOwner",
          "type": "address"
        }
      ],
      "name": "transferCalAuth",
      "outputs": [],
      "stateMutability": "nonpayable",
      "type": "function"
    }
  ],
  "bytecode": "0x60806040523480156200001157600080fd5b5060405162003ce338038062003ce383398181016040528101906200003791906200052c565b6000620000496200021a60201b60201c565b9050806000806101000a81548173ffffffffffffffffffffffffffffffffffffffff021916908373ffffffffffffffffffffffffffffffffffffffff1602179055508073ffffffffffffffffffffffffffffffffffffffff16600073ffffffffffffffffffffffffffffffffffffffff167f8be0079c531659141344cd1fd0a4f28419497f9722a3daafe3b4186f6b6457e060405160405180910390a350620000fc6000801b336200022260201b60201c565b6200014e7f60b176c013bc5f6a4aaf9c1455cc3ff5e7ee54daffb41be2fd0e50b804acad427fdf8b4c520ffe197c5343c6f5aec59570151ef9a492f2c624fd45ddde6135ec426200023860201b60201c565b620001a07f238cc277b81124817de0fb6e725dfaca359442ead042cbf4fa5a5d15a441d4547fdf8b4c520ffe197c5343c6f5aec59570151ef9a492f2c624fd45ddde6135ec426200023860201b60201c565b620001d27fdf8b4c520ffe197c5343c6f5aec59570151ef9a492f2c624fd45ddde6135ec42336200029c60201b60201c565b80600260006101000a81548173ffffffffffffffffffffffffffffffffffffffff021916908373ffffffffffffffffffffffffffffffffffffffff1602179055505062000641565b600033905090565b6200023482826200032b60201b60201c565b5050565b806001600084815260200190815260200160002060020154837fbd79b86ffe0ab8e8776151514217cd7cacd52c909f66475c3af44e129f0b00ff60405160405180910390a48060016000848152602001908152602001600020600201819055505050565b620002d36001600084815260200190815260200160002060020154620002c76200021a60201b60201c565b620003cf60201b60201c565b62000315576040517f08c379a00000000000000000000000000000000000000000000000000000000081526004016200030c90620005c0565b60405180910390fd5b6200032782826200032b60201b60201c565b5050565b6200035a81600160008581526020019081526020016000206000016200040860201b620021c21790919060201c565b15620003cb57620003706200021a60201b60201c565b73ffffffffffffffffffffffffffffffffffffffff168173ffffffffffffffffffffffffffffffffffffffff16837f2f8788117e7eff1d82e926ec794901d17c78024a50270940304540a733656f0d60405160405180910390a45b5050565b60006200040082600160008681526020019081526020016000206000016200044060201b620021f21790919060201c565b905092915050565b600062000438836000018373ffffffffffffffffffffffffffffffffffffffff1660001b6200047860201b60201c565b905092915050565b600062000470836000018373ffffffffffffffffffffffffffffffffffffffff1660001b620004f260201b60201c565b905092915050565b60006200048c8383620004f260201b60201c565b620004e7578260000182908060018154018082558091505060019003906000526020600020016000909190919091505582600001805490508360010160008481526020019081526020016000208190555060019050620004ec565b600090505b92915050565b600080836001016000848152602001908152602001600020541415905092915050565b600081519050620005268162000627565b92915050565b6000602082840312156200053f57600080fd5b60006200054f8482850162000515565b91505092915050565b600062000567602f83620005e2565b91507f416363657373436f6e74726f6c3a2073656e646572206d75737420626520616e60008301527f2061646d696e20746f206772616e7400000000000000000000000000000000006020830152604082019050919050565b60006020820190508181036000830152620005db8162000558565b9050919050565b600082825260208201905092915050565b6000620006008262000607565b9050919050565b600073ffffffffffffffffffffffffffffffffffffffff82169050919050565b6200063281620005f3565b81146200063e57600080fd5b50565b61369280620006516000396000f3fe608060405234801561001057600080fd5b506004361061014d5760003560e01c80639010d07c116100c3578063cab887ab1161007c578063cab887ab1461039e578063caebb991146103a8578063d547741f146103c6578063ecfa7e9f146103e2578063ee1bf5db146103fe578063f2fde38b1461041c5761014d565b80639010d07c146102b657806391d14854146102e6578063a217fddf14610316578063ab7cc4d214610334578063bf04a10d14610350578063ca15c8731461036e5761014d565b80632f2ff15d116101155780632f2ff15d1461021e57806336568abe1461023a57806356164e1e146102565780635de45c1f14610272578063715018a61461028e5780638da5cb5b146102985761014d565b806310d00a671461015257806321ee4bca14610182578063248a9ca3146101b2578063283e8442146101e25780632a0acc6a14610200575b600080fd5b61016c6004803603810190610167919061289a565b610438565b6040516101799190613219565b60405180910390f35b61019c6004803603810190610197919061289a565b6107de565b6040516101a9919061337b565b60405180910390f35b6101cc60048036038101906101c79190612904565b61084b565b6040516101d991906131fe565b60405180910390f35b6101ea61086b565b6040516101f791906131fe565b60405180910390f35b61020861088f565b60405161021591906131fe565b60405180910390f35b6102386004803603810190610233919061292d565b6108b3565b005b610254600480360381019061024f919061292d565b610927565b005b610270600480360381019061026b9190612a49565b6109aa565b005b61028c60048036038101906102879190612969565b610cc2565b005b610296610ff2565b005b6102a0611145565b6040516102ad9190613146565b60405180910390f35b6102d060048036038101906102cb91906129cc565b61116e565b6040516102dd9190613146565b60405180910390f35b61030060048036038101906102fb919061292d565b6111a0565b60405161030d91906131e3565b60405180910390f35b61031e6111d2565b60405161032b91906131fe565b60405180910390f35b61034e60048036038101906103499190612a72565b6111d9565b005b61035861160c565b6040516103659190613219565b60405180910390f35b61038860048036038101906103839190612904565b6117dd565b6040516103959190613396565b60405180910390f35b6103a6611804565b005b6103b061191d565b6040516103bd91906131c1565b60405180910390f35b6103e060048036038101906103db919061292d565b611e59565b005b6103fc60048036038101906103f7919061289a565b611ecd565b005b610406611fdc565b60405161041391906131fe565b60405180910390f35b6104366004803603810190610431919061289a565b612000565b005b6060816104486000801b826111a0565b8061047957506104787fdf8b4c520ffe197c5343c6f5aec59570151ef9a492f2c624fd45ddde6135ec42336111a0565b5b806104aa57506104a97f238cc277b81124817de0fb6e725dfaca359442ead042cbf4fa5a5d15a441d454826111a0565b5b806104db57506104da7f60b176c013bc5f6a4aaf9c1455cc3ff5e7ee54daffb41be2fd0e50b804acad42826111a0565b5b61051a576040517f08c379a00000000000000000000000000000000000000000000000000000000081526004016105119061325b565b60405180910390fd5b6105226125aa565b600360008573ffffffffffffffffffffffffffffffffffffffff1673ffffffffffffffffffffffffffffffffffffffff16815260200190815260200160002060405180604001604052908160008201548152602001600182015481525050905060008160200151826000015101141561064d57600260009054906101000a900473ffffffffffffffffffffffffffffffffffffffff1673ffffffffffffffffffffffffffffffffffffffff166310d00a67306040518263ffffffff1660e01b81526004016105f09190613146565b60006040518083038186803b15801561060857600080fd5b505afa15801561061c573d6000803e3d6000fd5b505050506040513d6000823e3d601f19601f820116820180604052508101906106459190612a08565b9250506107d8565b60008160200151141561071857600260009054906101000a900473ffffffffffffffffffffffffffffffffffffffff1673ffffffffffffffffffffffffffffffffffffffff1663f35cf90e3083600001516040518363ffffffff1660e01b81526004016106bb929190613161565b60006040518083038186803b1580156106d357600080fd5b505afa1580156106e7573d6000803e3d6000fd5b505050506040513d6000823e3d601f19601f820116820180604052508101906107109190612a08565b9250506107d8565b600260009054906101000a900473ffffffffffffffffffffffffffffffffffffffff1673ffffffffffffffffffffffffffffffffffffffff16638700d56630836000015184602001516040518463ffffffff1660e01b815260040161077f9392919061318a565b60006040518083038186803b15801561079757600080fd5b505afa1580156107ab573d6000803e3d6000fd5b505050506040513d6000823e3d601f19601f820116820180604052508101906107d49190612a08565b9250505b50919050565b6107e66125aa565b600360008373ffffffffffffffffffffffffffffffffffffffff1673ffffffffffffffffffffffffffffffffffffffff168152602001908152602001600020604051806040016040529081600082015481526020016001820154815250509050919050565b600060016000838152602001908152602001600020600201549050919050565b7f60b176c013bc5f6a4aaf9c1455cc3ff5e7ee54daffb41be2fd0e50b804acad4281565b7fdf8b4c520ffe197c5343c6f5aec59570151ef9a492f2c624fd45ddde6135ec4281565b6108da60016000848152602001908152602001600020600201546108d5612222565b6111a0565b610919576040517f08c379a00000000000000000000000000000000000000000000000000000000081526004016109109061327b565b60405180910390fd5b610923828261222a565b5050565b61092f612222565b73ffffffffffffffffffffffffffffffffffffffff168173ffffffffffffffffffffffffffffffffffffffff161461099c576040517f08c379a00000000000000000000000000000000000000000000000000000000081526004016109939061335b565b60405180910390fd5b6109a682826122be565b5050565b7f238cc277b81124817de0fb6e725dfaca359442ead042cbf4fa5a5d15a441d4547fdf8b4c520ffe197c5343c6f5aec59570151ef9a492f2c624fd45ddde6135ec42811415610a7557610a006000801b336111a0565b80610a315750610a307fdf8b4c520ffe197c5343c6f5aec59570151ef9a492f2c624fd45ddde6135ec42336111a0565b5b610a70576040517f08c379a0000000000000000000000000000000000000000000000000000000008152600401610a679061325b565b60405180910390fd5b610c31565b7f238cc277b81124817de0fb6e725dfaca359442ead042cbf4fa5a5d15a441d454811415610b5057610aaa6000801b336111a0565b80610adb5750610ada7fdf8b4c520ffe197c5343c6f5aec59570151ef9a492f2c624fd45ddde6135ec42336111a0565b5b80610b0c5750610b0b7f238cc277b81124817de0fb6e725dfaca359442ead042cbf4fa5a5d15a441d454336111a0565b5b610b4b576040517f08c379a0000000000000000000000000000000000000000000000000000000008152600401610b429061325b565b60405180910390fd5b610c30565b610b5d6000801b336111a0565b80610b8e5750610b8d7fdf8b4c520ffe197c5343c6f5aec59570151ef9a492f2c624fd45ddde6135ec42336111a0565b5b80610bbf5750610bbe7f238cc277b81124817de0fb6e725dfaca359442ead042cbf4fa5a5d15a441d454336111a0565b5b80610bf05750610bef7f60b176c013bc5f6a4aaf9c1455cc3ff5e7ee54daffb41be2fd0e50b804acad42336111a0565b5b610c2f576040517f08c379a0000000000000000000000000000000000000000000000000000000008152600401610c269061325b565b60405180910390fd5b5b5b600260009054906101000a900473ffffffffffffffffffffffffffffffffffffffff1673ffffffffffffffffffffffffffffffffffffffff166356164e1e836040518263ffffffff1660e01b8152600401610c8c9190613396565b600060405180830381600087803b158015610ca657600080fd5b505af1158015610cba573d6000803e3d6000fd5b505050505050565b7fdf8b4c520ffe197c5343c6f5aec59570151ef9a492f2c624fd45ddde6135ec4280811415610d6d57610cf86000801b336111a0565b80610d295750610d287fdf8b4c520ffe197c5343c6f5aec59570151ef9a492f2c624fd45ddde6135ec42336111a0565b5b610d68576040517f08c379a0000000000000000000000000000000000000000000000000000000008152600401610d5f9061325b565b60405180910390fd5b610f29565b7f238cc277b81124817de0fb6e725dfaca359442ead042cbf4fa5a5d15a441d454811415610e4857610da26000801b336111a0565b80610dd35750610dd27fdf8b4c520ffe197c5343c6f5aec59570151ef9a492f2c624fd45ddde6135ec42336111a0565b5b80610e045750610e037f238cc277b81124817de0fb6e725dfaca359442ead042cbf4fa5a5d15a441d454336111a0565b5b610e43576040517f08c379a0000000000000000000000000000000000000000000000000000000008152600401610e3a9061325b565b60405180910390fd5b610f28565b610e556000801b336111a0565b80610e865750610e857fdf8b4c520ffe197c5343c6f5aec59570151ef9a492f2c624fd45ddde6135ec42336111a0565b5b80610eb75750610eb67f238cc277b81124817de0fb6e725dfaca359442ead042cbf4fa5a5d15a441d454336111a0565b5b80610ee85750610ee77f60b176c013bc5f6a4aaf9c1455cc3ff5e7ee54daffb41be2fd0e50b804acad42336111a0565b5b610f27576040517f08c379a0000000000000000000000000000000000000000000000000000000008152600401610f1e9061325b565b60405180910390fd5b5b5b81831080610f375750600082145b610f76576040517f08c379a0000000000000000000000000000000000000000000000000000000008152600401610f6d9061333b565b60405180910390fd5b610f8085856108b3565b604051806040016040528084815260200183815250600360008673ffffffffffffffffffffffffffffffffffffffff1673ffffffffffffffffffffffffffffffffffffffff16815260200190815260200160002060008201518160000155602082015181600101559050505050505050565b610ffa612222565b73ffffffffffffffffffffffffffffffffffffffff1660008054906101000a900473ffffffffffffffffffffffffffffffffffffffff1673ffffffffffffffffffffffffffffffffffffffff1614611087576040517f08c379a000000000000000000000000000000000000000000000000000000000815260040161107e9061331b565b60405180910390fd5b600073ffffffffffffffffffffffffffffffffffffffff1660008054906101000a900473ffffffffffffffffffffffffffffffffffffffff1673ffffffffffffffffffffffffffffffffffffffff167f8be0079c531659141344cd1fd0a4f28419497f9722a3daafe3b4186f6b6457e060405160405180910390a360008060006101000a81548173ffffffffffffffffffffffffffffffffffffffff021916908373ffffffffffffffffffffffffffffffffffffffff160217905550565b60008060009054906101000a900473ffffffffffffffffffffffffffffffffffffffff16905090565b6000611198826001600086815260200190815260200160002060000161235290919063ffffffff16565b905092915050565b60006111ca82600160008681526020019081526020016000206000016121f290919063ffffffff16565b905092915050565b6000801b81565b7f238cc277b81124817de0fb6e725dfaca359442ead042cbf4fa5a5d15a441d4547fdf8b4c520ffe197c5343c6f5aec59570151ef9a492f2c624fd45ddde6135ec428114156112a45761122f6000801b336111a0565b80611260575061125f7fdf8b4c520ffe197c5343c6f5aec59570151ef9a492f2c624fd45ddde6135ec42336111a0565b5b61129f576040517f08c379a00000000000000000000000000000000000000000000000000000000081526004016112969061325b565b60405180910390fd5b611460565b7f238cc277b81124817de0fb6e725dfaca359442ead042cbf4fa5a5d15a441d45481141561137f576112d96000801b336111a0565b8061130a57506113097fdf8b4c520ffe197c5343c6f5aec59570151ef9a492f2c624fd45ddde6135ec42336111a0565b5b8061133b575061133a7f238cc277b81124817de0fb6e725dfaca359442ead042cbf4fa5a5d15a441d454336111a0565b5b61137a576040517f08c379a00000000000000000000000000000000000000000000000000000000081526004016113719061325b565b60405180910390fd5b61145f565b61138c6000801b336111a0565b806113bd57506113bc7fdf8b4c520ffe197c5343c6f5aec59570151ef9a492f2c624fd45ddde6135ec42336111a0565b5b806113ee57506113ed7f238cc277b81124817de0fb6e725dfaca359442ead042cbf4fa5a5d15a441d454336111a0565b5b8061141f575061141e7f60b176c013bc5f6a4aaf9c1455cc3ff5e7ee54daffb41be2fd0e50b804acad42336111a0565b5b61145e576040517f08c379a00000000000000000000000000000000000000000000000000000000081526004016114559061325b565b60405180910390fd5b5b5b6114686125aa565b600360003373ffffffffffffffffffffffffffffffffffffffff1673ffffffffffffffffffffffffffffffffffffffff168152602001908152602001600020604051806040016040529081600082015481526020016001820154815250509050878160000151111561150f576040517f08c379a0000000000000000000000000000000000000000000000000000000008152600401611506906132fb565b60405180910390fd5b888160200151101580611526575060008160200151145b611565576040517f08c379a000000000000000000000000000000000000000000000000000000000815260040161155c906132db565b60405180910390fd5b600260009054906101000a900473ffffffffffffffffffffffffffffffffffffffff1673ffffffffffffffffffffffffffffffffffffffff1663ab7cc4d28b8b8b8b8b8b8b8b6040518963ffffffff1660e01b81526004016115ce9897969594939291906133da565b600060405180830381600087803b1580156115e857600080fd5b505af11580156115fc573d6000803e3d6000fd5b5050505050505050505050505050565b606061161b6000801b336111a0565b1561165d576040518060400160405280600581526020017f41444d494e00000000000000000000000000000000000000000000000000000081525090506117da565b6116877fdf8b4c520ffe197c5343c6f5aec59570151ef9a492f2c624fd45ddde6135ec42336111a0565b156116c9576040518060400160405280600581526020017f41444d494e00000000000000000000000000000000000000000000000000000081525090506117da565b6116f37f238cc277b81124817de0fb6e725dfaca359442ead042cbf4fa5a5d15a441d454336111a0565b15611735576040518060400160405280600f81526020017f555345525f57524954455f524f4c45000000000000000000000000000000000081525090506117da565b61175f7f60b176c013bc5f6a4aaf9c1455cc3ff5e7ee54daffb41be2fd0e50b804acad42336111a0565b156117a1576040518060400160405280600e81526020017f555345525f524541445f524f4c4500000000000000000000000000000000000081525090506117da565b6040518060400160405280600381526020017f4e494c000000000000000000000000000000000000000000000000000000000081525090505b90565b60006117fd6001600084815260200190815260200160002060000161236c565b9050919050565b61180c612222565b73ffffffffffffffffffffffffffffffffffffffff1660008054906101000a900473ffffffffffffffffffffffffffffffffffffffff1673ffffffffffffffffffffffffffffffffffffffff1614611899576040517f08c379a00000000000000000000000000000000000000000000000000000000081526004016118909061331b565b60405180910390fd5b600260009054906101000a900473ffffffffffffffffffffffffffffffffffffffff1673ffffffffffffffffffffffffffffffffffffffff1663cab887ab6040518163ffffffff1660e01b8152600401600060405180830381600087803b15801561190357600080fd5b505af1158015611917573d6000803e3d6000fd5b50505050565b60607f60b176c013bc5f6a4aaf9c1455cc3ff5e7ee54daffb41be2fd0e50b804acad427fdf8b4c520ffe197c5343c6f5aec59570151ef9a492f2c624fd45ddde6135ec428114156119ea576119756000801b336111a0565b806119a657506119a57fdf8b4c520ffe197c5343c6f5aec59570151ef9a492f2c624fd45ddde6135ec42336111a0565b5b6119e5576040517f08c379a00000000000000000000000000000000000000000000000000000000081526004016119dc9061325b565b60405180910390fd5b611ba6565b7f238cc277b81124817de0fb6e725dfaca359442ead042cbf4fa5a5d15a441d454811415611ac557611a1f6000801b336111a0565b80611a505750611a4f7fdf8b4c520ffe197c5343c6f5aec59570151ef9a492f2c624fd45ddde6135ec42336111a0565b5b80611a815750611a807f238cc277b81124817de0fb6e725dfaca359442ead042cbf4fa5a5d15a441d454336111a0565b5b611ac0576040517f08c379a0000000000000000000000000000000000000000000000000000000008152600401611ab79061325b565b60405180910390fd5b611ba5565b611ad26000801b336111a0565b80611b035750611b027fdf8b4c520ffe197c5343c6f5aec59570151ef9a492f2c624fd45ddde6135ec42336111a0565b5b80611b345750611b337f238cc277b81124817de0fb6e725dfaca359442ead042cbf4fa5a5d15a441d454336111a0565b5b80611b655750611b647f60b176c013bc5f6a4aaf9c1455cc3ff5e7ee54daffb41be2fd0e50b804acad42336111a0565b5b611ba4576040517f08c379a0000000000000000000000000000000000000000000000000000000008152600401611b9b9061325b565b60405180910390fd5b5b5b611bae6125aa565b600360003373ffffffffffffffffffffffffffffffffffffffff1673ffffffffffffffffffffffffffffffffffffffff168152602001908152602001600020604051806040016040529081600082015481526020016001820154815250509050600081602001518260000151011415611cce57600260009054906101000a900473ffffffffffffffffffffffffffffffffffffffff1673ffffffffffffffffffffffffffffffffffffffff1663caebb9916040518163ffffffff1660e01b815260040160006040518083038186803b158015611c8957600080fd5b505afa158015611c9d573d6000803e3d6000fd5b505050506040513d6000823e3d601f19601f82011682018060405250810190611cc691906128c3565b925050611e55565b600081602001511415611d9757600260009054906101000a900473ffffffffffffffffffffffffffffffffffffffff1673ffffffffffffffffffffffffffffffffffffffff166396cba36a82600001516040518263ffffffff1660e01b8152600401611d3a9190613396565b60006040518083038186803b158015611d5257600080fd5b505afa158015611d66573d6000803e3d6000fd5b505050506040513d6000823e3d601f19601f82011682018060405250810190611d8f91906128c3565b925050611e55565b600260009054906101000a900473ffffffffffffffffffffffffffffffffffffffff1673ffffffffffffffffffffffffffffffffffffffff16638b9265c6826000015183602001516040518363ffffffff1660e01b8152600401611dfc9291906133b1565b60006040518083038186803b158015611e1457600080fd5b505afa158015611e28573d6000803e3d6000fd5b505050506040513d6000823e3d601f19601f82011682018060405250810190611e5191906128c3565b9250505b5090565b611e806001600084815260200190815260200160002060020154611e7b612222565b6111a0565b611ebf576040517f08c379a0000000000000000000000000000000000000000000000000000000008152600401611eb6906132bb565b60405180910390fd5b611ec982826122be565b5050565b611ed5612222565b73ffffffffffffffffffffffffffffffffffffffff1660008054906101000a900473ffffffffffffffffffffffffffffffffffffffff1673ffffffffffffffffffffffffffffffffffffffff1614611f62576040517f08c379a0000000000000000000000000000000000000000000000000000000008152600401611f599061331b565b60405180910390fd5b611f6f6000801b826108b3565b611f997fdf8b4c520ffe197c5343c6f5aec59570151ef9a492f2c624fd45ddde6135ec42826108b3565b611fa66000801b33611e59565b611fd07fdf8b4c520ffe197c5343c6f5aec59570151ef9a492f2c624fd45ddde6135ec4233611e59565b611fd981612000565b50565b7f238cc277b81124817de0fb6e725dfaca359442ead042cbf4fa5a5d15a441d45481565b612008612222565b73ffffffffffffffffffffffffffffffffffffffff1660008054906101000a900473ffffffffffffffffffffffffffffffffffffffff1673ffffffffffffffffffffffffffffffffffffffff1614612095576040517f08c379a000000000000000000000000000000000000000000000000000000000815260040161208c9061331b565b60405180910390fd5b600073ffffffffffffffffffffffffffffffffffffffff168173ffffffffffffffffffffffffffffffffffffffff161415612105576040517f08c379a00000000000000000000000000000000000000000000000000000000081526004016120fc9061329b565b60405180910390fd5b8073ffffffffffffffffffffffffffffffffffffffff1660008054906101000a900473ffffffffffffffffffffffffffffffffffffffff1673ffffffffffffffffffffffffffffffffffffffff167f8be0079c531659141344cd1fd0a4f28419497f9722a3daafe3b4186f6b6457e060405160405180910390a3806000806101000a81548173ffffffffffffffffffffffffffffffffffffffff021916908373ffffffffffffffffffffffffffffffffffffffff16021790555050565b60006121ea836000018373ffffffffffffffffffffffffffffffffffffffff1660001b612381565b905092915050565b600061221a836000018373ffffffffffffffffffffffffffffffffffffffff1660001b6123f1565b905092915050565b600033905090565b61225281600160008581526020019081526020016000206000016121c290919063ffffffff16565b156122ba5761225f612222565b73ffffffffffffffffffffffffffffffffffffffff168173ffffffffffffffffffffffffffffffffffffffff16837f2f8788117e7eff1d82e926ec794901d17c78024a50270940304540a733656f0d60405160405180910390a45b5050565b6122e6816001600085815260200190815260200160002060000161241490919063ffffffff16565b1561234e576122f3612222565b73ffffffffffffffffffffffffffffffffffffffff168173ffffffffffffffffffffffffffffffffffffffff16837ff6391f5c32d9c69d2a47ea670b442974b53935d1edc7fd64eb21e047a839171b60405160405180910390a45b5050565b60006123618360000183612444565b60001c905092915050565b600061237a826000016124b1565b9050919050565b600061238d83836123f1565b6123e65782600001829080600181540180825580915050600190039060005260206000200160009091909190915055826000018054905083600101600084815260200190815260200160002081905550600190506123eb565b600090505b92915050565b600080836001016000848152602001908152602001600020541415905092915050565b600061243c836000018373ffffffffffffffffffffffffffffffffffffffff1660001b6124c2565b905092915050565b60008183600001805490501161248f576040517f08c379a00000000000000000000000000000000000000000000000000000000081526004016124869061323b565b60405180910390fd5b82600001828154811061249e57fe5b9060005260206000200154905092915050565b600081600001805490509050919050565b6000808360010160008481526020019081526020016000205490506000811461259e576000600182039050600060018660000180549050039050600086600001828154811061250d57fe5b906000526020600020015490508087600001848154811061252a57fe5b906000526020600020018190555060018301876001016000838152602001908152602001600020819055508660000180548061256257fe5b600190038181906000526020600020016000905590558660010160008781526020019081526020016000206000905560019450505050506125a4565b60009150505b92915050565b604051806040016040528060008152602001600081525090565b6000813590506125d381613600565b92915050565b600082601f8301126125ea57600080fd5b81516125fd6125f8826134a1565b613474565b9150818183526020840193506020810190508360005b8381101561264357815186016126298882612734565b845260208401935060208301925050600181019050612613565b5050505092915050565b60008135905061265c81613617565b92915050565b60008151905061267181613617565b92915050565b6000813590506126868161362e565b92915050565b600082601f83011261269d57600080fd5b81356126b06126ab826134c9565b613474565b915080825260208301602083018583830111156126cc57600080fd5b6126d78382846135ad565b50505092915050565b600082601f8301126126f157600080fd5b81516127046126ff826134c9565b613474565b9150808252602083016020830185838301111561272057600080fd5b61272b8382846135bc565b50505092915050565b6000610120828403121561274757600080fd5b612752610120613474565b9050600061276284828501612885565b600083015250602061277684828501612885565b602083015250604061278a84828501612885565b604083015250606082015167ffffffffffffffff8111156127aa57600080fd5b6127b6848285016126e0565b606083015250608082015167ffffffffffffffff8111156127d657600080fd5b6127e2848285016126e0565b60808301525060a06127f684828501612662565b60a08301525060c082015167ffffffffffffffff81111561281657600080fd5b612822848285016126e0565b60c08301525060e082015167ffffffffffffffff81111561284257600080fd5b61284e848285016126e0565b60e08301525061010061286384828501612885565b6101008301525092915050565b60008135905061287f81613645565b92915050565b60008151905061289481613645565b92915050565b6000602082840312156128ac57600080fd5b60006128ba848285016125c4565b91505092915050565b6000602082840312156128d557600080fd5b600082015167ffffffffffffffff8111156128ef57600080fd5b6128fb848285016125d9565b91505092915050565b60006020828403121561291657600080fd5b600061292484828501612677565b91505092915050565b6000806040838503121561294057600080fd5b600061294e85828601612677565b925050602061295f858286016125c4565b9150509250929050565b6000806000806080858703121561297f57600080fd5b600061298d87828801612677565b945050602061299e878288016125c4565b93505060406129af87828801612870565b92505060606129c087828801612870565b91505092959194509250565b600080604083850312156129df57600080fd5b60006129ed85828601612677565b92505060206129fe85828601612870565b9150509250929050565b600060208284031215612a1a57600080fd5b600082015167ffffffffffffffff811115612a3457600080fd5b612a40848285016126e0565b91505092915050565b600060208284031215612a5b57600080fd5b6000612a6984828501612870565b91505092915050565b600080600080600080600080610100898b031215612a8f57600080fd5b6000612a9d8b828c01612870565b9850506020612aae8b828c01612870565b9750506040612abf8b828c01612870565b965050606089013567ffffffffffffffff811115612adc57600080fd5b612ae88b828c0161268c565b955050608089013567ffffffffffffffff811115612b0557600080fd5b612b118b828c0161268c565b94505060a0612b228b828c0161264d565b93505060c089013567ffffffffffffffff811115612b3f57600080fd5b612b4b8b828c0161268c565b92505060e089013567ffffffffffffffff811115612b6857600080fd5b612b748b828c0161268c565b9150509295985092959890939650565b6000612b90838361304e565b905092915050565b612ba18161355b565b82525050565b6000612bb282613505565b612bbc8185613528565b935083602082028501612bce856134f5565b8060005b85811015612c0a5784840389528151612beb8582612b84565b9450612bf68361351b565b925060208a01995050600181019050612bd2565b50829750879550505050505092915050565b612c258161356d565b82525050565b612c348161356d565b82525050565b612c4381613579565b82525050565b6000612c5482613510565b612c5e8185613539565b9350612c6e8185602086016135bc565b612c77816135ef565b840191505092915050565b6000612c8d82613510565b612c97818561354a565b9350612ca78185602086016135bc565b612cb0816135ef565b840191505092915050565b6000612cc860228361354a565b91507f456e756d657261626c655365743a20696e646578206f7574206f6620626f756e60008301527f64730000000000000000000000000000000000000000000000000000000000006020830152604082019050919050565b6000612d2e60138361354a565b91507f55736572206e6f7420617574686f7269736564000000000000000000000000006000830152602082019050919050565b6000612d6e602f8361354a565b91507f416363657373436f6e74726f6c3a2073656e646572206d75737420626520616e60008301527f2061646d696e20746f206772616e7400000000000000000000000000000000006020830152604082019050919050565b6000612dd460268361354a565b91507f4f776e61626c653a206e6577206f776e657220697320746865207a65726f206160008301527f64647265737300000000000000000000000000000000000000000000000000006020830152604082019050919050565b6000612e3a60308361354a565b91507f416363657373436f6e74726f6c3a2073656e646572206d75737420626520616e60008301527f2061646d696e20746f207265766f6b65000000000000000000000000000000006020830152604082019050919050565b6000612ea0601a8361354a565b91507f4c61746572207468616e207669657761626c6520706572696f640000000000006000830152602082019050919050565b6000612ee0601c8361354a565b91507f4561726c696572207468616e207669657761626c6520706572696f64000000006000830152602082019050919050565b6000612f2060208361354a565b91507f4f776e61626c653a2063616c6c6572206973206e6f7420746865206f776e65726000830152602082019050919050565b6000612f6060278361354a565b91507f5669657761626c652066726f6d206c61746572207468616e207669657761626c60008301527f6520756e74696c000000000000000000000000000000000000000000000000006020830152604082019050919050565b6000612fc6602f8361354a565b91507f416363657373436f6e74726f6c3a2063616e206f6e6c792072656e6f756e636560008301527f20726f6c657320666f722073656c6600000000000000000000000000000000006020830152604082019050919050565b6040820160008201516130356000850182613128565b5060208201516130486020850182613128565b50505050565b6000610120830160008301516130676000860182613128565b50602083015161307a6020860182613128565b50604083015161308d6040860182613128565b50606083015184820360608601526130a58282612c49565b915050608083015184820360808601526130bf8282612c49565b91505060a08301516130d460a0860182612c1c565b5060c083015184820360c08601526130ec8282612c49565b91505060e083015184820360e08601526131068282612c49565b91505061010083015161311d610100860182613128565b508091505092915050565b613131816135a3565b82525050565b613140816135a3565b82525050565b600060208201905061315b6000830184612b98565b92915050565b60006040820190506131766000830185612b98565b6131836020830184613137565b9392505050565b600060608201905061319f6000830186612b98565b6131ac6020830185613137565b6131b96040830184613137565b949350505050565b600060208201905081810360008301526131db8184612ba7565b905092915050565b60006020820190506131f86000830184612c2b565b92915050565b60006020820190506132136000830184612c3a565b92915050565b600060208201905081810360008301526132338184612c82565b905092915050565b6000602082019050818103600083015261325481612cbb565b9050919050565b6000602082019050818103600083015261327481612d21565b9050919050565b6000602082019050818103600083015261329481612d61565b9050919050565b600060208201905081810360008301526132b481612dc7565b9050919050565b600060208201905081810360008301526132d481612e2d565b9050919050565b600060208201905081810360008301526132f481612e93565b9050919050565b6000602082019050818103600083015261331481612ed3565b9050919050565b6000602082019050818103600083015261333481612f13565b9050919050565b6000602082019050818103600083015261335481612f53565b9050919050565b6000602082019050818103600083015261337481612fb9565b9050919050565b6000604082019050613390600083018461301f565b92915050565b60006020820190506133ab6000830184613137565b92915050565b60006040820190506133c66000830185613137565b6133d36020830184613137565b9392505050565b6000610100820190506133f0600083018b613137565b6133fd602083018a613137565b61340a6040830189613137565b818103606083015261341c8188612c82565b905081810360808301526134308187612c82565b905061343f60a0830186612c2b565b81810360c08301526134518185612c82565b905081810360e08301526134658184612c82565b90509998505050505050505050565b6000604051905081810181811067ffffffffffffffff8211171561349757600080fd5b8060405250919050565b600067ffffffffffffffff8211156134b857600080fd5b602082029050602081019050919050565b600067ffffffffffffffff8211156134e057600080fd5b601f19601f8301169050602081019050919050565b6000819050602082019050919050565b600081519050919050565b600081519050919050565b6000602082019050919050565b600082825260208201905092915050565b600082825260208201905092915050565b600082825260208201905092915050565b600061356682613583565b9050919050565b60008115159050919050565b6000819050919050565b600073ffffffffffffffffffffffffffffffffffffffff82169050919050565b6000819050919050565b82818337600083830152505050565b60005b838110156135da5780820151818401526020810190506135bf565b838111156135e9576000848401525b50505050565b6000601f19601f8301169050919050565b6136098161355b565b811461361457600080fd5b50565b6136208161356d565b811461362b57600080fd5b50565b61363781613579565b811461364257600080fd5b50565b61364e816135a3565b811461365957600080fd5b5056fea2646970667358221220104906842cd25b873586bc617d8b335fa72113ea7c781e7776ca51e4c9cb304764736f6c634300060c0033",
  "immutableReferences": {},
  "source": "// SPDX-License-Identifier: MIT\npragma solidity ^0.6.0;\npragma experimental ABIEncoderV2;\n\nimport \"@openzeppelin/contracts/access/AccessControl.sol\";\nimport \"@openzeppelin/contracts/access/Ownable.sol\";\nimport \"./CalStore.sol\";\nimport \"./VEventLibrary.sol\";\n\n/// @title Forget-me-block: Ethereum Calendar Authentication\n/// @author PreciousChicken\n/// @notice preciouschicken.com/blog/posts/forget-me-block-eth-cal/\ncontract CalAuth is Ownable, AccessControl {\n    using VEventLibrary for VEventLibrary.VEvent;\n\n    bytes32 public constant USER_READ_ROLE = keccak256(\"USER_READ_ROLE\");\n    bytes32 public constant USER_WRITE_ROLE = keccak256(\"USER_WRITE_ROLE\");\n    bytes32 public constant ADMIN = keccak256(\"ADMIN\");\n    CalStore private calStore;\n\n    struct AccessWindow {\n        uint validFrom;\n        uint expiresBy;\n    }\n    \n    mapping(address => AccessWindow) private accessList;\n\n    constructor(address _addr) public {\n        _setupRole(DEFAULT_ADMIN_ROLE, msg.sender);\n        _setRoleAdmin(USER_READ_ROLE, ADMIN);\n        _setRoleAdmin(USER_WRITE_ROLE, ADMIN);\n        grantRole(ADMIN, msg.sender);\n        calStore = CalStore(_addr);\n    }\n\n    modifier onlyRole(bytes32 _role) {\n        if (_role == ADMIN) {\n            require(\n                hasRole(DEFAULT_ADMIN_ROLE, msg.sender) ||\n                hasRole(ADMIN, msg.sender),\n                \"User not authorised\");\n        } else if (_role == USER_WRITE_ROLE) {\n            require(\n                hasRole(DEFAULT_ADMIN_ROLE, msg.sender) ||\n                hasRole(ADMIN, msg.sender) ||\n                hasRole(USER_WRITE_ROLE, msg.sender),\n                \"User not authorised\");\n        } else {\n            require(\n                hasRole(DEFAULT_ADMIN_ROLE, msg.sender) ||\n                hasRole(ADMIN, msg.sender) ||\n                hasRole(USER_WRITE_ROLE, msg.sender) ||\n                hasRole(USER_READ_ROLE, msg.sender),\n                \"User not authorised\");\n        }\n        _;\n    }\n    \n    modifier onlyRoleIcal(address _user) {\n        require(\n            hasRole(DEFAULT_ADMIN_ROLE, _user) ||\n            hasRole(ADMIN, msg.sender) ||\n            hasRole(USER_WRITE_ROLE, _user) ||\n            hasRole(USER_READ_ROLE, _user),\n            \"User not authorised\");\n        _;\n    }\n\n    /// @notice Passes event to CalStore to store \n    /// @dev Validation performed on dates \n    /// @param _dtstamp unix timestamp RFC5545 definition \n    /// @param _dtstart unix timestamp RFC5545 definition \n    /// @param _dtend unix timestamp RFC5545 definition \n    /// @param _summary unix timestamp RFC5545 definition \n    /// @param _description unix timestamp RFC5545 definition \n    /// @param _isallday boolean for all day event \n    /// @param _alldaystartdate string of start date for all-day e.g. 19971102\n    /// @param _alldayenddate string of end date for all-day e.g. 19971103\n    function storeEvent(\n        uint _dtstamp,\n        uint _dtstart,\n        uint _dtend,\n        string memory _summary,\n        string memory _description,\n        bool _isallday,\n        string memory _alldaystartdate,\n        string memory _alldayenddate)\n        public onlyRole(USER_WRITE_ROLE)\n        {\n        AccessWindow memory requestWindow = accessList[msg.sender];\n        require(requestWindow.validFrom <= _dtend, \"Earlier than viewable period\");\n        require(\n            (requestWindow.expiresBy >= _dtstart) || \n            (requestWindow.expiresBy == 0), \n            \"Later than viewable period\");\n        calStore.storeEvent(\n            _dtstamp, _dtstart, _dtend,\n            _summary, _description,\n            _isallday, _alldaystartdate,\n            _alldayenddate);\n    }\n\n    /// @notice Passes event to CalStore to remove \n    /// @dev Assumes user cannot have more than one event with same dtstamp \n    /// @dev Further testing of this assumption required\n    /// @param _dtstamp unix timestamp RFC5545 definition \n    function removeEvent(uint _dtstamp) public onlyRole(USER_WRITE_ROLE) {\n        // Require not required due to onlyRole?  TODO Test this assumption.\n        // Remove when tested.\n        // require(\n        //     hasRole(DEFAULT_ADMIN_ROLE, msg.sender) ||\n        //     hasRole(USER_WRITE_ROLE, msg.sender),\n        //     \"User not authorised\");\n        calStore.removeEvent(_dtstamp);\n    }\n\n    function deleteEvents() public onlyOwner {\n        calStore.deleteEvents();\n    }\n\n    /// @notice Returnes events from CalStore as string \n    /// @dev Called by API, used in Email clients, not react-calendar\n    /// @param _user address of user, required as called by Outlook/Thunderbird \n    /// @return string user role\n    function getEventsIcal(address _user) public view onlyRoleIcal(_user) returns (\n        string memory) {\n        AccessWindow memory requestWindow = accessList[_user];\n        if ((requestWindow.validFrom + requestWindow.expiresBy) == 0) {\n            return calStore.getEventsIcal(address(this));\n        } else if (requestWindow.expiresBy == 0) {\n            return calStore.getEventsIcal(address(this), requestWindow.validFrom);\n        } else {\n            return calStore.getEventsIcal(address(this), requestWindow.validFrom, requestWindow.expiresBy);\n        }\n    }\n\n\n    /// @notice Returnes events from CalStore as object\n    /// @dev Called by web react-calendar\n    /// @return VEventLibrary.VEvent[] array of events\n    function getEventsObj() public view onlyRole(USER_READ_ROLE) returns (\n        VEventLibrary.VEvent[] memory) {\n            AccessWindow memory requestWindow = accessList[msg.sender];\n            if ((requestWindow.validFrom + requestWindow.expiresBy) == 0) {\n                return calStore.getEventsObj();\n            } else if (requestWindow.expiresBy == 0) {\n                return calStore.getEventsObj(requestWindow.validFrom);\n            } else {\n                return calStore.getEventsObj(\n                    requestWindow.validFrom, \n                    requestWindow.expiresBy);\n            }\n    }\n\n    /// @notice Returns role of msg.sender\n    /// @dev Returns in hierarchial order, e.g. ADMIN more important than READ etc\n    /// @return string user role\n    function getUserRole() public view returns (string memory) {\n        if (hasRole(DEFAULT_ADMIN_ROLE, msg.sender)) {\n            return \"ADMIN\";\n        } else if (hasRole(ADMIN, msg.sender)) {\n            return \"ADMIN\";\n        } else if (hasRole(USER_WRITE_ROLE, msg.sender)) {\n            return \"USER_WRITE_ROLE\";\n        } else if (hasRole(USER_READ_ROLE, msg.sender)) {\n            return \"USER_READ_ROLE\";\n        }\n        return \"NIL\";\n    }\n\n    /// @notice Grants access to role \n    /// @dev Validation performed on dates \n    /// @param _role role to be granted \n    /// @param _userAddress address for new role\n    /// @param _validFrom unix date\n    /// @param _expiresBy unix date\n    function grantRoleAccess(\n        bytes32 _role, \n        address _userAddress, \n        uint _validFrom, \n        uint _expiresBy) \n        public onlyRole(ADMIN) {\n            require((_validFrom < _expiresBy) ||\n                    (_expiresBy == 0), \n            \"Viewable from later than viewable until\");\n            grantRole(_role, _userAddress);\n            accessList[_userAddress] = AccessWindow(_validFrom, _expiresBy);\n    }\n\n    /// @notice Shows viewable dates for selected user \n    /// @dev Dates are viewFrom and expiresBy\n    /// @param _userAddress selected user\n    /// @return AccessWindow viewable date struct\n    function getAccessWindow(address _userAddress) \n    view\n    public \n    returns (AccessWindow memory) {\n\treturn accessList[_userAddress];\n    }\n\n    /// @notice Transfers CalAuth ownership and access management \n    /// @dev current owner is revoked ownership and admin\n    /// @param _newOwner address of new owner\n    function transferCalAuth(address _newOwner) public onlyOwner {\n        grantRole(DEFAULT_ADMIN_ROLE, _newOwner);\n        grantRole(ADMIN, _newOwner);\n        revokeRole(DEFAULT_ADMIN_ROLE, msg.sender);\n        revokeRole(ADMIN, msg.sender);\n        transferOwnership(_newOwner);\n    }\n\n}\n\n",
  "sourcePath": "/home/gene/Programming/Websites/Precious_Chicken_Website/blog_code_demos/forget-me-block-eth-cal-auth/contracts/CalAuth.sol",
  "compiler": {
    "name": "solc",
    "version": "0.6.12+commit.27d51765.Emscripten.clang"
  },
  "schemaVersion": "3.2.3",
  "updatedAt": "2020-10-06T18:33:52.021Z",
  "networkType": "ethereum",
  "devdoc": {
    "author": "PreciousChicken",
    "kind": "dev",
    "methods": {
      "getAccessWindow(address)": {
        "details": "Dates are viewFrom and expiresBy",
        "params": {
          "_userAddress": "selected user"
        },
        "returns": {
          "_0": "AccessWindow viewable date struct"
        }
      },
      "getEventsIcal(address)": {
        "details": "Called by API, used in Email clients, not react-calendar",
        "params": {
          "_user": "address of user, required as called by Outlook/Thunderbird "
        },
        "returns": {
          "_0": "string user role"
        }
      },
      "getEventsObj()": {
        "details": "Called by web react-calendar",
        "returns": {
          "_0": "VEventLibrary.VEvent[] array of events"
        }
      },
      "getRoleAdmin(bytes32)": {
        "details": "Returns the admin role that controls `role`. See {grantRole} and {revokeRole}. To change a role's admin, use {_setRoleAdmin}."
      },
      "getRoleMember(bytes32,uint256)": {
        "details": "Returns one of the accounts that have `role`. `index` must be a value between 0 and {getRoleMemberCount}, non-inclusive. Role bearers are not sorted in any particular way, and their ordering may change at any point. WARNING: When using {getRoleMember} and {getRoleMemberCount}, make sure you perform all queries on the same block. See the following https://forum.openzeppelin.com/t/iterating-over-elements-on-enumerableset-in-openzeppelin-contracts/2296[forum post] for more information."
      },
      "getRoleMemberCount(bytes32)": {
        "details": "Returns the number of accounts that have `role`. Can be used together with {getRoleMember} to enumerate all bearers of a role."
      },
      "getUserRole()": {
        "details": "Returns in hierarchial order, e.g. ADMIN more important than READ etc",
        "returns": {
          "_0": "string user role"
        }
      },
      "grantRole(bytes32,address)": {
        "details": "Grants `role` to `account`. If `account` had not been already granted `role`, emits a {RoleGranted} event. Requirements: - the caller must have ``role``'s admin role."
      },
      "grantRoleAccess(bytes32,address,uint256,uint256)": {
        "details": "Validation performed on dates ",
        "params": {
          "_expiresBy": "unix date",
          "_role": "role to be granted ",
          "_userAddress": "address for new role",
          "_validFrom": "unix date"
        }
      },
      "hasRole(bytes32,address)": {
        "details": "Returns `true` if `account` has been granted `role`."
      },
      "owner()": {
        "details": "Returns the address of the current owner."
      },
      "removeEvent(uint256)": {
        "details": "Assumes user cannot have more than one event with same dtstamp Further testing of this assumption required",
        "params": {
          "_dtstamp": "unix timestamp RFC5545 definition "
        }
      },
      "renounceOwnership()": {
        "details": "Leaves the contract without owner. It will not be possible to call `onlyOwner` functions anymore. Can only be called by the current owner. NOTE: Renouncing ownership will leave the contract without an owner, thereby removing any functionality that is only available to the owner."
      },
      "renounceRole(bytes32,address)": {
        "details": "Revokes `role` from the calling account. Roles are often managed via {grantRole} and {revokeRole}: this function's purpose is to provide a mechanism for accounts to lose their privileges if they are compromised (such as when a trusted device is misplaced). If the calling account had been granted `role`, emits a {RoleRevoked} event. Requirements: - the caller must be `account`."
      },
      "revokeRole(bytes32,address)": {
        "details": "Revokes `role` from `account`. If `account` had been granted `role`, emits a {RoleRevoked} event. Requirements: - the caller must have ``role``'s admin role."
      },
      "storeEvent(uint256,uint256,uint256,string,string,bool,string,string)": {
        "details": "Validation performed on dates ",
        "params": {
          "_alldayenddate": "string of end date for all-day e.g. 19971103",
          "_alldaystartdate": "string of start date for all-day e.g. 19971102",
          "_description": "unix timestamp RFC5545 definition ",
          "_dtend": "unix timestamp RFC5545 definition ",
          "_dtstamp": "unix timestamp RFC5545 definition ",
          "_dtstart": "unix timestamp RFC5545 definition ",
          "_isallday": "boolean for all day event ",
          "_summary": "unix timestamp RFC5545 definition "
        }
      },
      "transferCalAuth(address)": {
        "details": "current owner is revoked ownership and admin",
        "params": {
          "_newOwner": "address of new owner"
        }
      },
      "transferOwnership(address)": {
        "details": "Transfers ownership of the contract to a new account (`newOwner`). Can only be called by the current owner."
      }
    },
    "title": "Forget-me-block: Ethereum Calendar Authentication",
    "version": 1
  },
  "userdoc": {
    "kind": "user",
    "methods": {
      "getAccessWindow(address)": {
        "notice": "Shows viewable dates for selected user "
      },
      "getEventsIcal(address)": {
        "notice": "Returnes events from CalStore as string "
      },
      "getEventsObj()": {
        "notice": "Returnes events from CalStore as object"
      },
      "getUserRole()": {
        "notice": "Returns role of msg.sender"
      },
      "grantRoleAccess(bytes32,address,uint256,uint256)": {
        "notice": "Grants access to role "
      },
      "removeEvent(uint256)": {
        "notice": "Passes event to CalStore to remove "
      },
      "storeEvent(uint256,uint256,uint256,string,string,bool,string,string)": {
        "notice": "Passes event to CalStore to store "
      },
      "transferCalAuth(address)": {
        "notice": "Transfers CalAuth ownership and access management "
      }
    },
    "notice": "preciouschicken.com/blog/posts/forget-me-block-eth-cal/",
    "version": 1
  }
}