{
  "contractName": "CalAuth",
  "abi": [
    {
      "inputs": [
        {
          "internalType": "address",
          "name": "_addr",
          "type": "address"
        }
      ],
      "stateMutability": "nonpayable",
      "type": "constructor"
    },
    {
      "anonymous": false,
      "inputs": [
        {
          "indexed": true,
          "internalType": "address",
          "name": "previousOwner",
          "type": "address"
        },
        {
          "indexed": true,
          "internalType": "address",
          "name": "newOwner",
          "type": "address"
        }
      ],
      "name": "OwnershipTransferred",
      "type": "event"
    },
    {
      "anonymous": false,
      "inputs": [
        {
          "indexed": true,
          "internalType": "bytes32",
          "name": "role",
          "type": "bytes32"
        },
        {
          "indexed": true,
          "internalType": "bytes32",
          "name": "previousAdminRole",
          "type": "bytes32"
        },
        {
          "indexed": true,
          "internalType": "bytes32",
          "name": "newAdminRole",
          "type": "bytes32"
        }
      ],
      "name": "RoleAdminChanged",
      "type": "event"
    },
    {
      "anonymous": false,
      "inputs": [
        {
          "indexed": true,
          "internalType": "bytes32",
          "name": "role",
          "type": "bytes32"
        },
        {
          "indexed": true,
          "internalType": "address",
          "name": "account",
          "type": "address"
        },
        {
          "indexed": true,
          "internalType": "address",
          "name": "sender",
          "type": "address"
        }
      ],
      "name": "RoleGranted",
      "type": "event"
    },
    {
      "anonymous": false,
      "inputs": [
        {
          "indexed": true,
          "internalType": "bytes32",
          "name": "role",
          "type": "bytes32"
        },
        {
          "indexed": true,
          "internalType": "address",
          "name": "account",
          "type": "address"
        },
        {
          "indexed": true,
          "internalType": "address",
          "name": "sender",
          "type": "address"
        }
      ],
      "name": "RoleRevoked",
      "type": "event"
    },
    {
      "inputs": [],
      "name": "DEFAULT_ADMIN_ROLE",
      "outputs": [
        {
          "internalType": "bytes32",
          "name": "",
          "type": "bytes32"
        }
      ],
      "stateMutability": "view",
      "type": "function",
      "constant": true
    },
    {
      "inputs": [],
      "name": "USER_READ_ROLE",
      "outputs": [
        {
          "internalType": "bytes32",
          "name": "",
          "type": "bytes32"
        }
      ],
      "stateMutability": "view",
      "type": "function",
      "constant": true
    },
    {
      "inputs": [],
      "name": "USER_WRITE_ROLE",
      "outputs": [
        {
          "internalType": "bytes32",
          "name": "",
          "type": "bytes32"
        }
      ],
      "stateMutability": "view",
      "type": "function",
      "constant": true
    },
    {
      "inputs": [
        {
          "internalType": "bytes32",
          "name": "role",
          "type": "bytes32"
        }
      ],
      "name": "getRoleAdmin",
      "outputs": [
        {
          "internalType": "bytes32",
          "name": "",
          "type": "bytes32"
        }
      ],
      "stateMutability": "view",
      "type": "function",
      "constant": true
    },
    {
      "inputs": [
        {
          "internalType": "bytes32",
          "name": "role",
          "type": "bytes32"
        },
        {
          "internalType": "uint256",
          "name": "index",
          "type": "uint256"
        }
      ],
      "name": "getRoleMember",
      "outputs": [
        {
          "internalType": "address",
          "name": "",
          "type": "address"
        }
      ],
      "stateMutability": "view",
      "type": "function",
      "constant": true
    },
    {
      "inputs": [
        {
          "internalType": "bytes32",
          "name": "role",
          "type": "bytes32"
        }
      ],
      "name": "getRoleMemberCount",
      "outputs": [
        {
          "internalType": "uint256",
          "name": "",
          "type": "uint256"
        }
      ],
      "stateMutability": "view",
      "type": "function",
      "constant": true
    },
    {
      "inputs": [
        {
          "internalType": "bytes32",
          "name": "role",
          "type": "bytes32"
        },
        {
          "internalType": "address",
          "name": "account",
          "type": "address"
        }
      ],
      "name": "grantRole",
      "outputs": [],
      "stateMutability": "nonpayable",
      "type": "function"
    },
    {
      "inputs": [
        {
          "internalType": "bytes32",
          "name": "role",
          "type": "bytes32"
        },
        {
          "internalType": "address",
          "name": "account",
          "type": "address"
        }
      ],
      "name": "hasRole",
      "outputs": [
        {
          "internalType": "bool",
          "name": "",
          "type": "bool"
        }
      ],
      "stateMutability": "view",
      "type": "function",
      "constant": true
    },
    {
      "inputs": [],
      "name": "owner",
      "outputs": [
        {
          "internalType": "address",
          "name": "",
          "type": "address"
        }
      ],
      "stateMutability": "view",
      "type": "function",
      "constant": true
    },
    {
      "inputs": [],
      "name": "renounceOwnership",
      "outputs": [],
      "stateMutability": "nonpayable",
      "type": "function"
    },
    {
      "inputs": [
        {
          "internalType": "bytes32",
          "name": "role",
          "type": "bytes32"
        },
        {
          "internalType": "address",
          "name": "account",
          "type": "address"
        }
      ],
      "name": "renounceRole",
      "outputs": [],
      "stateMutability": "nonpayable",
      "type": "function"
    },
    {
      "inputs": [
        {
          "internalType": "bytes32",
          "name": "role",
          "type": "bytes32"
        },
        {
          "internalType": "address",
          "name": "account",
          "type": "address"
        }
      ],
      "name": "revokeRole",
      "outputs": [],
      "stateMutability": "nonpayable",
      "type": "function"
    },
    {
      "inputs": [
        {
          "internalType": "address",
          "name": "newOwner",
          "type": "address"
        }
      ],
      "name": "transferOwnership",
      "outputs": [],
      "stateMutability": "nonpayable",
      "type": "function"
    },
    {
      "inputs": [
        {
          "internalType": "uint256",
          "name": "_dtstamp",
          "type": "uint256"
        },
        {
          "internalType": "uint256",
          "name": "_dtstart",
          "type": "uint256"
        },
        {
          "internalType": "uint256",
          "name": "_dtend",
          "type": "uint256"
        },
        {
          "internalType": "string",
          "name": "_summary",
          "type": "string"
        },
        {
          "internalType": "string",
          "name": "_description",
          "type": "string"
        },
        {
          "internalType": "bool",
          "name": "_isallday",
          "type": "bool"
        },
        {
          "internalType": "string",
          "name": "_alldaystartdate",
          "type": "string"
        },
        {
          "internalType": "string",
          "name": "_alldayenddate",
          "type": "string"
        }
      ],
      "name": "storeEvent",
      "outputs": [],
      "stateMutability": "nonpayable",
      "type": "function"
    },
    {
      "inputs": [
        {
          "internalType": "uint256",
          "name": "_dtstamp",
          "type": "uint256"
        }
      ],
      "name": "removeEvent",
      "outputs": [],
      "stateMutability": "nonpayable",
      "type": "function"
    },
    {
      "inputs": [
        {
          "internalType": "address",
          "name": "_user",
          "type": "address"
        }
      ],
      "name": "getEventsIcal",
      "outputs": [
        {
          "internalType": "string",
          "name": "",
          "type": "string"
        }
      ],
      "stateMutability": "view",
      "type": "function",
      "constant": true
    },
    {
      "inputs": [],
      "name": "getEventsObj",
      "outputs": [
        {
          "components": [
            {
              "internalType": "uint256",
              "name": "dtstamp",
              "type": "uint256"
            },
            {
              "internalType": "uint256",
              "name": "dtstart",
              "type": "uint256"
            },
            {
              "internalType": "uint256",
              "name": "dtend",
              "type": "uint256"
            },
            {
              "internalType": "string",
              "name": "summary",
              "type": "string"
            },
            {
              "internalType": "string",
              "name": "description",
              "type": "string"
            },
            {
              "internalType": "bool",
              "name": "isallday",
              "type": "bool"
            },
            {
              "internalType": "string",
              "name": "alldaystartdate",
              "type": "string"
            },
            {
              "internalType": "string",
              "name": "alldayenddate",
              "type": "string"
            },
            {
              "internalType": "uint256",
              "name": "uid",
              "type": "uint256"
            }
          ],
          "internalType": "struct VEventLibrary.VEvent[]",
          "name": "",
          "type": "tuple[]"
        }
      ],
      "stateMutability": "view",
      "type": "function",
      "constant": true
    },
    {
      "inputs": [],
      "name": "getUserRole",
      "outputs": [
        {
          "internalType": "string",
          "name": "",
          "type": "string"
        }
      ],
      "stateMutability": "view",
      "type": "function",
      "constant": true
    },
    {
      "inputs": [
        {
          "internalType": "address",
          "name": "userAddress",
          "type": "address"
        }
      ],
      "name": "addRead",
      "outputs": [],
      "stateMutability": "nonpayable",
      "type": "function"
    },
    {
      "inputs": [
        {
          "internalType": "address",
          "name": "userAddress",
          "type": "address"
        }
      ],
      "name": "addWrite",
      "outputs": [],
      "stateMutability": "nonpayable",
      "type": "function"
    },
    {
      "inputs": [
        {
          "internalType": "address",
          "name": "userAddress",
          "type": "address"
        }
      ],
      "name": "revokeRead",
      "outputs": [],
      "stateMutability": "nonpayable",
      "type": "function"
    },
    {
      "inputs": [
        {
          "internalType": "address",
          "name": "userAddress",
          "type": "address"
        }
      ],
      "name": "revokeWrite",
      "outputs": [],
      "stateMutability": "nonpayable",
      "type": "function"
    },
    {
      "inputs": [],
      "name": "userReadWelcomeString",
      "outputs": [
        {
          "internalType": "string",
          "name": "",
          "type": "string"
        }
      ],
      "stateMutability": "view",
      "type": "function",
      "constant": true
    },
    {
      "inputs": [],
      "name": "ownerWelcomeString",
      "outputs": [
        {
          "internalType": "string",
          "name": "",
          "type": "string"
        }
      ],
      "stateMutability": "view",
      "type": "function",
      "constant": true
    },
    {
      "inputs": [],
      "name": "justSayHiCalAuth",
      "outputs": [
        {
          "internalType": "string",
          "name": "",
          "type": "string"
        }
      ],
      "stateMutability": "pure",
      "type": "function",
      "constant": true
    },
    {
      "inputs": [],
      "name": "authHi",
      "outputs": [
        {
          "internalType": "string",
          "name": "",
          "type": "string"
        }
      ],
      "stateMutability": "pure",
      "type": "function",
      "constant": true
    }
  ],
  "bytecode": "0x60806040523480156200001157600080fd5b5060405162002f8438038062002f848339818101604052810190620000379190620002f2565b6000620000496200014460201b60201c565b9050806000806101000a81548173ffffffffffffffffffffffffffffffffffffffff021916908373ffffffffffffffffffffffffffffffffffffffff1602179055508073ffffffffffffffffffffffffffffffffffffffff16600073ffffffffffffffffffffffffffffffffffffffff167f8be0079c531659141344cd1fd0a4f28419497f9722a3daafe3b4186f6b6457e060405160405180910390a350620000fc6000801b336200014c60201b60201c565b80600260006101000a81548173ffffffffffffffffffffffffffffffffffffffff021916908373ffffffffffffffffffffffffffffffffffffffff160217905550506200036c565b600033905090565b6200015e82826200016260201b60201c565b5050565b6200019181600160008581526020019081526020016000206000016200020660201b6200196e1790919060201c565b156200020257620001a76200014460201b60201c565b73ffffffffffffffffffffffffffffffffffffffff168173ffffffffffffffffffffffffffffffffffffffff16837f2f8788117e7eff1d82e926ec794901d17c78024a50270940304540a733656f0d60405160405180910390a45b5050565b600062000236836000018373ffffffffffffffffffffffffffffffffffffffff1660001b6200023e60201b60201c565b905092915050565b6000620002528383620002b860201b60201c565b620002ad578260000182908060018154018082558091505060019003906000526020600020016000909190919091505582600001805490508360010160008481526020019081526020016000208190555060019050620002b2565b600090505b92915050565b600080836001016000848152602001908152602001600020541415905092915050565b600081519050620002ec8162000352565b92915050565b6000602082840312156200030557600080fd5b60006200031584828501620002db565b91505092915050565b60006200032b8262000332565b9050919050565b600073ffffffffffffffffffffffffffffffffffffffff82169050919050565b6200035d816200031e565b81146200036957600080fd5b50565b612c08806200037c6000396000f3fe608060405234801561001057600080fd5b506004361061018e5760003560e01c80638da5cb5b116100de578063bf04a10d11610097578063d547741f11610071578063d547741f1461045d578063ee1bf5db14610479578063f2fde38b14610497578063fd4a74a1146104b35761018e565b8063bf04a10d146103f1578063ca15c8731461040f578063caebb9911461043f5761018e565b80638da5cb5b1461031b5780639010d07c1461033957806391d1485414610369578063a217fddf14610399578063ab7cc4d2146103b7578063aef956e9146103d35761018e565b806336568abe1161014b578063607360d311610125578063607360d3146102bb5780636bf7e0bb146102d7578063715018a6146102f3578063869cd0c1146102fd5761018e565b806336568abe14610265578063553bae641461028157806356164e1e1461029f5761018e565b806310d00a67146101935780631d5ad45b146101c35780631f79ec09146101df578063248a9ca3146101fb578063283e84421461022b5780632f2ff15d14610249575b600080fd5b6101ad60048036038101906101a8919061202c565b6104d1565b6040516101ba9190612813565b60405180910390f35b6101dd60048036038101906101d8919061202c565b61062f565b005b6101f960048036038101906101f4919061202c565b6106f1565b005b61021560048036038101906102109190612096565b6107b3565b60405161022291906127f8565b60405180910390f35b6102336107d3565b60405161024091906127f8565b60405180910390f35b610263600480360381019061025e91906120bf565b6107f7565b005b61027f600480360381019061027a91906120bf565b61086b565b005b6102896108ee565b6040516102969190612813565b60405180910390f35b6102b960048036038101906102b49190612178565b61092b565b005b6102d560048036038101906102d0919061202c565b610b93565b005b6102f160048036038101906102ec919061202c565b610c55565b005b6102fb610d17565b005b610305610e6a565b6040516103129190612813565b60405180910390f35b610323610f3c565b60405161033091906127a0565b60405180910390f35b610353600480360381019061034e91906120fb565b610f65565b60405161036091906127a0565b60405180910390f35b610383600480360381019061037e91906120bf565b610f97565b60405161039091906127dd565b60405180910390f35b6103a1610fc9565b6040516103ae91906127f8565b60405180910390f35b6103d160048036038101906103cc91906121a1565b610fd0565b005b6103db6111d0565b6040516103e89190612813565b60405180910390f35b6103f961120d565b6040516104069190612813565b60405180910390f35b61042960048036038101906104249190612096565b611372565b6040516104369190612935565b60405180910390f35b610447611399565b60405161045491906127bb565b60405180910390f35b610477600480360381019061047291906120bf565b61166e565b005b6104816116e2565b60405161048e91906127f8565b60405180910390f35b6104b160048036038101906104ac919061202c565b611706565b005b6104bb6118c8565b6040516104c89190612813565b60405180910390f35b6060816104e16000801b82610f97565b8061051257506105117f238cc277b81124817de0fb6e725dfaca359442ead042cbf4fa5a5d15a441d45482610f97565b5b8061054357506105427f60b176c013bc5f6a4aaf9c1455cc3ff5e7ee54daffb41be2fd0e50b804acad4282610f97565b5b610582576040517f08c379a000000000000000000000000000000000000000000000000000000000815260040161057990612855565b60405180910390fd5b600260009054906101000a900473ffffffffffffffffffffffffffffffffffffffff1673ffffffffffffffffffffffffffffffffffffffff16635c91e17e6040518163ffffffff1660e01b815260040160006040518083038186803b1580156105ea57600080fd5b505afa1580156105fe573d6000803e3d6000fd5b505050506040513d6000823e3d601f19601f820116820180604052508101906106279190612137565b915050919050565b61063761199e565b73ffffffffffffffffffffffffffffffffffffffff1660008054906101000a900473ffffffffffffffffffffffffffffffffffffffff1673ffffffffffffffffffffffffffffffffffffffff16146106c4576040517f08c379a00000000000000000000000000000000000000000000000000000000081526004016106bb906128d5565b60405180910390fd5b6106ee7f60b176c013bc5f6a4aaf9c1455cc3ff5e7ee54daffb41be2fd0e50b804acad42826107f7565b50565b6106f961199e565b73ffffffffffffffffffffffffffffffffffffffff1660008054906101000a900473ffffffffffffffffffffffffffffffffffffffff1673ffffffffffffffffffffffffffffffffffffffff1614610786576040517f08c379a000000000000000000000000000000000000000000000000000000000815260040161077d906128d5565b60405180910390fd5b6107b07f238cc277b81124817de0fb6e725dfaca359442ead042cbf4fa5a5d15a441d4548261166e565b50565b600060016000838152602001908152602001600020600201549050919050565b7f60b176c013bc5f6a4aaf9c1455cc3ff5e7ee54daffb41be2fd0e50b804acad4281565b61081e600160008481526020019081526020016000206002015461081961199e565b610f97565b61085d576040517f08c379a000000000000000000000000000000000000000000000000000000000815260040161085490612875565b60405180910390fd5b61086782826119a6565b5050565b61087361199e565b73ffffffffffffffffffffffffffffffffffffffff168173ffffffffffffffffffffffffffffffffffffffff16146108e0576040517f08c379a00000000000000000000000000000000000000000000000000000000081526004016108d790612915565b60405180910390fd5b6108ea8282611a3a565b5050565b60606040518060400160405280600f81526020017f48692066726f6d2043616c417574680000000000000000000000000000000000815250905090565b7f238cc277b81124817de0fb6e725dfaca359442ead042cbf4fa5a5d15a441d454808114156109d6576109616000801b33610f97565b8061099257506109917f238cc277b81124817de0fb6e725dfaca359442ead042cbf4fa5a5d15a441d45433610f97565b5b6109d1576040517f08c379a00000000000000000000000000000000000000000000000000000000081526004016109c890612855565b60405180910390fd5b610a85565b6109e36000801b33610f97565b80610a145750610a137f238cc277b81124817de0fb6e725dfaca359442ead042cbf4fa5a5d15a441d45433610f97565b5b80610a455750610a447f60b176c013bc5f6a4aaf9c1455cc3ff5e7ee54daffb41be2fd0e50b804acad4233610f97565b5b610a84576040517f08c379a0000000000000000000000000000000000000000000000000000000008152600401610a7b90612855565b60405180910390fd5b5b610a926000801b33610f97565b80610ac35750610ac27f238cc277b81124817de0fb6e725dfaca359442ead042cbf4fa5a5d15a441d45433610f97565b5b610b02576040517f08c379a0000000000000000000000000000000000000000000000000000000008152600401610af990612855565b60405180910390fd5b600260009054906101000a900473ffffffffffffffffffffffffffffffffffffffff1673ffffffffffffffffffffffffffffffffffffffff166356164e1e836040518263ffffffff1660e01b8152600401610b5d9190612935565b600060405180830381600087803b158015610b7757600080fd5b505af1158015610b8b573d6000803e3d6000fd5b505050505050565b610b9b61199e565b73ffffffffffffffffffffffffffffffffffffffff1660008054906101000a900473ffffffffffffffffffffffffffffffffffffffff1673ffffffffffffffffffffffffffffffffffffffff1614610c28576040517f08c379a0000000000000000000000000000000000000000000000000000000008152600401610c1f906128d5565b60405180910390fd5b610c527f60b176c013bc5f6a4aaf9c1455cc3ff5e7ee54daffb41be2fd0e50b804acad428261166e565b50565b610c5d61199e565b73ffffffffffffffffffffffffffffffffffffffff1660008054906101000a900473ffffffffffffffffffffffffffffffffffffffff1673ffffffffffffffffffffffffffffffffffffffff1614610cea576040517f08c379a0000000000000000000000000000000000000000000000000000000008152600401610ce1906128d5565b60405180910390fd5b610d147f238cc277b81124817de0fb6e725dfaca359442ead042cbf4fa5a5d15a441d454826107f7565b50565b610d1f61199e565b73ffffffffffffffffffffffffffffffffffffffff1660008054906101000a900473ffffffffffffffffffffffffffffffffffffffff1673ffffffffffffffffffffffffffffffffffffffff1614610dac576040517f08c379a0000000000000000000000000000000000000000000000000000000008152600401610da3906128d5565b60405180910390fd5b600073ffffffffffffffffffffffffffffffffffffffff1660008054906101000a900473ffffffffffffffffffffffffffffffffffffffff1673ffffffffffffffffffffffffffffffffffffffff167f8be0079c531659141344cd1fd0a4f28419497f9722a3daafe3b4186f6b6457e060405160405180910390a360008060006101000a81548173ffffffffffffffffffffffffffffffffffffffff021916908373ffffffffffffffffffffffffffffffffffffffff160217905550565b6060610e7461199e565b73ffffffffffffffffffffffffffffffffffffffff1660008054906101000a900473ffffffffffffffffffffffffffffffffffffffff1673ffffffffffffffffffffffffffffffffffffffff1614610f01576040517f08c379a0000000000000000000000000000000000000000000000000000000008152600401610ef8906128d5565b60405180910390fd5b6040518060400160405280600d81526020017f57656c636f6d65206f776e657200000000000000000000000000000000000000815250905090565b60008060009054906101000a900473ffffffffffffffffffffffffffffffffffffffff16905090565b6000610f8f8260016000868152602001908152602001600020600001611ace90919063ffffffff16565b905092915050565b6000610fc18260016000868152602001908152602001600020600001611ae890919063ffffffff16565b905092915050565b6000801b81565b7f238cc277b81124817de0fb6e725dfaca359442ead042cbf4fa5a5d15a441d4548081141561107b576110066000801b33610f97565b8061103757506110367f238cc277b81124817de0fb6e725dfaca359442ead042cbf4fa5a5d15a441d45433610f97565b5b611076576040517f08c379a000000000000000000000000000000000000000000000000000000000815260040161106d90612855565b60405180910390fd5b61112a565b6110886000801b33610f97565b806110b957506110b87f238cc277b81124817de0fb6e725dfaca359442ead042cbf4fa5a5d15a441d45433610f97565b5b806110ea57506110e97f60b176c013bc5f6a4aaf9c1455cc3ff5e7ee54daffb41be2fd0e50b804acad4233610f97565b5b611129576040517f08c379a000000000000000000000000000000000000000000000000000000000815260040161112090612855565b60405180910390fd5b5b600260009054906101000a900473ffffffffffffffffffffffffffffffffffffffff1673ffffffffffffffffffffffffffffffffffffffff1663ab7cc4d28a8a8a8a8a8a8a8a6040518963ffffffff1660e01b8152600401611193989796959493929190612950565b600060405180830381600087803b1580156111ad57600080fd5b505af11580156111c1573d6000803e3d6000fd5b50505050505050505050505050565b60606040518060400160405280601a81526020017f43616c4175746820536179732048692e2020436f72726563742e000000000000815250905090565b606061121c6000801b33610f97565b1561125e576040518060400160405280600581526020017f41444d494e000000000000000000000000000000000000000000000000000000815250905061136f565b6112887f238cc277b81124817de0fb6e725dfaca359442ead042cbf4fa5a5d15a441d45433610f97565b156112ca576040518060400160405280600f81526020017f555345525f57524954455f524f4c450000000000000000000000000000000000815250905061136f565b6112f47f60b176c013bc5f6a4aaf9c1455cc3ff5e7ee54daffb41be2fd0e50b804acad4233610f97565b15611336576040518060400160405280600e81526020017f555345525f524541445f524f4c45000000000000000000000000000000000000815250905061136f565b6040518060400160405280600381526020017f4e494c000000000000000000000000000000000000000000000000000000000081525090505b90565b600061139260016000848152602001908152602001600020600001611b18565b9050919050565b60607f60b176c013bc5f6a4aaf9c1455cc3ff5e7ee54daffb41be2fd0e50b804acad427f238cc277b81124817de0fb6e725dfaca359442ead042cbf4fa5a5d15a441d454811415611466576113f16000801b33610f97565b8061142257506114217f238cc277b81124817de0fb6e725dfaca359442ead042cbf4fa5a5d15a441d45433610f97565b5b611461576040517f08c379a000000000000000000000000000000000000000000000000000000000815260040161145890612855565b60405180910390fd5b611515565b6114736000801b33610f97565b806114a457506114a37f238cc277b81124817de0fb6e725dfaca359442ead042cbf4fa5a5d15a441d45433610f97565b5b806114d557506114d47f60b176c013bc5f6a4aaf9c1455cc3ff5e7ee54daffb41be2fd0e50b804acad4233610f97565b5b611514576040517f08c379a000000000000000000000000000000000000000000000000000000000815260040161150b90612855565b60405180910390fd5b5b6115226000801b33610f97565b8061155357506115527f238cc277b81124817de0fb6e725dfaca359442ead042cbf4fa5a5d15a441d45433610f97565b5b8061158457506115837f60b176c013bc5f6a4aaf9c1455cc3ff5e7ee54daffb41be2fd0e50b804acad4233610f97565b5b6115c3576040517f08c379a00000000000000000000000000000000000000000000000000000000081526004016115ba90612855565b60405180910390fd5b600260009054906101000a900473ffffffffffffffffffffffffffffffffffffffff1673ffffffffffffffffffffffffffffffffffffffff1663caebb9916040518163ffffffff1660e01b815260040160006040518083038186803b15801561162b57600080fd5b505afa15801561163f573d6000803e3d6000fd5b505050506040513d6000823e3d601f19601f820116820180604052508101906116689190612055565b91505090565b611695600160008481526020019081526020016000206002015461169061199e565b610f97565b6116d4576040517f08c379a00000000000000000000000000000000000000000000000000000000081526004016116cb906128b5565b60405180910390fd5b6116de8282611a3a565b5050565b7f238cc277b81124817de0fb6e725dfaca359442ead042cbf4fa5a5d15a441d45481565b61170e61199e565b73ffffffffffffffffffffffffffffffffffffffff1660008054906101000a900473ffffffffffffffffffffffffffffffffffffffff1673ffffffffffffffffffffffffffffffffffffffff161461179b576040517f08c379a0000000000000000000000000000000000000000000000000000000008152600401611792906128d5565b60405180910390fd5b600073ffffffffffffffffffffffffffffffffffffffff168173ffffffffffffffffffffffffffffffffffffffff16141561180b576040517f08c379a000000000000000000000000000000000000000000000000000000000815260040161180290612895565b60405180910390fd5b8073ffffffffffffffffffffffffffffffffffffffff1660008054906101000a900473ffffffffffffffffffffffffffffffffffffffff1673ffffffffffffffffffffffffffffffffffffffff167f8be0079c531659141344cd1fd0a4f28419497f9722a3daafe3b4186f6b6457e060405160405180910390a3806000806101000a81548173ffffffffffffffffffffffffffffffffffffffff021916908373ffffffffffffffffffffffffffffffffffffffff16021790555050565b60606118f47f60b176c013bc5f6a4aaf9c1455cc3ff5e7ee54daffb41be2fd0e50b804acad4233610f97565b611933576040517f08c379a000000000000000000000000000000000000000000000000000000000815260040161192a906128f5565b60405180910390fd5b6040518060400160405280601681526020017f57656c636f6d652072656164206f6e6c79207573657200000000000000000000815250905090565b6000611996836000018373ffffffffffffffffffffffffffffffffffffffff1660001b611b2d565b905092915050565b600033905090565b6119ce816001600085815260200190815260200160002060000161196e90919063ffffffff16565b15611a36576119db61199e565b73ffffffffffffffffffffffffffffffffffffffff168173ffffffffffffffffffffffffffffffffffffffff16837f2f8788117e7eff1d82e926ec794901d17c78024a50270940304540a733656f0d60405160405180910390a45b5050565b611a628160016000858152602001908152602001600020600001611b9d90919063ffffffff16565b15611aca57611a6f61199e565b73ffffffffffffffffffffffffffffffffffffffff168173ffffffffffffffffffffffffffffffffffffffff16837ff6391f5c32d9c69d2a47ea670b442974b53935d1edc7fd64eb21e047a839171b60405160405180910390a45b5050565b6000611add8360000183611bcd565b60001c905092915050565b6000611b10836000018373ffffffffffffffffffffffffffffffffffffffff1660001b611c3a565b905092915050565b6000611b2682600001611c5d565b9050919050565b6000611b398383611c3a565b611b92578260000182908060018154018082558091505060019003906000526020600020016000909190919091505582600001805490508360010160008481526020019081526020016000208190555060019050611b97565b600090505b92915050565b6000611bc5836000018373ffffffffffffffffffffffffffffffffffffffff1660001b611c6e565b905092915050565b600081836000018054905011611c18576040517f08c379a0000000000000000000000000000000000000000000000000000000008152600401611c0f90612835565b60405180910390fd5b826000018281548110611c2757fe5b9060005260206000200154905092915050565b600080836001016000848152602001908152602001600020541415905092915050565b600081600001805490509050919050565b60008083600101600084815260200190815260200160002054905060008114611d4a5760006001820390506000600186600001805490500390506000866000018281548110611cb957fe5b9060005260206000200154905080876000018481548110611cd657fe5b9060005260206000200181905550600183018760010160008381526020019081526020016000208190555086600001805480611d0e57fe5b60019003818190600052602060002001600090559055866001016000878152602001908152602001600020600090556001945050505050611d50565b60009150505b92915050565b600081359050611d6581612b76565b92915050565b600082601f830112611d7c57600080fd5b8151611d8f611d8a82612a17565b6129ea565b9150818183526020840193506020810190508360005b83811015611dd55781518601611dbb8882611ec6565b845260208401935060208301925050600181019050611da5565b5050505092915050565b600081359050611dee81612b8d565b92915050565b600081519050611e0381612b8d565b92915050565b600081359050611e1881612ba4565b92915050565b600082601f830112611e2f57600080fd5b8135611e42611e3d82612a3f565b6129ea565b91508082526020830160208301858383011115611e5e57600080fd5b611e69838284612b23565b50505092915050565b600082601f830112611e8357600080fd5b8151611e96611e9182612a3f565b6129ea565b91508082526020830160208301858383011115611eb257600080fd5b611ebd838284612b32565b50505092915050565b60006101208284031215611ed957600080fd5b611ee46101206129ea565b90506000611ef484828501612017565b6000830152506020611f0884828501612017565b6020830152506040611f1c84828501612017565b604083015250606082015167ffffffffffffffff811115611f3c57600080fd5b611f4884828501611e72565b606083015250608082015167ffffffffffffffff811115611f6857600080fd5b611f7484828501611e72565b60808301525060a0611f8884828501611df4565b60a08301525060c082015167ffffffffffffffff811115611fa857600080fd5b611fb484828501611e72565b60c08301525060e082015167ffffffffffffffff811115611fd457600080fd5b611fe084828501611e72565b60e083015250610100611ff584828501612017565b6101008301525092915050565b60008135905061201181612bbb565b92915050565b60008151905061202681612bbb565b92915050565b60006020828403121561203e57600080fd5b600061204c84828501611d56565b91505092915050565b60006020828403121561206757600080fd5b600082015167ffffffffffffffff81111561208157600080fd5b61208d84828501611d6b565b91505092915050565b6000602082840312156120a857600080fd5b60006120b684828501611e09565b91505092915050565b600080604083850312156120d257600080fd5b60006120e085828601611e09565b92505060206120f185828601611d56565b9150509250929050565b6000806040838503121561210e57600080fd5b600061211c85828601611e09565b925050602061212d85828601612002565b9150509250929050565b60006020828403121561214957600080fd5b600082015167ffffffffffffffff81111561216357600080fd5b61216f84828501611e72565b91505092915050565b60006020828403121561218a57600080fd5b600061219884828501612002565b91505092915050565b600080600080600080600080610100898b0312156121be57600080fd5b60006121cc8b828c01612002565b98505060206121dd8b828c01612002565b97505060406121ee8b828c01612002565b965050606089013567ffffffffffffffff81111561220b57600080fd5b6122178b828c01611e1e565b955050608089013567ffffffffffffffff81111561223457600080fd5b6122408b828c01611e1e565b94505060a06122518b828c01611ddf565b93505060c089013567ffffffffffffffff81111561226e57600080fd5b61227a8b828c01611e1e565b92505060e089013567ffffffffffffffff81111561229757600080fd5b6122a38b828c01611e1e565b9150509295985092959890939650565b60006122bf83836126a8565b905092915050565b6122d081612ad1565b82525050565b60006122e182612a7b565b6122eb8185612a9e565b9350836020820285016122fd85612a6b565b8060005b85811015612339578484038952815161231a85826122b3565b945061232583612a91565b925060208a01995050600181019050612301565b50829750879550505050505092915050565b61235481612ae3565b82525050565b61236381612ae3565b82525050565b61237281612aef565b82525050565b600061238382612a86565b61238d8185612aaf565b935061239d818560208601612b32565b6123a681612b65565b840191505092915050565b60006123bc82612a86565b6123c68185612ac0565b93506123d6818560208601612b32565b6123df81612b65565b840191505092915050565b60006123f7602283612ac0565b91507f456e756d657261626c655365743a20696e646578206f7574206f6620626f756e60008301527f64730000000000000000000000000000000000000000000000000000000000006020830152604082019050919050565b600061245d601383612ac0565b91507f55736572206e6f7420617574686f7269736564000000000000000000000000006000830152602082019050919050565b600061249d602f83612ac0565b91507f416363657373436f6e74726f6c3a2073656e646572206d75737420626520616e60008301527f2061646d696e20746f206772616e7400000000000000000000000000000000006020830152604082019050919050565b6000612503602683612ac0565b91507f4f776e61626c653a206e6577206f776e657220697320746865207a65726f206160008301527f64647265737300000000000000000000000000000000000000000000000000006020830152604082019050919050565b6000612569603083612ac0565b91507f416363657373436f6e74726f6c3a2073656e646572206d75737420626520616e60008301527f2061646d696e20746f207265766f6b65000000000000000000000000000000006020830152604082019050919050565b60006125cf602083612ac0565b91507f4f776e61626c653a2063616c6c6572206973206e6f7420746865206f776e65726000830152602082019050919050565b600061260f601d83612ac0565b91507f536f72727920796f7520617265206e6f742061205245414420757365720000006000830152602082019050919050565b600061264f602f83612ac0565b91507f416363657373436f6e74726f6c3a2063616e206f6e6c792072656e6f756e636560008301527f20726f6c657320666f722073656c6600000000000000000000000000000000006020830152604082019050919050565b6000610120830160008301516126c16000860182612782565b5060208301516126d46020860182612782565b5060408301516126e76040860182612782565b50606083015184820360608601526126ff8282612378565b915050608083015184820360808601526127198282612378565b91505060a083015161272e60a086018261234b565b5060c083015184820360c08601526127468282612378565b91505060e083015184820360e08601526127608282612378565b915050610100830151612777610100860182612782565b508091505092915050565b61278b81612b19565b82525050565b61279a81612b19565b82525050565b60006020820190506127b560008301846122c7565b92915050565b600060208201905081810360008301526127d581846122d6565b905092915050565b60006020820190506127f2600083018461235a565b92915050565b600060208201905061280d6000830184612369565b92915050565b6000602082019050818103600083015261282d81846123b1565b905092915050565b6000602082019050818103600083015261284e816123ea565b9050919050565b6000602082019050818103600083015261286e81612450565b9050919050565b6000602082019050818103600083015261288e81612490565b9050919050565b600060208201905081810360008301526128ae816124f6565b9050919050565b600060208201905081810360008301526128ce8161255c565b9050919050565b600060208201905081810360008301526128ee816125c2565b9050919050565b6000602082019050818103600083015261290e81612602565b9050919050565b6000602082019050818103600083015261292e81612642565b9050919050565b600060208201905061294a6000830184612791565b92915050565b600061010082019050612966600083018b612791565b612973602083018a612791565b6129806040830189612791565b818103606083015261299281886123b1565b905081810360808301526129a681876123b1565b90506129b560a083018661235a565b81810360c08301526129c781856123b1565b905081810360e08301526129db81846123b1565b90509998505050505050505050565b6000604051905081810181811067ffffffffffffffff82111715612a0d57600080fd5b8060405250919050565b600067ffffffffffffffff821115612a2e57600080fd5b602082029050602081019050919050565b600067ffffffffffffffff821115612a5657600080fd5b601f19601f8301169050602081019050919050565b6000819050602082019050919050565b600081519050919050565b600081519050919050565b6000602082019050919050565b600082825260208201905092915050565b600082825260208201905092915050565b600082825260208201905092915050565b6000612adc82612af9565b9050919050565b60008115159050919050565b6000819050919050565b600073ffffffffffffffffffffffffffffffffffffffff82169050919050565b6000819050919050565b82818337600083830152505050565b60005b83811015612b50578082015181840152602081019050612b35565b83811115612b5f576000848401525b50505050565b6000601f19601f8301169050919050565b612b7f81612ad1565b8114612b8a57600080fd5b50565b612b9681612ae3565b8114612ba157600080fd5b50565b612bad81612aef565b8114612bb857600080fd5b50565b612bc481612b19565b8114612bcf57600080fd5b5056fea26469706673582212203c65a2f964bc42b1bf9b1cb7fe63978fe2dab11722f4ba71c2f196bf21f0266864736f6c634300060c0033",
  "immutableReferences": {},
  "source": "// SPDX-License-Identifier: MIT\npragma solidity ^0.6.0;\npragma experimental ABIEncoderV2;\n\nimport \"@openzeppelin/contracts/access/AccessControl.sol\";\nimport \"@openzeppelin/contracts/access/Ownable.sol\";\nimport \"./CalStore.sol\";\nimport \"./VEventLibrary.sol\";\n\ncontract CalAuth is Ownable, AccessControl {\n    using VEventLibrary for VEventLibrary.VEvent;\n\n    bytes32 public constant USER_READ_ROLE = keccak256(\"USER_READ_ROLE\");\n    bytes32 public constant USER_WRITE_ROLE = keccak256(\"USER_WRITE_ROLE\");\n    CalStore private calStore;\n\n    constructor(address _addr) public {\n        _setupRole(DEFAULT_ADMIN_ROLE, msg.sender);\n        calStore = CalStore(_addr);\n    }\n\n    modifier onlyRole(bytes32 _role) {\n        if (_role == USER_WRITE_ROLE) {\n            require(\n                hasRole(DEFAULT_ADMIN_ROLE, msg.sender) ||\n                hasRole(USER_WRITE_ROLE, msg.sender),\n                \"User not authorised\");\n        } else {\n            require(\n                hasRole(DEFAULT_ADMIN_ROLE, msg.sender) ||\n                hasRole(USER_WRITE_ROLE, msg.sender) ||\n                hasRole(USER_READ_ROLE, msg.sender),\n                \"User not authorised\");\n        }\n        _;\n    }\n    \n    modifier onlyRoleIcal(address _user) {\n        require(\n            hasRole(DEFAULT_ADMIN_ROLE, _user) ||\n            hasRole(USER_WRITE_ROLE, _user) ||\n            hasRole(USER_READ_ROLE, _user),\n            \"User not authorised\");\n        _;\n    }\n\n    function storeEvent(\n        uint _dtstamp,\n        uint _dtstart,\n        uint _dtend,\n        string memory _summary,\n        string memory _description,\n        bool _isallday,\n        string memory _alldaystartdate,\n        string memory _alldayenddate)\n        public onlyRole(USER_WRITE_ROLE)\n        {\n        calStore.storeEvent(\n            _dtstamp, _dtstart, _dtend,\n            _summary, _description,\n            _isallday, _alldaystartdate,\n            _alldayenddate);\n    }\n    \n    // function storeEvent(\n    //     uint _dtstamp,\n    //     uint _dtstart,\n    //     uint _dtend,\n    //     string memory _summary,\n    //     string memory _description,\n    //     bool _isallday,\n    //     string memory _alldaystartdate,\n    //     string memory _alldayenddate)\n    //     public \n    //     {\n    //     calStore.storeEvent(\n    //         _dtstamp, _dtstart, _dtend,\n    //         _summary, _description,\n    //         _isallday, _alldaystartdate,\n    //         _alldayenddate);\n    // }\n\n    function removeEvent(uint _dtstamp) public onlyRole(USER_WRITE_ROLE) {\n        require(\n            hasRole(DEFAULT_ADMIN_ROLE, msg.sender) ||\n            hasRole(USER_WRITE_ROLE, msg.sender),\n            \"User not authorised\");\n        calStore.removeEvent(_dtstamp);\n    }\n\n    function getEventsIcal(address _user) public view onlyRoleIcal(_user) returns (\n        string memory) {\n        return calStore.getEventsIcal();\n    }\n\n    function getEventsObj() public view onlyRole(USER_READ_ROLE) returns (\n        VEventLibrary.VEvent[] memory) {\n        require(\n            hasRole(DEFAULT_ADMIN_ROLE, msg.sender) ||\n            hasRole(USER_WRITE_ROLE, msg.sender) ||\n            hasRole(USER_READ_ROLE, msg.sender),\n            \"User not authorised\");\n        return calStore.getEventsObj();\n    }\n\n\n    /// @notice Returns role of msg.sender\n    /// @dev Returns in hierarchial order, e.g. ADMIN more important than READ etc\n    /// @return string user role\n    function getUserRole() public view returns (string memory) {\n        if (hasRole(DEFAULT_ADMIN_ROLE, msg.sender)) {\n            return \"ADMIN\";\n        } else if (hasRole(USER_WRITE_ROLE, msg.sender)) {\n            return \"USER_WRITE_ROLE\";\n        } else if (hasRole(USER_READ_ROLE, msg.sender)) {\n            return \"USER_READ_ROLE\";\n        }\n        return \"NIL\";\n    }\n\n    //TODO: Delete, not used\n    function addRead(address userAddress) public onlyOwner {\n        grantRole(USER_READ_ROLE, userAddress);\n    }\n\n    //TODO: Delete, not used\n    function addWrite(address userAddress) public onlyOwner {\n        grantRole(USER_WRITE_ROLE, userAddress);\n    }\n\n    //TODO: Delete, not used\n    function revokeRead(address userAddress) public onlyOwner {\n        revokeRole(USER_READ_ROLE, userAddress);\n    }\n\n    //TODO: Delete, not used\n    function revokeWrite(address userAddress) public onlyOwner {\n        revokeRole(USER_WRITE_ROLE, userAddress);\n    }\n\n    function userReadWelcomeString() public view returns (string memory) {\n        require(hasRole(USER_READ_ROLE, msg.sender), \"Sorry you are not a READ user\");\n        return \"Welcome read only user\";\n    }\n\n    function ownerWelcomeString() public onlyOwner view returns (string memory) {\n        return \"Welcome owner\";\n    }\n\n    function justSayHiCalAuth() public pure returns (string memory) {\n        return \"Hi from CalAuth\";\n    }\n    function authHi() public pure returns (string memory) {\n        return \"CalAuth Says Hi.  Correct.\";\n    }\n}\n\n",
  "sourcePath": "/home/gene/Programming/Websites/Precious_Chicken_Website/blog_code_demos/forget-me-block-eth-cal-auth/contracts/CalAuth.sol",
  "compiler": {
    "name": "solc",
    "version": "0.6.12+commit.27d51765.Emscripten.clang"
  },
  "schemaVersion": "3.2.3",
  "updatedAt": "2020-08-17T09:14:46.181Z",
  "networkType": "ethereum",
  "devdoc": {
    "kind": "dev",
    "methods": {
      "getRoleAdmin(bytes32)": {
        "details": "Returns the admin role that controls `role`. See {grantRole} and {revokeRole}. To change a role's admin, use {_setRoleAdmin}."
      },
      "getRoleMember(bytes32,uint256)": {
        "details": "Returns one of the accounts that have `role`. `index` must be a value between 0 and {getRoleMemberCount}, non-inclusive. Role bearers are not sorted in any particular way, and their ordering may change at any point. WARNING: When using {getRoleMember} and {getRoleMemberCount}, make sure you perform all queries on the same block. See the following https://forum.openzeppelin.com/t/iterating-over-elements-on-enumerableset-in-openzeppelin-contracts/2296[forum post] for more information."
      },
      "getRoleMemberCount(bytes32)": {
        "details": "Returns the number of accounts that have `role`. Can be used together with {getRoleMember} to enumerate all bearers of a role."
      },
      "getUserRole()": {
        "details": "Returns in hierarchial order, e.g. ADMIN more important than READ etc",
        "returns": {
          "_0": "string user role"
        }
      },
      "grantRole(bytes32,address)": {
        "details": "Grants `role` to `account`. If `account` had not been already granted `role`, emits a {RoleGranted} event. Requirements: - the caller must have ``role``'s admin role."
      },
      "hasRole(bytes32,address)": {
        "details": "Returns `true` if `account` has been granted `role`."
      },
      "owner()": {
        "details": "Returns the address of the current owner."
      },
      "renounceOwnership()": {
        "details": "Leaves the contract without owner. It will not be possible to call `onlyOwner` functions anymore. Can only be called by the current owner. NOTE: Renouncing ownership will leave the contract without an owner, thereby removing any functionality that is only available to the owner."
      },
      "renounceRole(bytes32,address)": {
        "details": "Revokes `role` from the calling account. Roles are often managed via {grantRole} and {revokeRole}: this function's purpose is to provide a mechanism for accounts to lose their privileges if they are compromised (such as when a trusted device is misplaced). If the calling account had been granted `role`, emits a {RoleRevoked} event. Requirements: - the caller must be `account`."
      },
      "revokeRole(bytes32,address)": {
        "details": "Revokes `role` from `account`. If `account` had been granted `role`, emits a {RoleRevoked} event. Requirements: - the caller must have ``role``'s admin role."
      },
      "transferOwnership(address)": {
        "details": "Transfers ownership of the contract to a new account (`newOwner`). Can only be called by the current owner."
      }
    },
    "version": 1
  },
  "userdoc": {
    "kind": "user",
    "methods": {
      "getUserRole()": {
        "notice": "Returns role of msg.sender"
      }
    },
    "version": 1
  }
}