{
  "contractName": "CalAuth",
  "abi": [
    {
      "inputs": [
        {
          "internalType": "address",
          "name": "_addr",
          "type": "address"
        }
      ],
      "stateMutability": "nonpayable",
      "type": "constructor"
    },
    {
      "anonymous": false,
      "inputs": [
        {
          "indexed": true,
          "internalType": "address",
          "name": "previousOwner",
          "type": "address"
        },
        {
          "indexed": true,
          "internalType": "address",
          "name": "newOwner",
          "type": "address"
        }
      ],
      "name": "OwnershipTransferred",
      "type": "event"
    },
    {
      "anonymous": false,
      "inputs": [
        {
          "indexed": true,
          "internalType": "bytes32",
          "name": "role",
          "type": "bytes32"
        },
        {
          "indexed": true,
          "internalType": "bytes32",
          "name": "previousAdminRole",
          "type": "bytes32"
        },
        {
          "indexed": true,
          "internalType": "bytes32",
          "name": "newAdminRole",
          "type": "bytes32"
        }
      ],
      "name": "RoleAdminChanged",
      "type": "event"
    },
    {
      "anonymous": false,
      "inputs": [
        {
          "indexed": true,
          "internalType": "bytes32",
          "name": "role",
          "type": "bytes32"
        },
        {
          "indexed": true,
          "internalType": "address",
          "name": "account",
          "type": "address"
        },
        {
          "indexed": true,
          "internalType": "address",
          "name": "sender",
          "type": "address"
        }
      ],
      "name": "RoleGranted",
      "type": "event"
    },
    {
      "anonymous": false,
      "inputs": [
        {
          "indexed": true,
          "internalType": "bytes32",
          "name": "role",
          "type": "bytes32"
        },
        {
          "indexed": true,
          "internalType": "address",
          "name": "account",
          "type": "address"
        },
        {
          "indexed": true,
          "internalType": "address",
          "name": "sender",
          "type": "address"
        }
      ],
      "name": "RoleRevoked",
      "type": "event"
    },
    {
      "inputs": [],
      "name": "ADMIN",
      "outputs": [
        {
          "internalType": "bytes32",
          "name": "",
          "type": "bytes32"
        }
      ],
      "stateMutability": "view",
      "type": "function",
      "constant": true
    },
    {
      "inputs": [],
      "name": "DEFAULT_ADMIN_ROLE",
      "outputs": [
        {
          "internalType": "bytes32",
          "name": "",
          "type": "bytes32"
        }
      ],
      "stateMutability": "view",
      "type": "function",
      "constant": true
    },
    {
      "inputs": [],
      "name": "USER_READ_ROLE",
      "outputs": [
        {
          "internalType": "bytes32",
          "name": "",
          "type": "bytes32"
        }
      ],
      "stateMutability": "view",
      "type": "function",
      "constant": true
    },
    {
      "inputs": [],
      "name": "USER_WRITE_ROLE",
      "outputs": [
        {
          "internalType": "bytes32",
          "name": "",
          "type": "bytes32"
        }
      ],
      "stateMutability": "view",
      "type": "function",
      "constant": true
    },
    {
      "inputs": [
        {
          "internalType": "bytes32",
          "name": "role",
          "type": "bytes32"
        }
      ],
      "name": "getRoleAdmin",
      "outputs": [
        {
          "internalType": "bytes32",
          "name": "",
          "type": "bytes32"
        }
      ],
      "stateMutability": "view",
      "type": "function",
      "constant": true
    },
    {
      "inputs": [
        {
          "internalType": "bytes32",
          "name": "role",
          "type": "bytes32"
        },
        {
          "internalType": "uint256",
          "name": "index",
          "type": "uint256"
        }
      ],
      "name": "getRoleMember",
      "outputs": [
        {
          "internalType": "address",
          "name": "",
          "type": "address"
        }
      ],
      "stateMutability": "view",
      "type": "function",
      "constant": true
    },
    {
      "inputs": [
        {
          "internalType": "bytes32",
          "name": "role",
          "type": "bytes32"
        }
      ],
      "name": "getRoleMemberCount",
      "outputs": [
        {
          "internalType": "uint256",
          "name": "",
          "type": "uint256"
        }
      ],
      "stateMutability": "view",
      "type": "function",
      "constant": true
    },
    {
      "inputs": [
        {
          "internalType": "bytes32",
          "name": "role",
          "type": "bytes32"
        },
        {
          "internalType": "address",
          "name": "account",
          "type": "address"
        }
      ],
      "name": "grantRole",
      "outputs": [],
      "stateMutability": "nonpayable",
      "type": "function"
    },
    {
      "inputs": [
        {
          "internalType": "bytes32",
          "name": "role",
          "type": "bytes32"
        },
        {
          "internalType": "address",
          "name": "account",
          "type": "address"
        }
      ],
      "name": "hasRole",
      "outputs": [
        {
          "internalType": "bool",
          "name": "",
          "type": "bool"
        }
      ],
      "stateMutability": "view",
      "type": "function",
      "constant": true
    },
    {
      "inputs": [],
      "name": "owner",
      "outputs": [
        {
          "internalType": "address",
          "name": "",
          "type": "address"
        }
      ],
      "stateMutability": "view",
      "type": "function",
      "constant": true
    },
    {
      "inputs": [],
      "name": "renounceOwnership",
      "outputs": [],
      "stateMutability": "nonpayable",
      "type": "function"
    },
    {
      "inputs": [
        {
          "internalType": "bytes32",
          "name": "role",
          "type": "bytes32"
        },
        {
          "internalType": "address",
          "name": "account",
          "type": "address"
        }
      ],
      "name": "renounceRole",
      "outputs": [],
      "stateMutability": "nonpayable",
      "type": "function"
    },
    {
      "inputs": [
        {
          "internalType": "bytes32",
          "name": "role",
          "type": "bytes32"
        },
        {
          "internalType": "address",
          "name": "account",
          "type": "address"
        }
      ],
      "name": "revokeRole",
      "outputs": [],
      "stateMutability": "nonpayable",
      "type": "function"
    },
    {
      "inputs": [
        {
          "internalType": "address",
          "name": "newOwner",
          "type": "address"
        }
      ],
      "name": "transferOwnership",
      "outputs": [],
      "stateMutability": "nonpayable",
      "type": "function"
    },
    {
      "inputs": [
        {
          "internalType": "uint256",
          "name": "_dtstamp",
          "type": "uint256"
        },
        {
          "internalType": "uint256",
          "name": "_dtstart",
          "type": "uint256"
        },
        {
          "internalType": "uint256",
          "name": "_dtend",
          "type": "uint256"
        },
        {
          "internalType": "string",
          "name": "_summary",
          "type": "string"
        },
        {
          "internalType": "string",
          "name": "_description",
          "type": "string"
        },
        {
          "internalType": "bool",
          "name": "_isallday",
          "type": "bool"
        },
        {
          "internalType": "string",
          "name": "_alldaystartdate",
          "type": "string"
        },
        {
          "internalType": "string",
          "name": "_alldayenddate",
          "type": "string"
        }
      ],
      "name": "storeEvent",
      "outputs": [],
      "stateMutability": "nonpayable",
      "type": "function"
    },
    {
      "inputs": [
        {
          "internalType": "uint256",
          "name": "_dtstamp",
          "type": "uint256"
        }
      ],
      "name": "removeEvent",
      "outputs": [],
      "stateMutability": "nonpayable",
      "type": "function"
    },
    {
      "inputs": [
        {
          "internalType": "address",
          "name": "_user",
          "type": "address"
        }
      ],
      "name": "getEventsIcal",
      "outputs": [
        {
          "internalType": "string",
          "name": "",
          "type": "string"
        }
      ],
      "stateMutability": "view",
      "type": "function",
      "constant": true
    },
    {
      "inputs": [
        {
          "internalType": "address",
          "name": "_user",
          "type": "address"
        },
        {
          "internalType": "uint256",
          "name": "_validFrom",
          "type": "uint256"
        },
        {
          "internalType": "uint256",
          "name": "_expiresBy",
          "type": "uint256"
        }
      ],
      "name": "getEventsIcal",
      "outputs": [
        {
          "internalType": "string",
          "name": "",
          "type": "string"
        }
      ],
      "stateMutability": "view",
      "type": "function",
      "constant": true
    },
    {
      "inputs": [
        {
          "internalType": "address",
          "name": "_user",
          "type": "address"
        },
        {
          "internalType": "uint256",
          "name": "_validFrom",
          "type": "uint256"
        }
      ],
      "name": "getEventsIcal",
      "outputs": [
        {
          "internalType": "string",
          "name": "",
          "type": "string"
        }
      ],
      "stateMutability": "view",
      "type": "function",
      "constant": true
    },
    {
      "inputs": [
        {
          "internalType": "uint256",
          "name": "_validFrom",
          "type": "uint256"
        },
        {
          "internalType": "uint256",
          "name": "_expiresBy",
          "type": "uint256"
        }
      ],
      "name": "getEventsObj",
      "outputs": [
        {
          "components": [
            {
              "internalType": "uint256",
              "name": "dtstamp",
              "type": "uint256"
            },
            {
              "internalType": "uint256",
              "name": "dtstart",
              "type": "uint256"
            },
            {
              "internalType": "uint256",
              "name": "dtend",
              "type": "uint256"
            },
            {
              "internalType": "string",
              "name": "summary",
              "type": "string"
            },
            {
              "internalType": "string",
              "name": "description",
              "type": "string"
            },
            {
              "internalType": "bool",
              "name": "isallday",
              "type": "bool"
            },
            {
              "internalType": "string",
              "name": "alldaystartdate",
              "type": "string"
            },
            {
              "internalType": "string",
              "name": "alldayenddate",
              "type": "string"
            },
            {
              "internalType": "uint256",
              "name": "uid",
              "type": "uint256"
            }
          ],
          "internalType": "struct VEventLibrary.VEvent[]",
          "name": "",
          "type": "tuple[]"
        }
      ],
      "stateMutability": "view",
      "type": "function",
      "constant": true
    },
    {
      "inputs": [
        {
          "internalType": "uint256",
          "name": "_validFrom",
          "type": "uint256"
        }
      ],
      "name": "getEventsObj",
      "outputs": [
        {
          "components": [
            {
              "internalType": "uint256",
              "name": "dtstamp",
              "type": "uint256"
            },
            {
              "internalType": "uint256",
              "name": "dtstart",
              "type": "uint256"
            },
            {
              "internalType": "uint256",
              "name": "dtend",
              "type": "uint256"
            },
            {
              "internalType": "string",
              "name": "summary",
              "type": "string"
            },
            {
              "internalType": "string",
              "name": "description",
              "type": "string"
            },
            {
              "internalType": "bool",
              "name": "isallday",
              "type": "bool"
            },
            {
              "internalType": "string",
              "name": "alldaystartdate",
              "type": "string"
            },
            {
              "internalType": "string",
              "name": "alldayenddate",
              "type": "string"
            },
            {
              "internalType": "uint256",
              "name": "uid",
              "type": "uint256"
            }
          ],
          "internalType": "struct VEventLibrary.VEvent[]",
          "name": "",
          "type": "tuple[]"
        }
      ],
      "stateMutability": "view",
      "type": "function",
      "constant": true
    },
    {
      "inputs": [],
      "name": "getEventsObj",
      "outputs": [
        {
          "components": [
            {
              "internalType": "uint256",
              "name": "dtstamp",
              "type": "uint256"
            },
            {
              "internalType": "uint256",
              "name": "dtstart",
              "type": "uint256"
            },
            {
              "internalType": "uint256",
              "name": "dtend",
              "type": "uint256"
            },
            {
              "internalType": "string",
              "name": "summary",
              "type": "string"
            },
            {
              "internalType": "string",
              "name": "description",
              "type": "string"
            },
            {
              "internalType": "bool",
              "name": "isallday",
              "type": "bool"
            },
            {
              "internalType": "string",
              "name": "alldaystartdate",
              "type": "string"
            },
            {
              "internalType": "string",
              "name": "alldayenddate",
              "type": "string"
            },
            {
              "internalType": "uint256",
              "name": "uid",
              "type": "uint256"
            }
          ],
          "internalType": "struct VEventLibrary.VEvent[]",
          "name": "",
          "type": "tuple[]"
        }
      ],
      "stateMutability": "view",
      "type": "function",
      "constant": true
    },
    {
      "inputs": [],
      "name": "getUserRole",
      "outputs": [
        {
          "internalType": "string",
          "name": "",
          "type": "string"
        }
      ],
      "stateMutability": "view",
      "type": "function",
      "constant": true
    },
    {
      "inputs": [
        {
          "internalType": "address",
          "name": "_userAddress",
          "type": "address"
        },
        {
          "internalType": "uint256",
          "name": "_validFrom",
          "type": "uint256"
        },
        {
          "internalType": "uint256",
          "name": "_expiresBy",
          "type": "uint256"
        }
      ],
      "name": "addRead",
      "outputs": [],
      "stateMutability": "nonpayable",
      "type": "function"
    },
    {
      "inputs": [
        {
          "internalType": "address",
          "name": "_userAddress",
          "type": "address"
        },
        {
          "internalType": "uint256",
          "name": "_validFrom",
          "type": "uint256"
        },
        {
          "internalType": "uint256",
          "name": "_expiresBy",
          "type": "uint256"
        }
      ],
      "name": "addWrite",
      "outputs": [],
      "stateMutability": "nonpayable",
      "type": "function"
    },
    {
      "inputs": [
        {
          "internalType": "address",
          "name": "_userAddress",
          "type": "address"
        }
      ],
      "name": "getAccessWindow",
      "outputs": [
        {
          "components": [
            {
              "internalType": "uint256",
              "name": "validFrom",
              "type": "uint256"
            },
            {
              "internalType": "uint256",
              "name": "expiresBy",
              "type": "uint256"
            }
          ],
          "internalType": "struct CalAuth.AccessWindow",
          "name": "",
          "type": "tuple"
        }
      ],
      "stateMutability": "nonpayable",
      "type": "function"
    },
    {
      "inputs": [
        {
          "internalType": "address",
          "name": "userAddress",
          "type": "address"
        }
      ],
      "name": "revokeRead",
      "outputs": [],
      "stateMutability": "nonpayable",
      "type": "function"
    },
    {
      "inputs": [
        {
          "internalType": "address",
          "name": "userAddress",
          "type": "address"
        }
      ],
      "name": "revokeWrite",
      "outputs": [],
      "stateMutability": "nonpayable",
      "type": "function"
    },
    {
      "inputs": [],
      "name": "authHi",
      "outputs": [
        {
          "internalType": "string",
          "name": "",
          "type": "string"
        }
      ],
      "stateMutability": "pure",
      "type": "function",
      "constant": true
    }
  ],
  "bytecode": "0x60806040523480156200001157600080fd5b5060405162003a9c38038062003a9c8339818101604052810190620000379190620002f2565b6000620000496200014460201b60201c565b9050806000806101000a81548173ffffffffffffffffffffffffffffffffffffffff021916908373ffffffffffffffffffffffffffffffffffffffff1602179055508073ffffffffffffffffffffffffffffffffffffffff16600073ffffffffffffffffffffffffffffffffffffffff167f8be0079c531659141344cd1fd0a4f28419497f9722a3daafe3b4186f6b6457e060405160405180910390a350620000fc6000801b336200014c60201b60201c565b80600260006101000a81548173ffffffffffffffffffffffffffffffffffffffff021916908373ffffffffffffffffffffffffffffffffffffffff160217905550506200036c565b600033905090565b6200015e82826200016260201b60201c565b5050565b6200019181600160008581526020019081526020016000206000016200020660201b620023321790919060201c565b156200020257620001a76200014460201b60201c565b73ffffffffffffffffffffffffffffffffffffffff168173ffffffffffffffffffffffffffffffffffffffff16837f2f8788117e7eff1d82e926ec794901d17c78024a50270940304540a733656f0d60405160405180910390a45b5050565b600062000236836000018373ffffffffffffffffffffffffffffffffffffffff1660001b6200023e60201b60201c565b905092915050565b6000620002528383620002b860201b60201c565b620002ad578260000182908060018154018082558091505060019003906000526020600020016000909190919091505582600001805490508360010160008481526020019081526020016000208190555060019050620002b2565b600090505b92915050565b600080836001016000848152602001908152602001600020541415905092915050565b600081519050620002ec8162000352565b92915050565b6000602082840312156200030557600080fd5b60006200031584828501620002db565b91505092915050565b60006200032b8262000332565b9050919050565b600073ffffffffffffffffffffffffffffffffffffffff82169050919050565b6200035d816200031e565b81146200036957600080fd5b50565b613720806200037c6000396000f3fe608060405234801561001057600080fd5b50600436106101cf5760003560e01c80638da5cb5b11610104578063bf04a10d116100a2578063d547741f11610071578063d547741f14610540578063ee1bf5db1461055c578063f2fde38b1461057a578063f35cf90e14610596576101cf565b8063bf04a10d146104b8578063c30ed8a5146104d6578063ca15c873146104f2578063caebb99114610522576101cf565b806396cba36a116100de57806396cba36a14610430578063a217fddf14610460578063ab7cc4d21461047e578063aef956e91461049a576101cf565b80638da5cb5b146103b25780639010d07c146103d057806391d1485414610400576101cf565b80632f2ff15d11610171578063607360d31161014b578063607360d31461032c578063715018a6146103485780638700d566146103525780638b9265c614610382576101cf565b80632f2ff15d146102d857806336568abe146102f457806356164e1e14610310576101cf565b806321ee4bca116101ad57806321ee4bca1461023c578063248a9ca31461026c578063283e84421461029c5780632a0acc6a146102ba576101cf565b806310d00a67146101d45780631accea71146102045780631f79ec0914610220575b600080fd5b6101ee60048036038101906101e99190612a0a565b6105c6565b6040516101fb9190613307565b60405180910390f35b61021e60048036038101906102199190612a6f565b61072f565b005b61023a60048036038101906102359190612a0a565b61085e565b005b61025660048036038101906102519190612a0a565b610920565b6040516102639190613409565b60405180910390f35b61028660048036038101906102819190612aff565b61098d565b60405161029391906132ec565b60405180910390f35b6102a46109ad565b6040516102b191906132ec565b60405180910390f35b6102c26109d1565b6040516102cf91906132ec565b60405180910390f35b6102f260048036038101906102ed9190612b28565b6109f5565b005b61030e60048036038101906103099190612b28565b610a69565b005b61032a60048036038101906103259190612be1565b610aec565b005b61034660048036038101906103419190612a0a565b610d54565b005b610350610e16565b005b61036c60048036038101906103679190612a6f565b610f69565b6040516103799190613307565b60405180910390f35b61039c60048036038101906103979190612c0a565b6110d8565b6040516103a991906132af565b60405180910390f35b6103ba6113bd565b6040516103c79190613234565b60405180910390f35b6103ea60048036038101906103e59190612b64565b6113e6565b6040516103f79190613234565b60405180910390f35b61041a60048036038101906104159190612b28565b611418565b60405161042791906132d1565b60405180910390f35b61044a60048036038101906104459190612be1565b61144a565b60405161045791906132af565b60405180910390f35b61046861172c565b60405161047591906132ec565b60405180910390f35b61049860048036038101906104939190612c46565b611733565b005b6104a2611933565b6040516104af9190613307565b60405180910390f35b6104c0611970565b6040516104cd9190613307565b60405180910390f35b6104f060048036038101906104eb9190612a6f565b611b41565b005b61050c60048036038101906105079190612aff565b611c70565b6040516105199190613424565b60405180910390f35b61052a611c97565b60405161053791906132af565b60405180910390f35b61055a60048036038101906105559190612b28565b611f6c565b005b610564611fe0565b60405161057191906132ec565b60405180910390f35b610594600480360381019061058f9190612a0a565b612004565b005b6105b060048036038101906105ab9190612a33565b6121c6565b6040516105bd9190613307565b60405180910390f35b6060816105d66000801b82611418565b8061060757506106067f238cc277b81124817de0fb6e725dfaca359442ead042cbf4fa5a5d15a441d45482611418565b5b8061063857506106377f60b176c013bc5f6a4aaf9c1455cc3ff5e7ee54daffb41be2fd0e50b804acad4282611418565b5b610677576040517f08c379a000000000000000000000000000000000000000000000000000000000815260040161066e90613349565b60405180910390fd5b600260009054906101000a900473ffffffffffffffffffffffffffffffffffffffff1673ffffffffffffffffffffffffffffffffffffffff166310d00a67306040518263ffffffff1660e01b81526004016106d29190613234565b60006040518083038186803b1580156106ea57600080fd5b505afa1580156106fe573d6000803e3d6000fd5b505050506040513d6000823e3d601f19601f820116820180604052508101906107279190612ba0565b915050919050565b610737612362565b73ffffffffffffffffffffffffffffffffffffffff1660008054906101000a900473ffffffffffffffffffffffffffffffffffffffff1673ffffffffffffffffffffffffffffffffffffffff16146107c4576040517f08c379a00000000000000000000000000000000000000000000000000000000081526004016107bb906133c9565b60405180910390fd5b6107ee7f238cc277b81124817de0fb6e725dfaca359442ead042cbf4fa5a5d15a441d454846109f5565b604051806040016040528083815260200182815250600360008573ffffffffffffffffffffffffffffffffffffffff1673ffffffffffffffffffffffffffffffffffffffff1681526020019081526020016000206000820151816000015560208201518160010155905050505050565b610866612362565b73ffffffffffffffffffffffffffffffffffffffff1660008054906101000a900473ffffffffffffffffffffffffffffffffffffffff1673ffffffffffffffffffffffffffffffffffffffff16146108f3576040517f08c379a00000000000000000000000000000000000000000000000000000000081526004016108ea906133c9565b60405180910390fd5b61091d7f238cc277b81124817de0fb6e725dfaca359442ead042cbf4fa5a5d15a441d45482611f6c565b50565b61092861271a565b600360008373ffffffffffffffffffffffffffffffffffffffff1673ffffffffffffffffffffffffffffffffffffffff168152602001908152602001600020604051806040016040529081600082015481526020016001820154815250509050919050565b600060016000838152602001908152602001600020600201549050919050565b7f60b176c013bc5f6a4aaf9c1455cc3ff5e7ee54daffb41be2fd0e50b804acad4281565b7fdf8b4c520ffe197c5343c6f5aec59570151ef9a492f2c624fd45ddde6135ec4281565b610a1c6001600084815260200190815260200160002060020154610a17612362565b611418565b610a5b576040517f08c379a0000000000000000000000000000000000000000000000000000000008152600401610a5290613369565b60405180910390fd5b610a65828261236a565b5050565b610a71612362565b73ffffffffffffffffffffffffffffffffffffffff168173ffffffffffffffffffffffffffffffffffffffff1614610ade576040517f08c379a0000000000000000000000000000000000000000000000000000000008152600401610ad5906133e9565b60405180910390fd5b610ae882826123fe565b5050565b7f238cc277b81124817de0fb6e725dfaca359442ead042cbf4fa5a5d15a441d45480811415610b9757610b226000801b33611418565b80610b535750610b527f238cc277b81124817de0fb6e725dfaca359442ead042cbf4fa5a5d15a441d45433611418565b5b610b92576040517f08c379a0000000000000000000000000000000000000000000000000000000008152600401610b8990613349565b60405180910390fd5b610c46565b610ba46000801b33611418565b80610bd55750610bd47f238cc277b81124817de0fb6e725dfaca359442ead042cbf4fa5a5d15a441d45433611418565b5b80610c065750610c057f60b176c013bc5f6a4aaf9c1455cc3ff5e7ee54daffb41be2fd0e50b804acad4233611418565b5b610c45576040517f08c379a0000000000000000000000000000000000000000000000000000000008152600401610c3c90613349565b60405180910390fd5b5b610c536000801b33611418565b80610c845750610c837f238cc277b81124817de0fb6e725dfaca359442ead042cbf4fa5a5d15a441d45433611418565b5b610cc3576040517f08c379a0000000000000000000000000000000000000000000000000000000008152600401610cba90613349565b60405180910390fd5b600260009054906101000a900473ffffffffffffffffffffffffffffffffffffffff1673ffffffffffffffffffffffffffffffffffffffff166356164e1e836040518263ffffffff1660e01b8152600401610d1e9190613424565b600060405180830381600087803b158015610d3857600080fd5b505af1158015610d4c573d6000803e3d6000fd5b505050505050565b610d5c612362565b73ffffffffffffffffffffffffffffffffffffffff1660008054906101000a900473ffffffffffffffffffffffffffffffffffffffff1673ffffffffffffffffffffffffffffffffffffffff1614610de9576040517f08c379a0000000000000000000000000000000000000000000000000000000008152600401610de0906133c9565b60405180910390fd5b610e137f60b176c013bc5f6a4aaf9c1455cc3ff5e7ee54daffb41be2fd0e50b804acad4282611f6c565b50565b610e1e612362565b73ffffffffffffffffffffffffffffffffffffffff1660008054906101000a900473ffffffffffffffffffffffffffffffffffffffff1673ffffffffffffffffffffffffffffffffffffffff1614610eab576040517f08c379a0000000000000000000000000000000000000000000000000000000008152600401610ea2906133c9565b60405180910390fd5b600073ffffffffffffffffffffffffffffffffffffffff1660008054906101000a900473ffffffffffffffffffffffffffffffffffffffff1673ffffffffffffffffffffffffffffffffffffffff167f8be0079c531659141344cd1fd0a4f28419497f9722a3daafe3b4186f6b6457e060405160405180910390a360008060006101000a81548173ffffffffffffffffffffffffffffffffffffffff021916908373ffffffffffffffffffffffffffffffffffffffff160217905550565b606083610f796000801b82611418565b80610faa5750610fa97f238cc277b81124817de0fb6e725dfaca359442ead042cbf4fa5a5d15a441d45482611418565b5b80610fdb5750610fda7f60b176c013bc5f6a4aaf9c1455cc3ff5e7ee54daffb41be2fd0e50b804acad4282611418565b5b61101a576040517f08c379a000000000000000000000000000000000000000000000000000000000815260040161101190613349565b60405180910390fd5b600260009054906101000a900473ffffffffffffffffffffffffffffffffffffffff1673ffffffffffffffffffffffffffffffffffffffff16638700d5663086866040518463ffffffff1660e01b815260040161107993929190613278565b60006040518083038186803b15801561109157600080fd5b505afa1580156110a5573d6000803e3d6000fd5b505050506040513d6000823e3d601f19601f820116820180604052508101906110ce9190612ba0565b9150509392505050565b60607f60b176c013bc5f6a4aaf9c1455cc3ff5e7ee54daffb41be2fd0e50b804acad427f238cc277b81124817de0fb6e725dfaca359442ead042cbf4fa5a5d15a441d4548114156111a5576111306000801b33611418565b8061116157506111607f238cc277b81124817de0fb6e725dfaca359442ead042cbf4fa5a5d15a441d45433611418565b5b6111a0576040517f08c379a000000000000000000000000000000000000000000000000000000000815260040161119790613349565b60405180910390fd5b611254565b6111b26000801b33611418565b806111e357506111e27f238cc277b81124817de0fb6e725dfaca359442ead042cbf4fa5a5d15a441d45433611418565b5b8061121457506112137f60b176c013bc5f6a4aaf9c1455cc3ff5e7ee54daffb41be2fd0e50b804acad4233611418565b5b611253576040517f08c379a000000000000000000000000000000000000000000000000000000000815260040161124a90613349565b60405180910390fd5b5b6112616000801b33611418565b8061129257506112917f238cc277b81124817de0fb6e725dfaca359442ead042cbf4fa5a5d15a441d45433611418565b5b806112c357506112c27f60b176c013bc5f6a4aaf9c1455cc3ff5e7ee54daffb41be2fd0e50b804acad4233611418565b5b611302576040517f08c379a00000000000000000000000000000000000000000000000000000000081526004016112f990613349565b60405180910390fd5b600260009054906101000a900473ffffffffffffffffffffffffffffffffffffffff1673ffffffffffffffffffffffffffffffffffffffff16638b9265c685856040518363ffffffff1660e01b815260040161135f92919061343f565b60006040518083038186803b15801561137757600080fd5b505afa15801561138b573d6000803e3d6000fd5b505050506040513d6000823e3d601f19601f820116820180604052508101906113b49190612abe565b91505092915050565b60008060009054906101000a900473ffffffffffffffffffffffffffffffffffffffff16905090565b6000611410826001600086815260200190815260200160002060000161249290919063ffffffff16565b905092915050565b600061144282600160008681526020019081526020016000206000016124ac90919063ffffffff16565b905092915050565b60607f60b176c013bc5f6a4aaf9c1455cc3ff5e7ee54daffb41be2fd0e50b804acad427f238cc277b81124817de0fb6e725dfaca359442ead042cbf4fa5a5d15a441d454811415611517576114a26000801b33611418565b806114d357506114d27f238cc277b81124817de0fb6e725dfaca359442ead042cbf4fa5a5d15a441d45433611418565b5b611512576040517f08c379a000000000000000000000000000000000000000000000000000000000815260040161150990613349565b60405180910390fd5b6115c6565b6115246000801b33611418565b8061155557506115547f238cc277b81124817de0fb6e725dfaca359442ead042cbf4fa5a5d15a441d45433611418565b5b8061158657506115857f60b176c013bc5f6a4aaf9c1455cc3ff5e7ee54daffb41be2fd0e50b804acad4233611418565b5b6115c5576040517f08c379a00000000000000000000000000000000000000000000000000000000081526004016115bc90613349565b60405180910390fd5b5b6115d36000801b33611418565b8061160457506116037f238cc277b81124817de0fb6e725dfaca359442ead042cbf4fa5a5d15a441d45433611418565b5b8061163557506116347f60b176c013bc5f6a4aaf9c1455cc3ff5e7ee54daffb41be2fd0e50b804acad4233611418565b5b611674576040517f08c379a000000000000000000000000000000000000000000000000000000000815260040161166b90613349565b60405180910390fd5b600260009054906101000a900473ffffffffffffffffffffffffffffffffffffffff1673ffffffffffffffffffffffffffffffffffffffff166396cba36a846040518263ffffffff1660e01b81526004016116cf9190613424565b60006040518083038186803b1580156116e757600080fd5b505afa1580156116fb573d6000803e3d6000fd5b505050506040513d6000823e3d601f19601f820116820180604052508101906117249190612abe565b915050919050565b6000801b81565b7f238cc277b81124817de0fb6e725dfaca359442ead042cbf4fa5a5d15a441d454808114156117de576117696000801b33611418565b8061179a57506117997f238cc277b81124817de0fb6e725dfaca359442ead042cbf4fa5a5d15a441d45433611418565b5b6117d9576040517f08c379a00000000000000000000000000000000000000000000000000000000081526004016117d090613349565b60405180910390fd5b61188d565b6117eb6000801b33611418565b8061181c575061181b7f238cc277b81124817de0fb6e725dfaca359442ead042cbf4fa5a5d15a441d45433611418565b5b8061184d575061184c7f60b176c013bc5f6a4aaf9c1455cc3ff5e7ee54daffb41be2fd0e50b804acad4233611418565b5b61188c576040517f08c379a000000000000000000000000000000000000000000000000000000000815260040161188390613349565b60405180910390fd5b5b600260009054906101000a900473ffffffffffffffffffffffffffffffffffffffff1673ffffffffffffffffffffffffffffffffffffffff1663ab7cc4d28a8a8a8a8a8a8a8a6040518963ffffffff1660e01b81526004016118f6989796959493929190613468565b600060405180830381600087803b15801561191057600080fd5b505af1158015611924573d6000803e3d6000fd5b50505050505050505050505050565b60606040518060400160405280601a81526020017f43616c4175746820536179732048692e2020436f72726563742e000000000000815250905090565b606061197f6000801b33611418565b156119c1576040518060400160405280600581526020017f41444d494e0000000000000000000000000000000000000000000000000000008152509050611b3e565b6119eb7fdf8b4c520ffe197c5343c6f5aec59570151ef9a492f2c624fd45ddde6135ec4233611418565b15611a2d576040518060400160405280600581526020017f41444d494e0000000000000000000000000000000000000000000000000000008152509050611b3e565b611a577f238cc277b81124817de0fb6e725dfaca359442ead042cbf4fa5a5d15a441d45433611418565b15611a99576040518060400160405280600f81526020017f555345525f57524954455f524f4c4500000000000000000000000000000000008152509050611b3e565b611ac37f60b176c013bc5f6a4aaf9c1455cc3ff5e7ee54daffb41be2fd0e50b804acad4233611418565b15611b05576040518060400160405280600e81526020017f555345525f524541445f524f4c450000000000000000000000000000000000008152509050611b3e565b6040518060400160405280600381526020017f4e494c000000000000000000000000000000000000000000000000000000000081525090505b90565b611b49612362565b73ffffffffffffffffffffffffffffffffffffffff1660008054906101000a900473ffffffffffffffffffffffffffffffffffffffff1673ffffffffffffffffffffffffffffffffffffffff1614611bd6576040517f08c379a0000000000000000000000000000000000000000000000000000000008152600401611bcd906133c9565b60405180910390fd5b611c007f60b176c013bc5f6a4aaf9c1455cc3ff5e7ee54daffb41be2fd0e50b804acad42846109f5565b604051806040016040528083815260200182815250600360008573ffffffffffffffffffffffffffffffffffffffff1673ffffffffffffffffffffffffffffffffffffffff1681526020019081526020016000206000820151816000015560208201518160010155905050505050565b6000611c90600160008481526020019081526020016000206000016124dc565b9050919050565b60607f60b176c013bc5f6a4aaf9c1455cc3ff5e7ee54daffb41be2fd0e50b804acad427f238cc277b81124817de0fb6e725dfaca359442ead042cbf4fa5a5d15a441d454811415611d6457611cef6000801b33611418565b80611d205750611d1f7f238cc277b81124817de0fb6e725dfaca359442ead042cbf4fa5a5d15a441d45433611418565b5b611d5f576040517f08c379a0000000000000000000000000000000000000000000000000000000008152600401611d5690613349565b60405180910390fd5b611e13565b611d716000801b33611418565b80611da25750611da17f238cc277b81124817de0fb6e725dfaca359442ead042cbf4fa5a5d15a441d45433611418565b5b80611dd35750611dd27f60b176c013bc5f6a4aaf9c1455cc3ff5e7ee54daffb41be2fd0e50b804acad4233611418565b5b611e12576040517f08c379a0000000000000000000000000000000000000000000000000000000008152600401611e0990613349565b60405180910390fd5b5b611e206000801b33611418565b80611e515750611e507f238cc277b81124817de0fb6e725dfaca359442ead042cbf4fa5a5d15a441d45433611418565b5b80611e825750611e817f60b176c013bc5f6a4aaf9c1455cc3ff5e7ee54daffb41be2fd0e50b804acad4233611418565b5b611ec1576040517f08c379a0000000000000000000000000000000000000000000000000000000008152600401611eb890613349565b60405180910390fd5b600260009054906101000a900473ffffffffffffffffffffffffffffffffffffffff1673ffffffffffffffffffffffffffffffffffffffff1663caebb9916040518163ffffffff1660e01b815260040160006040518083038186803b158015611f2957600080fd5b505afa158015611f3d573d6000803e3d6000fd5b505050506040513d6000823e3d601f19601f82011682018060405250810190611f669190612abe565b91505090565b611f936001600084815260200190815260200160002060020154611f8e612362565b611418565b611fd2576040517f08c379a0000000000000000000000000000000000000000000000000000000008152600401611fc9906133a9565b60405180910390fd5b611fdc82826123fe565b5050565b7f238cc277b81124817de0fb6e725dfaca359442ead042cbf4fa5a5d15a441d45481565b61200c612362565b73ffffffffffffffffffffffffffffffffffffffff1660008054906101000a900473ffffffffffffffffffffffffffffffffffffffff1673ffffffffffffffffffffffffffffffffffffffff1614612099576040517f08c379a0000000000000000000000000000000000000000000000000000000008152600401612090906133c9565b60405180910390fd5b600073ffffffffffffffffffffffffffffffffffffffff168173ffffffffffffffffffffffffffffffffffffffff161415612109576040517f08c379a000000000000000000000000000000000000000000000000000000000815260040161210090613389565b60405180910390fd5b8073ffffffffffffffffffffffffffffffffffffffff1660008054906101000a900473ffffffffffffffffffffffffffffffffffffffff1673ffffffffffffffffffffffffffffffffffffffff167f8be0079c531659141344cd1fd0a4f28419497f9722a3daafe3b4186f6b6457e060405160405180910390a3806000806101000a81548173ffffffffffffffffffffffffffffffffffffffff021916908373ffffffffffffffffffffffffffffffffffffffff16021790555050565b6060826121d66000801b82611418565b8061220757506122067f238cc277b81124817de0fb6e725dfaca359442ead042cbf4fa5a5d15a441d45482611418565b5b8061223857506122377f60b176c013bc5f6a4aaf9c1455cc3ff5e7ee54daffb41be2fd0e50b804acad4282611418565b5b612277576040517f08c379a000000000000000000000000000000000000000000000000000000000815260040161226e90613349565b60405180910390fd5b600260009054906101000a900473ffffffffffffffffffffffffffffffffffffffff1673ffffffffffffffffffffffffffffffffffffffff1663f35cf90e30856040518363ffffffff1660e01b81526004016122d492919061324f565b60006040518083038186803b1580156122ec57600080fd5b505afa158015612300573d6000803e3d6000fd5b505050506040513d6000823e3d601f19601f820116820180604052508101906123299190612ba0565b91505092915050565b600061235a836000018373ffffffffffffffffffffffffffffffffffffffff1660001b6124f1565b905092915050565b600033905090565b612392816001600085815260200190815260200160002060000161233290919063ffffffff16565b156123fa5761239f612362565b73ffffffffffffffffffffffffffffffffffffffff168173ffffffffffffffffffffffffffffffffffffffff16837f2f8788117e7eff1d82e926ec794901d17c78024a50270940304540a733656f0d60405160405180910390a45b5050565b612426816001600085815260200190815260200160002060000161256190919063ffffffff16565b1561248e57612433612362565b73ffffffffffffffffffffffffffffffffffffffff168173ffffffffffffffffffffffffffffffffffffffff16837ff6391f5c32d9c69d2a47ea670b442974b53935d1edc7fd64eb21e047a839171b60405160405180910390a45b5050565b60006124a18360000183612591565b60001c905092915050565b60006124d4836000018373ffffffffffffffffffffffffffffffffffffffff1660001b6125fe565b905092915050565b60006124ea82600001612621565b9050919050565b60006124fd83836125fe565b61255657826000018290806001815401808255809150506001900390600052602060002001600090919091909150558260000180549050836001016000848152602001908152602001600020819055506001905061255b565b600090505b92915050565b6000612589836000018373ffffffffffffffffffffffffffffffffffffffff1660001b612632565b905092915050565b6000818360000180549050116125dc576040517f08c379a00000000000000000000000000000000000000000000000000000000081526004016125d390613329565b60405180910390fd5b8260000182815481106125eb57fe5b9060005260206000200154905092915050565b600080836001016000848152602001908152602001600020541415905092915050565b600081600001805490509050919050565b6000808360010160008481526020019081526020016000205490506000811461270e576000600182039050600060018660000180549050039050600086600001828154811061267d57fe5b906000526020600020015490508087600001848154811061269a57fe5b90600052602060002001819055506001830187600101600083815260200190815260200160002081905550866000018054806126d257fe5b60019003818190600052602060002001600090559055866001016000878152602001908152602001600020600090556001945050505050612714565b60009150505b92915050565b604051806040016040528060008152602001600081525090565b6000813590506127438161368e565b92915050565b600082601f83011261275a57600080fd5b815161276d6127688261352f565b613502565b9150818183526020840193506020810190508360005b838110156127b3578151860161279988826128a4565b845260208401935060208301925050600181019050612783565b5050505092915050565b6000813590506127cc816136a5565b92915050565b6000815190506127e1816136a5565b92915050565b6000813590506127f6816136bc565b92915050565b600082601f83011261280d57600080fd5b813561282061281b82613557565b613502565b9150808252602083016020830185838301111561283c57600080fd5b61284783828461363b565b50505092915050565b600082601f83011261286157600080fd5b815161287461286f82613557565b613502565b9150808252602083016020830185838301111561289057600080fd5b61289b83828461364a565b50505092915050565b600061012082840312156128b757600080fd5b6128c2610120613502565b905060006128d2848285016129f5565b60008301525060206128e6848285016129f5565b60208301525060406128fa848285016129f5565b604083015250606082015167ffffffffffffffff81111561291a57600080fd5b61292684828501612850565b606083015250608082015167ffffffffffffffff81111561294657600080fd5b61295284828501612850565b60808301525060a0612966848285016127d2565b60a08301525060c082015167ffffffffffffffff81111561298657600080fd5b61299284828501612850565b60c08301525060e082015167ffffffffffffffff8111156129b257600080fd5b6129be84828501612850565b60e0830152506101006129d3848285016129f5565b6101008301525092915050565b6000813590506129ef816136d3565b92915050565b600081519050612a04816136d3565b92915050565b600060208284031215612a1c57600080fd5b6000612a2a84828501612734565b91505092915050565b60008060408385031215612a4657600080fd5b6000612a5485828601612734565b9250506020612a65858286016129e0565b9150509250929050565b600080600060608486031215612a8457600080fd5b6000612a9286828701612734565b9350506020612aa3868287016129e0565b9250506040612ab4868287016129e0565b9150509250925092565b600060208284031215612ad057600080fd5b600082015167ffffffffffffffff811115612aea57600080fd5b612af684828501612749565b91505092915050565b600060208284031215612b1157600080fd5b6000612b1f848285016127e7565b91505092915050565b60008060408385031215612b3b57600080fd5b6000612b49858286016127e7565b9250506020612b5a85828601612734565b9150509250929050565b60008060408385031215612b7757600080fd5b6000612b85858286016127e7565b9250506020612b96858286016129e0565b9150509250929050565b600060208284031215612bb257600080fd5b600082015167ffffffffffffffff811115612bcc57600080fd5b612bd884828501612850565b91505092915050565b600060208284031215612bf357600080fd5b6000612c01848285016129e0565b91505092915050565b60008060408385031215612c1d57600080fd5b6000612c2b858286016129e0565b9250506020612c3c858286016129e0565b9150509250929050565b600080600080600080600080610100898b031215612c6357600080fd5b6000612c718b828c016129e0565b9850506020612c828b828c016129e0565b9750506040612c938b828c016129e0565b965050606089013567ffffffffffffffff811115612cb057600080fd5b612cbc8b828c016127fc565b955050608089013567ffffffffffffffff811115612cd957600080fd5b612ce58b828c016127fc565b94505060a0612cf68b828c016127bd565b93505060c089013567ffffffffffffffff811115612d1357600080fd5b612d1f8b828c016127fc565b92505060e089013567ffffffffffffffff811115612d3c57600080fd5b612d488b828c016127fc565b9150509295985092959890939650565b6000612d64838361313c565b905092915050565b612d75816135e9565b82525050565b6000612d8682613593565b612d9081856135b6565b935083602082028501612da285613583565b8060005b85811015612dde5784840389528151612dbf8582612d58565b9450612dca836135a9565b925060208a01995050600181019050612da6565b50829750879550505050505092915050565b612df9816135fb565b82525050565b612e08816135fb565b82525050565b612e1781613607565b82525050565b6000612e288261359e565b612e3281856135c7565b9350612e4281856020860161364a565b612e4b8161367d565b840191505092915050565b6000612e618261359e565b612e6b81856135d8565b9350612e7b81856020860161364a565b612e848161367d565b840191505092915050565b6000612e9c6022836135d8565b91507f456e756d657261626c655365743a20696e646578206f7574206f6620626f756e60008301527f64730000000000000000000000000000000000000000000000000000000000006020830152604082019050919050565b6000612f026013836135d8565b91507f55736572206e6f7420617574686f7269736564000000000000000000000000006000830152602082019050919050565b6000612f42602f836135d8565b91507f416363657373436f6e74726f6c3a2073656e646572206d75737420626520616e60008301527f2061646d696e20746f206772616e7400000000000000000000000000000000006020830152604082019050919050565b6000612fa86026836135d8565b91507f4f776e61626c653a206e6577206f776e657220697320746865207a65726f206160008301527f64647265737300000000000000000000000000000000000000000000000000006020830152604082019050919050565b600061300e6030836135d8565b91507f416363657373436f6e74726f6c3a2073656e646572206d75737420626520616e60008301527f2061646d696e20746f207265766f6b65000000000000000000000000000000006020830152604082019050919050565b60006130746020836135d8565b91507f4f776e61626c653a2063616c6c6572206973206e6f7420746865206f776e65726000830152602082019050919050565b60006130b4602f836135d8565b91507f416363657373436f6e74726f6c3a2063616e206f6e6c792072656e6f756e636560008301527f20726f6c657320666f722073656c6600000000000000000000000000000000006020830152604082019050919050565b6040820160008201516131236000850182613216565b5060208201516131366020850182613216565b50505050565b6000610120830160008301516131556000860182613216565b5060208301516131686020860182613216565b50604083015161317b6040860182613216565b50606083015184820360608601526131938282612e1d565b915050608083015184820360808601526131ad8282612e1d565b91505060a08301516131c260a0860182612df0565b5060c083015184820360c08601526131da8282612e1d565b91505060e083015184820360e08601526131f48282612e1d565b91505061010083015161320b610100860182613216565b508091505092915050565b61321f81613631565b82525050565b61322e81613631565b82525050565b60006020820190506132496000830184612d6c565b92915050565b60006040820190506132646000830185612d6c565b6132716020830184613225565b9392505050565b600060608201905061328d6000830186612d6c565b61329a6020830185613225565b6132a76040830184613225565b949350505050565b600060208201905081810360008301526132c98184612d7b565b905092915050565b60006020820190506132e66000830184612dff565b92915050565b60006020820190506133016000830184612e0e565b92915050565b600060208201905081810360008301526133218184612e56565b905092915050565b6000602082019050818103600083015261334281612e8f565b9050919050565b6000602082019050818103600083015261336281612ef5565b9050919050565b6000602082019050818103600083015261338281612f35565b9050919050565b600060208201905081810360008301526133a281612f9b565b9050919050565b600060208201905081810360008301526133c281613001565b9050919050565b600060208201905081810360008301526133e281613067565b9050919050565b60006020820190508181036000830152613402816130a7565b9050919050565b600060408201905061341e600083018461310d565b92915050565b60006020820190506134396000830184613225565b92915050565b60006040820190506134546000830185613225565b6134616020830184613225565b9392505050565b60006101008201905061347e600083018b613225565b61348b602083018a613225565b6134986040830189613225565b81810360608301526134aa8188612e56565b905081810360808301526134be8187612e56565b90506134cd60a0830186612dff565b81810360c08301526134df8185612e56565b905081810360e08301526134f38184612e56565b90509998505050505050505050565b6000604051905081810181811067ffffffffffffffff8211171561352557600080fd5b8060405250919050565b600067ffffffffffffffff82111561354657600080fd5b602082029050602081019050919050565b600067ffffffffffffffff82111561356e57600080fd5b601f19601f8301169050602081019050919050565b6000819050602082019050919050565b600081519050919050565b600081519050919050565b6000602082019050919050565b600082825260208201905092915050565b600082825260208201905092915050565b600082825260208201905092915050565b60006135f482613611565b9050919050565b60008115159050919050565b6000819050919050565b600073ffffffffffffffffffffffffffffffffffffffff82169050919050565b6000819050919050565b82818337600083830152505050565b60005b8381101561366857808201518184015260208101905061364d565b83811115613677576000848401525b50505050565b6000601f19601f8301169050919050565b613697816135e9565b81146136a257600080fd5b50565b6136ae816135fb565b81146136b957600080fd5b50565b6136c581613607565b81146136d057600080fd5b50565b6136dc81613631565b81146136e757600080fd5b5056fea26469706673582212207503c042ef4d59d112a85275cb4df9a47f0660bdea2aa1af3525bf31ab29c73164736f6c634300060c0033",
  "immutableReferences": {},
  "source": "// SPDX-License-Identifier: MIT\npragma solidity ^0.6.0;\npragma experimental ABIEncoderV2;\n\nimport \"@openzeppelin/contracts/access/AccessControl.sol\";\nimport \"@openzeppelin/contracts/access/Ownable.sol\";\nimport \"./CalStore.sol\";\nimport \"./VEventLibrary.sol\";\n\ncontract CalAuth is Ownable, AccessControl {\n    using VEventLibrary for VEventLibrary.VEvent;\n\n    bytes32 public constant USER_READ_ROLE = keccak256(\"USER_READ_ROLE\");\n    bytes32 public constant USER_WRITE_ROLE = keccak256(\"USER_WRITE_ROLE\");\n    bytes32 public constant ADMIN = keccak256(\"ADMIN\");\n    CalStore private calStore;\n\n    struct AccessWindow {\n        uint validFrom;\n        uint expiresBy;\n    }\n    \n    mapping(address => AccessWindow) private accessList;\n\n    constructor(address _addr) public {\n        _setupRole(DEFAULT_ADMIN_ROLE, msg.sender);\n        calStore = CalStore(_addr);\n    }\n\n    modifier onlyRole(bytes32 _role) {\n        if (_role == USER_WRITE_ROLE) {\n            require(\n                hasRole(DEFAULT_ADMIN_ROLE, msg.sender) ||\n                hasRole(USER_WRITE_ROLE, msg.sender),\n                \"User not authorised\");\n        } else {\n            require(\n                hasRole(DEFAULT_ADMIN_ROLE, msg.sender) ||\n                hasRole(USER_WRITE_ROLE, msg.sender) ||\n                hasRole(USER_READ_ROLE, msg.sender),\n                \"User not authorised\");\n        }\n        _;\n    }\n    \n    modifier onlyRoleIcal(address _user) {\n        require(\n            hasRole(DEFAULT_ADMIN_ROLE, _user) ||\n            hasRole(USER_WRITE_ROLE, _user) ||\n            hasRole(USER_READ_ROLE, _user),\n            \"User not authorised\");\n        _;\n    }\n\n    function storeEvent(\n        uint _dtstamp,\n        uint _dtstart,\n        uint _dtend,\n        string memory _summary,\n        string memory _description,\n        bool _isallday,\n        string memory _alldaystartdate,\n        string memory _alldayenddate)\n        public onlyRole(USER_WRITE_ROLE)\n        {\n        calStore.storeEvent(\n            _dtstamp, _dtstart, _dtend,\n            _summary, _description,\n            _isallday, _alldaystartdate,\n            _alldayenddate);\n    }\n\n    function removeEvent(uint _dtstamp) public onlyRole(USER_WRITE_ROLE) {\n        require(\n            hasRole(DEFAULT_ADMIN_ROLE, msg.sender) ||\n            hasRole(USER_WRITE_ROLE, msg.sender),\n            \"User not authorised\");\n        calStore.removeEvent(_dtstamp);\n    }\n\n    function getEventsIcal(address _user) public view onlyRoleIcal(_user) returns (\n        string memory) {\n        return calStore.getEventsIcal(address(this));\n    }\n\n    function getEventsIcal(address _user, uint _validFrom) public view onlyRoleIcal(_user) returns (\n        string memory) {\n        return calStore.getEventsIcal(address(this), _validFrom);\n    }\n\n\n    function getEventsIcal(address _user, uint _validFrom, \n        uint _expiresBy) public view onlyRoleIcal(_user) returns (\n        string memory) {\n        return calStore.getEventsIcal(address(this), _validFrom, _expiresBy);\n    }\n\n    function getEventsObj() public view onlyRole(USER_READ_ROLE) returns (\n        VEventLibrary.VEvent[] memory) {\n        require(\n            hasRole(DEFAULT_ADMIN_ROLE, msg.sender) ||\n            hasRole(USER_WRITE_ROLE, msg.sender) ||\n            hasRole(USER_READ_ROLE, msg.sender),\n            \"User not authorised\");\n        return calStore.getEventsObj();\n    }\n    \n    function getEventsObj(uint _validFrom) public view onlyRole(USER_READ_ROLE) returns (\n        VEventLibrary.VEvent[] memory) {\n        require(\n            hasRole(DEFAULT_ADMIN_ROLE, msg.sender) ||\n            hasRole(USER_WRITE_ROLE, msg.sender) ||\n            hasRole(USER_READ_ROLE, msg.sender),\n            \"User not authorised\");\n        return calStore.getEventsObj(_validFrom);\n    }\n\n    function getEventsObj(uint _validFrom, uint _expiresBy) public view onlyRole(USER_READ_ROLE) returns (\n        VEventLibrary.VEvent[] memory) {\n        require(\n            hasRole(DEFAULT_ADMIN_ROLE, msg.sender) ||\n            hasRole(USER_WRITE_ROLE, msg.sender) ||\n            hasRole(USER_READ_ROLE, msg.sender),\n            \"User not authorised\");\n        return calStore.getEventsObj(_validFrom, _expiresBy);\n    }\n\n    /// @notice Returns role of msg.sender\n    /// @dev Returns in hierarchial order, e.g. ADMIN more important than READ etc\n    /// @return string user role\n    function getUserRole() public view returns (string memory) {\n        if (hasRole(DEFAULT_ADMIN_ROLE, msg.sender)) {\n            return \"ADMIN\";\n        } else if (hasRole(ADMIN, msg.sender)) {\n            return \"ADMIN\";\n        } else if (hasRole(USER_WRITE_ROLE, msg.sender)) {\n            return \"USER_WRITE_ROLE\";\n        } else if (hasRole(USER_READ_ROLE, msg.sender)) {\n            return \"USER_READ_ROLE\";\n        }\n        return \"NIL\";\n    }\n\n    function addRead(address _userAddress, uint _validFrom, uint _expiresBy) public onlyOwner {\n        grantRole(USER_READ_ROLE, _userAddress);\n        // AccessWindow memory newAccess = new AccessWindow(_validFrom, _expiresBy);\n        accessList[_userAddress] = AccessWindow(_validFrom, _expiresBy);\n\n    }\n\n    function addWrite(address _userAddress, uint _validFrom, uint _expiresBy) public onlyOwner {\n        grantRole(USER_WRITE_ROLE, _userAddress);\n        // AccessWindow memory newAccess = new AccessWindow(_validFrom, _expiresBy);\n        accessList[_userAddress] = AccessWindow(_validFrom, _expiresBy);\n    }\n\n    function getAccessWindow(address _userAddress) \n    public \n    returns (AccessWindow memory) {\n\treturn accessList[_userAddress];\n    }\n\n\n\n\n    //TODO: Delete, not used\n    function revokeRead(address userAddress) public onlyOwner {\n        revokeRole(USER_READ_ROLE, userAddress);\n    }\n\n    //TODO: Delete, not used\n    function revokeWrite(address userAddress) public onlyOwner {\n        revokeRole(USER_WRITE_ROLE, userAddress);\n    }\n\n    function authHi() public pure returns (string memory) {\n        return \"CalAuth Says Hi.  Correct.\";\n    }\n}\n\n",
  "sourcePath": "/home/gene/Programming/forget-me-block-eth-cal-auth/contracts/CalAuth.sol",
  "compiler": {
    "name": "solc",
    "version": "0.6.12+commit.27d51765.Emscripten.clang"
  },
  "schemaVersion": "3.2.3",
  "updatedAt": "2020-08-18T10:33:25.386Z",
  "networkType": "ethereum",
  "devdoc": {
    "kind": "dev",
    "methods": {
      "getRoleAdmin(bytes32)": {
        "details": "Returns the admin role that controls `role`. See {grantRole} and {revokeRole}. To change a role's admin, use {_setRoleAdmin}."
      },
      "getRoleMember(bytes32,uint256)": {
        "details": "Returns one of the accounts that have `role`. `index` must be a value between 0 and {getRoleMemberCount}, non-inclusive. Role bearers are not sorted in any particular way, and their ordering may change at any point. WARNING: When using {getRoleMember} and {getRoleMemberCount}, make sure you perform all queries on the same block. See the following https://forum.openzeppelin.com/t/iterating-over-elements-on-enumerableset-in-openzeppelin-contracts/2296[forum post] for more information."
      },
      "getRoleMemberCount(bytes32)": {
        "details": "Returns the number of accounts that have `role`. Can be used together with {getRoleMember} to enumerate all bearers of a role."
      },
      "getUserRole()": {
        "details": "Returns in hierarchial order, e.g. ADMIN more important than READ etc",
        "returns": {
          "_0": "string user role"
        }
      },
      "grantRole(bytes32,address)": {
        "details": "Grants `role` to `account`. If `account` had not been already granted `role`, emits a {RoleGranted} event. Requirements: - the caller must have ``role``'s admin role."
      },
      "hasRole(bytes32,address)": {
        "details": "Returns `true` if `account` has been granted `role`."
      },
      "owner()": {
        "details": "Returns the address of the current owner."
      },
      "renounceOwnership()": {
        "details": "Leaves the contract without owner. It will not be possible to call `onlyOwner` functions anymore. Can only be called by the current owner. NOTE: Renouncing ownership will leave the contract without an owner, thereby removing any functionality that is only available to the owner."
      },
      "renounceRole(bytes32,address)": {
        "details": "Revokes `role` from the calling account. Roles are often managed via {grantRole} and {revokeRole}: this function's purpose is to provide a mechanism for accounts to lose their privileges if they are compromised (such as when a trusted device is misplaced). If the calling account had been granted `role`, emits a {RoleRevoked} event. Requirements: - the caller must be `account`."
      },
      "revokeRole(bytes32,address)": {
        "details": "Revokes `role` from `account`. If `account` had been granted `role`, emits a {RoleRevoked} event. Requirements: - the caller must have ``role``'s admin role."
      },
      "transferOwnership(address)": {
        "details": "Transfers ownership of the contract to a new account (`newOwner`). Can only be called by the current owner."
      }
    },
    "version": 1
  },
  "userdoc": {
    "kind": "user",
    "methods": {
      "getUserRole()": {
        "notice": "Returns role of msg.sender"
      }
    },
    "version": 1
  }
}