{
  "contractName": "CalAuth",
  "abi": [
    {
      "inputs": [
        {
          "internalType": "address",
          "name": "_addr",
          "type": "address"
        }
      ],
      "stateMutability": "nonpayable",
      "type": "constructor"
    },
    {
      "anonymous": false,
      "inputs": [
        {
          "indexed": true,
          "internalType": "address",
          "name": "previousOwner",
          "type": "address"
        },
        {
          "indexed": true,
          "internalType": "address",
          "name": "newOwner",
          "type": "address"
        }
      ],
      "name": "OwnershipTransferred",
      "type": "event"
    },
    {
      "anonymous": false,
      "inputs": [
        {
          "indexed": true,
          "internalType": "bytes32",
          "name": "role",
          "type": "bytes32"
        },
        {
          "indexed": true,
          "internalType": "bytes32",
          "name": "previousAdminRole",
          "type": "bytes32"
        },
        {
          "indexed": true,
          "internalType": "bytes32",
          "name": "newAdminRole",
          "type": "bytes32"
        }
      ],
      "name": "RoleAdminChanged",
      "type": "event"
    },
    {
      "anonymous": false,
      "inputs": [
        {
          "indexed": true,
          "internalType": "bytes32",
          "name": "role",
          "type": "bytes32"
        },
        {
          "indexed": true,
          "internalType": "address",
          "name": "account",
          "type": "address"
        },
        {
          "indexed": true,
          "internalType": "address",
          "name": "sender",
          "type": "address"
        }
      ],
      "name": "RoleGranted",
      "type": "event"
    },
    {
      "anonymous": false,
      "inputs": [
        {
          "indexed": true,
          "internalType": "bytes32",
          "name": "role",
          "type": "bytes32"
        },
        {
          "indexed": true,
          "internalType": "address",
          "name": "account",
          "type": "address"
        },
        {
          "indexed": true,
          "internalType": "address",
          "name": "sender",
          "type": "address"
        }
      ],
      "name": "RoleRevoked",
      "type": "event"
    },
    {
      "inputs": [],
      "name": "DEFAULT_ADMIN_ROLE",
      "outputs": [
        {
          "internalType": "bytes32",
          "name": "",
          "type": "bytes32"
        }
      ],
      "stateMutability": "view",
      "type": "function",
      "constant": true
    },
    {
      "inputs": [],
      "name": "USER_READ_ROLE",
      "outputs": [
        {
          "internalType": "bytes32",
          "name": "",
          "type": "bytes32"
        }
      ],
      "stateMutability": "view",
      "type": "function",
      "constant": true
    },
    {
      "inputs": [],
      "name": "USER_WRITE_ROLE",
      "outputs": [
        {
          "internalType": "bytes32",
          "name": "",
          "type": "bytes32"
        }
      ],
      "stateMutability": "view",
      "type": "function",
      "constant": true
    },
    {
      "inputs": [
        {
          "internalType": "bytes32",
          "name": "role",
          "type": "bytes32"
        }
      ],
      "name": "getRoleAdmin",
      "outputs": [
        {
          "internalType": "bytes32",
          "name": "",
          "type": "bytes32"
        }
      ],
      "stateMutability": "view",
      "type": "function",
      "constant": true
    },
    {
      "inputs": [
        {
          "internalType": "bytes32",
          "name": "role",
          "type": "bytes32"
        },
        {
          "internalType": "uint256",
          "name": "index",
          "type": "uint256"
        }
      ],
      "name": "getRoleMember",
      "outputs": [
        {
          "internalType": "address",
          "name": "",
          "type": "address"
        }
      ],
      "stateMutability": "view",
      "type": "function",
      "constant": true
    },
    {
      "inputs": [
        {
          "internalType": "bytes32",
          "name": "role",
          "type": "bytes32"
        }
      ],
      "name": "getRoleMemberCount",
      "outputs": [
        {
          "internalType": "uint256",
          "name": "",
          "type": "uint256"
        }
      ],
      "stateMutability": "view",
      "type": "function",
      "constant": true
    },
    {
      "inputs": [
        {
          "internalType": "bytes32",
          "name": "role",
          "type": "bytes32"
        },
        {
          "internalType": "address",
          "name": "account",
          "type": "address"
        }
      ],
      "name": "grantRole",
      "outputs": [],
      "stateMutability": "nonpayable",
      "type": "function"
    },
    {
      "inputs": [
        {
          "internalType": "bytes32",
          "name": "role",
          "type": "bytes32"
        },
        {
          "internalType": "address",
          "name": "account",
          "type": "address"
        }
      ],
      "name": "hasRole",
      "outputs": [
        {
          "internalType": "bool",
          "name": "",
          "type": "bool"
        }
      ],
      "stateMutability": "view",
      "type": "function",
      "constant": true
    },
    {
      "inputs": [],
      "name": "owner",
      "outputs": [
        {
          "internalType": "address",
          "name": "",
          "type": "address"
        }
      ],
      "stateMutability": "view",
      "type": "function",
      "constant": true
    },
    {
      "inputs": [],
      "name": "renounceOwnership",
      "outputs": [],
      "stateMutability": "nonpayable",
      "type": "function"
    },
    {
      "inputs": [
        {
          "internalType": "bytes32",
          "name": "role",
          "type": "bytes32"
        },
        {
          "internalType": "address",
          "name": "account",
          "type": "address"
        }
      ],
      "name": "renounceRole",
      "outputs": [],
      "stateMutability": "nonpayable",
      "type": "function"
    },
    {
      "inputs": [
        {
          "internalType": "bytes32",
          "name": "role",
          "type": "bytes32"
        },
        {
          "internalType": "address",
          "name": "account",
          "type": "address"
        }
      ],
      "name": "revokeRole",
      "outputs": [],
      "stateMutability": "nonpayable",
      "type": "function"
    },
    {
      "inputs": [
        {
          "internalType": "address",
          "name": "newOwner",
          "type": "address"
        }
      ],
      "name": "transferOwnership",
      "outputs": [],
      "stateMutability": "nonpayable",
      "type": "function"
    },
    {
      "inputs": [
        {
          "internalType": "uint256",
          "name": "_dtstamp",
          "type": "uint256"
        },
        {
          "internalType": "uint256",
          "name": "_dtstart",
          "type": "uint256"
        },
        {
          "internalType": "uint256",
          "name": "_dtend",
          "type": "uint256"
        },
        {
          "internalType": "string",
          "name": "_summary",
          "type": "string"
        },
        {
          "internalType": "string",
          "name": "_description",
          "type": "string"
        },
        {
          "internalType": "bool",
          "name": "_isallday",
          "type": "bool"
        },
        {
          "internalType": "string",
          "name": "_alldaystartdate",
          "type": "string"
        },
        {
          "internalType": "string",
          "name": "_alldayenddate",
          "type": "string"
        }
      ],
      "name": "storeEvent",
      "outputs": [],
      "stateMutability": "nonpayable",
      "type": "function"
    },
    {
      "inputs": [
        {
          "internalType": "uint256",
          "name": "_dtstamp",
          "type": "uint256"
        }
      ],
      "name": "removeEvent",
      "outputs": [],
      "stateMutability": "nonpayable",
      "type": "function"
    },
    {
      "inputs": [],
      "name": "getEventsIcal",
      "outputs": [
        {
          "internalType": "string",
          "name": "",
          "type": "string"
        }
      ],
      "stateMutability": "view",
      "type": "function",
      "constant": true
    },
    {
      "inputs": [],
      "name": "getEventsObj",
      "outputs": [
        {
          "components": [
            {
              "internalType": "uint256",
              "name": "dtstamp",
              "type": "uint256"
            },
            {
              "internalType": "uint256",
              "name": "dtstart",
              "type": "uint256"
            },
            {
              "internalType": "uint256",
              "name": "dtend",
              "type": "uint256"
            },
            {
              "internalType": "string",
              "name": "summary",
              "type": "string"
            },
            {
              "internalType": "string",
              "name": "description",
              "type": "string"
            },
            {
              "internalType": "bool",
              "name": "isallday",
              "type": "bool"
            },
            {
              "internalType": "string",
              "name": "alldaystartdate",
              "type": "string"
            },
            {
              "internalType": "string",
              "name": "alldayenddate",
              "type": "string"
            },
            {
              "internalType": "uint256",
              "name": "uid",
              "type": "uint256"
            }
          ],
          "internalType": "struct VEventLibrary.VEvent[]",
          "name": "",
          "type": "tuple[]"
        }
      ],
      "stateMutability": "view",
      "type": "function",
      "constant": true
    },
    {
      "inputs": [],
      "name": "getUserRole",
      "outputs": [
        {
          "internalType": "string",
          "name": "",
          "type": "string"
        }
      ],
      "stateMutability": "view",
      "type": "function",
      "constant": true
    },
    {
      "inputs": [
        {
          "internalType": "address",
          "name": "userAddress",
          "type": "address"
        }
      ],
      "name": "addRead",
      "outputs": [],
      "stateMutability": "nonpayable",
      "type": "function"
    },
    {
      "inputs": [
        {
          "internalType": "address",
          "name": "userAddress",
          "type": "address"
        }
      ],
      "name": "addWrite",
      "outputs": [],
      "stateMutability": "nonpayable",
      "type": "function"
    },
    {
      "inputs": [
        {
          "internalType": "address",
          "name": "userAddress",
          "type": "address"
        }
      ],
      "name": "revokeRead",
      "outputs": [],
      "stateMutability": "nonpayable",
      "type": "function"
    },
    {
      "inputs": [
        {
          "internalType": "address",
          "name": "userAddress",
          "type": "address"
        }
      ],
      "name": "revokeWrite",
      "outputs": [],
      "stateMutability": "nonpayable",
      "type": "function"
    },
    {
      "inputs": [],
      "name": "userReadWelcomeString",
      "outputs": [
        {
          "internalType": "string",
          "name": "",
          "type": "string"
        }
      ],
      "stateMutability": "view",
      "type": "function",
      "constant": true
    },
    {
      "inputs": [],
      "name": "ownerWelcomeString",
      "outputs": [
        {
          "internalType": "string",
          "name": "",
          "type": "string"
        }
      ],
      "stateMutability": "view",
      "type": "function",
      "constant": true
    },
    {
      "inputs": [],
      "name": "justSayHiCalAuth",
      "outputs": [
        {
          "internalType": "string",
          "name": "",
          "type": "string"
        }
      ],
      "stateMutability": "pure",
      "type": "function",
      "constant": true
    }
  ],
  "bytecode": "0x60806040523480156200001157600080fd5b5060405162003352380380620033528339818101604052810190620000379190620002f2565b6000620000496200014460201b60201c565b9050806000806101000a81548173ffffffffffffffffffffffffffffffffffffffff021916908373ffffffffffffffffffffffffffffffffffffffff1602179055508073ffffffffffffffffffffffffffffffffffffffff16600073ffffffffffffffffffffffffffffffffffffffff167f8be0079c531659141344cd1fd0a4f28419497f9722a3daafe3b4186f6b6457e060405160405180910390a350620000fc6000801b336200014c60201b60201c565b80600260006101000a81548173ffffffffffffffffffffffffffffffffffffffff021916908373ffffffffffffffffffffffffffffffffffffffff160217905550506200036c565b600033905090565b6200015e82826200016260201b60201c565b5050565b6200019181600160008581526020019081526020016000206000016200020660201b62001d3c1790919060201c565b156200020257620001a76200014460201b60201c565b73ffffffffffffffffffffffffffffffffffffffff168173ffffffffffffffffffffffffffffffffffffffff16837f2f8788117e7eff1d82e926ec794901d17c78024a50270940304540a733656f0d60405160405180910390a45b5050565b600062000236836000018373ffffffffffffffffffffffffffffffffffffffff1660001b6200023e60201b60201c565b905092915050565b6000620002528383620002b860201b60201c565b620002ad578260000182908060018154018082558091505060019003906000526020600020016000909190919091505582600001805490508360010160008481526020019081526020016000208190555060019050620002b2565b600090505b92915050565b600080836001016000848152602001908152602001600020541415905092915050565b600081519050620002ec8162000352565b92915050565b6000602082840312156200030557600080fd5b60006200031584828501620002db565b91505092915050565b60006200032b8262000332565b9050919050565b600073ffffffffffffffffffffffffffffffffffffffff82169050919050565b6200035d816200031e565b81146200036957600080fd5b50565b612fd6806200037c6000396000f3fe608060405234801561001057600080fd5b50600436106101735760003560e01c8063869cd0c1116100de578063bf04a10d11610097578063d547741f11610071578063d547741f14610412578063ee1bf5db1461042e578063f2fde38b1461044c578063fd4a74a11461046857610173565b8063bf04a10d146103a6578063ca15c873146103c4578063caebb991146103f457610173565b8063869cd0c1146102d05780638da5cb5b146102ee5780639010d07c1461030c57806391d148541461033c578063a217fddf1461036c578063ab7cc4d21461038a57610173565b8063553bae6411610130578063553bae641461023657806356164e1e146102545780635c91e17e14610270578063607360d31461028e5780636bf7e0bb146102aa578063715018a6146102c657610173565b80631d5ad45b146101785780631f79ec0914610194578063248a9ca3146101b0578063283e8442146101e05780632f2ff15d146101fe57806336568abe1461021a575b600080fd5b610192600480360381019061018d91906123fa565b610486565b005b6101ae60048036038101906101a991906123fa565b610548565b005b6101ca60048036038101906101c59190612464565b61060a565b6040516101d79190612bc6565b60405180910390f35b6101e861062a565b6040516101f59190612bc6565b60405180910390f35b6102186004803603810190610213919061248d565b61064e565b005b610234600480360381019061022f919061248d565b6106c2565b005b61023e610745565b60405161024b9190612be1565b60405180910390f35b61026e60048036038101906102699190612546565b610782565b005b610278610aef565b6040516102859190612be1565b60405180910390f35b6102a860048036038101906102a391906123fa565b610db8565b005b6102c460048036038101906102bf91906123fa565b610e7a565b005b6102ce610f3c565b005b6102d861108f565b6040516102e59190612be1565b60405180910390f35b6102f6611161565b6040516103039190612b6e565b60405180910390f35b610326600480360381019061032191906124c9565b61118a565b6040516103339190612b6e565b60405180910390f35b6103566004803603810190610351919061248d565b6111bc565b6040516103639190612bab565b60405180910390f35b6103746111ee565b6040516103819190612bc6565b60405180910390f35b6103a4600480360381019061039f919061256f565b6111f5565b005b6103ae61148b565b6040516103bb9190612be1565b60405180910390f35b6103de60048036038101906103d99190612464565b6115f0565b6040516103eb9190612d03565b60405180910390f35b6103fc611617565b6040516104099190612b89565b60405180910390f35b61042c6004803603810190610427919061248d565b611a3c565b005b610436611ab0565b6040516104439190612bc6565b60405180910390f35b610466600480360381019061046191906123fa565b611ad4565b005b610470611c96565b60405161047d9190612be1565b60405180910390f35b61048e611d6c565b73ffffffffffffffffffffffffffffffffffffffff1660008054906101000a900473ffffffffffffffffffffffffffffffffffffffff1673ffffffffffffffffffffffffffffffffffffffff161461051b576040517f08c379a000000000000000000000000000000000000000000000000000000000815260040161051290612ca3565b60405180910390fd5b6105457f60b176c013bc5f6a4aaf9c1455cc3ff5e7ee54daffb41be2fd0e50b804acad428261064e565b50565b610550611d6c565b73ffffffffffffffffffffffffffffffffffffffff1660008054906101000a900473ffffffffffffffffffffffffffffffffffffffff1673ffffffffffffffffffffffffffffffffffffffff16146105dd576040517f08c379a00000000000000000000000000000000000000000000000000000000081526004016105d490612ca3565b60405180910390fd5b6106077f238cc277b81124817de0fb6e725dfaca359442ead042cbf4fa5a5d15a441d45482611a3c565b50565b600060016000838152602001908152602001600020600201549050919050565b7f60b176c013bc5f6a4aaf9c1455cc3ff5e7ee54daffb41be2fd0e50b804acad4281565b6106756001600084815260200190815260200160002060020154610670611d6c565b6111bc565b6106b4576040517f08c379a00000000000000000000000000000000000000000000000000000000081526004016106ab90612c43565b60405180910390fd5b6106be8282611d74565b5050565b6106ca611d6c565b73ffffffffffffffffffffffffffffffffffffffff168173ffffffffffffffffffffffffffffffffffffffff1614610737576040517f08c379a000000000000000000000000000000000000000000000000000000000815260040161072e90612ce3565b60405180910390fd5b6107418282611e08565b5050565b60606040518060400160405280600f81526020017f48692066726f6d2043616c417574680000000000000000000000000000000000815250905090565b7f238cc277b81124817de0fb6e725dfaca359442ead042cbf4fa5a5d15a441d45480811415610933576107b86000801b336111bc565b806107e957506107e87f238cc277b81124817de0fb6e725dfaca359442ead042cbf4fa5a5d15a441d454336111bc565b5b610828576040517f08c379a000000000000000000000000000000000000000000000000000000000815260040161081f90612c23565b60405180910390fd5b6108356000801b336111bc565b8061086657506108657f238cc277b81124817de0fb6e725dfaca359442ead042cbf4fa5a5d15a441d454336111bc565b5b6108a5576040517f08c379a000000000000000000000000000000000000000000000000000000000815260040161089c90612c23565b60405180910390fd5b600260009054906101000a900473ffffffffffffffffffffffffffffffffffffffff1673ffffffffffffffffffffffffffffffffffffffff166356164e1e836040518263ffffffff1660e01b81526004016109009190612d03565b600060405180830381600087803b15801561091a57600080fd5b505af115801561092e573d6000803e3d6000fd5b505050505b6109406000801b336111bc565b8061097157506109707f238cc277b81124817de0fb6e725dfaca359442ead042cbf4fa5a5d15a441d454336111bc565b5b806109a257506109a17f60b176c013bc5f6a4aaf9c1455cc3ff5e7ee54daffb41be2fd0e50b804acad42336111bc565b5b6109e1576040517f08c379a00000000000000000000000000000000000000000000000000000000081526004016109d890612c23565b60405180910390fd5b6109ee6000801b336111bc565b80610a1f5750610a1e7f238cc277b81124817de0fb6e725dfaca359442ead042cbf4fa5a5d15a441d454336111bc565b5b610a5e576040517f08c379a0000000000000000000000000000000000000000000000000000000008152600401610a5590612c23565b60405180910390fd5b600260009054906101000a900473ffffffffffffffffffffffffffffffffffffffff1673ffffffffffffffffffffffffffffffffffffffff166356164e1e836040518263ffffffff1660e01b8152600401610ab99190612d03565b600060405180830381600087803b158015610ad357600080fd5b505af1158015610ae7573d6000803e3d6000fd5b505050505050565b60607f60b176c013bc5f6a4aaf9c1455cc3ff5e7ee54daffb41be2fd0e50b804acad427f238cc277b81124817de0fb6e725dfaca359442ead042cbf4fa5a5d15a441d454811415610c5f57610b476000801b336111bc565b80610b785750610b777f238cc277b81124817de0fb6e725dfaca359442ead042cbf4fa5a5d15a441d454336111bc565b5b610bb7576040517f08c379a0000000000000000000000000000000000000000000000000000000008152600401610bae90612c23565b60405180910390fd5b600260009054906101000a900473ffffffffffffffffffffffffffffffffffffffff1673ffffffffffffffffffffffffffffffffffffffff16635c91e17e6040518163ffffffff1660e01b815260040160006040518083038186803b158015610c1f57600080fd5b505afa158015610c33573d6000803e3d6000fd5b505050506040513d6000823e3d601f19601f82011682018060405250810190610c5c9190612505565b91505b610c6c6000801b336111bc565b80610c9d5750610c9c7f238cc277b81124817de0fb6e725dfaca359442ead042cbf4fa5a5d15a441d454336111bc565b5b80610cce5750610ccd7f60b176c013bc5f6a4aaf9c1455cc3ff5e7ee54daffb41be2fd0e50b804acad42336111bc565b5b610d0d576040517f08c379a0000000000000000000000000000000000000000000000000000000008152600401610d0490612c23565b60405180910390fd5b600260009054906101000a900473ffffffffffffffffffffffffffffffffffffffff1673ffffffffffffffffffffffffffffffffffffffff16635c91e17e6040518163ffffffff1660e01b815260040160006040518083038186803b158015610d7557600080fd5b505afa158015610d89573d6000803e3d6000fd5b505050506040513d6000823e3d601f19601f82011682018060405250810190610db29190612505565b91505090565b610dc0611d6c565b73ffffffffffffffffffffffffffffffffffffffff1660008054906101000a900473ffffffffffffffffffffffffffffffffffffffff1673ffffffffffffffffffffffffffffffffffffffff1614610e4d576040517f08c379a0000000000000000000000000000000000000000000000000000000008152600401610e4490612ca3565b60405180910390fd5b610e777f60b176c013bc5f6a4aaf9c1455cc3ff5e7ee54daffb41be2fd0e50b804acad4282611a3c565b50565b610e82611d6c565b73ffffffffffffffffffffffffffffffffffffffff1660008054906101000a900473ffffffffffffffffffffffffffffffffffffffff1673ffffffffffffffffffffffffffffffffffffffff1614610f0f576040517f08c379a0000000000000000000000000000000000000000000000000000000008152600401610f0690612ca3565b60405180910390fd5b610f397f238cc277b81124817de0fb6e725dfaca359442ead042cbf4fa5a5d15a441d4548261064e565b50565b610f44611d6c565b73ffffffffffffffffffffffffffffffffffffffff1660008054906101000a900473ffffffffffffffffffffffffffffffffffffffff1673ffffffffffffffffffffffffffffffffffffffff1614610fd1576040517f08c379a0000000000000000000000000000000000000000000000000000000008152600401610fc890612ca3565b60405180910390fd5b600073ffffffffffffffffffffffffffffffffffffffff1660008054906101000a900473ffffffffffffffffffffffffffffffffffffffff1673ffffffffffffffffffffffffffffffffffffffff167f8be0079c531659141344cd1fd0a4f28419497f9722a3daafe3b4186f6b6457e060405160405180910390a360008060006101000a81548173ffffffffffffffffffffffffffffffffffffffff021916908373ffffffffffffffffffffffffffffffffffffffff160217905550565b6060611099611d6c565b73ffffffffffffffffffffffffffffffffffffffff1660008054906101000a900473ffffffffffffffffffffffffffffffffffffffff1673ffffffffffffffffffffffffffffffffffffffff1614611126576040517f08c379a000000000000000000000000000000000000000000000000000000000815260040161111d90612ca3565b60405180910390fd5b6040518060400160405280600d81526020017f57656c636f6d65206f776e657200000000000000000000000000000000000000815250905090565b60008060009054906101000a900473ffffffffffffffffffffffffffffffffffffffff16905090565b60006111b48260016000868152602001908152602001600020600001611e9c90919063ffffffff16565b905092915050565b60006111e68260016000868152602001908152602001600020600001611eb690919063ffffffff16565b905092915050565b6000801b81565b7f238cc277b81124817de0fb6e725dfaca359442ead042cbf4fa5a5d15a441d454808114156113375761122b6000801b336111bc565b8061125c575061125b7f238cc277b81124817de0fb6e725dfaca359442ead042cbf4fa5a5d15a441d454336111bc565b5b61129b576040517f08c379a000000000000000000000000000000000000000000000000000000000815260040161129290612c23565b60405180910390fd5b600260009054906101000a900473ffffffffffffffffffffffffffffffffffffffff1673ffffffffffffffffffffffffffffffffffffffff1663ab7cc4d28a8a8a8a8a8a8a8a6040518963ffffffff1660e01b8152600401611304989796959493929190612d1e565b600060405180830381600087803b15801561131e57600080fd5b505af1158015611332573d6000803e3d6000fd5b505050505b6113446000801b336111bc565b8061137557506113747f238cc277b81124817de0fb6e725dfaca359442ead042cbf4fa5a5d15a441d454336111bc565b5b806113a657506113a57f60b176c013bc5f6a4aaf9c1455cc3ff5e7ee54daffb41be2fd0e50b804acad42336111bc565b5b6113e5576040517f08c379a00000000000000000000000000000000000000000000000000000000081526004016113dc90612c23565b60405180910390fd5b600260009054906101000a900473ffffffffffffffffffffffffffffffffffffffff1673ffffffffffffffffffffffffffffffffffffffff1663ab7cc4d28a8a8a8a8a8a8a8a6040518963ffffffff1660e01b815260040161144e989796959493929190612d1e565b600060405180830381600087803b15801561146857600080fd5b505af115801561147c573d6000803e3d6000fd5b50505050505050505050505050565b606061149a6000801b336111bc565b156114dc576040518060400160405280600581526020017f41444d494e00000000000000000000000000000000000000000000000000000081525090506115ed565b6115067f238cc277b81124817de0fb6e725dfaca359442ead042cbf4fa5a5d15a441d454336111bc565b15611548576040518060400160405280600f81526020017f555345525f57524954455f524f4c45000000000000000000000000000000000081525090506115ed565b6115727f60b176c013bc5f6a4aaf9c1455cc3ff5e7ee54daffb41be2fd0e50b804acad42336111bc565b156115b4576040518060400160405280600e81526020017f555345525f524541445f524f4c4500000000000000000000000000000000000081525090506115ed565b6040518060400160405280600381526020017f4e494c000000000000000000000000000000000000000000000000000000000081525090505b90565b600061161060016000848152602001908152602001600020600001611ee6565b9050919050565b60607f60b176c013bc5f6a4aaf9c1455cc3ff5e7ee54daffb41be2fd0e50b804acad427f238cc277b81124817de0fb6e725dfaca359442ead042cbf4fa5a5d15a441d4548114156118355761166f6000801b336111bc565b806116a0575061169f7f238cc277b81124817de0fb6e725dfaca359442ead042cbf4fa5a5d15a441d454336111bc565b5b6116df576040517f08c379a00000000000000000000000000000000000000000000000000000000081526004016116d690612c23565b60405180910390fd5b6116ec6000801b336111bc565b8061171d575061171c7f238cc277b81124817de0fb6e725dfaca359442ead042cbf4fa5a5d15a441d454336111bc565b5b8061174e575061174d7f60b176c013bc5f6a4aaf9c1455cc3ff5e7ee54daffb41be2fd0e50b804acad42336111bc565b5b61178d576040517f08c379a000000000000000000000000000000000000000000000000000000000815260040161178490612c23565b60405180910390fd5b600260009054906101000a900473ffffffffffffffffffffffffffffffffffffffff1673ffffffffffffffffffffffffffffffffffffffff1663caebb9916040518163ffffffff1660e01b815260040160006040518083038186803b1580156117f557600080fd5b505afa158015611809573d6000803e3d6000fd5b505050506040513d6000823e3d601f19601f820116820180604052508101906118329190612423565b91505b6118426000801b336111bc565b8061187357506118727f238cc277b81124817de0fb6e725dfaca359442ead042cbf4fa5a5d15a441d454336111bc565b5b806118a457506118a37f60b176c013bc5f6a4aaf9c1455cc3ff5e7ee54daffb41be2fd0e50b804acad42336111bc565b5b6118e3576040517f08c379a00000000000000000000000000000000000000000000000000000000081526004016118da90612c23565b60405180910390fd5b6118f06000801b336111bc565b8061192157506119207f238cc277b81124817de0fb6e725dfaca359442ead042cbf4fa5a5d15a441d454336111bc565b5b8061195257506119517f60b176c013bc5f6a4aaf9c1455cc3ff5e7ee54daffb41be2fd0e50b804acad42336111bc565b5b611991576040517f08c379a000000000000000000000000000000000000000000000000000000000815260040161198890612c23565b60405180910390fd5b600260009054906101000a900473ffffffffffffffffffffffffffffffffffffffff1673ffffffffffffffffffffffffffffffffffffffff1663caebb9916040518163ffffffff1660e01b815260040160006040518083038186803b1580156119f957600080fd5b505afa158015611a0d573d6000803e3d6000fd5b505050506040513d6000823e3d601f19601f82011682018060405250810190611a369190612423565b91505090565b611a636001600084815260200190815260200160002060020154611a5e611d6c565b6111bc565b611aa2576040517f08c379a0000000000000000000000000000000000000000000000000000000008152600401611a9990612c83565b60405180910390fd5b611aac8282611e08565b5050565b7f238cc277b81124817de0fb6e725dfaca359442ead042cbf4fa5a5d15a441d45481565b611adc611d6c565b73ffffffffffffffffffffffffffffffffffffffff1660008054906101000a900473ffffffffffffffffffffffffffffffffffffffff1673ffffffffffffffffffffffffffffffffffffffff1614611b69576040517f08c379a0000000000000000000000000000000000000000000000000000000008152600401611b6090612ca3565b60405180910390fd5b600073ffffffffffffffffffffffffffffffffffffffff168173ffffffffffffffffffffffffffffffffffffffff161415611bd9576040517f08c379a0000000000000000000000000000000000000000000000000000000008152600401611bd090612c63565b60405180910390fd5b8073ffffffffffffffffffffffffffffffffffffffff1660008054906101000a900473ffffffffffffffffffffffffffffffffffffffff1673ffffffffffffffffffffffffffffffffffffffff167f8be0079c531659141344cd1fd0a4f28419497f9722a3daafe3b4186f6b6457e060405160405180910390a3806000806101000a81548173ffffffffffffffffffffffffffffffffffffffff021916908373ffffffffffffffffffffffffffffffffffffffff16021790555050565b6060611cc27f60b176c013bc5f6a4aaf9c1455cc3ff5e7ee54daffb41be2fd0e50b804acad42336111bc565b611d01576040517f08c379a0000000000000000000000000000000000000000000000000000000008152600401611cf890612cc3565b60405180910390fd5b6040518060400160405280601681526020017f57656c636f6d652072656164206f6e6c79207573657200000000000000000000815250905090565b6000611d64836000018373ffffffffffffffffffffffffffffffffffffffff1660001b611efb565b905092915050565b600033905090565b611d9c8160016000858152602001908152602001600020600001611d3c90919063ffffffff16565b15611e0457611da9611d6c565b73ffffffffffffffffffffffffffffffffffffffff168173ffffffffffffffffffffffffffffffffffffffff16837f2f8788117e7eff1d82e926ec794901d17c78024a50270940304540a733656f0d60405160405180910390a45b5050565b611e308160016000858152602001908152602001600020600001611f6b90919063ffffffff16565b15611e9857611e3d611d6c565b73ffffffffffffffffffffffffffffffffffffffff168173ffffffffffffffffffffffffffffffffffffffff16837ff6391f5c32d9c69d2a47ea670b442974b53935d1edc7fd64eb21e047a839171b60405160405180910390a45b5050565b6000611eab8360000183611f9b565b60001c905092915050565b6000611ede836000018373ffffffffffffffffffffffffffffffffffffffff1660001b612008565b905092915050565b6000611ef48260000161202b565b9050919050565b6000611f078383612008565b611f60578260000182908060018154018082558091505060019003906000526020600020016000909190919091505582600001805490508360010160008481526020019081526020016000208190555060019050611f65565b600090505b92915050565b6000611f93836000018373ffffffffffffffffffffffffffffffffffffffff1660001b61203c565b905092915050565b600081836000018054905011611fe6576040517f08c379a0000000000000000000000000000000000000000000000000000000008152600401611fdd90612c03565b60405180910390fd5b826000018281548110611ff557fe5b9060005260206000200154905092915050565b600080836001016000848152602001908152602001600020541415905092915050565b600081600001805490509050919050565b60008083600101600084815260200190815260200160002054905060008114612118576000600182039050600060018660000180549050039050600086600001828154811061208757fe5b90600052602060002001549050808760000184815481106120a457fe5b90600052602060002001819055506001830187600101600083815260200190815260200160002081905550866000018054806120dc57fe5b6001900381819060005260206000200160009055905586600101600087815260200190815260200160002060009055600194505050505061211e565b60009150505b92915050565b60008135905061213381612f44565b92915050565b600082601f83011261214a57600080fd5b815161215d61215882612de5565b612db8565b9150818183526020840193506020810190508360005b838110156121a357815186016121898882612294565b845260208401935060208301925050600181019050612173565b5050505092915050565b6000813590506121bc81612f5b565b92915050565b6000815190506121d181612f5b565b92915050565b6000813590506121e681612f72565b92915050565b600082601f8301126121fd57600080fd5b813561221061220b82612e0d565b612db8565b9150808252602083016020830185838301111561222c57600080fd5b612237838284612ef1565b50505092915050565b600082601f83011261225157600080fd5b815161226461225f82612e0d565b612db8565b9150808252602083016020830185838301111561228057600080fd5b61228b838284612f00565b50505092915050565b600061012082840312156122a757600080fd5b6122b2610120612db8565b905060006122c2848285016123e5565b60008301525060206122d6848285016123e5565b60208301525060406122ea848285016123e5565b604083015250606082015167ffffffffffffffff81111561230a57600080fd5b61231684828501612240565b606083015250608082015167ffffffffffffffff81111561233657600080fd5b61234284828501612240565b60808301525060a0612356848285016121c2565b60a08301525060c082015167ffffffffffffffff81111561237657600080fd5b61238284828501612240565b60c08301525060e082015167ffffffffffffffff8111156123a257600080fd5b6123ae84828501612240565b60e0830152506101006123c3848285016123e5565b6101008301525092915050565b6000813590506123df81612f89565b92915050565b6000815190506123f481612f89565b92915050565b60006020828403121561240c57600080fd5b600061241a84828501612124565b91505092915050565b60006020828403121561243557600080fd5b600082015167ffffffffffffffff81111561244f57600080fd5b61245b84828501612139565b91505092915050565b60006020828403121561247657600080fd5b6000612484848285016121d7565b91505092915050565b600080604083850312156124a057600080fd5b60006124ae858286016121d7565b92505060206124bf85828601612124565b9150509250929050565b600080604083850312156124dc57600080fd5b60006124ea858286016121d7565b92505060206124fb858286016123d0565b9150509250929050565b60006020828403121561251757600080fd5b600082015167ffffffffffffffff81111561253157600080fd5b61253d84828501612240565b91505092915050565b60006020828403121561255857600080fd5b6000612566848285016123d0565b91505092915050565b600080600080600080600080610100898b03121561258c57600080fd5b600061259a8b828c016123d0565b98505060206125ab8b828c016123d0565b97505060406125bc8b828c016123d0565b965050606089013567ffffffffffffffff8111156125d957600080fd5b6125e58b828c016121ec565b955050608089013567ffffffffffffffff81111561260257600080fd5b61260e8b828c016121ec565b94505060a061261f8b828c016121ad565b93505060c089013567ffffffffffffffff81111561263c57600080fd5b6126488b828c016121ec565b92505060e089013567ffffffffffffffff81111561266557600080fd5b6126718b828c016121ec565b9150509295985092959890939650565b600061268d8383612a76565b905092915050565b61269e81612e9f565b82525050565b60006126af82612e49565b6126b98185612e6c565b9350836020820285016126cb85612e39565b8060005b8581101561270757848403895281516126e88582612681565b94506126f383612e5f565b925060208a019950506001810190506126cf565b50829750879550505050505092915050565b61272281612eb1565b82525050565b61273181612eb1565b82525050565b61274081612ebd565b82525050565b600061275182612e54565b61275b8185612e7d565b935061276b818560208601612f00565b61277481612f33565b840191505092915050565b600061278a82612e54565b6127948185612e8e565b93506127a4818560208601612f00565b6127ad81612f33565b840191505092915050565b60006127c5602283612e8e565b91507f456e756d657261626c655365743a20696e646578206f7574206f6620626f756e60008301527f64730000000000000000000000000000000000000000000000000000000000006020830152604082019050919050565b600061282b601383612e8e565b91507f55736572206e6f7420617574686f7269736564000000000000000000000000006000830152602082019050919050565b600061286b602f83612e8e565b91507f416363657373436f6e74726f6c3a2073656e646572206d75737420626520616e60008301527f2061646d696e20746f206772616e7400000000000000000000000000000000006020830152604082019050919050565b60006128d1602683612e8e565b91507f4f776e61626c653a206e6577206f776e657220697320746865207a65726f206160008301527f64647265737300000000000000000000000000000000000000000000000000006020830152604082019050919050565b6000612937603083612e8e565b91507f416363657373436f6e74726f6c3a2073656e646572206d75737420626520616e60008301527f2061646d696e20746f207265766f6b65000000000000000000000000000000006020830152604082019050919050565b600061299d602083612e8e565b91507f4f776e61626c653a2063616c6c6572206973206e6f7420746865206f776e65726000830152602082019050919050565b60006129dd601d83612e8e565b91507f536f72727920796f7520617265206e6f742061205245414420757365720000006000830152602082019050919050565b6000612a1d602f83612e8e565b91507f416363657373436f6e74726f6c3a2063616e206f6e6c792072656e6f756e636560008301527f20726f6c657320666f722073656c6600000000000000000000000000000000006020830152604082019050919050565b600061012083016000830151612a8f6000860182612b50565b506020830151612aa26020860182612b50565b506040830151612ab56040860182612b50565b5060608301518482036060860152612acd8282612746565b91505060808301518482036080860152612ae78282612746565b91505060a0830151612afc60a0860182612719565b5060c083015184820360c0860152612b148282612746565b91505060e083015184820360e0860152612b2e8282612746565b915050610100830151612b45610100860182612b50565b508091505092915050565b612b5981612ee7565b82525050565b612b6881612ee7565b82525050565b6000602082019050612b836000830184612695565b92915050565b60006020820190508181036000830152612ba381846126a4565b905092915050565b6000602082019050612bc06000830184612728565b92915050565b6000602082019050612bdb6000830184612737565b92915050565b60006020820190508181036000830152612bfb818461277f565b905092915050565b60006020820190508181036000830152612c1c816127b8565b9050919050565b60006020820190508181036000830152612c3c8161281e565b9050919050565b60006020820190508181036000830152612c5c8161285e565b9050919050565b60006020820190508181036000830152612c7c816128c4565b9050919050565b60006020820190508181036000830152612c9c8161292a565b9050919050565b60006020820190508181036000830152612cbc81612990565b9050919050565b60006020820190508181036000830152612cdc816129d0565b9050919050565b60006020820190508181036000830152612cfc81612a10565b9050919050565b6000602082019050612d186000830184612b5f565b92915050565b600061010082019050612d34600083018b612b5f565b612d41602083018a612b5f565b612d4e6040830189612b5f565b8181036060830152612d60818861277f565b90508181036080830152612d74818761277f565b9050612d8360a0830186612728565b81810360c0830152612d95818561277f565b905081810360e0830152612da9818461277f565b90509998505050505050505050565b6000604051905081810181811067ffffffffffffffff82111715612ddb57600080fd5b8060405250919050565b600067ffffffffffffffff821115612dfc57600080fd5b602082029050602081019050919050565b600067ffffffffffffffff821115612e2457600080fd5b601f19601f8301169050602081019050919050565b6000819050602082019050919050565b600081519050919050565b600081519050919050565b6000602082019050919050565b600082825260208201905092915050565b600082825260208201905092915050565b600082825260208201905092915050565b6000612eaa82612ec7565b9050919050565b60008115159050919050565b6000819050919050565b600073ffffffffffffffffffffffffffffffffffffffff82169050919050565b6000819050919050565b82818337600083830152505050565b60005b83811015612f1e578082015181840152602081019050612f03565b83811115612f2d576000848401525b50505050565b6000601f19601f8301169050919050565b612f4d81612e9f565b8114612f5857600080fd5b50565b612f6481612eb1565b8114612f6f57600080fd5b50565b612f7b81612ebd565b8114612f8657600080fd5b50565b612f9281612ee7565b8114612f9d57600080fd5b5056fea26469706673582212201d5b4227ee828e8cb9b37338ba18aefe33aec7b5e4097a3480957428bace1c9764736f6c634300060c0033",
  "immutableReferences": {},
  "source": "// SPDX-License-Identifier: MIT\npragma solidity ^0.6.0;\npragma experimental ABIEncoderV2;\n\nimport \"@openzeppelin/contracts/access/AccessControl.sol\";\nimport \"@openzeppelin/contracts/access/Ownable.sol\";\nimport \"./CalStore.sol\";\nimport \"./VEventLibrary.sol\";\n\ncontract CalAuth is Ownable, AccessControl {\n    using VEventLibrary for VEventLibrary.VEvent;\n\n    bytes32 public constant USER_READ_ROLE = keccak256(\"USER_READ_ROLE\");\n    bytes32 public constant USER_WRITE_ROLE = keccak256(\"USER_WRITE_ROLE\");\n    CalStore private calStore;\n\n    constructor(address _addr) public {\n        _setupRole(DEFAULT_ADMIN_ROLE, msg.sender);\n        calStore = CalStore(_addr);\n    }\n\n    modifier onlyRole(bytes32 _role) {\n        if (_role == USER_WRITE_ROLE) {\n            require(\n                hasRole(DEFAULT_ADMIN_ROLE, msg.sender) ||\n                hasRole(USER_WRITE_ROLE, msg.sender),\n                \"User not authorised\");\n            _;\n        }\n        require(\n            hasRole(DEFAULT_ADMIN_ROLE, msg.sender) ||\n            hasRole(USER_WRITE_ROLE, msg.sender) ||\n            hasRole(USER_READ_ROLE, msg.sender),\n            \"User not authorised\");\n        _;\n    }\n\n    function storeEvent(\n        uint _dtstamp,\n        uint _dtstart,\n        uint _dtend,\n        string memory _summary,\n        string memory _description,\n        bool _isallday,\n        string memory _alldaystartdate,\n        string memory _alldayenddate)\n        public onlyRole(USER_WRITE_ROLE)\n        {\n        calStore.storeEvent(\n            _dtstamp, _dtstart, _dtend,\n            _summary, _description,\n            _isallday, _alldaystartdate,\n            _alldayenddate);\n    }\n\n    function removeEvent(uint _dtstamp) public onlyRole(USER_WRITE_ROLE) {\n        require(\n            hasRole(DEFAULT_ADMIN_ROLE, msg.sender) ||\n            hasRole(USER_WRITE_ROLE, msg.sender),\n            \"User not authorised\");\n        calStore.removeEvent(_dtstamp);\n    }\n\n    function getEventsIcal() public view onlyRole(USER_READ_ROLE) returns (\n        string memory) {\n        return calStore.getEventsIcal();\n    }\n\n    function getEventsObj() public view onlyRole(USER_READ_ROLE) returns (\n        VEventLibrary.VEvent[] memory) {\n        require(\n            hasRole(DEFAULT_ADMIN_ROLE, msg.sender) ||\n            hasRole(USER_WRITE_ROLE, msg.sender) ||\n            hasRole(USER_READ_ROLE, msg.sender),\n            \"User not authorised\");\n        return calStore.getEventsObj();\n    }\n\n\n    /// @notice Returns role of msg.sender\n    /// @dev Returns in hierarchial order, e.g. ADMIN more important than READ etc\n    /// @return string user role\n    function getUserRole() public view returns (string memory) {\n        if (hasRole(DEFAULT_ADMIN_ROLE, msg.sender)) {\n            return \"ADMIN\";\n        } else if (hasRole(USER_WRITE_ROLE, msg.sender)) {\n            return \"USER_WRITE_ROLE\";\n        } else if (hasRole(USER_READ_ROLE, msg.sender)) {\n            return \"USER_READ_ROLE\";\n        }\n        return \"NIL\";\n    }\n\n    //TODO: Delete, not used\n    function addRead(address userAddress) public onlyOwner {\n        grantRole(USER_READ_ROLE, userAddress);\n    }\n\n    //TODO: Delete, not used\n    function addWrite(address userAddress) public onlyOwner {\n        grantRole(USER_WRITE_ROLE, userAddress);\n    }\n\n    //TODO: Delete, not used\n    function revokeRead(address userAddress) public onlyOwner {\n        revokeRole(USER_READ_ROLE, userAddress);\n    }\n\n    //TODO: Delete, not used\n    function revokeWrite(address userAddress) public onlyOwner {\n        revokeRole(USER_WRITE_ROLE, userAddress);\n    }\n\n    function userReadWelcomeString() public view returns (string memory) {\n        require(hasRole(USER_READ_ROLE, msg.sender), \"Sorry you are not a READ user\");\n        return \"Welcome read only user\";\n    }\n\n    function ownerWelcomeString() public onlyOwner view returns (string memory) {\n        return \"Welcome owner\";\n    }\n\n    function justSayHiCalAuth() public pure returns (string memory) {\n        return \"Hi from CalAuth\";\n    }\n}\n\n// CalAuth.deployed().then(function(instance) {app = instance})\n// let accounts = await web3.eth.getAccounts()\n// app.ownerWelcomeString()\n// app.addRead(\"0x918FD928864B6c0fFf58829Ccd7f92B0020Ae68B\", {from: accounts[1]});\n// app.addRead(accounts[1]);\n// app.userReadWelcomeString({from: accounts[1]});\n// app.hasRole(\"USER_READ_ROLE\",accounts[1]);\n\n\n\n// hashed = await web3.utils.keccak256(\"USER_READ_ROLE\")\n// undefined\n// app.hasRole(hashed,accounts[1]);\n// true\n// app.getRoleMemberCount(hashed);\n// BN { negative: 0, words: [ 1, <1 empty item> ], length: 1, red: null }\n\n// app.getRoleMember(hashed, 0)\n",
  "sourcePath": "/home/gene/Programming/Websites/Precious_Chicken_Website/blog_code_demos/forget-me-block-cal-auth/contracts/CalAuth.sol",
  "compiler": {
    "name": "solc",
    "version": "0.6.12+commit.27d51765.Emscripten.clang"
  },
  "schemaVersion": "3.2.3",
  "updatedAt": "2020-08-15T20:35:51.425Z",
  "networkType": "ethereum",
  "devdoc": {
    "kind": "dev",
    "methods": {
      "getRoleAdmin(bytes32)": {
        "details": "Returns the admin role that controls `role`. See {grantRole} and {revokeRole}. To change a role's admin, use {_setRoleAdmin}."
      },
      "getRoleMember(bytes32,uint256)": {
        "details": "Returns one of the accounts that have `role`. `index` must be a value between 0 and {getRoleMemberCount}, non-inclusive. Role bearers are not sorted in any particular way, and their ordering may change at any point. WARNING: When using {getRoleMember} and {getRoleMemberCount}, make sure you perform all queries on the same block. See the following https://forum.openzeppelin.com/t/iterating-over-elements-on-enumerableset-in-openzeppelin-contracts/2296[forum post] for more information."
      },
      "getRoleMemberCount(bytes32)": {
        "details": "Returns the number of accounts that have `role`. Can be used together with {getRoleMember} to enumerate all bearers of a role."
      },
      "getUserRole()": {
        "details": "Returns in hierarchial order, e.g. ADMIN more important than READ etc",
        "returns": {
          "_0": "string user role"
        }
      },
      "grantRole(bytes32,address)": {
        "details": "Grants `role` to `account`. If `account` had not been already granted `role`, emits a {RoleGranted} event. Requirements: - the caller must have ``role``'s admin role."
      },
      "hasRole(bytes32,address)": {
        "details": "Returns `true` if `account` has been granted `role`."
      },
      "owner()": {
        "details": "Returns the address of the current owner."
      },
      "renounceOwnership()": {
        "details": "Leaves the contract without owner. It will not be possible to call `onlyOwner` functions anymore. Can only be called by the current owner. NOTE: Renouncing ownership will leave the contract without an owner, thereby removing any functionality that is only available to the owner."
      },
      "renounceRole(bytes32,address)": {
        "details": "Revokes `role` from the calling account. Roles are often managed via {grantRole} and {revokeRole}: this function's purpose is to provide a mechanism for accounts to lose their privileges if they are compromised (such as when a trusted device is misplaced). If the calling account had been granted `role`, emits a {RoleRevoked} event. Requirements: - the caller must be `account`."
      },
      "revokeRole(bytes32,address)": {
        "details": "Revokes `role` from `account`. If `account` had been granted `role`, emits a {RoleRevoked} event. Requirements: - the caller must have ``role``'s admin role."
      },
      "transferOwnership(address)": {
        "details": "Transfers ownership of the contract to a new account (`newOwner`). Can only be called by the current owner."
      }
    },
    "version": 1
  },
  "userdoc": {
    "kind": "user",
    "methods": {
      "getUserRole()": {
        "notice": "Returns role of msg.sender"
      }
    },
    "version": 1
  }
}