{
  "contractName": "CalAuth",
  "abi": [
    {
      "inputs": [
        {
          "internalType": "address",
          "name": "_addr",
          "type": "address"
        }
      ],
      "stateMutability": "nonpayable",
      "type": "constructor"
    },
    {
      "anonymous": false,
      "inputs": [
        {
          "indexed": true,
          "internalType": "address",
          "name": "previousOwner",
          "type": "address"
        },
        {
          "indexed": true,
          "internalType": "address",
          "name": "newOwner",
          "type": "address"
        }
      ],
      "name": "OwnershipTransferred",
      "type": "event"
    },
    {
      "anonymous": false,
      "inputs": [
        {
          "indexed": true,
          "internalType": "bytes32",
          "name": "role",
          "type": "bytes32"
        },
        {
          "indexed": true,
          "internalType": "bytes32",
          "name": "previousAdminRole",
          "type": "bytes32"
        },
        {
          "indexed": true,
          "internalType": "bytes32",
          "name": "newAdminRole",
          "type": "bytes32"
        }
      ],
      "name": "RoleAdminChanged",
      "type": "event"
    },
    {
      "anonymous": false,
      "inputs": [
        {
          "indexed": true,
          "internalType": "bytes32",
          "name": "role",
          "type": "bytes32"
        },
        {
          "indexed": true,
          "internalType": "address",
          "name": "account",
          "type": "address"
        },
        {
          "indexed": true,
          "internalType": "address",
          "name": "sender",
          "type": "address"
        }
      ],
      "name": "RoleGranted",
      "type": "event"
    },
    {
      "anonymous": false,
      "inputs": [
        {
          "indexed": true,
          "internalType": "bytes32",
          "name": "role",
          "type": "bytes32"
        },
        {
          "indexed": true,
          "internalType": "address",
          "name": "account",
          "type": "address"
        },
        {
          "indexed": true,
          "internalType": "address",
          "name": "sender",
          "type": "address"
        }
      ],
      "name": "RoleRevoked",
      "type": "event"
    },
    {
      "inputs": [],
      "name": "ADMIN",
      "outputs": [
        {
          "internalType": "bytes32",
          "name": "",
          "type": "bytes32"
        }
      ],
      "stateMutability": "view",
      "type": "function",
      "constant": true
    },
    {
      "inputs": [],
      "name": "DEFAULT_ADMIN_ROLE",
      "outputs": [
        {
          "internalType": "bytes32",
          "name": "",
          "type": "bytes32"
        }
      ],
      "stateMutability": "view",
      "type": "function",
      "constant": true
    },
    {
      "inputs": [],
      "name": "USER_READ_ROLE",
      "outputs": [
        {
          "internalType": "bytes32",
          "name": "",
          "type": "bytes32"
        }
      ],
      "stateMutability": "view",
      "type": "function",
      "constant": true
    },
    {
      "inputs": [],
      "name": "USER_WRITE_ROLE",
      "outputs": [
        {
          "internalType": "bytes32",
          "name": "",
          "type": "bytes32"
        }
      ],
      "stateMutability": "view",
      "type": "function",
      "constant": true
    },
    {
      "inputs": [
        {
          "internalType": "bytes32",
          "name": "role",
          "type": "bytes32"
        }
      ],
      "name": "getRoleAdmin",
      "outputs": [
        {
          "internalType": "bytes32",
          "name": "",
          "type": "bytes32"
        }
      ],
      "stateMutability": "view",
      "type": "function",
      "constant": true
    },
    {
      "inputs": [
        {
          "internalType": "bytes32",
          "name": "role",
          "type": "bytes32"
        },
        {
          "internalType": "uint256",
          "name": "index",
          "type": "uint256"
        }
      ],
      "name": "getRoleMember",
      "outputs": [
        {
          "internalType": "address",
          "name": "",
          "type": "address"
        }
      ],
      "stateMutability": "view",
      "type": "function",
      "constant": true
    },
    {
      "inputs": [
        {
          "internalType": "bytes32",
          "name": "role",
          "type": "bytes32"
        }
      ],
      "name": "getRoleMemberCount",
      "outputs": [
        {
          "internalType": "uint256",
          "name": "",
          "type": "uint256"
        }
      ],
      "stateMutability": "view",
      "type": "function",
      "constant": true
    },
    {
      "inputs": [
        {
          "internalType": "bytes32",
          "name": "role",
          "type": "bytes32"
        },
        {
          "internalType": "address",
          "name": "account",
          "type": "address"
        }
      ],
      "name": "grantRole",
      "outputs": [],
      "stateMutability": "nonpayable",
      "type": "function"
    },
    {
      "inputs": [
        {
          "internalType": "bytes32",
          "name": "role",
          "type": "bytes32"
        },
        {
          "internalType": "address",
          "name": "account",
          "type": "address"
        }
      ],
      "name": "hasRole",
      "outputs": [
        {
          "internalType": "bool",
          "name": "",
          "type": "bool"
        }
      ],
      "stateMutability": "view",
      "type": "function",
      "constant": true
    },
    {
      "inputs": [],
      "name": "owner",
      "outputs": [
        {
          "internalType": "address",
          "name": "",
          "type": "address"
        }
      ],
      "stateMutability": "view",
      "type": "function",
      "constant": true
    },
    {
      "inputs": [],
      "name": "renounceOwnership",
      "outputs": [],
      "stateMutability": "nonpayable",
      "type": "function"
    },
    {
      "inputs": [
        {
          "internalType": "bytes32",
          "name": "role",
          "type": "bytes32"
        },
        {
          "internalType": "address",
          "name": "account",
          "type": "address"
        }
      ],
      "name": "renounceRole",
      "outputs": [],
      "stateMutability": "nonpayable",
      "type": "function"
    },
    {
      "inputs": [
        {
          "internalType": "bytes32",
          "name": "role",
          "type": "bytes32"
        },
        {
          "internalType": "address",
          "name": "account",
          "type": "address"
        }
      ],
      "name": "revokeRole",
      "outputs": [],
      "stateMutability": "nonpayable",
      "type": "function"
    },
    {
      "inputs": [
        {
          "internalType": "address",
          "name": "newOwner",
          "type": "address"
        }
      ],
      "name": "transferOwnership",
      "outputs": [],
      "stateMutability": "nonpayable",
      "type": "function"
    },
    {
      "inputs": [
        {
          "internalType": "uint256",
          "name": "_dtstamp",
          "type": "uint256"
        },
        {
          "internalType": "uint256",
          "name": "_dtstart",
          "type": "uint256"
        },
        {
          "internalType": "uint256",
          "name": "_dtend",
          "type": "uint256"
        },
        {
          "internalType": "string",
          "name": "_summary",
          "type": "string"
        },
        {
          "internalType": "string",
          "name": "_description",
          "type": "string"
        },
        {
          "internalType": "bool",
          "name": "_isallday",
          "type": "bool"
        },
        {
          "internalType": "string",
          "name": "_alldaystartdate",
          "type": "string"
        },
        {
          "internalType": "string",
          "name": "_alldayenddate",
          "type": "string"
        }
      ],
      "name": "storeEvent",
      "outputs": [],
      "stateMutability": "nonpayable",
      "type": "function"
    },
    {
      "inputs": [
        {
          "internalType": "uint256",
          "name": "_dtstamp",
          "type": "uint256"
        }
      ],
      "name": "removeEvent",
      "outputs": [],
      "stateMutability": "nonpayable",
      "type": "function"
    },
    {
      "inputs": [
        {
          "internalType": "address",
          "name": "_user",
          "type": "address"
        }
      ],
      "name": "getEventsIcal",
      "outputs": [
        {
          "internalType": "string",
          "name": "",
          "type": "string"
        }
      ],
      "stateMutability": "view",
      "type": "function",
      "constant": true
    },
    {
      "inputs": [],
      "name": "getEventsObj",
      "outputs": [
        {
          "components": [
            {
              "internalType": "uint256",
              "name": "dtstamp",
              "type": "uint256"
            },
            {
              "internalType": "uint256",
              "name": "dtstart",
              "type": "uint256"
            },
            {
              "internalType": "uint256",
              "name": "dtend",
              "type": "uint256"
            },
            {
              "internalType": "string",
              "name": "summary",
              "type": "string"
            },
            {
              "internalType": "string",
              "name": "description",
              "type": "string"
            },
            {
              "internalType": "bool",
              "name": "isallday",
              "type": "bool"
            },
            {
              "internalType": "string",
              "name": "alldaystartdate",
              "type": "string"
            },
            {
              "internalType": "string",
              "name": "alldayenddate",
              "type": "string"
            },
            {
              "internalType": "uint256",
              "name": "uid",
              "type": "uint256"
            }
          ],
          "internalType": "struct VEventLibrary.VEvent[]",
          "name": "",
          "type": "tuple[]"
        }
      ],
      "stateMutability": "view",
      "type": "function",
      "constant": true
    },
    {
      "inputs": [],
      "name": "getUserRole",
      "outputs": [
        {
          "internalType": "string",
          "name": "",
          "type": "string"
        }
      ],
      "stateMutability": "view",
      "type": "function",
      "constant": true
    },
    {
      "inputs": [
        {
          "internalType": "address",
          "name": "userAddress",
          "type": "address"
        }
      ],
      "name": "addRead",
      "outputs": [],
      "stateMutability": "nonpayable",
      "type": "function"
    },
    {
      "inputs": [
        {
          "internalType": "address",
          "name": "userAddress",
          "type": "address"
        }
      ],
      "name": "addWrite",
      "outputs": [],
      "stateMutability": "nonpayable",
      "type": "function"
    },
    {
      "inputs": [
        {
          "internalType": "address",
          "name": "userAddress",
          "type": "address"
        }
      ],
      "name": "revokeRead",
      "outputs": [],
      "stateMutability": "nonpayable",
      "type": "function"
    },
    {
      "inputs": [
        {
          "internalType": "address",
          "name": "userAddress",
          "type": "address"
        }
      ],
      "name": "revokeWrite",
      "outputs": [],
      "stateMutability": "nonpayable",
      "type": "function"
    },
    {
      "inputs": [],
      "name": "userReadWelcomeString",
      "outputs": [
        {
          "internalType": "string",
          "name": "",
          "type": "string"
        }
      ],
      "stateMutability": "view",
      "type": "function",
      "constant": true
    },
    {
      "inputs": [],
      "name": "ownerWelcomeString",
      "outputs": [
        {
          "internalType": "string",
          "name": "",
          "type": "string"
        }
      ],
      "stateMutability": "view",
      "type": "function",
      "constant": true
    },
    {
      "inputs": [],
      "name": "justSayHiCalAuth",
      "outputs": [
        {
          "internalType": "string",
          "name": "",
          "type": "string"
        }
      ],
      "stateMutability": "pure",
      "type": "function",
      "constant": true
    },
    {
      "inputs": [],
      "name": "authHi",
      "outputs": [
        {
          "internalType": "string",
          "name": "",
          "type": "string"
        }
      ],
      "stateMutability": "pure",
      "type": "function",
      "constant": true
    }
  ],
  "bytecode": "0x60806040523480156200001157600080fd5b5060405162003058380380620030588339818101604052810190620000379190620002f2565b6000620000496200014460201b60201c565b9050806000806101000a81548173ffffffffffffffffffffffffffffffffffffffff021916908373ffffffffffffffffffffffffffffffffffffffff1602179055508073ffffffffffffffffffffffffffffffffffffffff16600073ffffffffffffffffffffffffffffffffffffffff167f8be0079c531659141344cd1fd0a4f28419497f9722a3daafe3b4186f6b6457e060405160405180910390a350620000fc6000801b336200014c60201b60201c565b80600260006101000a81548173ffffffffffffffffffffffffffffffffffffffff021916908373ffffffffffffffffffffffffffffffffffffffff160217905550506200036c565b600033905090565b6200015e82826200016260201b60201c565b5050565b6200019181600160008581526020019081526020016000206000016200020660201b62001a421790919060201c565b156200020257620001a76200014460201b60201c565b73ffffffffffffffffffffffffffffffffffffffff168173ffffffffffffffffffffffffffffffffffffffff16837f2f8788117e7eff1d82e926ec794901d17c78024a50270940304540a733656f0d60405160405180910390a45b5050565b600062000236836000018373ffffffffffffffffffffffffffffffffffffffff1660001b6200023e60201b60201c565b905092915050565b6000620002528383620002b860201b60201c565b620002ad578260000182908060018154018082558091505060019003906000526020600020016000909190919091505582600001805490508360010160008481526020019081526020016000208190555060019050620002b2565b600090505b92915050565b600080836001016000848152602001908152602001600020541415905092915050565b600081519050620002ec8162000352565b92915050565b6000602082840312156200030557600080fd5b60006200031584828501620002db565b91505092915050565b60006200032b8262000332565b9050919050565b600073ffffffffffffffffffffffffffffffffffffffff82169050919050565b6200035d816200031e565b81146200036957600080fd5b50565b612cdc806200037c6000396000f3fe608060405234801561001057600080fd5b50600436106101a95760003560e01c8063869cd0c1116100f9578063bf04a10d11610097578063d547741f11610071578063d547741f14610496578063ee1bf5db146104b2578063f2fde38b146104d0578063fd4a74a1146104ec576101a9565b8063bf04a10d1461042a578063ca15c87314610448578063caebb99114610478576101a9565b806391d14854116100d357806391d14854146103a2578063a217fddf146103d2578063ab7cc4d2146103f0578063aef956e91461040c576101a9565b8063869cd0c1146103365780638da5cb5b146103545780639010d07c14610372576101a9565b80632f2ff15d1161016657806356164e1e1161014057806356164e1e146102d8578063607360d3146102f45780636bf7e0bb14610310578063715018a61461032c576101a9565b80632f2ff15d1461028257806336568abe1461029e578063553bae64146102ba576101a9565b806310d00a67146101ae5780631d5ad45b146101de5780631f79ec09146101fa578063248a9ca314610216578063283e8442146102465780632a0acc6a14610264575b600080fd5b6101c860048036038101906101c39190612100565b61050a565b6040516101d591906128e7565b60405180910390f35b6101f860048036038101906101f39190612100565b610673565b005b610214600480360381019061020f9190612100565b610735565b005b610230600480360381019061022b919061216a565b6107f7565b60405161023d91906128cc565b60405180910390f35b61024e610817565b60405161025b91906128cc565b60405180910390f35b61026c61083b565b60405161027991906128cc565b60405180910390f35b61029c60048036038101906102979190612193565b61085f565b005b6102b860048036038101906102b39190612193565b6108d3565b005b6102c2610956565b6040516102cf91906128e7565b60405180910390f35b6102f260048036038101906102ed919061224c565b610993565b005b61030e60048036038101906103099190612100565b610bfb565b005b61032a60048036038101906103259190612100565b610cbd565b005b610334610d7f565b005b61033e610ed2565b60405161034b91906128e7565b60405180910390f35b61035c610fa4565b6040516103699190612874565b60405180910390f35b61038c600480360381019061038791906121cf565b610fcd565b6040516103999190612874565b60405180910390f35b6103bc60048036038101906103b79190612193565b610fff565b6040516103c991906128b1565b60405180910390f35b6103da611031565b6040516103e791906128cc565b60405180910390f35b61040a60048036038101906104059190612275565b611038565b005b610414611238565b60405161042191906128e7565b60405180910390f35b610432611275565b60405161043f91906128e7565b60405180910390f35b610462600480360381019061045d919061216a565b611446565b60405161046f9190612a09565b60405180910390f35b61048061146d565b60405161048d919061288f565b60405180910390f35b6104b060048036038101906104ab9190612193565b611742565b005b6104ba6117b6565b6040516104c791906128cc565b60405180910390f35b6104ea60048036038101906104e59190612100565b6117da565b005b6104f461199c565b60405161050191906128e7565b60405180910390f35b60608161051a6000801b82610fff565b8061054b575061054a7f238cc277b81124817de0fb6e725dfaca359442ead042cbf4fa5a5d15a441d45482610fff565b5b8061057c575061057b7f60b176c013bc5f6a4aaf9c1455cc3ff5e7ee54daffb41be2fd0e50b804acad4282610fff565b5b6105bb576040517f08c379a00000000000000000000000000000000000000000000000000000000081526004016105b290612929565b60405180910390fd5b600260009054906101000a900473ffffffffffffffffffffffffffffffffffffffff1673ffffffffffffffffffffffffffffffffffffffff166310d00a67306040518263ffffffff1660e01b81526004016106169190612874565b60006040518083038186803b15801561062e57600080fd5b505afa158015610642573d6000803e3d6000fd5b505050506040513d6000823e3d601f19601f8201168201806040525081019061066b919061220b565b915050919050565b61067b611a72565b73ffffffffffffffffffffffffffffffffffffffff1660008054906101000a900473ffffffffffffffffffffffffffffffffffffffff1673ffffffffffffffffffffffffffffffffffffffff1614610708576040517f08c379a00000000000000000000000000000000000000000000000000000000081526004016106ff906129a9565b60405180910390fd5b6107327f60b176c013bc5f6a4aaf9c1455cc3ff5e7ee54daffb41be2fd0e50b804acad428261085f565b50565b61073d611a72565b73ffffffffffffffffffffffffffffffffffffffff1660008054906101000a900473ffffffffffffffffffffffffffffffffffffffff1673ffffffffffffffffffffffffffffffffffffffff16146107ca576040517f08c379a00000000000000000000000000000000000000000000000000000000081526004016107c1906129a9565b60405180910390fd5b6107f47f238cc277b81124817de0fb6e725dfaca359442ead042cbf4fa5a5d15a441d45482611742565b50565b600060016000838152602001908152602001600020600201549050919050565b7f60b176c013bc5f6a4aaf9c1455cc3ff5e7ee54daffb41be2fd0e50b804acad4281565b7fdf8b4c520ffe197c5343c6f5aec59570151ef9a492f2c624fd45ddde6135ec4281565b6108866001600084815260200190815260200160002060020154610881611a72565b610fff565b6108c5576040517f08c379a00000000000000000000000000000000000000000000000000000000081526004016108bc90612949565b60405180910390fd5b6108cf8282611a7a565b5050565b6108db611a72565b73ffffffffffffffffffffffffffffffffffffffff168173ffffffffffffffffffffffffffffffffffffffff1614610948576040517f08c379a000000000000000000000000000000000000000000000000000000000815260040161093f906129e9565b60405180910390fd5b6109528282611b0e565b5050565b60606040518060400160405280600f81526020017f48692066726f6d2043616c417574680000000000000000000000000000000000815250905090565b7f238cc277b81124817de0fb6e725dfaca359442ead042cbf4fa5a5d15a441d45480811415610a3e576109c96000801b33610fff565b806109fa57506109f97f238cc277b81124817de0fb6e725dfaca359442ead042cbf4fa5a5d15a441d45433610fff565b5b610a39576040517f08c379a0000000000000000000000000000000000000000000000000000000008152600401610a3090612929565b60405180910390fd5b610aed565b610a4b6000801b33610fff565b80610a7c5750610a7b7f238cc277b81124817de0fb6e725dfaca359442ead042cbf4fa5a5d15a441d45433610fff565b5b80610aad5750610aac7f60b176c013bc5f6a4aaf9c1455cc3ff5e7ee54daffb41be2fd0e50b804acad4233610fff565b5b610aec576040517f08c379a0000000000000000000000000000000000000000000000000000000008152600401610ae390612929565b60405180910390fd5b5b610afa6000801b33610fff565b80610b2b5750610b2a7f238cc277b81124817de0fb6e725dfaca359442ead042cbf4fa5a5d15a441d45433610fff565b5b610b6a576040517f08c379a0000000000000000000000000000000000000000000000000000000008152600401610b6190612929565b60405180910390fd5b600260009054906101000a900473ffffffffffffffffffffffffffffffffffffffff1673ffffffffffffffffffffffffffffffffffffffff166356164e1e836040518263ffffffff1660e01b8152600401610bc59190612a09565b600060405180830381600087803b158015610bdf57600080fd5b505af1158015610bf3573d6000803e3d6000fd5b505050505050565b610c03611a72565b73ffffffffffffffffffffffffffffffffffffffff1660008054906101000a900473ffffffffffffffffffffffffffffffffffffffff1673ffffffffffffffffffffffffffffffffffffffff1614610c90576040517f08c379a0000000000000000000000000000000000000000000000000000000008152600401610c87906129a9565b60405180910390fd5b610cba7f60b176c013bc5f6a4aaf9c1455cc3ff5e7ee54daffb41be2fd0e50b804acad4282611742565b50565b610cc5611a72565b73ffffffffffffffffffffffffffffffffffffffff1660008054906101000a900473ffffffffffffffffffffffffffffffffffffffff1673ffffffffffffffffffffffffffffffffffffffff1614610d52576040517f08c379a0000000000000000000000000000000000000000000000000000000008152600401610d49906129a9565b60405180910390fd5b610d7c7f238cc277b81124817de0fb6e725dfaca359442ead042cbf4fa5a5d15a441d4548261085f565b50565b610d87611a72565b73ffffffffffffffffffffffffffffffffffffffff1660008054906101000a900473ffffffffffffffffffffffffffffffffffffffff1673ffffffffffffffffffffffffffffffffffffffff1614610e14576040517f08c379a0000000000000000000000000000000000000000000000000000000008152600401610e0b906129a9565b60405180910390fd5b600073ffffffffffffffffffffffffffffffffffffffff1660008054906101000a900473ffffffffffffffffffffffffffffffffffffffff1673ffffffffffffffffffffffffffffffffffffffff167f8be0079c531659141344cd1fd0a4f28419497f9722a3daafe3b4186f6b6457e060405160405180910390a360008060006101000a81548173ffffffffffffffffffffffffffffffffffffffff021916908373ffffffffffffffffffffffffffffffffffffffff160217905550565b6060610edc611a72565b73ffffffffffffffffffffffffffffffffffffffff1660008054906101000a900473ffffffffffffffffffffffffffffffffffffffff1673ffffffffffffffffffffffffffffffffffffffff1614610f69576040517f08c379a0000000000000000000000000000000000000000000000000000000008152600401610f60906129a9565b60405180910390fd5b6040518060400160405280600d81526020017f57656c636f6d65206f776e657200000000000000000000000000000000000000815250905090565b60008060009054906101000a900473ffffffffffffffffffffffffffffffffffffffff16905090565b6000610ff78260016000868152602001908152602001600020600001611ba290919063ffffffff16565b905092915050565b60006110298260016000868152602001908152602001600020600001611bbc90919063ffffffff16565b905092915050565b6000801b81565b7f238cc277b81124817de0fb6e725dfaca359442ead042cbf4fa5a5d15a441d454808114156110e35761106e6000801b33610fff565b8061109f575061109e7f238cc277b81124817de0fb6e725dfaca359442ead042cbf4fa5a5d15a441d45433610fff565b5b6110de576040517f08c379a00000000000000000000000000000000000000000000000000000000081526004016110d590612929565b60405180910390fd5b611192565b6110f06000801b33610fff565b8061112157506111207f238cc277b81124817de0fb6e725dfaca359442ead042cbf4fa5a5d15a441d45433610fff565b5b8061115257506111517f60b176c013bc5f6a4aaf9c1455cc3ff5e7ee54daffb41be2fd0e50b804acad4233610fff565b5b611191576040517f08c379a000000000000000000000000000000000000000000000000000000000815260040161118890612929565b60405180910390fd5b5b600260009054906101000a900473ffffffffffffffffffffffffffffffffffffffff1673ffffffffffffffffffffffffffffffffffffffff1663ab7cc4d28a8a8a8a8a8a8a8a6040518963ffffffff1660e01b81526004016111fb989796959493929190612a24565b600060405180830381600087803b15801561121557600080fd5b505af1158015611229573d6000803e3d6000fd5b50505050505050505050505050565b60606040518060400160405280601a81526020017f43616c4175746820536179732048692e2020436f72726563742e000000000000815250905090565b60606112846000801b33610fff565b156112c6576040518060400160405280600581526020017f41444d494e0000000000000000000000000000000000000000000000000000008152509050611443565b6112f07fdf8b4c520ffe197c5343c6f5aec59570151ef9a492f2c624fd45ddde6135ec4233610fff565b15611332576040518060400160405280600581526020017f41444d494e0000000000000000000000000000000000000000000000000000008152509050611443565b61135c7f238cc277b81124817de0fb6e725dfaca359442ead042cbf4fa5a5d15a441d45433610fff565b1561139e576040518060400160405280600f81526020017f555345525f57524954455f524f4c4500000000000000000000000000000000008152509050611443565b6113c87f60b176c013bc5f6a4aaf9c1455cc3ff5e7ee54daffb41be2fd0e50b804acad4233610fff565b1561140a576040518060400160405280600e81526020017f555345525f524541445f524f4c450000000000000000000000000000000000008152509050611443565b6040518060400160405280600381526020017f4e494c000000000000000000000000000000000000000000000000000000000081525090505b90565b600061146660016000848152602001908152602001600020600001611bec565b9050919050565b60607f60b176c013bc5f6a4aaf9c1455cc3ff5e7ee54daffb41be2fd0e50b804acad427f238cc277b81124817de0fb6e725dfaca359442ead042cbf4fa5a5d15a441d45481141561153a576114c56000801b33610fff565b806114f657506114f57f238cc277b81124817de0fb6e725dfaca359442ead042cbf4fa5a5d15a441d45433610fff565b5b611535576040517f08c379a000000000000000000000000000000000000000000000000000000000815260040161152c90612929565b60405180910390fd5b6115e9565b6115476000801b33610fff565b8061157857506115777f238cc277b81124817de0fb6e725dfaca359442ead042cbf4fa5a5d15a441d45433610fff565b5b806115a957506115a87f60b176c013bc5f6a4aaf9c1455cc3ff5e7ee54daffb41be2fd0e50b804acad4233610fff565b5b6115e8576040517f08c379a00000000000000000000000000000000000000000000000000000000081526004016115df90612929565b60405180910390fd5b5b6115f66000801b33610fff565b8061162757506116267f238cc277b81124817de0fb6e725dfaca359442ead042cbf4fa5a5d15a441d45433610fff565b5b8061165857506116577f60b176c013bc5f6a4aaf9c1455cc3ff5e7ee54daffb41be2fd0e50b804acad4233610fff565b5b611697576040517f08c379a000000000000000000000000000000000000000000000000000000000815260040161168e90612929565b60405180910390fd5b600260009054906101000a900473ffffffffffffffffffffffffffffffffffffffff1673ffffffffffffffffffffffffffffffffffffffff1663caebb9916040518163ffffffff1660e01b815260040160006040518083038186803b1580156116ff57600080fd5b505afa158015611713573d6000803e3d6000fd5b505050506040513d6000823e3d601f19601f8201168201806040525081019061173c9190612129565b91505090565b6117696001600084815260200190815260200160002060020154611764611a72565b610fff565b6117a8576040517f08c379a000000000000000000000000000000000000000000000000000000000815260040161179f90612989565b60405180910390fd5b6117b28282611b0e565b5050565b7f238cc277b81124817de0fb6e725dfaca359442ead042cbf4fa5a5d15a441d45481565b6117e2611a72565b73ffffffffffffffffffffffffffffffffffffffff1660008054906101000a900473ffffffffffffffffffffffffffffffffffffffff1673ffffffffffffffffffffffffffffffffffffffff161461186f576040517f08c379a0000000000000000000000000000000000000000000000000000000008152600401611866906129a9565b60405180910390fd5b600073ffffffffffffffffffffffffffffffffffffffff168173ffffffffffffffffffffffffffffffffffffffff1614156118df576040517f08c379a00000000000000000000000000000000000000000000000000000000081526004016118d690612969565b60405180910390fd5b8073ffffffffffffffffffffffffffffffffffffffff1660008054906101000a900473ffffffffffffffffffffffffffffffffffffffff1673ffffffffffffffffffffffffffffffffffffffff167f8be0079c531659141344cd1fd0a4f28419497f9722a3daafe3b4186f6b6457e060405160405180910390a3806000806101000a81548173ffffffffffffffffffffffffffffffffffffffff021916908373ffffffffffffffffffffffffffffffffffffffff16021790555050565b60606119c87f60b176c013bc5f6a4aaf9c1455cc3ff5e7ee54daffb41be2fd0e50b804acad4233610fff565b611a07576040517f08c379a00000000000000000000000000000000000000000000000000000000081526004016119fe906129c9565b60405180910390fd5b6040518060400160405280601681526020017f57656c636f6d652072656164206f6e6c79207573657200000000000000000000815250905090565b6000611a6a836000018373ffffffffffffffffffffffffffffffffffffffff1660001b611c01565b905092915050565b600033905090565b611aa28160016000858152602001908152602001600020600001611a4290919063ffffffff16565b15611b0a57611aaf611a72565b73ffffffffffffffffffffffffffffffffffffffff168173ffffffffffffffffffffffffffffffffffffffff16837f2f8788117e7eff1d82e926ec794901d17c78024a50270940304540a733656f0d60405160405180910390a45b5050565b611b368160016000858152602001908152602001600020600001611c7190919063ffffffff16565b15611b9e57611b43611a72565b73ffffffffffffffffffffffffffffffffffffffff168173ffffffffffffffffffffffffffffffffffffffff16837ff6391f5c32d9c69d2a47ea670b442974b53935d1edc7fd64eb21e047a839171b60405160405180910390a45b5050565b6000611bb18360000183611ca1565b60001c905092915050565b6000611be4836000018373ffffffffffffffffffffffffffffffffffffffff1660001b611d0e565b905092915050565b6000611bfa82600001611d31565b9050919050565b6000611c0d8383611d0e565b611c66578260000182908060018154018082558091505060019003906000526020600020016000909190919091505582600001805490508360010160008481526020019081526020016000208190555060019050611c6b565b600090505b92915050565b6000611c99836000018373ffffffffffffffffffffffffffffffffffffffff1660001b611d42565b905092915050565b600081836000018054905011611cec576040517f08c379a0000000000000000000000000000000000000000000000000000000008152600401611ce390612909565b60405180910390fd5b826000018281548110611cfb57fe5b9060005260206000200154905092915050565b600080836001016000848152602001908152602001600020541415905092915050565b600081600001805490509050919050565b60008083600101600084815260200190815260200160002054905060008114611e1e5760006001820390506000600186600001805490500390506000866000018281548110611d8d57fe5b9060005260206000200154905080876000018481548110611daa57fe5b9060005260206000200181905550600183018760010160008381526020019081526020016000208190555086600001805480611de257fe5b60019003818190600052602060002001600090559055866001016000878152602001908152602001600020600090556001945050505050611e24565b60009150505b92915050565b600081359050611e3981612c4a565b92915050565b600082601f830112611e5057600080fd5b8151611e63611e5e82612aeb565b612abe565b9150818183526020840193506020810190508360005b83811015611ea95781518601611e8f8882611f9a565b845260208401935060208301925050600181019050611e79565b5050505092915050565b600081359050611ec281612c61565b92915050565b600081519050611ed781612c61565b92915050565b600081359050611eec81612c78565b92915050565b600082601f830112611f0357600080fd5b8135611f16611f1182612b13565b612abe565b91508082526020830160208301858383011115611f3257600080fd5b611f3d838284612bf7565b50505092915050565b600082601f830112611f5757600080fd5b8151611f6a611f6582612b13565b612abe565b91508082526020830160208301858383011115611f8657600080fd5b611f91838284612c06565b50505092915050565b60006101208284031215611fad57600080fd5b611fb8610120612abe565b90506000611fc8848285016120eb565b6000830152506020611fdc848285016120eb565b6020830152506040611ff0848285016120eb565b604083015250606082015167ffffffffffffffff81111561201057600080fd5b61201c84828501611f46565b606083015250608082015167ffffffffffffffff81111561203c57600080fd5b61204884828501611f46565b60808301525060a061205c84828501611ec8565b60a08301525060c082015167ffffffffffffffff81111561207c57600080fd5b61208884828501611f46565b60c08301525060e082015167ffffffffffffffff8111156120a857600080fd5b6120b484828501611f46565b60e0830152506101006120c9848285016120eb565b6101008301525092915050565b6000813590506120e581612c8f565b92915050565b6000815190506120fa81612c8f565b92915050565b60006020828403121561211257600080fd5b600061212084828501611e2a565b91505092915050565b60006020828403121561213b57600080fd5b600082015167ffffffffffffffff81111561215557600080fd5b61216184828501611e3f565b91505092915050565b60006020828403121561217c57600080fd5b600061218a84828501611edd565b91505092915050565b600080604083850312156121a657600080fd5b60006121b485828601611edd565b92505060206121c585828601611e2a565b9150509250929050565b600080604083850312156121e257600080fd5b60006121f085828601611edd565b9250506020612201858286016120d6565b9150509250929050565b60006020828403121561221d57600080fd5b600082015167ffffffffffffffff81111561223757600080fd5b61224384828501611f46565b91505092915050565b60006020828403121561225e57600080fd5b600061226c848285016120d6565b91505092915050565b600080600080600080600080610100898b03121561229257600080fd5b60006122a08b828c016120d6565b98505060206122b18b828c016120d6565b97505060406122c28b828c016120d6565b965050606089013567ffffffffffffffff8111156122df57600080fd5b6122eb8b828c01611ef2565b955050608089013567ffffffffffffffff81111561230857600080fd5b6123148b828c01611ef2565b94505060a06123258b828c01611eb3565b93505060c089013567ffffffffffffffff81111561234257600080fd5b61234e8b828c01611ef2565b92505060e089013567ffffffffffffffff81111561236b57600080fd5b6123778b828c01611ef2565b9150509295985092959890939650565b6000612393838361277c565b905092915050565b6123a481612ba5565b82525050565b60006123b582612b4f565b6123bf8185612b72565b9350836020820285016123d185612b3f565b8060005b8581101561240d57848403895281516123ee8582612387565b94506123f983612b65565b925060208a019950506001810190506123d5565b50829750879550505050505092915050565b61242881612bb7565b82525050565b61243781612bb7565b82525050565b61244681612bc3565b82525050565b600061245782612b5a565b6124618185612b83565b9350612471818560208601612c06565b61247a81612c39565b840191505092915050565b600061249082612b5a565b61249a8185612b94565b93506124aa818560208601612c06565b6124b381612c39565b840191505092915050565b60006124cb602283612b94565b91507f456e756d657261626c655365743a20696e646578206f7574206f6620626f756e60008301527f64730000000000000000000000000000000000000000000000000000000000006020830152604082019050919050565b6000612531601383612b94565b91507f55736572206e6f7420617574686f7269736564000000000000000000000000006000830152602082019050919050565b6000612571602f83612b94565b91507f416363657373436f6e74726f6c3a2073656e646572206d75737420626520616e60008301527f2061646d696e20746f206772616e7400000000000000000000000000000000006020830152604082019050919050565b60006125d7602683612b94565b91507f4f776e61626c653a206e6577206f776e657220697320746865207a65726f206160008301527f64647265737300000000000000000000000000000000000000000000000000006020830152604082019050919050565b600061263d603083612b94565b91507f416363657373436f6e74726f6c3a2073656e646572206d75737420626520616e60008301527f2061646d696e20746f207265766f6b65000000000000000000000000000000006020830152604082019050919050565b60006126a3602083612b94565b91507f4f776e61626c653a2063616c6c6572206973206e6f7420746865206f776e65726000830152602082019050919050565b60006126e3601d83612b94565b91507f536f72727920796f7520617265206e6f742061205245414420757365720000006000830152602082019050919050565b6000612723602f83612b94565b91507f416363657373436f6e74726f6c3a2063616e206f6e6c792072656e6f756e636560008301527f20726f6c657320666f722073656c6600000000000000000000000000000000006020830152604082019050919050565b6000610120830160008301516127956000860182612856565b5060208301516127a86020860182612856565b5060408301516127bb6040860182612856565b50606083015184820360608601526127d3828261244c565b915050608083015184820360808601526127ed828261244c565b91505060a083015161280260a086018261241f565b5060c083015184820360c086015261281a828261244c565b91505060e083015184820360e0860152612834828261244c565b91505061010083015161284b610100860182612856565b508091505092915050565b61285f81612bed565b82525050565b61286e81612bed565b82525050565b6000602082019050612889600083018461239b565b92915050565b600060208201905081810360008301526128a981846123aa565b905092915050565b60006020820190506128c6600083018461242e565b92915050565b60006020820190506128e1600083018461243d565b92915050565b600060208201905081810360008301526129018184612485565b905092915050565b60006020820190508181036000830152612922816124be565b9050919050565b6000602082019050818103600083015261294281612524565b9050919050565b6000602082019050818103600083015261296281612564565b9050919050565b60006020820190508181036000830152612982816125ca565b9050919050565b600060208201905081810360008301526129a281612630565b9050919050565b600060208201905081810360008301526129c281612696565b9050919050565b600060208201905081810360008301526129e2816126d6565b9050919050565b60006020820190508181036000830152612a0281612716565b9050919050565b6000602082019050612a1e6000830184612865565b92915050565b600061010082019050612a3a600083018b612865565b612a47602083018a612865565b612a546040830189612865565b8181036060830152612a668188612485565b90508181036080830152612a7a8187612485565b9050612a8960a083018661242e565b81810360c0830152612a9b8185612485565b905081810360e0830152612aaf8184612485565b90509998505050505050505050565b6000604051905081810181811067ffffffffffffffff82111715612ae157600080fd5b8060405250919050565b600067ffffffffffffffff821115612b0257600080fd5b602082029050602081019050919050565b600067ffffffffffffffff821115612b2a57600080fd5b601f19601f8301169050602081019050919050565b6000819050602082019050919050565b600081519050919050565b600081519050919050565b6000602082019050919050565b600082825260208201905092915050565b600082825260208201905092915050565b600082825260208201905092915050565b6000612bb082612bcd565b9050919050565b60008115159050919050565b6000819050919050565b600073ffffffffffffffffffffffffffffffffffffffff82169050919050565b6000819050919050565b82818337600083830152505050565b60005b83811015612c24578082015181840152602081019050612c09565b83811115612c33576000848401525b50505050565b6000601f19601f8301169050919050565b612c5381612ba5565b8114612c5e57600080fd5b50565b612c6a81612bb7565b8114612c7557600080fd5b50565b612c8181612bc3565b8114612c8c57600080fd5b50565b612c9881612bed565b8114612ca357600080fd5b5056fea2646970667358221220af1572bb04c41a3f633002f3d2eb8a857683ef1677743b997f192d04b4a7fdb464736f6c634300060c0033",
  "immutableReferences": {},
  "source": "// SPDX-License-Identifier: MIT\npragma solidity ^0.6.0;\npragma experimental ABIEncoderV2;\n\nimport \"@openzeppelin/contracts/access/AccessControl.sol\";\nimport \"@openzeppelin/contracts/access/Ownable.sol\";\nimport \"./CalStore.sol\";\nimport \"./VEventLibrary.sol\";\n\ncontract CalAuth is Ownable, AccessControl {\n    using VEventLibrary for VEventLibrary.VEvent;\n\n    bytes32 public constant USER_READ_ROLE = keccak256(\"USER_READ_ROLE\");\n    bytes32 public constant USER_WRITE_ROLE = keccak256(\"USER_WRITE_ROLE\");\n    bytes32 public constant ADMIN = keccak256(\"ADMIN\");\n    CalStore private calStore;\n\n    constructor(address _addr) public {\n        _setupRole(DEFAULT_ADMIN_ROLE, msg.sender);\n        calStore = CalStore(_addr);\n    }\n\n    modifier onlyRole(bytes32 _role) {\n        if (_role == USER_WRITE_ROLE) {\n            require(\n                hasRole(DEFAULT_ADMIN_ROLE, msg.sender) ||\n                hasRole(USER_WRITE_ROLE, msg.sender),\n                \"User not authorised\");\n        } else {\n            require(\n                hasRole(DEFAULT_ADMIN_ROLE, msg.sender) ||\n                hasRole(USER_WRITE_ROLE, msg.sender) ||\n                hasRole(USER_READ_ROLE, msg.sender),\n                \"User not authorised\");\n        }\n        _;\n    }\n    \n    modifier onlyRoleIcal(address _user) {\n        require(\n            hasRole(DEFAULT_ADMIN_ROLE, _user) ||\n            hasRole(USER_WRITE_ROLE, _user) ||\n            hasRole(USER_READ_ROLE, _user),\n            \"User not authorised\");\n        _;\n    }\n\n    function storeEvent(\n        uint _dtstamp,\n        uint _dtstart,\n        uint _dtend,\n        string memory _summary,\n        string memory _description,\n        bool _isallday,\n        string memory _alldaystartdate,\n        string memory _alldayenddate)\n        public onlyRole(USER_WRITE_ROLE)\n        {\n        calStore.storeEvent(\n            _dtstamp, _dtstart, _dtend,\n            _summary, _description,\n            _isallday, _alldaystartdate,\n            _alldayenddate);\n    }\n\n    function removeEvent(uint _dtstamp) public onlyRole(USER_WRITE_ROLE) {\n        require(\n            hasRole(DEFAULT_ADMIN_ROLE, msg.sender) ||\n            hasRole(USER_WRITE_ROLE, msg.sender),\n            \"User not authorised\");\n        calStore.removeEvent(_dtstamp);\n    }\n\n    function getEventsIcal(address _user) public view onlyRoleIcal(_user) returns (\n        string memory) {\n        return calStore.getEventsIcal(address(this));\n    }\n\n    function getEventsObj() public view onlyRole(USER_READ_ROLE) returns (\n        VEventLibrary.VEvent[] memory) {\n        require(\n            hasRole(DEFAULT_ADMIN_ROLE, msg.sender) ||\n            hasRole(USER_WRITE_ROLE, msg.sender) ||\n            hasRole(USER_READ_ROLE, msg.sender),\n            \"User not authorised\");\n        return calStore.getEventsObj();\n    }\n\n\n    /// @notice Returns role of msg.sender\n    /// @dev Returns in hierarchial order, e.g. ADMIN more important than READ etc\n    /// @return string user role\n    function getUserRole() public view returns (string memory) {\n        if (hasRole(DEFAULT_ADMIN_ROLE, msg.sender)) {\n            return \"ADMIN\";\n        } else if (hasRole(ADMIN, msg.sender)) {\n            return \"ADMIN\";\n        } else if (hasRole(USER_WRITE_ROLE, msg.sender)) {\n            return \"USER_WRITE_ROLE\";\n        } else if (hasRole(USER_READ_ROLE, msg.sender)) {\n            return \"USER_READ_ROLE\";\n        }\n        return \"NIL\";\n    }\n\n    //TODO: Delete, not used\n    function addRead(address userAddress) public onlyOwner {\n        grantRole(USER_READ_ROLE, userAddress);\n    }\n\n    //TODO: Delete, not used\n    function addWrite(address userAddress) public onlyOwner {\n        grantRole(USER_WRITE_ROLE, userAddress);\n    }\n\n    //TODO: Delete, not used\n    function revokeRead(address userAddress) public onlyOwner {\n        revokeRole(USER_READ_ROLE, userAddress);\n    }\n\n    //TODO: Delete, not used\n    function revokeWrite(address userAddress) public onlyOwner {\n        revokeRole(USER_WRITE_ROLE, userAddress);\n    }\n\n    function userReadWelcomeString() public view returns (string memory) {\n        require(hasRole(USER_READ_ROLE, msg.sender), \"Sorry you are not a READ user\");\n        return \"Welcome read only user\";\n    }\n\n    function ownerWelcomeString() public onlyOwner view returns (string memory) {\n        return \"Welcome owner\";\n    }\n\n    function justSayHiCalAuth() public pure returns (string memory) {\n        return \"Hi from CalAuth\";\n    }\n    function authHi() public pure returns (string memory) {\n        return \"CalAuth Says Hi.  Correct.\";\n    }\n}\n\n",
  "sourcePath": "/home/gene/Programming/Websites/Precious_Chicken_Website/blog_code_demos/forget-me-block-eth-cal-auth/contracts/CalAuth.sol",
  "compiler": {
    "name": "solc",
    "version": "0.6.12+commit.27d51765.Emscripten.clang"
  },
  "schemaVersion": "3.2.3",
  "updatedAt": "2020-08-17T14:01:58.788Z",
  "networkType": "ethereum",
  "devdoc": {
    "kind": "dev",
    "methods": {
      "getRoleAdmin(bytes32)": {
        "details": "Returns the admin role that controls `role`. See {grantRole} and {revokeRole}. To change a role's admin, use {_setRoleAdmin}."
      },
      "getRoleMember(bytes32,uint256)": {
        "details": "Returns one of the accounts that have `role`. `index` must be a value between 0 and {getRoleMemberCount}, non-inclusive. Role bearers are not sorted in any particular way, and their ordering may change at any point. WARNING: When using {getRoleMember} and {getRoleMemberCount}, make sure you perform all queries on the same block. See the following https://forum.openzeppelin.com/t/iterating-over-elements-on-enumerableset-in-openzeppelin-contracts/2296[forum post] for more information."
      },
      "getRoleMemberCount(bytes32)": {
        "details": "Returns the number of accounts that have `role`. Can be used together with {getRoleMember} to enumerate all bearers of a role."
      },
      "getUserRole()": {
        "details": "Returns in hierarchial order, e.g. ADMIN more important than READ etc",
        "returns": {
          "_0": "string user role"
        }
      },
      "grantRole(bytes32,address)": {
        "details": "Grants `role` to `account`. If `account` had not been already granted `role`, emits a {RoleGranted} event. Requirements: - the caller must have ``role``'s admin role."
      },
      "hasRole(bytes32,address)": {
        "details": "Returns `true` if `account` has been granted `role`."
      },
      "owner()": {
        "details": "Returns the address of the current owner."
      },
      "renounceOwnership()": {
        "details": "Leaves the contract without owner. It will not be possible to call `onlyOwner` functions anymore. Can only be called by the current owner. NOTE: Renouncing ownership will leave the contract without an owner, thereby removing any functionality that is only available to the owner."
      },
      "renounceRole(bytes32,address)": {
        "details": "Revokes `role` from the calling account. Roles are often managed via {grantRole} and {revokeRole}: this function's purpose is to provide a mechanism for accounts to lose their privileges if they are compromised (such as when a trusted device is misplaced). If the calling account had been granted `role`, emits a {RoleRevoked} event. Requirements: - the caller must be `account`."
      },
      "revokeRole(bytes32,address)": {
        "details": "Revokes `role` from `account`. If `account` had been granted `role`, emits a {RoleRevoked} event. Requirements: - the caller must have ``role``'s admin role."
      },
      "transferOwnership(address)": {
        "details": "Transfers ownership of the contract to a new account (`newOwner`). Can only be called by the current owner."
      }
    },
    "version": 1
  },
  "userdoc": {
    "kind": "user",
    "methods": {
      "getUserRole()": {
        "notice": "Returns role of msg.sender"
      }
    },
    "version": 1
  }
}