{
  "contractName": "CalAuth",
  "abi": [
    {
      "inputs": [
        {
          "internalType": "address",
          "name": "_addr",
          "type": "address"
        }
      ],
      "stateMutability": "nonpayable",
      "type": "constructor"
    },
    {
      "anonymous": false,
      "inputs": [
        {
          "indexed": true,
          "internalType": "address",
          "name": "previousOwner",
          "type": "address"
        },
        {
          "indexed": true,
          "internalType": "address",
          "name": "newOwner",
          "type": "address"
        }
      ],
      "name": "OwnershipTransferred",
      "type": "event"
    },
    {
      "anonymous": false,
      "inputs": [
        {
          "indexed": true,
          "internalType": "bytes32",
          "name": "role",
          "type": "bytes32"
        },
        {
          "indexed": true,
          "internalType": "bytes32",
          "name": "previousAdminRole",
          "type": "bytes32"
        },
        {
          "indexed": true,
          "internalType": "bytes32",
          "name": "newAdminRole",
          "type": "bytes32"
        }
      ],
      "name": "RoleAdminChanged",
      "type": "event"
    },
    {
      "anonymous": false,
      "inputs": [
        {
          "indexed": true,
          "internalType": "bytes32",
          "name": "role",
          "type": "bytes32"
        },
        {
          "indexed": true,
          "internalType": "address",
          "name": "account",
          "type": "address"
        },
        {
          "indexed": true,
          "internalType": "address",
          "name": "sender",
          "type": "address"
        }
      ],
      "name": "RoleGranted",
      "type": "event"
    },
    {
      "anonymous": false,
      "inputs": [
        {
          "indexed": true,
          "internalType": "bytes32",
          "name": "role",
          "type": "bytes32"
        },
        {
          "indexed": true,
          "internalType": "address",
          "name": "account",
          "type": "address"
        },
        {
          "indexed": true,
          "internalType": "address",
          "name": "sender",
          "type": "address"
        }
      ],
      "name": "RoleRevoked",
      "type": "event"
    },
    {
      "inputs": [],
      "name": "ADMIN",
      "outputs": [
        {
          "internalType": "bytes32",
          "name": "",
          "type": "bytes32"
        }
      ],
      "stateMutability": "view",
      "type": "function",
      "constant": true
    },
    {
      "inputs": [],
      "name": "DEFAULT_ADMIN_ROLE",
      "outputs": [
        {
          "internalType": "bytes32",
          "name": "",
          "type": "bytes32"
        }
      ],
      "stateMutability": "view",
      "type": "function",
      "constant": true
    },
    {
      "inputs": [],
      "name": "USER_READ_ROLE",
      "outputs": [
        {
          "internalType": "bytes32",
          "name": "",
          "type": "bytes32"
        }
      ],
      "stateMutability": "view",
      "type": "function",
      "constant": true
    },
    {
      "inputs": [],
      "name": "USER_WRITE_ROLE",
      "outputs": [
        {
          "internalType": "bytes32",
          "name": "",
          "type": "bytes32"
        }
      ],
      "stateMutability": "view",
      "type": "function",
      "constant": true
    },
    {
      "inputs": [
        {
          "internalType": "bytes32",
          "name": "role",
          "type": "bytes32"
        }
      ],
      "name": "getRoleAdmin",
      "outputs": [
        {
          "internalType": "bytes32",
          "name": "",
          "type": "bytes32"
        }
      ],
      "stateMutability": "view",
      "type": "function",
      "constant": true
    },
    {
      "inputs": [
        {
          "internalType": "bytes32",
          "name": "role",
          "type": "bytes32"
        },
        {
          "internalType": "uint256",
          "name": "index",
          "type": "uint256"
        }
      ],
      "name": "getRoleMember",
      "outputs": [
        {
          "internalType": "address",
          "name": "",
          "type": "address"
        }
      ],
      "stateMutability": "view",
      "type": "function",
      "constant": true
    },
    {
      "inputs": [
        {
          "internalType": "bytes32",
          "name": "role",
          "type": "bytes32"
        }
      ],
      "name": "getRoleMemberCount",
      "outputs": [
        {
          "internalType": "uint256",
          "name": "",
          "type": "uint256"
        }
      ],
      "stateMutability": "view",
      "type": "function",
      "constant": true
    },
    {
      "inputs": [
        {
          "internalType": "bytes32",
          "name": "role",
          "type": "bytes32"
        },
        {
          "internalType": "address",
          "name": "account",
          "type": "address"
        }
      ],
      "name": "grantRole",
      "outputs": [],
      "stateMutability": "nonpayable",
      "type": "function"
    },
    {
      "inputs": [
        {
          "internalType": "bytes32",
          "name": "role",
          "type": "bytes32"
        },
        {
          "internalType": "address",
          "name": "account",
          "type": "address"
        }
      ],
      "name": "hasRole",
      "outputs": [
        {
          "internalType": "bool",
          "name": "",
          "type": "bool"
        }
      ],
      "stateMutability": "view",
      "type": "function",
      "constant": true
    },
    {
      "inputs": [],
      "name": "owner",
      "outputs": [
        {
          "internalType": "address",
          "name": "",
          "type": "address"
        }
      ],
      "stateMutability": "view",
      "type": "function",
      "constant": true
    },
    {
      "inputs": [],
      "name": "renounceOwnership",
      "outputs": [],
      "stateMutability": "nonpayable",
      "type": "function"
    },
    {
      "inputs": [
        {
          "internalType": "bytes32",
          "name": "role",
          "type": "bytes32"
        },
        {
          "internalType": "address",
          "name": "account",
          "type": "address"
        }
      ],
      "name": "renounceRole",
      "outputs": [],
      "stateMutability": "nonpayable",
      "type": "function"
    },
    {
      "inputs": [
        {
          "internalType": "bytes32",
          "name": "role",
          "type": "bytes32"
        },
        {
          "internalType": "address",
          "name": "account",
          "type": "address"
        }
      ],
      "name": "revokeRole",
      "outputs": [],
      "stateMutability": "nonpayable",
      "type": "function"
    },
    {
      "inputs": [
        {
          "internalType": "address",
          "name": "newOwner",
          "type": "address"
        }
      ],
      "name": "transferOwnership",
      "outputs": [],
      "stateMutability": "nonpayable",
      "type": "function"
    },
    {
      "inputs": [
        {
          "internalType": "uint256",
          "name": "_dtstamp",
          "type": "uint256"
        },
        {
          "internalType": "uint256",
          "name": "_dtstart",
          "type": "uint256"
        },
        {
          "internalType": "uint256",
          "name": "_dtend",
          "type": "uint256"
        },
        {
          "internalType": "string",
          "name": "_summary",
          "type": "string"
        },
        {
          "internalType": "string",
          "name": "_description",
          "type": "string"
        },
        {
          "internalType": "bool",
          "name": "_isallday",
          "type": "bool"
        },
        {
          "internalType": "string",
          "name": "_alldaystartdate",
          "type": "string"
        },
        {
          "internalType": "string",
          "name": "_alldayenddate",
          "type": "string"
        }
      ],
      "name": "storeEvent",
      "outputs": [],
      "stateMutability": "nonpayable",
      "type": "function"
    },
    {
      "inputs": [
        {
          "internalType": "uint256",
          "name": "_dtstamp",
          "type": "uint256"
        }
      ],
      "name": "removeEvent",
      "outputs": [],
      "stateMutability": "nonpayable",
      "type": "function"
    },
    {
      "inputs": [
        {
          "internalType": "address",
          "name": "_user",
          "type": "address"
        }
      ],
      "name": "getEventsIcal",
      "outputs": [
        {
          "internalType": "string",
          "name": "",
          "type": "string"
        }
      ],
      "stateMutability": "view",
      "type": "function",
      "constant": true
    },
    {
      "inputs": [],
      "name": "getEventsObj",
      "outputs": [
        {
          "components": [
            {
              "internalType": "uint256",
              "name": "dtstamp",
              "type": "uint256"
            },
            {
              "internalType": "uint256",
              "name": "dtstart",
              "type": "uint256"
            },
            {
              "internalType": "uint256",
              "name": "dtend",
              "type": "uint256"
            },
            {
              "internalType": "string",
              "name": "summary",
              "type": "string"
            },
            {
              "internalType": "string",
              "name": "description",
              "type": "string"
            },
            {
              "internalType": "bool",
              "name": "isallday",
              "type": "bool"
            },
            {
              "internalType": "string",
              "name": "alldaystartdate",
              "type": "string"
            },
            {
              "internalType": "string",
              "name": "alldayenddate",
              "type": "string"
            },
            {
              "internalType": "uint256",
              "name": "uid",
              "type": "uint256"
            }
          ],
          "internalType": "struct VEventLibrary.VEvent[]",
          "name": "",
          "type": "tuple[]"
        }
      ],
      "stateMutability": "view",
      "type": "function",
      "constant": true
    },
    {
      "inputs": [],
      "name": "getUserRole",
      "outputs": [
        {
          "internalType": "string",
          "name": "",
          "type": "string"
        }
      ],
      "stateMutability": "view",
      "type": "function",
      "constant": true
    },
    {
      "inputs": [
        {
          "internalType": "address",
          "name": "_userAddress",
          "type": "address"
        },
        {
          "internalType": "uint256",
          "name": "_validFrom",
          "type": "uint256"
        },
        {
          "internalType": "uint256",
          "name": "_expiresBy",
          "type": "uint256"
        }
      ],
      "name": "addRead",
      "outputs": [],
      "stateMutability": "nonpayable",
      "type": "function"
    },
    {
      "inputs": [
        {
          "internalType": "address",
          "name": "_userAddress",
          "type": "address"
        },
        {
          "internalType": "uint256",
          "name": "_validFrom",
          "type": "uint256"
        },
        {
          "internalType": "uint256",
          "name": "_expiresBy",
          "type": "uint256"
        }
      ],
      "name": "addWrite",
      "outputs": [],
      "stateMutability": "nonpayable",
      "type": "function"
    },
    {
      "inputs": [
        {
          "internalType": "address",
          "name": "_userAddress",
          "type": "address"
        }
      ],
      "name": "getAccessWindow",
      "outputs": [
        {
          "components": [
            {
              "internalType": "uint256",
              "name": "validFrom",
              "type": "uint256"
            },
            {
              "internalType": "uint256",
              "name": "expiresBy",
              "type": "uint256"
            }
          ],
          "internalType": "struct CalAuth.AccessWindow",
          "name": "",
          "type": "tuple"
        }
      ],
      "stateMutability": "view",
      "type": "function",
      "constant": true
    },
    {
      "inputs": [
        {
          "internalType": "address",
          "name": "userAddress",
          "type": "address"
        }
      ],
      "name": "revokeRead",
      "outputs": [],
      "stateMutability": "nonpayable",
      "type": "function"
    },
    {
      "inputs": [
        {
          "internalType": "address",
          "name": "userAddress",
          "type": "address"
        }
      ],
      "name": "revokeWrite",
      "outputs": [],
      "stateMutability": "nonpayable",
      "type": "function"
    },
    {
      "inputs": [],
      "name": "authHi",
      "outputs": [
        {
          "internalType": "string",
          "name": "",
          "type": "string"
        }
      ],
      "stateMutability": "pure",
      "type": "function",
      "constant": true
    }
  ],
  "bytecode": "0x60806040523480156200001157600080fd5b50604051620033cc380380620033cc8339818101604052810190620000379190620002f2565b6000620000496200014460201b60201c565b9050806000806101000a81548173ffffffffffffffffffffffffffffffffffffffff021916908373ffffffffffffffffffffffffffffffffffffffff1602179055508073ffffffffffffffffffffffffffffffffffffffff16600073ffffffffffffffffffffffffffffffffffffffff167f8be0079c531659141344cd1fd0a4f28419497f9722a3daafe3b4186f6b6457e060405160405180910390a350620000fc6000801b336200014c60201b60201c565b80600260006101000a81548173ffffffffffffffffffffffffffffffffffffffff021916908373ffffffffffffffffffffffffffffffffffffffff160217905550506200036c565b600033905090565b6200015e82826200016260201b60201c565b5050565b6200019181600160008581526020019081526020016000206000016200020660201b62001cda1790919060201c565b156200020257620001a76200014460201b60201c565b73ffffffffffffffffffffffffffffffffffffffff168173ffffffffffffffffffffffffffffffffffffffff16837f2f8788117e7eff1d82e926ec794901d17c78024a50270940304540a733656f0d60405160405180910390a45b5050565b600062000236836000018373ffffffffffffffffffffffffffffffffffffffff1660001b6200023e60201b60201c565b905092915050565b6000620002528383620002b860201b60201c565b620002ad578260000182908060018154018082558091505060019003906000526020600020016000909190919091505582600001805490508360010160008481526020019081526020016000208190555060019050620002b2565b600090505b92915050565b600080836001016000848152602001908152602001600020541415905092915050565b600081519050620002ec8162000352565b92915050565b6000602082840312156200030557600080fd5b60006200031584828501620002db565b91505092915050565b60006200032b8262000332565b9050919050565b600073ffffffffffffffffffffffffffffffffffffffff82169050919050565b6200035d816200031e565b81146200036957600080fd5b50565b613050806200037c6000396000f3fe608060405234801561001057600080fd5b50600436106101735760003560e01c80638da5cb5b116100de578063bf04a10d11610097578063caebb99111610071578063caebb99114610436578063d547741f14610454578063ee1bf5db14610470578063f2fde38b1461048e57610173565b8063bf04a10d146103cc578063c30ed8a5146103ea578063ca15c8731461040657610173565b80638da5cb5b146102f65780639010d07c1461031457806391d1485414610344578063a217fddf14610374578063ab7cc4d214610392578063aef956e9146103ae57610173565b80632a0acc6a116101305780632a0acc6a1461025e5780632f2ff15d1461027c57806336568abe1461029857806356164e1e146102b4578063607360d3146102d0578063715018a6146102ec57610173565b806310d00a67146101785780631accea71146101a85780631f79ec09146101c457806321ee4bca146101e0578063248a9ca314610210578063283e844214610240575b600080fd5b610192600480360381019061018d91906123b2565b6104aa565b60405161019f9190612c37565b60405180910390f35b6101c260048036038101906101bd91906123db565b61081f565b005b6101de60048036038101906101d991906123b2565b61094e565b005b6101fa60048036038101906101f591906123b2565b610a10565b6040516102079190612d39565b60405180910390f35b61022a6004803603810190610225919061246b565b610a7d565b6040516102379190612c1c565b60405180910390f35b610248610a9d565b6040516102559190612c1c565b60405180910390f35b610266610ac1565b6040516102739190612c1c565b60405180910390f35b61029660048036038101906102919190612494565b610ae5565b005b6102b260048036038101906102ad9190612494565b610b59565b005b6102ce60048036038101906102c9919061254d565b610bdc565b005b6102ea60048036038101906102e591906123b2565b610e44565b005b6102f4610f06565b005b6102fe611059565b60405161030b9190612b64565b60405180910390f35b61032e600480360381019061032991906124d0565b611082565b60405161033b9190612b64565b60405180910390f35b61035e60048036038101906103599190612494565b6110b4565b60405161036b9190612c01565b60405180910390f35b61037c6110e6565b6040516103899190612c1c565b60405180910390f35b6103ac60048036038101906103a79190612576565b6110ed565b005b6103b66112ed565b6040516103c39190612c37565b60405180910390f35b6103d461132a565b6040516103e19190612c37565b60405180910390f35b61040460048036038101906103ff91906123db565b6114fb565b005b610420600480360381019061041b919061246b565b61162a565b60405161042d9190612d54565b60405180910390f35b61043e611651565b60405161044b9190612bdf565b60405180910390f35b61046e60048036038101906104699190612494565b611a80565b005b610478611af4565b6040516104859190612c1c565b60405180910390f35b6104a860048036038101906104a391906123b2565b611b18565b005b6060816104ba6000801b826110b4565b806104eb57506104ea7f238cc277b81124817de0fb6e725dfaca359442ead042cbf4fa5a5d15a441d454826110b4565b5b8061051c575061051b7f60b176c013bc5f6a4aaf9c1455cc3ff5e7ee54daffb41be2fd0e50b804acad42826110b4565b5b61055b576040517f08c379a000000000000000000000000000000000000000000000000000000000815260040161055290612c79565b60405180910390fd5b6105636120c2565b600360008573ffffffffffffffffffffffffffffffffffffffff1673ffffffffffffffffffffffffffffffffffffffff16815260200190815260200160002060405180604001604052908160008201548152602001600182015481525050905060008160200151826000015101141561068e57600260009054906101000a900473ffffffffffffffffffffffffffffffffffffffff1673ffffffffffffffffffffffffffffffffffffffff166310d00a67306040518263ffffffff1660e01b81526004016106319190612b64565b60006040518083038186803b15801561064957600080fd5b505afa15801561065d573d6000803e3d6000fd5b505050506040513d6000823e3d601f19601f82011682018060405250810190610686919061250c565b925050610819565b60008160200151141561075957600260009054906101000a900473ffffffffffffffffffffffffffffffffffffffff1673ffffffffffffffffffffffffffffffffffffffff1663f35cf90e3083600001516040518363ffffffff1660e01b81526004016106fc929190612b7f565b60006040518083038186803b15801561071457600080fd5b505afa158015610728573d6000803e3d6000fd5b505050506040513d6000823e3d601f19601f82011682018060405250810190610751919061250c565b925050610819565b600260009054906101000a900473ffffffffffffffffffffffffffffffffffffffff1673ffffffffffffffffffffffffffffffffffffffff16638700d56630836000015184602001516040518463ffffffff1660e01b81526004016107c093929190612ba8565b60006040518083038186803b1580156107d857600080fd5b505afa1580156107ec573d6000803e3d6000fd5b505050506040513d6000823e3d601f19601f82011682018060405250810190610815919061250c565b9250505b50919050565b610827611d0a565b73ffffffffffffffffffffffffffffffffffffffff1660008054906101000a900473ffffffffffffffffffffffffffffffffffffffff1673ffffffffffffffffffffffffffffffffffffffff16146108b4576040517f08c379a00000000000000000000000000000000000000000000000000000000081526004016108ab90612cf9565b60405180910390fd5b6108de7f238cc277b81124817de0fb6e725dfaca359442ead042cbf4fa5a5d15a441d45484610ae5565b604051806040016040528083815260200182815250600360008573ffffffffffffffffffffffffffffffffffffffff1673ffffffffffffffffffffffffffffffffffffffff1681526020019081526020016000206000820151816000015560208201518160010155905050505050565b610956611d0a565b73ffffffffffffffffffffffffffffffffffffffff1660008054906101000a900473ffffffffffffffffffffffffffffffffffffffff1673ffffffffffffffffffffffffffffffffffffffff16146109e3576040517f08c379a00000000000000000000000000000000000000000000000000000000081526004016109da90612cf9565b60405180910390fd5b610a0d7f238cc277b81124817de0fb6e725dfaca359442ead042cbf4fa5a5d15a441d45482611a80565b50565b610a186120c2565b600360008373ffffffffffffffffffffffffffffffffffffffff1673ffffffffffffffffffffffffffffffffffffffff168152602001908152602001600020604051806040016040529081600082015481526020016001820154815250509050919050565b600060016000838152602001908152602001600020600201549050919050565b7f60b176c013bc5f6a4aaf9c1455cc3ff5e7ee54daffb41be2fd0e50b804acad4281565b7fdf8b4c520ffe197c5343c6f5aec59570151ef9a492f2c624fd45ddde6135ec4281565b610b0c6001600084815260200190815260200160002060020154610b07611d0a565b6110b4565b610b4b576040517f08c379a0000000000000000000000000000000000000000000000000000000008152600401610b4290612c99565b60405180910390fd5b610b558282611d12565b5050565b610b61611d0a565b73ffffffffffffffffffffffffffffffffffffffff168173ffffffffffffffffffffffffffffffffffffffff1614610bce576040517f08c379a0000000000000000000000000000000000000000000000000000000008152600401610bc590612d19565b60405180910390fd5b610bd88282611da6565b5050565b7f238cc277b81124817de0fb6e725dfaca359442ead042cbf4fa5a5d15a441d45480811415610c8757610c126000801b336110b4565b80610c435750610c427f238cc277b81124817de0fb6e725dfaca359442ead042cbf4fa5a5d15a441d454336110b4565b5b610c82576040517f08c379a0000000000000000000000000000000000000000000000000000000008152600401610c7990612c79565b60405180910390fd5b610d36565b610c946000801b336110b4565b80610cc55750610cc47f238cc277b81124817de0fb6e725dfaca359442ead042cbf4fa5a5d15a441d454336110b4565b5b80610cf65750610cf57f60b176c013bc5f6a4aaf9c1455cc3ff5e7ee54daffb41be2fd0e50b804acad42336110b4565b5b610d35576040517f08c379a0000000000000000000000000000000000000000000000000000000008152600401610d2c90612c79565b60405180910390fd5b5b610d436000801b336110b4565b80610d745750610d737f238cc277b81124817de0fb6e725dfaca359442ead042cbf4fa5a5d15a441d454336110b4565b5b610db3576040517f08c379a0000000000000000000000000000000000000000000000000000000008152600401610daa90612c79565b60405180910390fd5b600260009054906101000a900473ffffffffffffffffffffffffffffffffffffffff1673ffffffffffffffffffffffffffffffffffffffff166356164e1e836040518263ffffffff1660e01b8152600401610e0e9190612d54565b600060405180830381600087803b158015610e2857600080fd5b505af1158015610e3c573d6000803e3d6000fd5b505050505050565b610e4c611d0a565b73ffffffffffffffffffffffffffffffffffffffff1660008054906101000a900473ffffffffffffffffffffffffffffffffffffffff1673ffffffffffffffffffffffffffffffffffffffff1614610ed9576040517f08c379a0000000000000000000000000000000000000000000000000000000008152600401610ed090612cf9565b60405180910390fd5b610f037f60b176c013bc5f6a4aaf9c1455cc3ff5e7ee54daffb41be2fd0e50b804acad4282611a80565b50565b610f0e611d0a565b73ffffffffffffffffffffffffffffffffffffffff1660008054906101000a900473ffffffffffffffffffffffffffffffffffffffff1673ffffffffffffffffffffffffffffffffffffffff1614610f9b576040517f08c379a0000000000000000000000000000000000000000000000000000000008152600401610f9290612cf9565b60405180910390fd5b600073ffffffffffffffffffffffffffffffffffffffff1660008054906101000a900473ffffffffffffffffffffffffffffffffffffffff1673ffffffffffffffffffffffffffffffffffffffff167f8be0079c531659141344cd1fd0a4f28419497f9722a3daafe3b4186f6b6457e060405160405180910390a360008060006101000a81548173ffffffffffffffffffffffffffffffffffffffff021916908373ffffffffffffffffffffffffffffffffffffffff160217905550565b60008060009054906101000a900473ffffffffffffffffffffffffffffffffffffffff16905090565b60006110ac8260016000868152602001908152602001600020600001611e3a90919063ffffffff16565b905092915050565b60006110de8260016000868152602001908152602001600020600001611e5490919063ffffffff16565b905092915050565b6000801b81565b7f238cc277b81124817de0fb6e725dfaca359442ead042cbf4fa5a5d15a441d45480811415611198576111236000801b336110b4565b8061115457506111537f238cc277b81124817de0fb6e725dfaca359442ead042cbf4fa5a5d15a441d454336110b4565b5b611193576040517f08c379a000000000000000000000000000000000000000000000000000000000815260040161118a90612c79565b60405180910390fd5b611247565b6111a56000801b336110b4565b806111d657506111d57f238cc277b81124817de0fb6e725dfaca359442ead042cbf4fa5a5d15a441d454336110b4565b5b8061120757506112067f60b176c013bc5f6a4aaf9c1455cc3ff5e7ee54daffb41be2fd0e50b804acad42336110b4565b5b611246576040517f08c379a000000000000000000000000000000000000000000000000000000000815260040161123d90612c79565b60405180910390fd5b5b600260009054906101000a900473ffffffffffffffffffffffffffffffffffffffff1673ffffffffffffffffffffffffffffffffffffffff1663ab7cc4d28a8a8a8a8a8a8a8a6040518963ffffffff1660e01b81526004016112b0989796959493929190612d98565b600060405180830381600087803b1580156112ca57600080fd5b505af11580156112de573d6000803e3d6000fd5b50505050505050505050505050565b60606040518060400160405280601a81526020017f43616c4175746820536179732048692e2020436f72726563742e000000000000815250905090565b60606113396000801b336110b4565b1561137b576040518060400160405280600581526020017f41444d494e00000000000000000000000000000000000000000000000000000081525090506114f8565b6113a57fdf8b4c520ffe197c5343c6f5aec59570151ef9a492f2c624fd45ddde6135ec42336110b4565b156113e7576040518060400160405280600581526020017f41444d494e00000000000000000000000000000000000000000000000000000081525090506114f8565b6114117f238cc277b81124817de0fb6e725dfaca359442ead042cbf4fa5a5d15a441d454336110b4565b15611453576040518060400160405280600f81526020017f555345525f57524954455f524f4c45000000000000000000000000000000000081525090506114f8565b61147d7f60b176c013bc5f6a4aaf9c1455cc3ff5e7ee54daffb41be2fd0e50b804acad42336110b4565b156114bf576040518060400160405280600e81526020017f555345525f524541445f524f4c4500000000000000000000000000000000000081525090506114f8565b6040518060400160405280600381526020017f4e494c000000000000000000000000000000000000000000000000000000000081525090505b90565b611503611d0a565b73ffffffffffffffffffffffffffffffffffffffff1660008054906101000a900473ffffffffffffffffffffffffffffffffffffffff1673ffffffffffffffffffffffffffffffffffffffff1614611590576040517f08c379a000000000000000000000000000000000000000000000000000000000815260040161158790612cf9565b60405180910390fd5b6115ba7f60b176c013bc5f6a4aaf9c1455cc3ff5e7ee54daffb41be2fd0e50b804acad4284610ae5565b604051806040016040528083815260200182815250600360008573ffffffffffffffffffffffffffffffffffffffff1673ffffffffffffffffffffffffffffffffffffffff1681526020019081526020016000206000820151816000015560208201518160010155905050505050565b600061164a60016000848152602001908152602001600020600001611e84565b9050919050565b60607f60b176c013bc5f6a4aaf9c1455cc3ff5e7ee54daffb41be2fd0e50b804acad427f238cc277b81124817de0fb6e725dfaca359442ead042cbf4fa5a5d15a441d45481141561171e576116a96000801b336110b4565b806116da57506116d97f238cc277b81124817de0fb6e725dfaca359442ead042cbf4fa5a5d15a441d454336110b4565b5b611719576040517f08c379a000000000000000000000000000000000000000000000000000000000815260040161171090612c79565b60405180910390fd5b6117cd565b61172b6000801b336110b4565b8061175c575061175b7f238cc277b81124817de0fb6e725dfaca359442ead042cbf4fa5a5d15a441d454336110b4565b5b8061178d575061178c7f60b176c013bc5f6a4aaf9c1455cc3ff5e7ee54daffb41be2fd0e50b804acad42336110b4565b5b6117cc576040517f08c379a00000000000000000000000000000000000000000000000000000000081526004016117c390612c79565b60405180910390fd5b5b6117d56120c2565b600360003373ffffffffffffffffffffffffffffffffffffffff1673ffffffffffffffffffffffffffffffffffffffff1681526020019081526020016000206040518060400160405290816000820154815260200160018201548152505090506000816020015182600001510114156118f557600260009054906101000a900473ffffffffffffffffffffffffffffffffffffffff1673ffffffffffffffffffffffffffffffffffffffff1663caebb9916040518163ffffffff1660e01b815260040160006040518083038186803b1580156118b057600080fd5b505afa1580156118c4573d6000803e3d6000fd5b505050506040513d6000823e3d601f19601f820116820180604052508101906118ed919061242a565b925050611a7c565b6000816020015114156119be57600260009054906101000a900473ffffffffffffffffffffffffffffffffffffffff1673ffffffffffffffffffffffffffffffffffffffff166396cba36a82600001516040518263ffffffff1660e01b81526004016119619190612d54565b60006040518083038186803b15801561197957600080fd5b505afa15801561198d573d6000803e3d6000fd5b505050506040513d6000823e3d601f19601f820116820180604052508101906119b6919061242a565b925050611a7c565b600260009054906101000a900473ffffffffffffffffffffffffffffffffffffffff1673ffffffffffffffffffffffffffffffffffffffff16638b9265c6826000015183602001516040518363ffffffff1660e01b8152600401611a23929190612d6f565b60006040518083038186803b158015611a3b57600080fd5b505afa158015611a4f573d6000803e3d6000fd5b505050506040513d6000823e3d601f19601f82011682018060405250810190611a78919061242a565b9250505b5090565b611aa76001600084815260200190815260200160002060020154611aa2611d0a565b6110b4565b611ae6576040517f08c379a0000000000000000000000000000000000000000000000000000000008152600401611add90612cd9565b60405180910390fd5b611af08282611da6565b5050565b7f238cc277b81124817de0fb6e725dfaca359442ead042cbf4fa5a5d15a441d45481565b611b20611d0a565b73ffffffffffffffffffffffffffffffffffffffff1660008054906101000a900473ffffffffffffffffffffffffffffffffffffffff1673ffffffffffffffffffffffffffffffffffffffff1614611bad576040517f08c379a0000000000000000000000000000000000000000000000000000000008152600401611ba490612cf9565b60405180910390fd5b600073ffffffffffffffffffffffffffffffffffffffff168173ffffffffffffffffffffffffffffffffffffffff161415611c1d576040517f08c379a0000000000000000000000000000000000000000000000000000000008152600401611c1490612cb9565b60405180910390fd5b8073ffffffffffffffffffffffffffffffffffffffff1660008054906101000a900473ffffffffffffffffffffffffffffffffffffffff1673ffffffffffffffffffffffffffffffffffffffff167f8be0079c531659141344cd1fd0a4f28419497f9722a3daafe3b4186f6b6457e060405160405180910390a3806000806101000a81548173ffffffffffffffffffffffffffffffffffffffff021916908373ffffffffffffffffffffffffffffffffffffffff16021790555050565b6000611d02836000018373ffffffffffffffffffffffffffffffffffffffff1660001b611e99565b905092915050565b600033905090565b611d3a8160016000858152602001908152602001600020600001611cda90919063ffffffff16565b15611da257611d47611d0a565b73ffffffffffffffffffffffffffffffffffffffff168173ffffffffffffffffffffffffffffffffffffffff16837f2f8788117e7eff1d82e926ec794901d17c78024a50270940304540a733656f0d60405160405180910390a45b5050565b611dce8160016000858152602001908152602001600020600001611f0990919063ffffffff16565b15611e3657611ddb611d0a565b73ffffffffffffffffffffffffffffffffffffffff168173ffffffffffffffffffffffffffffffffffffffff16837ff6391f5c32d9c69d2a47ea670b442974b53935d1edc7fd64eb21e047a839171b60405160405180910390a45b5050565b6000611e498360000183611f39565b60001c905092915050565b6000611e7c836000018373ffffffffffffffffffffffffffffffffffffffff1660001b611fa6565b905092915050565b6000611e9282600001611fc9565b9050919050565b6000611ea58383611fa6565b611efe578260000182908060018154018082558091505060019003906000526020600020016000909190919091505582600001805490508360010160008481526020019081526020016000208190555060019050611f03565b600090505b92915050565b6000611f31836000018373ffffffffffffffffffffffffffffffffffffffff1660001b611fda565b905092915050565b600081836000018054905011611f84576040517f08c379a0000000000000000000000000000000000000000000000000000000008152600401611f7b90612c59565b60405180910390fd5b826000018281548110611f9357fe5b9060005260206000200154905092915050565b600080836001016000848152602001908152602001600020541415905092915050565b600081600001805490509050919050565b600080836001016000848152602001908152602001600020549050600081146120b6576000600182039050600060018660000180549050039050600086600001828154811061202557fe5b906000526020600020015490508087600001848154811061204257fe5b906000526020600020018190555060018301876001016000838152602001908152602001600020819055508660000180548061207a57fe5b600190038181906000526020600020016000905590558660010160008781526020019081526020016000206000905560019450505050506120bc565b60009150505b92915050565b604051806040016040528060008152602001600081525090565b6000813590506120eb81612fbe565b92915050565b600082601f83011261210257600080fd5b815161211561211082612e5f565b612e32565b9150818183526020840193506020810190508360005b8381101561215b5781518601612141888261224c565b84526020840193506020830192505060018101905061212b565b5050505092915050565b60008135905061217481612fd5565b92915050565b60008151905061218981612fd5565b92915050565b60008135905061219e81612fec565b92915050565b600082601f8301126121b557600080fd5b81356121c86121c382612e87565b612e32565b915080825260208301602083018583830111156121e457600080fd5b6121ef838284612f6b565b50505092915050565b600082601f83011261220957600080fd5b815161221c61221782612e87565b612e32565b9150808252602083016020830185838301111561223857600080fd5b612243838284612f7a565b50505092915050565b6000610120828403121561225f57600080fd5b61226a610120612e32565b9050600061227a8482850161239d565b600083015250602061228e8482850161239d565b60208301525060406122a28482850161239d565b604083015250606082015167ffffffffffffffff8111156122c257600080fd5b6122ce848285016121f8565b606083015250608082015167ffffffffffffffff8111156122ee57600080fd5b6122fa848285016121f8565b60808301525060a061230e8482850161217a565b60a08301525060c082015167ffffffffffffffff81111561232e57600080fd5b61233a848285016121f8565b60c08301525060e082015167ffffffffffffffff81111561235a57600080fd5b612366848285016121f8565b60e08301525061010061237b8482850161239d565b6101008301525092915050565b60008135905061239781613003565b92915050565b6000815190506123ac81613003565b92915050565b6000602082840312156123c457600080fd5b60006123d2848285016120dc565b91505092915050565b6000806000606084860312156123f057600080fd5b60006123fe868287016120dc565b935050602061240f86828701612388565b925050604061242086828701612388565b9150509250925092565b60006020828403121561243c57600080fd5b600082015167ffffffffffffffff81111561245657600080fd5b612462848285016120f1565b91505092915050565b60006020828403121561247d57600080fd5b600061248b8482850161218f565b91505092915050565b600080604083850312156124a757600080fd5b60006124b58582860161218f565b92505060206124c6858286016120dc565b9150509250929050565b600080604083850312156124e357600080fd5b60006124f18582860161218f565b925050602061250285828601612388565b9150509250929050565b60006020828403121561251e57600080fd5b600082015167ffffffffffffffff81111561253857600080fd5b612544848285016121f8565b91505092915050565b60006020828403121561255f57600080fd5b600061256d84828501612388565b91505092915050565b600080600080600080600080610100898b03121561259357600080fd5b60006125a18b828c01612388565b98505060206125b28b828c01612388565b97505060406125c38b828c01612388565b965050606089013567ffffffffffffffff8111156125e057600080fd5b6125ec8b828c016121a4565b955050608089013567ffffffffffffffff81111561260957600080fd5b6126158b828c016121a4565b94505060a06126268b828c01612165565b93505060c089013567ffffffffffffffff81111561264357600080fd5b61264f8b828c016121a4565b92505060e089013567ffffffffffffffff81111561266c57600080fd5b6126788b828c016121a4565b9150509295985092959890939650565b60006126948383612a6c565b905092915050565b6126a581612f19565b82525050565b60006126b682612ec3565b6126c08185612ee6565b9350836020820285016126d285612eb3565b8060005b8581101561270e57848403895281516126ef8582612688565b94506126fa83612ed9565b925060208a019950506001810190506126d6565b50829750879550505050505092915050565b61272981612f2b565b82525050565b61273881612f2b565b82525050565b61274781612f37565b82525050565b600061275882612ece565b6127628185612ef7565b9350612772818560208601612f7a565b61277b81612fad565b840191505092915050565b600061279182612ece565b61279b8185612f08565b93506127ab818560208601612f7a565b6127b481612fad565b840191505092915050565b60006127cc602283612f08565b91507f456e756d657261626c655365743a20696e646578206f7574206f6620626f756e60008301527f64730000000000000000000000000000000000000000000000000000000000006020830152604082019050919050565b6000612832601383612f08565b91507f55736572206e6f7420617574686f7269736564000000000000000000000000006000830152602082019050919050565b6000612872602f83612f08565b91507f416363657373436f6e74726f6c3a2073656e646572206d75737420626520616e60008301527f2061646d696e20746f206772616e7400000000000000000000000000000000006020830152604082019050919050565b60006128d8602683612f08565b91507f4f776e61626c653a206e6577206f776e657220697320746865207a65726f206160008301527f64647265737300000000000000000000000000000000000000000000000000006020830152604082019050919050565b600061293e603083612f08565b91507f416363657373436f6e74726f6c3a2073656e646572206d75737420626520616e60008301527f2061646d696e20746f207265766f6b65000000000000000000000000000000006020830152604082019050919050565b60006129a4602083612f08565b91507f4f776e61626c653a2063616c6c6572206973206e6f7420746865206f776e65726000830152602082019050919050565b60006129e4602f83612f08565b91507f416363657373436f6e74726f6c3a2063616e206f6e6c792072656e6f756e636560008301527f20726f6c657320666f722073656c6600000000000000000000000000000000006020830152604082019050919050565b604082016000820151612a536000850182612b46565b506020820151612a666020850182612b46565b50505050565b600061012083016000830151612a856000860182612b46565b506020830151612a986020860182612b46565b506040830151612aab6040860182612b46565b5060608301518482036060860152612ac3828261274d565b91505060808301518482036080860152612add828261274d565b91505060a0830151612af260a0860182612720565b5060c083015184820360c0860152612b0a828261274d565b91505060e083015184820360e0860152612b24828261274d565b915050610100830151612b3b610100860182612b46565b508091505092915050565b612b4f81612f61565b82525050565b612b5e81612f61565b82525050565b6000602082019050612b79600083018461269c565b92915050565b6000604082019050612b94600083018561269c565b612ba16020830184612b55565b9392505050565b6000606082019050612bbd600083018661269c565b612bca6020830185612b55565b612bd76040830184612b55565b949350505050565b60006020820190508181036000830152612bf981846126ab565b905092915050565b6000602082019050612c16600083018461272f565b92915050565b6000602082019050612c31600083018461273e565b92915050565b60006020820190508181036000830152612c518184612786565b905092915050565b60006020820190508181036000830152612c72816127bf565b9050919050565b60006020820190508181036000830152612c9281612825565b9050919050565b60006020820190508181036000830152612cb281612865565b9050919050565b60006020820190508181036000830152612cd2816128cb565b9050919050565b60006020820190508181036000830152612cf281612931565b9050919050565b60006020820190508181036000830152612d1281612997565b9050919050565b60006020820190508181036000830152612d32816129d7565b9050919050565b6000604082019050612d4e6000830184612a3d565b92915050565b6000602082019050612d696000830184612b55565b92915050565b6000604082019050612d846000830185612b55565b612d916020830184612b55565b9392505050565b600061010082019050612dae600083018b612b55565b612dbb602083018a612b55565b612dc86040830189612b55565b8181036060830152612dda8188612786565b90508181036080830152612dee8187612786565b9050612dfd60a083018661272f565b81810360c0830152612e0f8185612786565b905081810360e0830152612e238184612786565b90509998505050505050505050565b6000604051905081810181811067ffffffffffffffff82111715612e5557600080fd5b8060405250919050565b600067ffffffffffffffff821115612e7657600080fd5b602082029050602081019050919050565b600067ffffffffffffffff821115612e9e57600080fd5b601f19601f8301169050602081019050919050565b6000819050602082019050919050565b600081519050919050565b600081519050919050565b6000602082019050919050565b600082825260208201905092915050565b600082825260208201905092915050565b600082825260208201905092915050565b6000612f2482612f41565b9050919050565b60008115159050919050565b6000819050919050565b600073ffffffffffffffffffffffffffffffffffffffff82169050919050565b6000819050919050565b82818337600083830152505050565b60005b83811015612f98578082015181840152602081019050612f7d565b83811115612fa7576000848401525b50505050565b6000601f19601f8301169050919050565b612fc781612f19565b8114612fd257600080fd5b50565b612fde81612f2b565b8114612fe957600080fd5b50565b612ff581612f37565b811461300057600080fd5b50565b61300c81612f61565b811461301757600080fd5b5056fea26469706673582212208272e780d3166739bdd1225719c6247c7a3f07f2460abb42b482c95f7a817be564736f6c634300060c0033",
  "immutableReferences": {},
  "source": "// SPDX-License-Identifier: MIT\npragma solidity ^0.6.0;\npragma experimental ABIEncoderV2;\n\nimport \"@openzeppelin/contracts/access/AccessControl.sol\";\nimport \"@openzeppelin/contracts/access/Ownable.sol\";\nimport \"./CalStore.sol\";\nimport \"./VEventLibrary.sol\";\n\ncontract CalAuth is Ownable, AccessControl {\n    using VEventLibrary for VEventLibrary.VEvent;\n\n    bytes32 public constant USER_READ_ROLE = keccak256(\"USER_READ_ROLE\");\n    bytes32 public constant USER_WRITE_ROLE = keccak256(\"USER_WRITE_ROLE\");\n    bytes32 public constant ADMIN = keccak256(\"ADMIN\");\n    CalStore private calStore;\n\n    struct AccessWindow {\n        uint validFrom;\n        uint expiresBy;\n    }\n    \n    mapping(address => AccessWindow) private accessList;\n\n    constructor(address _addr) public {\n        _setupRole(DEFAULT_ADMIN_ROLE, msg.sender);\n        calStore = CalStore(_addr);\n    }\n\n    modifier onlyRole(bytes32 _role) {\n        if (_role == USER_WRITE_ROLE) {\n            require(\n                hasRole(DEFAULT_ADMIN_ROLE, msg.sender) ||\n                hasRole(USER_WRITE_ROLE, msg.sender),\n                \"User not authorised\");\n        } else {\n            require(\n                hasRole(DEFAULT_ADMIN_ROLE, msg.sender) ||\n                hasRole(USER_WRITE_ROLE, msg.sender) ||\n                hasRole(USER_READ_ROLE, msg.sender),\n                \"User not authorised\");\n        }\n        _;\n    }\n    \n    modifier onlyRoleIcal(address _user) {\n        require(\n            hasRole(DEFAULT_ADMIN_ROLE, _user) ||\n            hasRole(USER_WRITE_ROLE, _user) ||\n            hasRole(USER_READ_ROLE, _user),\n            \"User not authorised\");\n        _;\n    }\n\n    function storeEvent(\n        uint _dtstamp,\n        uint _dtstart,\n        uint _dtend,\n        string memory _summary,\n        string memory _description,\n        bool _isallday,\n        string memory _alldaystartdate,\n        string memory _alldayenddate)\n        public onlyRole(USER_WRITE_ROLE)\n        {\n        calStore.storeEvent(\n            _dtstamp, _dtstart, _dtend,\n            _summary, _description,\n            _isallday, _alldaystartdate,\n            _alldayenddate);\n    }\n\n    function removeEvent(uint _dtstamp) public onlyRole(USER_WRITE_ROLE) {\n        require(\n            hasRole(DEFAULT_ADMIN_ROLE, msg.sender) ||\n            hasRole(USER_WRITE_ROLE, msg.sender),\n            \"User not authorised\");\n        calStore.removeEvent(_dtstamp);\n    }\n\n    function getEventsIcal(address _user) public view onlyRoleIcal(_user) returns (\n        string memory) {\n        AccessWindow memory requestWindow = accessList[_user];\n        if ((requestWindow.validFrom + requestWindow.expiresBy) == 0) {\n            return calStore.getEventsIcal(address(this));\n        } else if (requestWindow.expiresBy == 0) {\n            return calStore.getEventsIcal(address(this), requestWindow.validFrom);\n        } else {\n            return calStore.getEventsIcal(address(this), requestWindow.validFrom, requestWindow.expiresBy);\n        }\n    }\n\n\n    function getEventsObj() public view onlyRole(USER_READ_ROLE) returns (\n        VEventLibrary.VEvent[] memory) {\n            AccessWindow memory requestWindow = accessList[msg.sender];\n            if ((requestWindow.validFrom + requestWindow.expiresBy) == 0) {\n                return calStore.getEventsObj();\n            } else if (requestWindow.expiresBy == 0) {\n                return calStore.getEventsObj(requestWindow.validFrom);\n            } else {\n                return calStore.getEventsObj(\n                    requestWindow.validFrom, \n                    requestWindow.expiresBy);\n            }\n    }\n\n    /// @notice Returns role of msg.sender\n    /// @dev Returns in hierarchial order, e.g. ADMIN more important than READ etc\n    /// @return string user role\n    function getUserRole() public view returns (string memory) {\n        if (hasRole(DEFAULT_ADMIN_ROLE, msg.sender)) {\n            return \"ADMIN\";\n        } else if (hasRole(ADMIN, msg.sender)) {\n            return \"ADMIN\";\n        } else if (hasRole(USER_WRITE_ROLE, msg.sender)) {\n            return \"USER_WRITE_ROLE\";\n        } else if (hasRole(USER_READ_ROLE, msg.sender)) {\n            return \"USER_READ_ROLE\";\n        }\n        return \"NIL\";\n    }\n\n    function addRead(address _userAddress, uint _validFrom, uint _expiresBy) public onlyOwner {\n        grantRole(USER_READ_ROLE, _userAddress);\n        accessList[_userAddress] = AccessWindow(_validFrom, _expiresBy);\n\n    }\n\n    function addWrite(address _userAddress, uint _validFrom, uint _expiresBy) public onlyOwner {\n        grantRole(USER_WRITE_ROLE, _userAddress);\n        accessList[_userAddress] = AccessWindow(_validFrom, _expiresBy);\n    }\n\n    function getAccessWindow(address _userAddress) \n    view\n    public \n    returns (AccessWindow memory) {\n\treturn accessList[_userAddress];\n    }\n\n\n\n\n    //TODO: Delete, not used\n    function revokeRead(address userAddress) public onlyOwner {\n        revokeRole(USER_READ_ROLE, userAddress);\n    }\n\n    //TODO: Delete, not used\n    function revokeWrite(address userAddress) public onlyOwner {\n        revokeRole(USER_WRITE_ROLE, userAddress);\n    }\n\n    function authHi() public pure returns (string memory) {\n        return \"CalAuth Says Hi.  Correct.\";\n    }\n}\n\n",
  "sourcePath": "/home/gene/Programming/Websites/Precious_Chicken_Website/blog_code_demos/forget-me-block-eth-cal-auth/contracts/CalAuth.sol",
  "compiler": {
    "name": "solc",
    "version": "0.6.12+commit.27d51765.Emscripten.clang"
  },
  "schemaVersion": "3.2.3",
  "updatedAt": "2020-08-18T12:34:10.878Z",
  "networkType": "ethereum",
  "devdoc": {
    "kind": "dev",
    "methods": {
      "getRoleAdmin(bytes32)": {
        "details": "Returns the admin role that controls `role`. See {grantRole} and {revokeRole}. To change a role's admin, use {_setRoleAdmin}."
      },
      "getRoleMember(bytes32,uint256)": {
        "details": "Returns one of the accounts that have `role`. `index` must be a value between 0 and {getRoleMemberCount}, non-inclusive. Role bearers are not sorted in any particular way, and their ordering may change at any point. WARNING: When using {getRoleMember} and {getRoleMemberCount}, make sure you perform all queries on the same block. See the following https://forum.openzeppelin.com/t/iterating-over-elements-on-enumerableset-in-openzeppelin-contracts/2296[forum post] for more information."
      },
      "getRoleMemberCount(bytes32)": {
        "details": "Returns the number of accounts that have `role`. Can be used together with {getRoleMember} to enumerate all bearers of a role."
      },
      "getUserRole()": {
        "details": "Returns in hierarchial order, e.g. ADMIN more important than READ etc",
        "returns": {
          "_0": "string user role"
        }
      },
      "grantRole(bytes32,address)": {
        "details": "Grants `role` to `account`. If `account` had not been already granted `role`, emits a {RoleGranted} event. Requirements: - the caller must have ``role``'s admin role."
      },
      "hasRole(bytes32,address)": {
        "details": "Returns `true` if `account` has been granted `role`."
      },
      "owner()": {
        "details": "Returns the address of the current owner."
      },
      "renounceOwnership()": {
        "details": "Leaves the contract without owner. It will not be possible to call `onlyOwner` functions anymore. Can only be called by the current owner. NOTE: Renouncing ownership will leave the contract without an owner, thereby removing any functionality that is only available to the owner."
      },
      "renounceRole(bytes32,address)": {
        "details": "Revokes `role` from the calling account. Roles are often managed via {grantRole} and {revokeRole}: this function's purpose is to provide a mechanism for accounts to lose their privileges if they are compromised (such as when a trusted device is misplaced). If the calling account had been granted `role`, emits a {RoleRevoked} event. Requirements: - the caller must be `account`."
      },
      "revokeRole(bytes32,address)": {
        "details": "Revokes `role` from `account`. If `account` had been granted `role`, emits a {RoleRevoked} event. Requirements: - the caller must have ``role``'s admin role."
      },
      "transferOwnership(address)": {
        "details": "Transfers ownership of the contract to a new account (`newOwner`). Can only be called by the current owner."
      }
    },
    "version": 1
  },
  "userdoc": {
    "kind": "user",
    "methods": {
      "getUserRole()": {
        "notice": "Returns role of msg.sender"
      }
    },
    "version": 1
  }
}