{
  "contractName": "CalAuth",
  "abi": [
    {
      "inputs": [
        {
          "internalType": "address",
          "name": "_addr",
          "type": "address"
        }
      ],
      "stateMutability": "nonpayable",
      "type": "constructor"
    },
    {
      "anonymous": false,
      "inputs": [
        {
          "indexed": true,
          "internalType": "address",
          "name": "previousOwner",
          "type": "address"
        },
        {
          "indexed": true,
          "internalType": "address",
          "name": "newOwner",
          "type": "address"
        }
      ],
      "name": "OwnershipTransferred",
      "type": "event"
    },
    {
      "anonymous": false,
      "inputs": [
        {
          "indexed": true,
          "internalType": "bytes32",
          "name": "role",
          "type": "bytes32"
        },
        {
          "indexed": true,
          "internalType": "bytes32",
          "name": "previousAdminRole",
          "type": "bytes32"
        },
        {
          "indexed": true,
          "internalType": "bytes32",
          "name": "newAdminRole",
          "type": "bytes32"
        }
      ],
      "name": "RoleAdminChanged",
      "type": "event"
    },
    {
      "anonymous": false,
      "inputs": [
        {
          "indexed": true,
          "internalType": "bytes32",
          "name": "role",
          "type": "bytes32"
        },
        {
          "indexed": true,
          "internalType": "address",
          "name": "account",
          "type": "address"
        },
        {
          "indexed": true,
          "internalType": "address",
          "name": "sender",
          "type": "address"
        }
      ],
      "name": "RoleGranted",
      "type": "event"
    },
    {
      "anonymous": false,
      "inputs": [
        {
          "indexed": true,
          "internalType": "bytes32",
          "name": "role",
          "type": "bytes32"
        },
        {
          "indexed": true,
          "internalType": "address",
          "name": "account",
          "type": "address"
        },
        {
          "indexed": true,
          "internalType": "address",
          "name": "sender",
          "type": "address"
        }
      ],
      "name": "RoleRevoked",
      "type": "event"
    },
    {
      "inputs": [],
      "name": "ADMIN",
      "outputs": [
        {
          "internalType": "bytes32",
          "name": "",
          "type": "bytes32"
        }
      ],
      "stateMutability": "view",
      "type": "function",
      "constant": true
    },
    {
      "inputs": [],
      "name": "DEFAULT_ADMIN_ROLE",
      "outputs": [
        {
          "internalType": "bytes32",
          "name": "",
          "type": "bytes32"
        }
      ],
      "stateMutability": "view",
      "type": "function",
      "constant": true
    },
    {
      "inputs": [],
      "name": "USER_READ_ROLE",
      "outputs": [
        {
          "internalType": "bytes32",
          "name": "",
          "type": "bytes32"
        }
      ],
      "stateMutability": "view",
      "type": "function",
      "constant": true
    },
    {
      "inputs": [],
      "name": "USER_WRITE_ROLE",
      "outputs": [
        {
          "internalType": "bytes32",
          "name": "",
          "type": "bytes32"
        }
      ],
      "stateMutability": "view",
      "type": "function",
      "constant": true
    },
    {
      "inputs": [
        {
          "internalType": "bytes32",
          "name": "role",
          "type": "bytes32"
        }
      ],
      "name": "getRoleAdmin",
      "outputs": [
        {
          "internalType": "bytes32",
          "name": "",
          "type": "bytes32"
        }
      ],
      "stateMutability": "view",
      "type": "function",
      "constant": true
    },
    {
      "inputs": [
        {
          "internalType": "bytes32",
          "name": "role",
          "type": "bytes32"
        },
        {
          "internalType": "uint256",
          "name": "index",
          "type": "uint256"
        }
      ],
      "name": "getRoleMember",
      "outputs": [
        {
          "internalType": "address",
          "name": "",
          "type": "address"
        }
      ],
      "stateMutability": "view",
      "type": "function",
      "constant": true
    },
    {
      "inputs": [
        {
          "internalType": "bytes32",
          "name": "role",
          "type": "bytes32"
        }
      ],
      "name": "getRoleMemberCount",
      "outputs": [
        {
          "internalType": "uint256",
          "name": "",
          "type": "uint256"
        }
      ],
      "stateMutability": "view",
      "type": "function",
      "constant": true
    },
    {
      "inputs": [
        {
          "internalType": "bytes32",
          "name": "role",
          "type": "bytes32"
        },
        {
          "internalType": "address",
          "name": "account",
          "type": "address"
        }
      ],
      "name": "grantRole",
      "outputs": [],
      "stateMutability": "nonpayable",
      "type": "function"
    },
    {
      "inputs": [
        {
          "internalType": "bytes32",
          "name": "role",
          "type": "bytes32"
        },
        {
          "internalType": "address",
          "name": "account",
          "type": "address"
        }
      ],
      "name": "hasRole",
      "outputs": [
        {
          "internalType": "bool",
          "name": "",
          "type": "bool"
        }
      ],
      "stateMutability": "view",
      "type": "function",
      "constant": true
    },
    {
      "inputs": [],
      "name": "owner",
      "outputs": [
        {
          "internalType": "address",
          "name": "",
          "type": "address"
        }
      ],
      "stateMutability": "view",
      "type": "function",
      "constant": true
    },
    {
      "inputs": [],
      "name": "renounceOwnership",
      "outputs": [],
      "stateMutability": "nonpayable",
      "type": "function"
    },
    {
      "inputs": [
        {
          "internalType": "bytes32",
          "name": "role",
          "type": "bytes32"
        },
        {
          "internalType": "address",
          "name": "account",
          "type": "address"
        }
      ],
      "name": "renounceRole",
      "outputs": [],
      "stateMutability": "nonpayable",
      "type": "function"
    },
    {
      "inputs": [
        {
          "internalType": "bytes32",
          "name": "role",
          "type": "bytes32"
        },
        {
          "internalType": "address",
          "name": "account",
          "type": "address"
        }
      ],
      "name": "revokeRole",
      "outputs": [],
      "stateMutability": "nonpayable",
      "type": "function"
    },
    {
      "inputs": [
        {
          "internalType": "address",
          "name": "newOwner",
          "type": "address"
        }
      ],
      "name": "transferOwnership",
      "outputs": [],
      "stateMutability": "nonpayable",
      "type": "function"
    },
    {
      "inputs": [
        {
          "internalType": "uint256",
          "name": "_dtstamp",
          "type": "uint256"
        },
        {
          "internalType": "uint256",
          "name": "_dtstart",
          "type": "uint256"
        },
        {
          "internalType": "uint256",
          "name": "_dtend",
          "type": "uint256"
        },
        {
          "internalType": "string",
          "name": "_summary",
          "type": "string"
        },
        {
          "internalType": "string",
          "name": "_description",
          "type": "string"
        },
        {
          "internalType": "bool",
          "name": "_isallday",
          "type": "bool"
        },
        {
          "internalType": "string",
          "name": "_alldaystartdate",
          "type": "string"
        },
        {
          "internalType": "string",
          "name": "_alldayenddate",
          "type": "string"
        }
      ],
      "name": "storeEvent",
      "outputs": [],
      "stateMutability": "nonpayable",
      "type": "function"
    },
    {
      "inputs": [
        {
          "internalType": "uint256",
          "name": "_dtstamp",
          "type": "uint256"
        }
      ],
      "name": "removeEvent",
      "outputs": [],
      "stateMutability": "nonpayable",
      "type": "function"
    },
    {
      "inputs": [
        {
          "internalType": "address",
          "name": "_user",
          "type": "address"
        }
      ],
      "name": "getEventsIcal",
      "outputs": [
        {
          "internalType": "string",
          "name": "",
          "type": "string"
        }
      ],
      "stateMutability": "view",
      "type": "function",
      "constant": true
    },
    {
      "inputs": [
        {
          "internalType": "address",
          "name": "_user",
          "type": "address"
        },
        {
          "internalType": "uint256",
          "name": "_validFrom",
          "type": "uint256"
        },
        {
          "internalType": "uint256",
          "name": "_expiresBy",
          "type": "uint256"
        }
      ],
      "name": "getEventsIcal",
      "outputs": [
        {
          "internalType": "string",
          "name": "",
          "type": "string"
        }
      ],
      "stateMutability": "view",
      "type": "function",
      "constant": true
    },
    {
      "inputs": [
        {
          "internalType": "address",
          "name": "_user",
          "type": "address"
        },
        {
          "internalType": "uint256",
          "name": "_validFrom",
          "type": "uint256"
        }
      ],
      "name": "getEventsIcal",
      "outputs": [
        {
          "internalType": "string",
          "name": "",
          "type": "string"
        }
      ],
      "stateMutability": "view",
      "type": "function",
      "constant": true
    },
    {
      "inputs": [
        {
          "internalType": "uint256",
          "name": "_validFrom",
          "type": "uint256"
        },
        {
          "internalType": "uint256",
          "name": "_expiresBy",
          "type": "uint256"
        }
      ],
      "name": "getEventsObj",
      "outputs": [
        {
          "components": [
            {
              "internalType": "uint256",
              "name": "dtstamp",
              "type": "uint256"
            },
            {
              "internalType": "uint256",
              "name": "dtstart",
              "type": "uint256"
            },
            {
              "internalType": "uint256",
              "name": "dtend",
              "type": "uint256"
            },
            {
              "internalType": "string",
              "name": "summary",
              "type": "string"
            },
            {
              "internalType": "string",
              "name": "description",
              "type": "string"
            },
            {
              "internalType": "bool",
              "name": "isallday",
              "type": "bool"
            },
            {
              "internalType": "string",
              "name": "alldaystartdate",
              "type": "string"
            },
            {
              "internalType": "string",
              "name": "alldayenddate",
              "type": "string"
            },
            {
              "internalType": "uint256",
              "name": "uid",
              "type": "uint256"
            }
          ],
          "internalType": "struct VEventLibrary.VEvent[]",
          "name": "",
          "type": "tuple[]"
        }
      ],
      "stateMutability": "view",
      "type": "function",
      "constant": true
    },
    {
      "inputs": [
        {
          "internalType": "uint256",
          "name": "_validFrom",
          "type": "uint256"
        }
      ],
      "name": "getEventsObj",
      "outputs": [
        {
          "components": [
            {
              "internalType": "uint256",
              "name": "dtstamp",
              "type": "uint256"
            },
            {
              "internalType": "uint256",
              "name": "dtstart",
              "type": "uint256"
            },
            {
              "internalType": "uint256",
              "name": "dtend",
              "type": "uint256"
            },
            {
              "internalType": "string",
              "name": "summary",
              "type": "string"
            },
            {
              "internalType": "string",
              "name": "description",
              "type": "string"
            },
            {
              "internalType": "bool",
              "name": "isallday",
              "type": "bool"
            },
            {
              "internalType": "string",
              "name": "alldaystartdate",
              "type": "string"
            },
            {
              "internalType": "string",
              "name": "alldayenddate",
              "type": "string"
            },
            {
              "internalType": "uint256",
              "name": "uid",
              "type": "uint256"
            }
          ],
          "internalType": "struct VEventLibrary.VEvent[]",
          "name": "",
          "type": "tuple[]"
        }
      ],
      "stateMutability": "view",
      "type": "function",
      "constant": true
    },
    {
      "inputs": [],
      "name": "getEventsObj",
      "outputs": [
        {
          "components": [
            {
              "internalType": "uint256",
              "name": "dtstamp",
              "type": "uint256"
            },
            {
              "internalType": "uint256",
              "name": "dtstart",
              "type": "uint256"
            },
            {
              "internalType": "uint256",
              "name": "dtend",
              "type": "uint256"
            },
            {
              "internalType": "string",
              "name": "summary",
              "type": "string"
            },
            {
              "internalType": "string",
              "name": "description",
              "type": "string"
            },
            {
              "internalType": "bool",
              "name": "isallday",
              "type": "bool"
            },
            {
              "internalType": "string",
              "name": "alldaystartdate",
              "type": "string"
            },
            {
              "internalType": "string",
              "name": "alldayenddate",
              "type": "string"
            },
            {
              "internalType": "uint256",
              "name": "uid",
              "type": "uint256"
            }
          ],
          "internalType": "struct VEventLibrary.VEvent[]",
          "name": "",
          "type": "tuple[]"
        }
      ],
      "stateMutability": "view",
      "type": "function",
      "constant": true
    },
    {
      "inputs": [],
      "name": "getUserRole",
      "outputs": [
        {
          "internalType": "string",
          "name": "",
          "type": "string"
        }
      ],
      "stateMutability": "view",
      "type": "function",
      "constant": true
    },
    {
      "inputs": [
        {
          "internalType": "address",
          "name": "userAddress",
          "type": "address"
        }
      ],
      "name": "addRead",
      "outputs": [],
      "stateMutability": "nonpayable",
      "type": "function"
    },
    {
      "inputs": [
        {
          "internalType": "address",
          "name": "userAddress",
          "type": "address"
        }
      ],
      "name": "addWrite",
      "outputs": [],
      "stateMutability": "nonpayable",
      "type": "function"
    },
    {
      "inputs": [
        {
          "internalType": "address",
          "name": "userAddress",
          "type": "address"
        }
      ],
      "name": "revokeRead",
      "outputs": [],
      "stateMutability": "nonpayable",
      "type": "function"
    },
    {
      "inputs": [
        {
          "internalType": "address",
          "name": "userAddress",
          "type": "address"
        }
      ],
      "name": "revokeWrite",
      "outputs": [],
      "stateMutability": "nonpayable",
      "type": "function"
    },
    {
      "inputs": [],
      "name": "userReadWelcomeString",
      "outputs": [
        {
          "internalType": "string",
          "name": "",
          "type": "string"
        }
      ],
      "stateMutability": "view",
      "type": "function",
      "constant": true
    },
    {
      "inputs": [],
      "name": "ownerWelcomeString",
      "outputs": [
        {
          "internalType": "string",
          "name": "",
          "type": "string"
        }
      ],
      "stateMutability": "view",
      "type": "function",
      "constant": true
    },
    {
      "inputs": [],
      "name": "justSayHiCalAuth",
      "outputs": [
        {
          "internalType": "string",
          "name": "",
          "type": "string"
        }
      ],
      "stateMutability": "pure",
      "type": "function",
      "constant": true
    },
    {
      "inputs": [],
      "name": "authHi",
      "outputs": [
        {
          "internalType": "string",
          "name": "",
          "type": "string"
        }
      ],
      "stateMutability": "pure",
      "type": "function",
      "constant": true
    }
  ],
  "bytecode": "0x60806040523480156200001157600080fd5b5060405162003b4638038062003b468339818101604052810190620000379190620002f2565b6000620000496200014460201b60201c565b9050806000806101000a81548173ffffffffffffffffffffffffffffffffffffffff021916908373ffffffffffffffffffffffffffffffffffffffff1602179055508073ffffffffffffffffffffffffffffffffffffffff16600073ffffffffffffffffffffffffffffffffffffffff167f8be0079c531659141344cd1fd0a4f28419497f9722a3daafe3b4186f6b6457e060405160405180910390a350620000fc6000801b336200014c60201b60201c565b80600260006101000a81548173ffffffffffffffffffffffffffffffffffffffff021916908373ffffffffffffffffffffffffffffffffffffffff160217905550506200036c565b600033905090565b6200015e82826200016260201b60201c565b5050565b6200019181600160008581526020019081526020016000206000016200020660201b620023e01790919060201c565b156200020257620001a76200014460201b60201c565b73ffffffffffffffffffffffffffffffffffffffff168173ffffffffffffffffffffffffffffffffffffffff16837f2f8788117e7eff1d82e926ec794901d17c78024a50270940304540a733656f0d60405160405180910390a45b5050565b600062000236836000018373ffffffffffffffffffffffffffffffffffffffff1660001b6200023e60201b60201c565b905092915050565b6000620002528383620002b860201b60201c565b620002ad578260000182908060018154018082558091505060019003906000526020600020016000909190919091505582600001805490508360010160008481526020019081526020016000208190555060019050620002b2565b600090505b92915050565b600080836001016000848152602001908152602001600020541415905092915050565b600081519050620002ec8162000352565b92915050565b6000602082840312156200030557600080fd5b60006200031584828501620002db565b91505092915050565b60006200032b8262000332565b9050919050565b600073ffffffffffffffffffffffffffffffffffffffff82169050919050565b6200035d816200031e565b81146200036957600080fd5b50565b6137ca806200037c6000396000f3fe608060405234801561001057600080fd5b50600436106101e55760003560e01c80638b9265c61161010f578063bf04a10d116100a2578063ee1bf5db11610071578063ee1bf5db1461057e578063f2fde38b1461059c578063f35cf90e146105b8578063fd4a74a1146105e8576101e5565b8063bf04a10d146104f6578063ca15c87314610514578063caebb99114610544578063d547741f14610562576101e5565b806396cba36a116100de57806396cba36a1461046e578063a217fddf1461049e578063ab7cc4d2146104bc578063aef956e9146104d8576101e5565b80638b9265c6146103c05780638da5cb5b146103f05780639010d07c1461040e57806391d148541461043e576101e5565b806336568abe116101875780636bf7e0bb116101565780636bf7e0bb1461034c578063715018a614610368578063869cd0c1146103725780638700d56614610390576101e5565b806336568abe146102da578063553bae64146102f657806356164e1e14610314578063607360d314610330576101e5565b8063248a9ca3116101c3578063248a9ca314610252578063283e8442146102825780632a0acc6a146102a05780632f2ff15d146102be576101e5565b806310d00a67146101ea5780631d5ad45b1461021a5780631f79ec0914610236575b600080fd5b61020460048036038101906101ff9190612a9e565b610606565b60405161021191906133ac565b60405180910390f35b610234600480360381019061022f9190612a9e565b61076f565b005b610250600480360381019061024b9190612a9e565b610831565b005b61026c60048036038101906102679190612b93565b6108f3565b6040516102799190613391565b60405180910390f35b61028a610913565b6040516102979190613391565b60405180910390f35b6102a8610937565b6040516102b59190613391565b60405180910390f35b6102d860048036038101906102d39190612bbc565b61095b565b005b6102f460048036038101906102ef9190612bbc565b6109cf565b005b6102fe610a52565b60405161030b91906133ac565b60405180910390f35b61032e60048036038101906103299190612c75565b610a8f565b005b61034a60048036038101906103459190612a9e565b610cf7565b005b61036660048036038101906103619190612a9e565b610db9565b005b610370610e7b565b005b61037a610fce565b60405161038791906133ac565b60405180910390f35b6103aa60048036038101906103a59190612b03565b6110a0565b6040516103b791906133ac565b60405180910390f35b6103da60048036038101906103d59190612c9e565b61120f565b6040516103e79190613354565b60405180910390f35b6103f86114f4565b60405161040591906132d9565b60405180910390f35b61042860048036038101906104239190612bf8565b61151d565b60405161043591906132d9565b60405180910390f35b61045860048036038101906104539190612bbc565b61154f565b6040516104659190613376565b60405180910390f35b61048860048036038101906104839190612c75565b611581565b6040516104959190613354565b60405180910390f35b6104a6611863565b6040516104b39190613391565b60405180910390f35b6104d660048036038101906104d19190612cda565b61186a565b005b6104e0611a6a565b6040516104ed91906133ac565b60405180910390f35b6104fe611aa7565b60405161050b91906133ac565b60405180910390f35b61052e60048036038101906105299190612b93565b611c78565b60405161053b91906134ce565b60405180910390f35b61054c611c9f565b6040516105599190613354565b60405180910390f35b61057c60048036038101906105779190612bbc565b611f74565b005b610586611fe8565b6040516105939190613391565b60405180910390f35b6105b660048036038101906105b19190612a9e565b61200c565b005b6105d260048036038101906105cd9190612ac7565b6121ce565b6040516105df91906133ac565b60405180910390f35b6105f061233a565b6040516105fd91906133ac565b60405180910390f35b6060816106166000801b8261154f565b8061064757506106467f238cc277b81124817de0fb6e725dfaca359442ead042cbf4fa5a5d15a441d4548261154f565b5b8061067857506106777f60b176c013bc5f6a4aaf9c1455cc3ff5e7ee54daffb41be2fd0e50b804acad428261154f565b5b6106b7576040517f08c379a00000000000000000000000000000000000000000000000000000000081526004016106ae906133ee565b60405180910390fd5b600260009054906101000a900473ffffffffffffffffffffffffffffffffffffffff1673ffffffffffffffffffffffffffffffffffffffff166310d00a67306040518263ffffffff1660e01b815260040161071291906132d9565b60006040518083038186803b15801561072a57600080fd5b505afa15801561073e573d6000803e3d6000fd5b505050506040513d6000823e3d601f19601f820116820180604052508101906107679190612c34565b915050919050565b610777612410565b73ffffffffffffffffffffffffffffffffffffffff1660008054906101000a900473ffffffffffffffffffffffffffffffffffffffff1673ffffffffffffffffffffffffffffffffffffffff1614610804576040517f08c379a00000000000000000000000000000000000000000000000000000000081526004016107fb9061346e565b60405180910390fd5b61082e7f60b176c013bc5f6a4aaf9c1455cc3ff5e7ee54daffb41be2fd0e50b804acad428261095b565b50565b610839612410565b73ffffffffffffffffffffffffffffffffffffffff1660008054906101000a900473ffffffffffffffffffffffffffffffffffffffff1673ffffffffffffffffffffffffffffffffffffffff16146108c6576040517f08c379a00000000000000000000000000000000000000000000000000000000081526004016108bd9061346e565b60405180910390fd5b6108f07f238cc277b81124817de0fb6e725dfaca359442ead042cbf4fa5a5d15a441d45482611f74565b50565b600060016000838152602001908152602001600020600201549050919050565b7f60b176c013bc5f6a4aaf9c1455cc3ff5e7ee54daffb41be2fd0e50b804acad4281565b7fdf8b4c520ffe197c5343c6f5aec59570151ef9a492f2c624fd45ddde6135ec4281565b610982600160008481526020019081526020016000206002015461097d612410565b61154f565b6109c1576040517f08c379a00000000000000000000000000000000000000000000000000000000081526004016109b89061340e565b60405180910390fd5b6109cb8282612418565b5050565b6109d7612410565b73ffffffffffffffffffffffffffffffffffffffff168173ffffffffffffffffffffffffffffffffffffffff1614610a44576040517f08c379a0000000000000000000000000000000000000000000000000000000008152600401610a3b906134ae565b60405180910390fd5b610a4e82826124ac565b5050565b60606040518060400160405280600f81526020017f48692066726f6d2043616c417574680000000000000000000000000000000000815250905090565b7f238cc277b81124817de0fb6e725dfaca359442ead042cbf4fa5a5d15a441d45480811415610b3a57610ac56000801b3361154f565b80610af65750610af57f238cc277b81124817de0fb6e725dfaca359442ead042cbf4fa5a5d15a441d4543361154f565b5b610b35576040517f08c379a0000000000000000000000000000000000000000000000000000000008152600401610b2c906133ee565b60405180910390fd5b610be9565b610b476000801b3361154f565b80610b785750610b777f238cc277b81124817de0fb6e725dfaca359442ead042cbf4fa5a5d15a441d4543361154f565b5b80610ba95750610ba87f60b176c013bc5f6a4aaf9c1455cc3ff5e7ee54daffb41be2fd0e50b804acad423361154f565b5b610be8576040517f08c379a0000000000000000000000000000000000000000000000000000000008152600401610bdf906133ee565b60405180910390fd5b5b610bf66000801b3361154f565b80610c275750610c267f238cc277b81124817de0fb6e725dfaca359442ead042cbf4fa5a5d15a441d4543361154f565b5b610c66576040517f08c379a0000000000000000000000000000000000000000000000000000000008152600401610c5d906133ee565b60405180910390fd5b600260009054906101000a900473ffffffffffffffffffffffffffffffffffffffff1673ffffffffffffffffffffffffffffffffffffffff166356164e1e836040518263ffffffff1660e01b8152600401610cc191906134ce565b600060405180830381600087803b158015610cdb57600080fd5b505af1158015610cef573d6000803e3d6000fd5b505050505050565b610cff612410565b73ffffffffffffffffffffffffffffffffffffffff1660008054906101000a900473ffffffffffffffffffffffffffffffffffffffff1673ffffffffffffffffffffffffffffffffffffffff1614610d8c576040517f08c379a0000000000000000000000000000000000000000000000000000000008152600401610d839061346e565b60405180910390fd5b610db67f60b176c013bc5f6a4aaf9c1455cc3ff5e7ee54daffb41be2fd0e50b804acad4282611f74565b50565b610dc1612410565b73ffffffffffffffffffffffffffffffffffffffff1660008054906101000a900473ffffffffffffffffffffffffffffffffffffffff1673ffffffffffffffffffffffffffffffffffffffff1614610e4e576040517f08c379a0000000000000000000000000000000000000000000000000000000008152600401610e459061346e565b60405180910390fd5b610e787f238cc277b81124817de0fb6e725dfaca359442ead042cbf4fa5a5d15a441d4548261095b565b50565b610e83612410565b73ffffffffffffffffffffffffffffffffffffffff1660008054906101000a900473ffffffffffffffffffffffffffffffffffffffff1673ffffffffffffffffffffffffffffffffffffffff1614610f10576040517f08c379a0000000000000000000000000000000000000000000000000000000008152600401610f079061346e565b60405180910390fd5b600073ffffffffffffffffffffffffffffffffffffffff1660008054906101000a900473ffffffffffffffffffffffffffffffffffffffff1673ffffffffffffffffffffffffffffffffffffffff167f8be0079c531659141344cd1fd0a4f28419497f9722a3daafe3b4186f6b6457e060405160405180910390a360008060006101000a81548173ffffffffffffffffffffffffffffffffffffffff021916908373ffffffffffffffffffffffffffffffffffffffff160217905550565b6060610fd8612410565b73ffffffffffffffffffffffffffffffffffffffff1660008054906101000a900473ffffffffffffffffffffffffffffffffffffffff1673ffffffffffffffffffffffffffffffffffffffff1614611065576040517f08c379a000000000000000000000000000000000000000000000000000000000815260040161105c9061346e565b60405180910390fd5b6040518060400160405280600d81526020017f57656c636f6d65206f776e657200000000000000000000000000000000000000815250905090565b6060836110b06000801b8261154f565b806110e157506110e07f238cc277b81124817de0fb6e725dfaca359442ead042cbf4fa5a5d15a441d4548261154f565b5b8061111257506111117f60b176c013bc5f6a4aaf9c1455cc3ff5e7ee54daffb41be2fd0e50b804acad428261154f565b5b611151576040517f08c379a0000000000000000000000000000000000000000000000000000000008152600401611148906133ee565b60405180910390fd5b600260009054906101000a900473ffffffffffffffffffffffffffffffffffffffff1673ffffffffffffffffffffffffffffffffffffffff16638700d5663086866040518463ffffffff1660e01b81526004016111b09392919061331d565b60006040518083038186803b1580156111c857600080fd5b505afa1580156111dc573d6000803e3d6000fd5b505050506040513d6000823e3d601f19601f820116820180604052508101906112059190612c34565b9150509392505050565b60607f60b176c013bc5f6a4aaf9c1455cc3ff5e7ee54daffb41be2fd0e50b804acad427f238cc277b81124817de0fb6e725dfaca359442ead042cbf4fa5a5d15a441d4548114156112dc576112676000801b3361154f565b8061129857506112977f238cc277b81124817de0fb6e725dfaca359442ead042cbf4fa5a5d15a441d4543361154f565b5b6112d7576040517f08c379a00000000000000000000000000000000000000000000000000000000081526004016112ce906133ee565b60405180910390fd5b61138b565b6112e96000801b3361154f565b8061131a57506113197f238cc277b81124817de0fb6e725dfaca359442ead042cbf4fa5a5d15a441d4543361154f565b5b8061134b575061134a7f60b176c013bc5f6a4aaf9c1455cc3ff5e7ee54daffb41be2fd0e50b804acad423361154f565b5b61138a576040517f08c379a0000000000000000000000000000000000000000000000000000000008152600401611381906133ee565b60405180910390fd5b5b6113986000801b3361154f565b806113c957506113c87f238cc277b81124817de0fb6e725dfaca359442ead042cbf4fa5a5d15a441d4543361154f565b5b806113fa57506113f97f60b176c013bc5f6a4aaf9c1455cc3ff5e7ee54daffb41be2fd0e50b804acad423361154f565b5b611439576040517f08c379a0000000000000000000000000000000000000000000000000000000008152600401611430906133ee565b60405180910390fd5b600260009054906101000a900473ffffffffffffffffffffffffffffffffffffffff1673ffffffffffffffffffffffffffffffffffffffff16638b9265c685856040518363ffffffff1660e01b81526004016114969291906134e9565b60006040518083038186803b1580156114ae57600080fd5b505afa1580156114c2573d6000803e3d6000fd5b505050506040513d6000823e3d601f19601f820116820180604052508101906114eb9190612b52565b91505092915050565b60008060009054906101000a900473ffffffffffffffffffffffffffffffffffffffff16905090565b6000611547826001600086815260200190815260200160002060000161254090919063ffffffff16565b905092915050565b6000611579826001600086815260200190815260200160002060000161255a90919063ffffffff16565b905092915050565b60607f60b176c013bc5f6a4aaf9c1455cc3ff5e7ee54daffb41be2fd0e50b804acad427f238cc277b81124817de0fb6e725dfaca359442ead042cbf4fa5a5d15a441d45481141561164e576115d96000801b3361154f565b8061160a57506116097f238cc277b81124817de0fb6e725dfaca359442ead042cbf4fa5a5d15a441d4543361154f565b5b611649576040517f08c379a0000000000000000000000000000000000000000000000000000000008152600401611640906133ee565b60405180910390fd5b6116fd565b61165b6000801b3361154f565b8061168c575061168b7f238cc277b81124817de0fb6e725dfaca359442ead042cbf4fa5a5d15a441d4543361154f565b5b806116bd57506116bc7f60b176c013bc5f6a4aaf9c1455cc3ff5e7ee54daffb41be2fd0e50b804acad423361154f565b5b6116fc576040517f08c379a00000000000000000000000000000000000000000000000000000000081526004016116f3906133ee565b60405180910390fd5b5b61170a6000801b3361154f565b8061173b575061173a7f238cc277b81124817de0fb6e725dfaca359442ead042cbf4fa5a5d15a441d4543361154f565b5b8061176c575061176b7f60b176c013bc5f6a4aaf9c1455cc3ff5e7ee54daffb41be2fd0e50b804acad423361154f565b5b6117ab576040517f08c379a00000000000000000000000000000000000000000000000000000000081526004016117a2906133ee565b60405180910390fd5b600260009054906101000a900473ffffffffffffffffffffffffffffffffffffffff1673ffffffffffffffffffffffffffffffffffffffff166396cba36a846040518263ffffffff1660e01b815260040161180691906134ce565b60006040518083038186803b15801561181e57600080fd5b505afa158015611832573d6000803e3d6000fd5b505050506040513d6000823e3d601f19601f8201168201806040525081019061185b9190612b52565b915050919050565b6000801b81565b7f238cc277b81124817de0fb6e725dfaca359442ead042cbf4fa5a5d15a441d45480811415611915576118a06000801b3361154f565b806118d157506118d07f238cc277b81124817de0fb6e725dfaca359442ead042cbf4fa5a5d15a441d4543361154f565b5b611910576040517f08c379a0000000000000000000000000000000000000000000000000000000008152600401611907906133ee565b60405180910390fd5b6119c4565b6119226000801b3361154f565b8061195357506119527f238cc277b81124817de0fb6e725dfaca359442ead042cbf4fa5a5d15a441d4543361154f565b5b8061198457506119837f60b176c013bc5f6a4aaf9c1455cc3ff5e7ee54daffb41be2fd0e50b804acad423361154f565b5b6119c3576040517f08c379a00000000000000000000000000000000000000000000000000000000081526004016119ba906133ee565b60405180910390fd5b5b600260009054906101000a900473ffffffffffffffffffffffffffffffffffffffff1673ffffffffffffffffffffffffffffffffffffffff1663ab7cc4d28a8a8a8a8a8a8a8a6040518963ffffffff1660e01b8152600401611a2d989796959493929190613512565b600060405180830381600087803b158015611a4757600080fd5b505af1158015611a5b573d6000803e3d6000fd5b50505050505050505050505050565b60606040518060400160405280601a81526020017f43616c4175746820536179732048692e2020436f72726563742e000000000000815250905090565b6060611ab66000801b3361154f565b15611af8576040518060400160405280600581526020017f41444d494e0000000000000000000000000000000000000000000000000000008152509050611c75565b611b227fdf8b4c520ffe197c5343c6f5aec59570151ef9a492f2c624fd45ddde6135ec423361154f565b15611b64576040518060400160405280600581526020017f41444d494e0000000000000000000000000000000000000000000000000000008152509050611c75565b611b8e7f238cc277b81124817de0fb6e725dfaca359442ead042cbf4fa5a5d15a441d4543361154f565b15611bd0576040518060400160405280600f81526020017f555345525f57524954455f524f4c4500000000000000000000000000000000008152509050611c75565b611bfa7f60b176c013bc5f6a4aaf9c1455cc3ff5e7ee54daffb41be2fd0e50b804acad423361154f565b15611c3c576040518060400160405280600e81526020017f555345525f524541445f524f4c450000000000000000000000000000000000008152509050611c75565b6040518060400160405280600381526020017f4e494c000000000000000000000000000000000000000000000000000000000081525090505b90565b6000611c986001600084815260200190815260200160002060000161258a565b9050919050565b60607f60b176c013bc5f6a4aaf9c1455cc3ff5e7ee54daffb41be2fd0e50b804acad427f238cc277b81124817de0fb6e725dfaca359442ead042cbf4fa5a5d15a441d454811415611d6c57611cf76000801b3361154f565b80611d285750611d277f238cc277b81124817de0fb6e725dfaca359442ead042cbf4fa5a5d15a441d4543361154f565b5b611d67576040517f08c379a0000000000000000000000000000000000000000000000000000000008152600401611d5e906133ee565b60405180910390fd5b611e1b565b611d796000801b3361154f565b80611daa5750611da97f238cc277b81124817de0fb6e725dfaca359442ead042cbf4fa5a5d15a441d4543361154f565b5b80611ddb5750611dda7f60b176c013bc5f6a4aaf9c1455cc3ff5e7ee54daffb41be2fd0e50b804acad423361154f565b5b611e1a576040517f08c379a0000000000000000000000000000000000000000000000000000000008152600401611e11906133ee565b60405180910390fd5b5b611e286000801b3361154f565b80611e595750611e587f238cc277b81124817de0fb6e725dfaca359442ead042cbf4fa5a5d15a441d4543361154f565b5b80611e8a5750611e897f60b176c013bc5f6a4aaf9c1455cc3ff5e7ee54daffb41be2fd0e50b804acad423361154f565b5b611ec9576040517f08c379a0000000000000000000000000000000000000000000000000000000008152600401611ec0906133ee565b60405180910390fd5b600260009054906101000a900473ffffffffffffffffffffffffffffffffffffffff1673ffffffffffffffffffffffffffffffffffffffff1663caebb9916040518163ffffffff1660e01b815260040160006040518083038186803b158015611f3157600080fd5b505afa158015611f45573d6000803e3d6000fd5b505050506040513d6000823e3d601f19601f82011682018060405250810190611f6e9190612b52565b91505090565b611f9b6001600084815260200190815260200160002060020154611f96612410565b61154f565b611fda576040517f08c379a0000000000000000000000000000000000000000000000000000000008152600401611fd19061344e565b60405180910390fd5b611fe482826124ac565b5050565b7f238cc277b81124817de0fb6e725dfaca359442ead042cbf4fa5a5d15a441d45481565b612014612410565b73ffffffffffffffffffffffffffffffffffffffff1660008054906101000a900473ffffffffffffffffffffffffffffffffffffffff1673ffffffffffffffffffffffffffffffffffffffff16146120a1576040517f08c379a00000000000000000000000000000000000000000000000000000000081526004016120989061346e565b60405180910390fd5b600073ffffffffffffffffffffffffffffffffffffffff168173ffffffffffffffffffffffffffffffffffffffff161415612111576040517f08c379a00000000000000000000000000000000000000000000000000000000081526004016121089061342e565b60405180910390fd5b8073ffffffffffffffffffffffffffffffffffffffff1660008054906101000a900473ffffffffffffffffffffffffffffffffffffffff1673ffffffffffffffffffffffffffffffffffffffff167f8be0079c531659141344cd1fd0a4f28419497f9722a3daafe3b4186f6b6457e060405160405180910390a3806000806101000a81548173ffffffffffffffffffffffffffffffffffffffff021916908373ffffffffffffffffffffffffffffffffffffffff16021790555050565b6060826121de6000801b8261154f565b8061220f575061220e7f238cc277b81124817de0fb6e725dfaca359442ead042cbf4fa5a5d15a441d4548261154f565b5b80612240575061223f7f60b176c013bc5f6a4aaf9c1455cc3ff5e7ee54daffb41be2fd0e50b804acad428261154f565b5b61227f576040517f08c379a0000000000000000000000000000000000000000000000000000000008152600401612276906133ee565b60405180910390fd5b600260009054906101000a900473ffffffffffffffffffffffffffffffffffffffff1673ffffffffffffffffffffffffffffffffffffffff1663f35cf90e30856040518363ffffffff1660e01b81526004016122dc9291906132f4565b60006040518083038186803b1580156122f457600080fd5b505afa158015612308573d6000803e3d6000fd5b505050506040513d6000823e3d601f19601f820116820180604052508101906123319190612c34565b91505092915050565b60606123667f60b176c013bc5f6a4aaf9c1455cc3ff5e7ee54daffb41be2fd0e50b804acad423361154f565b6123a5576040517f08c379a000000000000000000000000000000000000000000000000000000000815260040161239c9061348e565b60405180910390fd5b6040518060400160405280601681526020017f57656c636f6d652072656164206f6e6c79207573657200000000000000000000815250905090565b6000612408836000018373ffffffffffffffffffffffffffffffffffffffff1660001b61259f565b905092915050565b600033905090565b61244081600160008581526020019081526020016000206000016123e090919063ffffffff16565b156124a85761244d612410565b73ffffffffffffffffffffffffffffffffffffffff168173ffffffffffffffffffffffffffffffffffffffff16837f2f8788117e7eff1d82e926ec794901d17c78024a50270940304540a733656f0d60405160405180910390a45b5050565b6124d4816001600085815260200190815260200160002060000161260f90919063ffffffff16565b1561253c576124e1612410565b73ffffffffffffffffffffffffffffffffffffffff168173ffffffffffffffffffffffffffffffffffffffff16837ff6391f5c32d9c69d2a47ea670b442974b53935d1edc7fd64eb21e047a839171b60405160405180910390a45b5050565b600061254f836000018361263f565b60001c905092915050565b6000612582836000018373ffffffffffffffffffffffffffffffffffffffff1660001b6126ac565b905092915050565b6000612598826000016126cf565b9050919050565b60006125ab83836126ac565b612604578260000182908060018154018082558091505060019003906000526020600020016000909190919091505582600001805490508360010160008481526020019081526020016000208190555060019050612609565b600090505b92915050565b6000612637836000018373ffffffffffffffffffffffffffffffffffffffff1660001b6126e0565b905092915050565b60008183600001805490501161268a576040517f08c379a0000000000000000000000000000000000000000000000000000000008152600401612681906133ce565b60405180910390fd5b82600001828154811061269957fe5b9060005260206000200154905092915050565b600080836001016000848152602001908152602001600020541415905092915050565b600081600001805490509050919050565b600080836001016000848152602001908152602001600020549050600081146127bc576000600182039050600060018660000180549050039050600086600001828154811061272b57fe5b906000526020600020015490508087600001848154811061274857fe5b906000526020600020018190555060018301876001016000838152602001908152602001600020819055508660000180548061278057fe5b600190038181906000526020600020016000905590558660010160008781526020019081526020016000206000905560019450505050506127c2565b60009150505b92915050565b6000813590506127d781613738565b92915050565b600082601f8301126127ee57600080fd5b81516128016127fc826135d9565b6135ac565b9150818183526020840193506020810190508360005b83811015612847578151860161282d8882612938565b845260208401935060208301925050600181019050612817565b5050505092915050565b6000813590506128608161374f565b92915050565b6000815190506128758161374f565b92915050565b60008135905061288a81613766565b92915050565b600082601f8301126128a157600080fd5b81356128b46128af82613601565b6135ac565b915080825260208301602083018583830111156128d057600080fd5b6128db8382846136e5565b50505092915050565b600082601f8301126128f557600080fd5b815161290861290382613601565b6135ac565b9150808252602083016020830185838301111561292457600080fd5b61292f8382846136f4565b50505092915050565b6000610120828403121561294b57600080fd5b6129566101206135ac565b9050600061296684828501612a89565b600083015250602061297a84828501612a89565b602083015250604061298e84828501612a89565b604083015250606082015167ffffffffffffffff8111156129ae57600080fd5b6129ba848285016128e4565b606083015250608082015167ffffffffffffffff8111156129da57600080fd5b6129e6848285016128e4565b60808301525060a06129fa84828501612866565b60a08301525060c082015167ffffffffffffffff811115612a1a57600080fd5b612a26848285016128e4565b60c08301525060e082015167ffffffffffffffff811115612a4657600080fd5b612a52848285016128e4565b60e083015250610100612a6784828501612a89565b6101008301525092915050565b600081359050612a838161377d565b92915050565b600081519050612a988161377d565b92915050565b600060208284031215612ab057600080fd5b6000612abe848285016127c8565b91505092915050565b60008060408385031215612ada57600080fd5b6000612ae8858286016127c8565b9250506020612af985828601612a74565b9150509250929050565b600080600060608486031215612b1857600080fd5b6000612b26868287016127c8565b9350506020612b3786828701612a74565b9250506040612b4886828701612a74565b9150509250925092565b600060208284031215612b6457600080fd5b600082015167ffffffffffffffff811115612b7e57600080fd5b612b8a848285016127dd565b91505092915050565b600060208284031215612ba557600080fd5b6000612bb38482850161287b565b91505092915050565b60008060408385031215612bcf57600080fd5b6000612bdd8582860161287b565b9250506020612bee858286016127c8565b9150509250929050565b60008060408385031215612c0b57600080fd5b6000612c198582860161287b565b9250506020612c2a85828601612a74565b9150509250929050565b600060208284031215612c4657600080fd5b600082015167ffffffffffffffff811115612c6057600080fd5b612c6c848285016128e4565b91505092915050565b600060208284031215612c8757600080fd5b6000612c9584828501612a74565b91505092915050565b60008060408385031215612cb157600080fd5b6000612cbf85828601612a74565b9250506020612cd085828601612a74565b9150509250929050565b600080600080600080600080610100898b031215612cf757600080fd5b6000612d058b828c01612a74565b9850506020612d168b828c01612a74565b9750506040612d278b828c01612a74565b965050606089013567ffffffffffffffff811115612d4457600080fd5b612d508b828c01612890565b955050608089013567ffffffffffffffff811115612d6d57600080fd5b612d798b828c01612890565b94505060a0612d8a8b828c01612851565b93505060c089013567ffffffffffffffff811115612da757600080fd5b612db38b828c01612890565b92505060e089013567ffffffffffffffff811115612dd057600080fd5b612ddc8b828c01612890565b9150509295985092959890939650565b6000612df883836131e1565b905092915050565b612e0981613693565b82525050565b6000612e1a8261363d565b612e248185613660565b935083602082028501612e368561362d565b8060005b85811015612e725784840389528151612e538582612dec565b9450612e5e83613653565b925060208a01995050600181019050612e3a565b50829750879550505050505092915050565b612e8d816136a5565b82525050565b612e9c816136a5565b82525050565b612eab816136b1565b82525050565b6000612ebc82613648565b612ec68185613671565b9350612ed68185602086016136f4565b612edf81613727565b840191505092915050565b6000612ef582613648565b612eff8185613682565b9350612f0f8185602086016136f4565b612f1881613727565b840191505092915050565b6000612f30602283613682565b91507f456e756d657261626c655365743a20696e646578206f7574206f6620626f756e60008301527f64730000000000000000000000000000000000000000000000000000000000006020830152604082019050919050565b6000612f96601383613682565b91507f55736572206e6f7420617574686f7269736564000000000000000000000000006000830152602082019050919050565b6000612fd6602f83613682565b91507f416363657373436f6e74726f6c3a2073656e646572206d75737420626520616e60008301527f2061646d696e20746f206772616e7400000000000000000000000000000000006020830152604082019050919050565b600061303c602683613682565b91507f4f776e61626c653a206e6577206f776e657220697320746865207a65726f206160008301527f64647265737300000000000000000000000000000000000000000000000000006020830152604082019050919050565b60006130a2603083613682565b91507f416363657373436f6e74726f6c3a2073656e646572206d75737420626520616e60008301527f2061646d696e20746f207265766f6b65000000000000000000000000000000006020830152604082019050919050565b6000613108602083613682565b91507f4f776e61626c653a2063616c6c6572206973206e6f7420746865206f776e65726000830152602082019050919050565b6000613148601d83613682565b91507f536f72727920796f7520617265206e6f742061205245414420757365720000006000830152602082019050919050565b6000613188602f83613682565b91507f416363657373436f6e74726f6c3a2063616e206f6e6c792072656e6f756e636560008301527f20726f6c657320666f722073656c6600000000000000000000000000000000006020830152604082019050919050565b6000610120830160008301516131fa60008601826132bb565b50602083015161320d60208601826132bb565b50604083015161322060408601826132bb565b50606083015184820360608601526132388282612eb1565b915050608083015184820360808601526132528282612eb1565b91505060a083015161326760a0860182612e84565b5060c083015184820360c086015261327f8282612eb1565b91505060e083015184820360e08601526132998282612eb1565b9150506101008301516132b06101008601826132bb565b508091505092915050565b6132c4816136db565b82525050565b6132d3816136db565b82525050565b60006020820190506132ee6000830184612e00565b92915050565b60006040820190506133096000830185612e00565b61331660208301846132ca565b9392505050565b60006060820190506133326000830186612e00565b61333f60208301856132ca565b61334c60408301846132ca565b949350505050565b6000602082019050818103600083015261336e8184612e0f565b905092915050565b600060208201905061338b6000830184612e93565b92915050565b60006020820190506133a66000830184612ea2565b92915050565b600060208201905081810360008301526133c68184612eea565b905092915050565b600060208201905081810360008301526133e781612f23565b9050919050565b6000602082019050818103600083015261340781612f89565b9050919050565b6000602082019050818103600083015261342781612fc9565b9050919050565b600060208201905081810360008301526134478161302f565b9050919050565b6000602082019050818103600083015261346781613095565b9050919050565b60006020820190508181036000830152613487816130fb565b9050919050565b600060208201905081810360008301526134a78161313b565b9050919050565b600060208201905081810360008301526134c78161317b565b9050919050565b60006020820190506134e360008301846132ca565b92915050565b60006040820190506134fe60008301856132ca565b61350b60208301846132ca565b9392505050565b600061010082019050613528600083018b6132ca565b613535602083018a6132ca565b61354260408301896132ca565b81810360608301526135548188612eea565b905081810360808301526135688187612eea565b905061357760a0830186612e93565b81810360c08301526135898185612eea565b905081810360e083015261359d8184612eea565b90509998505050505050505050565b6000604051905081810181811067ffffffffffffffff821117156135cf57600080fd5b8060405250919050565b600067ffffffffffffffff8211156135f057600080fd5b602082029050602081019050919050565b600067ffffffffffffffff82111561361857600080fd5b601f19601f8301169050602081019050919050565b6000819050602082019050919050565b600081519050919050565b600081519050919050565b6000602082019050919050565b600082825260208201905092915050565b600082825260208201905092915050565b600082825260208201905092915050565b600061369e826136bb565b9050919050565b60008115159050919050565b6000819050919050565b600073ffffffffffffffffffffffffffffffffffffffff82169050919050565b6000819050919050565b82818337600083830152505050565b60005b838110156137125780820151818401526020810190506136f7565b83811115613721576000848401525b50505050565b6000601f19601f8301169050919050565b61374181613693565b811461374c57600080fd5b50565b613758816136a5565b811461376357600080fd5b50565b61376f816136b1565b811461377a57600080fd5b50565b613786816136db565b811461379157600080fd5b5056fea26469706673582212208df453c86eab1450e47340c11fc4426bfaffce2cea0a8a0dc80f4a53750a3d1264736f6c634300060c0033",
  "immutableReferences": {},
  "source": "// SPDX-License-Identifier: MIT\npragma solidity ^0.6.0;\npragma experimental ABIEncoderV2;\n\nimport \"@openzeppelin/contracts/access/AccessControl.sol\";\nimport \"@openzeppelin/contracts/access/Ownable.sol\";\nimport \"./CalStore.sol\";\nimport \"./VEventLibrary.sol\";\n\ncontract CalAuth is Ownable, AccessControl {\n    using VEventLibrary for VEventLibrary.VEvent;\n\n    bytes32 public constant USER_READ_ROLE = keccak256(\"USER_READ_ROLE\");\n    bytes32 public constant USER_WRITE_ROLE = keccak256(\"USER_WRITE_ROLE\");\n    bytes32 public constant ADMIN = keccak256(\"ADMIN\");\n    CalStore private calStore;\n\n    constructor(address _addr) public {\n        _setupRole(DEFAULT_ADMIN_ROLE, msg.sender);\n        calStore = CalStore(_addr);\n    }\n\n    modifier onlyRole(bytes32 _role) {\n        if (_role == USER_WRITE_ROLE) {\n            require(\n                hasRole(DEFAULT_ADMIN_ROLE, msg.sender) ||\n                hasRole(USER_WRITE_ROLE, msg.sender),\n                \"User not authorised\");\n        } else {\n            require(\n                hasRole(DEFAULT_ADMIN_ROLE, msg.sender) ||\n                hasRole(USER_WRITE_ROLE, msg.sender) ||\n                hasRole(USER_READ_ROLE, msg.sender),\n                \"User not authorised\");\n        }\n        _;\n    }\n    \n    modifier onlyRoleIcal(address _user) {\n        require(\n            hasRole(DEFAULT_ADMIN_ROLE, _user) ||\n            hasRole(USER_WRITE_ROLE, _user) ||\n            hasRole(USER_READ_ROLE, _user),\n            \"User not authorised\");\n        _;\n    }\n\n    function storeEvent(\n        uint _dtstamp,\n        uint _dtstart,\n        uint _dtend,\n        string memory _summary,\n        string memory _description,\n        bool _isallday,\n        string memory _alldaystartdate,\n        string memory _alldayenddate)\n        public onlyRole(USER_WRITE_ROLE)\n        {\n        calStore.storeEvent(\n            _dtstamp, _dtstart, _dtend,\n            _summary, _description,\n            _isallday, _alldaystartdate,\n            _alldayenddate);\n    }\n\n    function removeEvent(uint _dtstamp) public onlyRole(USER_WRITE_ROLE) {\n        require(\n            hasRole(DEFAULT_ADMIN_ROLE, msg.sender) ||\n            hasRole(USER_WRITE_ROLE, msg.sender),\n            \"User not authorised\");\n        calStore.removeEvent(_dtstamp);\n    }\n\n    function getEventsIcal(address _user) public view onlyRoleIcal(_user) returns (\n        string memory) {\n        return calStore.getEventsIcal(address(this));\n    }\n\n    function getEventsIcal(address _user, uint _validFrom) public view onlyRoleIcal(_user) returns (\n        string memory) {\n        return calStore.getEventsIcal(address(this), _validFrom);\n    }\n\n\n    function getEventsIcal(address _user, uint _validFrom, \n        uint _expiresBy) public view onlyRoleIcal(_user) returns (\n        string memory) {\n        return calStore.getEventsIcal(address(this), _validFrom, _expiresBy);\n    }\n\n    function getEventsObj() public view onlyRole(USER_READ_ROLE) returns (\n        VEventLibrary.VEvent[] memory) {\n        require(\n            hasRole(DEFAULT_ADMIN_ROLE, msg.sender) ||\n            hasRole(USER_WRITE_ROLE, msg.sender) ||\n            hasRole(USER_READ_ROLE, msg.sender),\n            \"User not authorised\");\n        return calStore.getEventsObj();\n    }\n    \n    function getEventsObj(uint _validFrom) public view onlyRole(USER_READ_ROLE) returns (\n        VEventLibrary.VEvent[] memory) {\n        require(\n            hasRole(DEFAULT_ADMIN_ROLE, msg.sender) ||\n            hasRole(USER_WRITE_ROLE, msg.sender) ||\n            hasRole(USER_READ_ROLE, msg.sender),\n            \"User not authorised\");\n        return calStore.getEventsObj(_validFrom);\n    }\n\n    function getEventsObj(uint _validFrom, uint _expiresBy) public view onlyRole(USER_READ_ROLE) returns (\n        VEventLibrary.VEvent[] memory) {\n        require(\n            hasRole(DEFAULT_ADMIN_ROLE, msg.sender) ||\n            hasRole(USER_WRITE_ROLE, msg.sender) ||\n            hasRole(USER_READ_ROLE, msg.sender),\n            \"User not authorised\");\n        return calStore.getEventsObj(_validFrom, _expiresBy);\n    }\n\n    /// @notice Returns role of msg.sender\n    /// @dev Returns in hierarchial order, e.g. ADMIN more important than READ etc\n    /// @return string user role\n    function getUserRole() public view returns (string memory) {\n        if (hasRole(DEFAULT_ADMIN_ROLE, msg.sender)) {\n            return \"ADMIN\";\n        } else if (hasRole(ADMIN, msg.sender)) {\n            return \"ADMIN\";\n        } else if (hasRole(USER_WRITE_ROLE, msg.sender)) {\n            return \"USER_WRITE_ROLE\";\n        } else if (hasRole(USER_READ_ROLE, msg.sender)) {\n            return \"USER_READ_ROLE\";\n        }\n        return \"NIL\";\n    }\n\n    //TODO: Delete, not used\n    function addRead(address userAddress) public onlyOwner {\n        grantRole(USER_READ_ROLE, userAddress);\n    }\n\n    //TODO: Delete, not used\n    function addWrite(address userAddress) public onlyOwner {\n        grantRole(USER_WRITE_ROLE, userAddress);\n    }\n\n    //TODO: Delete, not used\n    function revokeRead(address userAddress) public onlyOwner {\n        revokeRole(USER_READ_ROLE, userAddress);\n    }\n\n    //TODO: Delete, not used\n    function revokeWrite(address userAddress) public onlyOwner {\n        revokeRole(USER_WRITE_ROLE, userAddress);\n    }\n\n    function userReadWelcomeString() public view returns (string memory) {\n        require(hasRole(USER_READ_ROLE, msg.sender), \"Sorry you are not a READ user\");\n        return \"Welcome read only user\";\n    }\n\n    function ownerWelcomeString() public onlyOwner view returns (string memory) {\n        return \"Welcome owner\";\n    }\n\n    function justSayHiCalAuth() public pure returns (string memory) {\n        return \"Hi from CalAuth\";\n    }\n    function authHi() public pure returns (string memory) {\n        return \"CalAuth Says Hi.  Correct.\";\n    }\n}\n\n",
  "sourcePath": "/home/gene/Programming/Websites/Precious_Chicken_Website/blog_code_demos/forget-me-block-eth-cal-auth/contracts/CalAuth.sol",
  "compiler": {
    "name": "solc",
    "version": "0.6.12+commit.27d51765.Emscripten.clang"
  },
  "schemaVersion": "3.2.3",
  "updatedAt": "2020-08-17T21:21:27.108Z",
  "networkType": "ethereum",
  "devdoc": {
    "kind": "dev",
    "methods": {
      "getRoleAdmin(bytes32)": {
        "details": "Returns the admin role that controls `role`. See {grantRole} and {revokeRole}. To change a role's admin, use {_setRoleAdmin}."
      },
      "getRoleMember(bytes32,uint256)": {
        "details": "Returns one of the accounts that have `role`. `index` must be a value between 0 and {getRoleMemberCount}, non-inclusive. Role bearers are not sorted in any particular way, and their ordering may change at any point. WARNING: When using {getRoleMember} and {getRoleMemberCount}, make sure you perform all queries on the same block. See the following https://forum.openzeppelin.com/t/iterating-over-elements-on-enumerableset-in-openzeppelin-contracts/2296[forum post] for more information."
      },
      "getRoleMemberCount(bytes32)": {
        "details": "Returns the number of accounts that have `role`. Can be used together with {getRoleMember} to enumerate all bearers of a role."
      },
      "getUserRole()": {
        "details": "Returns in hierarchial order, e.g. ADMIN more important than READ etc",
        "returns": {
          "_0": "string user role"
        }
      },
      "grantRole(bytes32,address)": {
        "details": "Grants `role` to `account`. If `account` had not been already granted `role`, emits a {RoleGranted} event. Requirements: - the caller must have ``role``'s admin role."
      },
      "hasRole(bytes32,address)": {
        "details": "Returns `true` if `account` has been granted `role`."
      },
      "owner()": {
        "details": "Returns the address of the current owner."
      },
      "renounceOwnership()": {
        "details": "Leaves the contract without owner. It will not be possible to call `onlyOwner` functions anymore. Can only be called by the current owner. NOTE: Renouncing ownership will leave the contract without an owner, thereby removing any functionality that is only available to the owner."
      },
      "renounceRole(bytes32,address)": {
        "details": "Revokes `role` from the calling account. Roles are often managed via {grantRole} and {revokeRole}: this function's purpose is to provide a mechanism for accounts to lose their privileges if they are compromised (such as when a trusted device is misplaced). If the calling account had been granted `role`, emits a {RoleRevoked} event. Requirements: - the caller must be `account`."
      },
      "revokeRole(bytes32,address)": {
        "details": "Revokes `role` from `account`. If `account` had been granted `role`, emits a {RoleRevoked} event. Requirements: - the caller must have ``role``'s admin role."
      },
      "transferOwnership(address)": {
        "details": "Transfers ownership of the contract to a new account (`newOwner`). Can only be called by the current owner."
      }
    },
    "version": 1
  },
  "userdoc": {
    "kind": "user",
    "methods": {
      "getUserRole()": {
        "notice": "Returns role of msg.sender"
      }
    },
    "version": 1
  }
}