{
  "contractName": "CalAuth",
  "abi": [
    {
      "inputs": [],
      "stateMutability": "nonpayable",
      "type": "constructor"
    },
    {
      "anonymous": false,
      "inputs": [
        {
          "indexed": true,
          "internalType": "address",
          "name": "previousOwner",
          "type": "address"
        },
        {
          "indexed": true,
          "internalType": "address",
          "name": "newOwner",
          "type": "address"
        }
      ],
      "name": "OwnershipTransferred",
      "type": "event"
    },
    {
      "anonymous": false,
      "inputs": [
        {
          "indexed": true,
          "internalType": "bytes32",
          "name": "role",
          "type": "bytes32"
        },
        {
          "indexed": true,
          "internalType": "bytes32",
          "name": "previousAdminRole",
          "type": "bytes32"
        },
        {
          "indexed": true,
          "internalType": "bytes32",
          "name": "newAdminRole",
          "type": "bytes32"
        }
      ],
      "name": "RoleAdminChanged",
      "type": "event"
    },
    {
      "anonymous": false,
      "inputs": [
        {
          "indexed": true,
          "internalType": "bytes32",
          "name": "role",
          "type": "bytes32"
        },
        {
          "indexed": true,
          "internalType": "address",
          "name": "account",
          "type": "address"
        },
        {
          "indexed": true,
          "internalType": "address",
          "name": "sender",
          "type": "address"
        }
      ],
      "name": "RoleGranted",
      "type": "event"
    },
    {
      "anonymous": false,
      "inputs": [
        {
          "indexed": true,
          "internalType": "bytes32",
          "name": "role",
          "type": "bytes32"
        },
        {
          "indexed": true,
          "internalType": "address",
          "name": "account",
          "type": "address"
        },
        {
          "indexed": true,
          "internalType": "address",
          "name": "sender",
          "type": "address"
        }
      ],
      "name": "RoleRevoked",
      "type": "event"
    },
    {
      "inputs": [],
      "name": "DEFAULT_ADMIN_ROLE",
      "outputs": [
        {
          "internalType": "bytes32",
          "name": "",
          "type": "bytes32"
        }
      ],
      "stateMutability": "view",
      "type": "function",
      "constant": true
    },
    {
      "inputs": [],
      "name": "USER_READ_ROLE",
      "outputs": [
        {
          "internalType": "bytes32",
          "name": "",
          "type": "bytes32"
        }
      ],
      "stateMutability": "view",
      "type": "function",
      "constant": true
    },
    {
      "inputs": [],
      "name": "USER_WRITE_ROLE",
      "outputs": [
        {
          "internalType": "bytes32",
          "name": "",
          "type": "bytes32"
        }
      ],
      "stateMutability": "view",
      "type": "function",
      "constant": true
    },
    {
      "inputs": [
        {
          "internalType": "bytes32",
          "name": "role",
          "type": "bytes32"
        }
      ],
      "name": "getRoleAdmin",
      "outputs": [
        {
          "internalType": "bytes32",
          "name": "",
          "type": "bytes32"
        }
      ],
      "stateMutability": "view",
      "type": "function",
      "constant": true
    },
    {
      "inputs": [
        {
          "internalType": "bytes32",
          "name": "role",
          "type": "bytes32"
        },
        {
          "internalType": "uint256",
          "name": "index",
          "type": "uint256"
        }
      ],
      "name": "getRoleMember",
      "outputs": [
        {
          "internalType": "address",
          "name": "",
          "type": "address"
        }
      ],
      "stateMutability": "view",
      "type": "function",
      "constant": true
    },
    {
      "inputs": [
        {
          "internalType": "bytes32",
          "name": "role",
          "type": "bytes32"
        }
      ],
      "name": "getRoleMemberCount",
      "outputs": [
        {
          "internalType": "uint256",
          "name": "",
          "type": "uint256"
        }
      ],
      "stateMutability": "view",
      "type": "function",
      "constant": true
    },
    {
      "inputs": [
        {
          "internalType": "bytes32",
          "name": "role",
          "type": "bytes32"
        },
        {
          "internalType": "address",
          "name": "account",
          "type": "address"
        }
      ],
      "name": "grantRole",
      "outputs": [],
      "stateMutability": "nonpayable",
      "type": "function"
    },
    {
      "inputs": [
        {
          "internalType": "bytes32",
          "name": "role",
          "type": "bytes32"
        },
        {
          "internalType": "address",
          "name": "account",
          "type": "address"
        }
      ],
      "name": "hasRole",
      "outputs": [
        {
          "internalType": "bool",
          "name": "",
          "type": "bool"
        }
      ],
      "stateMutability": "view",
      "type": "function",
      "constant": true
    },
    {
      "inputs": [],
      "name": "owner",
      "outputs": [
        {
          "internalType": "address",
          "name": "",
          "type": "address"
        }
      ],
      "stateMutability": "view",
      "type": "function",
      "constant": true
    },
    {
      "inputs": [],
      "name": "renounceOwnership",
      "outputs": [],
      "stateMutability": "nonpayable",
      "type": "function"
    },
    {
      "inputs": [
        {
          "internalType": "bytes32",
          "name": "role",
          "type": "bytes32"
        },
        {
          "internalType": "address",
          "name": "account",
          "type": "address"
        }
      ],
      "name": "renounceRole",
      "outputs": [],
      "stateMutability": "nonpayable",
      "type": "function"
    },
    {
      "inputs": [
        {
          "internalType": "bytes32",
          "name": "role",
          "type": "bytes32"
        },
        {
          "internalType": "address",
          "name": "account",
          "type": "address"
        }
      ],
      "name": "revokeRole",
      "outputs": [],
      "stateMutability": "nonpayable",
      "type": "function"
    },
    {
      "inputs": [
        {
          "internalType": "address",
          "name": "newOwner",
          "type": "address"
        }
      ],
      "name": "transferOwnership",
      "outputs": [],
      "stateMutability": "nonpayable",
      "type": "function"
    },
    {
      "inputs": [],
      "name": "getUserRole",
      "outputs": [
        {
          "internalType": "string",
          "name": "",
          "type": "string"
        }
      ],
      "stateMutability": "view",
      "type": "function",
      "constant": true
    },
    {
      "inputs": [
        {
          "internalType": "address",
          "name": "userAddress",
          "type": "address"
        }
      ],
      "name": "addRead",
      "outputs": [],
      "stateMutability": "nonpayable",
      "type": "function"
    },
    {
      "inputs": [
        {
          "internalType": "address",
          "name": "userAddress",
          "type": "address"
        }
      ],
      "name": "addWrite",
      "outputs": [],
      "stateMutability": "nonpayable",
      "type": "function"
    },
    {
      "inputs": [
        {
          "internalType": "address",
          "name": "userAddress",
          "type": "address"
        }
      ],
      "name": "revokeRead",
      "outputs": [],
      "stateMutability": "nonpayable",
      "type": "function"
    },
    {
      "inputs": [
        {
          "internalType": "address",
          "name": "userAddress",
          "type": "address"
        }
      ],
      "name": "revokeWrite",
      "outputs": [],
      "stateMutability": "nonpayable",
      "type": "function"
    },
    {
      "inputs": [],
      "name": "userReadWelcomeString",
      "outputs": [
        {
          "internalType": "string",
          "name": "",
          "type": "string"
        }
      ],
      "stateMutability": "view",
      "type": "function",
      "constant": true
    },
    {
      "inputs": [],
      "name": "ownerWelcomeString",
      "outputs": [
        {
          "internalType": "string",
          "name": "",
          "type": "string"
        }
      ],
      "stateMutability": "view",
      "type": "function",
      "constant": true
    }
  ],
  "bytecode": "0x60806040523480156200001157600080fd5b50600062000024620000dd60201b60201c565b9050806000806101000a81548173ffffffffffffffffffffffffffffffffffffffff021916908373ffffffffffffffffffffffffffffffffffffffff1602179055508073ffffffffffffffffffffffffffffffffffffffff16600073ffffffffffffffffffffffffffffffffffffffff167f8be0079c531659141344cd1fd0a4f28419497f9722a3daafe3b4186f6b6457e060405160405180910390a350620000d76000801b33620000e560201b60201c565b62000274565b600033905090565b620000f78282620000fb60201b60201c565b5050565b6200012a81600160008581526020019081526020016000206000016200019f60201b620014521790919060201c565b156200019b5762000140620000dd60201b60201c565b73ffffffffffffffffffffffffffffffffffffffff168173ffffffffffffffffffffffffffffffffffffffff16837f2f8788117e7eff1d82e926ec794901d17c78024a50270940304540a733656f0d60405160405180910390a45b5050565b6000620001cf836000018373ffffffffffffffffffffffffffffffffffffffff1660001b620001d760201b60201c565b905092915050565b6000620001eb83836200025160201b60201c565b620002465782600001829080600181540180825580915050600190039060005260206000200160009091909190915055826000018054905083600101600084815260200190815260200160002081905550600190506200024b565b600090505b92915050565b600080836001016000848152602001908152602001600020541415905092915050565b61195c80620002846000396000f3fe608060405234801561001057600080fd5b506004361061012c5760003560e01c80638da5cb5b116100ad578063ca15c87311610071578063ca15c87314610565578063d547741f146105a7578063ee1bf5db146105f5578063f2fde38b14610613578063fd4a74a1146106575761012c565b80638da5cb5b146103ca5780639010d07c146103fe57806391d1485414610460578063a217fddf146104c4578063bf04a10d146104e25761012c565b806336568abe116100f457806336568abe14610267578063607360d3146102b55780636bf7e0bb146102f9578063715018a61461033d578063869cd0c1146103475761012c565b80631d5ad45b146101315780631f79ec0914610175578063248a9ca3146101b9578063283e8442146101fb5780632f2ff15d14610219575b600080fd5b6101736004803603602081101561014757600080fd5b81019080803573ffffffffffffffffffffffffffffffffffffffff1690602001909291905050506106da565b005b6101b76004803603602081101561018b57600080fd5b81019080803573ffffffffffffffffffffffffffffffffffffffff1690602001909291905050506107cf565b005b6101e5600480360360208110156101cf57600080fd5b81019080803590602001909291905050506108c4565b6040518082815260200191505060405180910390f35b6102036108e4565b6040518082815260200191505060405180910390f35b6102656004803603604081101561022f57600080fd5b8101908080359060200190929190803573ffffffffffffffffffffffffffffffffffffffff169060200190929190505050610908565b005b6102b36004803603604081101561027d57600080fd5b8101908080359060200190929190803573ffffffffffffffffffffffffffffffffffffffff169060200190929190505050610992565b005b6102f7600480360360208110156102cb57600080fd5b81019080803573ffffffffffffffffffffffffffffffffffffffff169060200190929190505050610a2b565b005b61033b6004803603602081101561030f57600080fd5b81019080803573ffffffffffffffffffffffffffffffffffffffff169060200190929190505050610b20565b005b610345610c15565b005b61034f610d9b565b6040518080602001828103825283818151815260200191508051906020019080838360005b8381101561038f578082015181840152602081019050610374565b50505050905090810190601f1680156103bc5780820380516001836020036101000a031916815260200191505b509250505060405180910390f35b6103d2610ea0565b604051808273ffffffffffffffffffffffffffffffffffffffff16815260200191505060405180910390f35b6104346004803603604081101561041457600080fd5b810190808035906020019092919080359060200190929190505050610ec9565b604051808273ffffffffffffffffffffffffffffffffffffffff16815260200191505060405180910390f35b6104ac6004803603604081101561047657600080fd5b8101908080359060200190929190803573ffffffffffffffffffffffffffffffffffffffff169060200190929190505050610efb565b60405180821515815260200191505060405180910390f35b6104cc610f2d565b6040518082815260200191505060405180910390f35b6104ea610f34565b6040518080602001828103825283818151815260200191508051906020019080838360005b8381101561052a57808201518184015260208101905061050f565b50505050905090810190601f1680156105575780820380516001836020036101000a031916815260200191505b509250505060405180910390f35b6105916004803603602081101561057b57600080fd5b8101908080359060200190929190505050611099565b6040518082815260200191505060405180910390f35b6105f3600480360360408110156105bd57600080fd5b8101908080359060200190929190803573ffffffffffffffffffffffffffffffffffffffff1690602001909291905050506110c0565b005b6105fd61114a565b6040518082815260200191505060405180910390f35b6106556004803603602081101561062957600080fd5b81019080803573ffffffffffffffffffffffffffffffffffffffff16906020019092919050505061116e565b005b61065f611379565b6040518080602001828103825283818151815260200191508051906020019080838360005b8381101561069f578082015181840152602081019050610684565b50505050905090810190601f1680156106cc5780820380516001836020036101000a031916815260200191505b509250505060405180910390f35b6106e2611482565b73ffffffffffffffffffffffffffffffffffffffff1660008054906101000a900473ffffffffffffffffffffffffffffffffffffffff1673ffffffffffffffffffffffffffffffffffffffff16146107a2576040517f08c379a00000000000000000000000000000000000000000000000000000000081526004018080602001828103825260208152602001807f4f776e61626c653a2063616c6c6572206973206e6f7420746865206f776e657281525060200191505060405180910390fd5b6107cc7f60b176c013bc5f6a4aaf9c1455cc3ff5e7ee54daffb41be2fd0e50b804acad4282610908565b50565b6107d7611482565b73ffffffffffffffffffffffffffffffffffffffff1660008054906101000a900473ffffffffffffffffffffffffffffffffffffffff1673ffffffffffffffffffffffffffffffffffffffff1614610897576040517f08c379a00000000000000000000000000000000000000000000000000000000081526004018080602001828103825260208152602001807f4f776e61626c653a2063616c6c6572206973206e6f7420746865206f776e657281525060200191505060405180910390fd5b6108c17f238cc277b81124817de0fb6e725dfaca359442ead042cbf4fa5a5d15a441d454826110c0565b50565b600060016000838152602001908152602001600020600201549050919050565b7f60b176c013bc5f6a4aaf9c1455cc3ff5e7ee54daffb41be2fd0e50b804acad4281565b61092f600160008481526020019081526020016000206002015461092a611482565b610efb565b610984576040517f08c379a000000000000000000000000000000000000000000000000000000000815260040180806020018281038252602f815260200180611873602f913960400191505060405180910390fd5b61098e828261148a565b5050565b61099a611482565b73ffffffffffffffffffffffffffffffffffffffff168173ffffffffffffffffffffffffffffffffffffffff1614610a1d576040517f08c379a000000000000000000000000000000000000000000000000000000000815260040180806020018281038252602f8152602001806118f8602f913960400191505060405180910390fd5b610a27828261151e565b5050565b610a33611482565b73ffffffffffffffffffffffffffffffffffffffff1660008054906101000a900473ffffffffffffffffffffffffffffffffffffffff1673ffffffffffffffffffffffffffffffffffffffff1614610af3576040517f08c379a00000000000000000000000000000000000000000000000000000000081526004018080602001828103825260208152602001807f4f776e61626c653a2063616c6c6572206973206e6f7420746865206f776e657281525060200191505060405180910390fd5b610b1d7f60b176c013bc5f6a4aaf9c1455cc3ff5e7ee54daffb41be2fd0e50b804acad42826110c0565b50565b610b28611482565b73ffffffffffffffffffffffffffffffffffffffff1660008054906101000a900473ffffffffffffffffffffffffffffffffffffffff1673ffffffffffffffffffffffffffffffffffffffff1614610be8576040517f08c379a00000000000000000000000000000000000000000000000000000000081526004018080602001828103825260208152602001807f4f776e61626c653a2063616c6c6572206973206e6f7420746865206f776e657281525060200191505060405180910390fd5b610c127f238cc277b81124817de0fb6e725dfaca359442ead042cbf4fa5a5d15a441d45482610908565b50565b610c1d611482565b73ffffffffffffffffffffffffffffffffffffffff1660008054906101000a900473ffffffffffffffffffffffffffffffffffffffff1673ffffffffffffffffffffffffffffffffffffffff1614610cdd576040517f08c379a00000000000000000000000000000000000000000000000000000000081526004018080602001828103825260208152602001807f4f776e61626c653a2063616c6c6572206973206e6f7420746865206f776e657281525060200191505060405180910390fd5b600073ffffffffffffffffffffffffffffffffffffffff1660008054906101000a900473ffffffffffffffffffffffffffffffffffffffff1673ffffffffffffffffffffffffffffffffffffffff167f8be0079c531659141344cd1fd0a4f28419497f9722a3daafe3b4186f6b6457e060405160405180910390a360008060006101000a81548173ffffffffffffffffffffffffffffffffffffffff021916908373ffffffffffffffffffffffffffffffffffffffff160217905550565b6060610da5611482565b73ffffffffffffffffffffffffffffffffffffffff1660008054906101000a900473ffffffffffffffffffffffffffffffffffffffff1673ffffffffffffffffffffffffffffffffffffffff1614610e65576040517f08c379a00000000000000000000000000000000000000000000000000000000081526004018080602001828103825260208152602001807f4f776e61626c653a2063616c6c6572206973206e6f7420746865206f776e657281525060200191505060405180910390fd5b6040518060400160405280600d81526020017f57656c636f6d65206f776e657200000000000000000000000000000000000000815250905090565b60008060009054906101000a900473ffffffffffffffffffffffffffffffffffffffff16905090565b6000610ef382600160008681526020019081526020016000206000016115b290919063ffffffff16565b905092915050565b6000610f2582600160008681526020019081526020016000206000016115cc90919063ffffffff16565b905092915050565b6000801b81565b6060610f436000801b33610efb565b15610f85576040518060400160405280600581526020017f41444d494e0000000000000000000000000000000000000000000000000000008152509050611096565b610faf7f238cc277b81124817de0fb6e725dfaca359442ead042cbf4fa5a5d15a441d45433610efb565b15610ff1576040518060400160405280600f81526020017f555345525f57524954455f524f4c4500000000000000000000000000000000008152509050611096565b61101b7f60b176c013bc5f6a4aaf9c1455cc3ff5e7ee54daffb41be2fd0e50b804acad4233610efb565b1561105d576040518060400160405280600e81526020017f555345525f524541445f524f4c450000000000000000000000000000000000008152509050611096565b6040518060400160405280600381526020017f4e494c000000000000000000000000000000000000000000000000000000000081525090505b90565b60006110b9600160008481526020019081526020016000206000016115fc565b9050919050565b6110e760016000848152602001908152602001600020600201546110e2611482565b610efb565b61113c576040517f08c379a00000000000000000000000000000000000000000000000000000000081526004018080602001828103825260308152602001806118c86030913960400191505060405180910390fd5b611146828261151e565b5050565b7f238cc277b81124817de0fb6e725dfaca359442ead042cbf4fa5a5d15a441d45481565b611176611482565b73ffffffffffffffffffffffffffffffffffffffff1660008054906101000a900473ffffffffffffffffffffffffffffffffffffffff1673ffffffffffffffffffffffffffffffffffffffff1614611236576040517f08c379a00000000000000000000000000000000000000000000000000000000081526004018080602001828103825260208152602001807f4f776e61626c653a2063616c6c6572206973206e6f7420746865206f776e657281525060200191505060405180910390fd5b600073ffffffffffffffffffffffffffffffffffffffff168173ffffffffffffffffffffffffffffffffffffffff1614156112bc576040517f08c379a00000000000000000000000000000000000000000000000000000000081526004018080602001828103825260268152602001806118a26026913960400191505060405180910390fd5b8073ffffffffffffffffffffffffffffffffffffffff1660008054906101000a900473ffffffffffffffffffffffffffffffffffffffff1673ffffffffffffffffffffffffffffffffffffffff167f8be0079c531659141344cd1fd0a4f28419497f9722a3daafe3b4186f6b6457e060405160405180910390a3806000806101000a81548173ffffffffffffffffffffffffffffffffffffffff021916908373ffffffffffffffffffffffffffffffffffffffff16021790555050565b60606113a57f60b176c013bc5f6a4aaf9c1455cc3ff5e7ee54daffb41be2fd0e50b804acad4233610efb565b611417576040517f08c379a000000000000000000000000000000000000000000000000000000000815260040180806020018281038252601d8152602001807f536f72727920796f7520617265206e6f7420612052454144207573657200000081525060200191505060405180910390fd5b6040518060400160405280601681526020017f57656c636f6d652072656164206f6e6c79207573657200000000000000000000815250905090565b600061147a836000018373ffffffffffffffffffffffffffffffffffffffff1660001b611611565b905092915050565b600033905090565b6114b2816001600085815260200190815260200160002060000161145290919063ffffffff16565b1561151a576114bf611482565b73ffffffffffffffffffffffffffffffffffffffff168173ffffffffffffffffffffffffffffffffffffffff16837f2f8788117e7eff1d82e926ec794901d17c78024a50270940304540a733656f0d60405160405180910390a45b5050565b611546816001600085815260200190815260200160002060000161168190919063ffffffff16565b156115ae57611553611482565b73ffffffffffffffffffffffffffffffffffffffff168173ffffffffffffffffffffffffffffffffffffffff16837ff6391f5c32d9c69d2a47ea670b442974b53935d1edc7fd64eb21e047a839171b60405160405180910390a45b5050565b60006115c183600001836116b1565b60001c905092915050565b60006115f4836000018373ffffffffffffffffffffffffffffffffffffffff1660001b611734565b905092915050565b600061160a82600001611757565b9050919050565b600061161d8383611734565b61167657826000018290806001815401808255809150506001900390600052602060002001600090919091909150558260000180549050836001016000848152602001908152602001600020819055506001905061167b565b600090505b92915050565b60006116a9836000018373ffffffffffffffffffffffffffffffffffffffff1660001b611768565b905092915050565b600081836000018054905011611712576040517f08c379a00000000000000000000000000000000000000000000000000000000081526004018080602001828103825260228152602001806118516022913960400191505060405180910390fd5b82600001828154811061172157fe5b9060005260206000200154905092915050565b600080836001016000848152602001908152602001600020541415905092915050565b600081600001805490509050919050565b6000808360010160008481526020019081526020016000205490506000811461184457600060018203905060006001866000018054905003905060008660000182815481106117b357fe5b90600052602060002001549050808760000184815481106117d057fe5b906000526020600020018190555060018301876001016000838152602001908152602001600020819055508660000180548061180857fe5b6001900381819060005260206000200160009055905586600101600087815260200190815260200160002060009055600194505050505061184a565b60009150505b9291505056fe456e756d657261626c655365743a20696e646578206f7574206f6620626f756e6473416363657373436f6e74726f6c3a2073656e646572206d75737420626520616e2061646d696e20746f206772616e744f776e61626c653a206e6577206f776e657220697320746865207a65726f2061646472657373416363657373436f6e74726f6c3a2073656e646572206d75737420626520616e2061646d696e20746f207265766f6b65416363657373436f6e74726f6c3a2063616e206f6e6c792072656e6f756e636520726f6c657320666f722073656c66a2646970667358221220c2475ea9958678e4fd19502fc227ba214dcf4eae5d5e3d61d47cbdd0627ac8b564736f6c634300060c0033",
  "source": "// SPDX-License-Identifier: MIT\npragma solidity ^0.6.0;\n\nimport \"@openzeppelin/contracts/access/AccessControl.sol\";\nimport \"@openzeppelin/contracts/access/Ownable.sol\";\n\ncontract CalAuth is Ownable, AccessControl {\n\n    bytes32 public constant USER_READ_ROLE = keccak256(\"USER_READ_ROLE\");\n    bytes32 public constant USER_WRITE_ROLE = keccak256(\"USER_WRITE_ROLE\");\n\n    constructor() public {\n        _setupRole(DEFAULT_ADMIN_ROLE, msg.sender);\n    }\n\n    /// @notice Returns role of msg.sender\n    /// @dev Returns in hierarchial order, e.g. ADMIN more important than READ etc\n    /// @return string user role\n    function getUserRole() public view returns (string memory) {\n        if (hasRole(DEFAULT_ADMIN_ROLE, msg.sender)) {\n            return \"ADMIN\";\n        } else if (hasRole(USER_WRITE_ROLE, msg.sender)) {\n            return \"USER_WRITE_ROLE\";\n        } else if (hasRole(USER_READ_ROLE, msg.sender)) {\n            return \"USER_READ_ROLE\";\n        }\n        return \"NIL\";\n    }\n\n    function addRead(address userAddress) public onlyOwner {\n        grantRole(USER_READ_ROLE, userAddress);\n    }\n\n    function addWrite(address userAddress) public onlyOwner {\n        grantRole(USER_WRITE_ROLE, userAddress);\n    }\n\n    function revokeRead(address userAddress) public onlyOwner {\n        revokeRole(USER_READ_ROLE, userAddress);\n    }\n\n    function revokeWrite(address userAddress) public onlyOwner {\n        revokeRole(USER_WRITE_ROLE, userAddress);\n    }\n\n    function userReadWelcomeString() public view returns (string memory) {\n        require(hasRole(USER_READ_ROLE, msg.sender), \"Sorry you are not a READ user\");\n        return \"Welcome read only user\";\n    }\n\n    function ownerWelcomeString() public onlyOwner view returns (string memory) {\n        return \"Welcome owner\";\n    }\n}\n\n// CalAuth.deployed().then(function(instance) {app = instance})\n// let accounts = await web3.eth.getAccounts()\n// app.ownerWelcomeString()\n// app.addRead(\"0x918FD928864B6c0fFf58829Ccd7f92B0020Ae68B\", {from: accounts[1]});\n// app.addRead(accounts[1]);\n// app.userReadWelcomeString({from: accounts[1]});\n// app.hasRole(\"USER_READ_ROLE\",accounts[1]);\n\n\n\n// hashed = await web3.utils.keccak256(\"USER_READ_ROLE\")\n// undefined\n// app.hasRole(hashed,accounts[1]);\n// true\n// app.getRoleMemberCount(hashed);\n// BN { negative: 0, words: [ 1, <1 empty item> ], length: 1, red: null }\n\n// app.getRoleMember(hashed, 0)\n",
  "sourcePath": "/home/gene/Programming/Websites/Precious_Chicken_Website/blog_code_demos/forget-me-block-cal-auth/contracts/CalAuth.sol",
  "compiler": {
    "name": "solc",
    "version": "0.6.12+commit.27d51765.Emscripten.clang"
  },
  "schemaVersion": "3.0.23",
  "updatedAt": "2020-08-13T16:38:18.723Z",
  "networkType": "ethereum",
  "devdoc": {
    "kind": "dev",
    "methods": {
      "getRoleAdmin(bytes32)": {
        "details": "Returns the admin role that controls `role`. See {grantRole} and {revokeRole}. To change a role's admin, use {_setRoleAdmin}."
      },
      "getRoleMember(bytes32,uint256)": {
        "details": "Returns one of the accounts that have `role`. `index` must be a value between 0 and {getRoleMemberCount}, non-inclusive. Role bearers are not sorted in any particular way, and their ordering may change at any point. WARNING: When using {getRoleMember} and {getRoleMemberCount}, make sure you perform all queries on the same block. See the following https://forum.openzeppelin.com/t/iterating-over-elements-on-enumerableset-in-openzeppelin-contracts/2296[forum post] for more information."
      },
      "getRoleMemberCount(bytes32)": {
        "details": "Returns the number of accounts that have `role`. Can be used together with {getRoleMember} to enumerate all bearers of a role."
      },
      "getUserRole()": {
        "details": "Returns in hierarchial order, e.g. ADMIN more important than READ etc",
        "returns": {
          "_0": "string user role"
        }
      },
      "grantRole(bytes32,address)": {
        "details": "Grants `role` to `account`. If `account` had not been already granted `role`, emits a {RoleGranted} event. Requirements: - the caller must have ``role``'s admin role."
      },
      "hasRole(bytes32,address)": {
        "details": "Returns `true` if `account` has been granted `role`."
      },
      "owner()": {
        "details": "Returns the address of the current owner."
      },
      "renounceOwnership()": {
        "details": "Leaves the contract without owner. It will not be possible to call `onlyOwner` functions anymore. Can only be called by the current owner. NOTE: Renouncing ownership will leave the contract without an owner, thereby removing any functionality that is only available to the owner."
      },
      "renounceRole(bytes32,address)": {
        "details": "Revokes `role` from the calling account. Roles are often managed via {grantRole} and {revokeRole}: this function's purpose is to provide a mechanism for accounts to lose their privileges if they are compromised (such as when a trusted device is misplaced). If the calling account had been granted `role`, emits a {RoleRevoked} event. Requirements: - the caller must be `account`."
      },
      "revokeRole(bytes32,address)": {
        "details": "Revokes `role` from `account`. If `account` had been granted `role`, emits a {RoleRevoked} event. Requirements: - the caller must have ``role``'s admin role."
      },
      "transferOwnership(address)": {
        "details": "Transfers ownership of the contract to a new account (`newOwner`). Can only be called by the current owner."
      }
    },
    "version": 1
  },
  "userdoc": {
    "kind": "user",
    "methods": {
      "getUserRole()": {
        "notice": "Returns role of msg.sender"
      }
    },
    "version": 1
  }
}