{
  "contractName": "CalAuth",
  "abi": [
    {
      "inputs": [
        {
          "internalType": "address",
          "name": "_addr",
          "type": "address"
        }
      ],
      "stateMutability": "nonpayable",
      "type": "constructor"
    },
    {
      "anonymous": false,
      "inputs": [
        {
          "indexed": true,
          "internalType": "address",
          "name": "previousOwner",
          "type": "address"
        },
        {
          "indexed": true,
          "internalType": "address",
          "name": "newOwner",
          "type": "address"
        }
      ],
      "name": "OwnershipTransferred",
      "type": "event"
    },
    {
      "anonymous": false,
      "inputs": [
        {
          "indexed": true,
          "internalType": "bytes32",
          "name": "role",
          "type": "bytes32"
        },
        {
          "indexed": true,
          "internalType": "bytes32",
          "name": "previousAdminRole",
          "type": "bytes32"
        },
        {
          "indexed": true,
          "internalType": "bytes32",
          "name": "newAdminRole",
          "type": "bytes32"
        }
      ],
      "name": "RoleAdminChanged",
      "type": "event"
    },
    {
      "anonymous": false,
      "inputs": [
        {
          "indexed": true,
          "internalType": "bytes32",
          "name": "role",
          "type": "bytes32"
        },
        {
          "indexed": true,
          "internalType": "address",
          "name": "account",
          "type": "address"
        },
        {
          "indexed": true,
          "internalType": "address",
          "name": "sender",
          "type": "address"
        }
      ],
      "name": "RoleGranted",
      "type": "event"
    },
    {
      "anonymous": false,
      "inputs": [
        {
          "indexed": true,
          "internalType": "bytes32",
          "name": "role",
          "type": "bytes32"
        },
        {
          "indexed": true,
          "internalType": "address",
          "name": "account",
          "type": "address"
        },
        {
          "indexed": true,
          "internalType": "address",
          "name": "sender",
          "type": "address"
        }
      ],
      "name": "RoleRevoked",
      "type": "event"
    },
    {
      "inputs": [],
      "name": "ADMIN",
      "outputs": [
        {
          "internalType": "bytes32",
          "name": "",
          "type": "bytes32"
        }
      ],
      "stateMutability": "view",
      "type": "function",
      "constant": true
    },
    {
      "inputs": [],
      "name": "DEFAULT_ADMIN_ROLE",
      "outputs": [
        {
          "internalType": "bytes32",
          "name": "",
          "type": "bytes32"
        }
      ],
      "stateMutability": "view",
      "type": "function",
      "constant": true
    },
    {
      "inputs": [],
      "name": "USER_READ_ROLE",
      "outputs": [
        {
          "internalType": "bytes32",
          "name": "",
          "type": "bytes32"
        }
      ],
      "stateMutability": "view",
      "type": "function",
      "constant": true
    },
    {
      "inputs": [],
      "name": "USER_WRITE_ROLE",
      "outputs": [
        {
          "internalType": "bytes32",
          "name": "",
          "type": "bytes32"
        }
      ],
      "stateMutability": "view",
      "type": "function",
      "constant": true
    },
    {
      "inputs": [
        {
          "internalType": "bytes32",
          "name": "role",
          "type": "bytes32"
        }
      ],
      "name": "getRoleAdmin",
      "outputs": [
        {
          "internalType": "bytes32",
          "name": "",
          "type": "bytes32"
        }
      ],
      "stateMutability": "view",
      "type": "function",
      "constant": true
    },
    {
      "inputs": [
        {
          "internalType": "bytes32",
          "name": "role",
          "type": "bytes32"
        },
        {
          "internalType": "uint256",
          "name": "index",
          "type": "uint256"
        }
      ],
      "name": "getRoleMember",
      "outputs": [
        {
          "internalType": "address",
          "name": "",
          "type": "address"
        }
      ],
      "stateMutability": "view",
      "type": "function",
      "constant": true
    },
    {
      "inputs": [
        {
          "internalType": "bytes32",
          "name": "role",
          "type": "bytes32"
        }
      ],
      "name": "getRoleMemberCount",
      "outputs": [
        {
          "internalType": "uint256",
          "name": "",
          "type": "uint256"
        }
      ],
      "stateMutability": "view",
      "type": "function",
      "constant": true
    },
    {
      "inputs": [
        {
          "internalType": "bytes32",
          "name": "role",
          "type": "bytes32"
        },
        {
          "internalType": "address",
          "name": "account",
          "type": "address"
        }
      ],
      "name": "grantRole",
      "outputs": [],
      "stateMutability": "nonpayable",
      "type": "function"
    },
    {
      "inputs": [
        {
          "internalType": "bytes32",
          "name": "role",
          "type": "bytes32"
        },
        {
          "internalType": "address",
          "name": "account",
          "type": "address"
        }
      ],
      "name": "hasRole",
      "outputs": [
        {
          "internalType": "bool",
          "name": "",
          "type": "bool"
        }
      ],
      "stateMutability": "view",
      "type": "function",
      "constant": true
    },
    {
      "inputs": [],
      "name": "owner",
      "outputs": [
        {
          "internalType": "address",
          "name": "",
          "type": "address"
        }
      ],
      "stateMutability": "view",
      "type": "function",
      "constant": true
    },
    {
      "inputs": [],
      "name": "renounceOwnership",
      "outputs": [],
      "stateMutability": "nonpayable",
      "type": "function"
    },
    {
      "inputs": [
        {
          "internalType": "bytes32",
          "name": "role",
          "type": "bytes32"
        },
        {
          "internalType": "address",
          "name": "account",
          "type": "address"
        }
      ],
      "name": "renounceRole",
      "outputs": [],
      "stateMutability": "nonpayable",
      "type": "function"
    },
    {
      "inputs": [
        {
          "internalType": "bytes32",
          "name": "role",
          "type": "bytes32"
        },
        {
          "internalType": "address",
          "name": "account",
          "type": "address"
        }
      ],
      "name": "revokeRole",
      "outputs": [],
      "stateMutability": "nonpayable",
      "type": "function"
    },
    {
      "inputs": [
        {
          "internalType": "address",
          "name": "newOwner",
          "type": "address"
        }
      ],
      "name": "transferOwnership",
      "outputs": [],
      "stateMutability": "nonpayable",
      "type": "function"
    },
    {
      "inputs": [
        {
          "internalType": "uint256",
          "name": "_dtstamp",
          "type": "uint256"
        },
        {
          "internalType": "uint256",
          "name": "_dtstart",
          "type": "uint256"
        },
        {
          "internalType": "uint256",
          "name": "_dtend",
          "type": "uint256"
        },
        {
          "internalType": "string",
          "name": "_summary",
          "type": "string"
        },
        {
          "internalType": "string",
          "name": "_description",
          "type": "string"
        },
        {
          "internalType": "bool",
          "name": "_isallday",
          "type": "bool"
        },
        {
          "internalType": "string",
          "name": "_alldaystartdate",
          "type": "string"
        },
        {
          "internalType": "string",
          "name": "_alldayenddate",
          "type": "string"
        }
      ],
      "name": "storeEvent",
      "outputs": [],
      "stateMutability": "nonpayable",
      "type": "function"
    },
    {
      "inputs": [
        {
          "internalType": "uint256",
          "name": "_dtstamp",
          "type": "uint256"
        }
      ],
      "name": "removeEvent",
      "outputs": [],
      "stateMutability": "nonpayable",
      "type": "function"
    },
    {
      "inputs": [
        {
          "internalType": "address",
          "name": "_user",
          "type": "address"
        }
      ],
      "name": "getEventsIcal",
      "outputs": [
        {
          "internalType": "string",
          "name": "",
          "type": "string"
        }
      ],
      "stateMutability": "view",
      "type": "function",
      "constant": true
    },
    {
      "inputs": [],
      "name": "getEventsObj",
      "outputs": [
        {
          "components": [
            {
              "internalType": "uint256",
              "name": "dtstamp",
              "type": "uint256"
            },
            {
              "internalType": "uint256",
              "name": "dtstart",
              "type": "uint256"
            },
            {
              "internalType": "uint256",
              "name": "dtend",
              "type": "uint256"
            },
            {
              "internalType": "string",
              "name": "summary",
              "type": "string"
            },
            {
              "internalType": "string",
              "name": "description",
              "type": "string"
            },
            {
              "internalType": "bool",
              "name": "isallday",
              "type": "bool"
            },
            {
              "internalType": "string",
              "name": "alldaystartdate",
              "type": "string"
            },
            {
              "internalType": "string",
              "name": "alldayenddate",
              "type": "string"
            },
            {
              "internalType": "uint256",
              "name": "uid",
              "type": "uint256"
            }
          ],
          "internalType": "struct VEventLibrary.VEvent[]",
          "name": "",
          "type": "tuple[]"
        }
      ],
      "stateMutability": "view",
      "type": "function",
      "constant": true
    },
    {
      "inputs": [],
      "name": "getUserRole",
      "outputs": [
        {
          "internalType": "string",
          "name": "",
          "type": "string"
        }
      ],
      "stateMutability": "view",
      "type": "function",
      "constant": true
    },
    {
      "inputs": [
        {
          "internalType": "address",
          "name": "userAddress",
          "type": "address"
        }
      ],
      "name": "addRead",
      "outputs": [],
      "stateMutability": "nonpayable",
      "type": "function"
    },
    {
      "inputs": [
        {
          "internalType": "address",
          "name": "userAddress",
          "type": "address"
        }
      ],
      "name": "addWrite",
      "outputs": [],
      "stateMutability": "nonpayable",
      "type": "function"
    },
    {
      "inputs": [
        {
          "internalType": "address",
          "name": "userAddress",
          "type": "address"
        }
      ],
      "name": "revokeRead",
      "outputs": [],
      "stateMutability": "nonpayable",
      "type": "function"
    },
    {
      "inputs": [
        {
          "internalType": "address",
          "name": "userAddress",
          "type": "address"
        }
      ],
      "name": "revokeWrite",
      "outputs": [],
      "stateMutability": "nonpayable",
      "type": "function"
    },
    {
      "inputs": [],
      "name": "userReadWelcomeString",
      "outputs": [
        {
          "internalType": "string",
          "name": "",
          "type": "string"
        }
      ],
      "stateMutability": "view",
      "type": "function",
      "constant": true
    },
    {
      "inputs": [],
      "name": "ownerWelcomeString",
      "outputs": [
        {
          "internalType": "string",
          "name": "",
          "type": "string"
        }
      ],
      "stateMutability": "view",
      "type": "function",
      "constant": true
    },
    {
      "inputs": [],
      "name": "justSayHiCalAuth",
      "outputs": [
        {
          "internalType": "string",
          "name": "",
          "type": "string"
        }
      ],
      "stateMutability": "pure",
      "type": "function",
      "constant": true
    },
    {
      "inputs": [],
      "name": "authHi",
      "outputs": [
        {
          "internalType": "string",
          "name": "",
          "type": "string"
        }
      ],
      "stateMutability": "pure",
      "type": "function",
      "constant": true
    }
  ],
  "bytecode": "0x60806040523480156200001157600080fd5b506040516200304d3803806200304d8339818101604052810190620000379190620002f2565b6000620000496200014460201b60201c565b9050806000806101000a81548173ffffffffffffffffffffffffffffffffffffffff021916908373ffffffffffffffffffffffffffffffffffffffff1602179055508073ffffffffffffffffffffffffffffffffffffffff16600073ffffffffffffffffffffffffffffffffffffffff167f8be0079c531659141344cd1fd0a4f28419497f9722a3daafe3b4186f6b6457e060405160405180910390a350620000fc6000801b336200014c60201b60201c565b80600260006101000a81548173ffffffffffffffffffffffffffffffffffffffff021916908373ffffffffffffffffffffffffffffffffffffffff160217905550506200036c565b600033905090565b6200015e82826200016260201b60201c565b5050565b6200019181600160008581526020019081526020016000206000016200020660201b62001a371790919060201c565b156200020257620001a76200014460201b60201c565b73ffffffffffffffffffffffffffffffffffffffff168173ffffffffffffffffffffffffffffffffffffffff16837f2f8788117e7eff1d82e926ec794901d17c78024a50270940304540a733656f0d60405160405180910390a45b5050565b600062000236836000018373ffffffffffffffffffffffffffffffffffffffff1660001b6200023e60201b60201c565b905092915050565b6000620002528383620002b860201b60201c565b620002ad578260000182908060018154018082558091505060019003906000526020600020016000909190919091505582600001805490508360010160008481526020019081526020016000208190555060019050620002b2565b600090505b92915050565b600080836001016000848152602001908152602001600020541415905092915050565b600081519050620002ec8162000352565b92915050565b6000602082840312156200030557600080fd5b60006200031584828501620002db565b91505092915050565b60006200032b8262000332565b9050919050565b600073ffffffffffffffffffffffffffffffffffffffff82169050919050565b6200035d816200031e565b81146200036957600080fd5b50565b612cd1806200037c6000396000f3fe608060405234801561001057600080fd5b50600436106101a95760003560e01c8063869cd0c1116100f9578063bf04a10d11610097578063d547741f11610071578063d547741f14610496578063ee1bf5db146104b2578063f2fde38b146104d0578063fd4a74a1146104ec576101a9565b8063bf04a10d1461042a578063ca15c87314610448578063caebb99114610478576101a9565b806391d14854116100d357806391d14854146103a2578063a217fddf146103d2578063ab7cc4d2146103f0578063aef956e91461040c576101a9565b8063869cd0c1146103365780638da5cb5b146103545780639010d07c14610372576101a9565b80632f2ff15d1161016657806356164e1e1161014057806356164e1e146102d8578063607360d3146102f45780636bf7e0bb14610310578063715018a61461032c576101a9565b80632f2ff15d1461028257806336568abe1461029e578063553bae64146102ba576101a9565b806310d00a67146101ae5780631d5ad45b146101de5780631f79ec09146101fa578063248a9ca314610216578063283e8442146102465780632a0acc6a14610264575b600080fd5b6101c860048036038101906101c391906120f5565b61050a565b6040516101d591906128dc565b60405180910390f35b6101f860048036038101906101f391906120f5565b610668565b005b610214600480360381019061020f91906120f5565b61072a565b005b610230600480360381019061022b919061215f565b6107ec565b60405161023d91906128c1565b60405180910390f35b61024e61080c565b60405161025b91906128c1565b60405180910390f35b61026c610830565b60405161027991906128c1565b60405180910390f35b61029c60048036038101906102979190612188565b610854565b005b6102b860048036038101906102b39190612188565b6108c8565b005b6102c261094b565b6040516102cf91906128dc565b60405180910390f35b6102f260048036038101906102ed9190612241565b610988565b005b61030e600480360381019061030991906120f5565b610bf0565b005b61032a600480360381019061032591906120f5565b610cb2565b005b610334610d74565b005b61033e610ec7565b60405161034b91906128dc565b60405180910390f35b61035c610f99565b6040516103699190612869565b60405180910390f35b61038c600480360381019061038791906121c4565b610fc2565b6040516103999190612869565b60405180910390f35b6103bc60048036038101906103b79190612188565b610ff4565b6040516103c991906128a6565b60405180910390f35b6103da611026565b6040516103e791906128c1565b60405180910390f35b61040a6004803603810190610405919061226a565b61102d565b005b61041461122d565b60405161042191906128dc565b60405180910390f35b61043261126a565b60405161043f91906128dc565b60405180910390f35b610462600480360381019061045d919061215f565b61143b565b60405161046f91906129fe565b60405180910390f35b610480611462565b60405161048d9190612884565b60405180910390f35b6104b060048036038101906104ab9190612188565b611737565b005b6104ba6117ab565b6040516104c791906128c1565b60405180910390f35b6104ea60048036038101906104e591906120f5565b6117cf565b005b6104f4611991565b60405161050191906128dc565b60405180910390f35b60608161051a6000801b82610ff4565b8061054b575061054a7f238cc277b81124817de0fb6e725dfaca359442ead042cbf4fa5a5d15a441d45482610ff4565b5b8061057c575061057b7f60b176c013bc5f6a4aaf9c1455cc3ff5e7ee54daffb41be2fd0e50b804acad4282610ff4565b5b6105bb576040517f08c379a00000000000000000000000000000000000000000000000000000000081526004016105b29061291e565b60405180910390fd5b600260009054906101000a900473ffffffffffffffffffffffffffffffffffffffff1673ffffffffffffffffffffffffffffffffffffffff16635c91e17e6040518163ffffffff1660e01b815260040160006040518083038186803b15801561062357600080fd5b505afa158015610637573d6000803e3d6000fd5b505050506040513d6000823e3d601f19601f820116820180604052508101906106609190612200565b915050919050565b610670611a67565b73ffffffffffffffffffffffffffffffffffffffff1660008054906101000a900473ffffffffffffffffffffffffffffffffffffffff1673ffffffffffffffffffffffffffffffffffffffff16146106fd576040517f08c379a00000000000000000000000000000000000000000000000000000000081526004016106f49061299e565b60405180910390fd5b6107277f60b176c013bc5f6a4aaf9c1455cc3ff5e7ee54daffb41be2fd0e50b804acad4282610854565b50565b610732611a67565b73ffffffffffffffffffffffffffffffffffffffff1660008054906101000a900473ffffffffffffffffffffffffffffffffffffffff1673ffffffffffffffffffffffffffffffffffffffff16146107bf576040517f08c379a00000000000000000000000000000000000000000000000000000000081526004016107b69061299e565b60405180910390fd5b6107e97f238cc277b81124817de0fb6e725dfaca359442ead042cbf4fa5a5d15a441d45482611737565b50565b600060016000838152602001908152602001600020600201549050919050565b7f60b176c013bc5f6a4aaf9c1455cc3ff5e7ee54daffb41be2fd0e50b804acad4281565b7fdf8b4c520ffe197c5343c6f5aec59570151ef9a492f2c624fd45ddde6135ec4281565b61087b6001600084815260200190815260200160002060020154610876611a67565b610ff4565b6108ba576040517f08c379a00000000000000000000000000000000000000000000000000000000081526004016108b19061293e565b60405180910390fd5b6108c48282611a6f565b5050565b6108d0611a67565b73ffffffffffffffffffffffffffffffffffffffff168173ffffffffffffffffffffffffffffffffffffffff161461093d576040517f08c379a0000000000000000000000000000000000000000000000000000000008152600401610934906129de565b60405180910390fd5b6109478282611b03565b5050565b60606040518060400160405280600f81526020017f48692066726f6d2043616c417574680000000000000000000000000000000000815250905090565b7f238cc277b81124817de0fb6e725dfaca359442ead042cbf4fa5a5d15a441d45480811415610a33576109be6000801b33610ff4565b806109ef57506109ee7f238cc277b81124817de0fb6e725dfaca359442ead042cbf4fa5a5d15a441d45433610ff4565b5b610a2e576040517f08c379a0000000000000000000000000000000000000000000000000000000008152600401610a259061291e565b60405180910390fd5b610ae2565b610a406000801b33610ff4565b80610a715750610a707f238cc277b81124817de0fb6e725dfaca359442ead042cbf4fa5a5d15a441d45433610ff4565b5b80610aa25750610aa17f60b176c013bc5f6a4aaf9c1455cc3ff5e7ee54daffb41be2fd0e50b804acad4233610ff4565b5b610ae1576040517f08c379a0000000000000000000000000000000000000000000000000000000008152600401610ad89061291e565b60405180910390fd5b5b610aef6000801b33610ff4565b80610b205750610b1f7f238cc277b81124817de0fb6e725dfaca359442ead042cbf4fa5a5d15a441d45433610ff4565b5b610b5f576040517f08c379a0000000000000000000000000000000000000000000000000000000008152600401610b569061291e565b60405180910390fd5b600260009054906101000a900473ffffffffffffffffffffffffffffffffffffffff1673ffffffffffffffffffffffffffffffffffffffff166356164e1e836040518263ffffffff1660e01b8152600401610bba91906129fe565b600060405180830381600087803b158015610bd457600080fd5b505af1158015610be8573d6000803e3d6000fd5b505050505050565b610bf8611a67565b73ffffffffffffffffffffffffffffffffffffffff1660008054906101000a900473ffffffffffffffffffffffffffffffffffffffff1673ffffffffffffffffffffffffffffffffffffffff1614610c85576040517f08c379a0000000000000000000000000000000000000000000000000000000008152600401610c7c9061299e565b60405180910390fd5b610caf7f60b176c013bc5f6a4aaf9c1455cc3ff5e7ee54daffb41be2fd0e50b804acad4282611737565b50565b610cba611a67565b73ffffffffffffffffffffffffffffffffffffffff1660008054906101000a900473ffffffffffffffffffffffffffffffffffffffff1673ffffffffffffffffffffffffffffffffffffffff1614610d47576040517f08c379a0000000000000000000000000000000000000000000000000000000008152600401610d3e9061299e565b60405180910390fd5b610d717f238cc277b81124817de0fb6e725dfaca359442ead042cbf4fa5a5d15a441d45482610854565b50565b610d7c611a67565b73ffffffffffffffffffffffffffffffffffffffff1660008054906101000a900473ffffffffffffffffffffffffffffffffffffffff1673ffffffffffffffffffffffffffffffffffffffff1614610e09576040517f08c379a0000000000000000000000000000000000000000000000000000000008152600401610e009061299e565b60405180910390fd5b600073ffffffffffffffffffffffffffffffffffffffff1660008054906101000a900473ffffffffffffffffffffffffffffffffffffffff1673ffffffffffffffffffffffffffffffffffffffff167f8be0079c531659141344cd1fd0a4f28419497f9722a3daafe3b4186f6b6457e060405160405180910390a360008060006101000a81548173ffffffffffffffffffffffffffffffffffffffff021916908373ffffffffffffffffffffffffffffffffffffffff160217905550565b6060610ed1611a67565b73ffffffffffffffffffffffffffffffffffffffff1660008054906101000a900473ffffffffffffffffffffffffffffffffffffffff1673ffffffffffffffffffffffffffffffffffffffff1614610f5e576040517f08c379a0000000000000000000000000000000000000000000000000000000008152600401610f559061299e565b60405180910390fd5b6040518060400160405280600d81526020017f57656c636f6d65206f776e657200000000000000000000000000000000000000815250905090565b60008060009054906101000a900473ffffffffffffffffffffffffffffffffffffffff16905090565b6000610fec8260016000868152602001908152602001600020600001611b9790919063ffffffff16565b905092915050565b600061101e8260016000868152602001908152602001600020600001611bb190919063ffffffff16565b905092915050565b6000801b81565b7f238cc277b81124817de0fb6e725dfaca359442ead042cbf4fa5a5d15a441d454808114156110d8576110636000801b33610ff4565b8061109457506110937f238cc277b81124817de0fb6e725dfaca359442ead042cbf4fa5a5d15a441d45433610ff4565b5b6110d3576040517f08c379a00000000000000000000000000000000000000000000000000000000081526004016110ca9061291e565b60405180910390fd5b611187565b6110e56000801b33610ff4565b8061111657506111157f238cc277b81124817de0fb6e725dfaca359442ead042cbf4fa5a5d15a441d45433610ff4565b5b8061114757506111467f60b176c013bc5f6a4aaf9c1455cc3ff5e7ee54daffb41be2fd0e50b804acad4233610ff4565b5b611186576040517f08c379a000000000000000000000000000000000000000000000000000000000815260040161117d9061291e565b60405180910390fd5b5b600260009054906101000a900473ffffffffffffffffffffffffffffffffffffffff1673ffffffffffffffffffffffffffffffffffffffff1663ab7cc4d28a8a8a8a8a8a8a8a6040518963ffffffff1660e01b81526004016111f0989796959493929190612a19565b600060405180830381600087803b15801561120a57600080fd5b505af115801561121e573d6000803e3d6000fd5b50505050505050505050505050565b60606040518060400160405280601a81526020017f43616c4175746820536179732048692e2020436f72726563742e000000000000815250905090565b60606112796000801b33610ff4565b156112bb576040518060400160405280600581526020017f41444d494e0000000000000000000000000000000000000000000000000000008152509050611438565b6112e57fdf8b4c520ffe197c5343c6f5aec59570151ef9a492f2c624fd45ddde6135ec4233610ff4565b15611327576040518060400160405280600581526020017f41444d494e0000000000000000000000000000000000000000000000000000008152509050611438565b6113517f238cc277b81124817de0fb6e725dfaca359442ead042cbf4fa5a5d15a441d45433610ff4565b15611393576040518060400160405280600f81526020017f555345525f57524954455f524f4c4500000000000000000000000000000000008152509050611438565b6113bd7f60b176c013bc5f6a4aaf9c1455cc3ff5e7ee54daffb41be2fd0e50b804acad4233610ff4565b156113ff576040518060400160405280600e81526020017f555345525f524541445f524f4c450000000000000000000000000000000000008152509050611438565b6040518060400160405280600381526020017f4e494c000000000000000000000000000000000000000000000000000000000081525090505b90565b600061145b60016000848152602001908152602001600020600001611be1565b9050919050565b60607f60b176c013bc5f6a4aaf9c1455cc3ff5e7ee54daffb41be2fd0e50b804acad427f238cc277b81124817de0fb6e725dfaca359442ead042cbf4fa5a5d15a441d45481141561152f576114ba6000801b33610ff4565b806114eb57506114ea7f238cc277b81124817de0fb6e725dfaca359442ead042cbf4fa5a5d15a441d45433610ff4565b5b61152a576040517f08c379a00000000000000000000000000000000000000000000000000000000081526004016115219061291e565b60405180910390fd5b6115de565b61153c6000801b33610ff4565b8061156d575061156c7f238cc277b81124817de0fb6e725dfaca359442ead042cbf4fa5a5d15a441d45433610ff4565b5b8061159e575061159d7f60b176c013bc5f6a4aaf9c1455cc3ff5e7ee54daffb41be2fd0e50b804acad4233610ff4565b5b6115dd576040517f08c379a00000000000000000000000000000000000000000000000000000000081526004016115d49061291e565b60405180910390fd5b5b6115eb6000801b33610ff4565b8061161c575061161b7f238cc277b81124817de0fb6e725dfaca359442ead042cbf4fa5a5d15a441d45433610ff4565b5b8061164d575061164c7f60b176c013bc5f6a4aaf9c1455cc3ff5e7ee54daffb41be2fd0e50b804acad4233610ff4565b5b61168c576040517f08c379a00000000000000000000000000000000000000000000000000000000081526004016116839061291e565b60405180910390fd5b600260009054906101000a900473ffffffffffffffffffffffffffffffffffffffff1673ffffffffffffffffffffffffffffffffffffffff1663caebb9916040518163ffffffff1660e01b815260040160006040518083038186803b1580156116f457600080fd5b505afa158015611708573d6000803e3d6000fd5b505050506040513d6000823e3d601f19601f82011682018060405250810190611731919061211e565b91505090565b61175e6001600084815260200190815260200160002060020154611759611a67565b610ff4565b61179d576040517f08c379a00000000000000000000000000000000000000000000000000000000081526004016117949061297e565b60405180910390fd5b6117a78282611b03565b5050565b7f238cc277b81124817de0fb6e725dfaca359442ead042cbf4fa5a5d15a441d45481565b6117d7611a67565b73ffffffffffffffffffffffffffffffffffffffff1660008054906101000a900473ffffffffffffffffffffffffffffffffffffffff1673ffffffffffffffffffffffffffffffffffffffff1614611864576040517f08c379a000000000000000000000000000000000000000000000000000000000815260040161185b9061299e565b60405180910390fd5b600073ffffffffffffffffffffffffffffffffffffffff168173ffffffffffffffffffffffffffffffffffffffff1614156118d4576040517f08c379a00000000000000000000000000000000000000000000000000000000081526004016118cb9061295e565b60405180910390fd5b8073ffffffffffffffffffffffffffffffffffffffff1660008054906101000a900473ffffffffffffffffffffffffffffffffffffffff1673ffffffffffffffffffffffffffffffffffffffff167f8be0079c531659141344cd1fd0a4f28419497f9722a3daafe3b4186f6b6457e060405160405180910390a3806000806101000a81548173ffffffffffffffffffffffffffffffffffffffff021916908373ffffffffffffffffffffffffffffffffffffffff16021790555050565b60606119bd7f60b176c013bc5f6a4aaf9c1455cc3ff5e7ee54daffb41be2fd0e50b804acad4233610ff4565b6119fc576040517f08c379a00000000000000000000000000000000000000000000000000000000081526004016119f3906129be565b60405180910390fd5b6040518060400160405280601681526020017f57656c636f6d652072656164206f6e6c79207573657200000000000000000000815250905090565b6000611a5f836000018373ffffffffffffffffffffffffffffffffffffffff1660001b611bf6565b905092915050565b600033905090565b611a978160016000858152602001908152602001600020600001611a3790919063ffffffff16565b15611aff57611aa4611a67565b73ffffffffffffffffffffffffffffffffffffffff168173ffffffffffffffffffffffffffffffffffffffff16837f2f8788117e7eff1d82e926ec794901d17c78024a50270940304540a733656f0d60405160405180910390a45b5050565b611b2b8160016000858152602001908152602001600020600001611c6690919063ffffffff16565b15611b9357611b38611a67565b73ffffffffffffffffffffffffffffffffffffffff168173ffffffffffffffffffffffffffffffffffffffff16837ff6391f5c32d9c69d2a47ea670b442974b53935d1edc7fd64eb21e047a839171b60405160405180910390a45b5050565b6000611ba68360000183611c96565b60001c905092915050565b6000611bd9836000018373ffffffffffffffffffffffffffffffffffffffff1660001b611d03565b905092915050565b6000611bef82600001611d26565b9050919050565b6000611c028383611d03565b611c5b578260000182908060018154018082558091505060019003906000526020600020016000909190919091505582600001805490508360010160008481526020019081526020016000208190555060019050611c60565b600090505b92915050565b6000611c8e836000018373ffffffffffffffffffffffffffffffffffffffff1660001b611d37565b905092915050565b600081836000018054905011611ce1576040517f08c379a0000000000000000000000000000000000000000000000000000000008152600401611cd8906128fe565b60405180910390fd5b826000018281548110611cf057fe5b9060005260206000200154905092915050565b600080836001016000848152602001908152602001600020541415905092915050565b600081600001805490509050919050565b60008083600101600084815260200190815260200160002054905060008114611e135760006001820390506000600186600001805490500390506000866000018281548110611d8257fe5b9060005260206000200154905080876000018481548110611d9f57fe5b9060005260206000200181905550600183018760010160008381526020019081526020016000208190555086600001805480611dd757fe5b60019003818190600052602060002001600090559055866001016000878152602001908152602001600020600090556001945050505050611e19565b60009150505b92915050565b600081359050611e2e81612c3f565b92915050565b600082601f830112611e4557600080fd5b8151611e58611e5382612ae0565b612ab3565b9150818183526020840193506020810190508360005b83811015611e9e5781518601611e848882611f8f565b845260208401935060208301925050600181019050611e6e565b5050505092915050565b600081359050611eb781612c56565b92915050565b600081519050611ecc81612c56565b92915050565b600081359050611ee181612c6d565b92915050565b600082601f830112611ef857600080fd5b8135611f0b611f0682612b08565b612ab3565b91508082526020830160208301858383011115611f2757600080fd5b611f32838284612bec565b50505092915050565b600082601f830112611f4c57600080fd5b8151611f5f611f5a82612b08565b612ab3565b91508082526020830160208301858383011115611f7b57600080fd5b611f86838284612bfb565b50505092915050565b60006101208284031215611fa257600080fd5b611fad610120612ab3565b90506000611fbd848285016120e0565b6000830152506020611fd1848285016120e0565b6020830152506040611fe5848285016120e0565b604083015250606082015167ffffffffffffffff81111561200557600080fd5b61201184828501611f3b565b606083015250608082015167ffffffffffffffff81111561203157600080fd5b61203d84828501611f3b565b60808301525060a061205184828501611ebd565b60a08301525060c082015167ffffffffffffffff81111561207157600080fd5b61207d84828501611f3b565b60c08301525060e082015167ffffffffffffffff81111561209d57600080fd5b6120a984828501611f3b565b60e0830152506101006120be848285016120e0565b6101008301525092915050565b6000813590506120da81612c84565b92915050565b6000815190506120ef81612c84565b92915050565b60006020828403121561210757600080fd5b600061211584828501611e1f565b91505092915050565b60006020828403121561213057600080fd5b600082015167ffffffffffffffff81111561214a57600080fd5b61215684828501611e34565b91505092915050565b60006020828403121561217157600080fd5b600061217f84828501611ed2565b91505092915050565b6000806040838503121561219b57600080fd5b60006121a985828601611ed2565b92505060206121ba85828601611e1f565b9150509250929050565b600080604083850312156121d757600080fd5b60006121e585828601611ed2565b92505060206121f6858286016120cb565b9150509250929050565b60006020828403121561221257600080fd5b600082015167ffffffffffffffff81111561222c57600080fd5b61223884828501611f3b565b91505092915050565b60006020828403121561225357600080fd5b6000612261848285016120cb565b91505092915050565b600080600080600080600080610100898b03121561228757600080fd5b60006122958b828c016120cb565b98505060206122a68b828c016120cb565b97505060406122b78b828c016120cb565b965050606089013567ffffffffffffffff8111156122d457600080fd5b6122e08b828c01611ee7565b955050608089013567ffffffffffffffff8111156122fd57600080fd5b6123098b828c01611ee7565b94505060a061231a8b828c01611ea8565b93505060c089013567ffffffffffffffff81111561233757600080fd5b6123438b828c01611ee7565b92505060e089013567ffffffffffffffff81111561236057600080fd5b61236c8b828c01611ee7565b9150509295985092959890939650565b60006123888383612771565b905092915050565b61239981612b9a565b82525050565b60006123aa82612b44565b6123b48185612b67565b9350836020820285016123c685612b34565b8060005b8581101561240257848403895281516123e3858261237c565b94506123ee83612b5a565b925060208a019950506001810190506123ca565b50829750879550505050505092915050565b61241d81612bac565b82525050565b61242c81612bac565b82525050565b61243b81612bb8565b82525050565b600061244c82612b4f565b6124568185612b78565b9350612466818560208601612bfb565b61246f81612c2e565b840191505092915050565b600061248582612b4f565b61248f8185612b89565b935061249f818560208601612bfb565b6124a881612c2e565b840191505092915050565b60006124c0602283612b89565b91507f456e756d657261626c655365743a20696e646578206f7574206f6620626f756e60008301527f64730000000000000000000000000000000000000000000000000000000000006020830152604082019050919050565b6000612526601383612b89565b91507f55736572206e6f7420617574686f7269736564000000000000000000000000006000830152602082019050919050565b6000612566602f83612b89565b91507f416363657373436f6e74726f6c3a2073656e646572206d75737420626520616e60008301527f2061646d696e20746f206772616e7400000000000000000000000000000000006020830152604082019050919050565b60006125cc602683612b89565b91507f4f776e61626c653a206e6577206f776e657220697320746865207a65726f206160008301527f64647265737300000000000000000000000000000000000000000000000000006020830152604082019050919050565b6000612632603083612b89565b91507f416363657373436f6e74726f6c3a2073656e646572206d75737420626520616e60008301527f2061646d696e20746f207265766f6b65000000000000000000000000000000006020830152604082019050919050565b6000612698602083612b89565b91507f4f776e61626c653a2063616c6c6572206973206e6f7420746865206f776e65726000830152602082019050919050565b60006126d8601d83612b89565b91507f536f72727920796f7520617265206e6f742061205245414420757365720000006000830152602082019050919050565b6000612718602f83612b89565b91507f416363657373436f6e74726f6c3a2063616e206f6e6c792072656e6f756e636560008301527f20726f6c657320666f722073656c6600000000000000000000000000000000006020830152604082019050919050565b60006101208301600083015161278a600086018261284b565b50602083015161279d602086018261284b565b5060408301516127b0604086018261284b565b50606083015184820360608601526127c88282612441565b915050608083015184820360808601526127e28282612441565b91505060a08301516127f760a0860182612414565b5060c083015184820360c086015261280f8282612441565b91505060e083015184820360e08601526128298282612441565b91505061010083015161284061010086018261284b565b508091505092915050565b61285481612be2565b82525050565b61286381612be2565b82525050565b600060208201905061287e6000830184612390565b92915050565b6000602082019050818103600083015261289e818461239f565b905092915050565b60006020820190506128bb6000830184612423565b92915050565b60006020820190506128d66000830184612432565b92915050565b600060208201905081810360008301526128f6818461247a565b905092915050565b60006020820190508181036000830152612917816124b3565b9050919050565b6000602082019050818103600083015261293781612519565b9050919050565b6000602082019050818103600083015261295781612559565b9050919050565b60006020820190508181036000830152612977816125bf565b9050919050565b6000602082019050818103600083015261299781612625565b9050919050565b600060208201905081810360008301526129b78161268b565b9050919050565b600060208201905081810360008301526129d7816126cb565b9050919050565b600060208201905081810360008301526129f78161270b565b9050919050565b6000602082019050612a13600083018461285a565b92915050565b600061010082019050612a2f600083018b61285a565b612a3c602083018a61285a565b612a49604083018961285a565b8181036060830152612a5b818861247a565b90508181036080830152612a6f818761247a565b9050612a7e60a0830186612423565b81810360c0830152612a90818561247a565b905081810360e0830152612aa4818461247a565b90509998505050505050505050565b6000604051905081810181811067ffffffffffffffff82111715612ad657600080fd5b8060405250919050565b600067ffffffffffffffff821115612af757600080fd5b602082029050602081019050919050565b600067ffffffffffffffff821115612b1f57600080fd5b601f19601f8301169050602081019050919050565b6000819050602082019050919050565b600081519050919050565b600081519050919050565b6000602082019050919050565b600082825260208201905092915050565b600082825260208201905092915050565b600082825260208201905092915050565b6000612ba582612bc2565b9050919050565b60008115159050919050565b6000819050919050565b600073ffffffffffffffffffffffffffffffffffffffff82169050919050565b6000819050919050565b82818337600083830152505050565b60005b83811015612c19578082015181840152602081019050612bfe565b83811115612c28576000848401525b50505050565b6000601f19601f8301169050919050565b612c4881612b9a565b8114612c5357600080fd5b50565b612c5f81612bac565b8114612c6a57600080fd5b50565b612c7681612bb8565b8114612c8157600080fd5b50565b612c8d81612be2565b8114612c9857600080fd5b5056fea26469706673582212203784e3059ae6d1536b6bc47ba05ec49c6947b6651b07e31c587fca08d1b10ee664736f6c634300060c0033",
  "immutableReferences": {},
  "source": "// SPDX-License-Identifier: MIT\npragma solidity ^0.6.0;\npragma experimental ABIEncoderV2;\n\nimport \"@openzeppelin/contracts/access/AccessControl.sol\";\nimport \"@openzeppelin/contracts/access/Ownable.sol\";\nimport \"./CalStore.sol\";\nimport \"./VEventLibrary.sol\";\n\ncontract CalAuth is Ownable, AccessControl {\n    using VEventLibrary for VEventLibrary.VEvent;\n\n    bytes32 public constant USER_READ_ROLE = keccak256(\"USER_READ_ROLE\");\n    bytes32 public constant USER_WRITE_ROLE = keccak256(\"USER_WRITE_ROLE\");\n    bytes32 public constant ADMIN = keccak256(\"ADMIN\");\n    CalStore private calStore;\n\n    constructor(address _addr) public {\n        _setupRole(DEFAULT_ADMIN_ROLE, msg.sender);\n        calStore = CalStore(_addr);\n    }\n\n    modifier onlyRole(bytes32 _role) {\n        if (_role == USER_WRITE_ROLE) {\n            require(\n                hasRole(DEFAULT_ADMIN_ROLE, msg.sender) ||\n                hasRole(USER_WRITE_ROLE, msg.sender),\n                \"User not authorised\");\n        } else {\n            require(\n                hasRole(DEFAULT_ADMIN_ROLE, msg.sender) ||\n                hasRole(USER_WRITE_ROLE, msg.sender) ||\n                hasRole(USER_READ_ROLE, msg.sender),\n                \"User not authorised\");\n        }\n        _;\n    }\n    \n    modifier onlyRoleIcal(address _user) {\n        require(\n            hasRole(DEFAULT_ADMIN_ROLE, _user) ||\n            hasRole(USER_WRITE_ROLE, _user) ||\n            hasRole(USER_READ_ROLE, _user),\n            \"User not authorised\");\n        _;\n    }\n\n    function storeEvent(\n        uint _dtstamp,\n        uint _dtstart,\n        uint _dtend,\n        string memory _summary,\n        string memory _description,\n        bool _isallday,\n        string memory _alldaystartdate,\n        string memory _alldayenddate)\n        public onlyRole(USER_WRITE_ROLE)\n        {\n        calStore.storeEvent(\n            _dtstamp, _dtstart, _dtend,\n            _summary, _description,\n            _isallday, _alldaystartdate,\n            _alldayenddate);\n    }\n\n    function removeEvent(uint _dtstamp) public onlyRole(USER_WRITE_ROLE) {\n        require(\n            hasRole(DEFAULT_ADMIN_ROLE, msg.sender) ||\n            hasRole(USER_WRITE_ROLE, msg.sender),\n            \"User not authorised\");\n        calStore.removeEvent(_dtstamp);\n    }\n\n    function getEventsIcal(address _user) public view onlyRoleIcal(_user) returns (\n        string memory) {\n        return calStore.getEventsIcal();\n    }\n\n    function getEventsObj() public view onlyRole(USER_READ_ROLE) returns (\n        VEventLibrary.VEvent[] memory) {\n        require(\n            hasRole(DEFAULT_ADMIN_ROLE, msg.sender) ||\n            hasRole(USER_WRITE_ROLE, msg.sender) ||\n            hasRole(USER_READ_ROLE, msg.sender),\n            \"User not authorised\");\n        return calStore.getEventsObj();\n    }\n\n\n    /// @notice Returns role of msg.sender\n    /// @dev Returns in hierarchial order, e.g. ADMIN more important than READ etc\n    /// @return string user role\n    function getUserRole() public view returns (string memory) {\n        if (hasRole(DEFAULT_ADMIN_ROLE, msg.sender)) {\n            return \"ADMIN\";\n        } else if (hasRole(ADMIN, msg.sender)) {\n            return \"ADMIN\";\n        } else if (hasRole(USER_WRITE_ROLE, msg.sender)) {\n            return \"USER_WRITE_ROLE\";\n        } else if (hasRole(USER_READ_ROLE, msg.sender)) {\n            return \"USER_READ_ROLE\";\n        }\n        return \"NIL\";\n    }\n\n    //TODO: Delete, not used\n    function addRead(address userAddress) public onlyOwner {\n        grantRole(USER_READ_ROLE, userAddress);\n    }\n\n    //TODO: Delete, not used\n    function addWrite(address userAddress) public onlyOwner {\n        grantRole(USER_WRITE_ROLE, userAddress);\n    }\n\n    //TODO: Delete, not used\n    function revokeRead(address userAddress) public onlyOwner {\n        revokeRole(USER_READ_ROLE, userAddress);\n    }\n\n    //TODO: Delete, not used\n    function revokeWrite(address userAddress) public onlyOwner {\n        revokeRole(USER_WRITE_ROLE, userAddress);\n    }\n\n    function userReadWelcomeString() public view returns (string memory) {\n        require(hasRole(USER_READ_ROLE, msg.sender), \"Sorry you are not a READ user\");\n        return \"Welcome read only user\";\n    }\n\n    function ownerWelcomeString() public onlyOwner view returns (string memory) {\n        return \"Welcome owner\";\n    }\n\n    function justSayHiCalAuth() public pure returns (string memory) {\n        return \"Hi from CalAuth\";\n    }\n    function authHi() public pure returns (string memory) {\n        return \"CalAuth Says Hi.  Correct.\";\n    }\n}\n\n",
  "sourcePath": "/home/gene/Programming/Websites/Precious_Chicken_Website/blog_code_demos/forget-me-block-eth-cal-auth/contracts/CalAuth.sol",
  "compiler": {
    "name": "solc",
    "version": "0.6.12+commit.27d51765.Emscripten.clang"
  },
  "schemaVersion": "3.2.3",
  "updatedAt": "2020-08-17T11:49:56.233Z",
  "networkType": "ethereum",
  "devdoc": {
    "kind": "dev",
    "methods": {
      "getRoleAdmin(bytes32)": {
        "details": "Returns the admin role that controls `role`. See {grantRole} and {revokeRole}. To change a role's admin, use {_setRoleAdmin}."
      },
      "getRoleMember(bytes32,uint256)": {
        "details": "Returns one of the accounts that have `role`. `index` must be a value between 0 and {getRoleMemberCount}, non-inclusive. Role bearers are not sorted in any particular way, and their ordering may change at any point. WARNING: When using {getRoleMember} and {getRoleMemberCount}, make sure you perform all queries on the same block. See the following https://forum.openzeppelin.com/t/iterating-over-elements-on-enumerableset-in-openzeppelin-contracts/2296[forum post] for more information."
      },
      "getRoleMemberCount(bytes32)": {
        "details": "Returns the number of accounts that have `role`. Can be used together with {getRoleMember} to enumerate all bearers of a role."
      },
      "getUserRole()": {
        "details": "Returns in hierarchial order, e.g. ADMIN more important than READ etc",
        "returns": {
          "_0": "string user role"
        }
      },
      "grantRole(bytes32,address)": {
        "details": "Grants `role` to `account`. If `account` had not been already granted `role`, emits a {RoleGranted} event. Requirements: - the caller must have ``role``'s admin role."
      },
      "hasRole(bytes32,address)": {
        "details": "Returns `true` if `account` has been granted `role`."
      },
      "owner()": {
        "details": "Returns the address of the current owner."
      },
      "renounceOwnership()": {
        "details": "Leaves the contract without owner. It will not be possible to call `onlyOwner` functions anymore. Can only be called by the current owner. NOTE: Renouncing ownership will leave the contract without an owner, thereby removing any functionality that is only available to the owner."
      },
      "renounceRole(bytes32,address)": {
        "details": "Revokes `role` from the calling account. Roles are often managed via {grantRole} and {revokeRole}: this function's purpose is to provide a mechanism for accounts to lose their privileges if they are compromised (such as when a trusted device is misplaced). If the calling account had been granted `role`, emits a {RoleRevoked} event. Requirements: - the caller must be `account`."
      },
      "revokeRole(bytes32,address)": {
        "details": "Revokes `role` from `account`. If `account` had been granted `role`, emits a {RoleRevoked} event. Requirements: - the caller must have ``role``'s admin role."
      },
      "transferOwnership(address)": {
        "details": "Transfers ownership of the contract to a new account (`newOwner`). Can only be called by the current owner."
      }
    },
    "version": 1
  },
  "userdoc": {
    "kind": "user",
    "methods": {
      "getUserRole()": {
        "notice": "Returns role of msg.sender"
      }
    },
    "version": 1
  }
}