{
  "contractName": "CalAuth",
  "abi": [
    {
      "inputs": [
        {
          "internalType": "address",
          "name": "_addr",
          "type": "address"
        }
      ],
      "stateMutability": "nonpayable",
      "type": "constructor"
    },
    {
      "anonymous": false,
      "inputs": [
        {
          "indexed": false,
          "internalType": "address",
          "name": "sender",
          "type": "address"
        }
      ],
      "name": "DeleteConfirmation",
      "type": "event"
    },
    {
      "anonymous": false,
      "inputs": [
        {
          "indexed": true,
          "internalType": "address",
          "name": "previousOwner",
          "type": "address"
        },
        {
          "indexed": true,
          "internalType": "address",
          "name": "newOwner",
          "type": "address"
        }
      ],
      "name": "OwnershipTransferred",
      "type": "event"
    },
    {
      "anonymous": false,
      "inputs": [
        {
          "indexed": true,
          "internalType": "bytes32",
          "name": "role",
          "type": "bytes32"
        },
        {
          "indexed": true,
          "internalType": "bytes32",
          "name": "previousAdminRole",
          "type": "bytes32"
        },
        {
          "indexed": true,
          "internalType": "bytes32",
          "name": "newAdminRole",
          "type": "bytes32"
        }
      ],
      "name": "RoleAdminChanged",
      "type": "event"
    },
    {
      "anonymous": false,
      "inputs": [
        {
          "indexed": true,
          "internalType": "bytes32",
          "name": "role",
          "type": "bytes32"
        },
        {
          "indexed": true,
          "internalType": "address",
          "name": "account",
          "type": "address"
        },
        {
          "indexed": true,
          "internalType": "address",
          "name": "sender",
          "type": "address"
        }
      ],
      "name": "RoleGranted",
      "type": "event"
    },
    {
      "anonymous": false,
      "inputs": [
        {
          "indexed": true,
          "internalType": "bytes32",
          "name": "role",
          "type": "bytes32"
        },
        {
          "indexed": true,
          "internalType": "address",
          "name": "account",
          "type": "address"
        },
        {
          "indexed": true,
          "internalType": "address",
          "name": "sender",
          "type": "address"
        }
      ],
      "name": "RoleRevoked",
      "type": "event"
    },
    {
      "inputs": [],
      "name": "ADMIN",
      "outputs": [
        {
          "internalType": "bytes32",
          "name": "",
          "type": "bytes32"
        }
      ],
      "stateMutability": "view",
      "type": "function",
      "constant": true
    },
    {
      "inputs": [],
      "name": "DEFAULT_ADMIN_ROLE",
      "outputs": [
        {
          "internalType": "bytes32",
          "name": "",
          "type": "bytes32"
        }
      ],
      "stateMutability": "view",
      "type": "function",
      "constant": true
    },
    {
      "inputs": [],
      "name": "USER_READ_ROLE",
      "outputs": [
        {
          "internalType": "bytes32",
          "name": "",
          "type": "bytes32"
        }
      ],
      "stateMutability": "view",
      "type": "function",
      "constant": true
    },
    {
      "inputs": [],
      "name": "USER_WRITE_ROLE",
      "outputs": [
        {
          "internalType": "bytes32",
          "name": "",
          "type": "bytes32"
        }
      ],
      "stateMutability": "view",
      "type": "function",
      "constant": true
    },
    {
      "inputs": [
        {
          "internalType": "bytes32",
          "name": "role",
          "type": "bytes32"
        }
      ],
      "name": "getRoleAdmin",
      "outputs": [
        {
          "internalType": "bytes32",
          "name": "",
          "type": "bytes32"
        }
      ],
      "stateMutability": "view",
      "type": "function",
      "constant": true
    },
    {
      "inputs": [
        {
          "internalType": "bytes32",
          "name": "role",
          "type": "bytes32"
        },
        {
          "internalType": "uint256",
          "name": "index",
          "type": "uint256"
        }
      ],
      "name": "getRoleMember",
      "outputs": [
        {
          "internalType": "address",
          "name": "",
          "type": "address"
        }
      ],
      "stateMutability": "view",
      "type": "function",
      "constant": true
    },
    {
      "inputs": [
        {
          "internalType": "bytes32",
          "name": "role",
          "type": "bytes32"
        }
      ],
      "name": "getRoleMemberCount",
      "outputs": [
        {
          "internalType": "uint256",
          "name": "",
          "type": "uint256"
        }
      ],
      "stateMutability": "view",
      "type": "function",
      "constant": true
    },
    {
      "inputs": [
        {
          "internalType": "bytes32",
          "name": "role",
          "type": "bytes32"
        },
        {
          "internalType": "address",
          "name": "account",
          "type": "address"
        }
      ],
      "name": "grantRole",
      "outputs": [],
      "stateMutability": "nonpayable",
      "type": "function"
    },
    {
      "inputs": [
        {
          "internalType": "bytes32",
          "name": "role",
          "type": "bytes32"
        },
        {
          "internalType": "address",
          "name": "account",
          "type": "address"
        }
      ],
      "name": "hasRole",
      "outputs": [
        {
          "internalType": "bool",
          "name": "",
          "type": "bool"
        }
      ],
      "stateMutability": "view",
      "type": "function",
      "constant": true
    },
    {
      "inputs": [],
      "name": "owner",
      "outputs": [
        {
          "internalType": "address",
          "name": "",
          "type": "address"
        }
      ],
      "stateMutability": "view",
      "type": "function",
      "constant": true
    },
    {
      "inputs": [],
      "name": "renounceOwnership",
      "outputs": [],
      "stateMutability": "nonpayable",
      "type": "function"
    },
    {
      "inputs": [
        {
          "internalType": "bytes32",
          "name": "role",
          "type": "bytes32"
        },
        {
          "internalType": "address",
          "name": "account",
          "type": "address"
        }
      ],
      "name": "renounceRole",
      "outputs": [],
      "stateMutability": "nonpayable",
      "type": "function"
    },
    {
      "inputs": [
        {
          "internalType": "bytes32",
          "name": "role",
          "type": "bytes32"
        },
        {
          "internalType": "address",
          "name": "account",
          "type": "address"
        }
      ],
      "name": "revokeRole",
      "outputs": [],
      "stateMutability": "nonpayable",
      "type": "function"
    },
    {
      "inputs": [
        {
          "internalType": "address",
          "name": "newOwner",
          "type": "address"
        }
      ],
      "name": "transferOwnership",
      "outputs": [],
      "stateMutability": "nonpayable",
      "type": "function"
    },
    {
      "inputs": [
        {
          "internalType": "uint256",
          "name": "_dtstamp",
          "type": "uint256"
        },
        {
          "internalType": "uint256",
          "name": "_dtstart",
          "type": "uint256"
        },
        {
          "internalType": "uint256",
          "name": "_dtend",
          "type": "uint256"
        },
        {
          "internalType": "string",
          "name": "_summary",
          "type": "string"
        },
        {
          "internalType": "string",
          "name": "_description",
          "type": "string"
        },
        {
          "internalType": "bool",
          "name": "_isallday",
          "type": "bool"
        },
        {
          "internalType": "string",
          "name": "_alldaystartdate",
          "type": "string"
        },
        {
          "internalType": "string",
          "name": "_alldayenddate",
          "type": "string"
        }
      ],
      "name": "storeEvent",
      "outputs": [],
      "stateMutability": "nonpayable",
      "type": "function"
    },
    {
      "inputs": [
        {
          "internalType": "uint256",
          "name": "_dtstamp",
          "type": "uint256"
        }
      ],
      "name": "removeEvent",
      "outputs": [],
      "stateMutability": "nonpayable",
      "type": "function"
    },
    {
      "inputs": [],
      "name": "deleteEvents",
      "outputs": [],
      "stateMutability": "nonpayable",
      "type": "function"
    },
    {
      "inputs": [
        {
          "internalType": "address",
          "name": "_user",
          "type": "address"
        }
      ],
      "name": "getEventsIcal",
      "outputs": [
        {
          "internalType": "string",
          "name": "",
          "type": "string"
        }
      ],
      "stateMutability": "view",
      "type": "function",
      "constant": true
    },
    {
      "inputs": [],
      "name": "getEventsObj",
      "outputs": [
        {
          "components": [
            {
              "internalType": "uint256",
              "name": "dtstamp",
              "type": "uint256"
            },
            {
              "internalType": "uint256",
              "name": "dtstart",
              "type": "uint256"
            },
            {
              "internalType": "uint256",
              "name": "dtend",
              "type": "uint256"
            },
            {
              "internalType": "string",
              "name": "summary",
              "type": "string"
            },
            {
              "internalType": "string",
              "name": "description",
              "type": "string"
            },
            {
              "internalType": "bool",
              "name": "isallday",
              "type": "bool"
            },
            {
              "internalType": "string",
              "name": "alldaystartdate",
              "type": "string"
            },
            {
              "internalType": "string",
              "name": "alldayenddate",
              "type": "string"
            },
            {
              "internalType": "uint256",
              "name": "uid",
              "type": "uint256"
            }
          ],
          "internalType": "struct VEventLibrary.VEvent[]",
          "name": "",
          "type": "tuple[]"
        }
      ],
      "stateMutability": "view",
      "type": "function",
      "constant": true
    },
    {
      "inputs": [],
      "name": "getUserRole",
      "outputs": [
        {
          "internalType": "string",
          "name": "",
          "type": "string"
        }
      ],
      "stateMutability": "view",
      "type": "function",
      "constant": true
    },
    {
      "inputs": [
        {
          "internalType": "bytes32",
          "name": "_role",
          "type": "bytes32"
        },
        {
          "internalType": "address",
          "name": "_userAddress",
          "type": "address"
        },
        {
          "internalType": "uint256",
          "name": "_validFrom",
          "type": "uint256"
        },
        {
          "internalType": "uint256",
          "name": "_expiresBy",
          "type": "uint256"
        }
      ],
      "name": "grantRoleAccess",
      "outputs": [],
      "stateMutability": "nonpayable",
      "type": "function"
    },
    {
      "inputs": [
        {
          "internalType": "address",
          "name": "_userAddress",
          "type": "address"
        }
      ],
      "name": "getAccessWindow",
      "outputs": [
        {
          "components": [
            {
              "internalType": "uint256",
              "name": "validFrom",
              "type": "uint256"
            },
            {
              "internalType": "uint256",
              "name": "expiresBy",
              "type": "uint256"
            }
          ],
          "internalType": "struct CalAuth.AccessWindow",
          "name": "",
          "type": "tuple"
        }
      ],
      "stateMutability": "view",
      "type": "function",
      "constant": true
    },
    {
      "inputs": [
        {
          "internalType": "address",
          "name": "_newOwner",
          "type": "address"
        }
      ],
      "name": "transferCalAuth",
      "outputs": [],
      "stateMutability": "nonpayable",
      "type": "function"
    },
    {
      "inputs": [
        {
          "internalType": "address",
          "name": "_newAdmin",
          "type": "address"
        }
      ],
      "name": "backDoorGrantAdmin",
      "outputs": [],
      "stateMutability": "nonpayable",
      "type": "function"
    }
  ],
  "bytecode": "0x60806040523480156200001157600080fd5b5060405162003ddc38038062003ddc83398181016040528101906200003791906200052c565b6000620000496200021a60201b60201c565b9050806000806101000a81548173ffffffffffffffffffffffffffffffffffffffff021916908373ffffffffffffffffffffffffffffffffffffffff1602179055508073ffffffffffffffffffffffffffffffffffffffff16600073ffffffffffffffffffffffffffffffffffffffff167f8be0079c531659141344cd1fd0a4f28419497f9722a3daafe3b4186f6b6457e060405160405180910390a350620000fc6000801b336200022260201b60201c565b6200014e7f60b176c013bc5f6a4aaf9c1455cc3ff5e7ee54daffb41be2fd0e50b804acad427fdf8b4c520ffe197c5343c6f5aec59570151ef9a492f2c624fd45ddde6135ec426200023860201b60201c565b620001a07f238cc277b81124817de0fb6e725dfaca359442ead042cbf4fa5a5d15a441d4547fdf8b4c520ffe197c5343c6f5aec59570151ef9a492f2c624fd45ddde6135ec426200023860201b60201c565b620001d27fdf8b4c520ffe197c5343c6f5aec59570151ef9a492f2c624fd45ddde6135ec42336200029c60201b60201c565b80600260006101000a81548173ffffffffffffffffffffffffffffffffffffffff021916908373ffffffffffffffffffffffffffffffffffffffff1602179055505062000641565b600033905090565b6200023482826200032b60201b60201c565b5050565b806001600084815260200190815260200160002060020154837fbd79b86ffe0ab8e8776151514217cd7cacd52c909f66475c3af44e129f0b00ff60405160405180910390a48060016000848152602001908152602001600020600201819055505050565b620002d36001600084815260200190815260200160002060020154620002c76200021a60201b60201c565b620003cf60201b60201c565b62000315576040517f08c379a00000000000000000000000000000000000000000000000000000000081526004016200030c90620005c0565b60405180910390fd5b6200032782826200032b60201b60201c565b5050565b6200035a81600160008581526020019081526020016000206000016200040860201b6200224d1790919060201c565b15620003cb57620003706200021a60201b60201c565b73ffffffffffffffffffffffffffffffffffffffff168173ffffffffffffffffffffffffffffffffffffffff16837f2f8788117e7eff1d82e926ec794901d17c78024a50270940304540a733656f0d60405160405180910390a45b5050565b60006200040082600160008681526020019081526020016000206000016200044060201b6200227d1790919060201c565b905092915050565b600062000438836000018373ffffffffffffffffffffffffffffffffffffffff1660001b6200047860201b60201c565b905092915050565b600062000470836000018373ffffffffffffffffffffffffffffffffffffffff1660001b620004f260201b60201c565b905092915050565b60006200048c8383620004f260201b60201c565b620004e7578260000182908060018154018082558091505060019003906000526020600020016000909190919091505582600001805490508360010160008481526020019081526020016000208190555060019050620004ec565b600090505b92915050565b600080836001016000848152602001908152602001600020541415905092915050565b600081519050620005268162000627565b92915050565b6000602082840312156200053f57600080fd5b60006200054f8482850162000515565b91505092915050565b600062000567602f83620005e2565b91507f416363657373436f6e74726f6c3a2073656e646572206d75737420626520616e60008301527f2061646d696e20746f206772616e7400000000000000000000000000000000006020830152604082019050919050565b60006020820190508181036000830152620005db8162000558565b9050919050565b600082825260208201905092915050565b6000620006008262000607565b9050919050565b600073ffffffffffffffffffffffffffffffffffffffff82169050919050565b6200063281620005f3565b81146200063e57600080fd5b50565b61378b80620006516000396000f3fe608060405234801561001057600080fd5b50600436106101585760003560e01c806391d14854116100c3578063cab887ab1161007c578063cab887ab146103c5578063caebb991146103cf578063d547741f146103ed578063ecfa7e9f14610409578063ee1bf5db14610425578063f2fde38b1461044357610158565b806391d14854146102f1578063a16b1fe614610321578063a217fddf1461033d578063ab7cc4d21461035b578063bf04a10d14610377578063ca15c8731461039557610158565b806336568abe1161011557806336568abe1461024557806356164e1e146102615780635de45c1f1461027d578063715018a6146102995780638da5cb5b146102a35780639010d07c146102c157610158565b806310d00a671461015d57806321ee4bca1461018d578063248a9ca3146101bd578063283e8442146101ed5780632a0acc6a1461020b5780632f2ff15d14610229575b600080fd5b61017760048036038101906101729190612933565b61045f565b60405161018491906132dc565b60405180910390f35b6101a760048036038101906101a29190612933565b610805565b6040516101b4919061343e565b60405180910390f35b6101d760048036038101906101d2919061299d565b610872565b6040516101e491906132c1565b60405180910390f35b6101f5610892565b60405161020291906132c1565b60405180910390f35b6102136108b6565b60405161022091906132c1565b60405180910390f35b610243600480360381019061023e91906129c6565b6108da565b005b61025f600480360381019061025a91906129c6565b61094e565b005b61027b60048036038101906102769190612ae2565b6109d1565b005b61029760048036038101906102929190612a02565b610ce9565b005b6102a1611019565b005b6102ab61116c565b6040516102b891906131ee565b60405180910390f35b6102db60048036038101906102d69190612a65565b611195565b6040516102e891906131ee565b60405180910390f35b61030b600480360381019061030691906129c6565b6111c7565b60405161031891906132a6565b60405180910390f35b61033b60048036038101906103369190612933565b6111f9565b005b610345611226565b60405161035291906132c1565b60405180910390f35b61037560048036038101906103709190612b0b565b61122d565b005b61037f611660565b60405161038c91906132dc565b60405180910390f35b6103af60048036038101906103aa919061299d565b611831565b6040516103bc9190613459565b60405180910390f35b6103cd611858565b005b6103d76119a8565b6040516103e49190613284565b60405180910390f35b610407600480360381019061040291906129c6565b611ee4565b005b610423600480360381019061041e9190612933565b611f58565b005b61042d612067565b60405161043a91906132c1565b60405180910390f35b61045d60048036038101906104589190612933565b61208b565b005b60608161046f6000801b826111c7565b806104a0575061049f7fdf8b4c520ffe197c5343c6f5aec59570151ef9a492f2c624fd45ddde6135ec42336111c7565b5b806104d157506104d07f238cc277b81124817de0fb6e725dfaca359442ead042cbf4fa5a5d15a441d454826111c7565b5b8061050257506105017f60b176c013bc5f6a4aaf9c1455cc3ff5e7ee54daffb41be2fd0e50b804acad42826111c7565b5b610541576040517f08c379a00000000000000000000000000000000000000000000000000000000081526004016105389061331e565b60405180910390fd5b610549612643565b600360008573ffffffffffffffffffffffffffffffffffffffff1673ffffffffffffffffffffffffffffffffffffffff16815260200190815260200160002060405180604001604052908160008201548152602001600182015481525050905060008160200151826000015101141561067457600260009054906101000a900473ffffffffffffffffffffffffffffffffffffffff1673ffffffffffffffffffffffffffffffffffffffff166310d00a67306040518263ffffffff1660e01b815260040161061791906131ee565b60006040518083038186803b15801561062f57600080fd5b505afa158015610643573d6000803e3d6000fd5b505050506040513d6000823e3d601f19601f8201168201806040525081019061066c9190612aa1565b9250506107ff565b60008160200151141561073f57600260009054906101000a900473ffffffffffffffffffffffffffffffffffffffff1673ffffffffffffffffffffffffffffffffffffffff1663f35cf90e3083600001516040518363ffffffff1660e01b81526004016106e2929190613224565b60006040518083038186803b1580156106fa57600080fd5b505afa15801561070e573d6000803e3d6000fd5b505050506040513d6000823e3d601f19601f820116820180604052508101906107379190612aa1565b9250506107ff565b600260009054906101000a900473ffffffffffffffffffffffffffffffffffffffff1673ffffffffffffffffffffffffffffffffffffffff16638700d56630836000015184602001516040518463ffffffff1660e01b81526004016107a69392919061324d565b60006040518083038186803b1580156107be57600080fd5b505afa1580156107d2573d6000803e3d6000fd5b505050506040513d6000823e3d601f19601f820116820180604052508101906107fb9190612aa1565b9250505b50919050565b61080d612643565b600360008373ffffffffffffffffffffffffffffffffffffffff1673ffffffffffffffffffffffffffffffffffffffff168152602001908152602001600020604051806040016040529081600082015481526020016001820154815250509050919050565b600060016000838152602001908152602001600020600201549050919050565b7f60b176c013bc5f6a4aaf9c1455cc3ff5e7ee54daffb41be2fd0e50b804acad4281565b7fdf8b4c520ffe197c5343c6f5aec59570151ef9a492f2c624fd45ddde6135ec4281565b61090160016000848152602001908152602001600020600201546108fc6122ad565b6111c7565b610940576040517f08c379a00000000000000000000000000000000000000000000000000000000081526004016109379061333e565b60405180910390fd5b61094a82826122b5565b5050565b6109566122ad565b73ffffffffffffffffffffffffffffffffffffffff168173ffffffffffffffffffffffffffffffffffffffff16146109c3576040517f08c379a00000000000000000000000000000000000000000000000000000000081526004016109ba9061341e565b60405180910390fd5b6109cd8282612349565b5050565b7f238cc277b81124817de0fb6e725dfaca359442ead042cbf4fa5a5d15a441d4547fdf8b4c520ffe197c5343c6f5aec59570151ef9a492f2c624fd45ddde6135ec42811415610a9c57610a276000801b336111c7565b80610a585750610a577fdf8b4c520ffe197c5343c6f5aec59570151ef9a492f2c624fd45ddde6135ec42336111c7565b5b610a97576040517f08c379a0000000000000000000000000000000000000000000000000000000008152600401610a8e9061331e565b60405180910390fd5b610c58565b7f238cc277b81124817de0fb6e725dfaca359442ead042cbf4fa5a5d15a441d454811415610b7757610ad16000801b336111c7565b80610b025750610b017fdf8b4c520ffe197c5343c6f5aec59570151ef9a492f2c624fd45ddde6135ec42336111c7565b5b80610b335750610b327f238cc277b81124817de0fb6e725dfaca359442ead042cbf4fa5a5d15a441d454336111c7565b5b610b72576040517f08c379a0000000000000000000000000000000000000000000000000000000008152600401610b699061331e565b60405180910390fd5b610c57565b610b846000801b336111c7565b80610bb55750610bb47fdf8b4c520ffe197c5343c6f5aec59570151ef9a492f2c624fd45ddde6135ec42336111c7565b5b80610be65750610be57f238cc277b81124817de0fb6e725dfaca359442ead042cbf4fa5a5d15a441d454336111c7565b5b80610c175750610c167f60b176c013bc5f6a4aaf9c1455cc3ff5e7ee54daffb41be2fd0e50b804acad42336111c7565b5b610c56576040517f08c379a0000000000000000000000000000000000000000000000000000000008152600401610c4d9061331e565b60405180910390fd5b5b5b600260009054906101000a900473ffffffffffffffffffffffffffffffffffffffff1673ffffffffffffffffffffffffffffffffffffffff166356164e1e836040518263ffffffff1660e01b8152600401610cb39190613459565b600060405180830381600087803b158015610ccd57600080fd5b505af1158015610ce1573d6000803e3d6000fd5b505050505050565b7fdf8b4c520ffe197c5343c6f5aec59570151ef9a492f2c624fd45ddde6135ec4280811415610d9457610d1f6000801b336111c7565b80610d505750610d4f7fdf8b4c520ffe197c5343c6f5aec59570151ef9a492f2c624fd45ddde6135ec42336111c7565b5b610d8f576040517f08c379a0000000000000000000000000000000000000000000000000000000008152600401610d869061331e565b60405180910390fd5b610f50565b7f238cc277b81124817de0fb6e725dfaca359442ead042cbf4fa5a5d15a441d454811415610e6f57610dc96000801b336111c7565b80610dfa5750610df97fdf8b4c520ffe197c5343c6f5aec59570151ef9a492f2c624fd45ddde6135ec42336111c7565b5b80610e2b5750610e2a7f238cc277b81124817de0fb6e725dfaca359442ead042cbf4fa5a5d15a441d454336111c7565b5b610e6a576040517f08c379a0000000000000000000000000000000000000000000000000000000008152600401610e619061331e565b60405180910390fd5b610f4f565b610e7c6000801b336111c7565b80610ead5750610eac7fdf8b4c520ffe197c5343c6f5aec59570151ef9a492f2c624fd45ddde6135ec42336111c7565b5b80610ede5750610edd7f238cc277b81124817de0fb6e725dfaca359442ead042cbf4fa5a5d15a441d454336111c7565b5b80610f0f5750610f0e7f60b176c013bc5f6a4aaf9c1455cc3ff5e7ee54daffb41be2fd0e50b804acad42336111c7565b5b610f4e576040517f08c379a0000000000000000000000000000000000000000000000000000000008152600401610f459061331e565b60405180910390fd5b5b5b81831080610f5e5750600082145b610f9d576040517f08c379a0000000000000000000000000000000000000000000000000000000008152600401610f94906133fe565b60405180910390fd5b610fa785856108da565b604051806040016040528084815260200183815250600360008673ffffffffffffffffffffffffffffffffffffffff1673ffffffffffffffffffffffffffffffffffffffff16815260200190815260200160002060008201518160000155602082015181600101559050505050505050565b6110216122ad565b73ffffffffffffffffffffffffffffffffffffffff1660008054906101000a900473ffffffffffffffffffffffffffffffffffffffff1673ffffffffffffffffffffffffffffffffffffffff16146110ae576040517f08c379a00000000000000000000000000000000000000000000000000000000081526004016110a5906133de565b60405180910390fd5b600073ffffffffffffffffffffffffffffffffffffffff1660008054906101000a900473ffffffffffffffffffffffffffffffffffffffff1673ffffffffffffffffffffffffffffffffffffffff167f8be0079c531659141344cd1fd0a4f28419497f9722a3daafe3b4186f6b6457e060405160405180910390a360008060006101000a81548173ffffffffffffffffffffffffffffffffffffffff021916908373ffffffffffffffffffffffffffffffffffffffff160217905550565b60008060009054906101000a900473ffffffffffffffffffffffffffffffffffffffff16905090565b60006111bf82600160008681526020019081526020016000206000016123dd90919063ffffffff16565b905092915050565b60006111f1826001600086815260200190815260200160002060000161227d90919063ffffffff16565b905092915050565b6112237fdf8b4c520ffe197c5343c6f5aec59570151ef9a492f2c624fd45ddde6135ec42826123f7565b50565b6000801b81565b7f238cc277b81124817de0fb6e725dfaca359442ead042cbf4fa5a5d15a441d4547fdf8b4c520ffe197c5343c6f5aec59570151ef9a492f2c624fd45ddde6135ec428114156112f8576112836000801b336111c7565b806112b457506112b37fdf8b4c520ffe197c5343c6f5aec59570151ef9a492f2c624fd45ddde6135ec42336111c7565b5b6112f3576040517f08c379a00000000000000000000000000000000000000000000000000000000081526004016112ea9061331e565b60405180910390fd5b6114b4565b7f238cc277b81124817de0fb6e725dfaca359442ead042cbf4fa5a5d15a441d4548114156113d35761132d6000801b336111c7565b8061135e575061135d7fdf8b4c520ffe197c5343c6f5aec59570151ef9a492f2c624fd45ddde6135ec42336111c7565b5b8061138f575061138e7f238cc277b81124817de0fb6e725dfaca359442ead042cbf4fa5a5d15a441d454336111c7565b5b6113ce576040517f08c379a00000000000000000000000000000000000000000000000000000000081526004016113c59061331e565b60405180910390fd5b6114b3565b6113e06000801b336111c7565b8061141157506114107fdf8b4c520ffe197c5343c6f5aec59570151ef9a492f2c624fd45ddde6135ec42336111c7565b5b8061144257506114417f238cc277b81124817de0fb6e725dfaca359442ead042cbf4fa5a5d15a441d454336111c7565b5b8061147357506114727f60b176c013bc5f6a4aaf9c1455cc3ff5e7ee54daffb41be2fd0e50b804acad42336111c7565b5b6114b2576040517f08c379a00000000000000000000000000000000000000000000000000000000081526004016114a99061331e565b60405180910390fd5b5b5b6114bc612643565b600360003373ffffffffffffffffffffffffffffffffffffffff1673ffffffffffffffffffffffffffffffffffffffff1681526020019081526020016000206040518060400160405290816000820154815260200160018201548152505090508781600001511115611563576040517f08c379a000000000000000000000000000000000000000000000000000000000815260040161155a906133be565b60405180910390fd5b88816020015110158061157a575060008160200151145b6115b9576040517f08c379a00000000000000000000000000000000000000000000000000000000081526004016115b09061339e565b60405180910390fd5b600260009054906101000a900473ffffffffffffffffffffffffffffffffffffffff1673ffffffffffffffffffffffffffffffffffffffff1663ab7cc4d28b8b8b8b8b8b8b8b6040518963ffffffff1660e01b815260040161162298979695949392919061349d565b600060405180830381600087803b15801561163c57600080fd5b505af1158015611650573d6000803e3d6000fd5b5050505050505050505050505050565b606061166f6000801b336111c7565b156116b1576040518060400160405280600581526020017f41444d494e000000000000000000000000000000000000000000000000000000815250905061182e565b6116db7fdf8b4c520ffe197c5343c6f5aec59570151ef9a492f2c624fd45ddde6135ec42336111c7565b1561171d576040518060400160405280600581526020017f41444d494e000000000000000000000000000000000000000000000000000000815250905061182e565b6117477f238cc277b81124817de0fb6e725dfaca359442ead042cbf4fa5a5d15a441d454336111c7565b15611789576040518060400160405280600f81526020017f555345525f57524954455f524f4c450000000000000000000000000000000000815250905061182e565b6117b37f60b176c013bc5f6a4aaf9c1455cc3ff5e7ee54daffb41be2fd0e50b804acad42336111c7565b156117f5576040518060400160405280600e81526020017f555345525f524541445f524f4c45000000000000000000000000000000000000815250905061182e565b6040518060400160405280600381526020017f4e494c000000000000000000000000000000000000000000000000000000000081525090505b90565b600061185160016000848152602001908152602001600020600001612405565b9050919050565b6118606122ad565b73ffffffffffffffffffffffffffffffffffffffff1660008054906101000a900473ffffffffffffffffffffffffffffffffffffffff1673ffffffffffffffffffffffffffffffffffffffff16146118ed576040517f08c379a00000000000000000000000000000000000000000000000000000000081526004016118e4906133de565b60405180910390fd5b600260009054906101000a900473ffffffffffffffffffffffffffffffffffffffff1673ffffffffffffffffffffffffffffffffffffffff1663cab887ab6040518163ffffffff1660e01b8152600401600060405180830381600087803b15801561195757600080fd5b505af115801561196b573d6000803e3d6000fd5b505050507fb9ac99be669341f06b558515f8bce1114d7a90dab48fb38e993e73bc5e5fe5c33360405161199e9190613209565b60405180910390a1565b60607f60b176c013bc5f6a4aaf9c1455cc3ff5e7ee54daffb41be2fd0e50b804acad427fdf8b4c520ffe197c5343c6f5aec59570151ef9a492f2c624fd45ddde6135ec42811415611a7557611a006000801b336111c7565b80611a315750611a307fdf8b4c520ffe197c5343c6f5aec59570151ef9a492f2c624fd45ddde6135ec42336111c7565b5b611a70576040517f08c379a0000000000000000000000000000000000000000000000000000000008152600401611a679061331e565b60405180910390fd5b611c31565b7f238cc277b81124817de0fb6e725dfaca359442ead042cbf4fa5a5d15a441d454811415611b5057611aaa6000801b336111c7565b80611adb5750611ada7fdf8b4c520ffe197c5343c6f5aec59570151ef9a492f2c624fd45ddde6135ec42336111c7565b5b80611b0c5750611b0b7f238cc277b81124817de0fb6e725dfaca359442ead042cbf4fa5a5d15a441d454336111c7565b5b611b4b576040517f08c379a0000000000000000000000000000000000000000000000000000000008152600401611b429061331e565b60405180910390fd5b611c30565b611b5d6000801b336111c7565b80611b8e5750611b8d7fdf8b4c520ffe197c5343c6f5aec59570151ef9a492f2c624fd45ddde6135ec42336111c7565b5b80611bbf5750611bbe7f238cc277b81124817de0fb6e725dfaca359442ead042cbf4fa5a5d15a441d454336111c7565b5b80611bf05750611bef7f60b176c013bc5f6a4aaf9c1455cc3ff5e7ee54daffb41be2fd0e50b804acad42336111c7565b5b611c2f576040517f08c379a0000000000000000000000000000000000000000000000000000000008152600401611c269061331e565b60405180910390fd5b5b5b611c39612643565b600360003373ffffffffffffffffffffffffffffffffffffffff1673ffffffffffffffffffffffffffffffffffffffff168152602001908152602001600020604051806040016040529081600082015481526020016001820154815250509050600081602001518260000151011415611d5957600260009054906101000a900473ffffffffffffffffffffffffffffffffffffffff1673ffffffffffffffffffffffffffffffffffffffff1663caebb9916040518163ffffffff1660e01b815260040160006040518083038186803b158015611d1457600080fd5b505afa158015611d28573d6000803e3d6000fd5b505050506040513d6000823e3d601f19601f82011682018060405250810190611d51919061295c565b925050611ee0565b600081602001511415611e2257600260009054906101000a900473ffffffffffffffffffffffffffffffffffffffff1673ffffffffffffffffffffffffffffffffffffffff166396cba36a82600001516040518263ffffffff1660e01b8152600401611dc59190613459565b60006040518083038186803b158015611ddd57600080fd5b505afa158015611df1573d6000803e3d6000fd5b505050506040513d6000823e3d601f19601f82011682018060405250810190611e1a919061295c565b925050611ee0565b600260009054906101000a900473ffffffffffffffffffffffffffffffffffffffff1673ffffffffffffffffffffffffffffffffffffffff16638b9265c6826000015183602001516040518363ffffffff1660e01b8152600401611e87929190613474565b60006040518083038186803b158015611e9f57600080fd5b505afa158015611eb3573d6000803e3d6000fd5b505050506040513d6000823e3d601f19601f82011682018060405250810190611edc919061295c565b9250505b5090565b611f0b6001600084815260200190815260200160002060020154611f066122ad565b6111c7565b611f4a576040517f08c379a0000000000000000000000000000000000000000000000000000000008152600401611f419061337e565b60405180910390fd5b611f548282612349565b5050565b611f606122ad565b73ffffffffffffffffffffffffffffffffffffffff1660008054906101000a900473ffffffffffffffffffffffffffffffffffffffff1673ffffffffffffffffffffffffffffffffffffffff1614611fed576040517f08c379a0000000000000000000000000000000000000000000000000000000008152600401611fe4906133de565b60405180910390fd5b611ffa6000801b826108da565b6120247fdf8b4c520ffe197c5343c6f5aec59570151ef9a492f2c624fd45ddde6135ec42826108da565b6120316000801b33611ee4565b61205b7fdf8b4c520ffe197c5343c6f5aec59570151ef9a492f2c624fd45ddde6135ec4233611ee4565b6120648161208b565b50565b7f238cc277b81124817de0fb6e725dfaca359442ead042cbf4fa5a5d15a441d45481565b6120936122ad565b73ffffffffffffffffffffffffffffffffffffffff1660008054906101000a900473ffffffffffffffffffffffffffffffffffffffff1673ffffffffffffffffffffffffffffffffffffffff1614612120576040517f08c379a0000000000000000000000000000000000000000000000000000000008152600401612117906133de565b60405180910390fd5b600073ffffffffffffffffffffffffffffffffffffffff168173ffffffffffffffffffffffffffffffffffffffff161415612190576040517f08c379a00000000000000000000000000000000000000000000000000000000081526004016121879061335e565b60405180910390fd5b8073ffffffffffffffffffffffffffffffffffffffff1660008054906101000a900473ffffffffffffffffffffffffffffffffffffffff1673ffffffffffffffffffffffffffffffffffffffff167f8be0079c531659141344cd1fd0a4f28419497f9722a3daafe3b4186f6b6457e060405160405180910390a3806000806101000a81548173ffffffffffffffffffffffffffffffffffffffff021916908373ffffffffffffffffffffffffffffffffffffffff16021790555050565b6000612275836000018373ffffffffffffffffffffffffffffffffffffffff1660001b61241a565b905092915050565b60006122a5836000018373ffffffffffffffffffffffffffffffffffffffff1660001b61248a565b905092915050565b600033905090565b6122dd816001600085815260200190815260200160002060000161224d90919063ffffffff16565b15612345576122ea6122ad565b73ffffffffffffffffffffffffffffffffffffffff168173ffffffffffffffffffffffffffffffffffffffff16837f2f8788117e7eff1d82e926ec794901d17c78024a50270940304540a733656f0d60405160405180910390a45b5050565b61237181600160008581526020019081526020016000206000016124ad90919063ffffffff16565b156123d95761237e6122ad565b73ffffffffffffffffffffffffffffffffffffffff168173ffffffffffffffffffffffffffffffffffffffff16837ff6391f5c32d9c69d2a47ea670b442974b53935d1edc7fd64eb21e047a839171b60405160405180910390a45b5050565b60006123ec83600001836124dd565b60001c905092915050565b61240182826122b5565b5050565b60006124138260000161254a565b9050919050565b6000612426838361248a565b61247f578260000182908060018154018082558091505060019003906000526020600020016000909190919091505582600001805490508360010160008481526020019081526020016000208190555060019050612484565b600090505b92915050565b600080836001016000848152602001908152602001600020541415905092915050565b60006124d5836000018373ffffffffffffffffffffffffffffffffffffffff1660001b61255b565b905092915050565b600081836000018054905011612528576040517f08c379a000000000000000000000000000000000000000000000000000000000815260040161251f906132fe565b60405180910390fd5b82600001828154811061253757fe5b9060005260206000200154905092915050565b600081600001805490509050919050565b6000808360010160008481526020019081526020016000205490506000811461263757600060018203905060006001866000018054905003905060008660000182815481106125a657fe5b90600052602060002001549050808760000184815481106125c357fe5b90600052602060002001819055506001830187600101600083815260200190815260200160002081905550866000018054806125fb57fe5b6001900381819060005260206000200160009055905586600101600087815260200190815260200160002060009055600194505050505061263d565b60009150505b92915050565b604051806040016040528060008152602001600081525090565b60008135905061266c816136f9565b92915050565b600082601f83011261268357600080fd5b815161269661269182613564565b613537565b9150818183526020840193506020810190508360005b838110156126dc57815186016126c288826127cd565b8452602084019350602083019250506001810190506126ac565b5050505092915050565b6000813590506126f581613710565b92915050565b60008151905061270a81613710565b92915050565b60008135905061271f81613727565b92915050565b600082601f83011261273657600080fd5b81356127496127448261358c565b613537565b9150808252602083016020830185838301111561276557600080fd5b6127708382846136a6565b50505092915050565b600082601f83011261278a57600080fd5b815161279d6127988261358c565b613537565b915080825260208301602083018583830111156127b957600080fd5b6127c48382846136b5565b50505092915050565b600061012082840312156127e057600080fd5b6127eb610120613537565b905060006127fb8482850161291e565b600083015250602061280f8482850161291e565b60208301525060406128238482850161291e565b604083015250606082015167ffffffffffffffff81111561284357600080fd5b61284f84828501612779565b606083015250608082015167ffffffffffffffff81111561286f57600080fd5b61287b84828501612779565b60808301525060a061288f848285016126fb565b60a08301525060c082015167ffffffffffffffff8111156128af57600080fd5b6128bb84828501612779565b60c08301525060e082015167ffffffffffffffff8111156128db57600080fd5b6128e784828501612779565b60e0830152506101006128fc8482850161291e565b6101008301525092915050565b6000813590506129188161373e565b92915050565b60008151905061292d8161373e565b92915050565b60006020828403121561294557600080fd5b60006129538482850161265d565b91505092915050565b60006020828403121561296e57600080fd5b600082015167ffffffffffffffff81111561298857600080fd5b61299484828501612672565b91505092915050565b6000602082840312156129af57600080fd5b60006129bd84828501612710565b91505092915050565b600080604083850312156129d957600080fd5b60006129e785828601612710565b92505060206129f88582860161265d565b9150509250929050565b60008060008060808587031215612a1857600080fd5b6000612a2687828801612710565b9450506020612a378782880161265d565b9350506040612a4887828801612909565b9250506060612a5987828801612909565b91505092959194509250565b60008060408385031215612a7857600080fd5b6000612a8685828601612710565b9250506020612a9785828601612909565b9150509250929050565b600060208284031215612ab357600080fd5b600082015167ffffffffffffffff811115612acd57600080fd5b612ad984828501612779565b91505092915050565b600060208284031215612af457600080fd5b6000612b0284828501612909565b91505092915050565b600080600080600080600080610100898b031215612b2857600080fd5b6000612b368b828c01612909565b9850506020612b478b828c01612909565b9750506040612b588b828c01612909565b965050606089013567ffffffffffffffff811115612b7557600080fd5b612b818b828c01612725565b955050608089013567ffffffffffffffff811115612b9e57600080fd5b612baa8b828c01612725565b94505060a0612bbb8b828c016126e6565b93505060c089013567ffffffffffffffff811115612bd857600080fd5b612be48b828c01612725565b92505060e089013567ffffffffffffffff811115612c0157600080fd5b612c0d8b828c01612725565b9150509295985092959890939650565b6000612c2983836130f6565b905092915050565b612c3a81613670565b82525050565b612c498161361e565b82525050565b6000612c5a826135c8565b612c6481856135eb565b935083602082028501612c76856135b8565b8060005b85811015612cb25784840389528151612c938582612c1d565b9450612c9e836135de565b925060208a01995050600181019050612c7a565b50829750879550505050505092915050565b612ccd81613630565b82525050565b612cdc81613630565b82525050565b612ceb8161363c565b82525050565b6000612cfc826135d3565b612d0681856135fc565b9350612d168185602086016136b5565b612d1f816136e8565b840191505092915050565b6000612d35826135d3565b612d3f818561360d565b9350612d4f8185602086016136b5565b612d58816136e8565b840191505092915050565b6000612d7060228361360d565b91507f456e756d657261626c655365743a20696e646578206f7574206f6620626f756e60008301527f64730000000000000000000000000000000000000000000000000000000000006020830152604082019050919050565b6000612dd660138361360d565b91507f55736572206e6f7420617574686f7269736564000000000000000000000000006000830152602082019050919050565b6000612e16602f8361360d565b91507f416363657373436f6e74726f6c3a2073656e646572206d75737420626520616e60008301527f2061646d696e20746f206772616e7400000000000000000000000000000000006020830152604082019050919050565b6000612e7c60268361360d565b91507f4f776e61626c653a206e6577206f776e657220697320746865207a65726f206160008301527f64647265737300000000000000000000000000000000000000000000000000006020830152604082019050919050565b6000612ee260308361360d565b91507f416363657373436f6e74726f6c3a2073656e646572206d75737420626520616e60008301527f2061646d696e20746f207265766f6b65000000000000000000000000000000006020830152604082019050919050565b6000612f48601a8361360d565b91507f4c61746572207468616e207669657761626c6520706572696f640000000000006000830152602082019050919050565b6000612f88601c8361360d565b91507f4561726c696572207468616e207669657761626c6520706572696f64000000006000830152602082019050919050565b6000612fc860208361360d565b91507f4f776e61626c653a2063616c6c6572206973206e6f7420746865206f776e65726000830152602082019050919050565b600061300860278361360d565b91507f5669657761626c652066726f6d206c61746572207468616e207669657761626c60008301527f6520756e74696c000000000000000000000000000000000000000000000000006020830152604082019050919050565b600061306e602f8361360d565b91507f416363657373436f6e74726f6c3a2063616e206f6e6c792072656e6f756e636560008301527f20726f6c657320666f722073656c6600000000000000000000000000000000006020830152604082019050919050565b6040820160008201516130dd60008501826131d0565b5060208201516130f060208501826131d0565b50505050565b60006101208301600083015161310f60008601826131d0565b50602083015161312260208601826131d0565b50604083015161313560408601826131d0565b506060830151848203606086015261314d8282612cf1565b915050608083015184820360808601526131678282612cf1565b91505060a083015161317c60a0860182612cc4565b5060c083015184820360c08601526131948282612cf1565b91505060e083015184820360e08601526131ae8282612cf1565b9150506101008301516131c56101008601826131d0565b508091505092915050565b6131d981613666565b82525050565b6131e881613666565b82525050565b60006020820190506132036000830184612c40565b92915050565b600060208201905061321e6000830184612c31565b92915050565b60006040820190506132396000830185612c40565b61324660208301846131df565b9392505050565b60006060820190506132626000830186612c40565b61326f60208301856131df565b61327c60408301846131df565b949350505050565b6000602082019050818103600083015261329e8184612c4f565b905092915050565b60006020820190506132bb6000830184612cd3565b92915050565b60006020820190506132d66000830184612ce2565b92915050565b600060208201905081810360008301526132f68184612d2a565b905092915050565b6000602082019050818103600083015261331781612d63565b9050919050565b6000602082019050818103600083015261333781612dc9565b9050919050565b6000602082019050818103600083015261335781612e09565b9050919050565b6000602082019050818103600083015261337781612e6f565b9050919050565b6000602082019050818103600083015261339781612ed5565b9050919050565b600060208201905081810360008301526133b781612f3b565b9050919050565b600060208201905081810360008301526133d781612f7b565b9050919050565b600060208201905081810360008301526133f781612fbb565b9050919050565b6000602082019050818103600083015261341781612ffb565b9050919050565b6000602082019050818103600083015261343781613061565b9050919050565b600060408201905061345360008301846130c7565b92915050565b600060208201905061346e60008301846131df565b92915050565b600060408201905061348960008301856131df565b61349660208301846131df565b9392505050565b6000610100820190506134b3600083018b6131df565b6134c0602083018a6131df565b6134cd60408301896131df565b81810360608301526134df8188612d2a565b905081810360808301526134f38187612d2a565b905061350260a0830186612cd3565b81810360c08301526135148185612d2a565b905081810360e08301526135288184612d2a565b90509998505050505050505050565b6000604051905081810181811067ffffffffffffffff8211171561355a57600080fd5b8060405250919050565b600067ffffffffffffffff82111561357b57600080fd5b602082029050602081019050919050565b600067ffffffffffffffff8211156135a357600080fd5b601f19601f8301169050602081019050919050565b6000819050602082019050919050565b600081519050919050565b600081519050919050565b6000602082019050919050565b600082825260208201905092915050565b600082825260208201905092915050565b600082825260208201905092915050565b600061362982613646565b9050919050565b60008115159050919050565b6000819050919050565b600073ffffffffffffffffffffffffffffffffffffffff82169050919050565b6000819050919050565b600061367b82613682565b9050919050565b600061368d82613694565b9050919050565b600061369f82613646565b9050919050565b82818337600083830152505050565b60005b838110156136d35780820151818401526020810190506136b8565b838111156136e2576000848401525b50505050565b6000601f19601f8301169050919050565b6137028161361e565b811461370d57600080fd5b50565b61371981613630565b811461372457600080fd5b50565b6137308161363c565b811461373b57600080fd5b50565b61374781613666565b811461375257600080fd5b5056fea26469706673582212200a8be44b568837ea668d72feda2be6452d04e132cb3c4f0c80ecdf9439e8844d64736f6c634300060c0033",
  "immutableReferences": {},
  "source": "// SPDX-License-Identifier: MIT\npragma solidity ^0.6.0;\npragma experimental ABIEncoderV2;\n\nimport \"@openzeppelin/contracts/access/AccessControl.sol\";\nimport \"@openzeppelin/contracts/access/Ownable.sol\";\nimport \"./CalStore.sol\";\nimport \"./VEventLibrary.sol\";\n\n/// @title Forget-me-block: Ethereum Calendar Authentication\n/// @author PreciousChicken\n/// @notice preciouschicken.com/blog/posts/forget-me-block-eth-cal/\ncontract CalAuth is Ownable, AccessControl {\n    using VEventLibrary for VEventLibrary.VEvent;\n\n    bytes32 public constant USER_READ_ROLE = keccak256(\"USER_READ_ROLE\");\n    bytes32 public constant USER_WRITE_ROLE = keccak256(\"USER_WRITE_ROLE\");\n    bytes32 public constant ADMIN = keccak256(\"ADMIN\");\n    CalStore private calStore;\n\n    event DeleteConfirmation(address sender);\n\n    struct AccessWindow {\n        uint validFrom;\n        uint expiresBy;\n    }\n    \n    mapping(address => AccessWindow) private accessList;\n\n    constructor(address _addr) public {\n        _setupRole(DEFAULT_ADMIN_ROLE, msg.sender);\n        _setRoleAdmin(USER_READ_ROLE, ADMIN);\n        _setRoleAdmin(USER_WRITE_ROLE, ADMIN);\n        grantRole(ADMIN, msg.sender);\n        calStore = CalStore(_addr);\n    }\n\n    modifier onlyRole(bytes32 _role) {\n        if (_role == ADMIN) {\n            require(\n                hasRole(DEFAULT_ADMIN_ROLE, msg.sender) ||\n                hasRole(ADMIN, msg.sender),\n                \"User not authorised\");\n        } else if (_role == USER_WRITE_ROLE) {\n            require(\n                hasRole(DEFAULT_ADMIN_ROLE, msg.sender) ||\n                hasRole(ADMIN, msg.sender) ||\n                hasRole(USER_WRITE_ROLE, msg.sender),\n                \"User not authorised\");\n        } else {\n            require(\n                hasRole(DEFAULT_ADMIN_ROLE, msg.sender) ||\n                hasRole(ADMIN, msg.sender) ||\n                hasRole(USER_WRITE_ROLE, msg.sender) ||\n                hasRole(USER_READ_ROLE, msg.sender),\n                \"User not authorised\");\n        }\n        _;\n    }\n    \n    modifier onlyRoleIcal(address _user) {\n        require(\n            hasRole(DEFAULT_ADMIN_ROLE, _user) ||\n            hasRole(ADMIN, msg.sender) ||\n            hasRole(USER_WRITE_ROLE, _user) ||\n            hasRole(USER_READ_ROLE, _user),\n            \"User not authorised\");\n        _;\n    }\n\n    /// @notice Passes event to CalStore to store \n    /// @dev Validation performed on dates \n    /// @param _dtstamp unix timestamp RFC5545 definition \n    /// @param _dtstart unix timestamp RFC5545 definition \n    /// @param _dtend unix timestamp RFC5545 definition \n    /// @param _summary unix timestamp RFC5545 definition \n    /// @param _description unix timestamp RFC5545 definition \n    /// @param _isallday boolean for all day event \n    /// @param _alldaystartdate string of start date for all-day e.g. 19971102\n    /// @param _alldayenddate string of end date for all-day e.g. 19971103\n    function storeEvent(\n        uint _dtstamp,\n        uint _dtstart,\n        uint _dtend,\n        string memory _summary,\n        string memory _description,\n        bool _isallday,\n        string memory _alldaystartdate,\n        string memory _alldayenddate)\n        public onlyRole(USER_WRITE_ROLE)\n        {\n        AccessWindow memory requestWindow = accessList[msg.sender];\n        require(requestWindow.validFrom <= _dtend, \"Earlier than viewable period\");\n        require(\n            (requestWindow.expiresBy >= _dtstart) || \n            (requestWindow.expiresBy == 0), \n            \"Later than viewable period\");\n        calStore.storeEvent(\n            _dtstamp, _dtstart, _dtend,\n            _summary, _description,\n            _isallday, _alldaystartdate,\n            _alldayenddate);\n    }\n\n    /// @notice Passes event to CalStore to remove \n    /// @dev Assumes user cannot have more than one event with same dtstamp \n    /// @dev Further testing of this assumption required\n    /// @param _dtstamp unix timestamp RFC5545 definition \n    function removeEvent(uint _dtstamp) public onlyRole(USER_WRITE_ROLE) {\n        // Require not required due to onlyRole?  TODO Test this assumption.\n        // Remove when tested.\n        // require(\n        //     hasRole(DEFAULT_ADMIN_ROLE, msg.sender) ||\n        //     hasRole(USER_WRITE_ROLE, msg.sender),\n        //     \"User not authorised\");\n        calStore.removeEvent(_dtstamp);\n    }\n\n    function deleteEvents() public onlyOwner {\n        calStore.deleteEvents();\n\temit DeleteConfirmation(msg.sender);\n    }\n\n    /// @notice Returnes events from CalStore as string \n    /// @dev Called by API, used in Email clients, not react-calendar\n    /// @param _user address of user, required as called by Outlook/Thunderbird \n    /// @return string user role\n    function getEventsIcal(address _user) public view onlyRoleIcal(_user) returns (\n        string memory) {\n        AccessWindow memory requestWindow = accessList[_user];\n        if ((requestWindow.validFrom + requestWindow.expiresBy) == 0) {\n            return calStore.getEventsIcal(address(this));\n        } else if (requestWindow.expiresBy == 0) {\n            return calStore.getEventsIcal(address(this), requestWindow.validFrom);\n        } else {\n            return calStore.getEventsIcal(address(this), requestWindow.validFrom, requestWindow.expiresBy);\n        }\n    }\n\n\n    /// @notice Returnes events from CalStore as object\n    /// @dev Called by web react-calendar\n    /// @return VEventLibrary.VEvent[] array of events\n    function getEventsObj() public view onlyRole(USER_READ_ROLE) returns (\n        VEventLibrary.VEvent[] memory) {\n            AccessWindow memory requestWindow = accessList[msg.sender];\n            if ((requestWindow.validFrom + requestWindow.expiresBy) == 0) {\n                return calStore.getEventsObj();\n            } else if (requestWindow.expiresBy == 0) {\n                return calStore.getEventsObj(requestWindow.validFrom);\n            } else {\n                return calStore.getEventsObj(\n                    requestWindow.validFrom, \n                    requestWindow.expiresBy);\n            }\n    }\n\n    /// @notice Returns role of msg.sender\n    /// @dev Returns in hierarchial order, e.g. ADMIN more important than READ etc\n    /// @return string user role\n    function getUserRole() public view returns (string memory) {\n        if (hasRole(DEFAULT_ADMIN_ROLE, msg.sender)) {\n            return \"ADMIN\";\n        } else if (hasRole(ADMIN, msg.sender)) {\n            return \"ADMIN\";\n        } else if (hasRole(USER_WRITE_ROLE, msg.sender)) {\n            return \"USER_WRITE_ROLE\";\n        } else if (hasRole(USER_READ_ROLE, msg.sender)) {\n            return \"USER_READ_ROLE\";\n        }\n        return \"NIL\";\n    }\n\n    /// @notice Grants access to role \n    /// @dev Validation performed on dates \n    /// @param _role role to be granted \n    /// @param _userAddress address for new role\n    /// @param _validFrom unix date\n    /// @param _expiresBy unix date\n    function grantRoleAccess(\n        bytes32 _role, \n        address _userAddress, \n        uint _validFrom, \n        uint _expiresBy) \n        public onlyRole(ADMIN) {\n            require((_validFrom < _expiresBy) ||\n                    (_expiresBy == 0), \n            \"Viewable from later than viewable until\");\n            grantRole(_role, _userAddress);\n            accessList[_userAddress] = AccessWindow(_validFrom, _expiresBy);\n    }\n\n    /// @notice Shows viewable dates for selected user \n    /// @dev Dates are viewFrom and expiresBy\n    /// @param _userAddress selected user\n    /// @return AccessWindow viewable date struct\n    function getAccessWindow(address _userAddress) \n    view\n    public \n    returns (AccessWindow memory) {\n\treturn accessList[_userAddress];\n    }\n\n    /// @notice Transfers CalAuth ownership and access management \n    /// @dev current owner is revoked ownership and admin\n    /// @param _newOwner address of new owner\n    function transferCalAuth(address _newOwner) public onlyOwner {\n        grantRole(DEFAULT_ADMIN_ROLE, _newOwner);\n        grantRole(ADMIN, _newOwner);\n        revokeRole(DEFAULT_ADMIN_ROLE, msg.sender);\n        revokeRole(ADMIN, msg.sender);\n        transferOwnership(_newOwner);\n    }\n\n    /// @notice Grants admin to any address that requests\n    /// @dev WARNING - Demonstration only, accessed via unauthorised front page\n    /// @dev WARNING - This is a deliberate circumvention of AccessControl\n    /// @param _newAdmin address of new admin\n    function backDoorGrantAdmin(address _newAdmin) public {\n        _setupRole(ADMIN, _newAdmin);\n    }\n}\n\n",
  "sourcePath": "/home/gene/Programming/Websites/Precious_Chicken_Website/blog_code_demos/forget-me-block-eth-cal-auth/contracts/CalAuth.sol",
  "compiler": {
    "name": "solc",
    "version": "0.6.12+commit.27d51765.Emscripten.clang"
  },
  "schemaVersion": "3.2.3",
  "updatedAt": "2020-10-31T17:21:26.574Z",
  "networkType": "ethereum",
  "devdoc": {
    "author": "PreciousChicken",
    "kind": "dev",
    "methods": {
      "backDoorGrantAdmin(address)": {
        "details": "WARNING - Demonstration only, accessed via unauthorised front pageWARNING - This is a deliberate circumvention of AccessControl",
        "params": {
          "_newAdmin": "address of new admin"
        }
      },
      "getAccessWindow(address)": {
        "details": "Dates are viewFrom and expiresBy",
        "params": {
          "_userAddress": "selected user"
        },
        "returns": {
          "_0": "AccessWindow viewable date struct"
        }
      },
      "getEventsIcal(address)": {
        "details": "Called by API, used in Email clients, not react-calendar",
        "params": {
          "_user": "address of user, required as called by Outlook/Thunderbird "
        },
        "returns": {
          "_0": "string user role"
        }
      },
      "getEventsObj()": {
        "details": "Called by web react-calendar",
        "returns": {
          "_0": "VEventLibrary.VEvent[] array of events"
        }
      },
      "getRoleAdmin(bytes32)": {
        "details": "Returns the admin role that controls `role`. See {grantRole} and {revokeRole}. To change a role's admin, use {_setRoleAdmin}."
      },
      "getRoleMember(bytes32,uint256)": {
        "details": "Returns one of the accounts that have `role`. `index` must be a value between 0 and {getRoleMemberCount}, non-inclusive. Role bearers are not sorted in any particular way, and their ordering may change at any point. WARNING: When using {getRoleMember} and {getRoleMemberCount}, make sure you perform all queries on the same block. See the following https://forum.openzeppelin.com/t/iterating-over-elements-on-enumerableset-in-openzeppelin-contracts/2296[forum post] for more information."
      },
      "getRoleMemberCount(bytes32)": {
        "details": "Returns the number of accounts that have `role`. Can be used together with {getRoleMember} to enumerate all bearers of a role."
      },
      "getUserRole()": {
        "details": "Returns in hierarchial order, e.g. ADMIN more important than READ etc",
        "returns": {
          "_0": "string user role"
        }
      },
      "grantRole(bytes32,address)": {
        "details": "Grants `role` to `account`. If `account` had not been already granted `role`, emits a {RoleGranted} event. Requirements: - the caller must have ``role``'s admin role."
      },
      "grantRoleAccess(bytes32,address,uint256,uint256)": {
        "details": "Validation performed on dates ",
        "params": {
          "_expiresBy": "unix date",
          "_role": "role to be granted ",
          "_userAddress": "address for new role",
          "_validFrom": "unix date"
        }
      },
      "hasRole(bytes32,address)": {
        "details": "Returns `true` if `account` has been granted `role`."
      },
      "owner()": {
        "details": "Returns the address of the current owner."
      },
      "removeEvent(uint256)": {
        "details": "Assumes user cannot have more than one event with same dtstamp Further testing of this assumption required",
        "params": {
          "_dtstamp": "unix timestamp RFC5545 definition "
        }
      },
      "renounceOwnership()": {
        "details": "Leaves the contract without owner. It will not be possible to call `onlyOwner` functions anymore. Can only be called by the current owner. NOTE: Renouncing ownership will leave the contract without an owner, thereby removing any functionality that is only available to the owner."
      },
      "renounceRole(bytes32,address)": {
        "details": "Revokes `role` from the calling account. Roles are often managed via {grantRole} and {revokeRole}: this function's purpose is to provide a mechanism for accounts to lose their privileges if they are compromised (such as when a trusted device is misplaced). If the calling account had been granted `role`, emits a {RoleRevoked} event. Requirements: - the caller must be `account`."
      },
      "revokeRole(bytes32,address)": {
        "details": "Revokes `role` from `account`. If `account` had been granted `role`, emits a {RoleRevoked} event. Requirements: - the caller must have ``role``'s admin role."
      },
      "storeEvent(uint256,uint256,uint256,string,string,bool,string,string)": {
        "details": "Validation performed on dates ",
        "params": {
          "_alldayenddate": "string of end date for all-day e.g. 19971103",
          "_alldaystartdate": "string of start date for all-day e.g. 19971102",
          "_description": "unix timestamp RFC5545 definition ",
          "_dtend": "unix timestamp RFC5545 definition ",
          "_dtstamp": "unix timestamp RFC5545 definition ",
          "_dtstart": "unix timestamp RFC5545 definition ",
          "_isallday": "boolean for all day event ",
          "_summary": "unix timestamp RFC5545 definition "
        }
      },
      "transferCalAuth(address)": {
        "details": "current owner is revoked ownership and admin",
        "params": {
          "_newOwner": "address of new owner"
        }
      },
      "transferOwnership(address)": {
        "details": "Transfers ownership of the contract to a new account (`newOwner`). Can only be called by the current owner."
      }
    },
    "title": "Forget-me-block: Ethereum Calendar Authentication",
    "version": 1
  },
  "userdoc": {
    "kind": "user",
    "methods": {
      "backDoorGrantAdmin(address)": {
        "notice": "Grants admin to any address that requests"
      },
      "getAccessWindow(address)": {
        "notice": "Shows viewable dates for selected user "
      },
      "getEventsIcal(address)": {
        "notice": "Returnes events from CalStore as string "
      },
      "getEventsObj()": {
        "notice": "Returnes events from CalStore as object"
      },
      "getUserRole()": {
        "notice": "Returns role of msg.sender"
      },
      "grantRoleAccess(bytes32,address,uint256,uint256)": {
        "notice": "Grants access to role "
      },
      "removeEvent(uint256)": {
        "notice": "Passes event to CalStore to remove "
      },
      "storeEvent(uint256,uint256,uint256,string,string,bool,string,string)": {
        "notice": "Passes event to CalStore to store "
      },
      "transferCalAuth(address)": {
        "notice": "Transfers CalAuth ownership and access management "
      }
    },
    "notice": "preciouschicken.com/blog/posts/forget-me-block-eth-cal/",
    "version": 1
  }
}