{
  "contractName": "CalAuth",
  "abi": [
    {
      "inputs": [
        {
          "internalType": "address",
          "name": "_addr",
          "type": "address"
        }
      ],
      "stateMutability": "nonpayable",
      "type": "constructor"
    },
    {
      "anonymous": false,
      "inputs": [
        {
          "indexed": true,
          "internalType": "address",
          "name": "previousOwner",
          "type": "address"
        },
        {
          "indexed": true,
          "internalType": "address",
          "name": "newOwner",
          "type": "address"
        }
      ],
      "name": "OwnershipTransferred",
      "type": "event"
    },
    {
      "anonymous": false,
      "inputs": [
        {
          "indexed": true,
          "internalType": "bytes32",
          "name": "role",
          "type": "bytes32"
        },
        {
          "indexed": true,
          "internalType": "bytes32",
          "name": "previousAdminRole",
          "type": "bytes32"
        },
        {
          "indexed": true,
          "internalType": "bytes32",
          "name": "newAdminRole",
          "type": "bytes32"
        }
      ],
      "name": "RoleAdminChanged",
      "type": "event"
    },
    {
      "anonymous": false,
      "inputs": [
        {
          "indexed": true,
          "internalType": "bytes32",
          "name": "role",
          "type": "bytes32"
        },
        {
          "indexed": true,
          "internalType": "address",
          "name": "account",
          "type": "address"
        },
        {
          "indexed": true,
          "internalType": "address",
          "name": "sender",
          "type": "address"
        }
      ],
      "name": "RoleGranted",
      "type": "event"
    },
    {
      "anonymous": false,
      "inputs": [
        {
          "indexed": true,
          "internalType": "bytes32",
          "name": "role",
          "type": "bytes32"
        },
        {
          "indexed": true,
          "internalType": "address",
          "name": "account",
          "type": "address"
        },
        {
          "indexed": true,
          "internalType": "address",
          "name": "sender",
          "type": "address"
        }
      ],
      "name": "RoleRevoked",
      "type": "event"
    },
    {
      "inputs": [],
      "name": "ADMIN",
      "outputs": [
        {
          "internalType": "bytes32",
          "name": "",
          "type": "bytes32"
        }
      ],
      "stateMutability": "view",
      "type": "function",
      "constant": true
    },
    {
      "inputs": [],
      "name": "DEFAULT_ADMIN_ROLE",
      "outputs": [
        {
          "internalType": "bytes32",
          "name": "",
          "type": "bytes32"
        }
      ],
      "stateMutability": "view",
      "type": "function",
      "constant": true
    },
    {
      "inputs": [],
      "name": "USER_READ_ROLE",
      "outputs": [
        {
          "internalType": "bytes32",
          "name": "",
          "type": "bytes32"
        }
      ],
      "stateMutability": "view",
      "type": "function",
      "constant": true
    },
    {
      "inputs": [],
      "name": "USER_WRITE_ROLE",
      "outputs": [
        {
          "internalType": "bytes32",
          "name": "",
          "type": "bytes32"
        }
      ],
      "stateMutability": "view",
      "type": "function",
      "constant": true
    },
    {
      "inputs": [
        {
          "internalType": "bytes32",
          "name": "role",
          "type": "bytes32"
        }
      ],
      "name": "getRoleAdmin",
      "outputs": [
        {
          "internalType": "bytes32",
          "name": "",
          "type": "bytes32"
        }
      ],
      "stateMutability": "view",
      "type": "function",
      "constant": true
    },
    {
      "inputs": [
        {
          "internalType": "bytes32",
          "name": "role",
          "type": "bytes32"
        },
        {
          "internalType": "uint256",
          "name": "index",
          "type": "uint256"
        }
      ],
      "name": "getRoleMember",
      "outputs": [
        {
          "internalType": "address",
          "name": "",
          "type": "address"
        }
      ],
      "stateMutability": "view",
      "type": "function",
      "constant": true
    },
    {
      "inputs": [
        {
          "internalType": "bytes32",
          "name": "role",
          "type": "bytes32"
        }
      ],
      "name": "getRoleMemberCount",
      "outputs": [
        {
          "internalType": "uint256",
          "name": "",
          "type": "uint256"
        }
      ],
      "stateMutability": "view",
      "type": "function",
      "constant": true
    },
    {
      "inputs": [
        {
          "internalType": "bytes32",
          "name": "role",
          "type": "bytes32"
        },
        {
          "internalType": "address",
          "name": "account",
          "type": "address"
        }
      ],
      "name": "grantRole",
      "outputs": [],
      "stateMutability": "nonpayable",
      "type": "function"
    },
    {
      "inputs": [
        {
          "internalType": "bytes32",
          "name": "role",
          "type": "bytes32"
        },
        {
          "internalType": "address",
          "name": "account",
          "type": "address"
        }
      ],
      "name": "hasRole",
      "outputs": [
        {
          "internalType": "bool",
          "name": "",
          "type": "bool"
        }
      ],
      "stateMutability": "view",
      "type": "function",
      "constant": true
    },
    {
      "inputs": [],
      "name": "owner",
      "outputs": [
        {
          "internalType": "address",
          "name": "",
          "type": "address"
        }
      ],
      "stateMutability": "view",
      "type": "function",
      "constant": true
    },
    {
      "inputs": [],
      "name": "renounceOwnership",
      "outputs": [],
      "stateMutability": "nonpayable",
      "type": "function"
    },
    {
      "inputs": [
        {
          "internalType": "bytes32",
          "name": "role",
          "type": "bytes32"
        },
        {
          "internalType": "address",
          "name": "account",
          "type": "address"
        }
      ],
      "name": "renounceRole",
      "outputs": [],
      "stateMutability": "nonpayable",
      "type": "function"
    },
    {
      "inputs": [
        {
          "internalType": "bytes32",
          "name": "role",
          "type": "bytes32"
        },
        {
          "internalType": "address",
          "name": "account",
          "type": "address"
        }
      ],
      "name": "revokeRole",
      "outputs": [],
      "stateMutability": "nonpayable",
      "type": "function"
    },
    {
      "inputs": [
        {
          "internalType": "address",
          "name": "newOwner",
          "type": "address"
        }
      ],
      "name": "transferOwnership",
      "outputs": [],
      "stateMutability": "nonpayable",
      "type": "function"
    },
    {
      "inputs": [
        {
          "internalType": "uint256",
          "name": "_dtstamp",
          "type": "uint256"
        },
        {
          "internalType": "uint256",
          "name": "_dtstart",
          "type": "uint256"
        },
        {
          "internalType": "uint256",
          "name": "_dtend",
          "type": "uint256"
        },
        {
          "internalType": "string",
          "name": "_summary",
          "type": "string"
        },
        {
          "internalType": "string",
          "name": "_description",
          "type": "string"
        },
        {
          "internalType": "bool",
          "name": "_isallday",
          "type": "bool"
        },
        {
          "internalType": "string",
          "name": "_alldaystartdate",
          "type": "string"
        },
        {
          "internalType": "string",
          "name": "_alldayenddate",
          "type": "string"
        }
      ],
      "name": "storeEvent",
      "outputs": [],
      "stateMutability": "nonpayable",
      "type": "function"
    },
    {
      "inputs": [
        {
          "internalType": "uint256",
          "name": "_dtstamp",
          "type": "uint256"
        }
      ],
      "name": "removeEvent",
      "outputs": [],
      "stateMutability": "nonpayable",
      "type": "function"
    },
    {
      "inputs": [
        {
          "internalType": "address",
          "name": "_user",
          "type": "address"
        }
      ],
      "name": "getEventsIcal",
      "outputs": [
        {
          "internalType": "string",
          "name": "",
          "type": "string"
        }
      ],
      "stateMutability": "view",
      "type": "function",
      "constant": true
    },
    {
      "inputs": [],
      "name": "getEventsObj",
      "outputs": [
        {
          "components": [
            {
              "internalType": "uint256",
              "name": "dtstamp",
              "type": "uint256"
            },
            {
              "internalType": "uint256",
              "name": "dtstart",
              "type": "uint256"
            },
            {
              "internalType": "uint256",
              "name": "dtend",
              "type": "uint256"
            },
            {
              "internalType": "string",
              "name": "summary",
              "type": "string"
            },
            {
              "internalType": "string",
              "name": "description",
              "type": "string"
            },
            {
              "internalType": "bool",
              "name": "isallday",
              "type": "bool"
            },
            {
              "internalType": "string",
              "name": "alldaystartdate",
              "type": "string"
            },
            {
              "internalType": "string",
              "name": "alldayenddate",
              "type": "string"
            },
            {
              "internalType": "uint256",
              "name": "uid",
              "type": "uint256"
            }
          ],
          "internalType": "struct VEventLibrary.VEvent[]",
          "name": "",
          "type": "tuple[]"
        }
      ],
      "stateMutability": "view",
      "type": "function",
      "constant": true
    },
    {
      "inputs": [],
      "name": "getUserRole",
      "outputs": [
        {
          "internalType": "string",
          "name": "",
          "type": "string"
        }
      ],
      "stateMutability": "view",
      "type": "function",
      "constant": true
    },
    {
      "inputs": [
        {
          "internalType": "bytes32",
          "name": "_role",
          "type": "bytes32"
        },
        {
          "internalType": "address",
          "name": "_userAddress",
          "type": "address"
        },
        {
          "internalType": "uint256",
          "name": "_validFrom",
          "type": "uint256"
        },
        {
          "internalType": "uint256",
          "name": "_expiresBy",
          "type": "uint256"
        }
      ],
      "name": "grantRoleAccess",
      "outputs": [],
      "stateMutability": "nonpayable",
      "type": "function"
    },
    {
      "inputs": [
        {
          "internalType": "address",
          "name": "_userAddress",
          "type": "address"
        }
      ],
      "name": "getAccessWindow",
      "outputs": [
        {
          "components": [
            {
              "internalType": "uint256",
              "name": "validFrom",
              "type": "uint256"
            },
            {
              "internalType": "uint256",
              "name": "expiresBy",
              "type": "uint256"
            }
          ],
          "internalType": "struct CalAuth.AccessWindow",
          "name": "",
          "type": "tuple"
        }
      ],
      "stateMutability": "view",
      "type": "function",
      "constant": true
    },
    {
      "inputs": [
        {
          "internalType": "address",
          "name": "userAddress",
          "type": "address"
        }
      ],
      "name": "revokeRead",
      "outputs": [],
      "stateMutability": "nonpayable",
      "type": "function"
    },
    {
      "inputs": [
        {
          "internalType": "address",
          "name": "userAddress",
          "type": "address"
        }
      ],
      "name": "revokeWrite",
      "outputs": [],
      "stateMutability": "nonpayable",
      "type": "function"
    },
    {
      "inputs": [],
      "name": "authHi",
      "outputs": [
        {
          "internalType": "string",
          "name": "",
          "type": "string"
        }
      ],
      "stateMutability": "pure",
      "type": "function",
      "constant": true
    }
  ],
  "bytecode": "0x60806040523480156200001157600080fd5b50604051620034f8380380620034f88339818101604052810190620000379190620002f2565b6000620000496200014460201b60201c565b9050806000806101000a81548173ffffffffffffffffffffffffffffffffffffffff021916908373ffffffffffffffffffffffffffffffffffffffff1602179055508073ffffffffffffffffffffffffffffffffffffffff16600073ffffffffffffffffffffffffffffffffffffffff167f8be0079c531659141344cd1fd0a4f28419497f9722a3daafe3b4186f6b6457e060405160405180910390a350620000fc6000801b336200014c60201b60201c565b80600260006101000a81548173ffffffffffffffffffffffffffffffffffffffff021916908373ffffffffffffffffffffffffffffffffffffffff160217905550506200036c565b600033905090565b6200015e82826200016260201b60201c565b5050565b6200019181600160008581526020019081526020016000206000016200020660201b62001cac1790919060201c565b156200020257620001a76200014460201b60201c565b73ffffffffffffffffffffffffffffffffffffffff168173ffffffffffffffffffffffffffffffffffffffff16837f2f8788117e7eff1d82e926ec794901d17c78024a50270940304540a733656f0d60405160405180910390a45b5050565b600062000236836000018373ffffffffffffffffffffffffffffffffffffffff1660001b6200023e60201b60201c565b905092915050565b6000620002528383620002b860201b60201c565b620002ad578260000182908060018154018082558091505060019003906000526020600020016000909190919091505582600001805490508360010160008481526020019081526020016000208190555060019050620002b2565b600090505b92915050565b600080836001016000848152602001908152602001600020541415905092915050565b600081519050620002ec8162000352565b92915050565b6000602082840312156200030557600080fd5b60006200031584828501620002db565b91505092915050565b60006200032b8262000332565b9050919050565b600073ffffffffffffffffffffffffffffffffffffffff82169050919050565b6200035d816200031e565b81146200036957600080fd5b50565b61317c806200037c6000396000f3fe608060405234801561001057600080fd5b50600436106101585760003560e01c80638da5cb5b116100c3578063bf04a10d1161007c578063bf04a10d146103b1578063ca15c873146103cf578063caebb991146103ff578063d547741f1461041d578063ee1bf5db14610439578063f2fde38b1461045757610158565b80638da5cb5b146102db5780639010d07c146102f957806391d1485414610329578063a217fddf14610359578063ab7cc4d214610377578063aef956e91461039357610158565b80632f2ff15d116101155780632f2ff15d1461024557806336568abe1461026157806356164e1e1461027d5780635de45c1f14610299578063607360d3146102b5578063715018a6146102d157610158565b806310d00a671461015d5780631f79ec091461018d57806321ee4bca146101a9578063248a9ca3146101d9578063283e8442146102095780632a0acc6a14610227575b600080fd5b61017760048036038101906101729190612384565b610473565b6040516101849190612d03565b60405180910390f35b6101a760048036038101906101a29190612384565b6107e8565b005b6101c360048036038101906101be9190612384565b6108aa565b6040516101d09190612e65565b60405180910390f35b6101f360048036038101906101ee91906123ee565b610917565b6040516102009190612ce8565b60405180910390f35b610211610937565b60405161021e9190612ce8565b60405180910390f35b61022f61095b565b60405161023c9190612ce8565b60405180910390f35b61025f600480360381019061025a9190612417565b61097f565b005b61027b60048036038101906102769190612417565b6109f3565b005b61029760048036038101906102929190612533565b610a76565b005b6102b360048036038101906102ae9190612453565b610cde565b005b6102cf60048036038101906102ca9190612384565b610e3d565b005b6102d9610eff565b005b6102e3611052565b6040516102f09190612c30565b60405180910390f35b610313600480360381019061030e91906124b6565b61107b565b6040516103209190612c30565b60405180910390f35b610343600480360381019061033e9190612417565b6110ad565b6040516103509190612ccd565b60405180910390f35b6103616110df565b60405161036e9190612ce8565b60405180910390f35b610391600480360381019061038c919061255c565b6110e6565b005b61039b6113ee565b6040516103a89190612d03565b60405180910390f35b6103b961142b565b6040516103c69190612d03565b60405180910390f35b6103e960048036038101906103e491906123ee565b6115fc565b6040516103f69190612e80565b60405180910390f35b610407611623565b6040516104149190612cab565b60405180910390f35b61043760048036038101906104329190612417565b611a52565b005b610441611ac6565b60405161044e9190612ce8565b60405180910390f35b610471600480360381019061046c9190612384565b611aea565b005b6060816104836000801b826110ad565b806104b457506104b37f238cc277b81124817de0fb6e725dfaca359442ead042cbf4fa5a5d15a441d454826110ad565b5b806104e557506104e47f60b176c013bc5f6a4aaf9c1455cc3ff5e7ee54daffb41be2fd0e50b804acad42826110ad565b5b610524576040517f08c379a000000000000000000000000000000000000000000000000000000000815260040161051b90612d45565b60405180910390fd5b61052c612094565b600360008573ffffffffffffffffffffffffffffffffffffffff1673ffffffffffffffffffffffffffffffffffffffff16815260200190815260200160002060405180604001604052908160008201548152602001600182015481525050905060008160200151826000015101141561065757600260009054906101000a900473ffffffffffffffffffffffffffffffffffffffff1673ffffffffffffffffffffffffffffffffffffffff166310d00a67306040518263ffffffff1660e01b81526004016105fa9190612c30565b60006040518083038186803b15801561061257600080fd5b505afa158015610626573d6000803e3d6000fd5b505050506040513d6000823e3d601f19601f8201168201806040525081019061064f91906124f2565b9250506107e2565b60008160200151141561072257600260009054906101000a900473ffffffffffffffffffffffffffffffffffffffff1673ffffffffffffffffffffffffffffffffffffffff1663f35cf90e3083600001516040518363ffffffff1660e01b81526004016106c5929190612c4b565b60006040518083038186803b1580156106dd57600080fd5b505afa1580156106f1573d6000803e3d6000fd5b505050506040513d6000823e3d601f19601f8201168201806040525081019061071a91906124f2565b9250506107e2565b600260009054906101000a900473ffffffffffffffffffffffffffffffffffffffff1673ffffffffffffffffffffffffffffffffffffffff16638700d56630836000015184602001516040518463ffffffff1660e01b815260040161078993929190612c74565b60006040518083038186803b1580156107a157600080fd5b505afa1580156107b5573d6000803e3d6000fd5b505050506040513d6000823e3d601f19601f820116820180604052508101906107de91906124f2565b9250505b50919050565b6107f0611cdc565b73ffffffffffffffffffffffffffffffffffffffff1660008054906101000a900473ffffffffffffffffffffffffffffffffffffffff1673ffffffffffffffffffffffffffffffffffffffff161461087d576040517f08c379a000000000000000000000000000000000000000000000000000000000815260040161087490612e05565b60405180910390fd5b6108a77f238cc277b81124817de0fb6e725dfaca359442ead042cbf4fa5a5d15a441d45482611a52565b50565b6108b2612094565b600360008373ffffffffffffffffffffffffffffffffffffffff1673ffffffffffffffffffffffffffffffffffffffff168152602001908152602001600020604051806040016040529081600082015481526020016001820154815250509050919050565b600060016000838152602001908152602001600020600201549050919050565b7f60b176c013bc5f6a4aaf9c1455cc3ff5e7ee54daffb41be2fd0e50b804acad4281565b7fdf8b4c520ffe197c5343c6f5aec59570151ef9a492f2c624fd45ddde6135ec4281565b6109a660016000848152602001908152602001600020600201546109a1611cdc565b6110ad565b6109e5576040517f08c379a00000000000000000000000000000000000000000000000000000000081526004016109dc90612d65565b60405180910390fd5b6109ef8282611ce4565b5050565b6109fb611cdc565b73ffffffffffffffffffffffffffffffffffffffff168173ffffffffffffffffffffffffffffffffffffffff1614610a68576040517f08c379a0000000000000000000000000000000000000000000000000000000008152600401610a5f90612e45565b60405180910390fd5b610a728282611d78565b5050565b7f238cc277b81124817de0fb6e725dfaca359442ead042cbf4fa5a5d15a441d45480811415610b2157610aac6000801b336110ad565b80610add5750610adc7f238cc277b81124817de0fb6e725dfaca359442ead042cbf4fa5a5d15a441d454336110ad565b5b610b1c576040517f08c379a0000000000000000000000000000000000000000000000000000000008152600401610b1390612d45565b60405180910390fd5b610bd0565b610b2e6000801b336110ad565b80610b5f5750610b5e7f238cc277b81124817de0fb6e725dfaca359442ead042cbf4fa5a5d15a441d454336110ad565b5b80610b905750610b8f7f60b176c013bc5f6a4aaf9c1455cc3ff5e7ee54daffb41be2fd0e50b804acad42336110ad565b5b610bcf576040517f08c379a0000000000000000000000000000000000000000000000000000000008152600401610bc690612d45565b60405180910390fd5b5b610bdd6000801b336110ad565b80610c0e5750610c0d7f238cc277b81124817de0fb6e725dfaca359442ead042cbf4fa5a5d15a441d454336110ad565b5b610c4d576040517f08c379a0000000000000000000000000000000000000000000000000000000008152600401610c4490612d45565b60405180910390fd5b600260009054906101000a900473ffffffffffffffffffffffffffffffffffffffff1673ffffffffffffffffffffffffffffffffffffffff166356164e1e836040518263ffffffff1660e01b8152600401610ca89190612e80565b600060405180830381600087803b158015610cc257600080fd5b505af1158015610cd6573d6000803e3d6000fd5b505050505050565b610ce6611cdc565b73ffffffffffffffffffffffffffffffffffffffff1660008054906101000a900473ffffffffffffffffffffffffffffffffffffffff1673ffffffffffffffffffffffffffffffffffffffff1614610d73576040517f08c379a0000000000000000000000000000000000000000000000000000000008152600401610d6a90612e05565b60405180910390fd5b80821080610d8357506000818301145b610dc2576040517f08c379a0000000000000000000000000000000000000000000000000000000008152600401610db990612e25565b60405180910390fd5b610dcc848461097f565b604051806040016040528083815260200182815250600360008573ffffffffffffffffffffffffffffffffffffffff1673ffffffffffffffffffffffffffffffffffffffff168152602001908152602001600020600082015181600001556020820151816001015590505050505050565b610e45611cdc565b73ffffffffffffffffffffffffffffffffffffffff1660008054906101000a900473ffffffffffffffffffffffffffffffffffffffff1673ffffffffffffffffffffffffffffffffffffffff1614610ed2576040517f08c379a0000000000000000000000000000000000000000000000000000000008152600401610ec990612e05565b60405180910390fd5b610efc7f60b176c013bc5f6a4aaf9c1455cc3ff5e7ee54daffb41be2fd0e50b804acad4282611a52565b50565b610f07611cdc565b73ffffffffffffffffffffffffffffffffffffffff1660008054906101000a900473ffffffffffffffffffffffffffffffffffffffff1673ffffffffffffffffffffffffffffffffffffffff1614610f94576040517f08c379a0000000000000000000000000000000000000000000000000000000008152600401610f8b90612e05565b60405180910390fd5b600073ffffffffffffffffffffffffffffffffffffffff1660008054906101000a900473ffffffffffffffffffffffffffffffffffffffff1673ffffffffffffffffffffffffffffffffffffffff167f8be0079c531659141344cd1fd0a4f28419497f9722a3daafe3b4186f6b6457e060405160405180910390a360008060006101000a81548173ffffffffffffffffffffffffffffffffffffffff021916908373ffffffffffffffffffffffffffffffffffffffff160217905550565b60008060009054906101000a900473ffffffffffffffffffffffffffffffffffffffff16905090565b60006110a58260016000868152602001908152602001600020600001611e0c90919063ffffffff16565b905092915050565b60006110d78260016000868152602001908152602001600020600001611e2690919063ffffffff16565b905092915050565b6000801b81565b7f238cc277b81124817de0fb6e725dfaca359442ead042cbf4fa5a5d15a441d454808114156111915761111c6000801b336110ad565b8061114d575061114c7f238cc277b81124817de0fb6e725dfaca359442ead042cbf4fa5a5d15a441d454336110ad565b5b61118c576040517f08c379a000000000000000000000000000000000000000000000000000000000815260040161118390612d45565b60405180910390fd5b611240565b61119e6000801b336110ad565b806111cf57506111ce7f238cc277b81124817de0fb6e725dfaca359442ead042cbf4fa5a5d15a441d454336110ad565b5b8061120057506111ff7f60b176c013bc5f6a4aaf9c1455cc3ff5e7ee54daffb41be2fd0e50b804acad42336110ad565b5b61123f576040517f08c379a000000000000000000000000000000000000000000000000000000000815260040161123690612d45565b60405180910390fd5b5b611248612094565b600360003373ffffffffffffffffffffffffffffffffffffffff1673ffffffffffffffffffffffffffffffffffffffff16815260200190815260200160002060405180604001604052908160008201548152602001600182015481525050905087816000015111156112ef576040517f08c379a00000000000000000000000000000000000000000000000000000000081526004016112e690612de5565b60405180910390fd5b8881602001511015801561130857506000816020015114155b611347576040517f08c379a000000000000000000000000000000000000000000000000000000000815260040161133e90612dc5565b60405180910390fd5b600260009054906101000a900473ffffffffffffffffffffffffffffffffffffffff1673ffffffffffffffffffffffffffffffffffffffff1663ab7cc4d28b8b8b8b8b8b8b8b6040518963ffffffff1660e01b81526004016113b0989796959493929190612ec4565b600060405180830381600087803b1580156113ca57600080fd5b505af11580156113de573d6000803e3d6000fd5b5050505050505050505050505050565b60606040518060400160405280601a81526020017f43616c4175746820536179732048692e2020436f72726563742e000000000000815250905090565b606061143a6000801b336110ad565b1561147c576040518060400160405280600581526020017f41444d494e00000000000000000000000000000000000000000000000000000081525090506115f9565b6114a67fdf8b4c520ffe197c5343c6f5aec59570151ef9a492f2c624fd45ddde6135ec42336110ad565b156114e8576040518060400160405280600581526020017f41444d494e00000000000000000000000000000000000000000000000000000081525090506115f9565b6115127f238cc277b81124817de0fb6e725dfaca359442ead042cbf4fa5a5d15a441d454336110ad565b15611554576040518060400160405280600f81526020017f555345525f57524954455f524f4c45000000000000000000000000000000000081525090506115f9565b61157e7f60b176c013bc5f6a4aaf9c1455cc3ff5e7ee54daffb41be2fd0e50b804acad42336110ad565b156115c0576040518060400160405280600e81526020017f555345525f524541445f524f4c4500000000000000000000000000000000000081525090506115f9565b6040518060400160405280600381526020017f4e494c000000000000000000000000000000000000000000000000000000000081525090505b90565b600061161c60016000848152602001908152602001600020600001611e56565b9050919050565b60607f60b176c013bc5f6a4aaf9c1455cc3ff5e7ee54daffb41be2fd0e50b804acad427f238cc277b81124817de0fb6e725dfaca359442ead042cbf4fa5a5d15a441d4548114156116f05761167b6000801b336110ad565b806116ac57506116ab7f238cc277b81124817de0fb6e725dfaca359442ead042cbf4fa5a5d15a441d454336110ad565b5b6116eb576040517f08c379a00000000000000000000000000000000000000000000000000000000081526004016116e290612d45565b60405180910390fd5b61179f565b6116fd6000801b336110ad565b8061172e575061172d7f238cc277b81124817de0fb6e725dfaca359442ead042cbf4fa5a5d15a441d454336110ad565b5b8061175f575061175e7f60b176c013bc5f6a4aaf9c1455cc3ff5e7ee54daffb41be2fd0e50b804acad42336110ad565b5b61179e576040517f08c379a000000000000000000000000000000000000000000000000000000000815260040161179590612d45565b60405180910390fd5b5b6117a7612094565b600360003373ffffffffffffffffffffffffffffffffffffffff1673ffffffffffffffffffffffffffffffffffffffff1681526020019081526020016000206040518060400160405290816000820154815260200160018201548152505090506000816020015182600001510114156118c757600260009054906101000a900473ffffffffffffffffffffffffffffffffffffffff1673ffffffffffffffffffffffffffffffffffffffff1663caebb9916040518163ffffffff1660e01b815260040160006040518083038186803b15801561188257600080fd5b505afa158015611896573d6000803e3d6000fd5b505050506040513d6000823e3d601f19601f820116820180604052508101906118bf91906123ad565b925050611a4e565b60008160200151141561199057600260009054906101000a900473ffffffffffffffffffffffffffffffffffffffff1673ffffffffffffffffffffffffffffffffffffffff166396cba36a82600001516040518263ffffffff1660e01b81526004016119339190612e80565b60006040518083038186803b15801561194b57600080fd5b505afa15801561195f573d6000803e3d6000fd5b505050506040513d6000823e3d601f19601f8201168201806040525081019061198891906123ad565b925050611a4e565b600260009054906101000a900473ffffffffffffffffffffffffffffffffffffffff1673ffffffffffffffffffffffffffffffffffffffff16638b9265c6826000015183602001516040518363ffffffff1660e01b81526004016119f5929190612e9b565b60006040518083038186803b158015611a0d57600080fd5b505afa158015611a21573d6000803e3d6000fd5b505050506040513d6000823e3d601f19601f82011682018060405250810190611a4a91906123ad565b9250505b5090565b611a796001600084815260200190815260200160002060020154611a74611cdc565b6110ad565b611ab8576040517f08c379a0000000000000000000000000000000000000000000000000000000008152600401611aaf90612da5565b60405180910390fd5b611ac28282611d78565b5050565b7f238cc277b81124817de0fb6e725dfaca359442ead042cbf4fa5a5d15a441d45481565b611af2611cdc565b73ffffffffffffffffffffffffffffffffffffffff1660008054906101000a900473ffffffffffffffffffffffffffffffffffffffff1673ffffffffffffffffffffffffffffffffffffffff1614611b7f576040517f08c379a0000000000000000000000000000000000000000000000000000000008152600401611b7690612e05565b60405180910390fd5b600073ffffffffffffffffffffffffffffffffffffffff168173ffffffffffffffffffffffffffffffffffffffff161415611bef576040517f08c379a0000000000000000000000000000000000000000000000000000000008152600401611be690612d85565b60405180910390fd5b8073ffffffffffffffffffffffffffffffffffffffff1660008054906101000a900473ffffffffffffffffffffffffffffffffffffffff1673ffffffffffffffffffffffffffffffffffffffff167f8be0079c531659141344cd1fd0a4f28419497f9722a3daafe3b4186f6b6457e060405160405180910390a3806000806101000a81548173ffffffffffffffffffffffffffffffffffffffff021916908373ffffffffffffffffffffffffffffffffffffffff16021790555050565b6000611cd4836000018373ffffffffffffffffffffffffffffffffffffffff1660001b611e6b565b905092915050565b600033905090565b611d0c8160016000858152602001908152602001600020600001611cac90919063ffffffff16565b15611d7457611d19611cdc565b73ffffffffffffffffffffffffffffffffffffffff168173ffffffffffffffffffffffffffffffffffffffff16837f2f8788117e7eff1d82e926ec794901d17c78024a50270940304540a733656f0d60405160405180910390a45b5050565b611da08160016000858152602001908152602001600020600001611edb90919063ffffffff16565b15611e0857611dad611cdc565b73ffffffffffffffffffffffffffffffffffffffff168173ffffffffffffffffffffffffffffffffffffffff16837ff6391f5c32d9c69d2a47ea670b442974b53935d1edc7fd64eb21e047a839171b60405160405180910390a45b5050565b6000611e1b8360000183611f0b565b60001c905092915050565b6000611e4e836000018373ffffffffffffffffffffffffffffffffffffffff1660001b611f78565b905092915050565b6000611e6482600001611f9b565b9050919050565b6000611e778383611f78565b611ed0578260000182908060018154018082558091505060019003906000526020600020016000909190919091505582600001805490508360010160008481526020019081526020016000208190555060019050611ed5565b600090505b92915050565b6000611f03836000018373ffffffffffffffffffffffffffffffffffffffff1660001b611fac565b905092915050565b600081836000018054905011611f56576040517f08c379a0000000000000000000000000000000000000000000000000000000008152600401611f4d90612d25565b60405180910390fd5b826000018281548110611f6557fe5b9060005260206000200154905092915050565b600080836001016000848152602001908152602001600020541415905092915050565b600081600001805490509050919050565b600080836001016000848152602001908152602001600020549050600081146120885760006001820390506000600186600001805490500390506000866000018281548110611ff757fe5b906000526020600020015490508087600001848154811061201457fe5b906000526020600020018190555060018301876001016000838152602001908152602001600020819055508660000180548061204c57fe5b6001900381819060005260206000200160009055905586600101600087815260200190815260200160002060009055600194505050505061208e565b60009150505b92915050565b604051806040016040528060008152602001600081525090565b6000813590506120bd816130ea565b92915050565b600082601f8301126120d457600080fd5b81516120e76120e282612f8b565b612f5e565b9150818183526020840193506020810190508360005b8381101561212d5781518601612113888261221e565b8452602084019350602083019250506001810190506120fd565b5050505092915050565b60008135905061214681613101565b92915050565b60008151905061215b81613101565b92915050565b60008135905061217081613118565b92915050565b600082601f83011261218757600080fd5b813561219a61219582612fb3565b612f5e565b915080825260208301602083018583830111156121b657600080fd5b6121c1838284613097565b50505092915050565b600082601f8301126121db57600080fd5b81516121ee6121e982612fb3565b612f5e565b9150808252602083016020830185838301111561220a57600080fd5b6122158382846130a6565b50505092915050565b6000610120828403121561223157600080fd5b61223c610120612f5e565b9050600061224c8482850161236f565b60008301525060206122608482850161236f565b60208301525060406122748482850161236f565b604083015250606082015167ffffffffffffffff81111561229457600080fd5b6122a0848285016121ca565b606083015250608082015167ffffffffffffffff8111156122c057600080fd5b6122cc848285016121ca565b60808301525060a06122e08482850161214c565b60a08301525060c082015167ffffffffffffffff81111561230057600080fd5b61230c848285016121ca565b60c08301525060e082015167ffffffffffffffff81111561232c57600080fd5b612338848285016121ca565b60e08301525061010061234d8482850161236f565b6101008301525092915050565b6000813590506123698161312f565b92915050565b60008151905061237e8161312f565b92915050565b60006020828403121561239657600080fd5b60006123a4848285016120ae565b91505092915050565b6000602082840312156123bf57600080fd5b600082015167ffffffffffffffff8111156123d957600080fd5b6123e5848285016120c3565b91505092915050565b60006020828403121561240057600080fd5b600061240e84828501612161565b91505092915050565b6000806040838503121561242a57600080fd5b600061243885828601612161565b9250506020612449858286016120ae565b9150509250929050565b6000806000806080858703121561246957600080fd5b600061247787828801612161565b9450506020612488878288016120ae565b93505060406124998782880161235a565b92505060606124aa8782880161235a565b91505092959194509250565b600080604083850312156124c957600080fd5b60006124d785828601612161565b92505060206124e88582860161235a565b9150509250929050565b60006020828403121561250457600080fd5b600082015167ffffffffffffffff81111561251e57600080fd5b61252a848285016121ca565b91505092915050565b60006020828403121561254557600080fd5b60006125538482850161235a565b91505092915050565b600080600080600080600080610100898b03121561257957600080fd5b60006125878b828c0161235a565b98505060206125988b828c0161235a565b97505060406125a98b828c0161235a565b965050606089013567ffffffffffffffff8111156125c657600080fd5b6125d28b828c01612176565b955050608089013567ffffffffffffffff8111156125ef57600080fd5b6125fb8b828c01612176565b94505060a061260c8b828c01612137565b93505060c089013567ffffffffffffffff81111561262957600080fd5b6126358b828c01612176565b92505060e089013567ffffffffffffffff81111561265257600080fd5b61265e8b828c01612176565b9150509295985092959890939650565b600061267a8383612b38565b905092915050565b61268b81613045565b82525050565b600061269c82612fef565b6126a68185613012565b9350836020820285016126b885612fdf565b8060005b858110156126f457848403895281516126d5858261266e565b94506126e083613005565b925060208a019950506001810190506126bc565b50829750879550505050505092915050565b61270f81613057565b82525050565b61271e81613057565b82525050565b61272d81613063565b82525050565b600061273e82612ffa565b6127488185613023565b93506127588185602086016130a6565b612761816130d9565b840191505092915050565b600061277782612ffa565b6127818185613034565b93506127918185602086016130a6565b61279a816130d9565b840191505092915050565b60006127b2602283613034565b91507f456e756d657261626c655365743a20696e646578206f7574206f6620626f756e60008301527f64730000000000000000000000000000000000000000000000000000000000006020830152604082019050919050565b6000612818601383613034565b91507f55736572206e6f7420617574686f7269736564000000000000000000000000006000830152602082019050919050565b6000612858602f83613034565b91507f416363657373436f6e74726f6c3a2073656e646572206d75737420626520616e60008301527f2061646d696e20746f206772616e7400000000000000000000000000000000006020830152604082019050919050565b60006128be602683613034565b91507f4f776e61626c653a206e6577206f776e657220697320746865207a65726f206160008301527f64647265737300000000000000000000000000000000000000000000000000006020830152604082019050919050565b6000612924603083613034565b91507f416363657373436f6e74726f6c3a2073656e646572206d75737420626520616e60008301527f2061646d696e20746f207265766f6b65000000000000000000000000000000006020830152604082019050919050565b600061298a601a83613034565b91507f4c61746572207468616e207669657761626c6520706572696f640000000000006000830152602082019050919050565b60006129ca601c83613034565b91507f4561726c696572207468616e207669657761626c6520706572696f64000000006000830152602082019050919050565b6000612a0a602083613034565b91507f4f776e61626c653a2063616c6c6572206973206e6f7420746865206f776e65726000830152602082019050919050565b6000612a4a602783613034565b91507f5669657761626c652066726f6d206c61746572207468616e207669657761626c60008301527f6520756e74696c000000000000000000000000000000000000000000000000006020830152604082019050919050565b6000612ab0602f83613034565b91507f416363657373436f6e74726f6c3a2063616e206f6e6c792072656e6f756e636560008301527f20726f6c657320666f722073656c6600000000000000000000000000000000006020830152604082019050919050565b604082016000820151612b1f6000850182612c12565b506020820151612b326020850182612c12565b50505050565b600061012083016000830151612b516000860182612c12565b506020830151612b646020860182612c12565b506040830151612b776040860182612c12565b5060608301518482036060860152612b8f8282612733565b91505060808301518482036080860152612ba98282612733565b91505060a0830151612bbe60a0860182612706565b5060c083015184820360c0860152612bd68282612733565b91505060e083015184820360e0860152612bf08282612733565b915050610100830151612c07610100860182612c12565b508091505092915050565b612c1b8161308d565b82525050565b612c2a8161308d565b82525050565b6000602082019050612c456000830184612682565b92915050565b6000604082019050612c606000830185612682565b612c6d6020830184612c21565b9392505050565b6000606082019050612c896000830186612682565b612c966020830185612c21565b612ca36040830184612c21565b949350505050565b60006020820190508181036000830152612cc58184612691565b905092915050565b6000602082019050612ce26000830184612715565b92915050565b6000602082019050612cfd6000830184612724565b92915050565b60006020820190508181036000830152612d1d818461276c565b905092915050565b60006020820190508181036000830152612d3e816127a5565b9050919050565b60006020820190508181036000830152612d5e8161280b565b9050919050565b60006020820190508181036000830152612d7e8161284b565b9050919050565b60006020820190508181036000830152612d9e816128b1565b9050919050565b60006020820190508181036000830152612dbe81612917565b9050919050565b60006020820190508181036000830152612dde8161297d565b9050919050565b60006020820190508181036000830152612dfe816129bd565b9050919050565b60006020820190508181036000830152612e1e816129fd565b9050919050565b60006020820190508181036000830152612e3e81612a3d565b9050919050565b60006020820190508181036000830152612e5e81612aa3565b9050919050565b6000604082019050612e7a6000830184612b09565b92915050565b6000602082019050612e956000830184612c21565b92915050565b6000604082019050612eb06000830185612c21565b612ebd6020830184612c21565b9392505050565b600061010082019050612eda600083018b612c21565b612ee7602083018a612c21565b612ef46040830189612c21565b8181036060830152612f06818861276c565b90508181036080830152612f1a818761276c565b9050612f2960a0830186612715565b81810360c0830152612f3b818561276c565b905081810360e0830152612f4f818461276c565b90509998505050505050505050565b6000604051905081810181811067ffffffffffffffff82111715612f8157600080fd5b8060405250919050565b600067ffffffffffffffff821115612fa257600080fd5b602082029050602081019050919050565b600067ffffffffffffffff821115612fca57600080fd5b601f19601f8301169050602081019050919050565b6000819050602082019050919050565b600081519050919050565b600081519050919050565b6000602082019050919050565b600082825260208201905092915050565b600082825260208201905092915050565b600082825260208201905092915050565b60006130508261306d565b9050919050565b60008115159050919050565b6000819050919050565b600073ffffffffffffffffffffffffffffffffffffffff82169050919050565b6000819050919050565b82818337600083830152505050565b60005b838110156130c45780820151818401526020810190506130a9565b838111156130d3576000848401525b50505050565b6000601f19601f8301169050919050565b6130f381613045565b81146130fe57600080fd5b50565b61310a81613057565b811461311557600080fd5b50565b61312181613063565b811461312c57600080fd5b50565b6131388161308d565b811461314357600080fd5b5056fea2646970667358221220bcc5a9d158b354f4ffda077cd47d3fd3e1da3b3f3c2171d7aa00c6256afbb95564736f6c634300060c0033",
  "immutableReferences": {},
  "source": "// SPDX-License-Identifier: MIT\npragma solidity ^0.6.0;\npragma experimental ABIEncoderV2;\n\nimport \"@openzeppelin/contracts/access/AccessControl.sol\";\nimport \"@openzeppelin/contracts/access/Ownable.sol\";\nimport \"./CalStore.sol\";\nimport \"./VEventLibrary.sol\";\n\ncontract CalAuth is Ownable, AccessControl {\n    using VEventLibrary for VEventLibrary.VEvent;\n\n    bytes32 public constant USER_READ_ROLE = keccak256(\"USER_READ_ROLE\");\n    bytes32 public constant USER_WRITE_ROLE = keccak256(\"USER_WRITE_ROLE\");\n    bytes32 public constant ADMIN = keccak256(\"ADMIN\");\n    CalStore private calStore;\n\n    struct AccessWindow {\n        uint validFrom;\n        uint expiresBy;\n    }\n    \n    mapping(address => AccessWindow) private accessList;\n\n    constructor(address _addr) public {\n        _setupRole(DEFAULT_ADMIN_ROLE, msg.sender);\n        calStore = CalStore(_addr);\n    }\n\n    modifier onlyRole(bytes32 _role) {\n        if (_role == USER_WRITE_ROLE) {\n            require(\n                hasRole(DEFAULT_ADMIN_ROLE, msg.sender) ||\n                hasRole(USER_WRITE_ROLE, msg.sender),\n                \"User not authorised\");\n        } else {\n            require(\n                hasRole(DEFAULT_ADMIN_ROLE, msg.sender) ||\n                hasRole(USER_WRITE_ROLE, msg.sender) ||\n                hasRole(USER_READ_ROLE, msg.sender),\n                \"User not authorised\");\n        }\n        _;\n    }\n    \n    modifier onlyRoleIcal(address _user) {\n        require(\n            hasRole(DEFAULT_ADMIN_ROLE, _user) ||\n            hasRole(USER_WRITE_ROLE, _user) ||\n            hasRole(USER_READ_ROLE, _user),\n            \"User not authorised\");\n        _;\n    }\n\n    function storeEvent(\n        uint _dtstamp,\n        uint _dtstart,\n        uint _dtend,\n        string memory _summary,\n        string memory _description,\n        bool _isallday,\n        string memory _alldaystartdate,\n        string memory _alldayenddate)\n        public onlyRole(USER_WRITE_ROLE)\n        {\n        AccessWindow memory requestWindow = accessList[msg.sender];\n        require(requestWindow.validFrom <= _dtend, \"Earlier than viewable period\");\n        require((requestWindow.expiresBy >= _dtstart) && \n        (requestWindow.expiresBy != 0), \n        \"Later than viewable period\");\n        calStore.storeEvent(\n            _dtstamp, _dtstart, _dtend,\n            _summary, _description,\n            _isallday, _alldaystartdate,\n            _alldayenddate);\n    }\n\n    function removeEvent(uint _dtstamp) public onlyRole(USER_WRITE_ROLE) {\n        require(\n            hasRole(DEFAULT_ADMIN_ROLE, msg.sender) ||\n            hasRole(USER_WRITE_ROLE, msg.sender),\n            \"User not authorised\");\n        calStore.removeEvent(_dtstamp);\n    }\n\n    function getEventsIcal(address _user) public view onlyRoleIcal(_user) returns (\n        string memory) {\n        AccessWindow memory requestWindow = accessList[_user];\n        if ((requestWindow.validFrom + requestWindow.expiresBy) == 0) {\n            return calStore.getEventsIcal(address(this));\n        } else if (requestWindow.expiresBy == 0) {\n            return calStore.getEventsIcal(address(this), requestWindow.validFrom);\n        } else {\n            return calStore.getEventsIcal(address(this), requestWindow.validFrom, requestWindow.expiresBy);\n        }\n    }\n\n\n    function getEventsObj() public view onlyRole(USER_READ_ROLE) returns (\n        VEventLibrary.VEvent[] memory) {\n            AccessWindow memory requestWindow = accessList[msg.sender];\n            if ((requestWindow.validFrom + requestWindow.expiresBy) == 0) {\n                return calStore.getEventsObj();\n            } else if (requestWindow.expiresBy == 0) {\n                return calStore.getEventsObj(requestWindow.validFrom);\n            } else {\n                return calStore.getEventsObj(\n                    requestWindow.validFrom, \n                    requestWindow.expiresBy);\n            }\n    }\n\n    /// @notice Returns role of msg.sender\n    /// @dev Returns in hierarchial order, e.g. ADMIN more important than READ etc\n    /// @return string user role\n    function getUserRole() public view returns (string memory) {\n        if (hasRole(DEFAULT_ADMIN_ROLE, msg.sender)) {\n            return \"ADMIN\";\n        } else if (hasRole(ADMIN, msg.sender)) {\n            return \"ADMIN\";\n        } else if (hasRole(USER_WRITE_ROLE, msg.sender)) {\n            return \"USER_WRITE_ROLE\";\n        } else if (hasRole(USER_READ_ROLE, msg.sender)) {\n            return \"USER_READ_ROLE\";\n        }\n        return \"NIL\";\n    }\n\n    function grantRoleAccess(\n        bytes32 _role, \n        address _userAddress, \n        uint _validFrom, \n        uint _expiresBy) \n        public onlyOwner {\n            require((_validFrom < _expiresBy) ||\n                    ((_validFrom + _expiresBy) == 0), \n            \"Viewable from later than viewable until\");\n            grantRole(_role, _userAddress);\n            accessList[_userAddress] = AccessWindow(_validFrom, _expiresBy);\n\n        }\n\n    function getAccessWindow(address _userAddress) \n    view\n    public \n    returns (AccessWindow memory) {\n\treturn accessList[_userAddress];\n    }\n\n    //TODO: Delete, not used\n    function revokeRead(address userAddress) public onlyOwner {\n        revokeRole(USER_READ_ROLE, userAddress);\n    }\n\n    //TODO: Delete, not used\n    function revokeWrite(address userAddress) public onlyOwner {\n        revokeRole(USER_WRITE_ROLE, userAddress);\n    }\n\n    function authHi() public pure returns (string memory) {\n        return \"CalAuth Says Hi.  Correct.\";\n    }\n}\n\n",
  "sourcePath": "/home/gene/Programming/Websites/Precious_Chicken_Website/blog_code_demos/forget-me-block-eth-cal-auth/contracts/CalAuth.sol",
  "compiler": {
    "name": "solc",
    "version": "0.6.12+commit.27d51765.Emscripten.clang"
  },
  "schemaVersion": "3.2.3",
  "updatedAt": "2020-08-19T09:07:15.079Z",
  "networkType": "ethereum",
  "devdoc": {
    "kind": "dev",
    "methods": {
      "getRoleAdmin(bytes32)": {
        "details": "Returns the admin role that controls `role`. See {grantRole} and {revokeRole}. To change a role's admin, use {_setRoleAdmin}."
      },
      "getRoleMember(bytes32,uint256)": {
        "details": "Returns one of the accounts that have `role`. `index` must be a value between 0 and {getRoleMemberCount}, non-inclusive. Role bearers are not sorted in any particular way, and their ordering may change at any point. WARNING: When using {getRoleMember} and {getRoleMemberCount}, make sure you perform all queries on the same block. See the following https://forum.openzeppelin.com/t/iterating-over-elements-on-enumerableset-in-openzeppelin-contracts/2296[forum post] for more information."
      },
      "getRoleMemberCount(bytes32)": {
        "details": "Returns the number of accounts that have `role`. Can be used together with {getRoleMember} to enumerate all bearers of a role."
      },
      "getUserRole()": {
        "details": "Returns in hierarchial order, e.g. ADMIN more important than READ etc",
        "returns": {
          "_0": "string user role"
        }
      },
      "grantRole(bytes32,address)": {
        "details": "Grants `role` to `account`. If `account` had not been already granted `role`, emits a {RoleGranted} event. Requirements: - the caller must have ``role``'s admin role."
      },
      "hasRole(bytes32,address)": {
        "details": "Returns `true` if `account` has been granted `role`."
      },
      "owner()": {
        "details": "Returns the address of the current owner."
      },
      "renounceOwnership()": {
        "details": "Leaves the contract without owner. It will not be possible to call `onlyOwner` functions anymore. Can only be called by the current owner. NOTE: Renouncing ownership will leave the contract without an owner, thereby removing any functionality that is only available to the owner."
      },
      "renounceRole(bytes32,address)": {
        "details": "Revokes `role` from the calling account. Roles are often managed via {grantRole} and {revokeRole}: this function's purpose is to provide a mechanism for accounts to lose their privileges if they are compromised (such as when a trusted device is misplaced). If the calling account had been granted `role`, emits a {RoleRevoked} event. Requirements: - the caller must be `account`."
      },
      "revokeRole(bytes32,address)": {
        "details": "Revokes `role` from `account`. If `account` had been granted `role`, emits a {RoleRevoked} event. Requirements: - the caller must have ``role``'s admin role."
      },
      "transferOwnership(address)": {
        "details": "Transfers ownership of the contract to a new account (`newOwner`). Can only be called by the current owner."
      }
    },
    "version": 1
  },
  "userdoc": {
    "kind": "user",
    "methods": {
      "getUserRole()": {
        "notice": "Returns role of msg.sender"
      }
    },
    "version": 1
  }
}