{
  "contractName": "CalAuth",
  "abi": [
    {
      "inputs": [
        {
          "internalType": "address",
          "name": "_addr",
          "type": "address"
        }
      ],
      "stateMutability": "nonpayable",
      "type": "constructor"
    },
    {
      "anonymous": false,
      "inputs": [
        {
          "indexed": true,
          "internalType": "address",
          "name": "previousOwner",
          "type": "address"
        },
        {
          "indexed": true,
          "internalType": "address",
          "name": "newOwner",
          "type": "address"
        }
      ],
      "name": "OwnershipTransferred",
      "type": "event"
    },
    {
      "anonymous": false,
      "inputs": [
        {
          "indexed": true,
          "internalType": "bytes32",
          "name": "role",
          "type": "bytes32"
        },
        {
          "indexed": true,
          "internalType": "bytes32",
          "name": "previousAdminRole",
          "type": "bytes32"
        },
        {
          "indexed": true,
          "internalType": "bytes32",
          "name": "newAdminRole",
          "type": "bytes32"
        }
      ],
      "name": "RoleAdminChanged",
      "type": "event"
    },
    {
      "anonymous": false,
      "inputs": [
        {
          "indexed": true,
          "internalType": "bytes32",
          "name": "role",
          "type": "bytes32"
        },
        {
          "indexed": true,
          "internalType": "address",
          "name": "account",
          "type": "address"
        },
        {
          "indexed": true,
          "internalType": "address",
          "name": "sender",
          "type": "address"
        }
      ],
      "name": "RoleGranted",
      "type": "event"
    },
    {
      "anonymous": false,
      "inputs": [
        {
          "indexed": true,
          "internalType": "bytes32",
          "name": "role",
          "type": "bytes32"
        },
        {
          "indexed": true,
          "internalType": "address",
          "name": "account",
          "type": "address"
        },
        {
          "indexed": true,
          "internalType": "address",
          "name": "sender",
          "type": "address"
        }
      ],
      "name": "RoleRevoked",
      "type": "event"
    },
    {
      "inputs": [],
      "name": "DEFAULT_ADMIN_ROLE",
      "outputs": [
        {
          "internalType": "bytes32",
          "name": "",
          "type": "bytes32"
        }
      ],
      "stateMutability": "view",
      "type": "function",
      "constant": true
    },
    {
      "inputs": [],
      "name": "USER_READ_ROLE",
      "outputs": [
        {
          "internalType": "bytes32",
          "name": "",
          "type": "bytes32"
        }
      ],
      "stateMutability": "view",
      "type": "function",
      "constant": true
    },
    {
      "inputs": [],
      "name": "USER_WRITE_ROLE",
      "outputs": [
        {
          "internalType": "bytes32",
          "name": "",
          "type": "bytes32"
        }
      ],
      "stateMutability": "view",
      "type": "function",
      "constant": true
    },
    {
      "inputs": [
        {
          "internalType": "bytes32",
          "name": "role",
          "type": "bytes32"
        }
      ],
      "name": "getRoleAdmin",
      "outputs": [
        {
          "internalType": "bytes32",
          "name": "",
          "type": "bytes32"
        }
      ],
      "stateMutability": "view",
      "type": "function",
      "constant": true
    },
    {
      "inputs": [
        {
          "internalType": "bytes32",
          "name": "role",
          "type": "bytes32"
        },
        {
          "internalType": "uint256",
          "name": "index",
          "type": "uint256"
        }
      ],
      "name": "getRoleMember",
      "outputs": [
        {
          "internalType": "address",
          "name": "",
          "type": "address"
        }
      ],
      "stateMutability": "view",
      "type": "function",
      "constant": true
    },
    {
      "inputs": [
        {
          "internalType": "bytes32",
          "name": "role",
          "type": "bytes32"
        }
      ],
      "name": "getRoleMemberCount",
      "outputs": [
        {
          "internalType": "uint256",
          "name": "",
          "type": "uint256"
        }
      ],
      "stateMutability": "view",
      "type": "function",
      "constant": true
    },
    {
      "inputs": [
        {
          "internalType": "bytes32",
          "name": "role",
          "type": "bytes32"
        },
        {
          "internalType": "address",
          "name": "account",
          "type": "address"
        }
      ],
      "name": "grantRole",
      "outputs": [],
      "stateMutability": "nonpayable",
      "type": "function"
    },
    {
      "inputs": [
        {
          "internalType": "bytes32",
          "name": "role",
          "type": "bytes32"
        },
        {
          "internalType": "address",
          "name": "account",
          "type": "address"
        }
      ],
      "name": "hasRole",
      "outputs": [
        {
          "internalType": "bool",
          "name": "",
          "type": "bool"
        }
      ],
      "stateMutability": "view",
      "type": "function",
      "constant": true
    },
    {
      "inputs": [],
      "name": "owner",
      "outputs": [
        {
          "internalType": "address",
          "name": "",
          "type": "address"
        }
      ],
      "stateMutability": "view",
      "type": "function",
      "constant": true
    },
    {
      "inputs": [],
      "name": "renounceOwnership",
      "outputs": [],
      "stateMutability": "nonpayable",
      "type": "function"
    },
    {
      "inputs": [
        {
          "internalType": "bytes32",
          "name": "role",
          "type": "bytes32"
        },
        {
          "internalType": "address",
          "name": "account",
          "type": "address"
        }
      ],
      "name": "renounceRole",
      "outputs": [],
      "stateMutability": "nonpayable",
      "type": "function"
    },
    {
      "inputs": [
        {
          "internalType": "bytes32",
          "name": "role",
          "type": "bytes32"
        },
        {
          "internalType": "address",
          "name": "account",
          "type": "address"
        }
      ],
      "name": "revokeRole",
      "outputs": [],
      "stateMutability": "nonpayable",
      "type": "function"
    },
    {
      "inputs": [
        {
          "internalType": "address",
          "name": "newOwner",
          "type": "address"
        }
      ],
      "name": "transferOwnership",
      "outputs": [],
      "stateMutability": "nonpayable",
      "type": "function"
    },
    {
      "inputs": [
        {
          "internalType": "uint256",
          "name": "_dtstamp",
          "type": "uint256"
        },
        {
          "internalType": "uint256",
          "name": "_dtstart",
          "type": "uint256"
        },
        {
          "internalType": "uint256",
          "name": "_dtend",
          "type": "uint256"
        },
        {
          "internalType": "string",
          "name": "_summary",
          "type": "string"
        },
        {
          "internalType": "string",
          "name": "_description",
          "type": "string"
        },
        {
          "internalType": "bool",
          "name": "_isallday",
          "type": "bool"
        },
        {
          "internalType": "string",
          "name": "_alldaystartdate",
          "type": "string"
        },
        {
          "internalType": "string",
          "name": "_alldayenddate",
          "type": "string"
        }
      ],
      "name": "storeEvent",
      "outputs": [],
      "stateMutability": "nonpayable",
      "type": "function"
    },
    {
      "inputs": [
        {
          "internalType": "uint256",
          "name": "_dtstamp",
          "type": "uint256"
        }
      ],
      "name": "removeEvent",
      "outputs": [],
      "stateMutability": "nonpayable",
      "type": "function"
    },
    {
      "inputs": [],
      "name": "getEventsIcal",
      "outputs": [
        {
          "internalType": "string",
          "name": "",
          "type": "string"
        }
      ],
      "stateMutability": "view",
      "type": "function",
      "constant": true
    },
    {
      "inputs": [],
      "name": "getEventsObj",
      "outputs": [
        {
          "components": [
            {
              "internalType": "uint256",
              "name": "dtstamp",
              "type": "uint256"
            },
            {
              "internalType": "uint256",
              "name": "dtstart",
              "type": "uint256"
            },
            {
              "internalType": "uint256",
              "name": "dtend",
              "type": "uint256"
            },
            {
              "internalType": "string",
              "name": "summary",
              "type": "string"
            },
            {
              "internalType": "string",
              "name": "description",
              "type": "string"
            },
            {
              "internalType": "bool",
              "name": "isallday",
              "type": "bool"
            },
            {
              "internalType": "string",
              "name": "alldaystartdate",
              "type": "string"
            },
            {
              "internalType": "string",
              "name": "alldayenddate",
              "type": "string"
            },
            {
              "internalType": "uint256",
              "name": "uid",
              "type": "uint256"
            }
          ],
          "internalType": "struct VEventLibrary.VEvent[]",
          "name": "",
          "type": "tuple[]"
        }
      ],
      "stateMutability": "view",
      "type": "function",
      "constant": true
    },
    {
      "inputs": [],
      "name": "getUserRole",
      "outputs": [
        {
          "internalType": "string",
          "name": "",
          "type": "string"
        }
      ],
      "stateMutability": "view",
      "type": "function",
      "constant": true
    },
    {
      "inputs": [
        {
          "internalType": "address",
          "name": "userAddress",
          "type": "address"
        }
      ],
      "name": "addRead",
      "outputs": [],
      "stateMutability": "nonpayable",
      "type": "function"
    },
    {
      "inputs": [
        {
          "internalType": "address",
          "name": "userAddress",
          "type": "address"
        }
      ],
      "name": "addWrite",
      "outputs": [],
      "stateMutability": "nonpayable",
      "type": "function"
    },
    {
      "inputs": [
        {
          "internalType": "address",
          "name": "userAddress",
          "type": "address"
        }
      ],
      "name": "revokeRead",
      "outputs": [],
      "stateMutability": "nonpayable",
      "type": "function"
    },
    {
      "inputs": [
        {
          "internalType": "address",
          "name": "userAddress",
          "type": "address"
        }
      ],
      "name": "revokeWrite",
      "outputs": [],
      "stateMutability": "nonpayable",
      "type": "function"
    },
    {
      "inputs": [],
      "name": "userReadWelcomeString",
      "outputs": [
        {
          "internalType": "string",
          "name": "",
          "type": "string"
        }
      ],
      "stateMutability": "view",
      "type": "function",
      "constant": true
    },
    {
      "inputs": [],
      "name": "ownerWelcomeString",
      "outputs": [
        {
          "internalType": "string",
          "name": "",
          "type": "string"
        }
      ],
      "stateMutability": "view",
      "type": "function",
      "constant": true
    },
    {
      "inputs": [],
      "name": "justSayHiCalAuth",
      "outputs": [
        {
          "internalType": "string",
          "name": "",
          "type": "string"
        }
      ],
      "stateMutability": "pure",
      "type": "function",
      "constant": true
    }
  ],
  "bytecode": "0x60806040523480156200001157600080fd5b506040516200288e3803806200288e8339818101604052810190620000379190620002f2565b6000620000496200014460201b60201c565b9050806000806101000a81548173ffffffffffffffffffffffffffffffffffffffff021916908373ffffffffffffffffffffffffffffffffffffffff1602179055508073ffffffffffffffffffffffffffffffffffffffff16600073ffffffffffffffffffffffffffffffffffffffff167f8be0079c531659141344cd1fd0a4f28419497f9722a3daafe3b4186f6b6457e060405160405180910390a350620000fc6000801b336200014c60201b60201c565b80600260006101000a81548173ffffffffffffffffffffffffffffffffffffffff021916908373ffffffffffffffffffffffffffffffffffffffff160217905550506200036c565b600033905090565b6200015e82826200016260201b60201c565b5050565b6200019181600160008581526020019081526020016000206000016200020660201b620012d81790919060201c565b156200020257620001a76200014460201b60201c565b73ffffffffffffffffffffffffffffffffffffffff168173ffffffffffffffffffffffffffffffffffffffff16837f2f8788117e7eff1d82e926ec794901d17c78024a50270940304540a733656f0d60405160405180910390a45b5050565b600062000236836000018373ffffffffffffffffffffffffffffffffffffffff1660001b6200023e60201b60201c565b905092915050565b6000620002528383620002b860201b60201c565b620002ad578260000182908060018154018082558091505060019003906000526020600020016000909190919091505582600001805490508360010160008481526020019081526020016000208190555060019050620002b2565b600090505b92915050565b600080836001016000848152602001908152602001600020541415905092915050565b600081519050620002ec8162000352565b92915050565b6000602082840312156200030557600080fd5b60006200031584828501620002db565b91505092915050565b60006200032b8262000332565b9050919050565b600073ffffffffffffffffffffffffffffffffffffffff82169050919050565b6200035d816200031e565b81146200036957600080fd5b50565b612512806200037c6000396000f3fe608060405234801561001057600080fd5b50600436106101735760003560e01c8063869cd0c1116100de578063bf04a10d11610097578063d547741f11610071578063d547741f14610412578063ee1bf5db1461042e578063f2fde38b1461044c578063fd4a74a11461046857610173565b8063bf04a10d146103a6578063ca15c873146103c4578063caebb991146103f457610173565b8063869cd0c1146102d05780638da5cb5b146102ee5780639010d07c1461030c57806391d148541461033c578063a217fddf1461036c578063ab7cc4d21461038a57610173565b8063553bae6411610130578063553bae641461023657806356164e1e146102545780635c91e17e14610270578063607360d31461028e5780636bf7e0bb146102aa578063715018a6146102c657610173565b80631d5ad45b146101785780631f79ec0914610194578063248a9ca3146101b0578063283e8442146101e05780632f2ff15d146101fe57806336568abe1461021a575b600080fd5b610192600480360381019061018d9190611996565b610486565b005b6101ae60048036038101906101a99190611996565b610548565b005b6101ca60048036038101906101c59190611a00565b61060a565b6040516101d79190612122565b60405180910390f35b6101e861062a565b6040516101f59190612122565b60405180910390f35b61021860048036038101906102139190611a29565b61064e565b005b610234600480360381019061022f9190611a29565b6106c2565b005b61023e610745565b60405161024b919061213d565b60405180910390f35b61026e60048036038101906102699190611ae2565b610782565b005b610278610812565b604051610285919061213d565b60405180910390f35b6102a860048036038101906102a39190611996565b6108be565b005b6102c460048036038101906102bf9190611996565b610980565b005b6102ce610a42565b005b6102d8610b95565b6040516102e5919061213d565b60405180910390f35b6102f6610c67565b60405161030391906120ca565b60405180910390f35b61032660048036038101906103219190611a65565b610c90565b60405161033391906120ca565b60405180910390f35b61035660048036038101906103519190611a29565b610cc2565b6040516103639190612107565b60405180910390f35b610374610cf4565b6040516103819190612122565b60405180910390f35b6103a4600480360381019061039f9190611b0b565b610cfb565b005b6103ae610da0565b6040516103bb919061213d565b60405180910390f35b6103de60048036038101906103d99190611a00565b610f05565b6040516103eb919061223f565b60405180910390f35b6103fc610f2c565b60405161040991906120e5565b60405180910390f35b61042c60048036038101906104279190611a29565b610fd8565b005b61043661104c565b6040516104439190612122565b60405180910390f35b61046660048036038101906104619190611996565b611070565b005b610470611232565b60405161047d919061213d565b60405180910390f35b61048e611308565b73ffffffffffffffffffffffffffffffffffffffff1660008054906101000a900473ffffffffffffffffffffffffffffffffffffffff1673ffffffffffffffffffffffffffffffffffffffff161461051b576040517f08c379a0000000000000000000000000000000000000000000000000000000008152600401610512906121df565b60405180910390fd5b6105457f60b176c013bc5f6a4aaf9c1455cc3ff5e7ee54daffb41be2fd0e50b804acad428261064e565b50565b610550611308565b73ffffffffffffffffffffffffffffffffffffffff1660008054906101000a900473ffffffffffffffffffffffffffffffffffffffff1673ffffffffffffffffffffffffffffffffffffffff16146105dd576040517f08c379a00000000000000000000000000000000000000000000000000000000081526004016105d4906121df565b60405180910390fd5b6106077f238cc277b81124817de0fb6e725dfaca359442ead042cbf4fa5a5d15a441d45482610fd8565b50565b600060016000838152602001908152602001600020600201549050919050565b7f60b176c013bc5f6a4aaf9c1455cc3ff5e7ee54daffb41be2fd0e50b804acad4281565b6106756001600084815260200190815260200160002060020154610670611308565b610cc2565b6106b4576040517f08c379a00000000000000000000000000000000000000000000000000000000081526004016106ab9061217f565b60405180910390fd5b6106be8282611310565b5050565b6106ca611308565b73ffffffffffffffffffffffffffffffffffffffff168173ffffffffffffffffffffffffffffffffffffffff1614610737576040517f08c379a000000000000000000000000000000000000000000000000000000000815260040161072e9061221f565b60405180910390fd5b61074182826113a4565b5050565b60606040518060400160405280600f81526020017f48692066726f6d2043616c417574680000000000000000000000000000000000815250905090565b600260009054906101000a900473ffffffffffffffffffffffffffffffffffffffff1673ffffffffffffffffffffffffffffffffffffffff166356164e1e826040518263ffffffff1660e01b81526004016107dd919061223f565b600060405180830381600087803b1580156107f757600080fd5b505af115801561080b573d6000803e3d6000fd5b5050505050565b6060600260009054906101000a900473ffffffffffffffffffffffffffffffffffffffff1673ffffffffffffffffffffffffffffffffffffffff16635c91e17e6040518163ffffffff1660e01b815260040160006040518083038186803b15801561087c57600080fd5b505afa158015610890573d6000803e3d6000fd5b505050506040513d6000823e3d601f19601f820116820180604052508101906108b99190611aa1565b905090565b6108c6611308565b73ffffffffffffffffffffffffffffffffffffffff1660008054906101000a900473ffffffffffffffffffffffffffffffffffffffff1673ffffffffffffffffffffffffffffffffffffffff1614610953576040517f08c379a000000000000000000000000000000000000000000000000000000000815260040161094a906121df565b60405180910390fd5b61097d7f60b176c013bc5f6a4aaf9c1455cc3ff5e7ee54daffb41be2fd0e50b804acad4282610fd8565b50565b610988611308565b73ffffffffffffffffffffffffffffffffffffffff1660008054906101000a900473ffffffffffffffffffffffffffffffffffffffff1673ffffffffffffffffffffffffffffffffffffffff1614610a15576040517f08c379a0000000000000000000000000000000000000000000000000000000008152600401610a0c906121df565b60405180910390fd5b610a3f7f238cc277b81124817de0fb6e725dfaca359442ead042cbf4fa5a5d15a441d4548261064e565b50565b610a4a611308565b73ffffffffffffffffffffffffffffffffffffffff1660008054906101000a900473ffffffffffffffffffffffffffffffffffffffff1673ffffffffffffffffffffffffffffffffffffffff1614610ad7576040517f08c379a0000000000000000000000000000000000000000000000000000000008152600401610ace906121df565b60405180910390fd5b600073ffffffffffffffffffffffffffffffffffffffff1660008054906101000a900473ffffffffffffffffffffffffffffffffffffffff1673ffffffffffffffffffffffffffffffffffffffff167f8be0079c531659141344cd1fd0a4f28419497f9722a3daafe3b4186f6b6457e060405160405180910390a360008060006101000a81548173ffffffffffffffffffffffffffffffffffffffff021916908373ffffffffffffffffffffffffffffffffffffffff160217905550565b6060610b9f611308565b73ffffffffffffffffffffffffffffffffffffffff1660008054906101000a900473ffffffffffffffffffffffffffffffffffffffff1673ffffffffffffffffffffffffffffffffffffffff1614610c2c576040517f08c379a0000000000000000000000000000000000000000000000000000000008152600401610c23906121df565b60405180910390fd5b6040518060400160405280600d81526020017f57656c636f6d65206f776e657200000000000000000000000000000000000000815250905090565b60008060009054906101000a900473ffffffffffffffffffffffffffffffffffffffff16905090565b6000610cba826001600086815260200190815260200160002060000161143890919063ffffffff16565b905092915050565b6000610cec826001600086815260200190815260200160002060000161145290919063ffffffff16565b905092915050565b6000801b81565b600260009054906101000a900473ffffffffffffffffffffffffffffffffffffffff1673ffffffffffffffffffffffffffffffffffffffff1663ab7cc4d289898989898989896040518963ffffffff1660e01b8152600401610d6498979695949392919061225a565b600060405180830381600087803b158015610d7e57600080fd5b505af1158015610d92573d6000803e3d6000fd5b505050505050505050505050565b6060610daf6000801b33610cc2565b15610df1576040518060400160405280600581526020017f41444d494e0000000000000000000000000000000000000000000000000000008152509050610f02565b610e1b7f238cc277b81124817de0fb6e725dfaca359442ead042cbf4fa5a5d15a441d45433610cc2565b15610e5d576040518060400160405280600f81526020017f555345525f57524954455f524f4c4500000000000000000000000000000000008152509050610f02565b610e877f60b176c013bc5f6a4aaf9c1455cc3ff5e7ee54daffb41be2fd0e50b804acad4233610cc2565b15610ec9576040518060400160405280600e81526020017f555345525f524541445f524f4c450000000000000000000000000000000000008152509050610f02565b6040518060400160405280600381526020017f4e494c000000000000000000000000000000000000000000000000000000000081525090505b90565b6000610f2560016000848152602001908152602001600020600001611482565b9050919050565b6060600260009054906101000a900473ffffffffffffffffffffffffffffffffffffffff1673ffffffffffffffffffffffffffffffffffffffff1663caebb9916040518163ffffffff1660e01b815260040160006040518083038186803b158015610f9657600080fd5b505afa158015610faa573d6000803e3d6000fd5b505050506040513d6000823e3d601f19601f82011682018060405250810190610fd391906119bf565b905090565b610fff6001600084815260200190815260200160002060020154610ffa611308565b610cc2565b61103e576040517f08c379a0000000000000000000000000000000000000000000000000000000008152600401611035906121bf565b60405180910390fd5b61104882826113a4565b5050565b7f238cc277b81124817de0fb6e725dfaca359442ead042cbf4fa5a5d15a441d45481565b611078611308565b73ffffffffffffffffffffffffffffffffffffffff1660008054906101000a900473ffffffffffffffffffffffffffffffffffffffff1673ffffffffffffffffffffffffffffffffffffffff1614611105576040517f08c379a00000000000000000000000000000000000000000000000000000000081526004016110fc906121df565b60405180910390fd5b600073ffffffffffffffffffffffffffffffffffffffff168173ffffffffffffffffffffffffffffffffffffffff161415611175576040517f08c379a000000000000000000000000000000000000000000000000000000000815260040161116c9061219f565b60405180910390fd5b8073ffffffffffffffffffffffffffffffffffffffff1660008054906101000a900473ffffffffffffffffffffffffffffffffffffffff1673ffffffffffffffffffffffffffffffffffffffff167f8be0079c531659141344cd1fd0a4f28419497f9722a3daafe3b4186f6b6457e060405160405180910390a3806000806101000a81548173ffffffffffffffffffffffffffffffffffffffff021916908373ffffffffffffffffffffffffffffffffffffffff16021790555050565b606061125e7f60b176c013bc5f6a4aaf9c1455cc3ff5e7ee54daffb41be2fd0e50b804acad4233610cc2565b61129d576040517f08c379a0000000000000000000000000000000000000000000000000000000008152600401611294906121ff565b60405180910390fd5b6040518060400160405280601681526020017f57656c636f6d652072656164206f6e6c79207573657200000000000000000000815250905090565b6000611300836000018373ffffffffffffffffffffffffffffffffffffffff1660001b611497565b905092915050565b600033905090565b61133881600160008581526020019081526020016000206000016112d890919063ffffffff16565b156113a057611345611308565b73ffffffffffffffffffffffffffffffffffffffff168173ffffffffffffffffffffffffffffffffffffffff16837f2f8788117e7eff1d82e926ec794901d17c78024a50270940304540a733656f0d60405160405180910390a45b5050565b6113cc816001600085815260200190815260200160002060000161150790919063ffffffff16565b15611434576113d9611308565b73ffffffffffffffffffffffffffffffffffffffff168173ffffffffffffffffffffffffffffffffffffffff16837ff6391f5c32d9c69d2a47ea670b442974b53935d1edc7fd64eb21e047a839171b60405160405180910390a45b5050565b60006114478360000183611537565b60001c905092915050565b600061147a836000018373ffffffffffffffffffffffffffffffffffffffff1660001b6115a4565b905092915050565b6000611490826000016115c7565b9050919050565b60006114a383836115a4565b6114fc578260000182908060018154018082558091505060019003906000526020600020016000909190919091505582600001805490508360010160008481526020019081526020016000208190555060019050611501565b600090505b92915050565b600061152f836000018373ffffffffffffffffffffffffffffffffffffffff1660001b6115d8565b905092915050565b600081836000018054905011611582576040517f08c379a00000000000000000000000000000000000000000000000000000000081526004016115799061215f565b60405180910390fd5b82600001828154811061159157fe5b9060005260206000200154905092915050565b600080836001016000848152602001908152602001600020541415905092915050565b600081600001805490509050919050565b600080836001016000848152602001908152602001600020549050600081146116b4576000600182039050600060018660000180549050039050600086600001828154811061162357fe5b906000526020600020015490508087600001848154811061164057fe5b906000526020600020018190555060018301876001016000838152602001908152602001600020819055508660000180548061167857fe5b600190038181906000526020600020016000905590558660010160008781526020019081526020016000206000905560019450505050506116ba565b60009150505b92915050565b6000813590506116cf81612480565b92915050565b600082601f8301126116e657600080fd5b81516116f96116f482612321565b6122f4565b9150818183526020840193506020810190508360005b8381101561173f57815186016117258882611830565b84526020840193506020830192505060018101905061170f565b5050505092915050565b60008135905061175881612497565b92915050565b60008151905061176d81612497565b92915050565b600081359050611782816124ae565b92915050565b600082601f83011261179957600080fd5b81356117ac6117a782612349565b6122f4565b915080825260208301602083018583830111156117c857600080fd5b6117d383828461242d565b50505092915050565b600082601f8301126117ed57600080fd5b81516118006117fb82612349565b6122f4565b9150808252602083016020830185838301111561181c57600080fd5b61182783828461243c565b50505092915050565b6000610120828403121561184357600080fd5b61184e6101206122f4565b9050600061185e84828501611981565b600083015250602061187284828501611981565b602083015250604061188684828501611981565b604083015250606082015167ffffffffffffffff8111156118a657600080fd5b6118b2848285016117dc565b606083015250608082015167ffffffffffffffff8111156118d257600080fd5b6118de848285016117dc565b60808301525060a06118f28482850161175e565b60a08301525060c082015167ffffffffffffffff81111561191257600080fd5b61191e848285016117dc565b60c08301525060e082015167ffffffffffffffff81111561193e57600080fd5b61194a848285016117dc565b60e08301525061010061195f84828501611981565b6101008301525092915050565b60008135905061197b816124c5565b92915050565b600081519050611990816124c5565b92915050565b6000602082840312156119a857600080fd5b60006119b6848285016116c0565b91505092915050565b6000602082840312156119d157600080fd5b600082015167ffffffffffffffff8111156119eb57600080fd5b6119f7848285016116d5565b91505092915050565b600060208284031215611a1257600080fd5b6000611a2084828501611773565b91505092915050565b60008060408385031215611a3c57600080fd5b6000611a4a85828601611773565b9250506020611a5b858286016116c0565b9150509250929050565b60008060408385031215611a7857600080fd5b6000611a8685828601611773565b9250506020611a978582860161196c565b9150509250929050565b600060208284031215611ab357600080fd5b600082015167ffffffffffffffff811115611acd57600080fd5b611ad9848285016117dc565b91505092915050565b600060208284031215611af457600080fd5b6000611b028482850161196c565b91505092915050565b600080600080600080600080610100898b031215611b2857600080fd5b6000611b368b828c0161196c565b9850506020611b478b828c0161196c565b9750506040611b588b828c0161196c565b965050606089013567ffffffffffffffff811115611b7557600080fd5b611b818b828c01611788565b955050608089013567ffffffffffffffff811115611b9e57600080fd5b611baa8b828c01611788565b94505060a0611bbb8b828c01611749565b93505060c089013567ffffffffffffffff811115611bd857600080fd5b611be48b828c01611788565b92505060e089013567ffffffffffffffff811115611c0157600080fd5b611c0d8b828c01611788565b9150509295985092959890939650565b6000611c298383611fd2565b905092915050565b611c3a816123db565b82525050565b6000611c4b82612385565b611c5581856123a8565b935083602082028501611c6785612375565b8060005b85811015611ca35784840389528151611c848582611c1d565b9450611c8f8361239b565b925060208a01995050600181019050611c6b565b50829750879550505050505092915050565b611cbe816123ed565b82525050565b611ccd816123ed565b82525050565b611cdc816123f9565b82525050565b6000611ced82612390565b611cf781856123b9565b9350611d0781856020860161243c565b611d108161246f565b840191505092915050565b6000611d2682612390565b611d3081856123ca565b9350611d4081856020860161243c565b611d498161246f565b840191505092915050565b6000611d616022836123ca565b91507f456e756d657261626c655365743a20696e646578206f7574206f6620626f756e60008301527f64730000000000000000000000000000000000000000000000000000000000006020830152604082019050919050565b6000611dc7602f836123ca565b91507f416363657373436f6e74726f6c3a2073656e646572206d75737420626520616e60008301527f2061646d696e20746f206772616e7400000000000000000000000000000000006020830152604082019050919050565b6000611e2d6026836123ca565b91507f4f776e61626c653a206e6577206f776e657220697320746865207a65726f206160008301527f64647265737300000000000000000000000000000000000000000000000000006020830152604082019050919050565b6000611e936030836123ca565b91507f416363657373436f6e74726f6c3a2073656e646572206d75737420626520616e60008301527f2061646d696e20746f207265766f6b65000000000000000000000000000000006020830152604082019050919050565b6000611ef96020836123ca565b91507f4f776e61626c653a2063616c6c6572206973206e6f7420746865206f776e65726000830152602082019050919050565b6000611f39601d836123ca565b91507f536f72727920796f7520617265206e6f742061205245414420757365720000006000830152602082019050919050565b6000611f79602f836123ca565b91507f416363657373436f6e74726f6c3a2063616e206f6e6c792072656e6f756e636560008301527f20726f6c657320666f722073656c6600000000000000000000000000000000006020830152604082019050919050565b600061012083016000830151611feb60008601826120ac565b506020830151611ffe60208601826120ac565b50604083015161201160408601826120ac565b50606083015184820360608601526120298282611ce2565b915050608083015184820360808601526120438282611ce2565b91505060a083015161205860a0860182611cb5565b5060c083015184820360c08601526120708282611ce2565b91505060e083015184820360e086015261208a8282611ce2565b9150506101008301516120a16101008601826120ac565b508091505092915050565b6120b581612423565b82525050565b6120c481612423565b82525050565b60006020820190506120df6000830184611c31565b92915050565b600060208201905081810360008301526120ff8184611c40565b905092915050565b600060208201905061211c6000830184611cc4565b92915050565b60006020820190506121376000830184611cd3565b92915050565b600060208201905081810360008301526121578184611d1b565b905092915050565b6000602082019050818103600083015261217881611d54565b9050919050565b6000602082019050818103600083015261219881611dba565b9050919050565b600060208201905081810360008301526121b881611e20565b9050919050565b600060208201905081810360008301526121d881611e86565b9050919050565b600060208201905081810360008301526121f881611eec565b9050919050565b6000602082019050818103600083015261221881611f2c565b9050919050565b6000602082019050818103600083015261223881611f6c565b9050919050565b600060208201905061225460008301846120bb565b92915050565b600061010082019050612270600083018b6120bb565b61227d602083018a6120bb565b61228a60408301896120bb565b818103606083015261229c8188611d1b565b905081810360808301526122b08187611d1b565b90506122bf60a0830186611cc4565b81810360c08301526122d18185611d1b565b905081810360e08301526122e58184611d1b565b90509998505050505050505050565b6000604051905081810181811067ffffffffffffffff8211171561231757600080fd5b8060405250919050565b600067ffffffffffffffff82111561233857600080fd5b602082029050602081019050919050565b600067ffffffffffffffff82111561236057600080fd5b601f19601f8301169050602081019050919050565b6000819050602082019050919050565b600081519050919050565b600081519050919050565b6000602082019050919050565b600082825260208201905092915050565b600082825260208201905092915050565b600082825260208201905092915050565b60006123e682612403565b9050919050565b60008115159050919050565b6000819050919050565b600073ffffffffffffffffffffffffffffffffffffffff82169050919050565b6000819050919050565b82818337600083830152505050565b60005b8381101561245a57808201518184015260208101905061243f565b83811115612469576000848401525b50505050565b6000601f19601f8301169050919050565b612489816123db565b811461249457600080fd5b50565b6124a0816123ed565b81146124ab57600080fd5b50565b6124b7816123f9565b81146124c257600080fd5b50565b6124ce81612423565b81146124d957600080fd5b5056fea2646970667358221220bd39af59add8aad99a360b103b9ff310f9803a1abaa0f4a77375f2e667e3538064736f6c634300060c0033",
  "source": "// SPDX-License-Identifier: MIT\npragma solidity ^0.6.0;\npragma experimental ABIEncoderV2;\n\nimport \"@openzeppelin/contracts/access/AccessControl.sol\";\nimport \"@openzeppelin/contracts/access/Ownable.sol\";\nimport \"./CalStore.sol\";\nimport \"./VEventLibrary.sol\";\n\ncontract CalAuth is Ownable, AccessControl {\n    using VEventLibrary for VEventLibrary.VEvent;\n\n    bytes32 public constant USER_READ_ROLE = keccak256(\"USER_READ_ROLE\");\n    bytes32 public constant USER_WRITE_ROLE = keccak256(\"USER_WRITE_ROLE\");\n    CalStore private calStore;\n\n\n    constructor(address _addr) public {\n        _setupRole(DEFAULT_ADMIN_ROLE, msg.sender);\n        calStore = CalStore(_addr);\n    }\n\n    function storeEvent(\n        uint _dtstamp,\n        uint _dtstart,\n        uint _dtend,\n        string memory _summary,\n        string memory _description,\n        bool _isallday,\n        string memory _alldaystartdate,\n        string memory _alldayenddate)\n        public\n        {\n        calStore.storeEvent(\n            _dtstamp, _dtstart, _dtend,\n            _summary, _description,\n            _isallday, _alldaystartdate,\n            _alldayenddate);\n    }\n\n    function removeEvent(uint _dtstamp) public {\n        calStore.removeEvent(_dtstamp);\n    }\n\n    function getEventsIcal() public view returns (string memory) {\n        return calStore.getEventsIcal();\n    }\n\n    function getEventsObj() public view returns (VEventLibrary.VEvent[] memory) {\n        return calStore.getEventsObj();\n    }\n\n\n    /// @notice Returns role of msg.sender\n    /// @dev Returns in hierarchial order, e.g. ADMIN more important than READ etc\n    /// @return string user role\n    function getUserRole() public view returns (string memory) {\n        if (hasRole(DEFAULT_ADMIN_ROLE, msg.sender)) {\n            return \"ADMIN\";\n        } else if (hasRole(USER_WRITE_ROLE, msg.sender)) {\n            return \"USER_WRITE_ROLE\";\n        } else if (hasRole(USER_READ_ROLE, msg.sender)) {\n            return \"USER_READ_ROLE\";\n        }\n        return \"NIL\";\n    }\n\n    function addRead(address userAddress) public onlyOwner {\n        grantRole(USER_READ_ROLE, userAddress);\n    }\n\n    function addWrite(address userAddress) public onlyOwner {\n        grantRole(USER_WRITE_ROLE, userAddress);\n    }\n\n    function revokeRead(address userAddress) public onlyOwner {\n        revokeRole(USER_READ_ROLE, userAddress);\n    }\n\n    function revokeWrite(address userAddress) public onlyOwner {\n        revokeRole(USER_WRITE_ROLE, userAddress);\n    }\n\n    function userReadWelcomeString() public view returns (string memory) {\n        require(hasRole(USER_READ_ROLE, msg.sender), \"Sorry you are not a READ user\");\n        return \"Welcome read only user\";\n    }\n\n    function ownerWelcomeString() public onlyOwner view returns (string memory) {\n        return \"Welcome owner\";\n    }\n\n    function justSayHiCalAuth() public pure returns (string memory) {\n        return \"Hi from CalAuth\";\n    }\n}\n\n// CalAuth.deployed().then(function(instance) {app = instance})\n// let accounts = await web3.eth.getAccounts()\n// app.ownerWelcomeString()\n// app.addRead(\"0x918FD928864B6c0fFf58829Ccd7f92B0020Ae68B\", {from: accounts[1]});\n// app.addRead(accounts[1]);\n// app.userReadWelcomeString({from: accounts[1]});\n// app.hasRole(\"USER_READ_ROLE\",accounts[1]);\n\n\n\n// hashed = await web3.utils.keccak256(\"USER_READ_ROLE\")\n// undefined\n// app.hasRole(hashed,accounts[1]);\n// true\n// app.getRoleMemberCount(hashed);\n// BN { negative: 0, words: [ 1, <1 empty item> ], length: 1, red: null }\n\n// app.getRoleMember(hashed, 0)\n",
  "sourcePath": "/home/gene/Programming/Websites/Precious_Chicken_Website/blog_code_demos/forget-me-block-cal-auth/contracts/CalAuth.sol",
  "compiler": {
    "name": "solc",
    "version": "0.6.12+commit.27d51765.Emscripten.clang"
  },
  "schemaVersion": "3.0.23",
  "updatedAt": "2020-08-14T20:22:36.031Z",
  "networkType": "ethereum",
  "devdoc": {
    "kind": "dev",
    "methods": {
      "getRoleAdmin(bytes32)": {
        "details": "Returns the admin role that controls `role`. See {grantRole} and {revokeRole}. To change a role's admin, use {_setRoleAdmin}."
      },
      "getRoleMember(bytes32,uint256)": {
        "details": "Returns one of the accounts that have `role`. `index` must be a value between 0 and {getRoleMemberCount}, non-inclusive. Role bearers are not sorted in any particular way, and their ordering may change at any point. WARNING: When using {getRoleMember} and {getRoleMemberCount}, make sure you perform all queries on the same block. See the following https://forum.openzeppelin.com/t/iterating-over-elements-on-enumerableset-in-openzeppelin-contracts/2296[forum post] for more information."
      },
      "getRoleMemberCount(bytes32)": {
        "details": "Returns the number of accounts that have `role`. Can be used together with {getRoleMember} to enumerate all bearers of a role."
      },
      "getUserRole()": {
        "details": "Returns in hierarchial order, e.g. ADMIN more important than READ etc",
        "returns": {
          "_0": "string user role"
        }
      },
      "grantRole(bytes32,address)": {
        "details": "Grants `role` to `account`. If `account` had not been already granted `role`, emits a {RoleGranted} event. Requirements: - the caller must have ``role``'s admin role."
      },
      "hasRole(bytes32,address)": {
        "details": "Returns `true` if `account` has been granted `role`."
      },
      "owner()": {
        "details": "Returns the address of the current owner."
      },
      "renounceOwnership()": {
        "details": "Leaves the contract without owner. It will not be possible to call `onlyOwner` functions anymore. Can only be called by the current owner. NOTE: Renouncing ownership will leave the contract without an owner, thereby removing any functionality that is only available to the owner."
      },
      "renounceRole(bytes32,address)": {
        "details": "Revokes `role` from the calling account. Roles are often managed via {grantRole} and {revokeRole}: this function's purpose is to provide a mechanism for accounts to lose their privileges if they are compromised (such as when a trusted device is misplaced). If the calling account had been granted `role`, emits a {RoleRevoked} event. Requirements: - the caller must be `account`."
      },
      "revokeRole(bytes32,address)": {
        "details": "Revokes `role` from `account`. If `account` had been granted `role`, emits a {RoleRevoked} event. Requirements: - the caller must have ``role``'s admin role."
      },
      "transferOwnership(address)": {
        "details": "Transfers ownership of the contract to a new account (`newOwner`). Can only be called by the current owner."
      }
    },
    "version": 1
  },
  "userdoc": {
    "kind": "user",
    "methods": {
      "getUserRole()": {
        "notice": "Returns role of msg.sender"
      }
    },
    "version": 1
  }
}