{
  "contractName": "CalStore",
  "abi": [
    {
      "inputs": [
        {
          "internalType": "uint256",
          "name": "_dtstamp",
          "type": "uint256"
        },
        {
          "internalType": "uint256",
          "name": "_dtstart",
          "type": "uint256"
        },
        {
          "internalType": "uint256",
          "name": "_dtend",
          "type": "uint256"
        },
        {
          "internalType": "string",
          "name": "_summary",
          "type": "string"
        },
        {
          "internalType": "string",
          "name": "_description",
          "type": "string"
        },
        {
          "internalType": "bool",
          "name": "_isallday",
          "type": "bool"
        },
        {
          "internalType": "string",
          "name": "_alldaystartdate",
          "type": "string"
        },
        {
          "internalType": "string",
          "name": "_alldayenddate",
          "type": "string"
        }
      ],
      "name": "storeEvent",
      "outputs": [],
      "stateMutability": "nonpayable",
      "type": "function"
    },
    {
      "inputs": [],
      "name": "justSayHiCalStore",
      "outputs": [
        {
          "internalType": "string",
          "name": "",
          "type": "string"
        }
      ],
      "stateMutability": "pure",
      "type": "function",
      "constant": true
    },
    {
      "inputs": [
        {
          "internalType": "uint256",
          "name": "_dtstamp",
          "type": "uint256"
        }
      ],
      "name": "removeEvent",
      "outputs": [],
      "stateMutability": "nonpayable",
      "type": "function"
    },
    {
      "inputs": [
        {
          "internalType": "uint256",
          "name": "timestamp",
          "type": "uint256"
        }
      ],
      "name": "timestampToDateTime",
      "outputs": [
        {
          "internalType": "uint256",
          "name": "year",
          "type": "uint256"
        },
        {
          "internalType": "uint256",
          "name": "month",
          "type": "uint256"
        },
        {
          "internalType": "uint256",
          "name": "day",
          "type": "uint256"
        },
        {
          "internalType": "uint256",
          "name": "hour",
          "type": "uint256"
        },
        {
          "internalType": "uint256",
          "name": "minute",
          "type": "uint256"
        },
        {
          "internalType": "uint256",
          "name": "second",
          "type": "uint256"
        }
      ],
      "stateMutability": "pure",
      "type": "function",
      "constant": true
    },
    {
      "inputs": [],
      "name": "getEventsIcal",
      "outputs": [
        {
          "internalType": "string",
          "name": "",
          "type": "string"
        }
      ],
      "stateMutability": "view",
      "type": "function",
      "constant": true
    },
    {
      "inputs": [],
      "name": "getEventsObj",
      "outputs": [
        {
          "components": [
            {
              "internalType": "uint256",
              "name": "dtstamp",
              "type": "uint256"
            },
            {
              "internalType": "uint256",
              "name": "dtstart",
              "type": "uint256"
            },
            {
              "internalType": "uint256",
              "name": "dtend",
              "type": "uint256"
            },
            {
              "internalType": "string",
              "name": "summary",
              "type": "string"
            },
            {
              "internalType": "string",
              "name": "description",
              "type": "string"
            },
            {
              "internalType": "bool",
              "name": "isallday",
              "type": "bool"
            },
            {
              "internalType": "string",
              "name": "alldaystartdate",
              "type": "string"
            },
            {
              "internalType": "string",
              "name": "alldayenddate",
              "type": "string"
            },
            {
              "internalType": "uint256",
              "name": "uid",
              "type": "uint256"
            }
          ],
          "internalType": "struct VEventLibrary.VEvent[]",
          "name": "",
          "type": "tuple[]"
        }
      ],
      "stateMutability": "view",
      "type": "function",
      "constant": true
    }
  ],
  "bytecode": "0x608060405234801561001057600080fd5b506123ec806100206000396000f3fe608060405234801561001057600080fd5b50600436106100625760003560e01c806356164e1e146100675780635c91e17e14610083578063ab7cc4d2146100a1578063caebb991146100bd578063ea1c1690146100db578063fcf0d2eb14610110575b600080fd5b610081600480360381019061007c91906118db565b61012e565b005b61008b610475565b604051610098919061216c565b60405180910390f35b6100bb60048036038101906100b69190611904565b610ab6565b005b6100c5610cc8565b6040516100d2919061214a565b60405180910390f35b6100f560048036038101906100f091906118db565b611034565b6040516101079695949392919061218e565b60405180910390f35b610118611067565b604051610125919061216c565b60405180910390f35b60008060003373ffffffffffffffffffffffffffffffffffffffff1673ffffffffffffffffffffffffffffffffffffffff16815260200190815260200160002080549050905060005b8181101561047057826000803373ffffffffffffffffffffffffffffffffffffffff1673ffffffffffffffffffffffffffffffffffffffff16815260200190815260200160002082815481106101c957fe5b9060005260206000209060090201600001541415610463576000803373ffffffffffffffffffffffffffffffffffffffff1673ffffffffffffffffffffffffffffffffffffffff168152602001908152602001600020600183038154811061022d57fe5b90600052602060002090600902016000803373ffffffffffffffffffffffffffffffffffffffff1673ffffffffffffffffffffffffffffffffffffffff168152602001908152602001600020828154811061028457fe5b9060005260206000209060090201600082015481600001556001820154816001015560028201548160020155600382018160030190805460018160011615610100020316600290046102d79291906116a3565b50600482018160040190805460018160011615610100020316600290046102ff9291906116a3565b506005820160009054906101000a900460ff168160050160006101000a81548160ff021916908315150217905550600682018160060190805460018160011615610100020316600290046103549291906116a3565b506007820181600701908054600181600116156101000203166002900461037c9291906116a3565b50600882015481600801559050506000803373ffffffffffffffffffffffffffffffffffffffff1673ffffffffffffffffffffffffffffffffffffffff1681526020019081526020016000208054806103d157fe5b60019003818190600052602060002090600902016000808201600090556001820160009055600282016000905560038201600061040e919061172a565b60048201600061041e919061172a565b6005820160006101000a81549060ff0219169055600682016000610442919061172a565b600782016000610452919061172a565b600882016000905550509055610470565b8080600101915050610177565b505050565b60608060405180602001604052806000815250905060606040518060a001604052806066815260200161235160669139905060606040518060400160405280600e81526020017f454e443a5643414c454e4441520a000000000000000000000000000000000000815250905060606000803373ffffffffffffffffffffffffffffffffffffffff1673ffffffffffffffffffffffffffffffffffffffff168152602001908152602001600020805480602002602001604051908101604052809291908181526020016000905b8282101561083f578382906000526020600020906009020160405180610120016040529081600082015481526020016001820154815260200160028201548152602001600382018054600181600116156101000203166002900480601f01602080910402602001604051908101604052809291908181526020018280546001816001161561010002031660029004801561061c5780601f106105f15761010080835404028352916020019161061c565b820191906000526020600020905b8154815290600101906020018083116105ff57829003601f168201915b50505050508152602001600482018054600181600116156101000203166002900480601f0160208091040260200160405190810160405280929190818152602001828054600181600116156101000203166002900480156106be5780601f10610693576101008083540402835291602001916106be565b820191906000526020600020905b8154815290600101906020018083116106a157829003601f168201915b505050505081526020016005820160009054906101000a900460ff16151515158152602001600682018054600181600116156101000203166002900480601f01602080910402602001604051908101604052809291908181526020018280546001816001161561010002031660029004801561077b5780601f106107505761010080835404028352916020019161077b565b820191906000526020600020905b81548152906001019060200180831161075e57829003601f168201915b50505050508152602001600782018054600181600116156101000203166002900480601f01602080910402602001604051908101604052809291908181526020018280546001816001161561010002031660029004801561081d5780601f106107f25761010080835404028352916020019161081d565b820191906000526020600020905b81548152906001019060200180831161080057829003601f168201915b5050505050815260200160088201548152505081526020019060010190610541565b5050505090506060610850336110a4565b905060005b8251811015610a8757606061088084838151811061086f57fe5b602002602001015160000151611207565b905060606108a585848151811061089357fe5b6020026020010151610100015161129a565b905060608584815181106108b557fe5b602002602001015160600151905060608685815181106108d157fe5b60200260200101516080015190506060806060808a89815181106108f157fe5b602002602001015160a0015115610985576040518060400160405280600c81526020017f3b56414c55453d444154453a000000000000000000000000000000000000000081525093508a898151811061094657fe5b602002602001015160c0015192508a898151811061096057fe5b602002602001015160e001519150604051806020016040528060008152509050610a3a565b6040518060400160405280600181526020017f3a0000000000000000000000000000000000000000000000000000000000000081525093506109dd8b8a815181106109cc57fe5b602002602001015160200151611207565b92506109ff8b8a815181106109ee57fe5b602002602001015160400151611207565b91506040518060400160405280600181526020017f5a0000000000000000000000000000000000000000000000000000000000000081525090505b8d88888c8787868a89898f8f604051602001610a619c9b9a99989796959493929190611fdd565b6040516020818303038152906040529d5050505050505050508080600101915050610855565b50838584604051602001610a9d93929190611f49565b6040516020818303038152906040529550505050505090565b600160003373ffffffffffffffffffffffffffffffffffffffff1673ffffffffffffffffffffffffffffffffffffffff168152602001908152602001600020600081548092919060010191905055506000600160003373ffffffffffffffffffffffffffffffffffffffff1673ffffffffffffffffffffffffffffffffffffffff168152602001908152602001600020549050610b51611772565b6040518061012001604052808b81526020018a815260200189815260200188815260200187815260200186151581526020018581526020018481526020018381525090506000803373ffffffffffffffffffffffffffffffffffffffff1673ffffffffffffffffffffffffffffffffffffffff1681526020019081526020016000208190806001815401808255809150506001900390600052602060002090600902016000909190919091506000820151816000015560208201518160010155604082015181600201556060820151816003019080519060200190610c379291906117c0565b506080820151816004019080519060200190610c549291906117c0565b5060a08201518160050160006101000a81548160ff02191690831515021790555060c0820151816006019080519060200190610c919291906117c0565b5060e0820151816007019080519060200190610cae9291906117c0565b506101008201518160080155505050505050505050505050565b6060806000803373ffffffffffffffffffffffffffffffffffffffff1673ffffffffffffffffffffffffffffffffffffffff168152602001908152602001600020805480602002602001604051908101604052809291908181526020016000905b82821015611027578382906000526020600020906009020160405180610120016040529081600082015481526020016001820154815260200160028201548152602001600382018054600181600116156101000203166002900480601f016020809104026020016040519081016040528092919081815260200182805460018160011615610100020316600290048015610e045780601f10610dd957610100808354040283529160200191610e04565b820191906000526020600020905b815481529060010190602001808311610de757829003601f168201915b50505050508152602001600482018054600181600116156101000203166002900480601f016020809104026020016040519081016040528092919081815260200182805460018160011615610100020316600290048015610ea65780601f10610e7b57610100808354040283529160200191610ea6565b820191906000526020600020905b815481529060010190602001808311610e8957829003601f168201915b505050505081526020016005820160009054906101000a900460ff16151515158152602001600682018054600181600116156101000203166002900480601f016020809104026020016040519081016040528092919081815260200182805460018160011615610100020316600290048015610f635780601f10610f3857610100808354040283529160200191610f63565b820191906000526020600020905b815481529060010190602001808311610f4657829003601f168201915b50505050508152602001600782018054600181600116156101000203166002900480601f0160208091040260200160405190810160405280929190818152602001828054600181600116156101000203166002900480156110055780601f10610fda57610100808354040283529160200191611005565b820191906000526020600020905b815481529060010190602001808311610fe857829003601f168201915b5050505050815260200160088201548152505081526020019060010190610d29565b5050505090508091505090565b600080600080600080611046876113e5565b809650819750829850839950849a50859b5050505050505091939550919395565b60606040518060400160405280601081526020017f48692066726f6d2043616c53746f726500000000000000000000000000000000815250905090565b606080602867ffffffffffffffff811180156110bf57600080fd5b506040519080825280601f01601f1916602001820160405280156110f25781602001600182028036833780820191505090505b50905060005b60148110156111fd5760008160130360080260020a8573ffffffffffffffffffffffffffffffffffffffff168161112b57fe5b0460f81b9050600060108260f81c60ff168161114357fe5b0460f81b905060008160f81c6010028360f81c0360f81b905061116582611460565b85856002028151811061117457fe5b60200101907effffffffffffffffffffffffffffffffffffffffffffffffffffffffffffff1916908160001a9053506111ac81611460565b8560018660020201815181106111be57fe5b60200101907effffffffffffffffffffffffffffffffffffffffffffffffffffffffffffff1916908160001a90535050505080806001019150506110f8565b5080915050919050565b606061121a61121583611494565b6114c1565b61122b61122684611517565b6114c1565b61123c61123785611544565b6114c1565b61124d61124886611571565b6114c1565b61125e61125987611597565b6114c1565b61126f61126a886115bb565b6114c1565b60405160200161128496959493929190611f7a565b6040516020818303038152906040529050919050565b6060600082905060008114156112e8576040518060400160405280600181526020017f30000000000000000000000000000000000000000000000000000000000000008152509150506113e0565b600081905060005b60008214611312578080600101915050600a828161130a57fe5b0491506112f0565b60608167ffffffffffffffff8111801561132b57600080fd5b506040519080825280601f01601f19166020018201604052801561135e5781602001600182028036833780820191505090505b50905060006001830390505b600085146113d757600a858161137c57fe5b0660300160f81b8282806001900393508151811061139657fe5b60200101907effffffffffffffffffffffffffffffffffffffffffffffffffffffffffffff1916908160001a905350600a85816113cf57fe5b04945061136a565b81955050505050505b919050565b6000806000806000806114036201518088816113fd57fe5b046115cf565b809650819750829850505050600062015180888161141d57fe5b069050610e10818161142b57fe5b049350610e10818161143957fe5b069050603c818161144657fe5b049250603c818161145357fe5b0691505091939550919395565b6000600a8260f81c60ff1610156114825760308260f81c0160f81b905061148f565b60578260f81c0160f81b90505b919050565b60008060006114ae6201518085816114a857fe5b046115cf565b8093508194508295505050505050919050565b606080600060099050808411156114e2576114db8461129a565b915061150d565b6114eb8461129a565b6040516020016114fb9190612128565b60405160208183030381529060405291505b8192505050919050565b600080600061153162015180858161152b57fe5b046115cf565b8093508195508294505050505050919050565b600080600061155e62015180858161155857fe5b046115cf565b8095508193508294505050505050919050565b60008062015180838161158057fe5b069050610e10818161158e57fe5b04915050919050565b600080610e1083816115a557fe5b069050603c81816115b257fe5b04915050919050565b6000603c82816115c757fe5b069050919050565b600080600080849050600062253d8c62010bd98301019050600062023ab182600402816115f857fe5b059050600460038262023ab102018161160d57fe5b0582039150600062164b0960018401610fa0028161162757fe5b059050601f6004826105b5028161163a57fe5b058403019250600061098f846050028161165057fe5b059050600060508261098f028161166357fe5b0585039050600b828161167257fe5b05945084600c0260028301039150848360318603606402010192508298508197508096505050505050509193909250565b828054600181600116156101000203166002900490600052602060002090601f016020900481019282601f106116dc5780548555611719565b8280016001018555821561171957600052602060002091601f016020900482015b828111156117185782548255916001019190600101906116fd565b5b5090506117269190611840565b5090565b50805460018160011615610100020316600290046000825580601f10611750575061176f565b601f01602090049060005260206000209081019061176e9190611840565b5b50565b60405180610120016040528060008152602001600081526020016000815260200160608152602001606081526020016000151581526020016060815260200160608152602001600081525090565b828054600181600116156101000203166002900490600052602060002090601f016020900481019282601f1061180157805160ff191683800117855561182f565b8280016001018555821561182f579182015b8281111561182e578251825591602001919060010190611813565b5b50905061183c9190611840565b5090565b5b80821115611859576000816000905550600101611841565b5090565b60008135905061186c81612322565b92915050565b600082601f83011261188357600080fd5b81356118966118918261221c565b6121ef565b915080825260208301602083018583830111156118b257600080fd5b6118bd8382846122cf565b50505092915050565b6000813590506118d581612339565b92915050565b6000602082840312156118ed57600080fd5b60006118fb848285016118c6565b91505092915050565b600080600080600080600080610100898b03121561192157600080fd5b600061192f8b828c016118c6565b98505060206119408b828c016118c6565b97505060406119518b828c016118c6565b965050606089013567ffffffffffffffff81111561196e57600080fd5b61197a8b828c01611872565b955050608089013567ffffffffffffffff81111561199757600080fd5b6119a38b828c01611872565b94505060a06119b48b828c0161185d565b93505060c089013567ffffffffffffffff8111156119d157600080fd5b6119dd8b828c01611872565b92505060e089013567ffffffffffffffff8111156119fa57600080fd5b611a068b828c01611872565b9150509295985092959890939650565b6000611a228383611e51565b905092915050565b6000611a3582612258565b611a3f818561227b565b935083602082028501611a5185612248565b8060005b85811015611a8d5784840389528151611a6e8582611a16565b9450611a798361226e565b925060208a01995050600181019050611a55565b50829750879550505050505092915050565b611aa8816122b9565b82525050565b6000611ab982612263565b611ac3818561228c565b9350611ad38185602086016122de565b611adc81612311565b840191505092915050565b6000611af282612263565b611afc818561229d565b9350611b0c8185602086016122de565b611b1581612311565b840191505092915050565b6000611b2b82612263565b611b3581856122ae565b9350611b458185602086016122de565b80840191505092915050565b6000611b5e6001836122ae565b91507f30000000000000000000000000000000000000000000000000000000000000006000830152600182019050919050565b6000611b9e6001836122ae565b91507f0a000000000000000000000000000000000000000000000000000000000000006000830152600182019050919050565b6000611bde6008836122ae565b91507f53554d4d4152593a0000000000000000000000000000000000000000000000006000830152600882019050919050565b6000611c1e6005836122ae565b91507f4454454e440000000000000000000000000000000000000000000000000000006000830152600582019050919050565b6000611c5e6007836122ae565b91507f44545354415254000000000000000000000000000000000000000000000000006000830152600782019050919050565b6000611c9e600b836122ae565b91507f454e443a564556454e540a0000000000000000000000000000000000000000006000830152600b82019050919050565b6000611cde6001836122ae565b91507f54000000000000000000000000000000000000000000000000000000000000006000830152600182019050919050565b6000611d1e600c836122ae565b91507f4445534352495054494f4e3a00000000000000000000000000000000000000006000830152600c82019050919050565b6000611d5e6008836122ae565b91507f44545354414d503a0000000000000000000000000000000000000000000000006000830152600882019050919050565b6000611d9e600d836122ae565b91507f424547494e3a564556454e540a000000000000000000000000000000000000006000830152600d82019050919050565b6000611dde6001836122ae565b91507f40000000000000000000000000000000000000000000000000000000000000006000830152600182019050919050565b6000611e1e6004836122ae565b91507f5549443a000000000000000000000000000000000000000000000000000000006000830152600482019050919050565b600061012083016000830151611e6a6000860182611f2b565b506020830151611e7d6020860182611f2b565b506040830151611e906040860182611f2b565b5060608301518482036060860152611ea88282611aae565b91505060808301518482036080860152611ec28282611aae565b91505060a0830151611ed760a0860182611a9f565b5060c083015184820360c0860152611eef8282611aae565b91505060e083015184820360e0860152611f098282611aae565b915050610100830151611f20610100860182611f2b565b508091505092915050565b611f34816122c5565b82525050565b611f43816122c5565b82525050565b6000611f558286611b20565b9150611f618285611b20565b9150611f6d8284611b20565b9150819050949350505050565b6000611f868289611b20565b9150611f928288611b20565b9150611f9e8287611b20565b9150611fa982611cd1565b9150611fb58286611b20565b9150611fc18285611b20565b9150611fcd8284611b20565b9150819050979650505050505050565b6000611fe9828f611b20565b9150611ff482611d91565b9150611fff82611d51565b915061200b828e611b20565b915061201682611b91565b915061202182611e11565b915061202d828d611b20565b915061203882611dd1565b9150612044828c611b20565b915061204f82611b91565b915061205a82611c51565b9150612066828b611b20565b9150612072828a611b20565b915061207e8289611b20565b915061208982611b91565b915061209482611c11565b91506120a08288611b20565b91506120ac8287611b20565b91506120b88286611b20565b91506120c382611b91565b91506120ce82611bd1565b91506120da8285611b20565b91506120e582611b91565b91506120f082611d11565b91506120fc8284611b20565b915061210782611b91565b915061211282611c91565b91508190509d9c50505050505050505050505050565b600061213382611b51565b915061213f8284611b20565b915081905092915050565b600060208201905081810360008301526121648184611a2a565b905092915050565b600060208201905081810360008301526121868184611ae7565b905092915050565b600060c0820190506121a36000830189611f3a565b6121b06020830188611f3a565b6121bd6040830187611f3a565b6121ca6060830186611f3a565b6121d76080830185611f3a565b6121e460a0830184611f3a565b979650505050505050565b6000604051905081810181811067ffffffffffffffff8211171561221257600080fd5b8060405250919050565b600067ffffffffffffffff82111561223357600080fd5b601f19601f8301169050602081019050919050565b6000819050602082019050919050565b600081519050919050565b600081519050919050565b6000602082019050919050565b600082825260208201905092915050565b600082825260208201905092915050565b600082825260208201905092915050565b600081905092915050565b60008115159050919050565b6000819050919050565b82818337600083830152505050565b60005b838110156122fc5780820151818401526020810190506122e1565b8381111561230b576000848401525b50505050565b6000601f19601f8301169050919050565b61232b816122b9565b811461233657600080fd5b50565b612342816122c5565b811461234d57600080fd5b5056fe424547494e3a5643414c454e4441520a56455253494f4e3a322e300a50524f4449443a2d2f2f70726563696f7573636869636b656e2e636f6d2f2f666f726765742d6d652d626c6f636b2d6574682d63616c0a43414c5343414c453a475245474f5249414e0aa2646970667358221220b3cf1317f6bfd24fa23b89a1d5501465a5a65f1f9eb62afa4bb36d2f76cf20bf64736f6c634300060c0033",
  "immutableReferences": {},
  "source": "// SPDX-License-Identifier: MIT\npragma solidity ^0.6.1;\npragma experimental ABIEncoderV2;\n\nimport \"./BokkyPooBahsDateTimeLibrary.sol\";\nimport \"./VEventLibrary.sol\";\n\ncontract CalStore  {\n    using BokkyPooBahsDateTimeLibrary for uint;\n    using VEventLibrary for VEventLibrary.VEvent;\n\n\n    mapping(address => VEventLibrary.VEvent[]) private store;\n    mapping(address => uint) private count;\n\n    function storeEvent(\n        uint _dtstamp, uint _dtstart, uint _dtend,\n        string memory _summary, string memory _description,\n        bool _isallday, string memory _alldaystartdate,\n        string memory _alldayenddate)\n        public\n        {\n        count[msg.sender]++;\n        uint nextId = count[msg.sender];\n        VEventLibrary.VEvent memory newEvent = VEventLibrary.VEvent(\n            _dtstamp,\n            _dtstart,\n            _dtend,\n            _summary,\n            _description,\n            _isallday,\n            _alldaystartdate,\n            _alldayenddate,\n            nextId);\n        store[msg.sender].push(newEvent);\n    }\n\n    function justSayHiCalStore() public pure returns (string memory) {\n        return \"Hi from CalStore\";\n    }\n\n    function removeEvent(uint _dtstamp) public {\n        uint storeLen = store[msg.sender].length;\n        for (uint i = 0; i < storeLen; i++) {\n            if (store[msg.sender][i].dtstamp == _dtstamp) {\n                // Move the last element into the place to delete\n                store[msg.sender][i] = store[msg.sender][storeLen - 1];\n                // Remove the last element\n                store[msg.sender].pop();\n                break;\n            }\n        }\n    }\n\n    // TODO: Is this needed anywhere?  Can I remove?\n    function timestampToDateTime(uint timestamp) public pure returns (uint year, uint month, uint day, uint hour, uint minute, uint second) {\n        (year, month, day, hour, minute, second) = BokkyPooBahsDateTimeLibrary.timestampToDateTime(timestamp);\n    }\n\n    /// @notice Returns iCal string of message senders previously stored data\n    /// @dev TODO: Return if no events?\n    /// @return string iCalendar string iaw RFC 5545\n    function getEventsIcal() public view returns (string memory) {\n        string memory outputString = \"\";\n        string memory vCalHeader = \"BEGIN:VCALENDAR\\nVERSION:2.0\\nPRODID:-//preciouschicken.com//forget-me-block-eth-cal\\nCALSCALE:GREGORIAN\\n\";\n        string memory vCalFooter = \"END:VCALENDAR\\n\";\n        VEventLibrary.VEvent[] memory ownerEvent = store[msg.sender];\n        string memory ownerStr = addressToStr(msg.sender);\n\n        for (uint i = 0; i < ownerEvent.length; i++) {\n            string memory dtstamp = unixTimeToStr(ownerEvent[i].dtstamp);\n            string memory uid = uintToStr(ownerEvent[i].uid);\n            string memory summary = ownerEvent[i].summary;\n            string memory description = ownerEvent[i].description;\n            string memory allday;\n            string memory dtstart;\n            string memory dtend;\n            string memory utcmark;\n            if (ownerEvent[i].isallday) {\n                allday = \";VALUE=DATE:\";\n                dtstart = ownerEvent[i].alldaystartdate;\n                dtend = ownerEvent[i].alldayenddate;\n                utcmark = \"\";\n            } else {\n                allday = \":\";\n                dtstart = unixTimeToStr(ownerEvent[i].dtstart);\n                dtend = unixTimeToStr(ownerEvent[i].dtend);\n                utcmark = \"Z\";\n            }\n            outputString = string(\n                abi.encodePacked(outputString,\"BEGIN:VEVENT\\n\",\n                                 \"DTSTAMP:\", dtstamp, \"\\n\",\n                                 \"UID:\", uid, \"@\", ownerStr, \"\\n\",\n                                 \"DTSTART\", allday, dtstart, utcmark, \"\\n\",\n                                 \"DTEND\", allday, dtend, utcmark, \"\\n\",\n                                 \"SUMMARY:\", summary, \"\\n\",\n                                 \"DESCRIPTION:\", description, \"\\n\",\n                                 \"END:VEVENT\\n\"\n                                )\n            );\n        }\n        return string(abi.encodePacked(vCalHeader, outputString, vCalFooter));\n    }\n\n\n    function unixTimeToStr(uint _unixTime) private pure returns (string memory) {\n        return string(\n            abi.encodePacked(\n                leadingZeroAdd(BokkyPooBahsDateTimeLibrary.getYear(_unixTime)),\n                leadingZeroAdd(BokkyPooBahsDateTimeLibrary.getMonth(_unixTime)),\n                leadingZeroAdd(BokkyPooBahsDateTimeLibrary.getDay(_unixTime)),\n                \"T\",\n                leadingZeroAdd(BokkyPooBahsDateTimeLibrary.getHour(_unixTime)),\n                leadingZeroAdd(BokkyPooBahsDateTimeLibrary.getMinute(_unixTime)),\n                leadingZeroAdd(BokkyPooBahsDateTimeLibrary.getSecond(_unixTime))\n        )\n        );\n    }\n\n    function leadingZeroAdd(uint _timePoint) private pure returns (string memory) {\n        string memory timeStr;\n        uint requiresZero = 9; // Time points less than 9 require leading zero\n        if (_timePoint > requiresZero ) {\n            timeStr = uintToStr(_timePoint);\n        } else {\n            timeStr = string(abi.encodePacked(\"0\", uintToStr(_timePoint)));\n        }\n        return timeStr;\n    }\n\n    // Returns all msg for msg.sender, regardless of time\n    function getEventsObj() public view returns (VEventLibrary.VEvent[] memory) {\n        VEventLibrary.VEvent[] memory tempData = store[msg.sender];\n        return tempData;\n    }\n\n    /// @notice converts number to string\n    /// @dev source: https://github.com/provable-things/ethereum-api/blob/master/oraclizeAPI_0.5.sol#L1045\n    /// @param _i integer to convert\n    /// @return _uintAsString string\n    function uintToStr(uint _i) internal pure returns (string memory _uintAsString) {\n        uint number = _i;\n        if (number == 0) {\n            return \"0\";\n        }\n        uint j = number;\n        uint len;\n        while (j != 0) {\n            len++;\n            j /= 10;\n        }\n        bytes memory bstr = new bytes(len);\n        uint k = len - 1;\n        while (number != 0) {\n            bstr[k--] = byte(uint8(48 + number % 10));\n            number /= 10;\n        }\n        return string(bstr);\n    }\n\n    /// @notice converts address to string\n    /// @dev source: https://ethereum.stackexchange.com/a/8447/61217\n    /// @param _add address\n    /// @return string\n    function addressToStr(address _add) internal pure returns (string memory) {\n        bytes memory s = new bytes(40);\n        for (uint i = 0; i < 20; i++) {\n            byte b = byte(uint8(uint(_add) / (2**(8*(19 - i)))));\n            byte hi = byte(uint8(b) / 16);\n            byte lo = byte(uint8(b) - 16 * uint8(hi));\n            s[2*i] = char(hi);\n            s[2*i+1] = char(lo);\n        }\n        return string(s);\n    }\n\n    /// @notice character conversion for addressToStr\n    /// @dev source: https://ethereum.stackexchange.com/a/8447/61217\n    /// @param _b byte\n    /// @return c byte\n    function char(byte _b) internal pure returns (byte c) {\n        if (uint8(_b) < 10) {\n            return byte(uint8(_b) + 0x30);\n        } else {\n            return byte(uint8(_b) + 0x57);\n        }\n    }\n}\n\n",
  "sourcePath": "/home/gene/Programming/Websites/Precious_Chicken_Website/blog_code_demos/forget-me-block-eth-cal-auth/contracts/CalStore.sol",
  "compiler": {
    "name": "solc",
    "version": "0.6.12+commit.27d51765.Emscripten.clang"
  },
  "schemaVersion": "3.2.3",
  "updatedAt": "2020-08-17T11:49:56.219Z",
  "networkType": "ethereum",
  "devdoc": {
    "kind": "dev",
    "methods": {
      "getEventsIcal()": {
        "details": "TODO: Return if no events?",
        "returns": {
          "_0": "string iCalendar string iaw RFC 5545"
        }
      }
    },
    "version": 1
  },
  "userdoc": {
    "kind": "user",
    "methods": {
      "getEventsIcal()": {
        "notice": "Returns iCal string of message senders previously stored data"
      }
    },
    "version": 1
  }
}