{
  "contractName": "CalStore",
  "abi": [
    {
      "inputs": [
        {
          "internalType": "contract CalAuth",
          "name": "_CalAuth",
          "type": "address"
        }
      ],
      "stateMutability": "nonpayable",
      "type": "constructor"
    },
    {
      "inputs": [],
      "name": "authorityHi",
      "outputs": [
        {
          "internalType": "string",
          "name": "",
          "type": "string"
        }
      ],
      "stateMutability": "view",
      "type": "function",
      "constant": true
    },
    {
      "inputs": [
        {
          "internalType": "uint256",
          "name": "_dtstamp",
          "type": "uint256"
        },
        {
          "internalType": "uint256",
          "name": "_dtstart",
          "type": "uint256"
        },
        {
          "internalType": "uint256",
          "name": "_dtend",
          "type": "uint256"
        },
        {
          "internalType": "string",
          "name": "_summary",
          "type": "string"
        },
        {
          "internalType": "string",
          "name": "_description",
          "type": "string"
        },
        {
          "internalType": "bool",
          "name": "_isallday",
          "type": "bool"
        },
        {
          "internalType": "string",
          "name": "_alldaystartdate",
          "type": "string"
        },
        {
          "internalType": "string",
          "name": "_alldayenddate",
          "type": "string"
        }
      ],
      "name": "storeEvent",
      "outputs": [],
      "stateMutability": "nonpayable",
      "type": "function"
    },
    {
      "inputs": [],
      "name": "justSayHiCalStore",
      "outputs": [
        {
          "internalType": "string",
          "name": "",
          "type": "string"
        }
      ],
      "stateMutability": "pure",
      "type": "function",
      "constant": true
    },
    {
      "inputs": [
        {
          "internalType": "uint256",
          "name": "_dtstamp",
          "type": "uint256"
        }
      ],
      "name": "removeEvent",
      "outputs": [],
      "stateMutability": "nonpayable",
      "type": "function"
    },
    {
      "inputs": [
        {
          "internalType": "uint256",
          "name": "timestamp",
          "type": "uint256"
        }
      ],
      "name": "timestampToDateTime",
      "outputs": [
        {
          "internalType": "uint256",
          "name": "year",
          "type": "uint256"
        },
        {
          "internalType": "uint256",
          "name": "month",
          "type": "uint256"
        },
        {
          "internalType": "uint256",
          "name": "day",
          "type": "uint256"
        },
        {
          "internalType": "uint256",
          "name": "hour",
          "type": "uint256"
        },
        {
          "internalType": "uint256",
          "name": "minute",
          "type": "uint256"
        },
        {
          "internalType": "uint256",
          "name": "second",
          "type": "uint256"
        }
      ],
      "stateMutability": "pure",
      "type": "function",
      "constant": true
    },
    {
      "inputs": [
        {
          "internalType": "address",
          "name": "_calOwner",
          "type": "address"
        }
      ],
      "name": "getEventsIcal",
      "outputs": [
        {
          "internalType": "string",
          "name": "",
          "type": "string"
        }
      ],
      "stateMutability": "view",
      "type": "function",
      "constant": true
    },
    {
      "inputs": [
        {
          "internalType": "address",
          "name": "_calOwner",
          "type": "address"
        }
      ],
      "name": "getEventsObj",
      "outputs": [
        {
          "components": [
            {
              "internalType": "uint256",
              "name": "dtstamp",
              "type": "uint256"
            },
            {
              "internalType": "uint256",
              "name": "dtstart",
              "type": "uint256"
            },
            {
              "internalType": "uint256",
              "name": "dtend",
              "type": "uint256"
            },
            {
              "internalType": "string",
              "name": "summary",
              "type": "string"
            },
            {
              "internalType": "string",
              "name": "description",
              "type": "string"
            },
            {
              "internalType": "bool",
              "name": "isallday",
              "type": "bool"
            },
            {
              "internalType": "string",
              "name": "alldaystartdate",
              "type": "string"
            },
            {
              "internalType": "string",
              "name": "alldayenddate",
              "type": "string"
            },
            {
              "internalType": "uint256",
              "name": "uid",
              "type": "uint256"
            }
          ],
          "internalType": "struct CalStore.VEvent[]",
          "name": "",
          "type": "tuple[]"
        }
      ],
      "stateMutability": "view",
      "type": "function",
      "constant": true
    }
  ],
  "bytecode": "0x60806040523480156200001157600080fd5b506040516200442d3803806200442d8339818101604052810190620000379190620000cf565b6040516200004590620000aa565b604051809103906000f08015801562000062573d6000803e3d6000fd5b50600260006101000a81548173ffffffffffffffffffffffffffffffffffffffff021916908373ffffffffffffffffffffffffffffffffffffffff160217905550506200015d565b611cab806200278283390190565b600081519050620000c98162000143565b92915050565b600060208284031215620000e257600080fd5b6000620000f284828501620000b8565b91505092915050565b6000620001088262000123565b9050919050565b60006200011c82620000fb565b9050919050565b600073ffffffffffffffffffffffffffffffffffffffff82169050919050565b6200014e816200010f565b81146200015a57600080fd5b50565b612615806200016d6000396000f3fe608060405234801561001057600080fd5b506004361061007d5760003560e01c8063726e8ce21161005b578063726e8ce2146100fe578063ab7cc4d21461011c578063ea1c169014610138578063fcf0d2eb1461016d5761007d565b806310d00a671461008257806356164e1e146100b25780636d183b02146100ce575b600080fd5b61009c60048036038101906100979190611a51565b61018b565b6040516100a9919061234c565b60405180910390f35b6100cc60048036038101906100c79190611abb565b6107ce565b005b6100e860048036038101906100e39190611a51565b610b15565b6040516100f5919061232a565b60405180910390f35b610106610e83565b604051610113919061234c565b60405180910390f35b61013660048036038101906101319190611ae4565b610f2f565b005b610152600480360381019061014d9190611abb565b611141565b6040516101649695949392919061236e565b60405180910390f35b610175611174565b604051610182919061234c565b60405180910390f35b60608060405180602001604052806000815250905060606040518060a001604052806066815260200161257a60669139905060606040518060400160405280600e81526020017f454e443a5643414c454e4441520a000000000000000000000000000000000000815250905060606000808773ffffffffffffffffffffffffffffffffffffffff1673ffffffffffffffffffffffffffffffffffffffff168152602001908152602001600020805480602002602001604051908101604052809291908181526020016000905b82821015610555578382906000526020600020906009020160405180610120016040529081600082015481526020016001820154815260200160028201548152602001600382018054600181600116156101000203166002900480601f0160208091040260200160405190810160405280929190818152602001828054600181600116156101000203166002900480156103325780601f1061030757610100808354040283529160200191610332565b820191906000526020600020905b81548152906001019060200180831161031557829003601f168201915b50505050508152602001600482018054600181600116156101000203166002900480601f0160208091040260200160405190810160405280929190818152602001828054600181600116156101000203166002900480156103d45780601f106103a9576101008083540402835291602001916103d4565b820191906000526020600020905b8154815290600101906020018083116103b757829003601f168201915b505050505081526020016005820160009054906101000a900460ff16151515158152602001600682018054600181600116156101000203166002900480601f0160208091040260200160405190810160405280929190818152602001828054600181600116156101000203166002900480156104915780601f1061046657610100808354040283529160200191610491565b820191906000526020600020905b81548152906001019060200180831161047457829003601f168201915b50505050508152602001600782018054600181600116156101000203166002900480601f0160208091040260200160405190810160405280929190818152602001828054600181600116156101000203166002900480156105335780601f1061050857610100808354040283529160200191610533565b820191906000526020600020905b81548152906001019060200180831161051657829003601f168201915b5050505050815260200160088201548152505081526020019060010190610257565b5050505090506060610566876111b1565b905060005b825181101561079d57606061059684838151811061058557fe5b602002602001015160000151611314565b905060606105bb8584815181106105a957fe5b602002602001015161010001516113a7565b905060608584815181106105cb57fe5b602002602001015160600151905060608685815181106105e757fe5b60200260200101516080015190506060806060808a898151811061060757fe5b602002602001015160a001511561069b576040518060400160405280600c81526020017f3b56414c55453d444154453a000000000000000000000000000000000000000081525093508a898151811061065c57fe5b602002602001015160c0015192508a898151811061067657fe5b602002602001015160e001519150604051806020016040528060008152509050610750565b6040518060400160405280600181526020017f3a0000000000000000000000000000000000000000000000000000000000000081525093506106f38b8a815181106106e257fe5b602002602001015160200151611314565b92506107158b8a8151811061070457fe5b602002602001015160400151611314565b91506040518060400160405280600181526020017f5a0000000000000000000000000000000000000000000000000000000000000081525090505b8d88888c8787868a89898f8f6040516020016107779c9b9a999897969594939291906121bd565b6040516020818303038152906040529d505050505050505050808060010191505061056b565b508385846040516020016107b393929190612129565b60405160208183030381529060405295505050505050919050565b60008060003373ffffffffffffffffffffffffffffffffffffffff1673ffffffffffffffffffffffffffffffffffffffff16815260200190815260200160002080549050905060005b81811015610b1057826000803373ffffffffffffffffffffffffffffffffffffffff1673ffffffffffffffffffffffffffffffffffffffff168152602001908152602001600020828154811061086957fe5b9060005260206000209060090201600001541415610b03576000803373ffffffffffffffffffffffffffffffffffffffff1673ffffffffffffffffffffffffffffffffffffffff16815260200190815260200160002060018303815481106108cd57fe5b90600052602060002090600902016000803373ffffffffffffffffffffffffffffffffffffffff1673ffffffffffffffffffffffffffffffffffffffff168152602001908152602001600020828154811061092457fe5b9060005260206000209060090201600082015481600001556001820154816001015560028201548160020155600382018160030190805460018160011615610100020316600290046109779291906117b0565b506004820181600401908054600181600116156101000203166002900461099f9291906117b0565b506005820160009054906101000a900460ff168160050160006101000a81548160ff021916908315150217905550600682018160060190805460018160011615610100020316600290046109f49291906117b0565b5060078201816007019080546001816001161561010002031660029004610a1c9291906117b0565b50600882015481600801559050506000803373ffffffffffffffffffffffffffffffffffffffff1673ffffffffffffffffffffffffffffffffffffffff168152602001908152602001600020805480610a7157fe5b600190038181906000526020600020906009020160008082016000905560018201600090556002820160009055600382016000610aae9190611837565b600482016000610abe9190611837565b6005820160006101000a81549060ff0219169055600682016000610ae29190611837565b600782016000610af29190611837565b600882016000905550509055610b10565b8080600101915050610817565b505050565b6060806000808473ffffffffffffffffffffffffffffffffffffffff1673ffffffffffffffffffffffffffffffffffffffff168152602001908152602001600020805480602002602001604051908101604052809291908181526020016000905b82821015610e74578382906000526020600020906009020160405180610120016040529081600082015481526020016001820154815260200160028201548152602001600382018054600181600116156101000203166002900480601f016020809104026020016040519081016040528092919081815260200182805460018160011615610100020316600290048015610c515780601f10610c2657610100808354040283529160200191610c51565b820191906000526020600020905b815481529060010190602001808311610c3457829003601f168201915b50505050508152602001600482018054600181600116156101000203166002900480601f016020809104026020016040519081016040528092919081815260200182805460018160011615610100020316600290048015610cf35780601f10610cc857610100808354040283529160200191610cf3565b820191906000526020600020905b815481529060010190602001808311610cd657829003601f168201915b505050505081526020016005820160009054906101000a900460ff16151515158152602001600682018054600181600116156101000203166002900480601f016020809104026020016040519081016040528092919081815260200182805460018160011615610100020316600290048015610db05780601f10610d8557610100808354040283529160200191610db0565b820191906000526020600020905b815481529060010190602001808311610d9357829003601f168201915b50505050508152602001600782018054600181600116156101000203166002900480601f016020809104026020016040519081016040528092919081815260200182805460018160011615610100020316600290048015610e525780601f10610e2757610100808354040283529160200191610e52565b820191906000526020600020905b815481529060010190602001808311610e3557829003601f168201915b5050505050815260200160088201548152505081526020019060010190610b76565b50505050905080915050919050565b6060600260009054906101000a900473ffffffffffffffffffffffffffffffffffffffff1673ffffffffffffffffffffffffffffffffffffffff1663553bae646040518163ffffffff1660e01b815260040160006040518083038186803b158015610eed57600080fd5b505afa158015610f01573d6000803e3d6000fd5b505050506040513d6000823e3d601f19601f82011682018060405250810190610f2a9190611a7a565b905090565b600160003373ffffffffffffffffffffffffffffffffffffffff1673ffffffffffffffffffffffffffffffffffffffff168152602001908152602001600020600081548092919060010191905055506000600160003373ffffffffffffffffffffffffffffffffffffffff1673ffffffffffffffffffffffffffffffffffffffff168152602001908152602001600020549050610fca61187f565b6040518061012001604052808b81526020018a815260200189815260200188815260200187815260200186151581526020018581526020018481526020018381525090506000803373ffffffffffffffffffffffffffffffffffffffff1673ffffffffffffffffffffffffffffffffffffffff16815260200190815260200160002081908060018154018082558091505060019003906000526020600020906009020160009091909190915060008201518160000155602082015181600101556040820151816002015560608201518160030190805190602001906110b09291906118cd565b5060808201518160040190805190602001906110cd9291906118cd565b5060a08201518160050160006101000a81548160ff02191690831515021790555060c082015181600601908051906020019061110a9291906118cd565b5060e08201518160070190805190602001906111279291906118cd565b506101008201518160080155505050505050505050505050565b600080600080600080611153876114f2565b809650819750829850839950849a50859b5050505050505091939550919395565b60606040518060400160405280601081526020017f48692066726f6d2043616c53746f726500000000000000000000000000000000815250905090565b606080602867ffffffffffffffff811180156111cc57600080fd5b506040519080825280601f01601f1916602001820160405280156111ff5781602001600182028036833780820191505090505b50905060005b601481101561130a5760008160130360080260020a8573ffffffffffffffffffffffffffffffffffffffff168161123857fe5b0460f81b9050600060108260f81c60ff168161125057fe5b0460f81b905060008160f81c6010028360f81c0360f81b90506112728261156d565b85856002028151811061128157fe5b60200101907effffffffffffffffffffffffffffffffffffffffffffffffffffffffffffff1916908160001a9053506112b98161156d565b8560018660020201815181106112cb57fe5b60200101907effffffffffffffffffffffffffffffffffffffffffffffffffffffffffffff1916908160001a9053505050508080600101915050611205565b5080915050919050565b6060611327611322836115a1565b6115ce565b61133861133384611624565b6115ce565b61134961134485611651565b6115ce565b61135a6113558661167e565b6115ce565b61136b611366876116a4565b6115ce565b61137c611377886116c8565b6115ce565b6040516020016113919695949392919061215a565b6040516020818303038152906040529050919050565b6060600082905060008114156113f5576040518060400160405280600181526020017f30000000000000000000000000000000000000000000000000000000000000008152509150506114ed565b600081905060005b6000821461141f578080600101915050600a828161141757fe5b0491506113fd565b60608167ffffffffffffffff8111801561143857600080fd5b506040519080825280601f01601f19166020018201604052801561146b5781602001600182028036833780820191505090505b50905060006001830390505b600085146114e457600a858161148957fe5b0660300160f81b828280600190039350815181106114a357fe5b60200101907effffffffffffffffffffffffffffffffffffffffffffffffffffffffffffff1916908160001a905350600a85816114dc57fe5b049450611477565b81955050505050505b919050565b60008060008060008061151062015180888161150a57fe5b046116dc565b809650819750829850505050600062015180888161152a57fe5b069050610e10818161153857fe5b049350610e10818161154657fe5b069050603c818161155357fe5b049250603c818161156057fe5b0691505091939550919395565b6000600a8260f81c60ff16101561158f5760308260f81c0160f81b905061159c565b60578260f81c0160f81b90505b919050565b60008060006115bb6201518085816115b557fe5b046116dc565b8093508194508295505050505050919050565b606080600060099050808411156115ef576115e8846113a7565b915061161a565b6115f8846113a7565b6040516020016116089190612308565b60405160208183030381529060405291505b8192505050919050565b600080600061163e62015180858161163857fe5b046116dc565b8093508195508294505050505050919050565b600080600061166b62015180858161166557fe5b046116dc565b8095508193508294505050505050919050565b60008062015180838161168d57fe5b069050610e10818161169b57fe5b04915050919050565b600080610e1083816116b257fe5b069050603c81816116bf57fe5b04915050919050565b6000603c82816116d457fe5b069050919050565b600080600080849050600062253d8c62010bd98301019050600062023ab1826004028161170557fe5b059050600460038262023ab102018161171a57fe5b0582039150600062164b0960018401610fa0028161173457fe5b059050601f6004826105b5028161174757fe5b058403019250600061098f846050028161175d57fe5b059050600060508261098f028161177057fe5b0585039050600b828161177f57fe5b05945084600c0260028301039150848360318603606402010192508298508197508096505050505050509193909250565b828054600181600116156101000203166002900490600052602060002090601f016020900481019282601f106117e95780548555611826565b8280016001018555821561182657600052602060002091601f016020900482015b8281111561182557825482559160010191906001019061180a565b5b509050611833919061194d565b5090565b50805460018160011615610100020316600290046000825580601f1061185d575061187c565b601f01602090049060005260206000209081019061187b919061194d565b5b50565b60405180610120016040528060008152602001600081526020016000815260200160608152602001606081526020016000151581526020016060815260200160608152602001600081525090565b828054600181600116156101000203166002900490600052602060002090601f016020900481019282601f1061190e57805160ff191683800117855561193c565b8280016001018555821561193c579182015b8281111561193b578251825591602001919060010190611920565b5b509050611949919061194d565b5090565b5b8082111561196657600081600090555060010161194e565b5090565b60008135905061197981612534565b92915050565b60008135905061198e8161254b565b92915050565b600082601f8301126119a557600080fd5b81356119b86119b3826123fc565b6123cf565b915080825260208301602083018583830111156119d457600080fd5b6119df8382846124e1565b50505092915050565b600082601f8301126119f957600080fd5b8151611a0c611a07826123fc565b6123cf565b91508082526020830160208301858383011115611a2857600080fd5b611a338382846124f0565b50505092915050565b600081359050611a4b81612562565b92915050565b600060208284031215611a6357600080fd5b6000611a718482850161196a565b91505092915050565b600060208284031215611a8c57600080fd5b600082015167ffffffffffffffff811115611aa657600080fd5b611ab2848285016119e8565b91505092915050565b600060208284031215611acd57600080fd5b6000611adb84828501611a3c565b91505092915050565b600080600080600080600080610100898b031215611b0157600080fd5b6000611b0f8b828c01611a3c565b9850506020611b208b828c01611a3c565b9750506040611b318b828c01611a3c565b965050606089013567ffffffffffffffff811115611b4e57600080fd5b611b5a8b828c01611994565b955050608089013567ffffffffffffffff811115611b7757600080fd5b611b838b828c01611994565b94505060a0611b948b828c0161197f565b93505060c089013567ffffffffffffffff811115611bb157600080fd5b611bbd8b828c01611994565b92505060e089013567ffffffffffffffff811115611bda57600080fd5b611be68b828c01611994565b9150509295985092959890939650565b6000611c028383612031565b905092915050565b6000611c1582612438565b611c1f818561245b565b935083602082028501611c3185612428565b8060005b85811015611c6d5784840389528151611c4e8582611bf6565b9450611c598361244e565b925060208a01995050600181019050611c35565b50829750879550505050505092915050565b611c88816124ab565b82525050565b6000611c9982612443565b611ca3818561246c565b9350611cb38185602086016124f0565b611cbc81612523565b840191505092915050565b6000611cd282612443565b611cdc818561247d565b9350611cec8185602086016124f0565b611cf581612523565b840191505092915050565b6000611d0b82612443565b611d15818561248e565b9350611d258185602086016124f0565b80840191505092915050565b6000611d3e60018361248e565b91507f30000000000000000000000000000000000000000000000000000000000000006000830152600182019050919050565b6000611d7e60018361248e565b91507f0a000000000000000000000000000000000000000000000000000000000000006000830152600182019050919050565b6000611dbe60088361248e565b91507f53554d4d4152593a0000000000000000000000000000000000000000000000006000830152600882019050919050565b6000611dfe60058361248e565b91507f4454454e440000000000000000000000000000000000000000000000000000006000830152600582019050919050565b6000611e3e60078361248e565b91507f44545354415254000000000000000000000000000000000000000000000000006000830152600782019050919050565b6000611e7e600b8361248e565b91507f454e443a564556454e540a0000000000000000000000000000000000000000006000830152600b82019050919050565b6000611ebe60018361248e565b91507f54000000000000000000000000000000000000000000000000000000000000006000830152600182019050919050565b6000611efe600c8361248e565b91507f4445534352495054494f4e3a00000000000000000000000000000000000000006000830152600c82019050919050565b6000611f3e60088361248e565b91507f44545354414d503a0000000000000000000000000000000000000000000000006000830152600882019050919050565b6000611f7e600d8361248e565b91507f424547494e3a564556454e540a000000000000000000000000000000000000006000830152600d82019050919050565b6000611fbe60018361248e565b91507f40000000000000000000000000000000000000000000000000000000000000006000830152600182019050919050565b6000611ffe60048361248e565b91507f5549443a000000000000000000000000000000000000000000000000000000006000830152600482019050919050565b60006101208301600083015161204a600086018261210b565b50602083015161205d602086018261210b565b506040830151612070604086018261210b565b50606083015184820360608601526120888282611c8e565b915050608083015184820360808601526120a28282611c8e565b91505060a08301516120b760a0860182611c7f565b5060c083015184820360c08601526120cf8282611c8e565b91505060e083015184820360e08601526120e98282611c8e565b91505061010083015161210061010086018261210b565b508091505092915050565b612114816124d7565b82525050565b612123816124d7565b82525050565b60006121358286611d00565b91506121418285611d00565b915061214d8284611d00565b9150819050949350505050565b60006121668289611d00565b91506121728288611d00565b915061217e8287611d00565b915061218982611eb1565b91506121958286611d00565b91506121a18285611d00565b91506121ad8284611d00565b9150819050979650505050505050565b60006121c9828f611d00565b91506121d482611f71565b91506121df82611f31565b91506121eb828e611d00565b91506121f682611d71565b915061220182611ff1565b915061220d828d611d00565b915061221882611fb1565b9150612224828c611d00565b915061222f82611d71565b915061223a82611e31565b9150612246828b611d00565b9150612252828a611d00565b915061225e8289611d00565b915061226982611d71565b915061227482611df1565b91506122808288611d00565b915061228c8287611d00565b91506122988286611d00565b91506122a382611d71565b91506122ae82611db1565b91506122ba8285611d00565b91506122c582611d71565b91506122d082611ef1565b91506122dc8284611d00565b91506122e782611d71565b91506122f282611e71565b91508190509d9c50505050505050505050505050565b600061231382611d31565b915061231f8284611d00565b915081905092915050565b600060208201905081810360008301526123448184611c0a565b905092915050565b600060208201905081810360008301526123668184611cc7565b905092915050565b600060c082019050612383600083018961211a565b612390602083018861211a565b61239d604083018761211a565b6123aa606083018661211a565b6123b7608083018561211a565b6123c460a083018461211a565b979650505050505050565b6000604051905081810181811067ffffffffffffffff821117156123f257600080fd5b8060405250919050565b600067ffffffffffffffff82111561241357600080fd5b601f19601f8301169050602081019050919050565b6000819050602082019050919050565b600081519050919050565b600081519050919050565b6000602082019050919050565b600082825260208201905092915050565b600082825260208201905092915050565b600082825260208201905092915050565b600081905092915050565b60006124a4826124b7565b9050919050565b60008115159050919050565b600073ffffffffffffffffffffffffffffffffffffffff82169050919050565b6000819050919050565b82818337600083830152505050565b60005b8381101561250e5780820151818401526020810190506124f3565b8381111561251d576000848401525b50505050565b6000601f19601f8301169050919050565b61253d81612499565b811461254857600080fd5b50565b612554816124ab565b811461255f57600080fd5b50565b61256b816124d7565b811461257657600080fd5b5056fe424547494e3a5643414c454e4441520a56455253494f4e3a322e300a50524f4449443a2d2f2f70726563696f7573636869636b656e2e636f6d2f2f666f726765742d6d652d626c6f636b2d6574682d63616c0a43414c5343414c453a475245474f5249414e0aa26469706673582212201f1696b9cd5cee5fc2d6d8c87e9d820064a080522bd10201996920aaf5e2dbfe64736f6c634300060c003360806040523480156200001157600080fd5b50600062000024620000dd60201b60201c565b9050806000806101000a81548173ffffffffffffffffffffffffffffffffffffffff021916908373ffffffffffffffffffffffffffffffffffffffff1602179055508073ffffffffffffffffffffffffffffffffffffffff16600073ffffffffffffffffffffffffffffffffffffffff167f8be0079c531659141344cd1fd0a4f28419497f9722a3daafe3b4186f6b6457e060405160405180910390a350620000d76000801b33620000e560201b60201c565b62000274565b600033905090565b620000f78282620000fb60201b60201c565b5050565b6200012a81600160008581526020019081526020016000206000016200019f60201b6200151d1790919060201c565b156200019b5762000140620000dd60201b60201c565b73ffffffffffffffffffffffffffffffffffffffff168173ffffffffffffffffffffffffffffffffffffffff16837f2f8788117e7eff1d82e926ec794901d17c78024a50270940304540a733656f0d60405160405180910390a45b5050565b6000620001cf836000018373ffffffffffffffffffffffffffffffffffffffff1660001b620001d760201b60201c565b905092915050565b6000620001eb83836200025160201b60201c565b620002465782600001829080600181540180825580915050600190039060005260206000200160009091909190915055826000018054905083600101600084815260200190815260200160002081905550600190506200024b565b600090505b92915050565b600080836001016000848152602001908152602001600020541415905092915050565b611a2780620002846000396000f3fe608060405234801561001057600080fd5b50600436106101375760003560e01c8063869cd0c1116100b8578063bf04a10d1161007c578063bf04a10d14610570578063ca15c873146105f3578063d547741f14610635578063ee1bf5db14610683578063f2fde38b146106a1578063fd4a74a1146106e557610137565b8063869cd0c1146103d55780638da5cb5b146104585780639010d07c1461048c57806391d14854146104ee578063a217fddf1461055257610137565b806336568abe116100ff57806336568abe14610272578063553bae64146102c0578063607360d3146103435780636bf7e0bb14610387578063715018a6146103cb57610137565b80631d5ad45b1461013c5780631f79ec0914610180578063248a9ca3146101c4578063283e8442146102065780632f2ff15d14610224575b600080fd5b61017e6004803603602081101561015257600080fd5b81019080803573ffffffffffffffffffffffffffffffffffffffff169060200190929190505050610768565b005b6101c26004803603602081101561019657600080fd5b81019080803573ffffffffffffffffffffffffffffffffffffffff16906020019092919050505061085d565b005b6101f0600480360360208110156101da57600080fd5b8101908080359060200190929190505050610952565b6040518082815260200191505060405180910390f35b61020e610972565b6040518082815260200191505060405180910390f35b6102706004803603604081101561023a57600080fd5b8101908080359060200190929190803573ffffffffffffffffffffffffffffffffffffffff169060200190929190505050610996565b005b6102be6004803603604081101561028857600080fd5b8101908080359060200190929190803573ffffffffffffffffffffffffffffffffffffffff169060200190929190505050610a20565b005b6102c8610ab9565b6040518080602001828103825283818151815260200191508051906020019080838360005b838110156103085780820151818401526020810190506102ed565b50505050905090810190601f1680156103355780820380516001836020036101000a031916815260200191505b509250505060405180910390f35b6103856004803603602081101561035957600080fd5b81019080803573ffffffffffffffffffffffffffffffffffffffff169060200190929190505050610af6565b005b6103c96004803603602081101561039d57600080fd5b81019080803573ffffffffffffffffffffffffffffffffffffffff169060200190929190505050610beb565b005b6103d3610ce0565b005b6103dd610e66565b6040518080602001828103825283818151815260200191508051906020019080838360005b8381101561041d578082015181840152602081019050610402565b50505050905090810190601f16801561044a5780820380516001836020036101000a031916815260200191505b509250505060405180910390f35b610460610f6b565b604051808273ffffffffffffffffffffffffffffffffffffffff16815260200191505060405180910390f35b6104c2600480360360408110156104a257600080fd5b810190808035906020019092919080359060200190929190505050610f94565b604051808273ffffffffffffffffffffffffffffffffffffffff16815260200191505060405180910390f35b61053a6004803603604081101561050457600080fd5b8101908080359060200190929190803573ffffffffffffffffffffffffffffffffffffffff169060200190929190505050610fc6565b60405180821515815260200191505060405180910390f35b61055a610ff8565b6040518082815260200191505060405180910390f35b610578610fff565b6040518080602001828103825283818151815260200191508051906020019080838360005b838110156105b857808201518184015260208101905061059d565b50505050905090810190601f1680156105e55780820380516001836020036101000a031916815260200191505b509250505060405180910390f35b61061f6004803603602081101561060957600080fd5b8101908080359060200190929190505050611164565b6040518082815260200191505060405180910390f35b6106816004803603604081101561064b57600080fd5b8101908080359060200190929190803573ffffffffffffffffffffffffffffffffffffffff16906020019092919050505061118b565b005b61068b611215565b6040518082815260200191505060405180910390f35b6106e3600480360360208110156106b757600080fd5b81019080803573ffffffffffffffffffffffffffffffffffffffff169060200190929190505050611239565b005b6106ed611444565b6040518080602001828103825283818151815260200191508051906020019080838360005b8381101561072d578082015181840152602081019050610712565b50505050905090810190601f16801561075a5780820380516001836020036101000a031916815260200191505b509250505060405180910390f35b61077061154d565b73ffffffffffffffffffffffffffffffffffffffff1660008054906101000a900473ffffffffffffffffffffffffffffffffffffffff1673ffffffffffffffffffffffffffffffffffffffff1614610830576040517f08c379a00000000000000000000000000000000000000000000000000000000081526004018080602001828103825260208152602001807f4f776e61626c653a2063616c6c6572206973206e6f7420746865206f776e657281525060200191505060405180910390fd5b61085a7f60b176c013bc5f6a4aaf9c1455cc3ff5e7ee54daffb41be2fd0e50b804acad4282610996565b50565b61086561154d565b73ffffffffffffffffffffffffffffffffffffffff1660008054906101000a900473ffffffffffffffffffffffffffffffffffffffff1673ffffffffffffffffffffffffffffffffffffffff1614610925576040517f08c379a00000000000000000000000000000000000000000000000000000000081526004018080602001828103825260208152602001807f4f776e61626c653a2063616c6c6572206973206e6f7420746865206f776e657281525060200191505060405180910390fd5b61094f7f238cc277b81124817de0fb6e725dfaca359442ead042cbf4fa5a5d15a441d4548261118b565b50565b600060016000838152602001908152602001600020600201549050919050565b7f60b176c013bc5f6a4aaf9c1455cc3ff5e7ee54daffb41be2fd0e50b804acad4281565b6109bd60016000848152602001908152602001600020600201546109b861154d565b610fc6565b610a12576040517f08c379a000000000000000000000000000000000000000000000000000000000815260040180806020018281038252602f81526020018061193e602f913960400191505060405180910390fd5b610a1c8282611555565b5050565b610a2861154d565b73ffffffffffffffffffffffffffffffffffffffff168173ffffffffffffffffffffffffffffffffffffffff1614610aab576040517f08c379a000000000000000000000000000000000000000000000000000000000815260040180806020018281038252602f8152602001806119c3602f913960400191505060405180910390fd5b610ab582826115e9565b5050565b60606040518060400160405280600f81526020017f48692066726f6d2043616c417574680000000000000000000000000000000000815250905090565b610afe61154d565b73ffffffffffffffffffffffffffffffffffffffff1660008054906101000a900473ffffffffffffffffffffffffffffffffffffffff1673ffffffffffffffffffffffffffffffffffffffff1614610bbe576040517f08c379a00000000000000000000000000000000000000000000000000000000081526004018080602001828103825260208152602001807f4f776e61626c653a2063616c6c6572206973206e6f7420746865206f776e657281525060200191505060405180910390fd5b610be87f60b176c013bc5f6a4aaf9c1455cc3ff5e7ee54daffb41be2fd0e50b804acad428261118b565b50565b610bf361154d565b73ffffffffffffffffffffffffffffffffffffffff1660008054906101000a900473ffffffffffffffffffffffffffffffffffffffff1673ffffffffffffffffffffffffffffffffffffffff1614610cb3576040517f08c379a00000000000000000000000000000000000000000000000000000000081526004018080602001828103825260208152602001807f4f776e61626c653a2063616c6c6572206973206e6f7420746865206f776e657281525060200191505060405180910390fd5b610cdd7f238cc277b81124817de0fb6e725dfaca359442ead042cbf4fa5a5d15a441d45482610996565b50565b610ce861154d565b73ffffffffffffffffffffffffffffffffffffffff1660008054906101000a900473ffffffffffffffffffffffffffffffffffffffff1673ffffffffffffffffffffffffffffffffffffffff1614610da8576040517f08c379a00000000000000000000000000000000000000000000000000000000081526004018080602001828103825260208152602001807f4f776e61626c653a2063616c6c6572206973206e6f7420746865206f776e657281525060200191505060405180910390fd5b600073ffffffffffffffffffffffffffffffffffffffff1660008054906101000a900473ffffffffffffffffffffffffffffffffffffffff1673ffffffffffffffffffffffffffffffffffffffff167f8be0079c531659141344cd1fd0a4f28419497f9722a3daafe3b4186f6b6457e060405160405180910390a360008060006101000a81548173ffffffffffffffffffffffffffffffffffffffff021916908373ffffffffffffffffffffffffffffffffffffffff160217905550565b6060610e7061154d565b73ffffffffffffffffffffffffffffffffffffffff1660008054906101000a900473ffffffffffffffffffffffffffffffffffffffff1673ffffffffffffffffffffffffffffffffffffffff1614610f30576040517f08c379a00000000000000000000000000000000000000000000000000000000081526004018080602001828103825260208152602001807f4f776e61626c653a2063616c6c6572206973206e6f7420746865206f776e657281525060200191505060405180910390fd5b6040518060400160405280600d81526020017f57656c636f6d65206f776e657200000000000000000000000000000000000000815250905090565b60008060009054906101000a900473ffffffffffffffffffffffffffffffffffffffff16905090565b6000610fbe826001600086815260200190815260200160002060000161167d90919063ffffffff16565b905092915050565b6000610ff0826001600086815260200190815260200160002060000161169790919063ffffffff16565b905092915050565b6000801b81565b606061100e6000801b33610fc6565b15611050576040518060400160405280600581526020017f41444d494e0000000000000000000000000000000000000000000000000000008152509050611161565b61107a7f238cc277b81124817de0fb6e725dfaca359442ead042cbf4fa5a5d15a441d45433610fc6565b156110bc576040518060400160405280600f81526020017f555345525f57524954455f524f4c4500000000000000000000000000000000008152509050611161565b6110e67f60b176c013bc5f6a4aaf9c1455cc3ff5e7ee54daffb41be2fd0e50b804acad4233610fc6565b15611128576040518060400160405280600e81526020017f555345525f524541445f524f4c450000000000000000000000000000000000008152509050611161565b6040518060400160405280600381526020017f4e494c000000000000000000000000000000000000000000000000000000000081525090505b90565b6000611184600160008481526020019081526020016000206000016116c7565b9050919050565b6111b260016000848152602001908152602001600020600201546111ad61154d565b610fc6565b611207576040517f08c379a00000000000000000000000000000000000000000000000000000000081526004018080602001828103825260308152602001806119936030913960400191505060405180910390fd5b61121182826115e9565b5050565b7f238cc277b81124817de0fb6e725dfaca359442ead042cbf4fa5a5d15a441d45481565b61124161154d565b73ffffffffffffffffffffffffffffffffffffffff1660008054906101000a900473ffffffffffffffffffffffffffffffffffffffff1673ffffffffffffffffffffffffffffffffffffffff1614611301576040517f08c379a00000000000000000000000000000000000000000000000000000000081526004018080602001828103825260208152602001807f4f776e61626c653a2063616c6c6572206973206e6f7420746865206f776e657281525060200191505060405180910390fd5b600073ffffffffffffffffffffffffffffffffffffffff168173ffffffffffffffffffffffffffffffffffffffff161415611387576040517f08c379a000000000000000000000000000000000000000000000000000000000815260040180806020018281038252602681526020018061196d6026913960400191505060405180910390fd5b8073ffffffffffffffffffffffffffffffffffffffff1660008054906101000a900473ffffffffffffffffffffffffffffffffffffffff1673ffffffffffffffffffffffffffffffffffffffff167f8be0079c531659141344cd1fd0a4f28419497f9722a3daafe3b4186f6b6457e060405160405180910390a3806000806101000a81548173ffffffffffffffffffffffffffffffffffffffff021916908373ffffffffffffffffffffffffffffffffffffffff16021790555050565b60606114707f60b176c013bc5f6a4aaf9c1455cc3ff5e7ee54daffb41be2fd0e50b804acad4233610fc6565b6114e2576040517f08c379a000000000000000000000000000000000000000000000000000000000815260040180806020018281038252601d8152602001807f536f72727920796f7520617265206e6f7420612052454144207573657200000081525060200191505060405180910390fd5b6040518060400160405280601681526020017f57656c636f6d652072656164206f6e6c79207573657200000000000000000000815250905090565b6000611545836000018373ffffffffffffffffffffffffffffffffffffffff1660001b6116dc565b905092915050565b600033905090565b61157d816001600085815260200190815260200160002060000161151d90919063ffffffff16565b156115e55761158a61154d565b73ffffffffffffffffffffffffffffffffffffffff168173ffffffffffffffffffffffffffffffffffffffff16837f2f8788117e7eff1d82e926ec794901d17c78024a50270940304540a733656f0d60405160405180910390a45b5050565b611611816001600085815260200190815260200160002060000161174c90919063ffffffff16565b156116795761161e61154d565b73ffffffffffffffffffffffffffffffffffffffff168173ffffffffffffffffffffffffffffffffffffffff16837ff6391f5c32d9c69d2a47ea670b442974b53935d1edc7fd64eb21e047a839171b60405160405180910390a45b5050565b600061168c836000018361177c565b60001c905092915050565b60006116bf836000018373ffffffffffffffffffffffffffffffffffffffff1660001b6117ff565b905092915050565b60006116d582600001611822565b9050919050565b60006116e883836117ff565b611741578260000182908060018154018082558091505060019003906000526020600020016000909190919091505582600001805490508360010160008481526020019081526020016000208190555060019050611746565b600090505b92915050565b6000611774836000018373ffffffffffffffffffffffffffffffffffffffff1660001b611833565b905092915050565b6000818360000180549050116117dd576040517f08c379a000000000000000000000000000000000000000000000000000000000815260040180806020018281038252602281526020018061191c6022913960400191505060405180910390fd5b8260000182815481106117ec57fe5b9060005260206000200154905092915050565b600080836001016000848152602001908152602001600020541415905092915050565b600081600001805490509050919050565b6000808360010160008481526020019081526020016000205490506000811461190f576000600182039050600060018660000180549050039050600086600001828154811061187e57fe5b906000526020600020015490508087600001848154811061189b57fe5b90600052602060002001819055506001830187600101600083815260200190815260200160002081905550866000018054806118d357fe5b60019003818190600052602060002001600090559055866001016000878152602001908152602001600020600090556001945050505050611915565b60009150505b9291505056fe456e756d657261626c655365743a20696e646578206f7574206f6620626f756e6473416363657373436f6e74726f6c3a2073656e646572206d75737420626520616e2061646d696e20746f206772616e744f776e61626c653a206e6577206f776e657220697320746865207a65726f2061646472657373416363657373436f6e74726f6c3a2073656e646572206d75737420626520616e2061646d696e20746f207265766f6b65416363657373436f6e74726f6c3a2063616e206f6e6c792072656e6f756e636520726f6c657320666f722073656c66a264697066735822122051d7252bdc5fb23ce06ebbadaacfca076c6c0e28ab7f186d72852c8f63d4921f64736f6c634300060c0033",
  "source": "// SPDX-License-Identifier: MIT\npragma solidity ^0.6.1;\npragma experimental ABIEncoderV2;\n\nimport \"./BokkyPooBahsDateTimeLibrary.sol\";\nimport \"./CalAuth.sol\";\n\ncontract CalStore  {\n    using BokkyPooBahsDateTimeLibrary for uint;\n\n    struct VEvent {\n        uint dtstamp;\n        uint dtstart;\n        uint dtend;\n        string summary;\n        string description;\n        bool isallday;\n        string alldaystartdate;\n        string alldayenddate;\n        uint uid; // This should by dtstart, plus an id, plus msg.owner Change to string eventually\n    }\n\n    mapping(address => VEvent[]) private store;\n    mapping(address => uint) private count;\n    CalAuth authority;\n\n    constructor(CalAuth _CalAuth) public {\n        authority = new CalAuth();\n    }\n\n    function authorityHi() public view returns (string memory) {\n        return authority.justSayHiCalAuth();\n    }\n\n    function storeEvent(\n        uint _dtstamp, uint _dtstart, uint _dtend,\n        string memory _summary, string memory _description,\n        bool _isallday, string memory _alldaystartdate,\n        string memory _alldayenddate)\n        public\n        {\n        count[msg.sender]++;\n        uint nextId = count[msg.sender];\n        VEvent memory newEvent = VEvent(\n            _dtstamp,\n            _dtstart,\n            _dtend,\n            _summary,\n            _description,\n            _isallday,\n            _alldaystartdate,\n            _alldayenddate,\n            nextId);\n        store[msg.sender].push(newEvent);\n    }\n\n    function justSayHiCalStore() public pure returns (string memory) {\n        return \"Hi from CalStore\";\n    }\n\n    function removeEvent(uint _dtstamp) public {\n        uint storeLen = store[msg.sender].length;\n        for (uint i = 0; i < storeLen; i++) {\n            if (store[msg.sender][i].dtstamp == _dtstamp) {\n                // Move the last element into the place to delete\n                store[msg.sender][i] = store[msg.sender][storeLen - 1];\n                // Remove the last element\n                store[msg.sender].pop();\n                break;\n            }\n        }\n    }\n\n    function timestampToDateTime(uint timestamp) public pure returns (uint year, uint month, uint day, uint hour, uint minute, uint second) {\n        (year, month, day, hour, minute, second) = BokkyPooBahsDateTimeLibrary.timestampToDateTime(timestamp);\n    }\n\n    /// @notice Returns iCal string of message senders previously stored data\n    /// @dev TODO: Return if no events?\n    /// @param _calOwner address of message sender\n    /// @return string iCalendar string iaw RFC 5545\n    function getEventsIcal(address _calOwner) public view returns (string memory) {\n        string memory outputString = \"\";\n        string memory vCalHeader = \"BEGIN:VCALENDAR\\nVERSION:2.0\\nPRODID:-//preciouschicken.com//forget-me-block-eth-cal\\nCALSCALE:GREGORIAN\\n\";\n        string memory vCalFooter = \"END:VCALENDAR\\n\";\n        VEvent[] memory ownerEvent = store[_calOwner];\n        string memory ownerStr = addressToStr(_calOwner);\n\n        for (uint i = 0; i < ownerEvent.length; i++) {\n            string memory dtstamp = unixTimeToStr(ownerEvent[i].dtstamp);\n            string memory uid = uintToStr(ownerEvent[i].uid);\n            string memory summary = ownerEvent[i].summary;\n            string memory description = ownerEvent[i].description;\n            string memory allday;\n            string memory dtstart;\n            string memory dtend;\n            string memory utcmark;\n            if (ownerEvent[i].isallday) {\n                allday = \";VALUE=DATE:\";\n                dtstart = ownerEvent[i].alldaystartdate;\n                dtend = ownerEvent[i].alldayenddate;\n                utcmark = \"\";\n            } else {\n                allday = \":\";\n                dtstart = unixTimeToStr(ownerEvent[i].dtstart);\n                dtend = unixTimeToStr(ownerEvent[i].dtend);\n                utcmark = \"Z\";\n            }\n            outputString = string(\n                abi.encodePacked(outputString,\"BEGIN:VEVENT\\n\",\n                                 \"DTSTAMP:\", dtstamp, \"\\n\",\n                                 \"UID:\", uid, \"@\", ownerStr, \"\\n\",\n                                 \"DTSTART\", allday, dtstart, utcmark, \"\\n\",\n                                 \"DTEND\", allday, dtend, utcmark, \"\\n\",\n                                 \"SUMMARY:\", summary, \"\\n\",\n                                 \"DESCRIPTION:\", description, \"\\n\",\n                                 \"END:VEVENT\\n\"\n                                )\n            );\n        }\n        return string(abi.encodePacked(vCalHeader, outputString, vCalFooter));\n    }\n\n\n    function unixTimeToStr(uint _unixTime) private pure returns (string memory) {\n        return string(\n            abi.encodePacked(\n                leadingZeroAdd(BokkyPooBahsDateTimeLibrary.getYear(_unixTime)),\n                leadingZeroAdd(BokkyPooBahsDateTimeLibrary.getMonth(_unixTime)),\n                leadingZeroAdd(BokkyPooBahsDateTimeLibrary.getDay(_unixTime)),\n                \"T\",\n                leadingZeroAdd(BokkyPooBahsDateTimeLibrary.getHour(_unixTime)),\n                leadingZeroAdd(BokkyPooBahsDateTimeLibrary.getMinute(_unixTime)),\n                leadingZeroAdd(BokkyPooBahsDateTimeLibrary.getSecond(_unixTime))\n        )\n        );\n    }\n\n    function leadingZeroAdd(uint _timePoint) private pure returns (string memory) {\n        string memory timeStr;\n        uint requiresZero = 9; // Time points less than 9 require leading zero\n        if (_timePoint > requiresZero ) {\n            timeStr = uintToStr(_timePoint);\n        } else {\n            timeStr = string(abi.encodePacked(\"0\", uintToStr(_timePoint)));\n        }\n        return timeStr;\n    }\n\n    // Returns all msg for msg.sender, regardless of time\n    function getEventsObj(address _calOwner) public view returns (VEvent[] memory) {\n\n        // Return error if no events\n        VEvent[] memory tempData = store[_calOwner];\n        return tempData;\n    }\n\n    /// @notice converts number to string\n    /// @dev source: https://github.com/provable-things/ethereum-api/blob/master/oraclizeAPI_0.5.sol#L1045\n    /// @param _i integer to convert\n    /// @return _uintAsString string\n    function uintToStr(uint _i) internal pure returns (string memory _uintAsString) {\n        uint number = _i;\n        if (number == 0) {\n            return \"0\";\n        }\n        uint j = number;\n        uint len;\n        while (j != 0) {\n            len++;\n            j /= 10;\n        }\n        bytes memory bstr = new bytes(len);\n        uint k = len - 1;\n        while (number != 0) {\n            bstr[k--] = byte(uint8(48 + number % 10));\n            number /= 10;\n        }\n        return string(bstr);\n    }\n\n    /// @notice converts address to string\n    /// @dev source: https://ethereum.stackexchange.com/a/8447/61217\n    /// @param _add address\n    /// @return string\n    function addressToStr(address _add) internal pure returns (string memory) {\n        bytes memory s = new bytes(40);\n        for (uint i = 0; i < 20; i++) {\n            byte b = byte(uint8(uint(_add) / (2**(8*(19 - i)))));\n            byte hi = byte(uint8(b) / 16);\n            byte lo = byte(uint8(b) - 16 * uint8(hi));\n            s[2*i] = char(hi);\n            s[2*i+1] = char(lo);\n        }\n        return string(s);\n    }\n\n    /// @notice character conversion for addressToStr\n    /// @dev source: https://ethereum.stackexchange.com/a/8447/61217\n    /// @param _b byte\n    /// @return c byte\n    function char(byte _b) internal pure returns (byte c) {\n        if (uint8(_b) < 10) {\n            return byte(uint8(_b) + 0x30);\n        } else {\n            return byte(uint8(_b) + 0x57);\n        }\n    }\n\n}\n\n// CalStore.deployed().then(function(instance) {app = instance})\n// let accounts = await web3.eth.getAccounts()\n\n// app.storeEvent(1595170930, 1596121200, 1596123000, \"Meeting 1\", \"First Meeting\");\n// app.storeEvent(1595171030, 1596290400, 1596295800, \"Meeting 2\", \"Second Meeting\");\n// app.getEventsObj(accounts[0]);\n// app.getEventsIcal(accounts[0]);\n// app.justSayHi();\n\n// get all accounts: web3.eth.getAccounts().then(console.log)\n\n",
  "sourcePath": "/home/gene/Programming/Websites/Precious_Chicken_Website/blog_code_demos/forget-me-block-cal-auth/contracts/CalStore.sol",
  "compiler": {
    "name": "solc",
    "version": "0.6.12+commit.27d51765.Emscripten.clang"
  },
  "schemaVersion": "3.0.23",
  "updatedAt": "2020-08-14T10:17:20.832Z",
  "networkType": "ethereum",
  "devdoc": {
    "kind": "dev",
    "methods": {
      "getEventsIcal(address)": {
        "details": "TODO: Return if no events?",
        "params": {
          "_calOwner": "address of message sender"
        },
        "returns": {
          "_0": "string iCalendar string iaw RFC 5545"
        }
      }
    },
    "version": 1
  },
  "userdoc": {
    "kind": "user",
    "methods": {
      "getEventsIcal(address)": {
        "notice": "Returns iCal string of message senders previously stored data"
      }
    },
    "version": 1
  }
}