{
  "contractName": "CalStore",
  "abi": [
    {
      "inputs": [
        {
          "internalType": "uint256",
          "name": "_dtstamp",
          "type": "uint256"
        },
        {
          "internalType": "uint256",
          "name": "_dtstart",
          "type": "uint256"
        },
        {
          "internalType": "uint256",
          "name": "_dtend",
          "type": "uint256"
        },
        {
          "internalType": "string",
          "name": "_summary",
          "type": "string"
        },
        {
          "internalType": "string",
          "name": "_description",
          "type": "string"
        },
        {
          "internalType": "bool",
          "name": "_isallday",
          "type": "bool"
        },
        {
          "internalType": "string",
          "name": "_alldaystartdate",
          "type": "string"
        },
        {
          "internalType": "string",
          "name": "_alldayenddate",
          "type": "string"
        }
      ],
      "name": "storeEvent",
      "outputs": [],
      "stateMutability": "nonpayable",
      "type": "function"
    },
    {
      "inputs": [],
      "name": "justSayHiCalStore",
      "outputs": [
        {
          "internalType": "string",
          "name": "",
          "type": "string"
        }
      ],
      "stateMutability": "pure",
      "type": "function",
      "constant": true
    },
    {
      "inputs": [
        {
          "internalType": "uint256",
          "name": "_dtstamp",
          "type": "uint256"
        }
      ],
      "name": "removeEvent",
      "outputs": [],
      "stateMutability": "nonpayable",
      "type": "function"
    },
    {
      "inputs": [
        {
          "internalType": "address",
          "name": "_user",
          "type": "address"
        }
      ],
      "name": "getEventsIcal",
      "outputs": [
        {
          "internalType": "string",
          "name": "",
          "type": "string"
        }
      ],
      "stateMutability": "view",
      "type": "function",
      "constant": true
    },
    {
      "inputs": [
        {
          "internalType": "address",
          "name": "_user",
          "type": "address"
        },
        {
          "internalType": "uint256",
          "name": "_validFrom",
          "type": "uint256"
        },
        {
          "internalType": "uint256",
          "name": "_expiresBy",
          "type": "uint256"
        }
      ],
      "name": "getEventsIcal",
      "outputs": [
        {
          "internalType": "string",
          "name": "",
          "type": "string"
        }
      ],
      "stateMutability": "view",
      "type": "function",
      "constant": true
    },
    {
      "inputs": [
        {
          "internalType": "address",
          "name": "_user",
          "type": "address"
        },
        {
          "internalType": "uint256",
          "name": "_validFrom",
          "type": "uint256"
        }
      ],
      "name": "getEventsIcal",
      "outputs": [
        {
          "internalType": "string",
          "name": "",
          "type": "string"
        }
      ],
      "stateMutability": "view",
      "type": "function",
      "constant": true
    },
    {
      "inputs": [
        {
          "internalType": "uint256",
          "name": "_validFrom",
          "type": "uint256"
        },
        {
          "internalType": "uint256",
          "name": "_expiresBy",
          "type": "uint256"
        }
      ],
      "name": "getEventsObj",
      "outputs": [
        {
          "components": [
            {
              "internalType": "uint256",
              "name": "dtstamp",
              "type": "uint256"
            },
            {
              "internalType": "uint256",
              "name": "dtstart",
              "type": "uint256"
            },
            {
              "internalType": "uint256",
              "name": "dtend",
              "type": "uint256"
            },
            {
              "internalType": "string",
              "name": "summary",
              "type": "string"
            },
            {
              "internalType": "string",
              "name": "description",
              "type": "string"
            },
            {
              "internalType": "bool",
              "name": "isallday",
              "type": "bool"
            },
            {
              "internalType": "string",
              "name": "alldaystartdate",
              "type": "string"
            },
            {
              "internalType": "string",
              "name": "alldayenddate",
              "type": "string"
            },
            {
              "internalType": "uint256",
              "name": "uid",
              "type": "uint256"
            }
          ],
          "internalType": "struct VEventLibrary.VEvent[]",
          "name": "",
          "type": "tuple[]"
        }
      ],
      "stateMutability": "view",
      "type": "function",
      "constant": true
    },
    {
      "inputs": [
        {
          "internalType": "uint256",
          "name": "_validFrom",
          "type": "uint256"
        }
      ],
      "name": "getEventsObj",
      "outputs": [
        {
          "components": [
            {
              "internalType": "uint256",
              "name": "dtstamp",
              "type": "uint256"
            },
            {
              "internalType": "uint256",
              "name": "dtstart",
              "type": "uint256"
            },
            {
              "internalType": "uint256",
              "name": "dtend",
              "type": "uint256"
            },
            {
              "internalType": "string",
              "name": "summary",
              "type": "string"
            },
            {
              "internalType": "string",
              "name": "description",
              "type": "string"
            },
            {
              "internalType": "bool",
              "name": "isallday",
              "type": "bool"
            },
            {
              "internalType": "string",
              "name": "alldaystartdate",
              "type": "string"
            },
            {
              "internalType": "string",
              "name": "alldayenddate",
              "type": "string"
            },
            {
              "internalType": "uint256",
              "name": "uid",
              "type": "uint256"
            }
          ],
          "internalType": "struct VEventLibrary.VEvent[]",
          "name": "",
          "type": "tuple[]"
        }
      ],
      "stateMutability": "view",
      "type": "function",
      "constant": true
    },
    {
      "inputs": [],
      "name": "getEventsObj",
      "outputs": [
        {
          "components": [
            {
              "internalType": "uint256",
              "name": "dtstamp",
              "type": "uint256"
            },
            {
              "internalType": "uint256",
              "name": "dtstart",
              "type": "uint256"
            },
            {
              "internalType": "uint256",
              "name": "dtend",
              "type": "uint256"
            },
            {
              "internalType": "string",
              "name": "summary",
              "type": "string"
            },
            {
              "internalType": "string",
              "name": "description",
              "type": "string"
            },
            {
              "internalType": "bool",
              "name": "isallday",
              "type": "bool"
            },
            {
              "internalType": "string",
              "name": "alldaystartdate",
              "type": "string"
            },
            {
              "internalType": "string",
              "name": "alldayenddate",
              "type": "string"
            },
            {
              "internalType": "uint256",
              "name": "uid",
              "type": "uint256"
            }
          ],
          "internalType": "struct VEventLibrary.VEvent[]",
          "name": "",
          "type": "tuple[]"
        }
      ],
      "stateMutability": "view",
      "type": "function",
      "constant": true
    }
  ],
  "bytecode": "0x608060405234801561001057600080fd5b50613568806100206000396000f3fe608060405234801561001057600080fd5b50600436106100935760003560e01c806396cba36a1161006657806396cba36a14610144578063ab7cc4d214610174578063caebb99114610190578063f35cf90e146101ae578063fcf0d2eb146101de57610093565b806310d00a671461009857806356164e1e146100c85780638700d566146100e45780638b9265c614610114575b600080fd5b6100b260048036038101906100ad91906129a3565b6101fc565b6040516100bf919061332f565b60405180910390f35b6100e260048036038101906100dd9190612a57565b6105cf565b005b6100fe60048036038101906100f99190612a08565b610916565b60405161010b919061332f565b60405180910390f35b61012e60048036038101906101299190612a80565b610d2f565b60405161013b919061330d565b60405180910390f35b61015e60048036038101906101599190612a57565b61117f565b60405161016b919061330d565b60405180910390f35b61018e60048036038101906101899190612abc565b6115a9565b005b6101986117bb565b6040516101a5919061330d565b60405180910390f35b6101c860048036038101906101c391906129cc565b611b27565b6040516101d5919061332f565b60405180910390f35b6101e6611f1a565b6040516101f3919061332f565b60405180910390f35b60608060405180602001604052806000815250905060606000808573ffffffffffffffffffffffffffffffffffffffff1673ffffffffffffffffffffffffffffffffffffffff168152602001908152602001600020805480602002602001604051908101604052809291908181526020016000905b8282101561056f578382906000526020600020906009020160405180610120016040529081600082015481526020016001820154815260200160028201548152602001600382018054600181600116156101000203166002900480601f01602080910402602001604051908101604052809291908181526020018280546001816001161561010002031660029004801561034c5780601f106103215761010080835404028352916020019161034c565b820191906000526020600020905b81548152906001019060200180831161032f57829003601f168201915b50505050508152602001600482018054600181600116156101000203166002900480601f0160208091040260200160405190810160405280929190818152602001828054600181600116156101000203166002900480156103ee5780601f106103c3576101008083540402835291602001916103ee565b820191906000526020600020905b8154815290600101906020018083116103d157829003601f168201915b505050505081526020016005820160009054906101000a900460ff16151515158152602001600682018054600181600116156101000203166002900480601f0160208091040260200160405190810160405280929190818152602001828054600181600116156101000203166002900480156104ab5780601f10610480576101008083540402835291602001916104ab565b820191906000526020600020905b81548152906001019060200180831161048e57829003601f168201915b50505050508152602001600782018054600181600116156101000203166002900480601f01602080910402602001604051908101604052809291908181526020018280546001816001161561010002031660029004801561054d5780601f106105225761010080835404028352916020019161054d565b820191906000526020600020905b81548152906001019060200180831161053057829003601f168201915b5050505050815260200160088201548152505081526020019060010190610271565b505050509050606061058085611f57565b905060005b82518110156105bb576105ac83828151811061059d57fe5b602002602001015183866120ba565b93508080600101915050610585565b506105c583612236565b9350505050919050565b60008060003373ffffffffffffffffffffffffffffffffffffffff1673ffffffffffffffffffffffffffffffffffffffff16815260200190815260200160002080549050905060005b8181101561091157826000803373ffffffffffffffffffffffffffffffffffffffff1673ffffffffffffffffffffffffffffffffffffffff168152602001908152602001600020828154811061066a57fe5b9060005260206000209060090201600001541415610904576000803373ffffffffffffffffffffffffffffffffffffffff1673ffffffffffffffffffffffffffffffffffffffff16815260200190815260200160002060018303815481106106ce57fe5b90600052602060002090600902016000803373ffffffffffffffffffffffffffffffffffffffff1673ffffffffffffffffffffffffffffffffffffffff168152602001908152602001600020828154811061072557fe5b906000526020600020906009020160008201548160000155600182015481600101556002820154816002015560038201816003019080546001816001161561010002031660029004610778929190612756565b50600482018160040190805460018160011615610100020316600290046107a0929190612756565b506005820160009054906101000a900460ff168160050160006101000a81548160ff021916908315150217905550600682018160060190805460018160011615610100020316600290046107f5929190612756565b506007820181600701908054600181600116156101000203166002900461081d929190612756565b50600882015481600801559050506000803373ffffffffffffffffffffffffffffffffffffffff1673ffffffffffffffffffffffffffffffffffffffff16815260200190815260200160002080548061087257fe5b6001900381819060005260206000209060090201600080820160009055600182016000905560028201600090556003820160006108af91906127dd565b6004820160006108bf91906127dd565b6005820160006101000a81549060ff02191690556006820160006108e391906127dd565b6007820160006108f391906127dd565b600882016000905550509055610911565b8080600101915050610618565b505050565b60608060405180602001604052806000815250905060606000808773ffffffffffffffffffffffffffffffffffffffff1673ffffffffffffffffffffffffffffffffffffffff168152602001908152602001600020805480602002602001604051908101604052809291908181526020016000905b82821015610c89578382906000526020600020906009020160405180610120016040529081600082015481526020016001820154815260200160028201548152602001600382018054600181600116156101000203166002900480601f016020809104026020016040519081016040528092919081815260200182805460018160011615610100020316600290048015610a665780601f10610a3b57610100808354040283529160200191610a66565b820191906000526020600020905b815481529060010190602001808311610a4957829003601f168201915b50505050508152602001600482018054600181600116156101000203166002900480601f016020809104026020016040519081016040528092919081815260200182805460018160011615610100020316600290048015610b085780601f10610add57610100808354040283529160200191610b08565b820191906000526020600020905b815481529060010190602001808311610aeb57829003601f168201915b505050505081526020016005820160009054906101000a900460ff16151515158152602001600682018054600181600116156101000203166002900480601f016020809104026020016040519081016040528092919081815260200182805460018160011615610100020316600290048015610bc55780601f10610b9a57610100808354040283529160200191610bc5565b820191906000526020600020905b815481529060010190602001808311610ba857829003601f168201915b50505050508152602001600782018054600181600116156101000203166002900480601f016020809104026020016040519081016040528092919081815260200182805460018160011615610100020316600290048015610c675780601f10610c3c57610100808354040283529160200191610c67565b820191906000526020600020905b815481529060010190602001808311610c4a57829003601f168201915b505050505081526020016008820154815250508152602001906001019061098b565b5050505090506060610c9a87611f57565b905060005b8251811015610d1957828181518110610cb457fe5b6020026020010151604001518711158015610ce65750828181518110610cd657fe5b6020026020010151602001518610155b15610d0c57610d09838281518110610cfa57fe5b602002602001015183866120ba565b93505b8080600101915050610c9f565b50610d2383612236565b93505050509392505050565b6060806000803373ffffffffffffffffffffffffffffffffffffffff1673ffffffffffffffffffffffffffffffffffffffff168152602001908152602001600020805480602002602001604051908101604052809291908181526020016000905b8282101561108e578382906000526020600020906009020160405180610120016040529081600082015481526020016001820154815260200160028201548152602001600382018054600181600116156101000203166002900480601f016020809104026020016040519081016040528092919081815260200182805460018160011615610100020316600290048015610e6b5780601f10610e4057610100808354040283529160200191610e6b565b820191906000526020600020905b815481529060010190602001808311610e4e57829003601f168201915b50505050508152602001600482018054600181600116156101000203166002900480601f016020809104026020016040519081016040528092919081815260200182805460018160011615610100020316600290048015610f0d5780601f10610ee257610100808354040283529160200191610f0d565b820191906000526020600020905b815481529060010190602001808311610ef057829003601f168201915b505050505081526020016005820160009054906101000a900460ff16151515158152602001600682018054600181600116156101000203166002900480601f016020809104026020016040519081016040528092919081815260200182805460018160011615610100020316600290048015610fca5780601f10610f9f57610100808354040283529160200191610fca565b820191906000526020600020905b815481529060010190602001808311610fad57829003601f168201915b50505050508152602001600782018054600181600116156101000203166002900480601f01602080910402602001604051908101604052809291908181526020018280546001816001161561010002031660029004801561106c5780601f106110415761010080835404028352916020019161106c565b820191906000526020600020905b81548152906001019060200180831161104f57829003601f168201915b5050505050815260200160088201548152505081526020019060010190610d90565b5050505090506060815167ffffffffffffffff811180156110ae57600080fd5b506040519080825280602002602001820160405280156110e857816020015b6110d5612825565b8152602001906001900390816110cd5790505b50905060005b82518110156111735782818151811061110357fe5b6020026020010151604001518611158015611135575082818151811061112557fe5b6020026020010151602001518510155b156111665782818151811061114657fe5b602002602001015182828151811061115a57fe5b60200260200101819052505b80806001019150506110ee565b50809250505092915050565b6060806000803373ffffffffffffffffffffffffffffffffffffffff1673ffffffffffffffffffffffffffffffffffffffff168152602001908152602001600020805480602002602001604051908101604052809291908181526020016000905b828210156114de578382906000526020600020906009020160405180610120016040529081600082015481526020016001820154815260200160028201548152602001600382018054600181600116156101000203166002900480601f0160208091040260200160405190810160405280929190818152602001828054600181600116156101000203166002900480156112bb5780601f10611290576101008083540402835291602001916112bb565b820191906000526020600020905b81548152906001019060200180831161129e57829003601f168201915b50505050508152602001600482018054600181600116156101000203166002900480601f01602080910402602001604051908101604052809291908181526020018280546001816001161561010002031660029004801561135d5780601f106113325761010080835404028352916020019161135d565b820191906000526020600020905b81548152906001019060200180831161134057829003601f168201915b505050505081526020016005820160009054906101000a900460ff16151515158152602001600682018054600181600116156101000203166002900480601f01602080910402602001604051908101604052809291908181526020018280546001816001161561010002031660029004801561141a5780601f106113ef5761010080835404028352916020019161141a565b820191906000526020600020905b8154815290600101906020018083116113fd57829003601f168201915b50505050508152602001600782018054600181600116156101000203166002900480601f0160208091040260200160405190810160405280929190818152602001828054600181600116156101000203166002900480156114bc5780601f10611491576101008083540402835291602001916114bc565b820191906000526020600020905b81548152906001019060200180831161149f57829003601f168201915b50505050508152602001600882015481525050815260200190600101906111e0565b5050505090506060815167ffffffffffffffff811180156114fe57600080fd5b5060405190808252806020026020018201604052801561153857816020015b611525612825565b81526020019060019003908161151d5790505b50905060005b825181101561159e5782818151811061155357fe5b60200260200101516040015185116115915782818151811061157157fe5b602002602001015182828151811061158557fe5b60200260200101819052505b808060010191505061153e565b508092505050919050565b600160003373ffffffffffffffffffffffffffffffffffffffff1673ffffffffffffffffffffffffffffffffffffffff168152602001908152602001600020600081548092919060010191905055506000600160003373ffffffffffffffffffffffffffffffffffffffff1673ffffffffffffffffffffffffffffffffffffffff168152602001908152602001600020549050611644612825565b6040518061012001604052808b81526020018a815260200189815260200188815260200187815260200186151581526020018581526020018481526020018381525090506000803373ffffffffffffffffffffffffffffffffffffffff1673ffffffffffffffffffffffffffffffffffffffff168152602001908152602001600020819080600181540180825580915050600190039060005260206000209060090201600090919091909150600082015181600001556020820151816001015560408201518160020155606082015181600301908051906020019061172a929190612873565b506080820151816004019080519060200190611747929190612873565b5060a08201518160050160006101000a81548160ff02191690831515021790555060c0820151816006019080519060200190611784929190612873565b5060e08201518160070190805190602001906117a1929190612873565b506101008201518160080155505050505050505050505050565b6060806000803373ffffffffffffffffffffffffffffffffffffffff1673ffffffffffffffffffffffffffffffffffffffff168152602001908152602001600020805480602002602001604051908101604052809291908181526020016000905b82821015611b1a578382906000526020600020906009020160405180610120016040529081600082015481526020016001820154815260200160028201548152602001600382018054600181600116156101000203166002900480601f0160208091040260200160405190810160405280929190818152602001828054600181600116156101000203166002900480156118f75780601f106118cc576101008083540402835291602001916118f7565b820191906000526020600020905b8154815290600101906020018083116118da57829003601f168201915b50505050508152602001600482018054600181600116156101000203166002900480601f0160208091040260200160405190810160405280929190818152602001828054600181600116156101000203166002900480156119995780601f1061196e57610100808354040283529160200191611999565b820191906000526020600020905b81548152906001019060200180831161197c57829003601f168201915b505050505081526020016005820160009054906101000a900460ff16151515158152602001600682018054600181600116156101000203166002900480601f016020809104026020016040519081016040528092919081815260200182805460018160011615610100020316600290048015611a565780601f10611a2b57610100808354040283529160200191611a56565b820191906000526020600020905b815481529060010190602001808311611a3957829003601f168201915b50505050508152602001600782018054600181600116156101000203166002900480601f016020809104026020016040519081016040528092919081815260200182805460018160011615610100020316600290048015611af85780601f10611acd57610100808354040283529160200191611af8565b820191906000526020600020905b815481529060010190602001808311611adb57829003601f168201915b505050505081526020016008820154815250508152602001906001019061181c565b5050505090508091505090565b60608060405180602001604052806000815250905060606000808673ffffffffffffffffffffffffffffffffffffffff1673ffffffffffffffffffffffffffffffffffffffff168152602001908152602001600020805480602002602001604051908101604052809291908181526020016000905b82821015611e9a578382906000526020600020906009020160405180610120016040529081600082015481526020016001820154815260200160028201548152602001600382018054600181600116156101000203166002900480601f016020809104026020016040519081016040528092919081815260200182805460018160011615610100020316600290048015611c775780601f10611c4c57610100808354040283529160200191611c77565b820191906000526020600020905b815481529060010190602001808311611c5a57829003601f168201915b50505050508152602001600482018054600181600116156101000203166002900480601f016020809104026020016040519081016040528092919081815260200182805460018160011615610100020316600290048015611d195780601f10611cee57610100808354040283529160200191611d19565b820191906000526020600020905b815481529060010190602001808311611cfc57829003601f168201915b505050505081526020016005820160009054906101000a900460ff16151515158152602001600682018054600181600116156101000203166002900480601f016020809104026020016040519081016040528092919081815260200182805460018160011615610100020316600290048015611dd65780601f10611dab57610100808354040283529160200191611dd6565b820191906000526020600020905b815481529060010190602001808311611db957829003601f168201915b50505050508152602001600782018054600181600116156101000203166002900480601f016020809104026020016040519081016040528092919081815260200182805460018160011615610100020316600290048015611e785780601f10611e4d57610100808354040283529160200191611e78565b820191906000526020600020905b815481529060010190602001808311611e5b57829003601f168201915b5050505050815260200160088201548152505081526020019060010190611b9c565b5050505090506060611eab86611f57565b905060005b8251811015611f0557828181518110611ec557fe5b6020026020010151604001518611611ef857611ef5838281518110611ee657fe5b602002602001015183866120ba565b93505b8080600101915050611eb0565b50611f0f83612236565b935050505092915050565b60606040518060400160405280601081526020017f48692066726f6d2043616c53746f726500000000000000000000000000000000815250905090565b606080602867ffffffffffffffff81118015611f7257600080fd5b506040519080825280601f01601f191660200182016040528015611fa55781602001600182028036833780820191505090505b50905060005b60148110156120b05760008160130360080260020a8573ffffffffffffffffffffffffffffffffffffffff1681611fde57fe5b0460f81b9050600060108260f81c60ff1681611ff657fe5b0460f81b905060008160f81c6010028360f81c0360f81b905061201882612335565b85856002028151811061202757fe5b60200101907effffffffffffffffffffffffffffffffffffffffffffffffffffffffffffff1916908160001a90535061205f81612335565b85600186600202018151811061207157fe5b60200101907effffffffffffffffffffffffffffffffffffffffffffffffffffffffffffff1916908160001a9053505050508080600101915050611fab565b5080915050919050565b6060806120ca8560000151612369565b905060606120dc8661010001516123fc565b90506060866060015190506060876080015190506060806060808b60a001511561215d576040518060400160405280600c81526020017f3b56414c55453d444154453a000000000000000000000000000000000000000081525093508b60c0015192508b60e0015191506040518060200160405280600081525090506121ec565b6040518060400160405280600181526020017f3a0000000000000000000000000000000000000000000000000000000000000081525093506121a28c60200151612369565b92506121b18c60400151612369565b91506040518060400160405280600181526020017f5a0000000000000000000000000000000000000000000000000000000000000081525090505b8988888d8787868a89898f8f6040516020016122139c9b9a999897969594939291906131a0565b604051602081830303815290604052995089985050505050505050509392505050565b6060806040518060400160405280601c81526020017f424547494e3a5643414c454e4441520a56455253494f4e3a322e300a00000000815250905060606040518060600160405280603781526020016134fc60379139905060606040518060400160405280601381526020017f43414c5343414c453a475245474f5249414e0a00000000000000000000000000815250905060606040518060400160405280600e81526020017f454e443a5643414c454e4441520a0000000000000000000000000000000000008152509050838383888460405160200161231b9594939291906130f2565b604051602081830303815290604052945050505050919050565b6000600a8260f81c60ff1610156123575760308260f81c0160f81b9050612364565b60578260f81c0160f81b90505b919050565b606061237c61237783612547565b612574565b61238d612388846125ca565b612574565b61239e612399856125f7565b612574565b6123af6123aa86612624565b612574565b6123c06123bb8761264a565b612574565b6123d16123cc8861266e565b612574565b6040516020016123e69695949392919061313d565b6040516020818303038152906040529050919050565b60606000829050600081141561244a576040518060400160405280600181526020017f3000000000000000000000000000000000000000000000000000000000000000815250915050612542565b600081905060005b60008214612474578080600101915050600a828161246c57fe5b049150612452565b60608167ffffffffffffffff8111801561248d57600080fd5b506040519080825280601f01601f1916602001820160405280156124c05781602001600182028036833780820191505090505b50905060006001830390505b6000851461253957600a85816124de57fe5b0660300160f81b828280600190039350815181106124f857fe5b60200101907effffffffffffffffffffffffffffffffffffffffffffffffffffffffffffff1916908160001a905350600a858161253157fe5b0494506124cc565b81955050505050505b919050565b600080600061256162015180858161255b57fe5b04612682565b8093508194508295505050505050919050565b606080600060099050808411156125955761258e846123fc565b91506125c0565b61259e846123fc565b6040516020016125ae91906132eb565b60405160208183030381529060405291505b8192505050919050565b60008060006125e46201518085816125de57fe5b04612682565b8093508195508294505050505050919050565b600080600061261162015180858161260b57fe5b04612682565b8095508193508294505050505050919050565b60008062015180838161263357fe5b069050610e10818161264157fe5b04915050919050565b600080610e10838161265857fe5b069050603c818161266557fe5b04915050919050565b6000603c828161267a57fe5b069050919050565b600080600080849050600062253d8c62010bd98301019050600062023ab182600402816126ab57fe5b059050600460038262023ab10201816126c057fe5b0582039150600062164b0960018401610fa002816126da57fe5b059050601f6004826105b502816126ed57fe5b058403019250600061098f846050028161270357fe5b059050600060508261098f028161271657fe5b0585039050600b828161272557fe5b05945084600c0260028301039150848360318603606402010192508298508197508096505050505050509193909250565b828054600181600116156101000203166002900490600052602060002090601f016020900481019282601f1061278f57805485556127cc565b828001600101855582156127cc57600052602060002091601f016020900482015b828111156127cb5782548255916001019190600101906127b0565b5b5090506127d991906128f3565b5090565b50805460018160011615610100020316600290046000825580601f106128035750612822565b601f01602090049060005260206000209081019061282191906128f3565b5b50565b60405180610120016040528060008152602001600081526020016000815260200160608152602001606081526020016000151581526020016060815260200160608152602001600081525090565b828054600181600116156101000203166002900490600052602060002090601f016020900481019282601f106128b457805160ff19168380011785556128e2565b828001600101855582156128e2579182015b828111156128e15782518255916020019190600101906128c6565b5b5090506128ef91906128f3565b5090565b5b8082111561290c5760008160009055506001016128f4565b5090565b60008135905061291f816134b6565b92915050565b600081359050612934816134cd565b92915050565b600082601f83011261294b57600080fd5b813561295e6129598261337e565b613351565b9150808252602083016020830185838301111561297a57600080fd5b612985838284613463565b50505092915050565b60008135905061299d816134e4565b92915050565b6000602082840312156129b557600080fd5b60006129c384828501612910565b91505092915050565b600080604083850312156129df57600080fd5b60006129ed85828601612910565b92505060206129fe8582860161298e565b9150509250929050565b600080600060608486031215612a1d57600080fd5b6000612a2b86828701612910565b9350506020612a3c8682870161298e565b9250506040612a4d8682870161298e565b9150509250925092565b600060208284031215612a6957600080fd5b6000612a778482850161298e565b91505092915050565b60008060408385031215612a9357600080fd5b6000612aa18582860161298e565b9250506020612ab28582860161298e565b9150509250929050565b600080600080600080600080610100898b031215612ad957600080fd5b6000612ae78b828c0161298e565b9850506020612af88b828c0161298e565b9750506040612b098b828c0161298e565b965050606089013567ffffffffffffffff811115612b2657600080fd5b612b328b828c0161293a565b955050608089013567ffffffffffffffff811115612b4f57600080fd5b612b5b8b828c0161293a565b94505060a0612b6c8b828c01612925565b93505060c089013567ffffffffffffffff811115612b8957600080fd5b612b958b828c0161293a565b92505060e089013567ffffffffffffffff811115612bb257600080fd5b612bbe8b828c0161293a565b9150509295985092959890939650565b6000612bda8383613009565b905092915050565b6000612bed826133ba565b612bf781856133dd565b935083602082028501612c09856133aa565b8060005b85811015612c455784840389528151612c268582612bce565b9450612c31836133d0565b925060208a01995050600181019050612c0d565b50829750879550505050505092915050565b612c608161342d565b82525050565b6000612c71826133c5565b612c7b81856133ee565b9350612c8b818560208601613472565b612c94816134a5565b840191505092915050565b6000612caa826133c5565b612cb481856133ff565b9350612cc4818560208601613472565b612ccd816134a5565b840191505092915050565b6000612ce3826133c5565b612ced8185613410565b9350612cfd818560208601613472565b80840191505092915050565b6000612d16600183613410565b91507f30000000000000000000000000000000000000000000000000000000000000006000830152600182019050919050565b6000612d56600183613410565b91507f0a000000000000000000000000000000000000000000000000000000000000006000830152600182019050919050565b6000612d96600883613410565b91507f53554d4d4152593a0000000000000000000000000000000000000000000000006000830152600882019050919050565b6000612dd6600583613410565b91507f4454454e440000000000000000000000000000000000000000000000000000006000830152600582019050919050565b6000612e16600783613410565b91507f44545354415254000000000000000000000000000000000000000000000000006000830152600782019050919050565b6000612e56600b83613410565b91507f454e443a564556454e540a0000000000000000000000000000000000000000006000830152600b82019050919050565b6000612e96600183613410565b91507f54000000000000000000000000000000000000000000000000000000000000006000830152600182019050919050565b6000612ed6600c83613410565b91507f4445534352495054494f4e3a00000000000000000000000000000000000000006000830152600c82019050919050565b6000612f16600883613410565b91507f44545354414d503a0000000000000000000000000000000000000000000000006000830152600882019050919050565b6000612f56600d83613410565b91507f424547494e3a564556454e540a000000000000000000000000000000000000006000830152600d82019050919050565b6000612f96600183613410565b91507f40000000000000000000000000000000000000000000000000000000000000006000830152600182019050919050565b6000612fd6600483613410565b91507f5549443a000000000000000000000000000000000000000000000000000000006000830152600482019050919050565b60006101208301600083015161302260008601826130e3565b50602083015161303560208601826130e3565b50604083015161304860408601826130e3565b50606083015184820360608601526130608282612c66565b9150506080830151848203608086015261307a8282612c66565b91505060a083015161308f60a0860182612c57565b5060c083015184820360c08601526130a78282612c66565b91505060e083015184820360e08601526130c18282612c66565b9150506101008301516130d86101008601826130e3565b508091505092915050565b6130ec81613459565b82525050565b60006130fe8288612cd8565b915061310a8287612cd8565b91506131168286612cd8565b91506131228285612cd8565b915061312e8284612cd8565b91508190509695505050505050565b60006131498289612cd8565b91506131558288612cd8565b91506131618287612cd8565b915061316c82612e89565b91506131788286612cd8565b91506131848285612cd8565b91506131908284612cd8565b9150819050979650505050505050565b60006131ac828f612cd8565b91506131b782612f49565b91506131c282612f09565b91506131ce828e612cd8565b91506131d982612d49565b91506131e482612fc9565b91506131f0828d612cd8565b91506131fb82612f89565b9150613207828c612cd8565b915061321282612d49565b915061321d82612e09565b9150613229828b612cd8565b9150613235828a612cd8565b91506132418289612cd8565b915061324c82612d49565b915061325782612dc9565b91506132638288612cd8565b915061326f8287612cd8565b915061327b8286612cd8565b915061328682612d49565b915061329182612d89565b915061329d8285612cd8565b91506132a882612d49565b91506132b382612ec9565b91506132bf8284612cd8565b91506132ca82612d49565b91506132d582612e49565b91508190509d9c50505050505050505050505050565b60006132f682612d09565b91506133028284612cd8565b915081905092915050565b600060208201905081810360008301526133278184612be2565b905092915050565b600060208201905081810360008301526133498184612c9f565b905092915050565b6000604051905081810181811067ffffffffffffffff8211171561337457600080fd5b8060405250919050565b600067ffffffffffffffff82111561339557600080fd5b601f19601f8301169050602081019050919050565b6000819050602082019050919050565b600081519050919050565b600081519050919050565b6000602082019050919050565b600082825260208201905092915050565b600082825260208201905092915050565b600082825260208201905092915050565b600081905092915050565b600061342682613439565b9050919050565b60008115159050919050565b600073ffffffffffffffffffffffffffffffffffffffff82169050919050565b6000819050919050565b82818337600083830152505050565b60005b83811015613490578082015181840152602081019050613475565b8381111561349f576000848401525b50505050565b6000601f19601f8301169050919050565b6134bf8161341b565b81146134ca57600080fd5b50565b6134d68161342d565b81146134e157600080fd5b50565b6134ed81613459565b81146134f857600080fd5b5056fe50524f4449443a2d2f2f70726563696f7573636869636b656e2e636f6d2f2f666f726765742d6d652d626c6f636b2d6574682d63616c0aa2646970667358221220d213035ee0d952a28f8fd866c41a52781d1c323bc1d2f5131643659281fd4f7c64736f6c634300060c0033",
  "immutableReferences": {},
  "source": "// SPDX-License-Identifier: MIT\npragma solidity ^0.6.1;\npragma experimental ABIEncoderV2;\n\nimport \"./BokkyPooBahsDateTimeLibrary.sol\";\nimport \"./VEventLibrary.sol\";\n\ncontract CalStore  {\n    using BokkyPooBahsDateTimeLibrary for uint;\n    using VEventLibrary for VEventLibrary.VEvent;\n\n    mapping(address => VEventLibrary.VEvent[]) private store;\n    mapping(address => uint) private count;\n\n    function storeEvent(\n        uint _dtstamp, \n        uint _dtstart, \n        uint _dtend,\n        string memory _summary, \n        string memory _description,\n        bool _isallday, \n        string memory _alldaystartdate,\n        string memory _alldayenddate)\n        public {\n        count[msg.sender]++;\n        uint nextId = count[msg.sender];\n        VEventLibrary.VEvent memory newEvent = VEventLibrary.VEvent(\n            _dtstamp,\n            _dtstart,\n            _dtend,\n            _summary,\n            _description,\n            _isallday,\n            _alldaystartdate,\n            _alldayenddate,\n            nextId);\n        store[msg.sender].push(newEvent);\n    }\n\n    function justSayHiCalStore() public pure returns (string memory) {\n        return \"Hi from CalStore\";\n    }\n\n    function removeEvent(uint _dtstamp) public {\n        uint storeLen = store[msg.sender].length;\n        for (uint i = 0; i < storeLen; i++) {\n            if (store[msg.sender][i].dtstamp == _dtstamp) {\n                // Move the last element into the place to delete\n                store[msg.sender][i] = store[msg.sender][storeLen - 1];\n                // Remove the last element\n                store[msg.sender].pop();\n                break;\n            }\n        }\n    }\n\n    // TODO: Is this needed anywhere?  Can I remove?\n    // function timestampToDateTime(uint timestamp) public pure returns (\n    //     uint year, \n    //     uint month, \n    //     uint day, uint hour, uint minute, uint second) {\n    //     (year, month, day, hour, minute, second) = BokkyPooBahsDateTimeLibrary.timestampToDateTime(timestamp);\n    // }\n\n    /// @notice Returns iCal string of message senders previously stored data\n    /// @param _user address of user or contract requesting events\n    /// @return string iCalendar string iaw RFC 5545\n    function getEventsIcal(address _user) public view returns (string memory) {\n        string memory outputString = \"\";\n        VEventLibrary.VEvent[] memory ownerEvent = store[_user];\n        string memory ownerStr = addressToStr(_user);\n\n        for (uint i = 0; i < ownerEvent.length; i++) {\n            outputString = constructVEvent(ownerEvent[i], ownerStr, outputString);\n        }\n        return appendVCalHeader(outputString);\n    }\n\n    /// @notice Returns iCal string of message senders previously stored data\n    /// @return string iCalendar string iaw RFC 5545\n    function getEventsIcal(address _user, uint _validFrom) \n    public \n    view \n    returns (string memory) {\n        string memory outputString = \"\";\n        VEventLibrary.VEvent[] memory ownerEvent = store[_user];\n        string memory ownerStr = addressToStr(_user);\n        for (uint i = 0; i < ownerEvent.length; i++) {\n            if (_validFrom <= ownerEvent[i].dtend) {\n                outputString = constructVEvent(ownerEvent[i], ownerStr, outputString);\n            }\n        }\n        return appendVCalHeader(outputString);\n    }\n\n    /// @notice Returns iCal string of message senders previously stored data\n    /// @return string iCalendar string iaw RFC 5545\n    function getEventsIcal(\n        address _user, \n        uint _validFrom, \n        uint _expiresBy) public view returns (string memory) {\n        string memory outputString = \"\";\n        VEventLibrary.VEvent[] memory ownerEvent = store[_user];\n        string memory ownerStr = addressToStr(_user);\n        for (uint i = 0; i < ownerEvent.length; i++) {\n            if ((_validFrom <= ownerEvent[i].dtend) && \n                (_expiresBy >= ownerEvent[i].dtstart)) {\n                outputString = constructVEvent(ownerEvent[i], ownerStr, outputString);\n            }\n        }\n        return appendVCalHeader(outputString);\n    }\n\n    function appendVCalHeader(string memory _events) \n    private \n    pure \n    returns (string memory) \n    {\n        string memory vCalBegin = \"BEGIN:VCALENDAR\\nVERSION:2.0\\n\";\n        string memory vCalProdID = \"PRODID:-//preciouschicken.com//forget-me-block-eth-cal\\n\";\n        string memory vCalCalScale = \"CALSCALE:GREGORIAN\\n\";\n        string memory vCalFooter = \"END:VCALENDAR\\n\";\n        return string(abi.encodePacked(\n            vCalBegin, \n            vCalProdID, \n            vCalCalScale, \n            _events, \n            vCalFooter));\n    }\n\n    function constructVEvent(\n        VEventLibrary.VEvent memory ownerEvent, \n        string memory ownerStr, \n        string memory outputString) \n        private pure returns (string memory) {\n            string memory dtstamp = unixTimeToStr(ownerEvent.dtstamp);\n            string memory uid = uintToStr(ownerEvent.uid);\n            string memory summary = ownerEvent.summary;\n            string memory description = ownerEvent.description;\n            string memory allday;\n            string memory dtstart;\n            string memory dtend;\n            string memory utcmark;\n            if (ownerEvent.isallday) {\n                allday = \";VALUE=DATE:\";\n                dtstart = ownerEvent.alldaystartdate;\n                dtend = ownerEvent.alldayenddate;\n                utcmark = \"\";\n            } else {\n                allday = \":\";\n                dtstart = unixTimeToStr(ownerEvent.dtstart);\n                dtend = unixTimeToStr(ownerEvent.dtend);\n                utcmark = \"Z\";\n            }\n            return outputString = string(\n                abi.encodePacked(outputString,\"BEGIN:VEVENT\\n\",\n                                 \"DTSTAMP:\", dtstamp, \"\\n\",\n                                 \"UID:\", uid, \"@\", ownerStr, \"\\n\",\n                                 \"DTSTART\", allday, dtstart, utcmark, \"\\n\",\n                                 \"DTEND\", allday, dtend, utcmark, \"\\n\",\n                                 \"SUMMARY:\", summary, \"\\n\",\n                                 \"DESCRIPTION:\", description, \"\\n\",\n                                 \"END:VEVENT\\n\"\n                                )\n            );\n    }\n\n    function unixTimeToStr(uint _unixTime) private pure returns (string memory) {\n        return string(\n            abi.encodePacked(\n                leadingZeroAdd(BokkyPooBahsDateTimeLibrary.getYear(_unixTime)),\n                leadingZeroAdd(BokkyPooBahsDateTimeLibrary.getMonth(_unixTime)),\n                leadingZeroAdd(BokkyPooBahsDateTimeLibrary.getDay(_unixTime)),\n                \"T\",\n                leadingZeroAdd(BokkyPooBahsDateTimeLibrary.getHour(_unixTime)),\n                leadingZeroAdd(BokkyPooBahsDateTimeLibrary.getMinute(_unixTime)),\n                leadingZeroAdd(BokkyPooBahsDateTimeLibrary.getSecond(_unixTime))\n        )\n        );\n    }\n\n    function leadingZeroAdd(uint _timePoint) private pure returns (string memory) {\n        string memory timeStr;\n        uint requiresZero = 9; // Time points less than 9 require leading zero\n        if (_timePoint > requiresZero ) {\n            timeStr = uintToStr(_timePoint);\n        } else {\n            timeStr = string(abi.encodePacked(\"0\", uintToStr(_timePoint)));\n        }\n        return timeStr;\n    }\n\n    // Returns all msg for msg.sender, regardless of time\n    function getEventsObj() public view returns (VEventLibrary.VEvent[] memory) {\n        VEventLibrary.VEvent[] memory tempData = store[msg.sender];\n        return tempData;\n    }\n    \n\n    function getEventsObj(uint _validFrom) \n    public \n    view \n    returns (VEventLibrary.VEvent[] memory) {\n        VEventLibrary.VEvent[] memory tempData = store[msg.sender];\n        VEventLibrary.VEvent[] memory filteredData = \n            new VEventLibrary.VEvent[](tempData.length);\n        for (uint i = 0; i < tempData.length; i++) {\n            if (_validFrom <= tempData[i].dtend) {\n                filteredData[i] = tempData[i];\n            }\n        }\n        return filteredData;\n    }\n\n    function getEventsObj(uint _validFrom, uint _expiresBy) \n    public \n    view \n    returns (VEventLibrary.VEvent[] memory) {\n        VEventLibrary.VEvent[] memory tempData = store[msg.sender];\n        VEventLibrary.VEvent[] memory filteredData = \n            new VEventLibrary.VEvent[](tempData.length);\n        for (uint i = 0; i < tempData.length; i++) {\n            if ((_validFrom <= tempData[i].dtend) && \n                (_expiresBy >= tempData[i].dtstart)) {\n                filteredData[i] = tempData[i];\n            }\n        }\n        return filteredData;\n    }\n\n    /// @notice converts number to string\n    /// @dev source: https://github.com/provable-things/ethereum-api/blob/master/oraclizeAPI_0.5.sol#L1045\n    /// @param _i integer to convert\n    /// @return _uintAsString string\n    function uintToStr(uint _i) internal pure returns (string memory _uintAsString) {\n        uint number = _i;\n        if (number == 0) {\n            return \"0\";\n        }\n        uint j = number;\n        uint len;\n        while (j != 0) {\n            len++;\n            j /= 10;\n        }\n        bytes memory bstr = new bytes(len);\n        uint k = len - 1;\n        while (number != 0) {\n            bstr[k--] = byte(uint8(48 + number % 10));\n            number /= 10;\n        }\n        return string(bstr);\n    }\n\n    /// @notice converts address to string\n    /// @dev source: https://ethereum.stackexchange.com/a/8447/61217\n    /// @param _add address\n    /// @return string\n    function addressToStr(address _add) internal pure returns (string memory) {\n        bytes memory s = new bytes(40);\n        for (uint i = 0; i < 20; i++) {\n            byte b = byte(uint8(uint(_add) / (2**(8*(19 - i)))));\n            byte hi = byte(uint8(b) / 16);\n            byte lo = byte(uint8(b) - 16 * uint8(hi));\n            s[2*i] = char(hi);\n            s[2*i+1] = char(lo);\n        }\n        return string(s);\n    }\n\n    /// @notice character conversion for addressToStr\n    /// @dev source: https://ethereum.stackexchange.com/a/8447/61217\n    /// @param _b byte\n    /// @return c byte\n    function char(byte _b) internal pure returns (byte c) {\n        if (uint8(_b) < 10) {\n            return byte(uint8(_b) + 0x30);\n        } else {\n            return byte(uint8(_b) + 0x57);\n        }\n    }\n}\n\n",
  "sourcePath": "/home/gene/Programming/Websites/Precious_Chicken_Website/blog_code_demos/forget-me-block-eth-cal-auth/contracts/CalStore.sol",
  "compiler": {
    "name": "solc",
    "version": "0.6.12+commit.27d51765.Emscripten.clang"
  },
  "schemaVersion": "3.2.3",
  "updatedAt": "2020-08-17T21:21:27.090Z",
  "networkType": "ethereum",
  "devdoc": {
    "kind": "dev",
    "methods": {
      "getEventsIcal(address)": {
        "params": {
          "_user": "address of user or contract requesting events"
        },
        "returns": {
          "_0": "string iCalendar string iaw RFC 5545"
        }
      },
      "getEventsIcal(address,uint256)": {
        "returns": {
          "_0": "string iCalendar string iaw RFC 5545"
        }
      },
      "getEventsIcal(address,uint256,uint256)": {
        "returns": {
          "_0": "string iCalendar string iaw RFC 5545"
        }
      }
    },
    "version": 1
  },
  "userdoc": {
    "kind": "user",
    "methods": {
      "getEventsIcal(address)": {
        "notice": "Returns iCal string of message senders previously stored data"
      },
      "getEventsIcal(address,uint256)": {
        "notice": "Returns iCal string of message senders previously stored data"
      },
      "getEventsIcal(address,uint256,uint256)": {
        "notice": "Returns iCal string of message senders previously stored data"
      }
    },
    "version": 1
  }
}