{
  "contractName": "CalStore",
  "abi": [
    {
      "inputs": [
        {
          "internalType": "uint256",
          "name": "_dtstamp",
          "type": "uint256"
        },
        {
          "internalType": "uint256",
          "name": "_dtstart",
          "type": "uint256"
        },
        {
          "internalType": "uint256",
          "name": "_dtend",
          "type": "uint256"
        },
        {
          "internalType": "string",
          "name": "_summary",
          "type": "string"
        },
        {
          "internalType": "string",
          "name": "_description",
          "type": "string"
        },
        {
          "internalType": "bool",
          "name": "_isallday",
          "type": "bool"
        },
        {
          "internalType": "string",
          "name": "_alldaystartdate",
          "type": "string"
        },
        {
          "internalType": "string",
          "name": "_alldayenddate",
          "type": "string"
        }
      ],
      "name": "storeEvent",
      "outputs": [],
      "stateMutability": "nonpayable",
      "type": "function"
    },
    {
      "inputs": [],
      "name": "justSayHiCalStore",
      "outputs": [
        {
          "internalType": "string",
          "name": "",
          "type": "string"
        }
      ],
      "stateMutability": "pure",
      "type": "function",
      "constant": true
    },
    {
      "inputs": [
        {
          "internalType": "uint256",
          "name": "_dtstamp",
          "type": "uint256"
        }
      ],
      "name": "removeEvent",
      "outputs": [],
      "stateMutability": "nonpayable",
      "type": "function"
    },
    {
      "inputs": [
        {
          "internalType": "uint256",
          "name": "timestamp",
          "type": "uint256"
        }
      ],
      "name": "timestampToDateTime",
      "outputs": [
        {
          "internalType": "uint256",
          "name": "year",
          "type": "uint256"
        },
        {
          "internalType": "uint256",
          "name": "month",
          "type": "uint256"
        },
        {
          "internalType": "uint256",
          "name": "day",
          "type": "uint256"
        },
        {
          "internalType": "uint256",
          "name": "hour",
          "type": "uint256"
        },
        {
          "internalType": "uint256",
          "name": "minute",
          "type": "uint256"
        },
        {
          "internalType": "uint256",
          "name": "second",
          "type": "uint256"
        }
      ],
      "stateMutability": "pure",
      "type": "function",
      "constant": true
    },
    {
      "inputs": [
        {
          "internalType": "address",
          "name": "_user",
          "type": "address"
        }
      ],
      "name": "getEventsIcal",
      "outputs": [
        {
          "internalType": "string",
          "name": "",
          "type": "string"
        }
      ],
      "stateMutability": "view",
      "type": "function",
      "constant": true
    },
    {
      "inputs": [],
      "name": "getEventsObj",
      "outputs": [
        {
          "components": [
            {
              "internalType": "uint256",
              "name": "dtstamp",
              "type": "uint256"
            },
            {
              "internalType": "uint256",
              "name": "dtstart",
              "type": "uint256"
            },
            {
              "internalType": "uint256",
              "name": "dtend",
              "type": "uint256"
            },
            {
              "internalType": "string",
              "name": "summary",
              "type": "string"
            },
            {
              "internalType": "string",
              "name": "description",
              "type": "string"
            },
            {
              "internalType": "bool",
              "name": "isallday",
              "type": "bool"
            },
            {
              "internalType": "string",
              "name": "alldaystartdate",
              "type": "string"
            },
            {
              "internalType": "string",
              "name": "alldayenddate",
              "type": "string"
            },
            {
              "internalType": "uint256",
              "name": "uid",
              "type": "uint256"
            }
          ],
          "internalType": "struct VEventLibrary.VEvent[]",
          "name": "",
          "type": "tuple[]"
        }
      ],
      "stateMutability": "view",
      "type": "function",
      "constant": true
    }
  ],
  "bytecode": "0x608060405234801561001057600080fd5b50612487806100206000396000f3fe608060405234801561001057600080fd5b50600436106100625760003560e01c806310d00a671461006757806356164e1e14610097578063ab7cc4d2146100b3578063caebb991146100cf578063ea1c1690146100ed578063fcf0d2eb14610122575b600080fd5b610081600480360381019061007c9190611904565b610140565b60405161008e91906121be565b60405180910390f35b6100b160048036038101906100ac919061192d565b610783565b005b6100cd60048036038101906100c89190611956565b610aca565b005b6100d7610cdc565b6040516100e4919061219c565b60405180910390f35b6101076004803603810190610102919061192d565b611048565b604051610119969594939291906121e0565b60405180910390f35b61012a61107b565b60405161013791906121be565b60405180910390f35b60608060405180602001604052806000815250905060606040518060a00160405280606681526020016123ec60669139905060606040518060400160405280600e81526020017f454e443a5643414c454e4441520a000000000000000000000000000000000000815250905060606000808773ffffffffffffffffffffffffffffffffffffffff1673ffffffffffffffffffffffffffffffffffffffff168152602001908152602001600020805480602002602001604051908101604052809291908181526020016000905b8282101561050a578382906000526020600020906009020160405180610120016040529081600082015481526020016001820154815260200160028201548152602001600382018054600181600116156101000203166002900480601f0160208091040260200160405190810160405280929190818152602001828054600181600116156101000203166002900480156102e75780601f106102bc576101008083540402835291602001916102e7565b820191906000526020600020905b8154815290600101906020018083116102ca57829003601f168201915b50505050508152602001600482018054600181600116156101000203166002900480601f0160208091040260200160405190810160405280929190818152602001828054600181600116156101000203166002900480156103895780601f1061035e57610100808354040283529160200191610389565b820191906000526020600020905b81548152906001019060200180831161036c57829003601f168201915b505050505081526020016005820160009054906101000a900460ff16151515158152602001600682018054600181600116156101000203166002900480601f0160208091040260200160405190810160405280929190818152602001828054600181600116156101000203166002900480156104465780601f1061041b57610100808354040283529160200191610446565b820191906000526020600020905b81548152906001019060200180831161042957829003601f168201915b50505050508152602001600782018054600181600116156101000203166002900480601f0160208091040260200160405190810160405280929190818152602001828054600181600116156101000203166002900480156104e85780601f106104bd576101008083540402835291602001916104e8565b820191906000526020600020905b8154815290600101906020018083116104cb57829003601f168201915b505050505081526020016008820154815250508152602001906001019061020c565b505050509050606061051b876110b8565b905060005b825181101561075257606061054b84838151811061053a57fe5b60200260200101516000015161121b565b9050606061057085848151811061055e57fe5b602002602001015161010001516112ae565b9050606085848151811061058057fe5b6020026020010151606001519050606086858151811061059c57fe5b60200260200101516080015190506060806060808a89815181106105bc57fe5b602002602001015160a0015115610650576040518060400160405280600c81526020017f3b56414c55453d444154453a000000000000000000000000000000000000000081525093508a898151811061061157fe5b602002602001015160c0015192508a898151811061062b57fe5b602002602001015160e001519150604051806020016040528060008152509050610705565b6040518060400160405280600181526020017f3a0000000000000000000000000000000000000000000000000000000000000081525093506106a88b8a8151811061069757fe5b60200260200101516020015161121b565b92506106ca8b8a815181106106b957fe5b60200260200101516040015161121b565b91506040518060400160405280600181526020017f5a0000000000000000000000000000000000000000000000000000000000000081525090505b8d88888c8787868a89898f8f60405160200161072c9c9b9a9998979695949392919061202f565b6040516020818303038152906040529d5050505050505050508080600101915050610520565b5083858460405160200161076893929190611f9b565b60405160208183030381529060405295505050505050919050565b60008060003373ffffffffffffffffffffffffffffffffffffffff1673ffffffffffffffffffffffffffffffffffffffff16815260200190815260200160002080549050905060005b81811015610ac557826000803373ffffffffffffffffffffffffffffffffffffffff1673ffffffffffffffffffffffffffffffffffffffff168152602001908152602001600020828154811061081e57fe5b9060005260206000209060090201600001541415610ab8576000803373ffffffffffffffffffffffffffffffffffffffff1673ffffffffffffffffffffffffffffffffffffffff168152602001908152602001600020600183038154811061088257fe5b90600052602060002090600902016000803373ffffffffffffffffffffffffffffffffffffffff1673ffffffffffffffffffffffffffffffffffffffff16815260200190815260200160002082815481106108d957fe5b90600052602060002090600902016000820154816000015560018201548160010155600282015481600201556003820181600301908054600181600116156101000203166002900461092c9291906116b7565b50600482018160040190805460018160011615610100020316600290046109549291906116b7565b506005820160009054906101000a900460ff168160050160006101000a81548160ff021916908315150217905550600682018160060190805460018160011615610100020316600290046109a99291906116b7565b50600782018160070190805460018160011615610100020316600290046109d19291906116b7565b50600882015481600801559050506000803373ffffffffffffffffffffffffffffffffffffffff1673ffffffffffffffffffffffffffffffffffffffff168152602001908152602001600020805480610a2657fe5b600190038181906000526020600020906009020160008082016000905560018201600090556002820160009055600382016000610a63919061173e565b600482016000610a73919061173e565b6005820160006101000a81549060ff0219169055600682016000610a97919061173e565b600782016000610aa7919061173e565b600882016000905550509055610ac5565b80806001019150506107cc565b505050565b600160003373ffffffffffffffffffffffffffffffffffffffff1673ffffffffffffffffffffffffffffffffffffffff168152602001908152602001600020600081548092919060010191905055506000600160003373ffffffffffffffffffffffffffffffffffffffff1673ffffffffffffffffffffffffffffffffffffffff168152602001908152602001600020549050610b65611786565b6040518061012001604052808b81526020018a815260200189815260200188815260200187815260200186151581526020018581526020018481526020018381525090506000803373ffffffffffffffffffffffffffffffffffffffff1673ffffffffffffffffffffffffffffffffffffffff1681526020019081526020016000208190806001815401808255809150506001900390600052602060002090600902016000909190919091506000820151816000015560208201518160010155604082015181600201556060820151816003019080519060200190610c4b9291906117d4565b506080820151816004019080519060200190610c689291906117d4565b5060a08201518160050160006101000a81548160ff02191690831515021790555060c0820151816006019080519060200190610ca59291906117d4565b5060e0820151816007019080519060200190610cc29291906117d4565b506101008201518160080155505050505050505050505050565b6060806000803373ffffffffffffffffffffffffffffffffffffffff1673ffffffffffffffffffffffffffffffffffffffff168152602001908152602001600020805480602002602001604051908101604052809291908181526020016000905b8282101561103b578382906000526020600020906009020160405180610120016040529081600082015481526020016001820154815260200160028201548152602001600382018054600181600116156101000203166002900480601f016020809104026020016040519081016040528092919081815260200182805460018160011615610100020316600290048015610e185780601f10610ded57610100808354040283529160200191610e18565b820191906000526020600020905b815481529060010190602001808311610dfb57829003601f168201915b50505050508152602001600482018054600181600116156101000203166002900480601f016020809104026020016040519081016040528092919081815260200182805460018160011615610100020316600290048015610eba5780601f10610e8f57610100808354040283529160200191610eba565b820191906000526020600020905b815481529060010190602001808311610e9d57829003601f168201915b505050505081526020016005820160009054906101000a900460ff16151515158152602001600682018054600181600116156101000203166002900480601f016020809104026020016040519081016040528092919081815260200182805460018160011615610100020316600290048015610f775780601f10610f4c57610100808354040283529160200191610f77565b820191906000526020600020905b815481529060010190602001808311610f5a57829003601f168201915b50505050508152602001600782018054600181600116156101000203166002900480601f0160208091040260200160405190810160405280929190818152602001828054600181600116156101000203166002900480156110195780601f10610fee57610100808354040283529160200191611019565b820191906000526020600020905b815481529060010190602001808311610ffc57829003601f168201915b5050505050815260200160088201548152505081526020019060010190610d3d565b5050505090508091505090565b60008060008060008061105a876113f9565b809650819750829850839950849a50859b5050505050505091939550919395565b60606040518060400160405280601081526020017f48692066726f6d2043616c53746f726500000000000000000000000000000000815250905090565b606080602867ffffffffffffffff811180156110d357600080fd5b506040519080825280601f01601f1916602001820160405280156111065781602001600182028036833780820191505090505b50905060005b60148110156112115760008160130360080260020a8573ffffffffffffffffffffffffffffffffffffffff168161113f57fe5b0460f81b9050600060108260f81c60ff168161115757fe5b0460f81b905060008160f81c6010028360f81c0360f81b905061117982611474565b85856002028151811061118857fe5b60200101907effffffffffffffffffffffffffffffffffffffffffffffffffffffffffffff1916908160001a9053506111c081611474565b8560018660020201815181106111d257fe5b60200101907effffffffffffffffffffffffffffffffffffffffffffffffffffffffffffff1916908160001a905350505050808060010191505061110c565b5080915050919050565b606061122e611229836114a8565b6114d5565b61123f61123a8461152b565b6114d5565b61125061124b85611558565b6114d5565b61126161125c86611585565b6114d5565b61127261126d876115ab565b6114d5565b61128361127e886115cf565b6114d5565b60405160200161129896959493929190611fcc565b6040516020818303038152906040529050919050565b6060600082905060008114156112fc576040518060400160405280600181526020017f30000000000000000000000000000000000000000000000000000000000000008152509150506113f4565b600081905060005b60008214611326578080600101915050600a828161131e57fe5b049150611304565b60608167ffffffffffffffff8111801561133f57600080fd5b506040519080825280601f01601f1916602001820160405280156113725781602001600182028036833780820191505090505b50905060006001830390505b600085146113eb57600a858161139057fe5b0660300160f81b828280600190039350815181106113aa57fe5b60200101907effffffffffffffffffffffffffffffffffffffffffffffffffffffffffffff1916908160001a905350600a85816113e357fe5b04945061137e565b81955050505050505b919050565b60008060008060008061141762015180888161141157fe5b046115e3565b809650819750829850505050600062015180888161143157fe5b069050610e10818161143f57fe5b049350610e10818161144d57fe5b069050603c818161145a57fe5b049250603c818161146757fe5b0691505091939550919395565b6000600a8260f81c60ff1610156114965760308260f81c0160f81b90506114a3565b60578260f81c0160f81b90505b919050565b60008060006114c26201518085816114bc57fe5b046115e3565b8093508194508295505050505050919050565b606080600060099050808411156114f6576114ef846112ae565b9150611521565b6114ff846112ae565b60405160200161150f919061217a565b60405160208183030381529060405291505b8192505050919050565b600080600061154562015180858161153f57fe5b046115e3565b8093508195508294505050505050919050565b600080600061157262015180858161156c57fe5b046115e3565b8095508193508294505050505050919050565b60008062015180838161159457fe5b069050610e1081816115a257fe5b04915050919050565b600080610e1083816115b957fe5b069050603c81816115c657fe5b04915050919050565b6000603c82816115db57fe5b069050919050565b600080600080849050600062253d8c62010bd98301019050600062023ab1826004028161160c57fe5b059050600460038262023ab102018161162157fe5b0582039150600062164b0960018401610fa0028161163b57fe5b059050601f6004826105b5028161164e57fe5b058403019250600061098f846050028161166457fe5b059050600060508261098f028161167757fe5b0585039050600b828161168657fe5b05945084600c0260028301039150848360318603606402010192508298508197508096505050505050509193909250565b828054600181600116156101000203166002900490600052602060002090601f016020900481019282601f106116f0578054855561172d565b8280016001018555821561172d57600052602060002091601f016020900482015b8281111561172c578254825591600101919060010190611711565b5b50905061173a9190611854565b5090565b50805460018160011615610100020316600290046000825580601f106117645750611783565b601f0160209004906000526020600020908101906117829190611854565b5b50565b60405180610120016040528060008152602001600081526020016000815260200160608152602001606081526020016000151581526020016060815260200160608152602001600081525090565b828054600181600116156101000203166002900490600052602060002090601f016020900481019282601f1061181557805160ff1916838001178555611843565b82800160010185558215611843579182015b82811115611842578251825591602001919060010190611827565b5b5090506118509190611854565b5090565b5b8082111561186d576000816000905550600101611855565b5090565b600081359050611880816123a6565b92915050565b600081359050611895816123bd565b92915050565b600082601f8301126118ac57600080fd5b81356118bf6118ba8261226e565b612241565b915080825260208301602083018583830111156118db57600080fd5b6118e6838284612353565b50505092915050565b6000813590506118fe816123d4565b92915050565b60006020828403121561191657600080fd5b600061192484828501611871565b91505092915050565b60006020828403121561193f57600080fd5b600061194d848285016118ef565b91505092915050565b600080600080600080600080610100898b03121561197357600080fd5b60006119818b828c016118ef565b98505060206119928b828c016118ef565b97505060406119a38b828c016118ef565b965050606089013567ffffffffffffffff8111156119c057600080fd5b6119cc8b828c0161189b565b955050608089013567ffffffffffffffff8111156119e957600080fd5b6119f58b828c0161189b565b94505060a0611a068b828c01611886565b93505060c089013567ffffffffffffffff811115611a2357600080fd5b611a2f8b828c0161189b565b92505060e089013567ffffffffffffffff811115611a4c57600080fd5b611a588b828c0161189b565b9150509295985092959890939650565b6000611a748383611ea3565b905092915050565b6000611a87826122aa565b611a9181856122cd565b935083602082028501611aa38561229a565b8060005b85811015611adf5784840389528151611ac08582611a68565b9450611acb836122c0565b925060208a01995050600181019050611aa7565b50829750879550505050505092915050565b611afa8161231d565b82525050565b6000611b0b826122b5565b611b1581856122de565b9350611b25818560208601612362565b611b2e81612395565b840191505092915050565b6000611b44826122b5565b611b4e81856122ef565b9350611b5e818560208601612362565b611b6781612395565b840191505092915050565b6000611b7d826122b5565b611b878185612300565b9350611b97818560208601612362565b80840191505092915050565b6000611bb0600183612300565b91507f30000000000000000000000000000000000000000000000000000000000000006000830152600182019050919050565b6000611bf0600183612300565b91507f0a000000000000000000000000000000000000000000000000000000000000006000830152600182019050919050565b6000611c30600883612300565b91507f53554d4d4152593a0000000000000000000000000000000000000000000000006000830152600882019050919050565b6000611c70600583612300565b91507f4454454e440000000000000000000000000000000000000000000000000000006000830152600582019050919050565b6000611cb0600783612300565b91507f44545354415254000000000000000000000000000000000000000000000000006000830152600782019050919050565b6000611cf0600b83612300565b91507f454e443a564556454e540a0000000000000000000000000000000000000000006000830152600b82019050919050565b6000611d30600183612300565b91507f54000000000000000000000000000000000000000000000000000000000000006000830152600182019050919050565b6000611d70600c83612300565b91507f4445534352495054494f4e3a00000000000000000000000000000000000000006000830152600c82019050919050565b6000611db0600883612300565b91507f44545354414d503a0000000000000000000000000000000000000000000000006000830152600882019050919050565b6000611df0600d83612300565b91507f424547494e3a564556454e540a000000000000000000000000000000000000006000830152600d82019050919050565b6000611e30600183612300565b91507f40000000000000000000000000000000000000000000000000000000000000006000830152600182019050919050565b6000611e70600483612300565b91507f5549443a000000000000000000000000000000000000000000000000000000006000830152600482019050919050565b600061012083016000830151611ebc6000860182611f7d565b506020830151611ecf6020860182611f7d565b506040830151611ee26040860182611f7d565b5060608301518482036060860152611efa8282611b00565b91505060808301518482036080860152611f148282611b00565b91505060a0830151611f2960a0860182611af1565b5060c083015184820360c0860152611f418282611b00565b91505060e083015184820360e0860152611f5b8282611b00565b915050610100830151611f72610100860182611f7d565b508091505092915050565b611f8681612349565b82525050565b611f9581612349565b82525050565b6000611fa78286611b72565b9150611fb38285611b72565b9150611fbf8284611b72565b9150819050949350505050565b6000611fd88289611b72565b9150611fe48288611b72565b9150611ff08287611b72565b9150611ffb82611d23565b91506120078286611b72565b91506120138285611b72565b915061201f8284611b72565b9150819050979650505050505050565b600061203b828f611b72565b915061204682611de3565b915061205182611da3565b915061205d828e611b72565b915061206882611be3565b915061207382611e63565b915061207f828d611b72565b915061208a82611e23565b9150612096828c611b72565b91506120a182611be3565b91506120ac82611ca3565b91506120b8828b611b72565b91506120c4828a611b72565b91506120d08289611b72565b91506120db82611be3565b91506120e682611c63565b91506120f28288611b72565b91506120fe8287611b72565b915061210a8286611b72565b915061211582611be3565b915061212082611c23565b915061212c8285611b72565b915061213782611be3565b915061214282611d63565b915061214e8284611b72565b915061215982611be3565b915061216482611ce3565b91508190509d9c50505050505050505050505050565b600061218582611ba3565b91506121918284611b72565b915081905092915050565b600060208201905081810360008301526121b68184611a7c565b905092915050565b600060208201905081810360008301526121d88184611b39565b905092915050565b600060c0820190506121f56000830189611f8c565b6122026020830188611f8c565b61220f6040830187611f8c565b61221c6060830186611f8c565b6122296080830185611f8c565b61223660a0830184611f8c565b979650505050505050565b6000604051905081810181811067ffffffffffffffff8211171561226457600080fd5b8060405250919050565b600067ffffffffffffffff82111561228557600080fd5b601f19601f8301169050602081019050919050565b6000819050602082019050919050565b600081519050919050565b600081519050919050565b6000602082019050919050565b600082825260208201905092915050565b600082825260208201905092915050565b600082825260208201905092915050565b600081905092915050565b600061231682612329565b9050919050565b60008115159050919050565b600073ffffffffffffffffffffffffffffffffffffffff82169050919050565b6000819050919050565b82818337600083830152505050565b60005b83811015612380578082015181840152602081019050612365565b8381111561238f576000848401525b50505050565b6000601f19601f8301169050919050565b6123af8161230b565b81146123ba57600080fd5b50565b6123c68161231d565b81146123d157600080fd5b50565b6123dd81612349565b81146123e857600080fd5b5056fe424547494e3a5643414c454e4441520a56455253494f4e3a322e300a50524f4449443a2d2f2f70726563696f7573636869636b656e2e636f6d2f2f666f726765742d6d652d626c6f636b2d6574682d63616c0a43414c5343414c453a475245474f5249414e0aa26469706673582212203201b4dbbf8f19972ddd4467e6e8f92605baa0c66e24f7eb6f71046604a83a8864736f6c634300060c0033",
  "immutableReferences": {},
  "source": "// SPDX-License-Identifier: MIT\npragma solidity ^0.6.1;\npragma experimental ABIEncoderV2;\n\nimport \"./BokkyPooBahsDateTimeLibrary.sol\";\nimport \"./VEventLibrary.sol\";\n\ncontract CalStore  {\n    using BokkyPooBahsDateTimeLibrary for uint;\n    using VEventLibrary for VEventLibrary.VEvent;\n\n\n    mapping(address => VEventLibrary.VEvent[]) private store;\n    mapping(address => uint) private count;\n\n    function storeEvent(\n        uint _dtstamp, uint _dtstart, uint _dtend,\n        string memory _summary, string memory _description,\n        bool _isallday, string memory _alldaystartdate,\n        string memory _alldayenddate)\n        public\n        {\n        count[msg.sender]++;\n        uint nextId = count[msg.sender];\n        VEventLibrary.VEvent memory newEvent = VEventLibrary.VEvent(\n            _dtstamp,\n            _dtstart,\n            _dtend,\n            _summary,\n            _description,\n            _isallday,\n            _alldaystartdate,\n            _alldayenddate,\n            nextId);\n        store[msg.sender].push(newEvent);\n    }\n\n    function justSayHiCalStore() public pure returns (string memory) {\n        return \"Hi from CalStore\";\n    }\n\n    function removeEvent(uint _dtstamp) public {\n        uint storeLen = store[msg.sender].length;\n        for (uint i = 0; i < storeLen; i++) {\n            if (store[msg.sender][i].dtstamp == _dtstamp) {\n                // Move the last element into the place to delete\n                store[msg.sender][i] = store[msg.sender][storeLen - 1];\n                // Remove the last element\n                store[msg.sender].pop();\n                break;\n            }\n        }\n    }\n\n    // TODO: Is this needed anywhere?  Can I remove?\n    function timestampToDateTime(uint timestamp) public pure returns (uint year, uint month, uint day, uint hour, uint minute, uint second) {\n        (year, month, day, hour, minute, second) = BokkyPooBahsDateTimeLibrary.timestampToDateTime(timestamp);\n    }\n\n    /// @notice Returns iCal string of message senders previously stored data\n    /// @dev TODO: Return if no events?\n    /// @return string iCalendar string iaw RFC 5545\n    function getEventsIcal(address _user) public view returns (string memory) {\n        string memory outputString = \"\";\n        string memory vCalHeader = \"BEGIN:VCALENDAR\\nVERSION:2.0\\nPRODID:-//preciouschicken.com//forget-me-block-eth-cal\\nCALSCALE:GREGORIAN\\n\";\n        string memory vCalFooter = \"END:VCALENDAR\\n\";\n        VEventLibrary.VEvent[] memory ownerEvent = store[_user];\n        string memory ownerStr = addressToStr(_user);\n\n        for (uint i = 0; i < ownerEvent.length; i++) {\n            string memory dtstamp = unixTimeToStr(ownerEvent[i].dtstamp);\n            string memory uid = uintToStr(ownerEvent[i].uid);\n            string memory summary = ownerEvent[i].summary;\n            string memory description = ownerEvent[i].description;\n            string memory allday;\n            string memory dtstart;\n            string memory dtend;\n            string memory utcmark;\n            if (ownerEvent[i].isallday) {\n                allday = \";VALUE=DATE:\";\n                dtstart = ownerEvent[i].alldaystartdate;\n                dtend = ownerEvent[i].alldayenddate;\n                utcmark = \"\";\n            } else {\n                allday = \":\";\n                dtstart = unixTimeToStr(ownerEvent[i].dtstart);\n                dtend = unixTimeToStr(ownerEvent[i].dtend);\n                utcmark = \"Z\";\n            }\n            outputString = string(\n                abi.encodePacked(outputString,\"BEGIN:VEVENT\\n\",\n                                 \"DTSTAMP:\", dtstamp, \"\\n\",\n                                 \"UID:\", uid, \"@\", ownerStr, \"\\n\",\n                                 \"DTSTART\", allday, dtstart, utcmark, \"\\n\",\n                                 \"DTEND\", allday, dtend, utcmark, \"\\n\",\n                                 \"SUMMARY:\", summary, \"\\n\",\n                                 \"DESCRIPTION:\", description, \"\\n\",\n                                 \"END:VEVENT\\n\"\n                                )\n            );\n        }\n        return string(abi.encodePacked(vCalHeader, outputString, vCalFooter));\n    }\n\n\n    function unixTimeToStr(uint _unixTime) private pure returns (string memory) {\n        return string(\n            abi.encodePacked(\n                leadingZeroAdd(BokkyPooBahsDateTimeLibrary.getYear(_unixTime)),\n                leadingZeroAdd(BokkyPooBahsDateTimeLibrary.getMonth(_unixTime)),\n                leadingZeroAdd(BokkyPooBahsDateTimeLibrary.getDay(_unixTime)),\n                \"T\",\n                leadingZeroAdd(BokkyPooBahsDateTimeLibrary.getHour(_unixTime)),\n                leadingZeroAdd(BokkyPooBahsDateTimeLibrary.getMinute(_unixTime)),\n                leadingZeroAdd(BokkyPooBahsDateTimeLibrary.getSecond(_unixTime))\n        )\n        );\n    }\n\n    function leadingZeroAdd(uint _timePoint) private pure returns (string memory) {\n        string memory timeStr;\n        uint requiresZero = 9; // Time points less than 9 require leading zero\n        if (_timePoint > requiresZero ) {\n            timeStr = uintToStr(_timePoint);\n        } else {\n            timeStr = string(abi.encodePacked(\"0\", uintToStr(_timePoint)));\n        }\n        return timeStr;\n    }\n\n    // Returns all msg for msg.sender, regardless of time\n    function getEventsObj() public view returns (VEventLibrary.VEvent[] memory) {\n        VEventLibrary.VEvent[] memory tempData = store[msg.sender];\n        return tempData;\n    }\n\n    /// @notice converts number to string\n    /// @dev source: https://github.com/provable-things/ethereum-api/blob/master/oraclizeAPI_0.5.sol#L1045\n    /// @param _i integer to convert\n    /// @return _uintAsString string\n    function uintToStr(uint _i) internal pure returns (string memory _uintAsString) {\n        uint number = _i;\n        if (number == 0) {\n            return \"0\";\n        }\n        uint j = number;\n        uint len;\n        while (j != 0) {\n            len++;\n            j /= 10;\n        }\n        bytes memory bstr = new bytes(len);\n        uint k = len - 1;\n        while (number != 0) {\n            bstr[k--] = byte(uint8(48 + number % 10));\n            number /= 10;\n        }\n        return string(bstr);\n    }\n\n    /// @notice converts address to string\n    /// @dev source: https://ethereum.stackexchange.com/a/8447/61217\n    /// @param _add address\n    /// @return string\n    function addressToStr(address _add) internal pure returns (string memory) {\n        bytes memory s = new bytes(40);\n        for (uint i = 0; i < 20; i++) {\n            byte b = byte(uint8(uint(_add) / (2**(8*(19 - i)))));\n            byte hi = byte(uint8(b) / 16);\n            byte lo = byte(uint8(b) - 16 * uint8(hi));\n            s[2*i] = char(hi);\n            s[2*i+1] = char(lo);\n        }\n        return string(s);\n    }\n\n    /// @notice character conversion for addressToStr\n    /// @dev source: https://ethereum.stackexchange.com/a/8447/61217\n    /// @param _b byte\n    /// @return c byte\n    function char(byte _b) internal pure returns (byte c) {\n        if (uint8(_b) < 10) {\n            return byte(uint8(_b) + 0x30);\n        } else {\n            return byte(uint8(_b) + 0x57);\n        }\n    }\n}\n\n",
  "sourcePath": "/home/gene/Programming/Websites/Precious_Chicken_Website/blog_code_demos/forget-me-block-eth-cal-auth/contracts/CalStore.sol",
  "compiler": {
    "name": "solc",
    "version": "0.6.12+commit.27d51765.Emscripten.clang"
  },
  "schemaVersion": "3.2.3",
  "updatedAt": "2020-08-17T14:01:58.777Z",
  "networkType": "ethereum",
  "devdoc": {
    "kind": "dev",
    "methods": {
      "getEventsIcal(address)": {
        "details": "TODO: Return if no events?",
        "returns": {
          "_0": "string iCalendar string iaw RFC 5545"
        }
      }
    },
    "version": 1
  },
  "userdoc": {
    "kind": "user",
    "methods": {
      "getEventsIcal(address)": {
        "notice": "Returns iCal string of message senders previously stored data"
      }
    },
    "version": 1
  }
}