{
  "contractName": "CalStore",
  "abi": [
    {
      "inputs": [
        {
          "internalType": "uint256",
          "name": "_dtstamp",
          "type": "uint256"
        },
        {
          "internalType": "uint256",
          "name": "_dtstart",
          "type": "uint256"
        },
        {
          "internalType": "uint256",
          "name": "_dtend",
          "type": "uint256"
        },
        {
          "internalType": "string",
          "name": "_summary",
          "type": "string"
        },
        {
          "internalType": "string",
          "name": "_description",
          "type": "string"
        },
        {
          "internalType": "bool",
          "name": "_isallday",
          "type": "bool"
        },
        {
          "internalType": "string",
          "name": "_alldaystartdate",
          "type": "string"
        },
        {
          "internalType": "string",
          "name": "_alldayenddate",
          "type": "string"
        }
      ],
      "name": "storeEvent",
      "outputs": [],
      "stateMutability": "nonpayable",
      "type": "function"
    },
    {
      "inputs": [],
      "name": "justSayHiCalStore",
      "outputs": [
        {
          "internalType": "string",
          "name": "",
          "type": "string"
        }
      ],
      "stateMutability": "pure",
      "type": "function",
      "constant": true
    },
    {
      "inputs": [
        {
          "internalType": "uint256",
          "name": "_dtstamp",
          "type": "uint256"
        }
      ],
      "name": "removeEvent",
      "outputs": [],
      "stateMutability": "nonpayable",
      "type": "function"
    },
    {
      "inputs": [
        {
          "internalType": "uint256",
          "name": "timestamp",
          "type": "uint256"
        }
      ],
      "name": "timestampToDateTime",
      "outputs": [
        {
          "internalType": "uint256",
          "name": "year",
          "type": "uint256"
        },
        {
          "internalType": "uint256",
          "name": "month",
          "type": "uint256"
        },
        {
          "internalType": "uint256",
          "name": "day",
          "type": "uint256"
        },
        {
          "internalType": "uint256",
          "name": "hour",
          "type": "uint256"
        },
        {
          "internalType": "uint256",
          "name": "minute",
          "type": "uint256"
        },
        {
          "internalType": "uint256",
          "name": "second",
          "type": "uint256"
        }
      ],
      "stateMutability": "pure",
      "type": "function",
      "constant": true
    },
    {
      "inputs": [
        {
          "internalType": "address",
          "name": "_calOwner",
          "type": "address"
        }
      ],
      "name": "getEventsIcal",
      "outputs": [
        {
          "internalType": "string",
          "name": "",
          "type": "string"
        }
      ],
      "stateMutability": "view",
      "type": "function",
      "constant": true
    },
    {
      "inputs": [
        {
          "internalType": "address",
          "name": "_calOwner",
          "type": "address"
        }
      ],
      "name": "getEventsObj",
      "outputs": [
        {
          "components": [
            {
              "internalType": "uint256",
              "name": "dtstamp",
              "type": "uint256"
            },
            {
              "internalType": "uint256",
              "name": "dtstart",
              "type": "uint256"
            },
            {
              "internalType": "uint256",
              "name": "dtend",
              "type": "uint256"
            },
            {
              "internalType": "string",
              "name": "summary",
              "type": "string"
            },
            {
              "internalType": "string",
              "name": "description",
              "type": "string"
            },
            {
              "internalType": "bool",
              "name": "isallday",
              "type": "bool"
            },
            {
              "internalType": "string",
              "name": "alldaystartdate",
              "type": "string"
            },
            {
              "internalType": "string",
              "name": "alldayenddate",
              "type": "string"
            },
            {
              "internalType": "uint256",
              "name": "uid",
              "type": "uint256"
            }
          ],
          "internalType": "struct CalStore.VEvent[]",
          "name": "",
          "type": "tuple[]"
        }
      ],
      "stateMutability": "view",
      "type": "function",
      "constant": true
    }
  ],
  "bytecode": "0x608060405234801561001057600080fd5b5061249b806100206000396000f3fe608060405234801561001057600080fd5b50600436106100625760003560e01c806310d00a671461006757806356164e1e146100975780636d183b02146100b3578063ab7cc4d2146100e3578063ea1c1690146100ff578063fcf0d2eb14610134575b600080fd5b610081600480360381019061007c9190611918565b610152565b60405161008e91906121d2565b60405180910390f35b6100b160048036038101906100ac9190611941565b610795565b005b6100cd60048036038101906100c89190611918565b610adc565b6040516100da91906121b0565b60405180910390f35b6100fd60048036038101906100f8919061196a565b610e4a565b005b61011960048036038101906101149190611941565b61105c565b60405161012b969594939291906121f4565b60405180910390f35b61013c61108f565b60405161014991906121d2565b60405180910390f35b60608060405180602001604052806000815250905060606040518060a001604052806066815260200161240060669139905060606040518060400160405280600e81526020017f454e443a5643414c454e4441520a000000000000000000000000000000000000815250905060606000808773ffffffffffffffffffffffffffffffffffffffff1673ffffffffffffffffffffffffffffffffffffffff168152602001908152602001600020805480602002602001604051908101604052809291908181526020016000905b8282101561051c578382906000526020600020906009020160405180610120016040529081600082015481526020016001820154815260200160028201548152602001600382018054600181600116156101000203166002900480601f0160208091040260200160405190810160405280929190818152602001828054600181600116156101000203166002900480156102f95780601f106102ce576101008083540402835291602001916102f9565b820191906000526020600020905b8154815290600101906020018083116102dc57829003601f168201915b50505050508152602001600482018054600181600116156101000203166002900480601f01602080910402602001604051908101604052809291908181526020018280546001816001161561010002031660029004801561039b5780601f106103705761010080835404028352916020019161039b565b820191906000526020600020905b81548152906001019060200180831161037e57829003601f168201915b505050505081526020016005820160009054906101000a900460ff16151515158152602001600682018054600181600116156101000203166002900480601f0160208091040260200160405190810160405280929190818152602001828054600181600116156101000203166002900480156104585780601f1061042d57610100808354040283529160200191610458565b820191906000526020600020905b81548152906001019060200180831161043b57829003601f168201915b50505050508152602001600782018054600181600116156101000203166002900480601f0160208091040260200160405190810160405280929190818152602001828054600181600116156101000203166002900480156104fa5780601f106104cf576101008083540402835291602001916104fa565b820191906000526020600020905b8154815290600101906020018083116104dd57829003601f168201915b505050505081526020016008820154815250508152602001906001019061021e565b505050509050606061052d876110cc565b905060005b825181101561076457606061055d84838151811061054c57fe5b60200260200101516000015161122f565b9050606061058285848151811061057057fe5b602002602001015161010001516112c2565b9050606085848151811061059257fe5b602002602001015160600151905060608685815181106105ae57fe5b60200260200101516080015190506060806060808a89815181106105ce57fe5b602002602001015160a0015115610662576040518060400160405280600c81526020017f3b56414c55453d444154453a000000000000000000000000000000000000000081525093508a898151811061062357fe5b602002602001015160c0015192508a898151811061063d57fe5b602002602001015160e001519150604051806020016040528060008152509050610717565b6040518060400160405280600181526020017f3a0000000000000000000000000000000000000000000000000000000000000081525093506106ba8b8a815181106106a957fe5b60200260200101516020015161122f565b92506106dc8b8a815181106106cb57fe5b60200260200101516040015161122f565b91506040518060400160405280600181526020017f5a0000000000000000000000000000000000000000000000000000000000000081525090505b8d88888c8787868a89898f8f60405160200161073e9c9b9a99989796959493929190612043565b6040516020818303038152906040529d5050505050505050508080600101915050610532565b5083858460405160200161077a93929190611faf565b60405160208183030381529060405295505050505050919050565b60008060003373ffffffffffffffffffffffffffffffffffffffff1673ffffffffffffffffffffffffffffffffffffffff16815260200190815260200160002080549050905060005b81811015610ad757826000803373ffffffffffffffffffffffffffffffffffffffff1673ffffffffffffffffffffffffffffffffffffffff168152602001908152602001600020828154811061083057fe5b9060005260206000209060090201600001541415610aca576000803373ffffffffffffffffffffffffffffffffffffffff1673ffffffffffffffffffffffffffffffffffffffff168152602001908152602001600020600183038154811061089457fe5b90600052602060002090600902016000803373ffffffffffffffffffffffffffffffffffffffff1673ffffffffffffffffffffffffffffffffffffffff16815260200190815260200160002082815481106108eb57fe5b90600052602060002090600902016000820154816000015560018201548160010155600282015481600201556003820181600301908054600181600116156101000203166002900461093e9291906116cb565b50600482018160040190805460018160011615610100020316600290046109669291906116cb565b506005820160009054906101000a900460ff168160050160006101000a81548160ff021916908315150217905550600682018160060190805460018160011615610100020316600290046109bb9291906116cb565b50600782018160070190805460018160011615610100020316600290046109e39291906116cb565b50600882015481600801559050506000803373ffffffffffffffffffffffffffffffffffffffff1673ffffffffffffffffffffffffffffffffffffffff168152602001908152602001600020805480610a3857fe5b600190038181906000526020600020906009020160008082016000905560018201600090556002820160009055600382016000610a759190611752565b600482016000610a859190611752565b6005820160006101000a81549060ff0219169055600682016000610aa99190611752565b600782016000610ab99190611752565b600882016000905550509055610ad7565b80806001019150506107de565b505050565b6060806000808473ffffffffffffffffffffffffffffffffffffffff1673ffffffffffffffffffffffffffffffffffffffff168152602001908152602001600020805480602002602001604051908101604052809291908181526020016000905b82821015610e3b578382906000526020600020906009020160405180610120016040529081600082015481526020016001820154815260200160028201548152602001600382018054600181600116156101000203166002900480601f016020809104026020016040519081016040528092919081815260200182805460018160011615610100020316600290048015610c185780601f10610bed57610100808354040283529160200191610c18565b820191906000526020600020905b815481529060010190602001808311610bfb57829003601f168201915b50505050508152602001600482018054600181600116156101000203166002900480601f016020809104026020016040519081016040528092919081815260200182805460018160011615610100020316600290048015610cba5780601f10610c8f57610100808354040283529160200191610cba565b820191906000526020600020905b815481529060010190602001808311610c9d57829003601f168201915b505050505081526020016005820160009054906101000a900460ff16151515158152602001600682018054600181600116156101000203166002900480601f016020809104026020016040519081016040528092919081815260200182805460018160011615610100020316600290048015610d775780601f10610d4c57610100808354040283529160200191610d77565b820191906000526020600020905b815481529060010190602001808311610d5a57829003601f168201915b50505050508152602001600782018054600181600116156101000203166002900480601f016020809104026020016040519081016040528092919081815260200182805460018160011615610100020316600290048015610e195780601f10610dee57610100808354040283529160200191610e19565b820191906000526020600020905b815481529060010190602001808311610dfc57829003601f168201915b5050505050815260200160088201548152505081526020019060010190610b3d565b50505050905080915050919050565b600160003373ffffffffffffffffffffffffffffffffffffffff1673ffffffffffffffffffffffffffffffffffffffff168152602001908152602001600020600081548092919060010191905055506000600160003373ffffffffffffffffffffffffffffffffffffffff1673ffffffffffffffffffffffffffffffffffffffff168152602001908152602001600020549050610ee561179a565b6040518061012001604052808b81526020018a815260200189815260200188815260200187815260200186151581526020018581526020018481526020018381525090506000803373ffffffffffffffffffffffffffffffffffffffff1673ffffffffffffffffffffffffffffffffffffffff1681526020019081526020016000208190806001815401808255809150506001900390600052602060002090600902016000909190919091506000820151816000015560208201518160010155604082015181600201556060820151816003019080519060200190610fcb9291906117e8565b506080820151816004019080519060200190610fe89291906117e8565b5060a08201518160050160006101000a81548160ff02191690831515021790555060c08201518160060190805190602001906110259291906117e8565b5060e08201518160070190805190602001906110429291906117e8565b506101008201518160080155505050505050505050505050565b60008060008060008061106e8761140d565b809650819750829850839950849a50859b5050505050505091939550919395565b60606040518060400160405280601081526020017f48692066726f6d2043616c53746f726500000000000000000000000000000000815250905090565b606080602867ffffffffffffffff811180156110e757600080fd5b506040519080825280601f01601f19166020018201604052801561111a5781602001600182028036833780820191505090505b50905060005b60148110156112255760008160130360080260020a8573ffffffffffffffffffffffffffffffffffffffff168161115357fe5b0460f81b9050600060108260f81c60ff168161116b57fe5b0460f81b905060008160f81c6010028360f81c0360f81b905061118d82611488565b85856002028151811061119c57fe5b60200101907effffffffffffffffffffffffffffffffffffffffffffffffffffffffffffff1916908160001a9053506111d481611488565b8560018660020201815181106111e657fe5b60200101907effffffffffffffffffffffffffffffffffffffffffffffffffffffffffffff1916908160001a9053505050508080600101915050611120565b5080915050919050565b606061124261123d836114bc565b6114e9565b61125361124e8461153f565b6114e9565b61126461125f8561156c565b6114e9565b61127561127086611599565b6114e9565b611286611281876115bf565b6114e9565b611297611292886115e3565b6114e9565b6040516020016112ac96959493929190611fe0565b6040516020818303038152906040529050919050565b606060008290506000811415611310576040518060400160405280600181526020017f3000000000000000000000000000000000000000000000000000000000000000815250915050611408565b600081905060005b6000821461133a578080600101915050600a828161133257fe5b049150611318565b60608167ffffffffffffffff8111801561135357600080fd5b506040519080825280601f01601f1916602001820160405280156113865781602001600182028036833780820191505090505b50905060006001830390505b600085146113ff57600a85816113a457fe5b0660300160f81b828280600190039350815181106113be57fe5b60200101907effffffffffffffffffffffffffffffffffffffffffffffffffffffffffffff1916908160001a905350600a85816113f757fe5b049450611392565b81955050505050505b919050565b60008060008060008061142b62015180888161142557fe5b046115f7565b809650819750829850505050600062015180888161144557fe5b069050610e10818161145357fe5b049350610e10818161146157fe5b069050603c818161146e57fe5b049250603c818161147b57fe5b0691505091939550919395565b6000600a8260f81c60ff1610156114aa5760308260f81c0160f81b90506114b7565b60578260f81c0160f81b90505b919050565b60008060006114d66201518085816114d057fe5b046115f7565b8093508194508295505050505050919050565b6060806000600990508084111561150a57611503846112c2565b9150611535565b611513846112c2565b604051602001611523919061218e565b60405160208183030381529060405291505b8192505050919050565b600080600061155962015180858161155357fe5b046115f7565b8093508195508294505050505050919050565b600080600061158662015180858161158057fe5b046115f7565b8095508193508294505050505050919050565b6000806201518083816115a857fe5b069050610e1081816115b657fe5b04915050919050565b600080610e1083816115cd57fe5b069050603c81816115da57fe5b04915050919050565b6000603c82816115ef57fe5b069050919050565b600080600080849050600062253d8c62010bd98301019050600062023ab1826004028161162057fe5b059050600460038262023ab102018161163557fe5b0582039150600062164b0960018401610fa0028161164f57fe5b059050601f6004826105b5028161166257fe5b058403019250600061098f846050028161167857fe5b059050600060508261098f028161168b57fe5b0585039050600b828161169a57fe5b05945084600c0260028301039150848360318603606402010192508298508197508096505050505050509193909250565b828054600181600116156101000203166002900490600052602060002090601f016020900481019282601f106117045780548555611741565b8280016001018555821561174157600052602060002091601f016020900482015b82811115611740578254825591600101919060010190611725565b5b50905061174e9190611868565b5090565b50805460018160011615610100020316600290046000825580601f106117785750611797565b601f0160209004906000526020600020908101906117969190611868565b5b50565b60405180610120016040528060008152602001600081526020016000815260200160608152602001606081526020016000151581526020016060815260200160608152602001600081525090565b828054600181600116156101000203166002900490600052602060002090601f016020900481019282601f1061182957805160ff1916838001178555611857565b82800160010185558215611857579182015b8281111561185657825182559160200191906001019061183b565b5b5090506118649190611868565b5090565b5b80821115611881576000816000905550600101611869565b5090565b600081359050611894816123ba565b92915050565b6000813590506118a9816123d1565b92915050565b600082601f8301126118c057600080fd5b81356118d36118ce82612282565b612255565b915080825260208301602083018583830111156118ef57600080fd5b6118fa838284612367565b50505092915050565b600081359050611912816123e8565b92915050565b60006020828403121561192a57600080fd5b600061193884828501611885565b91505092915050565b60006020828403121561195357600080fd5b600061196184828501611903565b91505092915050565b600080600080600080600080610100898b03121561198757600080fd5b60006119958b828c01611903565b98505060206119a68b828c01611903565b97505060406119b78b828c01611903565b965050606089013567ffffffffffffffff8111156119d457600080fd5b6119e08b828c016118af565b955050608089013567ffffffffffffffff8111156119fd57600080fd5b611a098b828c016118af565b94505060a0611a1a8b828c0161189a565b93505060c089013567ffffffffffffffff811115611a3757600080fd5b611a438b828c016118af565b92505060e089013567ffffffffffffffff811115611a6057600080fd5b611a6c8b828c016118af565b9150509295985092959890939650565b6000611a888383611eb7565b905092915050565b6000611a9b826122be565b611aa581856122e1565b935083602082028501611ab7856122ae565b8060005b85811015611af35784840389528151611ad48582611a7c565b9450611adf836122d4565b925060208a01995050600181019050611abb565b50829750879550505050505092915050565b611b0e81612331565b82525050565b6000611b1f826122c9565b611b2981856122f2565b9350611b39818560208601612376565b611b42816123a9565b840191505092915050565b6000611b58826122c9565b611b628185612303565b9350611b72818560208601612376565b611b7b816123a9565b840191505092915050565b6000611b91826122c9565b611b9b8185612314565b9350611bab818560208601612376565b80840191505092915050565b6000611bc4600183612314565b91507f30000000000000000000000000000000000000000000000000000000000000006000830152600182019050919050565b6000611c04600183612314565b91507f0a000000000000000000000000000000000000000000000000000000000000006000830152600182019050919050565b6000611c44600883612314565b91507f53554d4d4152593a0000000000000000000000000000000000000000000000006000830152600882019050919050565b6000611c84600583612314565b91507f4454454e440000000000000000000000000000000000000000000000000000006000830152600582019050919050565b6000611cc4600783612314565b91507f44545354415254000000000000000000000000000000000000000000000000006000830152600782019050919050565b6000611d04600b83612314565b91507f454e443a564556454e540a0000000000000000000000000000000000000000006000830152600b82019050919050565b6000611d44600183612314565b91507f54000000000000000000000000000000000000000000000000000000000000006000830152600182019050919050565b6000611d84600c83612314565b91507f4445534352495054494f4e3a00000000000000000000000000000000000000006000830152600c82019050919050565b6000611dc4600883612314565b91507f44545354414d503a0000000000000000000000000000000000000000000000006000830152600882019050919050565b6000611e04600d83612314565b91507f424547494e3a564556454e540a000000000000000000000000000000000000006000830152600d82019050919050565b6000611e44600183612314565b91507f40000000000000000000000000000000000000000000000000000000000000006000830152600182019050919050565b6000611e84600483612314565b91507f5549443a000000000000000000000000000000000000000000000000000000006000830152600482019050919050565b600061012083016000830151611ed06000860182611f91565b506020830151611ee36020860182611f91565b506040830151611ef66040860182611f91565b5060608301518482036060860152611f0e8282611b14565b91505060808301518482036080860152611f288282611b14565b91505060a0830151611f3d60a0860182611b05565b5060c083015184820360c0860152611f558282611b14565b91505060e083015184820360e0860152611f6f8282611b14565b915050610100830151611f86610100860182611f91565b508091505092915050565b611f9a8161235d565b82525050565b611fa98161235d565b82525050565b6000611fbb8286611b86565b9150611fc78285611b86565b9150611fd38284611b86565b9150819050949350505050565b6000611fec8289611b86565b9150611ff88288611b86565b91506120048287611b86565b915061200f82611d37565b915061201b8286611b86565b91506120278285611b86565b91506120338284611b86565b9150819050979650505050505050565b600061204f828f611b86565b915061205a82611df7565b915061206582611db7565b9150612071828e611b86565b915061207c82611bf7565b915061208782611e77565b9150612093828d611b86565b915061209e82611e37565b91506120aa828c611b86565b91506120b582611bf7565b91506120c082611cb7565b91506120cc828b611b86565b91506120d8828a611b86565b91506120e48289611b86565b91506120ef82611bf7565b91506120fa82611c77565b91506121068288611b86565b91506121128287611b86565b915061211e8286611b86565b915061212982611bf7565b915061213482611c37565b91506121408285611b86565b915061214b82611bf7565b915061215682611d77565b91506121628284611b86565b915061216d82611bf7565b915061217882611cf7565b91508190509d9c50505050505050505050505050565b600061219982611bb7565b91506121a58284611b86565b915081905092915050565b600060208201905081810360008301526121ca8184611a90565b905092915050565b600060208201905081810360008301526121ec8184611b4d565b905092915050565b600060c0820190506122096000830189611fa0565b6122166020830188611fa0565b6122236040830187611fa0565b6122306060830186611fa0565b61223d6080830185611fa0565b61224a60a0830184611fa0565b979650505050505050565b6000604051905081810181811067ffffffffffffffff8211171561227857600080fd5b8060405250919050565b600067ffffffffffffffff82111561229957600080fd5b601f19601f8301169050602081019050919050565b6000819050602082019050919050565b600081519050919050565b600081519050919050565b6000602082019050919050565b600082825260208201905092915050565b600082825260208201905092915050565b600082825260208201905092915050565b600081905092915050565b600061232a8261233d565b9050919050565b60008115159050919050565b600073ffffffffffffffffffffffffffffffffffffffff82169050919050565b6000819050919050565b82818337600083830152505050565b60005b83811015612394578082015181840152602081019050612379565b838111156123a3576000848401525b50505050565b6000601f19601f8301169050919050565b6123c38161231f565b81146123ce57600080fd5b50565b6123da81612331565b81146123e557600080fd5b50565b6123f18161235d565b81146123fc57600080fd5b5056fe424547494e3a5643414c454e4441520a56455253494f4e3a322e300a50524f4449443a2d2f2f70726563696f7573636869636b656e2e636f6d2f2f666f726765742d6d652d626c6f636b2d6574682d63616c0a43414c5343414c453a475245474f5249414e0aa264697066735822122009e5f2cb26db60d7c4371212c3161595d89ec7aa4bdecabcc7908fb7746f118864736f6c634300060c0033",
  "source": "// SPDX-License-Identifier: MIT\npragma solidity ^0.6.1;\npragma experimental ABIEncoderV2;\n\nimport \"./BokkyPooBahsDateTimeLibrary.sol\";\n\ncontract CalStore  {\n    using BokkyPooBahsDateTimeLibrary for uint;\n\n    struct VEvent {\n        uint dtstamp;\n        uint dtstart;\n        uint dtend;\n        string summary;\n        string description;\n        bool isallday;\n        string alldaystartdate;\n        string alldayenddate;\n        uint uid; // This should by dtstart, plus an id, plus msg.owner Change to string eventually\n    }\n\n    mapping(address => VEvent[]) private store;\n    mapping(address => uint) private count;\n\n    function storeEvent(\n        uint _dtstamp, uint _dtstart, uint _dtend,\n        string memory _summary, string memory _description,\n        bool _isallday, string memory _alldaystartdate,\n        string memory _alldayenddate)\n        public\n        {\n        count[msg.sender]++;\n        uint nextId = count[msg.sender];\n        VEvent memory newEvent = VEvent(\n            _dtstamp,\n            _dtstart,\n            _dtend,\n            _summary,\n            _description,\n            _isallday,\n            _alldaystartdate,\n            _alldayenddate,\n            nextId);\n        store[msg.sender].push(newEvent);\n    }\n\n    function justSayHiCalStore() public pure returns (string memory) {\n        return \"Hi from CalStore\";\n    }\n\n    function removeEvent(uint _dtstamp) public {\n        uint storeLen = store[msg.sender].length;\n        for (uint i = 0; i < storeLen; i++) {\n            if (store[msg.sender][i].dtstamp == _dtstamp) {\n                // Move the last element into the place to delete\n                store[msg.sender][i] = store[msg.sender][storeLen - 1];\n                // Remove the last element\n                store[msg.sender].pop();\n                break;\n            }\n        }\n    }\n\n    function timestampToDateTime(uint timestamp) public pure returns (uint year, uint month, uint day, uint hour, uint minute, uint second) {\n        (year, month, day, hour, minute, second) = BokkyPooBahsDateTimeLibrary.timestampToDateTime(timestamp);\n    }\n\n    /// @notice Returns iCal string of message senders previously stored data\n    /// @dev TODO: Return if no events?\n    /// @param _calOwner address of message sender\n    /// @return string iCalendar string iaw RFC 5545\n    function getEventsIcal(address _calOwner) public view returns (string memory) {\n        string memory outputString = \"\";\n        string memory vCalHeader = \"BEGIN:VCALENDAR\\nVERSION:2.0\\nPRODID:-//preciouschicken.com//forget-me-block-eth-cal\\nCALSCALE:GREGORIAN\\n\";\n        string memory vCalFooter = \"END:VCALENDAR\\n\";\n        VEvent[] memory ownerEvent = store[_calOwner];\n        string memory ownerStr = addressToStr(_calOwner);\n\n        for (uint i = 0; i < ownerEvent.length; i++) {\n            string memory dtstamp = unixTimeToStr(ownerEvent[i].dtstamp);\n            string memory uid = uintToStr(ownerEvent[i].uid);\n            string memory summary = ownerEvent[i].summary;\n            string memory description = ownerEvent[i].description;\n            string memory allday;\n            string memory dtstart;\n            string memory dtend;\n            string memory utcmark;\n            if (ownerEvent[i].isallday) {\n                allday = \";VALUE=DATE:\";\n                dtstart = ownerEvent[i].alldaystartdate;\n                dtend = ownerEvent[i].alldayenddate;\n                utcmark = \"\";\n            } else {\n                allday = \":\";\n                dtstart = unixTimeToStr(ownerEvent[i].dtstart);\n                dtend = unixTimeToStr(ownerEvent[i].dtend);\n                utcmark = \"Z\";\n            }\n            outputString = string(\n                abi.encodePacked(outputString,\"BEGIN:VEVENT\\n\",\n                                 \"DTSTAMP:\", dtstamp, \"\\n\",\n                                 \"UID:\", uid, \"@\", ownerStr, \"\\n\",\n                                 \"DTSTART\", allday, dtstart, utcmark, \"\\n\",\n                                 \"DTEND\", allday, dtend, utcmark, \"\\n\",\n                                 \"SUMMARY:\", summary, \"\\n\",\n                                 \"DESCRIPTION:\", description, \"\\n\",\n                                 \"END:VEVENT\\n\"\n                                )\n            );\n        }\n        return string(abi.encodePacked(vCalHeader, outputString, vCalFooter));\n    }\n\n\n    function unixTimeToStr(uint _unixTime) private pure returns (string memory) {\n        return string(\n            abi.encodePacked(\n                leadingZeroAdd(BokkyPooBahsDateTimeLibrary.getYear(_unixTime)),\n                leadingZeroAdd(BokkyPooBahsDateTimeLibrary.getMonth(_unixTime)),\n                leadingZeroAdd(BokkyPooBahsDateTimeLibrary.getDay(_unixTime)),\n                \"T\",\n                leadingZeroAdd(BokkyPooBahsDateTimeLibrary.getHour(_unixTime)),\n                leadingZeroAdd(BokkyPooBahsDateTimeLibrary.getMinute(_unixTime)),\n                leadingZeroAdd(BokkyPooBahsDateTimeLibrary.getSecond(_unixTime))\n        )\n        );\n    }\n\n    function leadingZeroAdd(uint _timePoint) private pure returns (string memory) {\n        string memory timeStr;\n        uint requiresZero = 9; // Time points less than 9 require leading zero\n        if (_timePoint > requiresZero ) {\n            timeStr = uintToStr(_timePoint);\n        } else {\n            timeStr = string(abi.encodePacked(\"0\", uintToStr(_timePoint)));\n        }\n        return timeStr;\n    }\n\n    // Returns all msg for msg.sender, regardless of time\n    function getEventsObj(address _calOwner) public view returns (VEvent[] memory) {\n\n        // Return error if no events\n        VEvent[] memory tempData = store[_calOwner];\n        return tempData;\n    }\n\n    /// @notice converts number to string\n    /// @dev source: https://github.com/provable-things/ethereum-api/blob/master/oraclizeAPI_0.5.sol#L1045\n    /// @param _i integer to convert\n    /// @return _uintAsString string\n    function uintToStr(uint _i) internal pure returns (string memory _uintAsString) {\n        uint number = _i;\n        if (number == 0) {\n            return \"0\";\n        }\n        uint j = number;\n        uint len;\n        while (j != 0) {\n            len++;\n            j /= 10;\n        }\n        bytes memory bstr = new bytes(len);\n        uint k = len - 1;\n        while (number != 0) {\n            bstr[k--] = byte(uint8(48 + number % 10));\n            number /= 10;\n        }\n        return string(bstr);\n    }\n\n    /// @notice converts address to string\n    /// @dev source: https://ethereum.stackexchange.com/a/8447/61217\n    /// @param _add address\n    /// @return string\n    function addressToStr(address _add) internal pure returns (string memory) {\n        bytes memory s = new bytes(40);\n        for (uint i = 0; i < 20; i++) {\n            byte b = byte(uint8(uint(_add) / (2**(8*(19 - i)))));\n            byte hi = byte(uint8(b) / 16);\n            byte lo = byte(uint8(b) - 16 * uint8(hi));\n            s[2*i] = char(hi);\n            s[2*i+1] = char(lo);\n        }\n        return string(s);\n    }\n\n    /// @notice character conversion for addressToStr\n    /// @dev source: https://ethereum.stackexchange.com/a/8447/61217\n    /// @param _b byte\n    /// @return c byte\n    function char(byte _b) internal pure returns (byte c) {\n        if (uint8(_b) < 10) {\n            return byte(uint8(_b) + 0x30);\n        } else {\n            return byte(uint8(_b) + 0x57);\n        }\n    }\n\n}\n\n// CalStore.deployed().then(function(instance) {app = instance})\n// let accounts = await web3.eth.getAccounts()\n\n// app.storeEvent(1595170930, 1596121200, 1596123000, \"Meeting 1\", \"First Meeting\");\n// app.storeEvent(1595171030, 1596290400, 1596295800, \"Meeting 2\", \"Second Meeting\");\n// app.getEventsObj(accounts[0]);\n// app.getEventsIcal(accounts[0]);\n// app.justSayHi();\n\n// get all accounts: web3.eth.getAccounts().then(console.log)\n\n",
  "sourcePath": "/home/gene/Programming/Websites/Precious_Chicken_Website/blog_code_demos/forget-me-block-cal-auth/contracts/CalStore.sol",
  "compiler": {
    "name": "solc",
    "version": "0.6.12+commit.27d51765.Emscripten.clang"
  },
  "schemaVersion": "3.0.23",
  "updatedAt": "2020-08-14T11:52:56.270Z",
  "networkType": "ethereum",
  "devdoc": {
    "kind": "dev",
    "methods": {
      "getEventsIcal(address)": {
        "details": "TODO: Return if no events?",
        "params": {
          "_calOwner": "address of message sender"
        },
        "returns": {
          "_0": "string iCalendar string iaw RFC 5545"
        }
      }
    },
    "version": 1
  },
  "userdoc": {
    "kind": "user",
    "methods": {
      "getEventsIcal(address)": {
        "notice": "Returns iCal string of message senders previously stored data"
      }
    },
    "version": 1
  }
}