{
  "contractName": "CalStore",
  "abi": [
    {
      "inputs": [
        {
          "internalType": "uint256",
          "name": "_dtstamp",
          "type": "uint256"
        },
        {
          "internalType": "uint256",
          "name": "_dtstart",
          "type": "uint256"
        },
        {
          "internalType": "uint256",
          "name": "_dtend",
          "type": "uint256"
        },
        {
          "internalType": "string",
          "name": "_summary",
          "type": "string"
        },
        {
          "internalType": "string",
          "name": "_description",
          "type": "string"
        },
        {
          "internalType": "bool",
          "name": "_isallday",
          "type": "bool"
        },
        {
          "internalType": "string",
          "name": "_alldaystartdate",
          "type": "string"
        },
        {
          "internalType": "string",
          "name": "_alldayenddate",
          "type": "string"
        }
      ],
      "name": "storeEvent",
      "outputs": [],
      "stateMutability": "nonpayable",
      "type": "function"
    },
    {
      "inputs": [],
      "name": "deleteEvents",
      "outputs": [],
      "stateMutability": "nonpayable",
      "type": "function"
    },
    {
      "inputs": [
        {
          "internalType": "uint256",
          "name": "_dtstamp",
          "type": "uint256"
        }
      ],
      "name": "removeEvent",
      "outputs": [],
      "stateMutability": "nonpayable",
      "type": "function"
    },
    {
      "inputs": [
        {
          "internalType": "address",
          "name": "_user",
          "type": "address"
        }
      ],
      "name": "getEventsIcal",
      "outputs": [
        {
          "internalType": "string",
          "name": "",
          "type": "string"
        }
      ],
      "stateMutability": "view",
      "type": "function",
      "constant": true
    },
    {
      "inputs": [
        {
          "internalType": "address",
          "name": "_user",
          "type": "address"
        },
        {
          "internalType": "uint256",
          "name": "_validFrom",
          "type": "uint256"
        },
        {
          "internalType": "uint256",
          "name": "_expiresBy",
          "type": "uint256"
        }
      ],
      "name": "getEventsIcal",
      "outputs": [
        {
          "internalType": "string",
          "name": "",
          "type": "string"
        }
      ],
      "stateMutability": "view",
      "type": "function",
      "constant": true
    },
    {
      "inputs": [
        {
          "internalType": "address",
          "name": "_user",
          "type": "address"
        },
        {
          "internalType": "uint256",
          "name": "_validFrom",
          "type": "uint256"
        }
      ],
      "name": "getEventsIcal",
      "outputs": [
        {
          "internalType": "string",
          "name": "",
          "type": "string"
        }
      ],
      "stateMutability": "view",
      "type": "function",
      "constant": true
    },
    {
      "inputs": [
        {
          "internalType": "uint256",
          "name": "_validFrom",
          "type": "uint256"
        },
        {
          "internalType": "uint256",
          "name": "_expiresBy",
          "type": "uint256"
        }
      ],
      "name": "getEventsObj",
      "outputs": [
        {
          "components": [
            {
              "internalType": "uint256",
              "name": "dtstamp",
              "type": "uint256"
            },
            {
              "internalType": "uint256",
              "name": "dtstart",
              "type": "uint256"
            },
            {
              "internalType": "uint256",
              "name": "dtend",
              "type": "uint256"
            },
            {
              "internalType": "string",
              "name": "summary",
              "type": "string"
            },
            {
              "internalType": "string",
              "name": "description",
              "type": "string"
            },
            {
              "internalType": "bool",
              "name": "isallday",
              "type": "bool"
            },
            {
              "internalType": "string",
              "name": "alldaystartdate",
              "type": "string"
            },
            {
              "internalType": "string",
              "name": "alldayenddate",
              "type": "string"
            },
            {
              "internalType": "uint256",
              "name": "uid",
              "type": "uint256"
            }
          ],
          "internalType": "struct VEventLibrary.VEvent[]",
          "name": "",
          "type": "tuple[]"
        }
      ],
      "stateMutability": "view",
      "type": "function",
      "constant": true
    },
    {
      "inputs": [
        {
          "internalType": "uint256",
          "name": "_validFrom",
          "type": "uint256"
        }
      ],
      "name": "getEventsObj",
      "outputs": [
        {
          "components": [
            {
              "internalType": "uint256",
              "name": "dtstamp",
              "type": "uint256"
            },
            {
              "internalType": "uint256",
              "name": "dtstart",
              "type": "uint256"
            },
            {
              "internalType": "uint256",
              "name": "dtend",
              "type": "uint256"
            },
            {
              "internalType": "string",
              "name": "summary",
              "type": "string"
            },
            {
              "internalType": "string",
              "name": "description",
              "type": "string"
            },
            {
              "internalType": "bool",
              "name": "isallday",
              "type": "bool"
            },
            {
              "internalType": "string",
              "name": "alldaystartdate",
              "type": "string"
            },
            {
              "internalType": "string",
              "name": "alldayenddate",
              "type": "string"
            },
            {
              "internalType": "uint256",
              "name": "uid",
              "type": "uint256"
            }
          ],
          "internalType": "struct VEventLibrary.VEvent[]",
          "name": "",
          "type": "tuple[]"
        }
      ],
      "stateMutability": "view",
      "type": "function",
      "constant": true
    },
    {
      "inputs": [],
      "name": "getEventsObj",
      "outputs": [
        {
          "components": [
            {
              "internalType": "uint256",
              "name": "dtstamp",
              "type": "uint256"
            },
            {
              "internalType": "uint256",
              "name": "dtstart",
              "type": "uint256"
            },
            {
              "internalType": "uint256",
              "name": "dtend",
              "type": "uint256"
            },
            {
              "internalType": "string",
              "name": "summary",
              "type": "string"
            },
            {
              "internalType": "string",
              "name": "description",
              "type": "string"
            },
            {
              "internalType": "bool",
              "name": "isallday",
              "type": "bool"
            },
            {
              "internalType": "string",
              "name": "alldaystartdate",
              "type": "string"
            },
            {
              "internalType": "string",
              "name": "alldayenddate",
              "type": "string"
            },
            {
              "internalType": "uint256",
              "name": "uid",
              "type": "uint256"
            }
          ],
          "internalType": "struct VEventLibrary.VEvent[]",
          "name": "",
          "type": "tuple[]"
        }
      ],
      "stateMutability": "view",
      "type": "function",
      "constant": true
    }
  ],
  "bytecode": "0x608060405234801561001057600080fd5b50613657806100206000396000f3fe608060405234801561001057600080fd5b50600436106100935760003560e01c806396cba36a1161006657806396cba36a14610144578063ab7cc4d214610174578063cab887ab14610190578063caebb9911461019a578063f35cf90e146101b857610093565b806310d00a671461009857806356164e1e146100c85780638700d566146100e45780638b9265c614610114575b600080fd5b6100b260048036038101906100ad9190612a92565b6101e8565b6040516100bf919061341e565b60405180910390f35b6100e260048036038101906100dd9190612b46565b6105bb565b005b6100fe60048036038101906100f99190612af7565b610902565b60405161010b919061341e565b60405180910390f35b61012e60048036038101906101299190612b6f565b610d1b565b60405161013b91906133fc565b60405180910390f35b61015e60048036038101906101599190612b46565b61116b565b60405161016b91906133fc565b60405180910390f35b61018e60048036038101906101899190612bab565b611595565b005b6101986117a7565b005b6101a2611838565b6040516101af91906133fc565b60405180910390f35b6101d260048036038101906101cd9190612abb565b611ba4565b6040516101df919061341e565b60405180910390f35b60608060405180602001604052806000815250905060606000808573ffffffffffffffffffffffffffffffffffffffff1673ffffffffffffffffffffffffffffffffffffffff168152602001908152602001600020805480602002602001604051908101604052809291908181526020016000905b8282101561055b578382906000526020600020906009020160405180610120016040529081600082015481526020016001820154815260200160028201548152602001600382018054600181600116156101000203166002900480601f0160208091040260200160405190810160405280929190818152602001828054600181600116156101000203166002900480156103385780601f1061030d57610100808354040283529160200191610338565b820191906000526020600020905b81548152906001019060200180831161031b57829003601f168201915b50505050508152602001600482018054600181600116156101000203166002900480601f0160208091040260200160405190810160405280929190818152602001828054600181600116156101000203166002900480156103da5780601f106103af576101008083540402835291602001916103da565b820191906000526020600020905b8154815290600101906020018083116103bd57829003601f168201915b505050505081526020016005820160009054906101000a900460ff16151515158152602001600682018054600181600116156101000203166002900480601f0160208091040260200160405190810160405280929190818152602001828054600181600116156101000203166002900480156104975780601f1061046c57610100808354040283529160200191610497565b820191906000526020600020905b81548152906001019060200180831161047a57829003601f168201915b50505050508152602001600782018054600181600116156101000203166002900480601f0160208091040260200160405190810160405280929190818152602001828054600181600116156101000203166002900480156105395780601f1061050e57610100808354040283529160200191610539565b820191906000526020600020905b81548152906001019060200180831161051c57829003601f168201915b505050505081526020016008820154815250508152602001906001019061025d565b505050509050606061056c85611f97565b905060005b82518110156105a75761059883828151811061058957fe5b602002602001015183866120fa565b93508080600101915050610571565b506105b183612276565b9350505050919050565b60008060003373ffffffffffffffffffffffffffffffffffffffff1673ffffffffffffffffffffffffffffffffffffffff16815260200190815260200160002080549050905060005b818110156108fd57826000803373ffffffffffffffffffffffffffffffffffffffff1673ffffffffffffffffffffffffffffffffffffffff168152602001908152602001600020828154811061065657fe5b90600052602060002090600902016000015414156108f0576000803373ffffffffffffffffffffffffffffffffffffffff1673ffffffffffffffffffffffffffffffffffffffff16815260200190815260200160002060018303815481106106ba57fe5b90600052602060002090600902016000803373ffffffffffffffffffffffffffffffffffffffff1673ffffffffffffffffffffffffffffffffffffffff168152602001908152602001600020828154811061071157fe5b906000526020600020906009020160008201548160000155600182015481600101556002820154816002015560038201816003019080546001816001161561010002031660029004610764929190612796565b506004820181600401908054600181600116156101000203166002900461078c929190612796565b506005820160009054906101000a900460ff168160050160006101000a81548160ff021916908315150217905550600682018160060190805460018160011615610100020316600290046107e1929190612796565b5060078201816007019080546001816001161561010002031660029004610809929190612796565b50600882015481600801559050506000803373ffffffffffffffffffffffffffffffffffffffff1673ffffffffffffffffffffffffffffffffffffffff16815260200190815260200160002080548061085e57fe5b60019003818190600052602060002090600902016000808201600090556001820160009055600282016000905560038201600061089b919061281d565b6004820160006108ab919061281d565b6005820160006101000a81549060ff02191690556006820160006108cf919061281d565b6007820160006108df919061281d565b6008820160009055505090556108fd565b8080600101915050610604565b505050565b60608060405180602001604052806000815250905060606000808773ffffffffffffffffffffffffffffffffffffffff1673ffffffffffffffffffffffffffffffffffffffff168152602001908152602001600020805480602002602001604051908101604052809291908181526020016000905b82821015610c75578382906000526020600020906009020160405180610120016040529081600082015481526020016001820154815260200160028201548152602001600382018054600181600116156101000203166002900480601f016020809104026020016040519081016040528092919081815260200182805460018160011615610100020316600290048015610a525780601f10610a2757610100808354040283529160200191610a52565b820191906000526020600020905b815481529060010190602001808311610a3557829003601f168201915b50505050508152602001600482018054600181600116156101000203166002900480601f016020809104026020016040519081016040528092919081815260200182805460018160011615610100020316600290048015610af45780601f10610ac957610100808354040283529160200191610af4565b820191906000526020600020905b815481529060010190602001808311610ad757829003601f168201915b505050505081526020016005820160009054906101000a900460ff16151515158152602001600682018054600181600116156101000203166002900480601f016020809104026020016040519081016040528092919081815260200182805460018160011615610100020316600290048015610bb15780601f10610b8657610100808354040283529160200191610bb1565b820191906000526020600020905b815481529060010190602001808311610b9457829003601f168201915b50505050508152602001600782018054600181600116156101000203166002900480601f016020809104026020016040519081016040528092919081815260200182805460018160011615610100020316600290048015610c535780601f10610c2857610100808354040283529160200191610c53565b820191906000526020600020905b815481529060010190602001808311610c3657829003601f168201915b5050505050815260200160088201548152505081526020019060010190610977565b5050505090506060610c8687611f97565b905060005b8251811015610d0557828181518110610ca057fe5b6020026020010151604001518711158015610cd25750828181518110610cc257fe5b6020026020010151602001518610155b15610cf857610cf5838281518110610ce657fe5b602002602001015183866120fa565b93505b8080600101915050610c8b565b50610d0f83612276565b93505050509392505050565b6060806000803373ffffffffffffffffffffffffffffffffffffffff1673ffffffffffffffffffffffffffffffffffffffff168152602001908152602001600020805480602002602001604051908101604052809291908181526020016000905b8282101561107a578382906000526020600020906009020160405180610120016040529081600082015481526020016001820154815260200160028201548152602001600382018054600181600116156101000203166002900480601f016020809104026020016040519081016040528092919081815260200182805460018160011615610100020316600290048015610e575780601f10610e2c57610100808354040283529160200191610e57565b820191906000526020600020905b815481529060010190602001808311610e3a57829003601f168201915b50505050508152602001600482018054600181600116156101000203166002900480601f016020809104026020016040519081016040528092919081815260200182805460018160011615610100020316600290048015610ef95780601f10610ece57610100808354040283529160200191610ef9565b820191906000526020600020905b815481529060010190602001808311610edc57829003601f168201915b505050505081526020016005820160009054906101000a900460ff16151515158152602001600682018054600181600116156101000203166002900480601f016020809104026020016040519081016040528092919081815260200182805460018160011615610100020316600290048015610fb65780601f10610f8b57610100808354040283529160200191610fb6565b820191906000526020600020905b815481529060010190602001808311610f9957829003601f168201915b50505050508152602001600782018054600181600116156101000203166002900480601f0160208091040260200160405190810160405280929190818152602001828054600181600116156101000203166002900480156110585780601f1061102d57610100808354040283529160200191611058565b820191906000526020600020905b81548152906001019060200180831161103b57829003601f168201915b5050505050815260200160088201548152505081526020019060010190610d7c565b5050505090506060815167ffffffffffffffff8111801561109a57600080fd5b506040519080825280602002602001820160405280156110d457816020015b6110c1612865565b8152602001906001900390816110b95790505b50905060005b825181101561115f578281815181106110ef57fe5b6020026020010151604001518611158015611121575082818151811061111157fe5b6020026020010151602001518510155b156111525782818151811061113257fe5b602002602001015182828151811061114657fe5b60200260200101819052505b80806001019150506110da565b50809250505092915050565b6060806000803373ffffffffffffffffffffffffffffffffffffffff1673ffffffffffffffffffffffffffffffffffffffff168152602001908152602001600020805480602002602001604051908101604052809291908181526020016000905b828210156114ca578382906000526020600020906009020160405180610120016040529081600082015481526020016001820154815260200160028201548152602001600382018054600181600116156101000203166002900480601f0160208091040260200160405190810160405280929190818152602001828054600181600116156101000203166002900480156112a75780601f1061127c576101008083540402835291602001916112a7565b820191906000526020600020905b81548152906001019060200180831161128a57829003601f168201915b50505050508152602001600482018054600181600116156101000203166002900480601f0160208091040260200160405190810160405280929190818152602001828054600181600116156101000203166002900480156113495780601f1061131e57610100808354040283529160200191611349565b820191906000526020600020905b81548152906001019060200180831161132c57829003601f168201915b505050505081526020016005820160009054906101000a900460ff16151515158152602001600682018054600181600116156101000203166002900480601f0160208091040260200160405190810160405280929190818152602001828054600181600116156101000203166002900480156114065780601f106113db57610100808354040283529160200191611406565b820191906000526020600020905b8154815290600101906020018083116113e957829003601f168201915b50505050508152602001600782018054600181600116156101000203166002900480601f0160208091040260200160405190810160405280929190818152602001828054600181600116156101000203166002900480156114a85780601f1061147d576101008083540402835291602001916114a8565b820191906000526020600020905b81548152906001019060200180831161148b57829003601f168201915b50505050508152602001600882015481525050815260200190600101906111cc565b5050505090506060815167ffffffffffffffff811180156114ea57600080fd5b5060405190808252806020026020018201604052801561152457816020015b611511612865565b8152602001906001900390816115095790505b50905060005b825181101561158a5782818151811061153f57fe5b602002602001015160400151851161157d5782818151811061155d57fe5b602002602001015182828151811061157157fe5b60200260200101819052505b808060010191505061152a565b508092505050919050565b600160003373ffffffffffffffffffffffffffffffffffffffff1673ffffffffffffffffffffffffffffffffffffffff168152602001908152602001600020600081548092919060010191905055506000600160003373ffffffffffffffffffffffffffffffffffffffff1673ffffffffffffffffffffffffffffffffffffffff168152602001908152602001600020549050611630612865565b6040518061012001604052808b81526020018a815260200189815260200188815260200187815260200186151581526020018581526020018481526020018381525090506000803373ffffffffffffffffffffffffffffffffffffffff1673ffffffffffffffffffffffffffffffffffffffff16815260200190815260200160002081908060018154018082558091505060019003906000526020600020906009020160009091909190915060008201518160000155602082015181600101556040820151816002015560608201518160030190805190602001906117169291906128b3565b5060808201518160040190805190602001906117339291906128b3565b5060a08201518160050160006101000a81548160ff02191690831515021790555060c08201518160060190805190602001906117709291906128b3565b5060e082015181600701908051906020019061178d9291906128b3565b506101008201518160080155505050505050505050505050565b6000803373ffffffffffffffffffffffffffffffffffffffff1673ffffffffffffffffffffffffffffffffffffffff16815260200190815260200160002060006117f19190612933565b6000600160003373ffffffffffffffffffffffffffffffffffffffff1673ffffffffffffffffffffffffffffffffffffffff16815260200190815260200160002081905550565b6060806000803373ffffffffffffffffffffffffffffffffffffffff1673ffffffffffffffffffffffffffffffffffffffff168152602001908152602001600020805480602002602001604051908101604052809291908181526020016000905b82821015611b97578382906000526020600020906009020160405180610120016040529081600082015481526020016001820154815260200160028201548152602001600382018054600181600116156101000203166002900480601f0160208091040260200160405190810160405280929190818152602001828054600181600116156101000203166002900480156119745780601f1061194957610100808354040283529160200191611974565b820191906000526020600020905b81548152906001019060200180831161195757829003601f168201915b50505050508152602001600482018054600181600116156101000203166002900480601f016020809104026020016040519081016040528092919081815260200182805460018160011615610100020316600290048015611a165780601f106119eb57610100808354040283529160200191611a16565b820191906000526020600020905b8154815290600101906020018083116119f957829003601f168201915b505050505081526020016005820160009054906101000a900460ff16151515158152602001600682018054600181600116156101000203166002900480601f016020809104026020016040519081016040528092919081815260200182805460018160011615610100020316600290048015611ad35780601f10611aa857610100808354040283529160200191611ad3565b820191906000526020600020905b815481529060010190602001808311611ab657829003601f168201915b50505050508152602001600782018054600181600116156101000203166002900480601f016020809104026020016040519081016040528092919081815260200182805460018160011615610100020316600290048015611b755780601f10611b4a57610100808354040283529160200191611b75565b820191906000526020600020905b815481529060010190602001808311611b5857829003601f168201915b5050505050815260200160088201548152505081526020019060010190611899565b5050505090508091505090565b60608060405180602001604052806000815250905060606000808673ffffffffffffffffffffffffffffffffffffffff1673ffffffffffffffffffffffffffffffffffffffff168152602001908152602001600020805480602002602001604051908101604052809291908181526020016000905b82821015611f17578382906000526020600020906009020160405180610120016040529081600082015481526020016001820154815260200160028201548152602001600382018054600181600116156101000203166002900480601f016020809104026020016040519081016040528092919081815260200182805460018160011615610100020316600290048015611cf45780601f10611cc957610100808354040283529160200191611cf4565b820191906000526020600020905b815481529060010190602001808311611cd757829003601f168201915b50505050508152602001600482018054600181600116156101000203166002900480601f016020809104026020016040519081016040528092919081815260200182805460018160011615610100020316600290048015611d965780601f10611d6b57610100808354040283529160200191611d96565b820191906000526020600020905b815481529060010190602001808311611d7957829003601f168201915b505050505081526020016005820160009054906101000a900460ff16151515158152602001600682018054600181600116156101000203166002900480601f016020809104026020016040519081016040528092919081815260200182805460018160011615610100020316600290048015611e535780601f10611e2857610100808354040283529160200191611e53565b820191906000526020600020905b815481529060010190602001808311611e3657829003601f168201915b50505050508152602001600782018054600181600116156101000203166002900480601f016020809104026020016040519081016040528092919081815260200182805460018160011615610100020316600290048015611ef55780601f10611eca57610100808354040283529160200191611ef5565b820191906000526020600020905b815481529060010190602001808311611ed857829003601f168201915b5050505050815260200160088201548152505081526020019060010190611c19565b5050505090506060611f2886611f97565b905060005b8251811015611f8257828181518110611f4257fe5b6020026020010151604001518611611f7557611f72838281518110611f6357fe5b602002602001015183866120fa565b93505b8080600101915050611f2d565b50611f8c83612276565b935050505092915050565b606080602867ffffffffffffffff81118015611fb257600080fd5b506040519080825280601f01601f191660200182016040528015611fe55781602001600182028036833780820191505090505b50905060005b60148110156120f05760008160130360080260020a8573ffffffffffffffffffffffffffffffffffffffff168161201e57fe5b0460f81b9050600060108260f81c60ff168161203657fe5b0460f81b905060008160f81c6010028360f81c0360f81b905061205882612375565b85856002028151811061206757fe5b60200101907effffffffffffffffffffffffffffffffffffffffffffffffffffffffffffff1916908160001a90535061209f81612375565b8560018660020201815181106120b157fe5b60200101907effffffffffffffffffffffffffffffffffffffffffffffffffffffffffffff1916908160001a9053505050508080600101915050611feb565b5080915050919050565b60608061210a85600001516123a9565b9050606061211c86610100015161243c565b90506060866060015190506060876080015190506060806060808b60a001511561219d576040518060400160405280600c81526020017f3b56414c55453d444154453a000000000000000000000000000000000000000081525093508b60c0015192508b60e00151915060405180602001604052806000815250905061222c565b6040518060400160405280600181526020017f3a0000000000000000000000000000000000000000000000000000000000000081525093506121e28c602001516123a9565b92506121f18c604001516123a9565b91506040518060400160405280600181526020017f5a0000000000000000000000000000000000000000000000000000000000000081525090505b8988888d8787868a89898f8f6040516020016122539c9b9a9998979695949392919061328f565b604051602081830303815290604052995089985050505050505050509392505050565b6060806040518060400160405280601c81526020017f424547494e3a5643414c454e4441520a56455253494f4e3a322e300a00000000815250905060606040518060600160405280603781526020016135eb60379139905060606040518060400160405280601381526020017f43414c5343414c453a475245474f5249414e0a00000000000000000000000000815250905060606040518060400160405280600e81526020017f454e443a5643414c454e4441520a0000000000000000000000000000000000008152509050838383888460405160200161235b9594939291906131e1565b604051602081830303815290604052945050505050919050565b6000600a8260f81c60ff1610156123975760308260f81c0160f81b90506123a4565b60578260f81c0160f81b90505b919050565b60606123bc6123b783612587565b6125b4565b6123cd6123c88461260a565b6125b4565b6123de6123d985612637565b6125b4565b6123ef6123ea86612664565b6125b4565b6124006123fb8761268a565b6125b4565b61241161240c886126ae565b6125b4565b6040516020016124269695949392919061322c565b6040516020818303038152906040529050919050565b60606000829050600081141561248a576040518060400160405280600181526020017f3000000000000000000000000000000000000000000000000000000000000000815250915050612582565b600081905060005b600082146124b4578080600101915050600a82816124ac57fe5b049150612492565b60608167ffffffffffffffff811180156124cd57600080fd5b506040519080825280601f01601f1916602001820160405280156125005781602001600182028036833780820191505090505b50905060006001830390505b6000851461257957600a858161251e57fe5b0660300160f81b8282806001900393508151811061253857fe5b60200101907effffffffffffffffffffffffffffffffffffffffffffffffffffffffffffff1916908160001a905350600a858161257157fe5b04945061250c565b81955050505050505b919050565b60008060006125a162015180858161259b57fe5b046126c2565b8093508194508295505050505050919050565b606080600060099050808411156125d5576125ce8461243c565b9150612600565b6125de8461243c565b6040516020016125ee91906133da565b60405160208183030381529060405291505b8192505050919050565b600080600061262462015180858161261e57fe5b046126c2565b8093508195508294505050505050919050565b600080600061265162015180858161264b57fe5b046126c2565b8095508193508294505050505050919050565b60008062015180838161267357fe5b069050610e10818161268157fe5b04915050919050565b600080610e10838161269857fe5b069050603c81816126a557fe5b04915050919050565b6000603c82816126ba57fe5b069050919050565b600080600080849050600062253d8c62010bd98301019050600062023ab182600402816126eb57fe5b059050600460038262023ab102018161270057fe5b0582039150600062164b0960018401610fa0028161271a57fe5b059050601f6004826105b5028161272d57fe5b058403019250600061098f846050028161274357fe5b059050600060508261098f028161275657fe5b0585039050600b828161276557fe5b05945084600c0260028301039150848360318603606402010192508298508197508096505050505050509193909250565b828054600181600116156101000203166002900490600052602060002090601f016020900481019282601f106127cf578054855561280c565b8280016001018555821561280c57600052602060002091601f016020900482015b8281111561280b5782548255916001019190600101906127f0565b5b5090506128199190612957565b5090565b50805460018160011615610100020316600290046000825580601f106128435750612862565b601f0160209004906000526020600020908101906128619190612957565b5b50565b60405180610120016040528060008152602001600081526020016000815260200160608152602001606081526020016000151581526020016060815260200160608152602001600081525090565b828054600181600116156101000203166002900490600052602060002090601f016020900481019282601f106128f457805160ff1916838001178555612922565b82800160010185558215612922579182015b82811115612921578251825591602001919060010190612906565b5b50905061292f9190612957565b5090565b50805460008255600902906000526020600020908101906129549190612974565b50565b5b80821115612970576000816000905550600101612958565b5090565b5b808211156129fb57600080820160009055600182016000905560028201600090556003820160006129a6919061281d565b6004820160006129b6919061281d565b6005820160006101000a81549060ff02191690556006820160006129da919061281d565b6007820160006129ea919061281d565b600882016000905550600901612975565b5090565b600081359050612a0e816135a5565b92915050565b600081359050612a23816135bc565b92915050565b600082601f830112612a3a57600080fd5b8135612a4d612a488261346d565b613440565b91508082526020830160208301858383011115612a6957600080fd5b612a74838284613552565b50505092915050565b600081359050612a8c816135d3565b92915050565b600060208284031215612aa457600080fd5b6000612ab2848285016129ff565b91505092915050565b60008060408385031215612ace57600080fd5b6000612adc858286016129ff565b9250506020612aed85828601612a7d565b9150509250929050565b600080600060608486031215612b0c57600080fd5b6000612b1a868287016129ff565b9350506020612b2b86828701612a7d565b9250506040612b3c86828701612a7d565b9150509250925092565b600060208284031215612b5857600080fd5b6000612b6684828501612a7d565b91505092915050565b60008060408385031215612b8257600080fd5b6000612b9085828601612a7d565b9250506020612ba185828601612a7d565b9150509250929050565b600080600080600080600080610100898b031215612bc857600080fd5b6000612bd68b828c01612a7d565b9850506020612be78b828c01612a7d565b9750506040612bf88b828c01612a7d565b965050606089013567ffffffffffffffff811115612c1557600080fd5b612c218b828c01612a29565b955050608089013567ffffffffffffffff811115612c3e57600080fd5b612c4a8b828c01612a29565b94505060a0612c5b8b828c01612a14565b93505060c089013567ffffffffffffffff811115612c7857600080fd5b612c848b828c01612a29565b92505060e089013567ffffffffffffffff811115612ca157600080fd5b612cad8b828c01612a29565b9150509295985092959890939650565b6000612cc983836130f8565b905092915050565b6000612cdc826134a9565b612ce681856134cc565b935083602082028501612cf885613499565b8060005b85811015612d345784840389528151612d158582612cbd565b9450612d20836134bf565b925060208a01995050600181019050612cfc565b50829750879550505050505092915050565b612d4f8161351c565b82525050565b6000612d60826134b4565b612d6a81856134dd565b9350612d7a818560208601613561565b612d8381613594565b840191505092915050565b6000612d99826134b4565b612da381856134ee565b9350612db3818560208601613561565b612dbc81613594565b840191505092915050565b6000612dd2826134b4565b612ddc81856134ff565b9350612dec818560208601613561565b80840191505092915050565b6000612e056001836134ff565b91507f30000000000000000000000000000000000000000000000000000000000000006000830152600182019050919050565b6000612e456001836134ff565b91507f0a000000000000000000000000000000000000000000000000000000000000006000830152600182019050919050565b6000612e856008836134ff565b91507f53554d4d4152593a0000000000000000000000000000000000000000000000006000830152600882019050919050565b6000612ec56005836134ff565b91507f4454454e440000000000000000000000000000000000000000000000000000006000830152600582019050919050565b6000612f056007836134ff565b91507f44545354415254000000000000000000000000000000000000000000000000006000830152600782019050919050565b6000612f45600b836134ff565b91507f454e443a564556454e540a0000000000000000000000000000000000000000006000830152600b82019050919050565b6000612f856001836134ff565b91507f54000000000000000000000000000000000000000000000000000000000000006000830152600182019050919050565b6000612fc5600c836134ff565b91507f4445534352495054494f4e3a00000000000000000000000000000000000000006000830152600c82019050919050565b60006130056008836134ff565b91507f44545354414d503a0000000000000000000000000000000000000000000000006000830152600882019050919050565b6000613045600d836134ff565b91507f424547494e3a564556454e540a000000000000000000000000000000000000006000830152600d82019050919050565b60006130856001836134ff565b91507f40000000000000000000000000000000000000000000000000000000000000006000830152600182019050919050565b60006130c56004836134ff565b91507f5549443a000000000000000000000000000000000000000000000000000000006000830152600482019050919050565b60006101208301600083015161311160008601826131d2565b50602083015161312460208601826131d2565b50604083015161313760408601826131d2565b506060830151848203606086015261314f8282612d55565b915050608083015184820360808601526131698282612d55565b91505060a083015161317e60a0860182612d46565b5060c083015184820360c08601526131968282612d55565b91505060e083015184820360e08601526131b08282612d55565b9150506101008301516131c76101008601826131d2565b508091505092915050565b6131db81613548565b82525050565b60006131ed8288612dc7565b91506131f98287612dc7565b91506132058286612dc7565b91506132118285612dc7565b915061321d8284612dc7565b91508190509695505050505050565b60006132388289612dc7565b91506132448288612dc7565b91506132508287612dc7565b915061325b82612f78565b91506132678286612dc7565b91506132738285612dc7565b915061327f8284612dc7565b9150819050979650505050505050565b600061329b828f612dc7565b91506132a682613038565b91506132b182612ff8565b91506132bd828e612dc7565b91506132c882612e38565b91506132d3826130b8565b91506132df828d612dc7565b91506132ea82613078565b91506132f6828c612dc7565b915061330182612e38565b915061330c82612ef8565b9150613318828b612dc7565b9150613324828a612dc7565b91506133308289612dc7565b915061333b82612e38565b915061334682612eb8565b91506133528288612dc7565b915061335e8287612dc7565b915061336a8286612dc7565b915061337582612e38565b915061338082612e78565b915061338c8285612dc7565b915061339782612e38565b91506133a282612fb8565b91506133ae8284612dc7565b91506133b982612e38565b91506133c482612f38565b91508190509d9c50505050505050505050505050565b60006133e582612df8565b91506133f18284612dc7565b915081905092915050565b600060208201905081810360008301526134168184612cd1565b905092915050565b600060208201905081810360008301526134388184612d8e565b905092915050565b6000604051905081810181811067ffffffffffffffff8211171561346357600080fd5b8060405250919050565b600067ffffffffffffffff82111561348457600080fd5b601f19601f8301169050602081019050919050565b6000819050602082019050919050565b600081519050919050565b600081519050919050565b6000602082019050919050565b600082825260208201905092915050565b600082825260208201905092915050565b600082825260208201905092915050565b600081905092915050565b600061351582613528565b9050919050565b60008115159050919050565b600073ffffffffffffffffffffffffffffffffffffffff82169050919050565b6000819050919050565b82818337600083830152505050565b60005b8381101561357f578082015181840152602081019050613564565b8381111561358e576000848401525b50505050565b6000601f19601f8301169050919050565b6135ae8161350a565b81146135b957600080fd5b50565b6135c58161351c565b81146135d057600080fd5b50565b6135dc81613548565b81146135e757600080fd5b5056fe50524f4449443a2d2f2f70726563696f7573636869636b656e2e636f6d2f2f666f726765742d6d652d626c6f636b2d6574682d63616c0aa2646970667358221220d484236a5f3c2c7dfaa0a9e3e3b307e4754a6f8451375f1dbb0a7238664024a764736f6c634300060c0033",
  "immutableReferences": {},
  "source": "// SPDX-License-Identifier: MIT\npragma solidity ^0.6.1;\npragma experimental ABIEncoderV2;\n\nimport \"./BokkyPooBahsDateTimeLibrary.sol\";\nimport \"./VEventLibrary.sol\";\n\ncontract CalStore  {\n    using BokkyPooBahsDateTimeLibrary for uint;\n    using VEventLibrary for VEventLibrary.VEvent;\n\n    mapping(address => VEventLibrary.VEvent[]) private store;\n    mapping(address => uint) private count;\n\n    function storeEvent(\n        uint _dtstamp, \n        uint _dtstart, \n        uint _dtend,\n        string memory _summary, \n        string memory _description,\n        bool _isallday, \n        string memory _alldaystartdate,\n        string memory _alldayenddate)\n        public {\n        count[msg.sender]++;\n        uint nextId = count[msg.sender];\n        VEventLibrary.VEvent memory newEvent = VEventLibrary.VEvent(\n            _dtstamp,\n            _dtstart,\n            _dtend,\n            _summary,\n            _description,\n            _isallday,\n            _alldaystartdate,\n            _alldayenddate,\n            nextId);\n        store[msg.sender].push(newEvent);\n    }\n\n    /// @notice Deletes all events for user calender \n    function deleteEvents() public {\n        delete store[msg.sender];\n        count[msg.sender] = 0;\n    }\n\n    /// @notice Returns iCal string of message senders previously stored data\n    /// @dev assumes _dtstamp is unique.  TODO: Test for this\n    /// @param _dtstamp unix time of when event was created\n    function removeEvent(uint _dtstamp) public {\n        uint storeLen = store[msg.sender].length;\n        for (uint i = 0; i < storeLen; i++) {\n            if (store[msg.sender][i].dtstamp == _dtstamp) {\n                // Move the last element into the place to delete\n                store[msg.sender][i] = store[msg.sender][storeLen - 1];\n                // Remove the last element\n                store[msg.sender].pop();\n                break;\n            }\n        }\n    }\n\n    /// @notice Returns iCal string of message senders previously stored data\n    /// @param _user address of user or contract requesting events\n    /// @return string iCalendar string iaw RFC 5545\n    function getEventsIcal(address _user) public view returns (string memory) {\n        string memory outputString = \"\";\n        VEventLibrary.VEvent[] memory ownerEvent = store[_user];\n        string memory ownerStr = addressToStr(_user);\n\n        for (uint i = 0; i < ownerEvent.length; i++) {\n            outputString = constructVEvent(ownerEvent[i], ownerStr, outputString);\n        }\n        return appendVCalHeader(outputString);\n    }\n\n    /// @notice Returns iCal string of message senders previously stored data\n    /// @return string iCalendar string iaw RFC 5545\n    function getEventsIcal(address _user, uint _validFrom) \n    public \n    view \n    returns (string memory) {\n        string memory outputString = \"\";\n        VEventLibrary.VEvent[] memory ownerEvent = store[_user];\n        string memory ownerStr = addressToStr(_user);\n        for (uint i = 0; i < ownerEvent.length; i++) {\n            if (_validFrom <= ownerEvent[i].dtend) {\n                outputString = constructVEvent(ownerEvent[i], ownerStr, outputString);\n            }\n        }\n        return appendVCalHeader(outputString);\n    }\n\n    /// @notice Returns iCal string of message senders previously stored data\n    /// @return string iCalendar string iaw RFC 5545\n    function getEventsIcal(\n        address _user, \n        uint _validFrom, \n        uint _expiresBy) public view returns (string memory) {\n        string memory outputString = \"\";\n        VEventLibrary.VEvent[] memory ownerEvent = store[_user];\n        string memory ownerStr = addressToStr(_user);\n        for (uint i = 0; i < ownerEvent.length; i++) {\n            if ((_validFrom <= ownerEvent[i].dtend) && \n                (_expiresBy >= ownerEvent[i].dtstart)) {\n                outputString = constructVEvent(ownerEvent[i], ownerStr, outputString);\n            }\n        }\n        return appendVCalHeader(outputString);\n    }\n\n    function appendVCalHeader(string memory _events) \n    private \n    pure \n    returns (string memory) \n    {\n        string memory vCalBegin = \"BEGIN:VCALENDAR\\nVERSION:2.0\\n\";\n        string memory vCalProdID = \"PRODID:-//preciouschicken.com//forget-me-block-eth-cal\\n\";\n        string memory vCalCalScale = \"CALSCALE:GREGORIAN\\n\";\n        string memory vCalFooter = \"END:VCALENDAR\\n\";\n        return string(abi.encodePacked(\n            vCalBegin, \n            vCalProdID, \n            vCalCalScale, \n            _events, \n            vCalFooter));\n    }\n\n    function constructVEvent(\n        VEventLibrary.VEvent memory ownerEvent, \n        string memory ownerStr, \n        string memory outputString) \n        private pure returns (string memory) {\n            string memory dtstamp = unixTimeToStr(ownerEvent.dtstamp);\n            string memory uid = uintToStr(ownerEvent.uid);\n            string memory summary = ownerEvent.summary;\n            string memory description = ownerEvent.description;\n            string memory allday;\n            string memory dtstart;\n            string memory dtend;\n            string memory utcmark;\n            if (ownerEvent.isallday) {\n                allday = \";VALUE=DATE:\";\n                dtstart = ownerEvent.alldaystartdate;\n                dtend = ownerEvent.alldayenddate;\n                utcmark = \"\";\n            } else {\n                allday = \":\";\n                dtstart = unixTimeToStr(ownerEvent.dtstart);\n                dtend = unixTimeToStr(ownerEvent.dtend);\n                utcmark = \"Z\";\n            }\n            return outputString = string(\n                abi.encodePacked(outputString,\"BEGIN:VEVENT\\n\",\n                                 \"DTSTAMP:\", dtstamp, \"\\n\",\n                                 \"UID:\", uid, \"@\", ownerStr, \"\\n\",\n                                 \"DTSTART\", allday, dtstart, utcmark, \"\\n\",\n                                 \"DTEND\", allday, dtend, utcmark, \"\\n\",\n                                 \"SUMMARY:\", summary, \"\\n\",\n                                 \"DESCRIPTION:\", description, \"\\n\",\n                                 \"END:VEVENT\\n\"\n                                )\n            );\n    }\n\n    function unixTimeToStr(uint _unixTime) private pure returns (string memory) {\n        return string(\n            abi.encodePacked(\n                leadingZeroAdd(BokkyPooBahsDateTimeLibrary.getYear(_unixTime)),\n                leadingZeroAdd(BokkyPooBahsDateTimeLibrary.getMonth(_unixTime)),\n                leadingZeroAdd(BokkyPooBahsDateTimeLibrary.getDay(_unixTime)),\n                \"T\",\n                leadingZeroAdd(BokkyPooBahsDateTimeLibrary.getHour(_unixTime)),\n                leadingZeroAdd(BokkyPooBahsDateTimeLibrary.getMinute(_unixTime)),\n                leadingZeroAdd(BokkyPooBahsDateTimeLibrary.getSecond(_unixTime))\n        )\n        );\n    }\n\n    function leadingZeroAdd(uint _timePoint) private pure returns (string memory) {\n        string memory timeStr;\n        uint requiresZero = 9; // Time points less than 9 require leading zero\n        if (_timePoint > requiresZero ) {\n            timeStr = uintToStr(_timePoint);\n        } else {\n            timeStr = string(abi.encodePacked(\"0\", uintToStr(_timePoint)));\n        }\n        return timeStr;\n    }\n\n    // Returns all msg for msg.sender, regardless of time\n    function getEventsObj() public view returns (VEventLibrary.VEvent[] memory) {\n        VEventLibrary.VEvent[] memory tempData = store[msg.sender];\n        return tempData;\n    }\n    \n\n    function getEventsObj(uint _validFrom) \n    public \n    view \n    returns (VEventLibrary.VEvent[] memory) {\n        VEventLibrary.VEvent[] memory tempData = store[msg.sender];\n        VEventLibrary.VEvent[] memory filteredData = \n            new VEventLibrary.VEvent[](tempData.length);\n        for (uint i = 0; i < tempData.length; i++) {\n            if (_validFrom <= tempData[i].dtend) {\n                filteredData[i] = tempData[i];\n            }\n        }\n        return filteredData;\n    }\n\n    function getEventsObj(uint _validFrom, uint _expiresBy) \n    public \n    view \n    returns (VEventLibrary.VEvent[] memory) {\n        VEventLibrary.VEvent[] memory tempData = store[msg.sender];\n        VEventLibrary.VEvent[] memory filteredData = \n            new VEventLibrary.VEvent[](tempData.length);\n        for (uint i = 0; i < tempData.length; i++) {\n            if ((_validFrom <= tempData[i].dtend) && \n                (_expiresBy >= tempData[i].dtstart)) {\n                filteredData[i] = tempData[i];\n            }\n        }\n        return filteredData;\n    }\n\n    /// @notice converts number to string\n    /// @dev source: https://github.com/provable-things/ethereum-api/blob/master/oraclizeAPI_0.5.sol#L1045\n    /// @param _i integer to convert\n    /// @return _uintAsString string\n    function uintToStr(uint _i) internal pure returns (string memory _uintAsString) {\n        uint number = _i;\n        if (number == 0) {\n            return \"0\";\n        }\n        uint j = number;\n        uint len;\n        while (j != 0) {\n            len++;\n            j /= 10;\n        }\n        bytes memory bstr = new bytes(len);\n        uint k = len - 1;\n        while (number != 0) {\n            bstr[k--] = byte(uint8(48 + number % 10));\n            number /= 10;\n        }\n        return string(bstr);\n    }\n\n    /// @notice converts address to string\n    /// @dev source: https://ethereum.stackexchange.com/a/8447/61217\n    /// @param _add address\n    /// @return string\n    function addressToStr(address _add) internal pure returns (string memory) {\n        bytes memory s = new bytes(40);\n        for (uint i = 0; i < 20; i++) {\n            byte b = byte(uint8(uint(_add) / (2**(8*(19 - i)))));\n            byte hi = byte(uint8(b) / 16);\n            byte lo = byte(uint8(b) - 16 * uint8(hi));\n            s[2*i] = char(hi);\n            s[2*i+1] = char(lo);\n        }\n        return string(s);\n    }\n\n    /// @notice character conversion for addressToStr\n    /// @dev source: https://ethereum.stackexchange.com/a/8447/61217\n    /// @param _b byte\n    /// @return c byte\n    function char(byte _b) internal pure returns (byte c) {\n        if (uint8(_b) < 10) {\n            return byte(uint8(_b) + 0x30);\n        } else {\n            return byte(uint8(_b) + 0x57);\n        }\n    }\n}\n\n",
  "sourcePath": "/home/gene/Programming/forget-me-block-eth-cal-auth/contracts/CalStore.sol",
  "compiler": {
    "name": "solc",
    "version": "0.6.12+commit.27d51765.Emscripten.clang"
  },
  "schemaVersion": "3.2.3",
  "updatedAt": "2020-11-02T11:18:19.602Z",
  "networkType": "ethereum",
  "devdoc": {
    "kind": "dev",
    "methods": {
      "getEventsIcal(address)": {
        "params": {
          "_user": "address of user or contract requesting events"
        },
        "returns": {
          "_0": "string iCalendar string iaw RFC 5545"
        }
      },
      "getEventsIcal(address,uint256)": {
        "returns": {
          "_0": "string iCalendar string iaw RFC 5545"
        }
      },
      "getEventsIcal(address,uint256,uint256)": {
        "returns": {
          "_0": "string iCalendar string iaw RFC 5545"
        }
      },
      "removeEvent(uint256)": {
        "details": "assumes _dtstamp is unique.  TODO: Test for this",
        "params": {
          "_dtstamp": "unix time of when event was created"
        }
      }
    },
    "version": 1
  },
  "userdoc": {
    "kind": "user",
    "methods": {
      "deleteEvents()": {
        "notice": "Deletes all events for user calender "
      },
      "getEventsIcal(address)": {
        "notice": "Returns iCal string of message senders previously stored data"
      },
      "getEventsIcal(address,uint256)": {
        "notice": "Returns iCal string of message senders previously stored data"
      },
      "getEventsIcal(address,uint256,uint256)": {
        "notice": "Returns iCal string of message senders previously stored data"
      },
      "removeEvent(uint256)": {
        "notice": "Returns iCal string of message senders previously stored data"
      }
    },
    "version": 1
  }
}